{
	"XXX.sol": {
		"GenericLayout": {
			"abi": [
				{
					"inputs": [
						{
							"internalType": "string",
							"name": "name",
							"type": "string"
						},
						{
							"internalType": "string",
							"name": "symbol",
							"type": "string"
						},
						{
							"internalType": "uint256",
							"name": "initialSupply",
							"type": "uint256"
						},
						{
							"internalType": "uint256",
							"name": "_maxSupply",
							"type": "uint256"
						},
						{
							"internalType": "uint8",
							"name": "_decimalsPlaces",
							"type": "uint8"
						},
						{
							"internalType": "address",
							"name": "deployerAddress",
							"type": "address"
						}
					],
					"stateMutability": "nonpayable",
					"type": "constructor"
				},
				{
					"inputs": [
						{
							"internalType": "address",
							"name": "spender",
							"type": "address"
						},
						{
							"internalType": "uint256",
							"name": "allowance",
							"type": "uint256"
						},
						{
							"internalType": "uint256",
							"name": "needed",
							"type": "uint256"
						}
					],
					"name": "ERC20InsufficientAllowance",
					"type": "error"
				},
				{
					"inputs": [
						{
							"internalType": "address",
							"name": "sender",
							"type": "address"
						},
						{
							"internalType": "uint256",
							"name": "balance",
							"type": "uint256"
						},
						{
							"internalType": "uint256",
							"name": "needed",
							"type": "uint256"
						}
					],
					"name": "ERC20InsufficientBalance",
					"type": "error"
				},
				{
					"inputs": [
						{
							"internalType": "address",
							"name": "approver",
							"type": "address"
						}
					],
					"name": "ERC20InvalidApprover",
					"type": "error"
				},
				{
					"inputs": [
						{
							"internalType": "address",
							"name": "receiver",
							"type": "address"
						}
					],
					"name": "ERC20InvalidReceiver",
					"type": "error"
				},
				{
					"inputs": [
						{
							"internalType": "address",
							"name": "sender",
							"type": "address"
						}
					],
					"name": "ERC20InvalidSender",
					"type": "error"
				},
				{
					"inputs": [
						{
							"internalType": "address",
							"name": "spender",
							"type": "address"
						}
					],
					"name": "ERC20InvalidSpender",
					"type": "error"
				},
				{
					"inputs": [
						{
							"internalType": "address",
							"name": "owner",
							"type": "address"
						}
					],
					"name": "OwnableInvalidOwner",
					"type": "error"
				},
				{
					"inputs": [
						{
							"internalType": "address",
							"name": "account",
							"type": "address"
						}
					],
					"name": "OwnableUnauthorizedAccount",
					"type": "error"
				},
				{
					"anonymous": false,
					"inputs": [
						{
							"indexed": true,
							"internalType": "address",
							"name": "owner",
							"type": "address"
						},
						{
							"indexed": true,
							"internalType": "address",
							"name": "spender",
							"type": "address"
						},
						{
							"indexed": false,
							"internalType": "uint256",
							"name": "value",
							"type": "uint256"
						}
					],
					"name": "Approval",
					"type": "event"
				},
				{
					"anonymous": false,
					"inputs": [
						{
							"indexed": true,
							"internalType": "address",
							"name": "previousOwner",
							"type": "address"
						},
						{
							"indexed": true,
							"internalType": "address",
							"name": "newOwner",
							"type": "address"
						}
					],
					"name": "OwnershipTransferred",
					"type": "event"
				},
				{
					"anonymous": false,
					"inputs": [
						{
							"indexed": false,
							"internalType": "address",
							"name": "account",
							"type": "address"
						}
					],
					"name": "Paused",
					"type": "event"
				},
				{
					"anonymous": false,
					"inputs": [
						{
							"indexed": true,
							"internalType": "address",
							"name": "from",
							"type": "address"
						},
						{
							"indexed": true,
							"internalType": "address",
							"name": "to",
							"type": "address"
						},
						{
							"indexed": false,
							"internalType": "uint256",
							"name": "value",
							"type": "uint256"
						}
					],
					"name": "Transfer",
					"type": "event"
				},
				{
					"anonymous": false,
					"inputs": [
						{
							"indexed": false,
							"internalType": "address",
							"name": "account",
							"type": "address"
						}
					],
					"name": "Unpaused",
					"type": "event"
				},
				{
					"inputs": [
						{
							"internalType": "uint256",
							"name": "amount",
							"type": "uint256"
						}
					],
					"name": "addLiquidity",
					"outputs": [],
					"stateMutability": "nonpayable",
					"type": "function"
				},
				{
					"inputs": [
						{
							"internalType": "address",
							"name": "owner",
							"type": "address"
						},
						{
							"internalType": "address",
							"name": "spender",
							"type": "address"
						}
					],
					"name": "allowance",
					"outputs": [
						{
							"internalType": "uint256",
							"name": "",
							"type": "uint256"
						}
					],
					"stateMutability": "view",
					"type": "function"
				},
				{
					"inputs": [
						{
							"internalType": "address",
							"name": "spender",
							"type": "address"
						},
						{
							"internalType": "uint256",
							"name": "value",
							"type": "uint256"
						}
					],
					"name": "approve",
					"outputs": [
						{
							"internalType": "bool",
							"name": "",
							"type": "bool"
						}
					],
					"stateMutability": "nonpayable",
					"type": "function"
				},
				{
					"inputs": [
						{
							"internalType": "address",
							"name": "account",
							"type": "address"
						}
					],
					"name": "balanceOf",
					"outputs": [
						{
							"internalType": "uint256",
							"name": "",
							"type": "uint256"
						}
					],
					"stateMutability": "view",
					"type": "function"
				},
				{
					"inputs": [
						{
							"internalType": "uint256",
							"name": "value",
							"type": "uint256"
						}
					],
					"name": "burn",
					"outputs": [],
					"stateMutability": "nonpayable",
					"type": "function"
				},
				{
					"inputs": [
						{
							"internalType": "address",
							"name": "account",
							"type": "address"
						},
						{
							"internalType": "uint256",
							"name": "value",
							"type": "uint256"
						}
					],
					"name": "burnFrom",
					"outputs": [],
					"stateMutability": "nonpayable",
					"type": "function"
				},
				{
					"inputs": [
						{
							"internalType": "address",
							"name": "user",
							"type": "address"
						}
					],
					"name": "calculateReward",
					"outputs": [
						{
							"internalType": "uint256",
							"name": "",
							"type": "uint256"
						}
					],
					"stateMutability": "view",
					"type": "function"
				},
				{
					"inputs": [],
					"name": "decimals",
					"outputs": [
						{
							"internalType": "uint8",
							"name": "",
							"type": "uint8"
						}
					],
					"stateMutability": "view",
					"type": "function"
				},
				{
					"inputs": [],
					"name": "decimalsPlaces",
					"outputs": [
						{
							"internalType": "uint8",
							"name": "",
							"type": "uint8"
						}
					],
					"stateMutability": "view",
					"type": "function"
				},
				{
					"inputs": [],
					"name": "disableCircuitBreaker",
					"outputs": [],
					"stateMutability": "nonpayable",
					"type": "function"
				},
				{
					"inputs": [],
					"name": "enableCircuitBreaker",
					"outputs": [],
					"stateMutability": "nonpayable",
					"type": "function"
				},
				{
					"inputs": [],
					"name": "maxSupply",
					"outputs": [
						{
							"internalType": "uint256",
							"name": "",
							"type": "uint256"
						}
					],
					"stateMutability": "view",
					"type": "function"
				},
				{
					"inputs": [],
					"name": "name",
					"outputs": [
						{
							"internalType": "string",
							"name": "",
							"type": "string"
						}
					],
					"stateMutability": "view",
					"type": "function"
				},
				{
					"inputs": [],
					"name": "owner",
					"outputs": [
						{
							"internalType": "address",
							"name": "",
							"type": "address"
						}
					],
					"stateMutability": "view",
					"type": "function"
				},
				{
					"inputs": [
						{
							"internalType": "uint256",
							"name": "amount",
							"type": "uint256"
						}
					],
					"name": "ownerAddLiquidity",
					"outputs": [],
					"stateMutability": "nonpayable",
					"type": "function"
				},
				{
					"inputs": [
						{
							"internalType": "uint256",
							"name": "amount",
							"type": "uint256"
						}
					],
					"name": "ownerRemoveLiquidity",
					"outputs": [],
					"stateMutability": "nonpayable",
					"type": "function"
				},
				{
					"inputs": [],
					"name": "pause",
					"outputs": [],
					"stateMutability": "nonpayable",
					"type": "function"
				},
				{
					"inputs": [],
					"name": "paused",
					"outputs": [
						{
							"internalType": "bool",
							"name": "",
							"type": "bool"
						}
					],
					"stateMutability": "view",
					"type": "function"
				},
				{
					"inputs": [
						{
							"internalType": "uint256",
							"name": "amount",
							"type": "uint256"
						}
					],
					"name": "removeLiquidityAndClaimRewards",
					"outputs": [],
					"stateMutability": "nonpayable",
					"type": "function"
				},
				{
					"inputs": [],
					"name": "renounceOwnership",
					"outputs": [],
					"stateMutability": "nonpayable",
					"type": "function"
				},
				{
					"inputs": [],
					"name": "symbol",
					"outputs": [
						{
							"internalType": "string",
							"name": "",
							"type": "string"
						}
					],
					"stateMutability": "view",
					"type": "function"
				},
				{
					"inputs": [],
					"name": "totalSupply",
					"outputs": [
						{
							"internalType": "uint256",
							"name": "",
							"type": "uint256"
						}
					],
					"stateMutability": "view",
					"type": "function"
				},
				{
					"inputs": [
						{
							"internalType": "address",
							"name": "to",
							"type": "address"
						},
						{
							"internalType": "uint256",
							"name": "value",
							"type": "uint256"
						}
					],
					"name": "transfer",
					"outputs": [
						{
							"internalType": "bool",
							"name": "",
							"type": "bool"
						}
					],
					"stateMutability": "nonpayable",
					"type": "function"
				},
				{
					"inputs": [
						{
							"internalType": "address",
							"name": "from",
							"type": "address"
						},
						{
							"internalType": "address",
							"name": "to",
							"type": "address"
						},
						{
							"internalType": "uint256",
							"name": "value",
							"type": "uint256"
						}
					],
					"name": "transferFrom",
					"outputs": [
						{
							"internalType": "bool",
							"name": "",
							"type": "bool"
						}
					],
					"stateMutability": "nonpayable",
					"type": "function"
				},
				{
					"inputs": [
						{
							"internalType": "address",
							"name": "newOwner",
							"type": "address"
						}
					],
					"name": "transferOwnership",
					"outputs": [],
					"stateMutability": "nonpayable",
					"type": "function"
				},
				{
					"inputs": [],
					"name": "unpause",
					"outputs": [],
					"stateMutability": "nonpayable",
					"type": "function"
				}
			],
			"devdoc": {
				"errors": {
					"ERC20InsufficientAllowance(address,uint256,uint256)": [
						{
							"details": "Indicates a failure with the `spender`’s `allowance`. Used in transfers.",
							"params": {
								"allowance": "Amount of tokens a `spender` is allowed to operate with.",
								"needed": "Minimum amount required to perform a transfer.",
								"spender": "Address that may be allowed to operate on tokens without being their owner."
							}
						}
					],
					"ERC20InsufficientBalance(address,uint256,uint256)": [
						{
							"details": "Indicates an error related to the current `balance` of a `sender`. Used in transfers.",
							"params": {
								"balance": "Current balance for the interacting account.",
								"needed": "Minimum amount required to perform a transfer.",
								"sender": "Address whose tokens are being transferred."
							}
						}
					],
					"ERC20InvalidApprover(address)": [
						{
							"details": "Indicates a failure with the `approver` of a token to be approved. Used in approvals.",
							"params": {
								"approver": "Address initiating an approval operation."
							}
						}
					],
					"ERC20InvalidReceiver(address)": [
						{
							"details": "Indicates a failure with the token `receiver`. Used in transfers.",
							"params": {
								"receiver": "Address to which tokens are being transferred."
							}
						}
					],
					"ERC20InvalidSender(address)": [
						{
							"details": "Indicates a failure with the token `sender`. Used in transfers.",
							"params": {
								"sender": "Address whose tokens are being transferred."
							}
						}
					],
					"ERC20InvalidSpender(address)": [
						{
							"details": "Indicates a failure with the `spender` to be approved. Used in approvals.",
							"params": {
								"spender": "Address that may be allowed to operate on tokens without being their owner."
							}
						}
					],
					"OwnableInvalidOwner(address)": [
						{
							"details": "The owner is not a valid owner account. (eg. `address(0)`)"
						}
					],
					"OwnableUnauthorizedAccount(address)": [
						{
							"details": "The caller account is not authorized to perform an operation."
						}
					]
				},
				"events": {
					"Approval(address,address,uint256)": {
						"details": "Emitted when the allowance of a `spender` for an `owner` is set by a call to {approve}. `value` is the new allowance."
					},
					"Paused(address)": {
						"details": "Emitted when the pause is triggered by `account`."
					},
					"Transfer(address,address,uint256)": {
						"details": "Emitted when `value` tokens are moved from one account (`from`) to another (`to`). Note that `value` may be zero."
					},
					"Unpaused(address)": {
						"details": "Emitted when the pause is lifted by `account`."
					}
				},
				"kind": "dev",
				"methods": {
					"allowance(address,address)": {
						"details": "See {IERC20-allowance}."
					},
					"approve(address,uint256)": {
						"details": "See {IERC20-approve}. NOTE: If `value` is the maximum `uint256`, the allowance is not updated on `transferFrom`. This is semantically equivalent to an infinite approval. Requirements: - `spender` cannot be the zero address."
					},
					"balanceOf(address)": {
						"details": "See {IERC20-balanceOf}."
					},
					"burn(uint256)": {
						"details": "Destroys a `value` amount of tokens from the caller. See {ERC20-_burn}."
					},
					"burnFrom(address,uint256)": {
						"details": "Destroys a `value` amount of tokens from `account`, deducting from the caller's allowance. See {ERC20-_burn} and {ERC20-allowance}. Requirements: - the caller must have allowance for ``accounts``'s tokens of at least `value`."
					},
					"decimals()": {
						"details": "Returns the number of decimals used to get its user representation. For example, if `decimals` equals `2`, a balance of `505` tokens should be displayed to a user as `5.05` (`505 / 10 ** 2`). Tokens usually opt for a value of 18, imitating the relationship between Ether and Wei. This is the default value returned by this function, unless it's overridden. NOTE: This information is only used for _display_ purposes: it in no way affects any of the arithmetic of the contract, including {IERC20-balanceOf} and {IERC20-transfer}."
					},
					"name()": {
						"details": "Returns the name of the token."
					},
					"owner()": {
						"details": "Returns the address of the current owner."
					},
					"paused()": {
						"details": "Returns true if the contract is paused, and false otherwise."
					},
					"renounceOwnership()": {
						"details": "Leaves the contract without owner. It will not be possible to call `onlyOwner` functions. Can only be called by the current owner. NOTE: Renouncing ownership will leave the contract without an owner, thereby disabling any functionality that is only available to the owner."
					},
					"symbol()": {
						"details": "Returns the symbol of the token, usually a shorter version of the name."
					},
					"totalSupply()": {
						"details": "See {IERC20-totalSupply}."
					},
					"transfer(address,uint256)": {
						"details": "See {IERC20-transfer}. Requirements: - `to` cannot be the zero address. - the caller must have a balance of at least `value`."
					},
					"transferFrom(address,address,uint256)": {
						"details": "See {IERC20-transferFrom}. Emits an {Approval} event indicating the updated allowance. This is not required by the EIP. See the note at the beginning of {ERC20}. NOTE: Does not update the allowance if the current allowance is the maximum `uint256`. Requirements: - `from` and `to` cannot be the zero address. - `from` must have a balance of at least `value`. - the caller must have allowance for ``from``'s tokens of at least `value`."
					},
					"transferOwnership(address)": {
						"details": "Transfers ownership of the contract to a new account (`newOwner`). Can only be called by the current owner."
					}
				},
				"version": 1
			},
			"evm": {
				"assembly": "    /* \"XXX.sol\":299:4427  contract GenericLayout is ERC20, ERC20Burnable, Pausable, Ownable, ReentrancyGuard {... */\n  mstore(0x40, 0x80)\n    /* \"XXX.sol\":1411:1416  false */\n  0x00\n    /* \"XXX.sol\":1373:1416  bool private _circuitBreakerEnabled = false */\n  0x0b\n  exp(0x0100, 0x00)\n  dup2\n  sload\n  dup2\n  0xff\n  mul\n  not\n  and\n  swap1\n  dup4\n  iszero\n  iszero\n  mul\n  or\n  swap1\n  sstore\n  pop\n    /* \"XXX.sol\":628:1108  constructor(... */\n  callvalue\n  dup1\n  iszero\n  tag_1\n  jumpi\n  0x00\n  dup1\n  revert\ntag_1:\n  pop\n  mload(0x40)\n  sub(codesize, bytecodeSize)\n  dup1\n  bytecodeSize\n  dup4\n  codecopy\n  dup2\n  dup2\n  add\n  0x40\n  mstore\n  dup2\n  add\n  swap1\n  tag_2\n  swap2\n  swap1\n  tag_3\n  jump\t// in\ntag_2:\n    /* \"XXX.sol\":862:877  deployerAddress */\n  dup1\n    /* \"XXX.sol\":840:844  name */\n  dup7\n    /* \"XXX.sol\":846:852  symbol */\n  dup7\n    /* \"contracts/token/ERC20/ERC20.sol\":918:923  name_ */\n  dup2\n    /* \"contracts/token/ERC20/ERC20.sol\":910:915  _name */\n  0x03\n    /* \"contracts/token/ERC20/ERC20.sol\":910:923  _name = name_ */\n  swap1\n  dup2\n  tag_10\n  swap2\n  swap1\n  tag_11\n  jump\t// in\ntag_10:\n  pop\n    /* \"contracts/token/ERC20/ERC20.sol\":943:950  symbol_ */\n  dup1\n    /* \"contracts/token/ERC20/ERC20.sol\":933:940  _symbol */\n  0x04\n    /* \"contracts/token/ERC20/ERC20.sol\":933:950  _symbol = symbol_ */\n  swap1\n  dup2\n  tag_12\n  swap2\n  swap1\n  tag_11\n  jump\t// in\ntag_12:\n  pop\n    /* \"contracts/token/ERC20/ERC20.sol\":844:957  constructor(string memory name_, string memory symbol_) {... */\n  pop\n  pop\n    /* \"contracts/security/Pausable.sol\":1006:1011  false */\n  0x00\n    /* \"contracts/security/Pausable.sol\":996:1003  _paused */\n  0x05\n  0x00\n    /* \"contracts/security/Pausable.sol\":996:1011  _paused = false */\n  0x0100\n  exp\n  dup2\n  sload\n  dup2\n  0xff\n  mul\n  not\n  and\n  swap1\n  dup4\n  iszero\n  iszero\n  mul\n  or\n  swap1\n  sstore\n  pop\n    /* \"contracts/access/Ownable.sol\":1297:1298  0 */\n  0x00\n    /* \"contracts/access/Ownable.sol\":1273:1299  initialOwner == address(0) */\n  0xffffffffffffffffffffffffffffffffffffffff\n  and\n    /* \"contracts/access/Ownable.sol\":1273:1285  initialOwner */\n  dup2\n    /* \"contracts/access/Ownable.sol\":1273:1299  initialOwner == address(0) */\n  0xffffffffffffffffffffffffffffffffffffffff\n  and\n  sub\n    /* \"contracts/access/Ownable.sol\":1269:1364  if (initialOwner == address(0)) {... */\n  tag_15\n  jumpi\n    /* \"contracts/access/Ownable.sol\":1350:1351  0 */\n  0x00\n    /* \"contracts/access/Ownable.sol\":1322:1353  OwnableInvalidOwner(address(0)) */\n  mload(0x40)\n  0x1e4fbdf700000000000000000000000000000000000000000000000000000000\n  dup2\n  mstore\n  0x04\n  add\n  tag_16\n  swap2\n  swap1\n  tag_17\n  jump\t// in\ntag_16:\n  mload(0x40)\n  dup1\n  swap2\n  sub\n  swap1\n  revert\n    /* \"contracts/access/Ownable.sol\":1269:1364  if (initialOwner == address(0)) {... */\ntag_15:\n    /* \"contracts/access/Ownable.sol\":1373:1405  _transferOwnership(initialOwner) */\n  tag_18\n    /* \"contracts/access/Ownable.sol\":1392:1404  initialOwner */\n  dup2\n    /* \"contracts/access/Ownable.sol\":1373:1391  _transferOwnership */\n  shl(0x20, tag_19)\n    /* \"contracts/access/Ownable.sol\":1373:1405  _transferOwnership(initialOwner) */\n  0x20\n  shr\n  jump\t// in\ntag_18:\n    /* \"contracts/access/Ownable.sol\":1225:1412  constructor(address initialOwner) {... */\n  pop\n    /* \"contracts/security/ReentrancyGuard.sol\":1716:1717  1 */\n  0x01\n    /* \"contracts/security/ReentrancyGuard.sol\":1821:1828  _status */\n  0x06\n    /* \"contracts/security/ReentrancyGuard.sol\":1821:1843  _status = _NOT_ENTERED */\n  dup2\n  swap1\n  sstore\n  pop\n    /* \"XXX.sol\":915:925  _maxSupply */\n  dup3\n    /* \"XXX.sol\":898:911  initialSupply */\n  dup5\n    /* \"XXX.sol\":898:925  initialSupply <= _maxSupply */\n  gt\n  iszero\n    /* \"XXX.sol\":890:976  require(initialSupply <= _maxSupply, \"Initial supply cannot be more than max supply.\") */\n  tag_22\n  jumpi\n  mload(0x40)\n  0x08c379a000000000000000000000000000000000000000000000000000000000\n  dup2\n  mstore\n  0x04\n  add\n  tag_23\n  swap1\n  tag_24\n  jump\t// in\ntag_23:\n  mload(0x40)\n  dup1\n  swap2\n  sub\n  swap1\n  revert\ntag_22:\n    /* \"XXX.sol\":987:1024  _mint(deployerAddress, initialSupply) */\n  tag_25\n    /* \"XXX.sol\":993:1008  deployerAddress */\n  dup2\n    /* \"XXX.sol\":1010:1023  initialSupply */\n  dup6\n    /* \"XXX.sol\":987:992  _mint */\n  shl(0x20, tag_26)\n    /* \"XXX.sol\":987:1024  _mint(deployerAddress, initialSupply) */\n  0x20\n  shr\n  jump\t// in\ntag_25:\n    /* \"XXX.sol\":1047:1057  _maxSupply */\n  dup3\n    /* \"XXX.sol\":1035:1044  maxSupply */\n  0x07\n    /* \"XXX.sol\":1035:1057  maxSupply = _maxSupply */\n  dup2\n  swap1\n  sstore\n  pop\n    /* \"XXX.sol\":1085:1100  _decimalsPlaces */\n  dup2\n    /* \"XXX.sol\":1068:1082  decimalsPlaces */\n  0x08\n  0x00\n    /* \"XXX.sol\":1068:1100  decimalsPlaces = _decimalsPlaces */\n  0x0100\n  exp\n  dup2\n  sload\n  dup2\n  0xff\n  mul\n  not\n  and\n  swap1\n  dup4\n  0xff\n  and\n  mul\n  or\n  swap1\n  sstore\n  pop\n    /* \"XXX.sol\":628:1108  constructor(... */\n  pop\n  pop\n  pop\n  pop\n  pop\n  pop\n    /* \"XXX.sol\":299:4427  contract GenericLayout is ERC20, ERC20Burnable, Pausable, Ownable, ReentrancyGuard {... */\n  jump(tag_27)\n    /* \"contracts/access/Ownable.sol\":2912:3099  function _transferOwnership(address newOwner) internal virtual {... */\ntag_19:\n    /* \"contracts/access/Ownable.sol\":2985:3001  address oldOwner */\n  0x00\n    /* \"contracts/access/Ownable.sol\":3004:3010  _owner */\n  0x05\n  0x01\n  swap1\n  sload\n  swap1\n  0x0100\n  exp\n  swap1\n  div\n  0xffffffffffffffffffffffffffffffffffffffff\n  and\n    /* \"contracts/access/Ownable.sol\":2985:3010  address oldOwner = _owner */\n  swap1\n  pop\n    /* \"contracts/access/Ownable.sol\":3029:3037  newOwner */\n  dup2\n    /* \"contracts/access/Ownable.sol\":3020:3026  _owner */\n  0x05\n  0x01\n    /* \"contracts/access/Ownable.sol\":3020:3037  _owner = newOwner */\n  0x0100\n  exp\n  dup2\n  sload\n  dup2\n  0xffffffffffffffffffffffffffffffffffffffff\n  mul\n  not\n  and\n  swap1\n  dup4\n  0xffffffffffffffffffffffffffffffffffffffff\n  and\n  mul\n  or\n  swap1\n  sstore\n  pop\n    /* \"contracts/access/Ownable.sol\":3083:3091  newOwner */\n  dup2\n    /* \"contracts/access/Ownable.sol\":3052:3092  OwnershipTransferred(oldOwner, newOwner) */\n  0xffffffffffffffffffffffffffffffffffffffff\n  and\n    /* \"contracts/access/Ownable.sol\":3073:3081  oldOwner */\n  dup2\n    /* \"contracts/access/Ownable.sol\":3052:3092  OwnershipTransferred(oldOwner, newOwner) */\n  0xffffffffffffffffffffffffffffffffffffffff\n  and\n  0x8be0079c531659141344cd1fd0a4f28419497f9722a3daafe3b4186f6b6457e0\n  mload(0x40)\n  mload(0x40)\n  dup1\n  swap2\n  sub\n  swap1\n  log3\n    /* \"contracts/access/Ownable.sol\":2975:3099  {... */\n  pop\n    /* \"contracts/access/Ownable.sol\":2912:3099  function _transferOwnership(address newOwner) internal virtual {... */\n  pop\n  jump\t// out\n    /* \"contracts/token/ERC20/ERC20.sol\":6677:6894  function _mint(address account, uint256 value) internal virtual  {... */\ntag_26:\n    /* \"contracts/token/ERC20/ERC20.sol\":6775:6776  0 */\n  0x00\n    /* \"contracts/token/ERC20/ERC20.sol\":6756:6777  account == address(0) */\n  0xffffffffffffffffffffffffffffffffffffffff\n  and\n    /* \"contracts/token/ERC20/ERC20.sol\":6756:6763  account */\n  dup3\n    /* \"contracts/token/ERC20/ERC20.sol\":6756:6777  account == address(0) */\n  0xffffffffffffffffffffffffffffffffffffffff\n  and\n  sub\n    /* \"contracts/token/ERC20/ERC20.sol\":6752:6843  if (account == address(0)) {... */\n  tag_30\n  jumpi\n    /* \"contracts/token/ERC20/ERC20.sol\":6829:6830  0 */\n  0x00\n    /* \"contracts/token/ERC20/ERC20.sol\":6800:6832  ERC20InvalidReceiver(address(0)) */\n  mload(0x40)\n  0xec442f0500000000000000000000000000000000000000000000000000000000\n  dup2\n  mstore\n  0x04\n  add\n  tag_31\n  swap2\n  swap1\n  tag_17\n  jump\t// in\ntag_31:\n  mload(0x40)\n  dup1\n  swap2\n  sub\n  swap1\n  revert\n    /* \"contracts/token/ERC20/ERC20.sol\":6752:6843  if (account == address(0)) {... */\ntag_30:\n    /* \"contracts/token/ERC20/ERC20.sol\":6852:6887  _update(address(0), account, value) */\n  tag_32\n    /* \"contracts/token/ERC20/ERC20.sol\":6868:6869  0 */\n  0x00\n    /* \"contracts/token/ERC20/ERC20.sol\":6872:6879  account */\n  dup4\n    /* \"contracts/token/ERC20/ERC20.sol\":6881:6886  value */\n  dup4\n    /* \"contracts/token/ERC20/ERC20.sol\":6852:6859  _update */\n  shl(0x20, tag_33)\n    /* \"contracts/token/ERC20/ERC20.sol\":6852:6887  _update(address(0), account, value) */\n  0x20\n  shr\n  jump\t// in\ntag_32:\n    /* \"contracts/token/ERC20/ERC20.sol\":6677:6894  function _mint(address account, uint256 value) internal virtual  {... */\n  pop\n  pop\n  jump\t// out\n    /* \"contracts/token/ERC20/ERC20.sol\":5227:6334  function _update(address from, address to, uint256 value) internal virtual {... */\ntag_33:\n    /* \"contracts/token/ERC20/ERC20.sol\":5332:5333  0 */\n  0x00\n    /* \"contracts/token/ERC20/ERC20.sol\":5316:5334  from == address(0) */\n  0xffffffffffffffffffffffffffffffffffffffff\n  and\n    /* \"contracts/token/ERC20/ERC20.sol\":5316:5320  from */\n  dup4\n    /* \"contracts/token/ERC20/ERC20.sol\":5316:5334  from == address(0) */\n  0xffffffffffffffffffffffffffffffffffffffff\n  and\n  sub\n    /* \"contracts/token/ERC20/ERC20.sol\":5312:5852  if (from == address(0)) {... */\n  tag_35\n  jumpi\n    /* \"contracts/token/ERC20/ERC20.sol\":5468:5473  value */\n  dup1\n    /* \"contracts/token/ERC20/ERC20.sol\":5452:5464  _totalSupply */\n  0x02\n  0x00\n    /* \"contracts/token/ERC20/ERC20.sol\":5452:5473  _totalSupply += value */\n  dup3\n  dup3\n  sload\n  tag_36\n  swap2\n  swap1\n  tag_37\n  jump\t// in\ntag_36:\n  swap3\n  pop\n  pop\n  dup2\n  swap1\n  sstore\n  pop\n    /* \"contracts/token/ERC20/ERC20.sol\":5312:5852  if (from == address(0)) {... */\n  jump(tag_38)\ntag_35:\n    /* \"contracts/token/ERC20/ERC20.sol\":5504:5523  uint256 fromBalance */\n  0x00\n    /* \"contracts/token/ERC20/ERC20.sol\":5526:5535  _balances */\n  dup1\n    /* \"contracts/token/ERC20/ERC20.sol\":5526:5541  _balances[from] */\n  0x00\n    /* \"contracts/token/ERC20/ERC20.sol\":5536:5540  from */\n  dup6\n    /* \"contracts/token/ERC20/ERC20.sol\":5526:5541  _balances[from] */\n  0xffffffffffffffffffffffffffffffffffffffff\n  and\n  0xffffffffffffffffffffffffffffffffffffffff\n  and\n  dup2\n  mstore\n  0x20\n  add\n  swap1\n  dup2\n  mstore\n  0x20\n  add\n  0x00\n  keccak256\n  sload\n    /* \"contracts/token/ERC20/ERC20.sol\":5504:5541  uint256 fromBalance = _balances[from] */\n  swap1\n  pop\n    /* \"contracts/token/ERC20/ERC20.sol\":5573:5578  value */\n  dup2\n    /* \"contracts/token/ERC20/ERC20.sol\":5559:5570  fromBalance */\n  dup2\n    /* \"contracts/token/ERC20/ERC20.sol\":5559:5578  fromBalance < value */\n  lt\n    /* \"contracts/token/ERC20/ERC20.sol\":5555:5670  if (fromBalance < value) {... */\n  iszero\n  tag_39\n  jumpi\n    /* \"contracts/token/ERC20/ERC20.sol\":5630:5634  from */\n  dup4\n    /* \"contracts/token/ERC20/ERC20.sol\":5636:5647  fromBalance */\n  dup2\n    /* \"contracts/token/ERC20/ERC20.sol\":5649:5654  value */\n  dup4\n    /* \"contracts/token/ERC20/ERC20.sol\":5605:5655  ERC20InsufficientBalance(from, fromBalance, value) */\n  mload(0x40)\n  0xe450d38c00000000000000000000000000000000000000000000000000000000\n  dup2\n  mstore\n  0x04\n  add\n  tag_40\n  swap4\n  swap3\n  swap2\n  swap1\n  tag_41\n  jump\t// in\ntag_40:\n  mload(0x40)\n  dup1\n  swap2\n  sub\n  swap1\n  revert\n    /* \"contracts/token/ERC20/ERC20.sol\":5555:5670  if (fromBalance < value) {... */\ntag_39:\n    /* \"contracts/token/ERC20/ERC20.sol\":5822:5827  value */\n  dup2\n    /* \"contracts/token/ERC20/ERC20.sol\":5808:5819  fromBalance */\n  dup2\n    /* \"contracts/token/ERC20/ERC20.sol\":5808:5827  fromBalance - value */\n  sub\n    /* \"contracts/token/ERC20/ERC20.sol\":5790:5799  _balances */\n  0x00\n    /* \"contracts/token/ERC20/ERC20.sol\":5790:5805  _balances[from] */\n  dup1\n    /* \"contracts/token/ERC20/ERC20.sol\":5800:5804  from */\n  dup7\n    /* \"contracts/token/ERC20/ERC20.sol\":5790:5805  _balances[from] */\n  0xffffffffffffffffffffffffffffffffffffffff\n  and\n  0xffffffffffffffffffffffffffffffffffffffff\n  and\n  dup2\n  mstore\n  0x20\n  add\n  swap1\n  dup2\n  mstore\n  0x20\n  add\n  0x00\n  keccak256\n    /* \"contracts/token/ERC20/ERC20.sol\":5790:5827  _balances[from] = fromBalance - value */\n  dup2\n  swap1\n  sstore\n  pop\n    /* \"contracts/token/ERC20/ERC20.sol\":5490:5852  {... */\n  pop\n    /* \"contracts/token/ERC20/ERC20.sol\":5312:5852  if (from == address(0)) {... */\ntag_38:\n    /* \"contracts/token/ERC20/ERC20.sol\":5880:5881  0 */\n  0x00\n    /* \"contracts/token/ERC20/ERC20.sol\":5866:5882  to == address(0) */\n  0xffffffffffffffffffffffffffffffffffffffff\n  and\n    /* \"contracts/token/ERC20/ERC20.sol\":5866:5868  to */\n  dup3\n    /* \"contracts/token/ERC20/ERC20.sol\":5866:5882  to == address(0) */\n  0xffffffffffffffffffffffffffffffffffffffff\n  and\n  sub\n    /* \"contracts/token/ERC20/ERC20.sol\":5862:6287  if (to == address(0)) {... */\n  tag_42\n  jumpi\n    /* \"contracts/token/ERC20/ERC20.sol\":6045:6050  value */\n  dup1\n    /* \"contracts/token/ERC20/ERC20.sol\":6029:6041  _totalSupply */\n  0x02\n  0x00\n    /* \"contracts/token/ERC20/ERC20.sol\":6029:6050  _totalSupply -= value */\n  dup3\n  dup3\n  sload\n  sub\n  swap3\n  pop\n  pop\n  dup2\n  swap1\n  sstore\n  pop\n    /* \"contracts/token/ERC20/ERC20.sol\":5862:6287  if (to == address(0)) {... */\n  jump(tag_43)\ntag_42:\n    /* \"contracts/token/ERC20/ERC20.sol\":6257:6262  value */\n  dup1\n    /* \"contracts/token/ERC20/ERC20.sol\":6240:6249  _balances */\n  0x00\n    /* \"contracts/token/ERC20/ERC20.sol\":6240:6253  _balances[to] */\n  dup1\n    /* \"contracts/token/ERC20/ERC20.sol\":6250:6252  to */\n  dup5\n    /* \"contracts/token/ERC20/ERC20.sol\":6240:6253  _balances[to] */\n  0xffffffffffffffffffffffffffffffffffffffff\n  and\n  0xffffffffffffffffffffffffffffffffffffffff\n  and\n  dup2\n  mstore\n  0x20\n  add\n  swap1\n  dup2\n  mstore\n  0x20\n  add\n  0x00\n  keccak256\n  0x00\n    /* \"contracts/token/ERC20/ERC20.sol\":6240:6262  _balances[to] += value */\n  dup3\n  dup3\n  sload\n  add\n  swap3\n  pop\n  pop\n  dup2\n  swap1\n  sstore\n  pop\n    /* \"contracts/token/ERC20/ERC20.sol\":5862:6287  if (to == address(0)) {... */\ntag_43:\n    /* \"contracts/token/ERC20/ERC20.sol\":6317:6319  to */\n  dup2\n    /* \"contracts/token/ERC20/ERC20.sol\":6302:6327  Transfer(from, to, value) */\n  0xffffffffffffffffffffffffffffffffffffffff\n  and\n    /* \"contracts/token/ERC20/ERC20.sol\":6311:6315  from */\n  dup4\n    /* \"contracts/token/ERC20/ERC20.sol\":6302:6327  Transfer(from, to, value) */\n  0xffffffffffffffffffffffffffffffffffffffff\n  and\n  0xddf252ad1be2c89b69c2b068fc378daa952ba7f163c4a11628f55a4df523b3ef\n    /* \"contracts/token/ERC20/ERC20.sol\":6321:6326  value */\n  dup4\n    /* \"contracts/token/ERC20/ERC20.sol\":6302:6327  Transfer(from, to, value) */\n  mload(0x40)\n  tag_44\n  swap2\n  swap1\n  tag_45\n  jump\t// in\ntag_44:\n  mload(0x40)\n  dup1\n  swap2\n  sub\n  swap1\n  log3\n    /* \"contracts/token/ERC20/ERC20.sol\":5227:6334  function _update(address from, address to, uint256 value) internal virtual {... */\n  pop\n  pop\n  pop\n  jump\t// out\n    /* \"#utility.yul\":7:82   */\ntag_46:\n    /* \"#utility.yul\":40:46   */\n  0x00\n    /* \"#utility.yul\":73:75   */\n  0x40\n    /* \"#utility.yul\":67:76   */\n  mload\n    /* \"#utility.yul\":57:76   */\n  swap1\n  pop\n    /* \"#utility.yul\":7:82   */\n  swap1\n  jump\t// out\n    /* \"#utility.yul\":88:205   */\ntag_47:\n    /* \"#utility.yul\":197:198   */\n  0x00\n    /* \"#utility.yul\":194:195   */\n  dup1\n    /* \"#utility.yul\":187:199   */\n  revert\n    /* \"#utility.yul\":211:328   */\ntag_48:\n    /* \"#utility.yul\":320:321   */\n  0x00\n    /* \"#utility.yul\":317:318   */\n  dup1\n    /* \"#utility.yul\":310:322   */\n  revert\n    /* \"#utility.yul\":334:451   */\ntag_49:\n    /* \"#utility.yul\":443:444   */\n  0x00\n    /* \"#utility.yul\":440:441   */\n  dup1\n    /* \"#utility.yul\":433:445   */\n  revert\n    /* \"#utility.yul\":457:574   */\ntag_50:\n    /* \"#utility.yul\":566:567   */\n  0x00\n    /* \"#utility.yul\":563:564   */\n  dup1\n    /* \"#utility.yul\":556:568   */\n  revert\n    /* \"#utility.yul\":580:682   */\ntag_51:\n    /* \"#utility.yul\":621:627   */\n  0x00\n    /* \"#utility.yul\":672:674   */\n  0x1f\n    /* \"#utility.yul\":668:675   */\n  not\n    /* \"#utility.yul\":663:665   */\n  0x1f\n    /* \"#utility.yul\":656:661   */\n  dup4\n    /* \"#utility.yul\":652:666   */\n  add\n    /* \"#utility.yul\":648:676   */\n  and\n    /* \"#utility.yul\":638:676   */\n  swap1\n  pop\n    /* \"#utility.yul\":580:682   */\n  swap2\n  swap1\n  pop\n  jump\t// out\n    /* \"#utility.yul\":688:868   */\ntag_52:\n    /* \"#utility.yul\":736:813   */\n  0x4e487b7100000000000000000000000000000000000000000000000000000000\n    /* \"#utility.yul\":733:734   */\n  0x00\n    /* \"#utility.yul\":726:814   */\n  mstore\n    /* \"#utility.yul\":833:837   */\n  0x41\n    /* \"#utility.yul\":830:831   */\n  0x04\n    /* \"#utility.yul\":823:838   */\n  mstore\n    /* \"#utility.yul\":857:861   */\n  0x24\n    /* \"#utility.yul\":854:855   */\n  0x00\n    /* \"#utility.yul\":847:862   */\n  revert\n    /* \"#utility.yul\":874:1155   */\ntag_53:\n    /* \"#utility.yul\":957:984   */\n  tag_102\n    /* \"#utility.yul\":979:983   */\n  dup3\n    /* \"#utility.yul\":957:984   */\n  tag_51\n  jump\t// in\ntag_102:\n    /* \"#utility.yul\":949:955   */\n  dup2\n    /* \"#utility.yul\":945:985   */\n  add\n    /* \"#utility.yul\":1087:1093   */\n  dup2\n    /* \"#utility.yul\":1075:1085   */\n  dup2\n    /* \"#utility.yul\":1072:1094   */\n  lt\n    /* \"#utility.yul\":1051:1069   */\n  0xffffffffffffffff\n    /* \"#utility.yul\":1039:1049   */\n  dup3\n    /* \"#utility.yul\":1036:1070   */\n  gt\n    /* \"#utility.yul\":1033:1095   */\n  or\n    /* \"#utility.yul\":1030:1118   */\n  iszero\n  tag_103\n  jumpi\n    /* \"#utility.yul\":1098:1116   */\n  tag_104\n  tag_52\n  jump\t// in\ntag_104:\n    /* \"#utility.yul\":1030:1118   */\ntag_103:\n    /* \"#utility.yul\":1138:1148   */\n  dup1\n    /* \"#utility.yul\":1134:1136   */\n  0x40\n    /* \"#utility.yul\":1127:1149   */\n  mstore\n    /* \"#utility.yul\":917:1155   */\n  pop\n    /* \"#utility.yul\":874:1155   */\n  pop\n  pop\n  jump\t// out\n    /* \"#utility.yul\":1161:1290   */\ntag_54:\n    /* \"#utility.yul\":1195:1201   */\n  0x00\n    /* \"#utility.yul\":1222:1242   */\n  tag_106\n  tag_46\n  jump\t// in\ntag_106:\n    /* \"#utility.yul\":1212:1242   */\n  swap1\n  pop\n    /* \"#utility.yul\":1251:1284   */\n  tag_107\n    /* \"#utility.yul\":1279:1283   */\n  dup3\n    /* \"#utility.yul\":1271:1277   */\n  dup3\n    /* \"#utility.yul\":1251:1284   */\n  tag_53\n  jump\t// in\ntag_107:\n    /* \"#utility.yul\":1161:1290   */\n  swap2\n  swap1\n  pop\n  jump\t// out\n    /* \"#utility.yul\":1296:1604   */\ntag_55:\n    /* \"#utility.yul\":1358:1362   */\n  0x00\n    /* \"#utility.yul\":1448:1466   */\n  0xffffffffffffffff\n    /* \"#utility.yul\":1440:1446   */\n  dup3\n    /* \"#utility.yul\":1437:1467   */\n  gt\n    /* \"#utility.yul\":1434:1490   */\n  iszero\n  tag_109\n  jumpi\n    /* \"#utility.yul\":1470:1488   */\n  tag_110\n  tag_52\n  jump\t// in\ntag_110:\n    /* \"#utility.yul\":1434:1490   */\ntag_109:\n    /* \"#utility.yul\":1508:1537   */\n  tag_111\n    /* \"#utility.yul\":1530:1536   */\n  dup3\n    /* \"#utility.yul\":1508:1537   */\n  tag_51\n  jump\t// in\ntag_111:\n    /* \"#utility.yul\":1500:1537   */\n  swap1\n  pop\n    /* \"#utility.yul\":1592:1596   */\n  0x20\n    /* \"#utility.yul\":1586:1590   */\n  dup2\n    /* \"#utility.yul\":1582:1597   */\n  add\n    /* \"#utility.yul\":1574:1597   */\n  swap1\n  pop\n    /* \"#utility.yul\":1296:1604   */\n  swap2\n  swap1\n  pop\n  jump\t// out\n    /* \"#utility.yul\":1610:1749   */\ntag_56:\n    /* \"#utility.yul\":1699:1705   */\n  dup3\n    /* \"#utility.yul\":1694:1697   */\n  dup2\n    /* \"#utility.yul\":1689:1692   */\n  dup4\n    /* \"#utility.yul\":1683:1706   */\n  mcopy\n    /* \"#utility.yul\":1740:1741   */\n  0x00\n    /* \"#utility.yul\":1731:1737   */\n  dup4\n    /* \"#utility.yul\":1726:1729   */\n  dup4\n    /* \"#utility.yul\":1722:1738   */\n  add\n    /* \"#utility.yul\":1715:1742   */\n  mstore\n    /* \"#utility.yul\":1610:1749   */\n  pop\n  pop\n  pop\n  jump\t// out\n    /* \"#utility.yul\":1755:2189   */\ntag_57:\n    /* \"#utility.yul\":1844:1849   */\n  0x00\n    /* \"#utility.yul\":1869:1935   */\n  tag_114\n    /* \"#utility.yul\":1885:1934   */\n  tag_115\n    /* \"#utility.yul\":1927:1933   */\n  dup5\n    /* \"#utility.yul\":1885:1934   */\n  tag_55\n  jump\t// in\ntag_115:\n    /* \"#utility.yul\":1869:1935   */\n  tag_54\n  jump\t// in\ntag_114:\n    /* \"#utility.yul\":1860:1935   */\n  swap1\n  pop\n    /* \"#utility.yul\":1958:1964   */\n  dup3\n    /* \"#utility.yul\":1951:1956   */\n  dup2\n    /* \"#utility.yul\":1944:1965   */\n  mstore\n    /* \"#utility.yul\":1996:2000   */\n  0x20\n    /* \"#utility.yul\":1989:1994   */\n  dup2\n    /* \"#utility.yul\":1985:2001   */\n  add\n    /* \"#utility.yul\":2034:2037   */\n  dup5\n    /* \"#utility.yul\":2025:2031   */\n  dup5\n    /* \"#utility.yul\":2020:2023   */\n  dup5\n    /* \"#utility.yul\":2016:2032   */\n  add\n    /* \"#utility.yul\":2013:2038   */\n  gt\n    /* \"#utility.yul\":2010:2122   */\n  iszero\n  tag_116\n  jumpi\n    /* \"#utility.yul\":2041:2120   */\n  tag_117\n  tag_50\n  jump\t// in\ntag_117:\n    /* \"#utility.yul\":2010:2122   */\ntag_116:\n    /* \"#utility.yul\":2131:2183   */\n  tag_118\n    /* \"#utility.yul\":2176:2182   */\n  dup5\n    /* \"#utility.yul\":2171:2174   */\n  dup3\n    /* \"#utility.yul\":2166:2169   */\n  dup6\n    /* \"#utility.yul\":2131:2183   */\n  tag_56\n  jump\t// in\ntag_118:\n    /* \"#utility.yul\":1850:2189   */\n  pop\n    /* \"#utility.yul\":1755:2189   */\n  swap4\n  swap3\n  pop\n  pop\n  pop\n  jump\t// out\n    /* \"#utility.yul\":2209:2564   */\ntag_58:\n    /* \"#utility.yul\":2276:2281   */\n  0x00\n    /* \"#utility.yul\":2325:2328   */\n  dup3\n    /* \"#utility.yul\":2318:2322   */\n  0x1f\n    /* \"#utility.yul\":2310:2316   */\n  dup4\n    /* \"#utility.yul\":2306:2323   */\n  add\n    /* \"#utility.yul\":2302:2329   */\n  slt\n    /* \"#utility.yul\":2292:2414   */\n  tag_120\n  jumpi\n    /* \"#utility.yul\":2333:2412   */\n  tag_121\n  tag_49\n  jump\t// in\ntag_121:\n    /* \"#utility.yul\":2292:2414   */\ntag_120:\n    /* \"#utility.yul\":2443:2449   */\n  dup2\n    /* \"#utility.yul\":2437:2450   */\n  mload\n    /* \"#utility.yul\":2468:2558   */\n  tag_122\n    /* \"#utility.yul\":2554:2557   */\n  dup5\n    /* \"#utility.yul\":2546:2552   */\n  dup3\n    /* \"#utility.yul\":2539:2543   */\n  0x20\n    /* \"#utility.yul\":2531:2537   */\n  dup7\n    /* \"#utility.yul\":2527:2544   */\n  add\n    /* \"#utility.yul\":2468:2558   */\n  tag_57\n  jump\t// in\ntag_122:\n    /* \"#utility.yul\":2459:2558   */\n  swap2\n  pop\n    /* \"#utility.yul\":2282:2564   */\n  pop\n    /* \"#utility.yul\":2209:2564   */\n  swap3\n  swap2\n  pop\n  pop\n  jump\t// out\n    /* \"#utility.yul\":2570:2647   */\ntag_59:\n    /* \"#utility.yul\":2607:2614   */\n  0x00\n    /* \"#utility.yul\":2636:2641   */\n  dup2\n    /* \"#utility.yul\":2625:2641   */\n  swap1\n  pop\n    /* \"#utility.yul\":2570:2647   */\n  swap2\n  swap1\n  pop\n  jump\t// out\n    /* \"#utility.yul\":2653:2775   */\ntag_60:\n    /* \"#utility.yul\":2726:2750   */\n  tag_125\n    /* \"#utility.yul\":2744:2749   */\n  dup2\n    /* \"#utility.yul\":2726:2750   */\n  tag_59\n  jump\t// in\ntag_125:\n    /* \"#utility.yul\":2719:2724   */\n  dup2\n    /* \"#utility.yul\":2716:2751   */\n  eq\n    /* \"#utility.yul\":2706:2769   */\n  tag_126\n  jumpi\n    /* \"#utility.yul\":2765:2766   */\n  0x00\n    /* \"#utility.yul\":2762:2763   */\n  dup1\n    /* \"#utility.yul\":2755:2767   */\n  revert\n    /* \"#utility.yul\":2706:2769   */\ntag_126:\n    /* \"#utility.yul\":2653:2775   */\n  pop\n  jump\t// out\n    /* \"#utility.yul\":2781:2924   */\ntag_61:\n    /* \"#utility.yul\":2838:2843   */\n  0x00\n    /* \"#utility.yul\":2869:2875   */\n  dup2\n    /* \"#utility.yul\":2863:2876   */\n  mload\n    /* \"#utility.yul\":2854:2876   */\n  swap1\n  pop\n    /* \"#utility.yul\":2885:2918   */\n  tag_128\n    /* \"#utility.yul\":2912:2917   */\n  dup2\n    /* \"#utility.yul\":2885:2918   */\n  tag_60\n  jump\t// in\ntag_128:\n    /* \"#utility.yul\":2781:2924   */\n  swap3\n  swap2\n  pop\n  pop\n  jump\t// out\n    /* \"#utility.yul\":2930:3016   */\ntag_62:\n    /* \"#utility.yul\":2965:2972   */\n  0x00\n    /* \"#utility.yul\":3005:3009   */\n  0xff\n    /* \"#utility.yul\":2998:3003   */\n  dup3\n    /* \"#utility.yul\":2994:3010   */\n  and\n    /* \"#utility.yul\":2983:3010   */\n  swap1\n  pop\n    /* \"#utility.yul\":2930:3016   */\n  swap2\n  swap1\n  pop\n  jump\t// out\n    /* \"#utility.yul\":3022:3140   */\ntag_63:\n    /* \"#utility.yul\":3093:3115   */\n  tag_131\n    /* \"#utility.yul\":3109:3114   */\n  dup2\n    /* \"#utility.yul\":3093:3115   */\n  tag_62\n  jump\t// in\ntag_131:\n    /* \"#utility.yul\":3086:3091   */\n  dup2\n    /* \"#utility.yul\":3083:3116   */\n  eq\n    /* \"#utility.yul\":3073:3134   */\n  tag_132\n  jumpi\n    /* \"#utility.yul\":3130:3131   */\n  0x00\n    /* \"#utility.yul\":3127:3128   */\n  dup1\n    /* \"#utility.yul\":3120:3132   */\n  revert\n    /* \"#utility.yul\":3073:3134   */\ntag_132:\n    /* \"#utility.yul\":3022:3140   */\n  pop\n  jump\t// out\n    /* \"#utility.yul\":3146:3285   */\ntag_64:\n    /* \"#utility.yul\":3201:3206   */\n  0x00\n    /* \"#utility.yul\":3232:3238   */\n  dup2\n    /* \"#utility.yul\":3226:3239   */\n  mload\n    /* \"#utility.yul\":3217:3239   */\n  swap1\n  pop\n    /* \"#utility.yul\":3248:3279   */\n  tag_134\n    /* \"#utility.yul\":3273:3278   */\n  dup2\n    /* \"#utility.yul\":3248:3279   */\n  tag_63\n  jump\t// in\ntag_134:\n    /* \"#utility.yul\":3146:3285   */\n  swap3\n  swap2\n  pop\n  pop\n  jump\t// out\n    /* \"#utility.yul\":3291:3417   */\ntag_65:\n    /* \"#utility.yul\":3328:3335   */\n  0x00\n    /* \"#utility.yul\":3368:3410   */\n  0xffffffffffffffffffffffffffffffffffffffff\n    /* \"#utility.yul\":3361:3366   */\n  dup3\n    /* \"#utility.yul\":3357:3411   */\n  and\n    /* \"#utility.yul\":3346:3411   */\n  swap1\n  pop\n    /* \"#utility.yul\":3291:3417   */\n  swap2\n  swap1\n  pop\n  jump\t// out\n    /* \"#utility.yul\":3423:3519   */\ntag_66:\n    /* \"#utility.yul\":3460:3467   */\n  0x00\n    /* \"#utility.yul\":3489:3513   */\n  tag_137\n    /* \"#utility.yul\":3507:3512   */\n  dup3\n    /* \"#utility.yul\":3489:3513   */\n  tag_65\n  jump\t// in\ntag_137:\n    /* \"#utility.yul\":3478:3513   */\n  swap1\n  pop\n    /* \"#utility.yul\":3423:3519   */\n  swap2\n  swap1\n  pop\n  jump\t// out\n    /* \"#utility.yul\":3525:3647   */\ntag_67:\n    /* \"#utility.yul\":3598:3622   */\n  tag_139\n    /* \"#utility.yul\":3616:3621   */\n  dup2\n    /* \"#utility.yul\":3598:3622   */\n  tag_66\n  jump\t// in\ntag_139:\n    /* \"#utility.yul\":3591:3596   */\n  dup2\n    /* \"#utility.yul\":3588:3623   */\n  eq\n    /* \"#utility.yul\":3578:3641   */\n  tag_140\n  jumpi\n    /* \"#utility.yul\":3637:3638   */\n  0x00\n    /* \"#utility.yul\":3634:3635   */\n  dup1\n    /* \"#utility.yul\":3627:3639   */\n  revert\n    /* \"#utility.yul\":3578:3641   */\ntag_140:\n    /* \"#utility.yul\":3525:3647   */\n  pop\n  jump\t// out\n    /* \"#utility.yul\":3653:3796   */\ntag_68:\n    /* \"#utility.yul\":3710:3715   */\n  0x00\n    /* \"#utility.yul\":3741:3747   */\n  dup2\n    /* \"#utility.yul\":3735:3748   */\n  mload\n    /* \"#utility.yul\":3726:3748   */\n  swap1\n  pop\n    /* \"#utility.yul\":3757:3790   */\n  tag_142\n    /* \"#utility.yul\":3784:3789   */\n  dup2\n    /* \"#utility.yul\":3757:3790   */\n  tag_67\n  jump\t// in\ntag_142:\n    /* \"#utility.yul\":3653:3796   */\n  swap3\n  swap2\n  pop\n  pop\n  jump\t// out\n    /* \"#utility.yul\":3802:5278   */\ntag_3:\n    /* \"#utility.yul\":3935:3941   */\n  0x00\n    /* \"#utility.yul\":3943:3949   */\n  dup1\n    /* \"#utility.yul\":3951:3957   */\n  0x00\n    /* \"#utility.yul\":3959:3965   */\n  dup1\n    /* \"#utility.yul\":3967:3973   */\n  0x00\n    /* \"#utility.yul\":3975:3981   */\n  dup1\n    /* \"#utility.yul\":4024:4027   */\n  0xc0\n    /* \"#utility.yul\":4012:4021   */\n  dup8\n    /* \"#utility.yul\":4003:4010   */\n  dup10\n    /* \"#utility.yul\":3999:4022   */\n  sub\n    /* \"#utility.yul\":3995:4028   */\n  slt\n    /* \"#utility.yul\":3992:4112   */\n  iszero\n  tag_144\n  jumpi\n    /* \"#utility.yul\":4031:4110   */\n  tag_145\n  tag_47\n  jump\t// in\ntag_145:\n    /* \"#utility.yul\":3992:4112   */\ntag_144:\n    /* \"#utility.yul\":4172:4173   */\n  0x00\n    /* \"#utility.yul\":4161:4170   */\n  dup8\n    /* \"#utility.yul\":4157:4174   */\n  add\n    /* \"#utility.yul\":4151:4175   */\n  mload\n    /* \"#utility.yul\":4202:4220   */\n  0xffffffffffffffff\n    /* \"#utility.yul\":4194:4200   */\n  dup2\n    /* \"#utility.yul\":4191:4221   */\n  gt\n    /* \"#utility.yul\":4188:4305   */\n  iszero\n  tag_146\n  jumpi\n    /* \"#utility.yul\":4224:4303   */\n  tag_147\n  tag_48\n  jump\t// in\ntag_147:\n    /* \"#utility.yul\":4188:4305   */\ntag_146:\n    /* \"#utility.yul\":4329:4403   */\n  tag_148\n    /* \"#utility.yul\":4395:4402   */\n  dup10\n    /* \"#utility.yul\":4386:4392   */\n  dup3\n    /* \"#utility.yul\":4375:4384   */\n  dup11\n    /* \"#utility.yul\":4371:4393   */\n  add\n    /* \"#utility.yul\":4329:4403   */\n  tag_58\n  jump\t// in\ntag_148:\n    /* \"#utility.yul\":4319:4403   */\n  swap7\n  pop\n    /* \"#utility.yul\":4122:4413   */\n  pop\n    /* \"#utility.yul\":4473:4475   */\n  0x20\n    /* \"#utility.yul\":4462:4471   */\n  dup8\n    /* \"#utility.yul\":4458:4476   */\n  add\n    /* \"#utility.yul\":4452:4477   */\n  mload\n    /* \"#utility.yul\":4504:4522   */\n  0xffffffffffffffff\n    /* \"#utility.yul\":4496:4502   */\n  dup2\n    /* \"#utility.yul\":4493:4523   */\n  gt\n    /* \"#utility.yul\":4490:4607   */\n  iszero\n  tag_149\n  jumpi\n    /* \"#utility.yul\":4526:4605   */\n  tag_150\n  tag_48\n  jump\t// in\ntag_150:\n    /* \"#utility.yul\":4490:4607   */\ntag_149:\n    /* \"#utility.yul\":4631:4705   */\n  tag_151\n    /* \"#utility.yul\":4697:4704   */\n  dup10\n    /* \"#utility.yul\":4688:4694   */\n  dup3\n    /* \"#utility.yul\":4677:4686   */\n  dup11\n    /* \"#utility.yul\":4673:4695   */\n  add\n    /* \"#utility.yul\":4631:4705   */\n  tag_58\n  jump\t// in\ntag_151:\n    /* \"#utility.yul\":4621:4705   */\n  swap6\n  pop\n    /* \"#utility.yul\":4423:4715   */\n  pop\n    /* \"#utility.yul\":4754:4756   */\n  0x40\n    /* \"#utility.yul\":4780:4844   */\n  tag_152\n    /* \"#utility.yul\":4836:4843   */\n  dup10\n    /* \"#utility.yul\":4827:4833   */\n  dup3\n    /* \"#utility.yul\":4816:4825   */\n  dup11\n    /* \"#utility.yul\":4812:4834   */\n  add\n    /* \"#utility.yul\":4780:4844   */\n  tag_61\n  jump\t// in\ntag_152:\n    /* \"#utility.yul\":4770:4844   */\n  swap5\n  pop\n    /* \"#utility.yul\":4725:4854   */\n  pop\n    /* \"#utility.yul\":4893:4895   */\n  0x60\n    /* \"#utility.yul\":4919:4983   */\n  tag_153\n    /* \"#utility.yul\":4975:4982   */\n  dup10\n    /* \"#utility.yul\":4966:4972   */\n  dup3\n    /* \"#utility.yul\":4955:4964   */\n  dup11\n    /* \"#utility.yul\":4951:4973   */\n  add\n    /* \"#utility.yul\":4919:4983   */\n  tag_61\n  jump\t// in\ntag_153:\n    /* \"#utility.yul\":4909:4983   */\n  swap4\n  pop\n    /* \"#utility.yul\":4864:4993   */\n  pop\n    /* \"#utility.yul\":5032:5035   */\n  0x80\n    /* \"#utility.yul\":5059:5121   */\n  tag_154\n    /* \"#utility.yul\":5113:5120   */\n  dup10\n    /* \"#utility.yul\":5104:5110   */\n  dup3\n    /* \"#utility.yul\":5093:5102   */\n  dup11\n    /* \"#utility.yul\":5089:5111   */\n  add\n    /* \"#utility.yul\":5059:5121   */\n  tag_64\n  jump\t// in\ntag_154:\n    /* \"#utility.yul\":5049:5121   */\n  swap3\n  pop\n    /* \"#utility.yul\":5003:5131   */\n  pop\n    /* \"#utility.yul\":5170:5173   */\n  0xa0\n    /* \"#utility.yul\":5197:5261   */\n  tag_155\n    /* \"#utility.yul\":5253:5260   */\n  dup10\n    /* \"#utility.yul\":5244:5250   */\n  dup3\n    /* \"#utility.yul\":5233:5242   */\n  dup11\n    /* \"#utility.yul\":5229:5251   */\n  add\n    /* \"#utility.yul\":5197:5261   */\n  tag_68\n  jump\t// in\ntag_155:\n    /* \"#utility.yul\":5187:5261   */\n  swap2\n  pop\n    /* \"#utility.yul\":5141:5271   */\n  pop\n    /* \"#utility.yul\":3802:5278   */\n  swap3\n  swap6\n  pop\n  swap3\n  swap6\n  pop\n  swap3\n  swap6\n  jump\t// out\n    /* \"#utility.yul\":5284:5383   */\ntag_69:\n    /* \"#utility.yul\":5336:5342   */\n  0x00\n    /* \"#utility.yul\":5370:5375   */\n  dup2\n    /* \"#utility.yul\":5364:5376   */\n  mload\n    /* \"#utility.yul\":5354:5376   */\n  swap1\n  pop\n    /* \"#utility.yul\":5284:5383   */\n  swap2\n  swap1\n  pop\n  jump\t// out\n    /* \"#utility.yul\":5389:5569   */\ntag_70:\n    /* \"#utility.yul\":5437:5514   */\n  0x4e487b7100000000000000000000000000000000000000000000000000000000\n    /* \"#utility.yul\":5434:5435   */\n  0x00\n    /* \"#utility.yul\":5427:5515   */\n  mstore\n    /* \"#utility.yul\":5534:5538   */\n  0x22\n    /* \"#utility.yul\":5531:5532   */\n  0x04\n    /* \"#utility.yul\":5524:5539   */\n  mstore\n    /* \"#utility.yul\":5558:5562   */\n  0x24\n    /* \"#utility.yul\":5555:5556   */\n  0x00\n    /* \"#utility.yul\":5548:5563   */\n  revert\n    /* \"#utility.yul\":5575:5895   */\ntag_71:\n    /* \"#utility.yul\":5619:5625   */\n  0x00\n    /* \"#utility.yul\":5656:5657   */\n  0x02\n    /* \"#utility.yul\":5650:5654   */\n  dup3\n    /* \"#utility.yul\":5646:5658   */\n  div\n    /* \"#utility.yul\":5636:5658   */\n  swap1\n  pop\n    /* \"#utility.yul\":5703:5704   */\n  0x01\n    /* \"#utility.yul\":5697:5701   */\n  dup3\n    /* \"#utility.yul\":5693:5705   */\n  and\n    /* \"#utility.yul\":5724:5742   */\n  dup1\n    /* \"#utility.yul\":5714:5795   */\n  tag_159\n  jumpi\n    /* \"#utility.yul\":5780:5784   */\n  0x7f\n    /* \"#utility.yul\":5772:5778   */\n  dup3\n    /* \"#utility.yul\":5768:5785   */\n  and\n    /* \"#utility.yul\":5758:5785   */\n  swap2\n  pop\n    /* \"#utility.yul\":5714:5795   */\ntag_159:\n    /* \"#utility.yul\":5842:5844   */\n  0x20\n    /* \"#utility.yul\":5834:5840   */\n  dup3\n    /* \"#utility.yul\":5831:5845   */\n  lt\n    /* \"#utility.yul\":5811:5829   */\n  dup2\n    /* \"#utility.yul\":5808:5846   */\n  sub\n    /* \"#utility.yul\":5805:5889   */\n  tag_160\n  jumpi\n    /* \"#utility.yul\":5861:5879   */\n  tag_161\n  tag_70\n  jump\t// in\ntag_161:\n    /* \"#utility.yul\":5805:5889   */\ntag_160:\n    /* \"#utility.yul\":5626:5895   */\n  pop\n    /* \"#utility.yul\":5575:5895   */\n  swap2\n  swap1\n  pop\n  jump\t// out\n    /* \"#utility.yul\":5901:6042   */\ntag_72:\n    /* \"#utility.yul\":5950:5954   */\n  0x00\n    /* \"#utility.yul\":5973:5976   */\n  dup2\n    /* \"#utility.yul\":5965:5976   */\n  swap1\n  pop\n    /* \"#utility.yul\":5996:5999   */\n  dup2\n    /* \"#utility.yul\":5993:5994   */\n  0x00\n    /* \"#utility.yul\":5986:6000   */\n  mstore\n    /* \"#utility.yul\":6030:6034   */\n  0x20\n    /* \"#utility.yul\":6027:6028   */\n  0x00\n    /* \"#utility.yul\":6017:6035   */\n  keccak256\n    /* \"#utility.yul\":6009:6035   */\n  swap1\n  pop\n    /* \"#utility.yul\":5901:6042   */\n  swap2\n  swap1\n  pop\n  jump\t// out\n    /* \"#utility.yul\":6048:6141   */\ntag_73:\n    /* \"#utility.yul\":6085:6091   */\n  0x00\n    /* \"#utility.yul\":6132:6134   */\n  0x20\n    /* \"#utility.yul\":6127:6129   */\n  0x1f\n    /* \"#utility.yul\":6120:6125   */\n  dup4\n    /* \"#utility.yul\":6116:6130   */\n  add\n    /* \"#utility.yul\":6112:6135   */\n  div\n    /* \"#utility.yul\":6102:6135   */\n  swap1\n  pop\n    /* \"#utility.yul\":6048:6141   */\n  swap2\n  swap1\n  pop\n  jump\t// out\n    /* \"#utility.yul\":6147:6254   */\ntag_74:\n    /* \"#utility.yul\":6191:6199   */\n  0x00\n    /* \"#utility.yul\":6241:6246   */\n  dup3\n    /* \"#utility.yul\":6235:6239   */\n  dup3\n    /* \"#utility.yul\":6231:6247   */\n  shl\n    /* \"#utility.yul\":6210:6247   */\n  swap1\n  pop\n    /* \"#utility.yul\":6147:6254   */\n  swap3\n  swap2\n  pop\n  pop\n  jump\t// out\n    /* \"#utility.yul\":6260:6653   */\ntag_75:\n    /* \"#utility.yul\":6329:6335   */\n  0x00\n    /* \"#utility.yul\":6379:6380   */\n  0x08\n    /* \"#utility.yul\":6367:6377   */\n  dup4\n    /* \"#utility.yul\":6363:6381   */\n  mul\n    /* \"#utility.yul\":6402:6499   */\n  tag_166\n    /* \"#utility.yul\":6432:6498   */\n  0xffffffffffffffffffffffffffffffffffffffffffffffffffffffffffffffff\n    /* \"#utility.yul\":6421:6430   */\n  dup3\n    /* \"#utility.yul\":6402:6499   */\n  tag_74\n  jump\t// in\ntag_166:\n    /* \"#utility.yul\":6520:6559   */\n  tag_167\n    /* \"#utility.yul\":6550:6558   */\n  dup7\n    /* \"#utility.yul\":6539:6548   */\n  dup4\n    /* \"#utility.yul\":6520:6559   */\n  tag_74\n  jump\t// in\ntag_167:\n    /* \"#utility.yul\":6508:6559   */\n  swap6\n  pop\n    /* \"#utility.yul\":6592:6596   */\n  dup1\n    /* \"#utility.yul\":6588:6597   */\n  not\n    /* \"#utility.yul\":6581:6586   */\n  dup5\n    /* \"#utility.yul\":6577:6598   */\n  and\n    /* \"#utility.yul\":6568:6598   */\n  swap4\n  pop\n    /* \"#utility.yul\":6641:6645   */\n  dup1\n    /* \"#utility.yul\":6631:6639   */\n  dup7\n    /* \"#utility.yul\":6627:6646   */\n  and\n    /* \"#utility.yul\":6620:6625   */\n  dup5\n    /* \"#utility.yul\":6617:6647   */\n  or\n    /* \"#utility.yul\":6607:6647   */\n  swap3\n  pop\n    /* \"#utility.yul\":6336:6653   */\n  pop\n  pop\n    /* \"#utility.yul\":6260:6653   */\n  swap4\n  swap3\n  pop\n  pop\n  pop\n  jump\t// out\n    /* \"#utility.yul\":6659:6719   */\ntag_76:\n    /* \"#utility.yul\":6687:6690   */\n  0x00\n    /* \"#utility.yul\":6708:6713   */\n  dup2\n    /* \"#utility.yul\":6701:6713   */\n  swap1\n  pop\n    /* \"#utility.yul\":6659:6719   */\n  swap2\n  swap1\n  pop\n  jump\t// out\n    /* \"#utility.yul\":6725:6867   */\ntag_77:\n    /* \"#utility.yul\":6775:6784   */\n  0x00\n    /* \"#utility.yul\":6808:6861   */\n  tag_170\n    /* \"#utility.yul\":6826:6860   */\n  tag_171\n    /* \"#utility.yul\":6835:6859   */\n  tag_172\n    /* \"#utility.yul\":6853:6858   */\n  dup5\n    /* \"#utility.yul\":6835:6859   */\n  tag_59\n  jump\t// in\ntag_172:\n    /* \"#utility.yul\":6826:6860   */\n  tag_76\n  jump\t// in\ntag_171:\n    /* \"#utility.yul\":6808:6861   */\n  tag_59\n  jump\t// in\ntag_170:\n    /* \"#utility.yul\":6795:6861   */\n  swap1\n  pop\n    /* \"#utility.yul\":6725:6867   */\n  swap2\n  swap1\n  pop\n  jump\t// out\n    /* \"#utility.yul\":6873:6948   */\ntag_78:\n    /* \"#utility.yul\":6916:6919   */\n  0x00\n    /* \"#utility.yul\":6937:6942   */\n  dup2\n    /* \"#utility.yul\":6930:6942   */\n  swap1\n  pop\n    /* \"#utility.yul\":6873:6948   */\n  swap2\n  swap1\n  pop\n  jump\t// out\n    /* \"#utility.yul\":6954:7223   */\ntag_79:\n    /* \"#utility.yul\":7064:7103   */\n  tag_175\n    /* \"#utility.yul\":7095:7102   */\n  dup4\n    /* \"#utility.yul\":7064:7103   */\n  tag_77\n  jump\t// in\ntag_175:\n    /* \"#utility.yul\":7125:7216   */\n  tag_176\n    /* \"#utility.yul\":7174:7215   */\n  tag_177\n    /* \"#utility.yul\":7198:7214   */\n  dup3\n    /* \"#utility.yul\":7174:7215   */\n  tag_78\n  jump\t// in\ntag_177:\n    /* \"#utility.yul\":7166:7172   */\n  dup5\n    /* \"#utility.yul\":7159:7163   */\n  dup5\n    /* \"#utility.yul\":7153:7164   */\n  sload\n    /* \"#utility.yul\":7125:7216   */\n  tag_75\n  jump\t// in\ntag_176:\n    /* \"#utility.yul\":7119:7123   */\n  dup3\n    /* \"#utility.yul\":7112:7217   */\n  sstore\n    /* \"#utility.yul\":7030:7223   */\n  pop\n    /* \"#utility.yul\":6954:7223   */\n  pop\n  pop\n  pop\n  jump\t// out\n    /* \"#utility.yul\":7229:7302   */\ntag_80:\n    /* \"#utility.yul\":7274:7277   */\n  0x00\n    /* \"#utility.yul\":7229:7302   */\n  swap1\n  jump\t// out\n    /* \"#utility.yul\":7308:7497   */\ntag_81:\n    /* \"#utility.yul\":7385:7417   */\n  tag_180\n  tag_80\n  jump\t// in\ntag_180:\n    /* \"#utility.yul\":7426:7491   */\n  tag_181\n    /* \"#utility.yul\":7484:7490   */\n  dup2\n    /* \"#utility.yul\":7476:7482   */\n  dup5\n    /* \"#utility.yul\":7470:7474   */\n  dup5\n    /* \"#utility.yul\":7426:7491   */\n  tag_79\n  jump\t// in\ntag_181:\n    /* \"#utility.yul\":7361:7497   */\n  pop\n    /* \"#utility.yul\":7308:7497   */\n  pop\n  pop\n  jump\t// out\n    /* \"#utility.yul\":7503:7689   */\ntag_82:\n    /* \"#utility.yul\":7563:7683   */\ntag_183:\n    /* \"#utility.yul\":7580:7583   */\n  dup2\n    /* \"#utility.yul\":7573:7578   */\n  dup2\n    /* \"#utility.yul\":7570:7584   */\n  lt\n    /* \"#utility.yul\":7563:7683   */\n  iszero\n  tag_185\n  jumpi\n    /* \"#utility.yul\":7634:7673   */\n  tag_186\n    /* \"#utility.yul\":7671:7672   */\n  0x00\n    /* \"#utility.yul\":7664:7669   */\n  dup3\n    /* \"#utility.yul\":7634:7673   */\n  tag_81\n  jump\t// in\ntag_186:\n    /* \"#utility.yul\":7607:7608   */\n  0x01\n    /* \"#utility.yul\":7600:7605   */\n  dup2\n    /* \"#utility.yul\":7596:7609   */\n  add\n    /* \"#utility.yul\":7587:7609   */\n  swap1\n  pop\n    /* \"#utility.yul\":7563:7683   */\n  jump(tag_183)\ntag_185:\n    /* \"#utility.yul\":7503:7689   */\n  pop\n  pop\n  jump\t// out\n    /* \"#utility.yul\":7695:8238   */\ntag_83:\n    /* \"#utility.yul\":7796:7798   */\n  0x1f\n    /* \"#utility.yul\":7791:7794   */\n  dup3\n    /* \"#utility.yul\":7788:7799   */\n  gt\n    /* \"#utility.yul\":7785:8231   */\n  iszero\n  tag_188\n  jumpi\n    /* \"#utility.yul\":7830:7868   */\n  tag_189\n    /* \"#utility.yul\":7862:7867   */\n  dup2\n    /* \"#utility.yul\":7830:7868   */\n  tag_72\n  jump\t// in\ntag_189:\n    /* \"#utility.yul\":7914:7943   */\n  tag_190\n    /* \"#utility.yul\":7932:7942   */\n  dup5\n    /* \"#utility.yul\":7914:7943   */\n  tag_73\n  jump\t// in\ntag_190:\n    /* \"#utility.yul\":7904:7912   */\n  dup2\n    /* \"#utility.yul\":7900:7944   */\n  add\n    /* \"#utility.yul\":8097:8099   */\n  0x20\n    /* \"#utility.yul\":8085:8095   */\n  dup6\n    /* \"#utility.yul\":8082:8100   */\n  lt\n    /* \"#utility.yul\":8079:8128   */\n  iszero\n  tag_191\n  jumpi\n    /* \"#utility.yul\":8118:8126   */\n  dup2\n    /* \"#utility.yul\":8103:8126   */\n  swap1\n  pop\n    /* \"#utility.yul\":8079:8128   */\ntag_191:\n    /* \"#utility.yul\":8141:8221   */\n  tag_192\n    /* \"#utility.yul\":8197:8219   */\n  tag_193\n    /* \"#utility.yul\":8215:8218   */\n  dup6\n    /* \"#utility.yul\":8197:8219   */\n  tag_73\n  jump\t// in\ntag_193:\n    /* \"#utility.yul\":8187:8195   */\n  dup4\n    /* \"#utility.yul\":8183:8220   */\n  add\n    /* \"#utility.yul\":8170:8181   */\n  dup3\n    /* \"#utility.yul\":8141:8221   */\n  tag_82\n  jump\t// in\ntag_192:\n    /* \"#utility.yul\":7800:8231   */\n  pop\n  pop\n    /* \"#utility.yul\":7785:8231   */\ntag_188:\n    /* \"#utility.yul\":7695:8238   */\n  pop\n  pop\n  pop\n  jump\t// out\n    /* \"#utility.yul\":8244:8361   */\ntag_84:\n    /* \"#utility.yul\":8298:8306   */\n  0x00\n    /* \"#utility.yul\":8348:8353   */\n  dup3\n    /* \"#utility.yul\":8342:8346   */\n  dup3\n    /* \"#utility.yul\":8338:8354   */\n  shr\n    /* \"#utility.yul\":8317:8354   */\n  swap1\n  pop\n    /* \"#utility.yul\":8244:8361   */\n  swap3\n  swap2\n  pop\n  pop\n  jump\t// out\n    /* \"#utility.yul\":8367:8536   */\ntag_85:\n    /* \"#utility.yul\":8411:8417   */\n  0x00\n    /* \"#utility.yul\":8444:8495   */\n  tag_196\n    /* \"#utility.yul\":8492:8493   */\n  0x00\n    /* \"#utility.yul\":8488:8494   */\n  not\n    /* \"#utility.yul\":8480:8485   */\n  dup5\n    /* \"#utility.yul\":8477:8478   */\n  0x08\n    /* \"#utility.yul\":8473:8486   */\n  mul\n    /* \"#utility.yul\":8444:8495   */\n  tag_84\n  jump\t// in\ntag_196:\n    /* \"#utility.yul\":8440:8496   */\n  not\n    /* \"#utility.yul\":8525:8529   */\n  dup1\n    /* \"#utility.yul\":8519:8523   */\n  dup4\n    /* \"#utility.yul\":8515:8530   */\n  and\n    /* \"#utility.yul\":8505:8530   */\n  swap2\n  pop\n    /* \"#utility.yul\":8418:8536   */\n  pop\n    /* \"#utility.yul\":8367:8536   */\n  swap3\n  swap2\n  pop\n  pop\n  jump\t// out\n    /* \"#utility.yul\":8541:8836   */\ntag_86:\n    /* \"#utility.yul\":8617:8621   */\n  0x00\n    /* \"#utility.yul\":8763:8792   */\n  tag_198\n    /* \"#utility.yul\":8788:8791   */\n  dup4\n    /* \"#utility.yul\":8782:8786   */\n  dup4\n    /* \"#utility.yul\":8763:8792   */\n  tag_85\n  jump\t// in\ntag_198:\n    /* \"#utility.yul\":8755:8792   */\n  swap2\n  pop\n    /* \"#utility.yul\":8825:8828   */\n  dup3\n    /* \"#utility.yul\":8822:8823   */\n  0x02\n    /* \"#utility.yul\":8818:8829   */\n  mul\n    /* \"#utility.yul\":8812:8816   */\n  dup3\n    /* \"#utility.yul\":8809:8830   */\n  or\n    /* \"#utility.yul\":8801:8830   */\n  swap1\n  pop\n    /* \"#utility.yul\":8541:8836   */\n  swap3\n  swap2\n  pop\n  pop\n  jump\t// out\n    /* \"#utility.yul\":8841:10236   */\ntag_11:\n    /* \"#utility.yul\":8958:8995   */\n  tag_200\n    /* \"#utility.yul\":8991:8994   */\n  dup3\n    /* \"#utility.yul\":8958:8995   */\n  tag_69\n  jump\t// in\ntag_200:\n    /* \"#utility.yul\":9060:9078   */\n  0xffffffffffffffff\n    /* \"#utility.yul\":9052:9058   */\n  dup2\n    /* \"#utility.yul\":9049:9079   */\n  gt\n    /* \"#utility.yul\":9046:9102   */\n  iszero\n  tag_201\n  jumpi\n    /* \"#utility.yul\":9082:9100   */\n  tag_202\n  tag_52\n  jump\t// in\ntag_202:\n    /* \"#utility.yul\":9046:9102   */\ntag_201:\n    /* \"#utility.yul\":9126:9164   */\n  tag_203\n    /* \"#utility.yul\":9158:9162   */\n  dup3\n    /* \"#utility.yul\":9152:9163   */\n  sload\n    /* \"#utility.yul\":9126:9164   */\n  tag_71\n  jump\t// in\ntag_203:\n    /* \"#utility.yul\":9211:9278   */\n  tag_204\n    /* \"#utility.yul\":9271:9277   */\n  dup3\n    /* \"#utility.yul\":9263:9269   */\n  dup3\n    /* \"#utility.yul\":9257:9261   */\n  dup6\n    /* \"#utility.yul\":9211:9278   */\n  tag_83\n  jump\t// in\ntag_204:\n    /* \"#utility.yul\":9305:9306   */\n  0x00\n    /* \"#utility.yul\":9329:9333   */\n  0x20\n    /* \"#utility.yul\":9316:9333   */\n  swap1\n  pop\n    /* \"#utility.yul\":9361:9363   */\n  0x1f\n    /* \"#utility.yul\":9353:9359   */\n  dup4\n    /* \"#utility.yul\":9350:9364   */\n  gt\n    /* \"#utility.yul\":9378:9379   */\n  0x01\n    /* \"#utility.yul\":9373:9991   */\n  dup2\n  eq\n  tag_206\n  jumpi\n    /* \"#utility.yul\":10035:10036   */\n  0x00\n    /* \"#utility.yul\":10052:10058   */\n  dup5\n    /* \"#utility.yul\":10049:10126   */\n  iszero\n  tag_207\n  jumpi\n    /* \"#utility.yul\":10101:10110   */\n  dup3\n    /* \"#utility.yul\":10096:10099   */\n  dup8\n    /* \"#utility.yul\":10092:10111   */\n  add\n    /* \"#utility.yul\":10086:10112   */\n  mload\n    /* \"#utility.yul\":10077:10112   */\n  swap1\n  pop\n    /* \"#utility.yul\":10049:10126   */\ntag_207:\n    /* \"#utility.yul\":10152:10219   */\n  tag_208\n    /* \"#utility.yul\":10212:10218   */\n  dup6\n    /* \"#utility.yul\":10205:10210   */\n  dup3\n    /* \"#utility.yul\":10152:10219   */\n  tag_86\n  jump\t// in\ntag_208:\n    /* \"#utility.yul\":10146:10150   */\n  dup7\n    /* \"#utility.yul\":10139:10220   */\n  sstore\n    /* \"#utility.yul\":10008:10230   */\n  pop\n    /* \"#utility.yul\":9343:10230   */\n  jump(tag_205)\n    /* \"#utility.yul\":9373:9991   */\ntag_206:\n    /* \"#utility.yul\":9425:9429   */\n  0x1f\n    /* \"#utility.yul\":9421:9430   */\n  not\n    /* \"#utility.yul\":9413:9419   */\n  dup5\n    /* \"#utility.yul\":9409:9431   */\n  and\n    /* \"#utility.yul\":9459:9496   */\n  tag_209\n    /* \"#utility.yul\":9491:9495   */\n  dup7\n    /* \"#utility.yul\":9459:9496   */\n  tag_72\n  jump\t// in\ntag_209:\n    /* \"#utility.yul\":9518:9519   */\n  0x00\n    /* \"#utility.yul\":9532:9740   */\ntag_210:\n    /* \"#utility.yul\":9546:9553   */\n  dup3\n    /* \"#utility.yul\":9543:9544   */\n  dup2\n    /* \"#utility.yul\":9540:9554   */\n  lt\n    /* \"#utility.yul\":9532:9740   */\n  iszero\n  tag_212\n  jumpi\n    /* \"#utility.yul\":9625:9634   */\n  dup5\n    /* \"#utility.yul\":9620:9623   */\n  dup10\n    /* \"#utility.yul\":9616:9635   */\n  add\n    /* \"#utility.yul\":9610:9636   */\n  mload\n    /* \"#utility.yul\":9602:9608   */\n  dup3\n    /* \"#utility.yul\":9595:9637   */\n  sstore\n    /* \"#utility.yul\":9676:9677   */\n  0x01\n    /* \"#utility.yul\":9668:9674   */\n  dup3\n    /* \"#utility.yul\":9664:9678   */\n  add\n    /* \"#utility.yul\":9654:9678   */\n  swap2\n  pop\n    /* \"#utility.yul\":9723:9725   */\n  0x20\n    /* \"#utility.yul\":9712:9721   */\n  dup6\n    /* \"#utility.yul\":9708:9726   */\n  add\n    /* \"#utility.yul\":9695:9726   */\n  swap5\n  pop\n    /* \"#utility.yul\":9569:9573   */\n  0x20\n    /* \"#utility.yul\":9566:9567   */\n  dup2\n    /* \"#utility.yul\":9562:9574   */\n  add\n    /* \"#utility.yul\":9557:9574   */\n  swap1\n  pop\n    /* \"#utility.yul\":9532:9740   */\n  jump(tag_210)\ntag_212:\n    /* \"#utility.yul\":9768:9774   */\n  dup7\n    /* \"#utility.yul\":9759:9766   */\n  dup4\n    /* \"#utility.yul\":9756:9775   */\n  lt\n    /* \"#utility.yul\":9753:9932   */\n  iszero\n  tag_213\n  jumpi\n    /* \"#utility.yul\":9826:9835   */\n  dup5\n    /* \"#utility.yul\":9821:9824   */\n  dup10\n    /* \"#utility.yul\":9817:9836   */\n  add\n    /* \"#utility.yul\":9811:9837   */\n  mload\n    /* \"#utility.yul\":9869:9917   */\n  tag_214\n    /* \"#utility.yul\":9911:9915   */\n  0x1f\n    /* \"#utility.yul\":9903:9909   */\n  dup10\n    /* \"#utility.yul\":9899:9916   */\n  and\n    /* \"#utility.yul\":9888:9897   */\n  dup3\n    /* \"#utility.yul\":9869:9917   */\n  tag_85\n  jump\t// in\ntag_214:\n    /* \"#utility.yul\":9861:9867   */\n  dup4\n    /* \"#utility.yul\":9854:9918   */\n  sstore\n    /* \"#utility.yul\":9776:9932   */\n  pop\n    /* \"#utility.yul\":9753:9932   */\ntag_213:\n    /* \"#utility.yul\":9978:9979   */\n  0x01\n    /* \"#utility.yul\":9974:9975   */\n  0x02\n    /* \"#utility.yul\":9966:9972   */\n  dup9\n    /* \"#utility.yul\":9962:9976   */\n  mul\n    /* \"#utility.yul\":9958:9980   */\n  add\n    /* \"#utility.yul\":9952:9956   */\n  dup9\n    /* \"#utility.yul\":9945:9981   */\n  sstore\n    /* \"#utility.yul\":9380:9991   */\n  pop\n  pop\n  pop\n    /* \"#utility.yul\":9343:10230   */\ntag_205:\n  pop\n    /* \"#utility.yul\":8933:10236   */\n  pop\n  pop\n  pop\n    /* \"#utility.yul\":8841:10236   */\n  pop\n  pop\n  jump\t// out\n    /* \"#utility.yul\":10242:10360   */\ntag_87:\n    /* \"#utility.yul\":10329:10353   */\n  tag_216\n    /* \"#utility.yul\":10347:10352   */\n  dup2\n    /* \"#utility.yul\":10329:10353   */\n  tag_66\n  jump\t// in\ntag_216:\n    /* \"#utility.yul\":10324:10327   */\n  dup3\n    /* \"#utility.yul\":10317:10354   */\n  mstore\n    /* \"#utility.yul\":10242:10360   */\n  pop\n  pop\n  jump\t// out\n    /* \"#utility.yul\":10366:10588   */\ntag_17:\n    /* \"#utility.yul\":10459:10463   */\n  0x00\n    /* \"#utility.yul\":10497:10499   */\n  0x20\n    /* \"#utility.yul\":10486:10495   */\n  dup3\n    /* \"#utility.yul\":10482:10500   */\n  add\n    /* \"#utility.yul\":10474:10500   */\n  swap1\n  pop\n    /* \"#utility.yul\":10510:10581   */\n  tag_218\n    /* \"#utility.yul\":10578:10579   */\n  0x00\n    /* \"#utility.yul\":10567:10576   */\n  dup4\n    /* \"#utility.yul\":10563:10580   */\n  add\n    /* \"#utility.yul\":10554:10560   */\n  dup5\n    /* \"#utility.yul\":10510:10581   */\n  tag_87\n  jump\t// in\ntag_218:\n    /* \"#utility.yul\":10366:10588   */\n  swap3\n  swap2\n  pop\n  pop\n  jump\t// out\n    /* \"#utility.yul\":10594:10763   */\ntag_88:\n    /* \"#utility.yul\":10678:10689   */\n  0x00\n    /* \"#utility.yul\":10712:10718   */\n  dup3\n    /* \"#utility.yul\":10707:10710   */\n  dup3\n    /* \"#utility.yul\":10700:10719   */\n  mstore\n    /* \"#utility.yul\":10752:10756   */\n  0x20\n    /* \"#utility.yul\":10747:10750   */\n  dup3\n    /* \"#utility.yul\":10743:10757   */\n  add\n    /* \"#utility.yul\":10728:10757   */\n  swap1\n  pop\n    /* \"#utility.yul\":10594:10763   */\n  swap3\n  swap2\n  pop\n  pop\n  jump\t// out\n    /* \"#utility.yul\":10769:11002   */\ntag_89:\n    /* \"#utility.yul\":10909:10943   */\n  0x496e697469616c20737570706c792063616e6e6f74206265206d6f7265207468\n    /* \"#utility.yul\":10905:10906   */\n  0x00\n    /* \"#utility.yul\":10897:10903   */\n  dup3\n    /* \"#utility.yul\":10893:10907   */\n  add\n    /* \"#utility.yul\":10886:10944   */\n  mstore\n    /* \"#utility.yul\":10978:10994   */\n  0x616e206d617820737570706c792e000000000000000000000000000000000000\n    /* \"#utility.yul\":10973:10975   */\n  0x20\n    /* \"#utility.yul\":10965:10971   */\n  dup3\n    /* \"#utility.yul\":10961:10976   */\n  add\n    /* \"#utility.yul\":10954:10995   */\n  mstore\n    /* \"#utility.yul\":10769:11002   */\n  pop\n  jump\t// out\n    /* \"#utility.yul\":11008:11374   */\ntag_90:\n    /* \"#utility.yul\":11150:11153   */\n  0x00\n    /* \"#utility.yul\":11171:11238   */\n  tag_222\n    /* \"#utility.yul\":11235:11237   */\n  0x2e\n    /* \"#utility.yul\":11230:11233   */\n  dup4\n    /* \"#utility.yul\":11171:11238   */\n  tag_88\n  jump\t// in\ntag_222:\n    /* \"#utility.yul\":11164:11238   */\n  swap2\n  pop\n    /* \"#utility.yul\":11247:11340   */\n  tag_223\n    /* \"#utility.yul\":11336:11339   */\n  dup3\n    /* \"#utility.yul\":11247:11340   */\n  tag_89\n  jump\t// in\ntag_223:\n    /* \"#utility.yul\":11365:11367   */\n  0x40\n    /* \"#utility.yul\":11360:11363   */\n  dup3\n    /* \"#utility.yul\":11356:11368   */\n  add\n    /* \"#utility.yul\":11349:11368   */\n  swap1\n  pop\n    /* \"#utility.yul\":11008:11374   */\n  swap2\n  swap1\n  pop\n  jump\t// out\n    /* \"#utility.yul\":11380:11799   */\ntag_24:\n    /* \"#utility.yul\":11546:11550   */\n  0x00\n    /* \"#utility.yul\":11584:11586   */\n  0x20\n    /* \"#utility.yul\":11573:11582   */\n  dup3\n    /* \"#utility.yul\":11569:11587   */\n  add\n    /* \"#utility.yul\":11561:11587   */\n  swap1\n  pop\n    /* \"#utility.yul\":11633:11642   */\n  dup2\n    /* \"#utility.yul\":11627:11631   */\n  dup2\n    /* \"#utility.yul\":11623:11643   */\n  sub\n    /* \"#utility.yul\":11619:11620   */\n  0x00\n    /* \"#utility.yul\":11608:11617   */\n  dup4\n    /* \"#utility.yul\":11604:11621   */\n  add\n    /* \"#utility.yul\":11597:11644   */\n  mstore\n    /* \"#utility.yul\":11661:11792   */\n  tag_225\n    /* \"#utility.yul\":11787:11791   */\n  dup2\n    /* \"#utility.yul\":11661:11792   */\n  tag_90\n  jump\t// in\ntag_225:\n    /* \"#utility.yul\":11653:11792   */\n  swap1\n  pop\n    /* \"#utility.yul\":11380:11799   */\n  swap2\n  swap1\n  pop\n  jump\t// out\n    /* \"#utility.yul\":11805:11985   */\ntag_91:\n    /* \"#utility.yul\":11853:11930   */\n  0x4e487b7100000000000000000000000000000000000000000000000000000000\n    /* \"#utility.yul\":11850:11851   */\n  0x00\n    /* \"#utility.yul\":11843:11931   */\n  mstore\n    /* \"#utility.yul\":11950:11954   */\n  0x11\n    /* \"#utility.yul\":11947:11948   */\n  0x04\n    /* \"#utility.yul\":11940:11955   */\n  mstore\n    /* \"#utility.yul\":11974:11978   */\n  0x24\n    /* \"#utility.yul\":11971:11972   */\n  0x00\n    /* \"#utility.yul\":11964:11979   */\n  revert\n    /* \"#utility.yul\":11991:12182   */\ntag_37:\n    /* \"#utility.yul\":12031:12034   */\n  0x00\n    /* \"#utility.yul\":12050:12070   */\n  tag_228\n    /* \"#utility.yul\":12068:12069   */\n  dup3\n    /* \"#utility.yul\":12050:12070   */\n  tag_59\n  jump\t// in\ntag_228:\n    /* \"#utility.yul\":12045:12070   */\n  swap2\n  pop\n    /* \"#utility.yul\":12084:12104   */\n  tag_229\n    /* \"#utility.yul\":12102:12103   */\n  dup4\n    /* \"#utility.yul\":12084:12104   */\n  tag_59\n  jump\t// in\ntag_229:\n    /* \"#utility.yul\":12079:12104   */\n  swap3\n  pop\n    /* \"#utility.yul\":12127:12128   */\n  dup3\n    /* \"#utility.yul\":12124:12125   */\n  dup3\n    /* \"#utility.yul\":12120:12129   */\n  add\n    /* \"#utility.yul\":12113:12129   */\n  swap1\n  pop\n    /* \"#utility.yul\":12148:12151   */\n  dup1\n    /* \"#utility.yul\":12145:12146   */\n  dup3\n    /* \"#utility.yul\":12142:12152   */\n  gt\n    /* \"#utility.yul\":12139:12175   */\n  iszero\n  tag_230\n  jumpi\n    /* \"#utility.yul\":12155:12173   */\n  tag_231\n  tag_91\n  jump\t// in\ntag_231:\n    /* \"#utility.yul\":12139:12175   */\ntag_230:\n    /* \"#utility.yul\":11991:12182   */\n  swap3\n  swap2\n  pop\n  pop\n  jump\t// out\n    /* \"#utility.yul\":12188:12306   */\ntag_92:\n    /* \"#utility.yul\":12275:12299   */\n  tag_233\n    /* \"#utility.yul\":12293:12298   */\n  dup2\n    /* \"#utility.yul\":12275:12299   */\n  tag_59\n  jump\t// in\ntag_233:\n    /* \"#utility.yul\":12270:12273   */\n  dup3\n    /* \"#utility.yul\":12263:12300   */\n  mstore\n    /* \"#utility.yul\":12188:12306   */\n  pop\n  pop\n  jump\t// out\n    /* \"#utility.yul\":12312:12754   */\ntag_41:\n    /* \"#utility.yul\":12461:12465   */\n  0x00\n    /* \"#utility.yul\":12499:12501   */\n  0x60\n    /* \"#utility.yul\":12488:12497   */\n  dup3\n    /* \"#utility.yul\":12484:12502   */\n  add\n    /* \"#utility.yul\":12476:12502   */\n  swap1\n  pop\n    /* \"#utility.yul\":12512:12583   */\n  tag_235\n    /* \"#utility.yul\":12580:12581   */\n  0x00\n    /* \"#utility.yul\":12569:12578   */\n  dup4\n    /* \"#utility.yul\":12565:12582   */\n  add\n    /* \"#utility.yul\":12556:12562   */\n  dup7\n    /* \"#utility.yul\":12512:12583   */\n  tag_87\n  jump\t// in\ntag_235:\n    /* \"#utility.yul\":12593:12665   */\n  tag_236\n    /* \"#utility.yul\":12661:12663   */\n  0x20\n    /* \"#utility.yul\":12650:12659   */\n  dup4\n    /* \"#utility.yul\":12646:12664   */\n  add\n    /* \"#utility.yul\":12637:12643   */\n  dup6\n    /* \"#utility.yul\":12593:12665   */\n  tag_92\n  jump\t// in\ntag_236:\n    /* \"#utility.yul\":12675:12747   */\n  tag_237\n    /* \"#utility.yul\":12743:12745   */\n  0x40\n    /* \"#utility.yul\":12732:12741   */\n  dup4\n    /* \"#utility.yul\":12728:12746   */\n  add\n    /* \"#utility.yul\":12719:12725   */\n  dup5\n    /* \"#utility.yul\":12675:12747   */\n  tag_92\n  jump\t// in\ntag_237:\n    /* \"#utility.yul\":12312:12754   */\n  swap5\n  swap4\n  pop\n  pop\n  pop\n  pop\n  jump\t// out\n    /* \"#utility.yul\":12760:12982   */\ntag_45:\n    /* \"#utility.yul\":12853:12857   */\n  0x00\n    /* \"#utility.yul\":12891:12893   */\n  0x20\n    /* \"#utility.yul\":12880:12889   */\n  dup3\n    /* \"#utility.yul\":12876:12894   */\n  add\n    /* \"#utility.yul\":12868:12894   */\n  swap1\n  pop\n    /* \"#utility.yul\":12904:12975   */\n  tag_239\n    /* \"#utility.yul\":12972:12973   */\n  0x00\n    /* \"#utility.yul\":12961:12970   */\n  dup4\n    /* \"#utility.yul\":12957:12974   */\n  add\n    /* \"#utility.yul\":12948:12954   */\n  dup5\n    /* \"#utility.yul\":12904:12975   */\n  tag_92\n  jump\t// in\ntag_239:\n    /* \"#utility.yul\":12760:12982   */\n  swap3\n  swap2\n  pop\n  pop\n  jump\t// out\n    /* \"XXX.sol\":299:4427  contract GenericLayout is ERC20, ERC20Burnable, Pausable, Ownable, ReentrancyGuard {... */\ntag_27:\n  dataSize(sub_0)\n  dup1\n  dataOffset(sub_0)\n  0x00\n  codecopy\n  0x00\n  return\nstop\n\nsub_0: assembly {\n        /* \"XXX.sol\":299:4427  contract GenericLayout is ERC20, ERC20Burnable, Pausable, Ownable, ReentrancyGuard {... */\n      mstore(0x40, 0x80)\n      callvalue\n      dup1\n      iszero\n      tag_1\n      jumpi\n      0x00\n      dup1\n      revert\n    tag_1:\n      pop\n      jumpi(tag_2, lt(calldatasize, 0x04))\n      shr(0xe0, calldataload(0x00))\n      dup1\n      0x715018a6\n      gt\n      tag_29\n      jumpi\n      dup1\n      0xa9059cbb\n      gt\n      tag_30\n      jumpi\n      dup1\n      0xd5abeb01\n      gt\n      tag_31\n      jumpi\n      dup1\n      0xd5abeb01\n      eq\n      tag_25\n      jumpi\n      dup1\n      0xd82e3962\n      eq\n      tag_26\n      jumpi\n      dup1\n      0xdd62ed3e\n      eq\n      tag_27\n      jumpi\n      dup1\n      0xf2fde38b\n      eq\n      tag_28\n      jumpi\n      jump(tag_2)\n    tag_31:\n      dup1\n      0xa9059cbb\n      eq\n      tag_22\n      jumpi\n      dup1\n      0xafe8289a\n      eq\n      tag_23\n      jumpi\n      dup1\n      0xc8052107\n      eq\n      tag_24\n      jumpi\n      jump(tag_2)\n    tag_30:\n      dup1\n      0x715018a6\n      eq\n      tag_16\n      jumpi\n      dup1\n      0x79cc6790\n      eq\n      tag_17\n      jumpi\n      dup1\n      0x8456cb59\n      eq\n      tag_18\n      jumpi\n      dup1\n      0x8da5cb5b\n      eq\n      tag_19\n      jumpi\n      dup1\n      0x95d89b41\n      eq\n      tag_20\n      jumpi\n      dup1\n      0xa64254c3\n      eq\n      tag_21\n      jumpi\n      jump(tag_2)\n    tag_29:\n      dup1\n      0x313ce567\n      gt\n      tag_32\n      jumpi\n      dup1\n      0x51c6590a\n      gt\n      tag_33\n      jumpi\n      dup1\n      0x51c6590a\n      eq\n      tag_12\n      jumpi\n      dup1\n      0x52756986\n      eq\n      tag_13\n      jumpi\n      dup1\n      0x5c975abb\n      eq\n      tag_14\n      jumpi\n      dup1\n      0x70a08231\n      eq\n      tag_15\n      jumpi\n      jump(tag_2)\n    tag_33:\n      dup1\n      0x313ce567\n      eq\n      tag_9\n      jumpi\n      dup1\n      0x3f4ba83a\n      eq\n      tag_10\n      jumpi\n      dup1\n      0x42966c68\n      eq\n      tag_11\n      jumpi\n      jump(tag_2)\n    tag_32:\n      dup1\n      0x06fdde03\n      eq\n      tag_3\n      jumpi\n      dup1\n      0x095ea7b3\n      eq\n      tag_4\n      jumpi\n      dup1\n      0x18160ddd\n      eq\n      tag_5\n      jumpi\n      dup1\n      0x21208fa2\n      eq\n      tag_6\n      jumpi\n      dup1\n      0x2254b79c\n      eq\n      tag_7\n      jumpi\n      dup1\n      0x23b872dd\n      eq\n      tag_8\n      jumpi\n    tag_2:\n      0x00\n      dup1\n      revert\n        /* \"contracts/token/ERC20/ERC20.sol\":1022:1111  function name() public view virtual returns (string memory) {... */\n    tag_3:\n      tag_34\n      tag_35\n      jump\t// in\n    tag_34:\n      mload(0x40)\n      tag_36\n      swap2\n      swap1\n      tag_37\n      jump\t// in\n    tag_36:\n      mload(0x40)\n      dup1\n      swap2\n      sub\n      swap1\n      return\n        /* \"contracts/token/ERC20/ERC20.sol\":3241:3427  function approve(address spender, uint256 value) public virtual returns (bool) {... */\n    tag_4:\n      tag_38\n      0x04\n      dup1\n      calldatasize\n      sub\n      dup2\n      add\n      swap1\n      tag_39\n      swap2\n      swap1\n      tag_40\n      jump\t// in\n    tag_39:\n      tag_41\n      jump\t// in\n    tag_38:\n      mload(0x40)\n      tag_42\n      swap2\n      swap1\n      tag_43\n      jump\t// in\n    tag_42:\n      mload(0x40)\n      dup1\n      swap2\n      sub\n      swap1\n      return\n        /* \"contracts/token/ERC20/ERC20.sol\":2092:2189  function totalSupply() public view virtual returns (uint256) {... */\n    tag_5:\n      tag_44\n      tag_45\n      jump\t// in\n    tag_44:\n      mload(0x40)\n      tag_46\n      swap2\n      swap1\n      tag_47\n      jump\t// in\n    tag_46:\n      mload(0x40)\n      dup1\n      swap2\n      sub\n      swap1\n      return\n        /* \"XXX.sol\":1663:1762  function disableCircuitBreaker() public onlyOwner {... */\n    tag_6:\n      tag_48\n      tag_49\n      jump\t// in\n    tag_48:\n      stop\n        /* \"XXX.sol\":4041:4422  function ownerRemoveLiquidity(uint256 amount) public onlyOwner nonReentrant {... */\n    tag_7:\n      tag_50\n      0x04\n      dup1\n      calldatasize\n      sub\n      dup2\n      add\n      swap1\n      tag_51\n      swap2\n      swap1\n      tag_52\n      jump\t// in\n    tag_51:\n      tag_53\n      jump\t// in\n    tag_50:\n      stop\n        /* \"contracts/token/ERC20/ERC20.sol\":3987:4231  function transferFrom(address from, address to, uint256 value) public virtual returns (bool) {... */\n    tag_8:\n      tag_54\n      0x04\n      dup1\n      calldatasize\n      sub\n      dup2\n      add\n      swap1\n      tag_55\n      swap2\n      swap1\n      tag_56\n      jump\t// in\n    tag_55:\n      tag_57\n      jump\t// in\n    tag_54:\n      mload(0x40)\n      tag_58\n      swap2\n      swap1\n      tag_43\n      jump\t// in\n    tag_58:\n      mload(0x40)\n      dup1\n      swap2\n      sub\n      swap1\n      return\n        /* \"XXX.sol\":1116:1221  function decimals() public view virtual override returns (uint8) {... */\n    tag_9:\n      tag_59\n      tag_60\n      jump\t// in\n    tag_59:\n      mload(0x40)\n      tag_61\n      swap2\n      swap1\n      tag_62\n      jump\t// in\n    tag_61:\n      mload(0x40)\n      dup1\n      swap2\n      sub\n      swap1\n      return\n        /* \"XXX.sol\":1296:1361  function unpause() public onlyOwner {... */\n    tag_10:\n      tag_63\n      tag_64\n      jump\t// in\n    tag_63:\n      stop\n        /* \"contracts/token/ERC20/extensions/ERC20Burnable.sol\":618:705  function burn(uint256 value) public virtual {... */\n    tag_11:\n      tag_65\n      0x04\n      dup1\n      calldatasize\n      sub\n      dup2\n      add\n      swap1\n      tag_66\n      swap2\n      swap1\n      tag_52\n      jump\t// in\n    tag_66:\n      tag_67\n      jump\t// in\n    tag_65:\n      stop\n        /* \"XXX.sol\":2407:2634  function addLiquidity(uint256 amount) public {... */\n    tag_12:\n      tag_68\n      0x04\n      dup1\n      calldatasize\n      sub\n      dup2\n      add\n      swap1\n      tag_69\n      swap2\n      swap1\n      tag_52\n      jump\t// in\n    tag_69:\n      tag_70\n      jump\t// in\n    tag_68:\n      stop\n        /* \"XXX.sol\":459:486  uint8 public decimalsPlaces */\n    tag_13:\n      tag_71\n      tag_72\n      jump\t// in\n    tag_71:\n      mload(0x40)\n      tag_73\n      swap2\n      swap1\n      tag_62\n      jump\t// in\n    tag_73:\n      mload(0x40)\n      dup1\n      swap2\n      sub\n      swap1\n      return\n        /* \"contracts/security/Pausable.sol\":1615:1699  function paused() public view virtual returns (bool) {... */\n    tag_14:\n      tag_74\n      tag_75\n      jump\t// in\n    tag_74:\n      mload(0x40)\n      tag_76\n      swap2\n      swap1\n      tag_43\n      jump\t// in\n    tag_76:\n      mload(0x40)\n      dup1\n      swap2\n      sub\n      swap1\n      return\n        /* \"contracts/token/ERC20/ERC20.sol\":2247:2363  function balanceOf(address account) public view virtual returns (uint256) {... */\n    tag_15:\n      tag_77\n      0x04\n      dup1\n      calldatasize\n      sub\n      dup2\n      add\n      swap1\n      tag_78\n      swap2\n      swap1\n      tag_79\n      jump\t// in\n    tag_78:\n      tag_80\n      jump\t// in\n    tag_77:\n      mload(0x40)\n      tag_81\n      swap2\n      swap1\n      tag_47\n      jump\t// in\n    tag_81:\n      mload(0x40)\n      dup1\n      swap2\n      sub\n      swap1\n      return\n        /* \"contracts/access/Ownable.sol\":2293:2394  function renounceOwnership() public virtual onlyOwner {... */\n    tag_16:\n      tag_82\n      tag_83\n      jump\t// in\n    tag_82:\n      stop\n        /* \"contracts/token/ERC20/extensions/ERC20Burnable.sol\":1021:1179  function burnFrom(address account, uint256 value) public virtual {... */\n    tag_17:\n      tag_84\n      0x04\n      dup1\n      calldatasize\n      sub\n      dup2\n      add\n      swap1\n      tag_85\n      swap2\n      swap1\n      tag_40\n      jump\t// in\n    tag_85:\n      tag_86\n      jump\t// in\n    tag_84:\n      stop\n        /* \"XXX.sol\":1229:1290  function pause() public onlyOwner {... */\n    tag_18:\n      tag_87\n      tag_88\n      jump\t// in\n    tag_87:\n      stop\n        /* \"contracts/access/Ownable.sol\":1638:1723  function owner() public view virtual returns (address) {... */\n    tag_19:\n      tag_89\n      tag_90\n      jump\t// in\n    tag_89:\n      mload(0x40)\n      tag_91\n      swap2\n      swap1\n      tag_92\n      jump\t// in\n    tag_91:\n      mload(0x40)\n      dup1\n      swap2\n      sub\n      swap1\n      return\n        /* \"contracts/token/ERC20/ERC20.sol\":1224:1317  function symbol() public view virtual returns (string memory) {... */\n    tag_20:\n      tag_93\n      tag_94\n      jump\t// in\n    tag_93:\n      mload(0x40)\n      tag_95\n      swap2\n      swap1\n      tag_37\n      jump\t// in\n    tag_95:\n      mload(0x40)\n      dup1\n      swap2\n      sub\n      swap1\n      return\n        /* \"XXX.sol\":1560:1657  function enableCircuitBreaker() public onlyOwner {... */\n    tag_21:\n      tag_96\n      tag_97\n      jump\t// in\n    tag_96:\n      stop\n        /* \"contracts/token/ERC20/ERC20.sol\":2558:2736  function transfer(address to, uint256 value) public virtual returns (bool) {... */\n    tag_22:\n      tag_98\n      0x04\n      dup1\n      calldatasize\n      sub\n      dup2\n      add\n      swap1\n      tag_99\n      swap2\n      swap1\n      tag_40\n      jump\t// in\n    tag_99:\n      tag_100\n      jump\t// in\n    tag_98:\n      mload(0x40)\n      tag_101\n      swap2\n      swap1\n      tag_43\n      jump\t// in\n    tag_101:\n      mload(0x40)\n      dup1\n      swap2\n      sub\n      swap1\n      return\n        /* \"XXX.sol\":3813:4033  function ownerAddLiquidity(uint256 amount) public onlyOwner {... */\n    tag_23:\n      tag_102\n      0x04\n      dup1\n      calldatasize\n      sub\n      dup2\n      add\n      swap1\n      tag_103\n      swap2\n      swap1\n      tag_52\n      jump\t// in\n    tag_103:\n      tag_104\n      jump\t// in\n    tag_102:\n      stop\n        /* \"XXX.sol\":2642:3460  function removeLiquidityAndClaimRewards(uint256 amount) public nonReentrant {... */\n    tag_24:\n      tag_105\n      0x04\n      dup1\n      calldatasize\n      sub\n      dup2\n      add\n      swap1\n      tag_106\n      swap2\n      swap1\n      tag_52\n      jump\t// in\n    tag_106:\n      tag_107\n      jump\t// in\n    tag_105:\n      stop\n        /* \"XXX.sol\":389:413  uint256 public maxSupply */\n    tag_25:\n      tag_108\n      tag_109\n      jump\t// in\n    tag_108:\n      mload(0x40)\n      tag_110\n      swap2\n      swap1\n      tag_47\n      jump\t// in\n    tag_110:\n      mload(0x40)\n      dup1\n      swap2\n      sub\n      swap1\n      return\n        /* \"XXX.sol\":3468:3805  function calculateReward(address user) public view returns (uint256) {... */\n    tag_26:\n      tag_111\n      0x04\n      dup1\n      calldatasize\n      sub\n      dup2\n      add\n      swap1\n      tag_112\n      swap2\n      swap1\n      tag_79\n      jump\t// in\n    tag_112:\n      tag_113\n      jump\t// in\n    tag_111:\n      mload(0x40)\n      tag_114\n      swap2\n      swap1\n      tag_47\n      jump\t// in\n    tag_114:\n      mload(0x40)\n      dup1\n      swap2\n      sub\n      swap1\n      return\n        /* \"contracts/token/ERC20/ERC20.sol\":2794:2934  function allowance(address owner, address spender) public view virtual returns (uint256) {... */\n    tag_27:\n      tag_115\n      0x04\n      dup1\n      calldatasize\n      sub\n      dup2\n      add\n      swap1\n      tag_116\n      swap2\n      swap1\n      tag_117\n      jump\t// in\n    tag_116:\n      tag_118\n      jump\t// in\n    tag_115:\n      mload(0x40)\n      tag_119\n      swap2\n      swap1\n      tag_47\n      jump\t// in\n    tag_119:\n      mload(0x40)\n      dup1\n      swap2\n      sub\n      swap1\n      return\n        /* \"contracts/access/Ownable.sol\":2543:2758  function transferOwnership(address newOwner) public virtual onlyOwner {... */\n    tag_28:\n      tag_120\n      0x04\n      dup1\n      calldatasize\n      sub\n      dup2\n      add\n      swap1\n      tag_121\n      swap2\n      swap1\n      tag_79\n      jump\t// in\n    tag_121:\n      tag_122\n      jump\t// in\n    tag_120:\n      stop\n        /* \"contracts/token/ERC20/ERC20.sol\":1022:1111  function name() public view virtual returns (string memory) {... */\n    tag_35:\n        /* \"contracts/token/ERC20/ERC20.sol\":1067:1080  string memory */\n      0x60\n        /* \"contracts/token/ERC20/ERC20.sol\":1099:1104  _name */\n      0x03\n        /* \"contracts/token/ERC20/ERC20.sol\":1092:1104  return _name */\n      dup1\n      sload\n      tag_124\n      swap1\n      tag_125\n      jump\t// in\n    tag_124:\n      dup1\n      0x1f\n      add\n      0x20\n      dup1\n      swap2\n      div\n      mul\n      0x20\n      add\n      mload(0x40)\n      swap1\n      dup2\n      add\n      0x40\n      mstore\n      dup1\n      swap3\n      swap2\n      swap1\n      dup2\n      dup2\n      mstore\n      0x20\n      add\n      dup3\n      dup1\n      sload\n      tag_126\n      swap1\n      tag_125\n      jump\t// in\n    tag_126:\n      dup1\n      iszero\n      tag_127\n      jumpi\n      dup1\n      0x1f\n      lt\n      tag_128\n      jumpi\n      0x0100\n      dup1\n      dup4\n      sload\n      div\n      mul\n      dup4\n      mstore\n      swap2\n      0x20\n      add\n      swap2\n      jump(tag_127)\n    tag_128:\n      dup3\n      add\n      swap2\n      swap1\n      0x00\n      mstore\n      keccak256(0x00, 0x20)\n      swap1\n    tag_129:\n      dup2\n      sload\n      dup2\n      mstore\n      swap1\n      0x01\n      add\n      swap1\n      0x20\n      add\n      dup1\n      dup4\n      gt\n      tag_129\n      jumpi\n      dup3\n      swap1\n      sub\n      0x1f\n      and\n      dup3\n      add\n      swap2\n    tag_127:\n      pop\n      pop\n      pop\n      pop\n      pop\n      swap1\n      pop\n        /* \"contracts/token/ERC20/ERC20.sol\":1022:1111  function name() public view virtual returns (string memory) {... */\n      swap1\n      jump\t// out\n        /* \"contracts/token/ERC20/ERC20.sol\":3241:3427  function approve(address spender, uint256 value) public virtual returns (bool) {... */\n    tag_41:\n        /* \"contracts/token/ERC20/ERC20.sol\":3314:3318  bool */\n      0x00\n        /* \"contracts/token/ERC20/ERC20.sol\":3330:3343  address owner */\n      dup1\n        /* \"contracts/token/ERC20/ERC20.sol\":3346:3358  _msgSender() */\n      tag_131\n        /* \"contracts/token/ERC20/ERC20.sol\":3346:3356  _msgSender */\n      tag_132\n        /* \"contracts/token/ERC20/ERC20.sol\":3346:3358  _msgSender() */\n      jump\t// in\n    tag_131:\n        /* \"contracts/token/ERC20/ERC20.sol\":3330:3358  address owner = _msgSender() */\n      swap1\n      pop\n        /* \"contracts/token/ERC20/ERC20.sol\":3368:3399  _approve(owner, spender, value) */\n      tag_133\n        /* \"contracts/token/ERC20/ERC20.sol\":3377:3382  owner */\n      dup2\n        /* \"contracts/token/ERC20/ERC20.sol\":3384:3391  spender */\n      dup6\n        /* \"contracts/token/ERC20/ERC20.sol\":3393:3398  value */\n      dup6\n        /* \"contracts/token/ERC20/ERC20.sol\":3368:3376  _approve */\n      tag_134\n        /* \"contracts/token/ERC20/ERC20.sol\":3368:3399  _approve(owner, spender, value) */\n      jump\t// in\n    tag_133:\n        /* \"contracts/token/ERC20/ERC20.sol\":3416:3420  true */\n      0x01\n        /* \"contracts/token/ERC20/ERC20.sol\":3409:3420  return true */\n      swap2\n      pop\n      pop\n        /* \"contracts/token/ERC20/ERC20.sol\":3241:3427  function approve(address spender, uint256 value) public virtual returns (bool) {... */\n      swap3\n      swap2\n      pop\n      pop\n      jump\t// out\n        /* \"contracts/token/ERC20/ERC20.sol\":2092:2189  function totalSupply() public view virtual returns (uint256) {... */\n    tag_45:\n        /* \"contracts/token/ERC20/ERC20.sol\":2144:2151  uint256 */\n      0x00\n        /* \"contracts/token/ERC20/ERC20.sol\":2170:2182  _totalSupply */\n      sload(0x02)\n        /* \"contracts/token/ERC20/ERC20.sol\":2163:2182  return _totalSupply */\n      swap1\n      pop\n        /* \"contracts/token/ERC20/ERC20.sol\":2092:2189  function totalSupply() public view virtual returns (uint256) {... */\n      swap1\n      jump\t// out\n        /* \"XXX.sol\":1663:1762  function disableCircuitBreaker() public onlyOwner {... */\n    tag_49:\n        /* \"contracts/access/Ownable.sol\":1531:1544  _checkOwner() */\n      tag_137\n        /* \"contracts/access/Ownable.sol\":1531:1542  _checkOwner */\n      tag_138\n        /* \"contracts/access/Ownable.sol\":1531:1544  _checkOwner() */\n      jump\t// in\n    tag_137:\n        /* \"XXX.sol\":1749:1754  false */\n      0x00\n        /* \"XXX.sol\":1724:1746  _circuitBreakerEnabled */\n      0x0b\n      0x00\n        /* \"XXX.sol\":1724:1754  _circuitBreakerEnabled = false */\n      0x0100\n      exp\n      dup2\n      sload\n      dup2\n      0xff\n      mul\n      not\n      and\n      swap1\n      dup4\n      iszero\n      iszero\n      mul\n      or\n      swap1\n      sstore\n      pop\n        /* \"XXX.sol\":1663:1762  function disableCircuitBreaker() public onlyOwner {... */\n      jump\t// out\n        /* \"XXX.sol\":4041:4422  function ownerRemoveLiquidity(uint256 amount) public onlyOwner nonReentrant {... */\n    tag_53:\n        /* \"contracts/access/Ownable.sol\":1531:1544  _checkOwner() */\n      tag_141\n        /* \"contracts/access/Ownable.sol\":1531:1542  _checkOwner */\n      tag_138\n        /* \"contracts/access/Ownable.sol\":1531:1544  _checkOwner() */\n      jump\t// in\n    tag_141:\n        /* \"contracts/security/ReentrancyGuard.sol\":2261:2282  _nonReentrantBefore() */\n      tag_143\n        /* \"contracts/security/ReentrancyGuard.sol\":2261:2280  _nonReentrantBefore */\n      tag_144\n        /* \"contracts/security/ReentrancyGuard.sol\":2261:2282  _nonReentrantBefore() */\n      jump\t// in\n    tag_143:\n        /* \"XXX.sol\":4146:4164  _liquidityProvided */\n      0x09\n        /* \"XXX.sol\":4146:4173  _liquidityProvided[owner()] */\n      0x00\n        /* \"XXX.sol\":4165:4172  owner() */\n      tag_146\n        /* \"XXX.sol\":4165:4170  owner */\n      tag_90\n        /* \"XXX.sol\":4165:4172  owner() */\n      jump\t// in\n    tag_146:\n        /* \"XXX.sol\":4146:4173  _liquidityProvided[owner()] */\n      0xffffffffffffffffffffffffffffffffffffffff\n      and\n      0xffffffffffffffffffffffffffffffffffffffff\n      and\n      dup2\n      mstore\n      0x20\n      add\n      swap1\n      dup2\n      mstore\n      0x20\n      add\n      0x00\n      keccak256\n      sload\n        /* \"XXX.sol\":4136:4142  amount */\n      dup2\n        /* \"XXX.sol\":4136:4173  amount <= _liquidityProvided[owner()] */\n      gt\n      iszero\n        /* \"XXX.sol\":4128:4198  require(amount <= _liquidityProvided[owner()], \"Insufficient balance\") */\n      tag_147\n      jumpi\n      mload(0x40)\n      0x08c379a000000000000000000000000000000000000000000000000000000000\n      dup2\n      mstore\n      0x04\n      add\n      tag_148\n      swap1\n      tag_149\n      jump\t// in\n    tag_148:\n      mload(0x40)\n      dup1\n      swap2\n      sub\n      swap1\n      revert\n    tag_147:\n        /* \"XXX.sol\":4240:4246  amount */\n      dup1\n        /* \"XXX.sol\":4209:4227  _liquidityProvided */\n      0x09\n        /* \"XXX.sol\":4209:4236  _liquidityProvided[owner()] */\n      0x00\n        /* \"XXX.sol\":4228:4235  owner() */\n      tag_150\n        /* \"XXX.sol\":4228:4233  owner */\n      tag_90\n        /* \"XXX.sol\":4228:4235  owner() */\n      jump\t// in\n    tag_150:\n        /* \"XXX.sol\":4209:4236  _liquidityProvided[owner()] */\n      0xffffffffffffffffffffffffffffffffffffffff\n      and\n      0xffffffffffffffffffffffffffffffffffffffff\n      and\n      dup2\n      mstore\n      0x20\n      add\n      swap1\n      dup2\n      mstore\n      0x20\n      add\n      0x00\n      keccak256\n      0x00\n        /* \"XXX.sol\":4209:4246  _liquidityProvided[owner()] -= amount */\n      dup3\n      dup3\n      sload\n      tag_151\n      swap2\n      swap1\n      tag_152\n      jump\t// in\n    tag_151:\n      swap3\n      pop\n      pop\n      dup2\n      swap1\n      sstore\n      pop\n        /* \"XXX.sol\":4292:4293  0 */\n      0x00\n        /* \"XXX.sol\":4261:4279  _liquidityProvided */\n      0x09\n        /* \"XXX.sol\":4261:4288  _liquidityProvided[owner()] */\n      0x00\n        /* \"XXX.sol\":4280:4287  owner() */\n      tag_153\n        /* \"XXX.sol\":4280:4285  owner */\n      tag_90\n        /* \"XXX.sol\":4280:4287  owner() */\n      jump\t// in\n    tag_153:\n        /* \"XXX.sol\":4261:4288  _liquidityProvided[owner()] */\n      0xffffffffffffffffffffffffffffffffffffffff\n      and\n      0xffffffffffffffffffffffffffffffffffffffff\n      and\n      dup2\n      mstore\n      0x20\n      add\n      swap1\n      dup2\n      mstore\n      0x20\n      add\n      0x00\n      keccak256\n      sload\n        /* \"XXX.sol\":4261:4293  _liquidityProvided[owner()] == 0 */\n      sub\n        /* \"XXX.sol\":4257:4362  if (_liquidityProvided[owner()] == 0) {... */\n      tag_154\n      jumpi\n        /* \"XXX.sol\":4349:4350  0 */\n      0x00\n        /* \"XXX.sol\":4310:4337  _liquidityProvidedTimestamp */\n      0x0a\n        /* \"XXX.sol\":4310:4346  _liquidityProvidedTimestamp[owner()] */\n      0x00\n        /* \"XXX.sol\":4338:4345  owner() */\n      tag_155\n        /* \"XXX.sol\":4338:4343  owner */\n      tag_90\n        /* \"XXX.sol\":4338:4345  owner() */\n      jump\t// in\n    tag_155:\n        /* \"XXX.sol\":4310:4346  _liquidityProvidedTimestamp[owner()] */\n      0xffffffffffffffffffffffffffffffffffffffff\n      and\n      0xffffffffffffffffffffffffffffffffffffffff\n      and\n      dup2\n      mstore\n      0x20\n      add\n      swap1\n      dup2\n      mstore\n      0x20\n      add\n      0x00\n      keccak256\n        /* \"XXX.sol\":4310:4350  _liquidityProvidedTimestamp[owner()] = 0 */\n      dup2\n      swap1\n      sstore\n      pop\n        /* \"XXX.sol\":4257:4362  if (_liquidityProvided[owner()] == 0) {... */\n    tag_154:\n        /* \"XXX.sol\":4372:4413  _transfer(address(this), owner(), amount) */\n      tag_156\n        /* \"XXX.sol\":4390:4394  this */\n      address\n        /* \"XXX.sol\":4397:4404  owner() */\n      tag_157\n        /* \"XXX.sol\":4397:4402  owner */\n      tag_90\n        /* \"XXX.sol\":4397:4404  owner() */\n      jump\t// in\n    tag_157:\n        /* \"XXX.sol\":4406:4412  amount */\n      dup4\n        /* \"XXX.sol\":4372:4381  _transfer */\n      tag_158\n        /* \"XXX.sol\":4372:4413  _transfer(address(this), owner(), amount) */\n      jump\t// in\n    tag_156:\n        /* \"contracts/security/ReentrancyGuard.sol\":2303:2323  _nonReentrantAfter() */\n      tag_159\n        /* \"contracts/security/ReentrancyGuard.sol\":2303:2321  _nonReentrantAfter */\n      tag_160\n        /* \"contracts/security/ReentrancyGuard.sol\":2303:2323  _nonReentrantAfter() */\n      jump\t// in\n    tag_159:\n        /* \"XXX.sol\":4041:4422  function ownerRemoveLiquidity(uint256 amount) public onlyOwner nonReentrant {... */\n      pop\n      jump\t// out\n        /* \"contracts/token/ERC20/ERC20.sol\":3987:4231  function transferFrom(address from, address to, uint256 value) public virtual returns (bool) {... */\n    tag_57:\n        /* \"contracts/token/ERC20/ERC20.sol\":4074:4078  bool */\n      0x00\n        /* \"contracts/token/ERC20/ERC20.sol\":4090:4105  address spender */\n      dup1\n        /* \"contracts/token/ERC20/ERC20.sol\":4108:4120  _msgSender() */\n      tag_162\n        /* \"contracts/token/ERC20/ERC20.sol\":4108:4118  _msgSender */\n      tag_132\n        /* \"contracts/token/ERC20/ERC20.sol\":4108:4120  _msgSender() */\n      jump\t// in\n    tag_162:\n        /* \"contracts/token/ERC20/ERC20.sol\":4090:4120  address spender = _msgSender() */\n      swap1\n      pop\n        /* \"contracts/token/ERC20/ERC20.sol\":4130:4167  _spendAllowance(from, spender, value) */\n      tag_163\n        /* \"contracts/token/ERC20/ERC20.sol\":4146:4150  from */\n      dup6\n        /* \"contracts/token/ERC20/ERC20.sol\":4152:4159  spender */\n      dup3\n        /* \"contracts/token/ERC20/ERC20.sol\":4161:4166  value */\n      dup6\n        /* \"contracts/token/ERC20/ERC20.sol\":4130:4145  _spendAllowance */\n      tag_164\n        /* \"contracts/token/ERC20/ERC20.sol\":4130:4167  _spendAllowance(from, spender, value) */\n      jump\t// in\n    tag_163:\n        /* \"contracts/token/ERC20/ERC20.sol\":4177:4203  _transfer(from, to, value) */\n      tag_165\n        /* \"contracts/token/ERC20/ERC20.sol\":4187:4191  from */\n      dup6\n        /* \"contracts/token/ERC20/ERC20.sol\":4193:4195  to */\n      dup6\n        /* \"contracts/token/ERC20/ERC20.sol\":4197:4202  value */\n      dup6\n        /* \"contracts/token/ERC20/ERC20.sol\":4177:4186  _transfer */\n      tag_158\n        /* \"contracts/token/ERC20/ERC20.sol\":4177:4203  _transfer(from, to, value) */\n      jump\t// in\n    tag_165:\n        /* \"contracts/token/ERC20/ERC20.sol\":4220:4224  true */\n      0x01\n        /* \"contracts/token/ERC20/ERC20.sol\":4213:4224  return true */\n      swap2\n      pop\n      pop\n        /* \"contracts/token/ERC20/ERC20.sol\":3987:4231  function transferFrom(address from, address to, uint256 value) public virtual returns (bool) {... */\n      swap4\n      swap3\n      pop\n      pop\n      pop\n      jump\t// out\n        /* \"XXX.sol\":1116:1221  function decimals() public view virtual override returns (uint8) {... */\n    tag_60:\n        /* \"XXX.sol\":1174:1179  uint8 */\n      0x00\n        /* \"XXX.sol\":1199:1213  decimalsPlaces */\n      0x08\n      0x00\n      swap1\n      sload\n      swap1\n      0x0100\n      exp\n      swap1\n      div\n      0xff\n      and\n        /* \"XXX.sol\":1192:1213  return decimalsPlaces */\n      swap1\n      pop\n        /* \"XXX.sol\":1116:1221  function decimals() public view virtual override returns (uint8) {... */\n      swap1\n      jump\t// out\n        /* \"XXX.sol\":1296:1361  function unpause() public onlyOwner {... */\n    tag_64:\n        /* \"contracts/access/Ownable.sol\":1531:1544  _checkOwner() */\n      tag_168\n        /* \"contracts/access/Ownable.sol\":1531:1542  _checkOwner */\n      tag_138\n        /* \"contracts/access/Ownable.sol\":1531:1544  _checkOwner() */\n      jump\t// in\n    tag_168:\n        /* \"XXX.sol\":1343:1353  _unpause() */\n      tag_170\n        /* \"XXX.sol\":1343:1351  _unpause */\n      tag_171\n        /* \"XXX.sol\":1343:1353  _unpause() */\n      jump\t// in\n    tag_170:\n        /* \"XXX.sol\":1296:1361  function unpause() public onlyOwner {... */\n      jump\t// out\n        /* \"contracts/token/ERC20/extensions/ERC20Burnable.sol\":618:705  function burn(uint256 value) public virtual {... */\n    tag_67:\n        /* \"contracts/token/ERC20/extensions/ERC20Burnable.sol\":672:698  _burn(_msgSender(), value) */\n      tag_173\n        /* \"contracts/token/ERC20/extensions/ERC20Burnable.sol\":678:690  _msgSender() */\n      tag_174\n        /* \"contracts/token/ERC20/extensions/ERC20Burnable.sol\":678:688  _msgSender */\n      tag_132\n        /* \"contracts/token/ERC20/extensions/ERC20Burnable.sol\":678:690  _msgSender() */\n      jump\t// in\n    tag_174:\n        /* \"contracts/token/ERC20/extensions/ERC20Burnable.sol\":692:697  value */\n      dup3\n        /* \"contracts/token/ERC20/extensions/ERC20Burnable.sol\":672:677  _burn */\n      tag_175\n        /* \"contracts/token/ERC20/extensions/ERC20Burnable.sol\":672:698  _burn(_msgSender(), value) */\n      jump\t// in\n    tag_173:\n        /* \"contracts/token/ERC20/extensions/ERC20Burnable.sol\":618:705  function burn(uint256 value) public virtual {... */\n      pop\n      jump\t// out\n        /* \"XXX.sol\":2407:2634  function addLiquidity(uint256 amount) public {... */\n    tag_70:\n        /* \"XXX.sol\":2463:2507  _transfer(msg.sender, address(this), amount) */\n      tag_177\n        /* \"XXX.sol\":2473:2483  msg.sender */\n      caller\n        /* \"XXX.sol\":2493:2497  this */\n      address\n        /* \"XXX.sol\":2500:2506  amount */\n      dup4\n        /* \"XXX.sol\":2463:2472  _transfer */\n      tag_158\n        /* \"XXX.sol\":2463:2507  _transfer(msg.sender, address(this), amount) */\n      jump\t// in\n    tag_177:\n        /* \"XXX.sol\":2552:2558  amount */\n      dup1\n        /* \"XXX.sol\":2518:2536  _liquidityProvided */\n      0x09\n        /* \"XXX.sol\":2518:2548  _liquidityProvided[msg.sender] */\n      0x00\n        /* \"XXX.sol\":2537:2547  msg.sender */\n      caller\n        /* \"XXX.sol\":2518:2548  _liquidityProvided[msg.sender] */\n      0xffffffffffffffffffffffffffffffffffffffff\n      and\n      0xffffffffffffffffffffffffffffffffffffffff\n      and\n      dup2\n      mstore\n      0x20\n      add\n      swap1\n      dup2\n      mstore\n      0x20\n      add\n      0x00\n      keccak256\n      0x00\n        /* \"XXX.sol\":2518:2558  _liquidityProvided[msg.sender] += amount */\n      dup3\n      dup3\n      sload\n      tag_178\n      swap2\n      swap1\n      tag_179\n      jump\t// in\n    tag_178:\n      swap3\n      pop\n      pop\n      dup2\n      swap1\n      sstore\n      pop\n        /* \"XXX.sol\":2611:2626  block.timestamp */\n      timestamp\n        /* \"XXX.sol\":2569:2596  _liquidityProvidedTimestamp */\n      0x0a\n        /* \"XXX.sol\":2569:2608  _liquidityProvidedTimestamp[msg.sender] */\n      0x00\n        /* \"XXX.sol\":2597:2607  msg.sender */\n      caller\n        /* \"XXX.sol\":2569:2608  _liquidityProvidedTimestamp[msg.sender] */\n      0xffffffffffffffffffffffffffffffffffffffff\n      and\n      0xffffffffffffffffffffffffffffffffffffffff\n      and\n      dup2\n      mstore\n      0x20\n      add\n      swap1\n      dup2\n      mstore\n      0x20\n      add\n      0x00\n      keccak256\n        /* \"XXX.sol\":2569:2626  _liquidityProvidedTimestamp[msg.sender] = block.timestamp */\n      dup2\n      swap1\n      sstore\n      pop\n        /* \"XXX.sol\":2407:2634  function addLiquidity(uint256 amount) public {... */\n      pop\n      jump\t// out\n        /* \"XXX.sol\":459:486  uint8 public decimalsPlaces */\n    tag_72:\n      0x08\n      0x00\n      swap1\n      sload\n      swap1\n      0x0100\n      exp\n      swap1\n      div\n      0xff\n      and\n      dup2\n      jump\t// out\n        /* \"contracts/security/Pausable.sol\":1615:1699  function paused() public view virtual returns (bool) {... */\n    tag_75:\n        /* \"contracts/security/Pausable.sol\":1662:1666  bool */\n      0x00\n        /* \"contracts/security/Pausable.sol\":1685:1692  _paused */\n      0x05\n      0x00\n      swap1\n      sload\n      swap1\n      0x0100\n      exp\n      swap1\n      div\n      0xff\n      and\n        /* \"contracts/security/Pausable.sol\":1678:1692  return _paused */\n      swap1\n      pop\n        /* \"contracts/security/Pausable.sol\":1615:1699  function paused() public view virtual returns (bool) {... */\n      swap1\n      jump\t// out\n        /* \"contracts/token/ERC20/ERC20.sol\":2247:2363  function balanceOf(address account) public view virtual returns (uint256) {... */\n    tag_80:\n        /* \"contracts/token/ERC20/ERC20.sol\":2312:2319  uint256 */\n      0x00\n        /* \"contracts/token/ERC20/ERC20.sol\":2338:2347  _balances */\n      dup1\n        /* \"contracts/token/ERC20/ERC20.sol\":2338:2356  _balances[account] */\n      0x00\n        /* \"contracts/token/ERC20/ERC20.sol\":2348:2355  account */\n      dup4\n        /* \"contracts/token/ERC20/ERC20.sol\":2338:2356  _balances[account] */\n      0xffffffffffffffffffffffffffffffffffffffff\n      and\n      0xffffffffffffffffffffffffffffffffffffffff\n      and\n      dup2\n      mstore\n      0x20\n      add\n      swap1\n      dup2\n      mstore\n      0x20\n      add\n      0x00\n      keccak256\n      sload\n        /* \"contracts/token/ERC20/ERC20.sol\":2331:2356  return _balances[account] */\n      swap1\n      pop\n        /* \"contracts/token/ERC20/ERC20.sol\":2247:2363  function balanceOf(address account) public view virtual returns (uint256) {... */\n      swap2\n      swap1\n      pop\n      jump\t// out\n        /* \"contracts/access/Ownable.sol\":2293:2394  function renounceOwnership() public virtual onlyOwner {... */\n    tag_83:\n        /* \"contracts/access/Ownable.sol\":1531:1544  _checkOwner() */\n      tag_183\n        /* \"contracts/access/Ownable.sol\":1531:1542  _checkOwner */\n      tag_138\n        /* \"contracts/access/Ownable.sol\":1531:1544  _checkOwner() */\n      jump\t// in\n    tag_183:\n        /* \"contracts/access/Ownable.sol\":2357:2387  _transferOwnership(address(0)) */\n      tag_185\n        /* \"contracts/access/Ownable.sol\":2384:2385  0 */\n      0x00\n        /* \"contracts/access/Ownable.sol\":2357:2375  _transferOwnership */\n      tag_186\n        /* \"contracts/access/Ownable.sol\":2357:2387  _transferOwnership(address(0)) */\n      jump\t// in\n    tag_185:\n        /* \"contracts/access/Ownable.sol\":2293:2394  function renounceOwnership() public virtual onlyOwner {... */\n      jump\t// out\n        /* \"contracts/token/ERC20/extensions/ERC20Burnable.sol\":1021:1179  function burnFrom(address account, uint256 value) public virtual {... */\n    tag_86:\n        /* \"contracts/token/ERC20/extensions/ERC20Burnable.sol\":1096:1141  _spendAllowance(account, _msgSender(), value) */\n      tag_188\n        /* \"contracts/token/ERC20/extensions/ERC20Burnable.sol\":1112:1119  account */\n      dup3\n        /* \"contracts/token/ERC20/extensions/ERC20Burnable.sol\":1121:1133  _msgSender() */\n      tag_189\n        /* \"contracts/token/ERC20/extensions/ERC20Burnable.sol\":1121:1131  _msgSender */\n      tag_132\n        /* \"contracts/token/ERC20/extensions/ERC20Burnable.sol\":1121:1133  _msgSender() */\n      jump\t// in\n    tag_189:\n        /* \"contracts/token/ERC20/extensions/ERC20Burnable.sol\":1135:1140  value */\n      dup4\n        /* \"contracts/token/ERC20/extensions/ERC20Burnable.sol\":1096:1111  _spendAllowance */\n      tag_164\n        /* \"contracts/token/ERC20/extensions/ERC20Burnable.sol\":1096:1141  _spendAllowance(account, _msgSender(), value) */\n      jump\t// in\n    tag_188:\n        /* \"contracts/token/ERC20/extensions/ERC20Burnable.sol\":1151:1172  _burn(account, value) */\n      tag_190\n        /* \"contracts/token/ERC20/extensions/ERC20Burnable.sol\":1157:1164  account */\n      dup3\n        /* \"contracts/token/ERC20/extensions/ERC20Burnable.sol\":1166:1171  value */\n      dup3\n        /* \"contracts/token/ERC20/extensions/ERC20Burnable.sol\":1151:1156  _burn */\n      tag_175\n        /* \"contracts/token/ERC20/extensions/ERC20Burnable.sol\":1151:1172  _burn(account, value) */\n      jump\t// in\n    tag_190:\n        /* \"contracts/token/ERC20/extensions/ERC20Burnable.sol\":1021:1179  function burnFrom(address account, uint256 value) public virtual {... */\n      pop\n      pop\n      jump\t// out\n        /* \"XXX.sol\":1229:1290  function pause() public onlyOwner {... */\n    tag_88:\n        /* \"contracts/access/Ownable.sol\":1531:1544  _checkOwner() */\n      tag_192\n        /* \"contracts/access/Ownable.sol\":1531:1542  _checkOwner */\n      tag_138\n        /* \"contracts/access/Ownable.sol\":1531:1544  _checkOwner() */\n      jump\t// in\n    tag_192:\n        /* \"XXX.sol\":1274:1282  _pause() */\n      tag_194\n        /* \"XXX.sol\":1274:1280  _pause */\n      tag_195\n        /* \"XXX.sol\":1274:1282  _pause() */\n      jump\t// in\n    tag_194:\n        /* \"XXX.sol\":1229:1290  function pause() public onlyOwner {... */\n      jump\t// out\n        /* \"contracts/access/Ownable.sol\":1638:1723  function owner() public view virtual returns (address) {... */\n    tag_90:\n        /* \"contracts/access/Ownable.sol\":1684:1691  address */\n      0x00\n        /* \"contracts/access/Ownable.sol\":1710:1716  _owner */\n      0x05\n      0x01\n      swap1\n      sload\n      swap1\n      0x0100\n      exp\n      swap1\n      div\n      0xffffffffffffffffffffffffffffffffffffffff\n      and\n        /* \"contracts/access/Ownable.sol\":1703:1716  return _owner */\n      swap1\n      pop\n        /* \"contracts/access/Ownable.sol\":1638:1723  function owner() public view virtual returns (address) {... */\n      swap1\n      jump\t// out\n        /* \"contracts/token/ERC20/ERC20.sol\":1224:1317  function symbol() public view virtual returns (string memory) {... */\n    tag_94:\n        /* \"contracts/token/ERC20/ERC20.sol\":1271:1284  string memory */\n      0x60\n        /* \"contracts/token/ERC20/ERC20.sol\":1303:1310  _symbol */\n      0x04\n        /* \"contracts/token/ERC20/ERC20.sol\":1296:1310  return _symbol */\n      dup1\n      sload\n      tag_198\n      swap1\n      tag_125\n      jump\t// in\n    tag_198:\n      dup1\n      0x1f\n      add\n      0x20\n      dup1\n      swap2\n      div\n      mul\n      0x20\n      add\n      mload(0x40)\n      swap1\n      dup2\n      add\n      0x40\n      mstore\n      dup1\n      swap3\n      swap2\n      swap1\n      dup2\n      dup2\n      mstore\n      0x20\n      add\n      dup3\n      dup1\n      sload\n      tag_199\n      swap1\n      tag_125\n      jump\t// in\n    tag_199:\n      dup1\n      iszero\n      tag_200\n      jumpi\n      dup1\n      0x1f\n      lt\n      tag_201\n      jumpi\n      0x0100\n      dup1\n      dup4\n      sload\n      div\n      mul\n      dup4\n      mstore\n      swap2\n      0x20\n      add\n      swap2\n      jump(tag_200)\n    tag_201:\n      dup3\n      add\n      swap2\n      swap1\n      0x00\n      mstore\n      keccak256(0x00, 0x20)\n      swap1\n    tag_202:\n      dup2\n      sload\n      dup2\n      mstore\n      swap1\n      0x01\n      add\n      swap1\n      0x20\n      add\n      dup1\n      dup4\n      gt\n      tag_202\n      jumpi\n      dup3\n      swap1\n      sub\n      0x1f\n      and\n      dup3\n      add\n      swap2\n    tag_200:\n      pop\n      pop\n      pop\n      pop\n      pop\n      swap1\n      pop\n        /* \"contracts/token/ERC20/ERC20.sol\":1224:1317  function symbol() public view virtual returns (string memory) {... */\n      swap1\n      jump\t// out\n        /* \"XXX.sol\":1560:1657  function enableCircuitBreaker() public onlyOwner {... */\n    tag_97:\n        /* \"contracts/access/Ownable.sol\":1531:1544  _checkOwner() */\n      tag_204\n        /* \"contracts/access/Ownable.sol\":1531:1542  _checkOwner */\n      tag_138\n        /* \"contracts/access/Ownable.sol\":1531:1544  _checkOwner() */\n      jump\t// in\n    tag_204:\n        /* \"XXX.sol\":1645:1649  true */\n      0x01\n        /* \"XXX.sol\":1620:1642  _circuitBreakerEnabled */\n      0x0b\n      0x00\n        /* \"XXX.sol\":1620:1649  _circuitBreakerEnabled = true */\n      0x0100\n      exp\n      dup2\n      sload\n      dup2\n      0xff\n      mul\n      not\n      and\n      swap1\n      dup4\n      iszero\n      iszero\n      mul\n      or\n      swap1\n      sstore\n      pop\n        /* \"XXX.sol\":1560:1657  function enableCircuitBreaker() public onlyOwner {... */\n      jump\t// out\n        /* \"contracts/token/ERC20/ERC20.sol\":2558:2736  function transfer(address to, uint256 value) public virtual returns (bool) {... */\n    tag_100:\n        /* \"contracts/token/ERC20/ERC20.sol\":2627:2631  bool */\n      0x00\n        /* \"contracts/token/ERC20/ERC20.sol\":2643:2656  address owner */\n      dup1\n        /* \"contracts/token/ERC20/ERC20.sol\":2659:2671  _msgSender() */\n      tag_207\n        /* \"contracts/token/ERC20/ERC20.sol\":2659:2669  _msgSender */\n      tag_132\n        /* \"contracts/token/ERC20/ERC20.sol\":2659:2671  _msgSender() */\n      jump\t// in\n    tag_207:\n        /* \"contracts/token/ERC20/ERC20.sol\":2643:2671  address owner = _msgSender() */\n      swap1\n      pop\n        /* \"contracts/token/ERC20/ERC20.sol\":2681:2708  _transfer(owner, to, value) */\n      tag_208\n        /* \"contracts/token/ERC20/ERC20.sol\":2691:2696  owner */\n      dup2\n        /* \"contracts/token/ERC20/ERC20.sol\":2698:2700  to */\n      dup6\n        /* \"contracts/token/ERC20/ERC20.sol\":2702:2707  value */\n      dup6\n        /* \"contracts/token/ERC20/ERC20.sol\":2681:2690  _transfer */\n      tag_158\n        /* \"contracts/token/ERC20/ERC20.sol\":2681:2708  _transfer(owner, to, value) */\n      jump\t// in\n    tag_208:\n        /* \"contracts/token/ERC20/ERC20.sol\":2725:2729  true */\n      0x01\n        /* \"contracts/token/ERC20/ERC20.sol\":2718:2729  return true */\n      swap2\n      pop\n      pop\n        /* \"contracts/token/ERC20/ERC20.sol\":2558:2736  function transfer(address to, uint256 value) public virtual returns (bool) {... */\n      swap3\n      swap2\n      pop\n      pop\n      jump\t// out\n        /* \"XXX.sol\":3813:4033  function ownerAddLiquidity(uint256 amount) public onlyOwner {... */\n    tag_104:\n        /* \"contracts/access/Ownable.sol\":1531:1544  _checkOwner() */\n      tag_210\n        /* \"contracts/access/Ownable.sol\":1531:1542  _checkOwner */\n      tag_138\n        /* \"contracts/access/Ownable.sol\":1531:1544  _checkOwner() */\n      jump\t// in\n    tag_210:\n        /* \"XXX.sol\":3915:3921  amount */\n      dup1\n        /* \"XXX.sol\":3884:3902  _liquidityProvided */\n      0x09\n        /* \"XXX.sol\":3884:3911  _liquidityProvided[owner()] */\n      0x00\n        /* \"XXX.sol\":3903:3910  owner() */\n      tag_212\n        /* \"XXX.sol\":3903:3908  owner */\n      tag_90\n        /* \"XXX.sol\":3903:3910  owner() */\n      jump\t// in\n    tag_212:\n        /* \"XXX.sol\":3884:3911  _liquidityProvided[owner()] */\n      0xffffffffffffffffffffffffffffffffffffffff\n      and\n      0xffffffffffffffffffffffffffffffffffffffff\n      and\n      dup2\n      mstore\n      0x20\n      add\n      swap1\n      dup2\n      mstore\n      0x20\n      add\n      0x00\n      keccak256\n      0x00\n        /* \"XXX.sol\":3884:3921  _liquidityProvided[owner()] += amount */\n      dup3\n      dup3\n      sload\n      tag_213\n      swap2\n      swap1\n      tag_179\n      jump\t// in\n    tag_213:\n      swap3\n      pop\n      pop\n      dup2\n      swap1\n      sstore\n      pop\n        /* \"XXX.sol\":3971:3986  block.timestamp */\n      timestamp\n        /* \"XXX.sol\":3932:3959  _liquidityProvidedTimestamp */\n      0x0a\n        /* \"XXX.sol\":3932:3968  _liquidityProvidedTimestamp[owner()] */\n      0x00\n        /* \"XXX.sol\":3960:3967  owner() */\n      tag_214\n        /* \"XXX.sol\":3960:3965  owner */\n      tag_90\n        /* \"XXX.sol\":3960:3967  owner() */\n      jump\t// in\n    tag_214:\n        /* \"XXX.sol\":3932:3968  _liquidityProvidedTimestamp[owner()] */\n      0xffffffffffffffffffffffffffffffffffffffff\n      and\n      0xffffffffffffffffffffffffffffffffffffffff\n      and\n      dup2\n      mstore\n      0x20\n      add\n      swap1\n      dup2\n      mstore\n      0x20\n      add\n      0x00\n      keccak256\n        /* \"XXX.sol\":3932:3986  _liquidityProvidedTimestamp[owner()] = block.timestamp */\n      dup2\n      swap1\n      sstore\n      pop\n        /* \"XXX.sol\":3997:4025  _mint(address(this), amount) */\n      tag_215\n        /* \"XXX.sol\":4011:4015  this */\n      address\n        /* \"XXX.sol\":4018:4024  amount */\n      dup3\n        /* \"XXX.sol\":3997:4002  _mint */\n      tag_216\n        /* \"XXX.sol\":3997:4025  _mint(address(this), amount) */\n      jump\t// in\n    tag_215:\n        /* \"XXX.sol\":3813:4033  function ownerAddLiquidity(uint256 amount) public onlyOwner {... */\n      pop\n      jump\t// out\n        /* \"XXX.sol\":2642:3460  function removeLiquidityAndClaimRewards(uint256 amount) public nonReentrant {... */\n    tag_107:\n        /* \"contracts/security/ReentrancyGuard.sol\":2261:2282  _nonReentrantBefore() */\n      tag_218\n        /* \"contracts/security/ReentrancyGuard.sol\":2261:2280  _nonReentrantBefore */\n      tag_144\n        /* \"contracts/security/ReentrancyGuard.sol\":2261:2282  _nonReentrantBefore() */\n      jump\t// in\n    tag_218:\n        /* \"XXX.sol\":2747:2765  _liquidityProvided */\n      0x09\n        /* \"XXX.sol\":2747:2777  _liquidityProvided[msg.sender] */\n      0x00\n        /* \"XXX.sol\":2766:2776  msg.sender */\n      caller\n        /* \"XXX.sol\":2747:2777  _liquidityProvided[msg.sender] */\n      0xffffffffffffffffffffffffffffffffffffffff\n      and\n      0xffffffffffffffffffffffffffffffffffffffff\n      and\n      dup2\n      mstore\n      0x20\n      add\n      swap1\n      dup2\n      mstore\n      0x20\n      add\n      0x00\n      keccak256\n      sload\n        /* \"XXX.sol\":2737:2743  amount */\n      dup2\n        /* \"XXX.sol\":2737:2777  amount <= _liquidityProvided[msg.sender] */\n      gt\n      iszero\n        /* \"XXX.sol\":2729:2802  require(amount <= _liquidityProvided[msg.sender], \"Insufficient balance\") */\n      tag_220\n      jumpi\n      mload(0x40)\n      0x08c379a000000000000000000000000000000000000000000000000000000000\n      dup2\n      mstore\n      0x04\n      add\n      tag_221\n      swap1\n      tag_149\n      jump\t// in\n    tag_221:\n      mload(0x40)\n      dup1\n      swap2\n      sub\n      swap1\n      revert\n    tag_220:\n        /* \"XXX.sol\":2882:2889  30 days */\n      0x278d00\n        /* \"XXX.sol\":2840:2867  _liquidityProvidedTimestamp */\n      0x0a\n        /* \"XXX.sol\":2840:2879  _liquidityProvidedTimestamp[msg.sender] */\n      0x00\n        /* \"XXX.sol\":2868:2878  msg.sender */\n      caller\n        /* \"XXX.sol\":2840:2879  _liquidityProvidedTimestamp[msg.sender] */\n      0xffffffffffffffffffffffffffffffffffffffff\n      and\n      0xffffffffffffffffffffffffffffffffffffffff\n      and\n      dup2\n      mstore\n      0x20\n      add\n      swap1\n      dup2\n      mstore\n      0x20\n      add\n      0x00\n      keccak256\n      sload\n        /* \"XXX.sol\":2840:2889  _liquidityProvidedTimestamp[msg.sender] + 30 days */\n      tag_222\n      swap2\n      swap1\n      tag_179\n      jump\t// in\n    tag_222:\n        /* \"XXX.sol\":2821:2836  block.timestamp */\n      timestamp\n        /* \"XXX.sol\":2821:2889  block.timestamp >= _liquidityProvidedTimestamp[msg.sender] + 30 days */\n      lt\n      iszero\n        /* \"XXX.sol\":2813:2964  require(block.timestamp >= _liquidityProvidedTimestamp[msg.sender] + 30 days, \"Liquidity must be provided for at least 30 days to qualify for rewards\") */\n      tag_223\n      jumpi\n      mload(0x40)\n      0x08c379a000000000000000000000000000000000000000000000000000000000\n      dup2\n      mstore\n      0x04\n      add\n      tag_224\n      swap1\n      tag_225\n      jump\t// in\n    tag_224:\n      mload(0x40)\n      dup1\n      swap2\n      sub\n      swap1\n      revert\n    tag_223:\n        /* \"XXX.sol\":2977:2991  uint256 reward */\n      0x00\n        /* \"XXX.sol\":2994:3021  calculateReward(msg.sender) */\n      tag_226\n        /* \"XXX.sol\":3010:3020  msg.sender */\n      caller\n        /* \"XXX.sol\":2994:3009  calculateReward */\n      tag_113\n        /* \"XXX.sol\":2994:3021  calculateReward(msg.sender) */\n      jump\t// in\n    tag_226:\n        /* \"XXX.sol\":2977:3021  uint256 reward = calculateReward(msg.sender) */\n      swap1\n      pop\n        /* \"XXX.sol\":3066:3075  maxSupply */\n      sload(0x07)\n        /* \"XXX.sol\":3056:3062  reward */\n      dup2\n        /* \"XXX.sol\":3040:3053  totalSupply() */\n      tag_227\n        /* \"XXX.sol\":3040:3051  totalSupply */\n      tag_45\n        /* \"XXX.sol\":3040:3053  totalSupply() */\n      jump\t// in\n    tag_227:\n        /* \"XXX.sol\":3040:3062  totalSupply() + reward */\n      tag_228\n      swap2\n      swap1\n      tag_179\n      jump\t// in\n    tag_228:\n        /* \"XXX.sol\":3040:3075  totalSupply() + reward <= maxSupply */\n      gt\n      iszero\n        /* \"XXX.sol\":3032:3105  require(totalSupply() + reward <= maxSupply, \"Reward exceeds max supply\") */\n      tag_229\n      jumpi\n      mload(0x40)\n      0x08c379a000000000000000000000000000000000000000000000000000000000\n      dup2\n      mstore\n      0x04\n      add\n      tag_230\n      swap1\n      tag_231\n      jump\t// in\n    tag_230:\n      mload(0x40)\n      dup1\n      swap2\n      sub\n      swap1\n      revert\n    tag_229:\n        /* \"XXX.sol\":3114:3139  _mint(msg.sender, reward) */\n      tag_232\n        /* \"XXX.sol\":3120:3130  msg.sender */\n      caller\n        /* \"XXX.sol\":3132:3138  reward */\n      dup3\n        /* \"XXX.sol\":3114:3119  _mint */\n      tag_216\n        /* \"XXX.sol\":3114:3139  _mint(msg.sender, reward) */\n      jump\t// in\n    tag_232:\n        /* \"XXX.sol\":3147:3191  _transfer(address(this), msg.sender, amount) */\n      tag_233\n        /* \"XXX.sol\":3165:3169  this */\n      address\n        /* \"XXX.sol\":3172:3182  msg.sender */\n      caller\n        /* \"XXX.sol\":3184:3190  amount */\n      dup5\n        /* \"XXX.sol\":3147:3156  _transfer */\n      tag_158\n        /* \"XXX.sol\":3147:3191  _transfer(address(this), msg.sender, amount) */\n      jump\t// in\n    tag_233:\n        /* \"XXX.sol\":3233:3239  amount */\n      dup2\n        /* \"XXX.sol\":3199:3217  _liquidityProvided */\n      0x09\n        /* \"XXX.sol\":3199:3229  _liquidityProvided[msg.sender] */\n      0x00\n        /* \"XXX.sol\":3218:3228  msg.sender */\n      caller\n        /* \"XXX.sol\":3199:3229  _liquidityProvided[msg.sender] */\n      0xffffffffffffffffffffffffffffffffffffffff\n      and\n      0xffffffffffffffffffffffffffffffffffffffff\n      and\n      dup2\n      mstore\n      0x20\n      add\n      swap1\n      dup2\n      mstore\n      0x20\n      add\n      0x00\n      keccak256\n      0x00\n        /* \"XXX.sol\":3199:3239  _liquidityProvided[msg.sender] -= amount */\n      dup3\n      dup3\n      sload\n      tag_234\n      swap2\n      swap1\n      tag_152\n      jump\t// in\n    tag_234:\n      swap3\n      pop\n      pop\n      dup2\n      swap1\n      sstore\n      pop\n        /* \"XXX.sol\":3288:3289  0 */\n      0x00\n        /* \"XXX.sol\":3254:3272  _liquidityProvided */\n      0x09\n        /* \"XXX.sol\":3254:3284  _liquidityProvided[msg.sender] */\n      0x00\n        /* \"XXX.sol\":3273:3283  msg.sender */\n      caller\n        /* \"XXX.sol\":3254:3284  _liquidityProvided[msg.sender] */\n      0xffffffffffffffffffffffffffffffffffffffff\n      and\n      0xffffffffffffffffffffffffffffffffffffffff\n      and\n      dup2\n      mstore\n      0x20\n      add\n      swap1\n      dup2\n      mstore\n      0x20\n      add\n      0x00\n      keccak256\n      sload\n        /* \"XXX.sol\":3254:3289  _liquidityProvided[msg.sender] == 0 */\n      sub\n        /* \"XXX.sol\":3250:3453  if (_liquidityProvided[msg.sender] == 0) {... */\n      tag_235\n      jumpi\n        /* \"XXX.sol\":3348:3349  0 */\n      0x00\n        /* \"XXX.sol\":3306:3333  _liquidityProvidedTimestamp */\n      0x0a\n        /* \"XXX.sol\":3306:3345  _liquidityProvidedTimestamp[msg.sender] */\n      0x00\n        /* \"XXX.sol\":3334:3344  msg.sender */\n      caller\n        /* \"XXX.sol\":3306:3345  _liquidityProvidedTimestamp[msg.sender] */\n      0xffffffffffffffffffffffffffffffffffffffff\n      and\n      0xffffffffffffffffffffffffffffffffffffffff\n      and\n      dup2\n      mstore\n      0x20\n      add\n      swap1\n      dup2\n      mstore\n      0x20\n      add\n      0x00\n      keccak256\n        /* \"XXX.sol\":3306:3349  _liquidityProvidedTimestamp[msg.sender] = 0 */\n      dup2\n      swap1\n      sstore\n      pop\n        /* \"XXX.sol\":3250:3453  if (_liquidityProvided[msg.sender] == 0) {... */\n      jump(tag_236)\n    tag_235:\n        /* \"XXX.sol\":3425:3440  block.timestamp */\n      timestamp\n        /* \"XXX.sol\":3383:3410  _liquidityProvidedTimestamp */\n      0x0a\n        /* \"XXX.sol\":3383:3422  _liquidityProvidedTimestamp[msg.sender] */\n      0x00\n        /* \"XXX.sol\":3411:3421  msg.sender */\n      caller\n        /* \"XXX.sol\":3383:3422  _liquidityProvidedTimestamp[msg.sender] */\n      0xffffffffffffffffffffffffffffffffffffffff\n      and\n      0xffffffffffffffffffffffffffffffffffffffff\n      and\n      dup2\n      mstore\n      0x20\n      add\n      swap1\n      dup2\n      mstore\n      0x20\n      add\n      0x00\n      keccak256\n        /* \"XXX.sol\":3383:3440  _liquidityProvidedTimestamp[msg.sender] = block.timestamp */\n      dup2\n      swap1\n      sstore\n      pop\n        /* \"XXX.sol\":3250:3453  if (_liquidityProvided[msg.sender] == 0) {... */\n    tag_236:\n        /* \"XXX.sol\":2718:3460  {... */\n      pop\n        /* \"contracts/security/ReentrancyGuard.sol\":2303:2323  _nonReentrantAfter() */\n      tag_237\n        /* \"contracts/security/ReentrancyGuard.sol\":2303:2321  _nonReentrantAfter */\n      tag_160\n        /* \"contracts/security/ReentrancyGuard.sol\":2303:2323  _nonReentrantAfter() */\n      jump\t// in\n    tag_237:\n        /* \"XXX.sol\":2642:3460  function removeLiquidityAndClaimRewards(uint256 amount) public nonReentrant {... */\n      pop\n      jump\t// out\n        /* \"XXX.sol\":389:413  uint256 public maxSupply */\n    tag_109:\n      sload(0x07)\n      dup2\n      jump\t// out\n        /* \"XXX.sol\":3468:3805  function calculateReward(address user) public view returns (uint256) {... */\n    tag_113:\n        /* \"XXX.sol\":3528:3535  uint256 */\n      0x00\n        /* \"XXX.sol\":3603:3610  30 days */\n      0x278d00\n        /* \"XXX.sol\":3567:3594  _liquidityProvidedTimestamp */\n      0x0a\n        /* \"XXX.sol\":3567:3600  _liquidityProvidedTimestamp[user] */\n      0x00\n        /* \"XXX.sol\":3595:3599  user */\n      dup5\n        /* \"XXX.sol\":3567:3600  _liquidityProvidedTimestamp[user] */\n      0xffffffffffffffffffffffffffffffffffffffff\n      and\n      0xffffffffffffffffffffffffffffffffffffffff\n      and\n      dup2\n      mstore\n      0x20\n      add\n      swap1\n      dup2\n      mstore\n      0x20\n      add\n      0x00\n      keccak256\n      sload\n        /* \"XXX.sol\":3567:3610  _liquidityProvidedTimestamp[user] + 30 days */\n      tag_239\n      swap2\n      swap1\n      tag_179\n      jump\t// in\n    tag_239:\n        /* \"XXX.sol\":3548:3563  block.timestamp */\n      timestamp\n        /* \"XXX.sol\":3548:3610  block.timestamp >= _liquidityProvidedTimestamp[user] + 30 days */\n      lt\n        /* \"XXX.sol\":3544:3783  if (block.timestamp >= _liquidityProvidedTimestamp[user] + 30 days) {... */\n      tag_240\n      jumpi\n        /* \"XXX.sol\":3623:3637  uint256 reward */\n      0x00\n        /* \"XXX.sol\":3673:3676  100 */\n      0x64\n        /* \"XXX.sol\":3668:3669  5 */\n      0x05\n        /* \"XXX.sol\":3641:3659  _liquidityProvided */\n      0x09\n        /* \"XXX.sol\":3641:3665  _liquidityProvided[user] */\n      0x00\n        /* \"XXX.sol\":3660:3664  user */\n      dup7\n        /* \"XXX.sol\":3641:3665  _liquidityProvided[user] */\n      0xffffffffffffffffffffffffffffffffffffffff\n      and\n      0xffffffffffffffffffffffffffffffffffffffff\n      and\n      dup2\n      mstore\n      0x20\n      add\n      swap1\n      dup2\n      mstore\n      0x20\n      add\n      0x00\n      keccak256\n      sload\n        /* \"XXX.sol\":3641:3669  _liquidityProvided[user] * 5 */\n      tag_241\n      swap2\n      swap1\n      tag_242\n      jump\t// in\n    tag_241:\n        /* \"XXX.sol\":3640:3676  (_liquidityProvided[user] * 5) / 100 */\n      tag_243\n      swap2\n      swap1\n      tag_244\n      jump\t// in\n    tag_243:\n        /* \"XXX.sol\":3623:3676  uint256 reward = (_liquidityProvided[user] * 5) / 100 */\n      swap1\n      pop\n        /* \"XXX.sol\":3725:3734  maxSupply */\n      sload(0x07)\n        /* \"XXX.sol\":3715:3721  reward */\n      dup2\n        /* \"XXX.sol\":3699:3712  totalSupply() */\n      tag_245\n        /* \"XXX.sol\":3699:3710  totalSupply */\n      tag_45\n        /* \"XXX.sol\":3699:3712  totalSupply() */\n      jump\t// in\n    tag_245:\n        /* \"XXX.sol\":3699:3721  totalSupply() + reward */\n      tag_246\n      swap2\n      swap1\n      tag_179\n      jump\t// in\n    tag_246:\n        /* \"XXX.sol\":3699:3734  totalSupply() + reward <= maxSupply */\n      gt\n        /* \"XXX.sol\":3695:3776  if (totalSupply() + reward <= maxSupply) {... */\n      tag_247\n      jumpi\n        /* \"XXX.sol\":3758:3764  reward */\n      dup1\n        /* \"XXX.sol\":3751:3764  return reward */\n      swap2\n      pop\n      pop\n      jump(tag_238)\n        /* \"XXX.sol\":3695:3776  if (totalSupply() + reward <= maxSupply) {... */\n    tag_247:\n        /* \"XXX.sol\":3612:3783  {... */\n      pop\n        /* \"XXX.sol\":3544:3783  if (block.timestamp >= _liquidityProvidedTimestamp[user] + 30 days) {... */\n    tag_240:\n        /* \"XXX.sol\":3796:3797  0 */\n      0x00\n        /* \"XXX.sol\":3789:3797  return 0 */\n      swap1\n      pop\n        /* \"XXX.sol\":3468:3805  function calculateReward(address user) public view returns (uint256) {... */\n    tag_238:\n      swap2\n      swap1\n      pop\n      jump\t// out\n        /* \"contracts/token/ERC20/ERC20.sol\":2794:2934  function allowance(address owner, address spender) public view virtual returns (uint256) {... */\n    tag_118:\n        /* \"contracts/token/ERC20/ERC20.sol\":2874:2881  uint256 */\n      0x00\n        /* \"contracts/token/ERC20/ERC20.sol\":2900:2911  _allowances */\n      0x01\n        /* \"contracts/token/ERC20/ERC20.sol\":2900:2918  _allowances[owner] */\n      0x00\n        /* \"contracts/token/ERC20/ERC20.sol\":2912:2917  owner */\n      dup5\n        /* \"contracts/token/ERC20/ERC20.sol\":2900:2918  _allowances[owner] */\n      0xffffffffffffffffffffffffffffffffffffffff\n      and\n      0xffffffffffffffffffffffffffffffffffffffff\n      and\n      dup2\n      mstore\n      0x20\n      add\n      swap1\n      dup2\n      mstore\n      0x20\n      add\n      0x00\n      keccak256\n        /* \"contracts/token/ERC20/ERC20.sol\":2900:2927  _allowances[owner][spender] */\n      0x00\n        /* \"contracts/token/ERC20/ERC20.sol\":2919:2926  spender */\n      dup4\n        /* \"contracts/token/ERC20/ERC20.sol\":2900:2927  _allowances[owner][spender] */\n      0xffffffffffffffffffffffffffffffffffffffff\n      and\n      0xffffffffffffffffffffffffffffffffffffffff\n      and\n      dup2\n      mstore\n      0x20\n      add\n      swap1\n      dup2\n      mstore\n      0x20\n      add\n      0x00\n      keccak256\n      sload\n        /* \"contracts/token/ERC20/ERC20.sol\":2893:2927  return _allowances[owner][spender] */\n      swap1\n      pop\n        /* \"contracts/token/ERC20/ERC20.sol\":2794:2934  function allowance(address owner, address spender) public view virtual returns (uint256) {... */\n      swap3\n      swap2\n      pop\n      pop\n      jump\t// out\n        /* \"contracts/access/Ownable.sol\":2543:2758  function transferOwnership(address newOwner) public virtual onlyOwner {... */\n    tag_122:\n        /* \"contracts/access/Ownable.sol\":1531:1544  _checkOwner() */\n      tag_250\n        /* \"contracts/access/Ownable.sol\":1531:1542  _checkOwner */\n      tag_138\n        /* \"contracts/access/Ownable.sol\":1531:1544  _checkOwner() */\n      jump\t// in\n    tag_250:\n        /* \"contracts/access/Ownable.sol\":2647:2648  0 */\n      0x00\n        /* \"contracts/access/Ownable.sol\":2627:2649  newOwner == address(0) */\n      0xffffffffffffffffffffffffffffffffffffffff\n      and\n        /* \"contracts/access/Ownable.sol\":2627:2635  newOwner */\n      dup2\n        /* \"contracts/access/Ownable.sol\":2627:2649  newOwner == address(0) */\n      0xffffffffffffffffffffffffffffffffffffffff\n      and\n      sub\n        /* \"contracts/access/Ownable.sol\":2623:2714  if (newOwner == address(0)) {... */\n      tag_252\n      jumpi\n        /* \"contracts/access/Ownable.sol\":2700:2701  0 */\n      0x00\n        /* \"contracts/access/Ownable.sol\":2672:2703  OwnableInvalidOwner(address(0)) */\n      mload(0x40)\n      0x1e4fbdf700000000000000000000000000000000000000000000000000000000\n      dup2\n      mstore\n      0x04\n      add\n      tag_253\n      swap2\n      swap1\n      tag_92\n      jump\t// in\n    tag_253:\n      mload(0x40)\n      dup1\n      swap2\n      sub\n      swap1\n      revert\n        /* \"contracts/access/Ownable.sol\":2623:2714  if (newOwner == address(0)) {... */\n    tag_252:\n        /* \"contracts/access/Ownable.sol\":2723:2751  _transferOwnership(newOwner) */\n      tag_254\n        /* \"contracts/access/Ownable.sol\":2742:2750  newOwner */\n      dup2\n        /* \"contracts/access/Ownable.sol\":2723:2741  _transferOwnership */\n      tag_186\n        /* \"contracts/access/Ownable.sol\":2723:2751  _transferOwnership(newOwner) */\n      jump\t// in\n    tag_254:\n        /* \"contracts/access/Ownable.sol\":2543:2758  function transferOwnership(address newOwner) public virtual onlyOwner {... */\n      pop\n      jump\t// out\n        /* \"contracts/utils/Context.sol\":656:752  function _msgSender() internal view virtual returns (address) {... */\n    tag_132:\n        /* \"contracts/utils/Context.sol\":709:716  address */\n      0x00\n        /* \"contracts/utils/Context.sol\":735:745  msg.sender */\n      caller\n        /* \"contracts/utils/Context.sol\":728:745  return msg.sender */\n      swap1\n      pop\n        /* \"contracts/utils/Context.sol\":656:752  function _msgSender() internal view virtual returns (address) {... */\n      swap1\n      jump\t// out\n        /* \"contracts/token/ERC20/ERC20.sol\":8090:8218  function _approve(address owner, address spender, uint256 value) internal {... */\n    tag_134:\n        /* \"contracts/token/ERC20/ERC20.sol\":8174:8211  _approve(owner, spender, value, true) */\n      tag_257\n        /* \"contracts/token/ERC20/ERC20.sol\":8183:8188  owner */\n      dup4\n        /* \"contracts/token/ERC20/ERC20.sol\":8190:8197  spender */\n      dup4\n        /* \"contracts/token/ERC20/ERC20.sol\":8199:8204  value */\n      dup4\n        /* \"contracts/token/ERC20/ERC20.sol\":8206:8210  true */\n      0x01\n        /* \"contracts/token/ERC20/ERC20.sol\":8174:8182  _approve */\n      tag_258\n        /* \"contracts/token/ERC20/ERC20.sol\":8174:8211  _approve(owner, spender, value, true) */\n      jump\t// in\n    tag_257:\n        /* \"contracts/token/ERC20/ERC20.sol\":8090:8218  function _approve(address owner, address spender, uint256 value) internal {... */\n      pop\n      pop\n      pop\n      jump\t// out\n        /* \"contracts/access/Ownable.sol\":1796:1958  function _checkOwner() internal view virtual {... */\n    tag_138:\n        /* \"contracts/access/Ownable.sol\":1866:1878  _msgSender() */\n      tag_260\n        /* \"contracts/access/Ownable.sol\":1866:1876  _msgSender */\n      tag_132\n        /* \"contracts/access/Ownable.sol\":1866:1878  _msgSender() */\n      jump\t// in\n    tag_260:\n        /* \"contracts/access/Ownable.sol\":1855:1878  owner() != _msgSender() */\n      0xffffffffffffffffffffffffffffffffffffffff\n      and\n        /* \"contracts/access/Ownable.sol\":1855:1862  owner() */\n      tag_261\n        /* \"contracts/access/Ownable.sol\":1855:1860  owner */\n      tag_90\n        /* \"contracts/access/Ownable.sol\":1855:1862  owner() */\n      jump\t// in\n    tag_261:\n        /* \"contracts/access/Ownable.sol\":1855:1878  owner() != _msgSender() */\n      0xffffffffffffffffffffffffffffffffffffffff\n      and\n      eq\n        /* \"contracts/access/Ownable.sol\":1851:1952  if (owner() != _msgSender()) {... */\n      tag_262\n      jumpi\n        /* \"contracts/access/Ownable.sol\":1928:1940  _msgSender() */\n      tag_263\n        /* \"contracts/access/Ownable.sol\":1928:1938  _msgSender */\n      tag_132\n        /* \"contracts/access/Ownable.sol\":1928:1940  _msgSender() */\n      jump\t// in\n    tag_263:\n        /* \"contracts/access/Ownable.sol\":1901:1941  OwnableUnauthorizedAccount(_msgSender()) */\n      mload(0x40)\n      0x118cdaa700000000000000000000000000000000000000000000000000000000\n      dup2\n      mstore\n      0x04\n      add\n      tag_264\n      swap2\n      swap1\n      tag_92\n      jump\t// in\n    tag_264:\n      mload(0x40)\n      dup1\n      swap2\n      sub\n      swap1\n      revert\n        /* \"contracts/access/Ownable.sol\":1851:1952  if (owner() != _msgSender()) {... */\n    tag_262:\n        /* \"contracts/access/Ownable.sol\":1796:1958  function _checkOwner() internal view virtual {... */\n      jump\t// out\n        /* \"contracts/security/ReentrancyGuard.sol\":2336:2623  function _nonReentrantBefore() private {... */\n    tag_144:\n        /* \"contracts/security/ReentrancyGuard.sol\":1759:1760  2 */\n      0x02\n        /* \"contracts/security/ReentrancyGuard.sol\":2468:2475  _status */\n      sload(0x06)\n        /* \"contracts/security/ReentrancyGuard.sol\":2468:2487  _status != _ENTERED */\n      sub\n        /* \"contracts/security/ReentrancyGuard.sol\":2460:2523  require(_status != _ENTERED, \"ReentrancyGuard: reentrant call\") */\n      tag_266\n      jumpi\n      mload(0x40)\n      0x08c379a000000000000000000000000000000000000000000000000000000000\n      dup2\n      mstore\n      0x04\n      add\n      tag_267\n      swap1\n      tag_268\n      jump\t// in\n    tag_267:\n      mload(0x40)\n      dup1\n      swap2\n      sub\n      swap1\n      revert\n    tag_266:\n        /* \"contracts/security/ReentrancyGuard.sol\":1759:1760  2 */\n      0x02\n        /* \"contracts/security/ReentrancyGuard.sol\":2598:2605  _status */\n      0x06\n        /* \"contracts/security/ReentrancyGuard.sol\":2598:2616  _status = _ENTERED */\n      dup2\n      swap1\n      sstore\n      pop\n        /* \"contracts/security/ReentrancyGuard.sol\":2336:2623  function _nonReentrantBefore() private {... */\n      jump\t// out\n        /* \"XXX.sol\":1770:2158  function _transfer(address sender, address recipient, uint256 amount) internal override circuitBreakerNotActive {... */\n    tag_158:\n        /* \"XXX.sol\":1482:1504  _circuitBreakerEnabled */\n      0x0b\n      0x00\n      swap1\n      sload\n      swap1\n      0x0100\n      exp\n      swap1\n      div\n      0xff\n      and\n        /* \"XXX.sol\":1481:1504  !_circuitBreakerEnabled */\n      iszero\n        /* \"XXX.sol\":1473:1534  require(!_circuitBreakerEnabled, \"Circuit breaker is active\") */\n      tag_270\n      jumpi\n      mload(0x40)\n      0x08c379a000000000000000000000000000000000000000000000000000000000\n      dup2\n      mstore\n      0x04\n      add\n      tag_271\n      swap1\n      tag_272\n      jump\t// in\n    tag_271:\n      mload(0x40)\n      dup1\n      swap2\n      sub\n      swap1\n      revert\n    tag_270:\n        /* \"XXX.sol\":1893:1911  uint256 burnAmount */\n      0x00\n        /* \"XXX.sol\":1923:1929  100000 */\n      0x0186a0\n        /* \"XXX.sol\":1914:1920  amount */\n      dup3\n        /* \"XXX.sol\":1914:1929  amount / 100000 */\n      tag_274\n      swap2\n      swap1\n      tag_244\n      jump\t// in\n    tag_274:\n        /* \"XXX.sol\":1893:1929  uint256 burnAmount = amount / 100000 */\n      swap1\n      pop\n        /* \"XXX.sol\":1940:1958  uint256 sendAmount */\n      0x00\n        /* \"XXX.sol\":1970:1980  burnAmount */\n      dup2\n        /* \"XXX.sol\":1961:1967  amount */\n      dup4\n        /* \"XXX.sol\":1961:1980  amount - burnAmount */\n      tag_275\n      swap2\n      swap1\n      tag_152\n      jump\t// in\n    tag_275:\n        /* \"XXX.sol\":1940:1980  uint256 sendAmount = amount - burnAmount */\n      swap1\n      pop\n        /* \"XXX.sol\":2022:2032  burnAmount */\n      dup2\n        /* \"XXX.sol\":2009:2019  sendAmount */\n      dup2\n        /* \"XXX.sol\":2009:2032  sendAmount + burnAmount */\n      tag_276\n      swap2\n      swap1\n      tag_179\n      jump\t// in\n    tag_276:\n        /* \"XXX.sol\":1999:2005  amount */\n      dup4\n        /* \"XXX.sol\":1999:2032  amount == sendAmount + burnAmount */\n      eq\n        /* \"XXX.sol\":1991:2055  require(amount == sendAmount + burnAmount, \"Burn value invalid\") */\n      tag_277\n      jumpi\n      mload(0x40)\n      0x08c379a000000000000000000000000000000000000000000000000000000000\n      dup2\n      mstore\n      0x04\n      add\n      tag_278\n      swap1\n      tag_279\n      jump\t// in\n    tag_278:\n      mload(0x40)\n      dup1\n      swap2\n      sub\n      swap1\n      revert\n    tag_277:\n        /* \"XXX.sol\":2068:2114  super._transfer(sender, recipient, sendAmount) */\n      tag_280\n        /* \"XXX.sol\":2084:2090  sender */\n      dup6\n        /* \"XXX.sol\":2092:2101  recipient */\n      dup6\n        /* \"XXX.sol\":2103:2113  sendAmount */\n      dup4\n        /* \"XXX.sol\":2068:2083  super._transfer */\n      tag_281\n        /* \"XXX.sol\":2068:2114  super._transfer(sender, recipient, sendAmount) */\n      jump\t// in\n    tag_280:\n        /* \"XXX.sol\":2125:2150  _burn(sender, burnAmount) */\n      tag_282\n        /* \"XXX.sol\":2131:2137  sender */\n      dup6\n        /* \"XXX.sol\":2139:2149  burnAmount */\n      dup4\n        /* \"XXX.sol\":2125:2130  _burn */\n      tag_175\n        /* \"XXX.sol\":2125:2150  _burn(sender, burnAmount) */\n      jump\t// in\n    tag_282:\n        /* \"XXX.sol\":1882:2158  {... */\n      pop\n      pop\n        /* \"XXX.sol\":1770:2158  function _transfer(address sender, address recipient, uint256 amount) internal override circuitBreakerNotActive {... */\n      pop\n      pop\n      pop\n      jump\t// out\n        /* \"contracts/security/ReentrancyGuard.sol\":2629:2838  function _nonReentrantAfter() private {... */\n    tag_160:\n        /* \"contracts/security/ReentrancyGuard.sol\":1716:1717  1 */\n      0x01\n        /* \"contracts/security/ReentrancyGuard.sol\":2809:2816  _status */\n      0x06\n        /* \"contracts/security/ReentrancyGuard.sol\":2809:2831  _status = _NOT_ENTERED */\n      dup2\n      swap1\n      sstore\n      pop\n        /* \"contracts/security/ReentrancyGuard.sol\":2629:2838  function _nonReentrantAfter() private {... */\n      jump\t// out\n        /* \"contracts/token/ERC20/ERC20.sol\":9764:10241  function _spendAllowance(address owner, address spender, uint256 value) internal virtual {... */\n    tag_164:\n        /* \"contracts/token/ERC20/ERC20.sol\":9863:9887  uint256 currentAllowance */\n      0x00\n        /* \"contracts/token/ERC20/ERC20.sol\":9890:9915  allowance(owner, spender) */\n      tag_285\n        /* \"contracts/token/ERC20/ERC20.sol\":9900:9905  owner */\n      dup5\n        /* \"contracts/token/ERC20/ERC20.sol\":9907:9914  spender */\n      dup5\n        /* \"contracts/token/ERC20/ERC20.sol\":9890:9899  allowance */\n      tag_118\n        /* \"contracts/token/ERC20/ERC20.sol\":9890:9915  allowance(owner, spender) */\n      jump\t// in\n    tag_285:\n        /* \"contracts/token/ERC20/ERC20.sol\":9863:9915  uint256 currentAllowance = allowance(owner, spender) */\n      swap1\n      pop\n        /* \"contracts/token/ERC20/ERC20.sol\":9949:9966  type(uint256).max */\n      0xffffffffffffffffffffffffffffffffffffffffffffffffffffffffffffffff\n        /* \"contracts/token/ERC20/ERC20.sol\":9929:9945  currentAllowance */\n      dup2\n        /* \"contracts/token/ERC20/ERC20.sol\":9929:9966  currentAllowance != type(uint256).max */\n      eq\n        /* \"contracts/token/ERC20/ERC20.sol\":9925:10235  if (currentAllowance != type(uint256).max) {... */\n      tag_286\n      jumpi\n        /* \"contracts/token/ERC20/ERC20.sol\":10005:10010  value */\n      dup2\n        /* \"contracts/token/ERC20/ERC20.sol\":9986:10002  currentAllowance */\n      dup2\n        /* \"contracts/token/ERC20/ERC20.sol\":9986:10010  currentAllowance < value */\n      lt\n        /* \"contracts/token/ERC20/ERC20.sol\":9982:10112  if (currentAllowance < value) {... */\n      iszero\n      tag_287\n      jumpi\n        /* \"contracts/token/ERC20/ERC20.sol\":10064:10071  spender */\n      dup3\n        /* \"contracts/token/ERC20/ERC20.sol\":10073:10089  currentAllowance */\n      dup2\n        /* \"contracts/token/ERC20/ERC20.sol\":10091:10096  value */\n      dup4\n        /* \"contracts/token/ERC20/ERC20.sol\":10037:10097  ERC20InsufficientAllowance(spender, currentAllowance, value) */\n      mload(0x40)\n      0xfb8f41b200000000000000000000000000000000000000000000000000000000\n      dup2\n      mstore\n      0x04\n      add\n      tag_288\n      swap4\n      swap3\n      swap2\n      swap1\n      tag_289\n      jump\t// in\n    tag_288:\n      mload(0x40)\n      dup1\n      swap2\n      sub\n      swap1\n      revert\n        /* \"contracts/token/ERC20/ERC20.sol\":9982:10112  if (currentAllowance < value) {... */\n    tag_287:\n        /* \"contracts/token/ERC20/ERC20.sol\":10153:10210  _approve(owner, spender, currentAllowance - value, false) */\n      tag_290\n        /* \"contracts/token/ERC20/ERC20.sol\":10162:10167  owner */\n      dup5\n        /* \"contracts/token/ERC20/ERC20.sol\":10169:10176  spender */\n      dup5\n        /* \"contracts/token/ERC20/ERC20.sol\":10197:10202  value */\n      dup5\n        /* \"contracts/token/ERC20/ERC20.sol\":10178:10194  currentAllowance */\n      dup5\n        /* \"contracts/token/ERC20/ERC20.sol\":10178:10202  currentAllowance - value */\n      sub\n        /* \"contracts/token/ERC20/ERC20.sol\":10204:10209  false */\n      0x00\n        /* \"contracts/token/ERC20/ERC20.sol\":10153:10161  _approve */\n      tag_258\n        /* \"contracts/token/ERC20/ERC20.sol\":10153:10210  _approve(owner, spender, currentAllowance - value, false) */\n      jump\t// in\n    tag_290:\n        /* \"contracts/token/ERC20/ERC20.sol\":9925:10235  if (currentAllowance != type(uint256).max) {... */\n    tag_286:\n        /* \"contracts/token/ERC20/ERC20.sol\":9853:10241  {... */\n      pop\n        /* \"contracts/token/ERC20/ERC20.sol\":9764:10241  function _spendAllowance(address owner, address spender, uint256 value) internal virtual {... */\n      pop\n      pop\n      pop\n      jump\t// out\n        /* \"contracts/security/Pausable.sol\":2433:2550  function _unpause() internal virtual whenPaused {... */\n    tag_171:\n        /* \"contracts/security/Pausable.sol\":1486:1502  _requirePaused() */\n      tag_292\n        /* \"contracts/security/Pausable.sol\":1486:1500  _requirePaused */\n      tag_293\n        /* \"contracts/security/Pausable.sol\":1486:1502  _requirePaused() */\n      jump\t// in\n    tag_292:\n        /* \"contracts/security/Pausable.sol\":2501:2506  false */\n      0x00\n        /* \"contracts/security/Pausable.sol\":2491:2498  _paused */\n      0x05\n      0x00\n        /* \"contracts/security/Pausable.sol\":2491:2506  _paused = false */\n      0x0100\n      exp\n      dup2\n      sload\n      dup2\n      0xff\n      mul\n      not\n      and\n      swap1\n      dup4\n      iszero\n      iszero\n      mul\n      or\n      swap1\n      sstore\n      pop\n        /* \"contracts/security/Pausable.sol\":2521:2543  Unpaused(_msgSender()) */\n      0x5db9ee0a495bf2e6ff9c91a7834c1ba4fdd244a5e8aa4e537bd38aeae4b073aa\n        /* \"contracts/security/Pausable.sol\":2530:2542  _msgSender() */\n      tag_295\n        /* \"contracts/security/Pausable.sol\":2530:2540  _msgSender */\n      tag_132\n        /* \"contracts/security/Pausable.sol\":2530:2542  _msgSender() */\n      jump\t// in\n    tag_295:\n        /* \"contracts/security/Pausable.sol\":2521:2543  Unpaused(_msgSender()) */\n      mload(0x40)\n      tag_296\n      swap2\n      swap1\n      tag_92\n      jump\t// in\n    tag_296:\n      mload(0x40)\n      dup1\n      swap2\n      sub\n      swap1\n      log1\n        /* \"contracts/security/Pausable.sol\":2433:2550  function _unpause() internal virtual whenPaused {... */\n      jump\t// out\n        /* \"contracts/token/ERC20/ERC20.sol\":7212:7418  function _burn(address account, uint256 value) internal {... */\n    tag_175:\n        /* \"contracts/token/ERC20/ERC20.sol\":7301:7302  0 */\n      0x00\n        /* \"contracts/token/ERC20/ERC20.sol\":7282:7303  account == address(0) */\n      0xffffffffffffffffffffffffffffffffffffffff\n      and\n        /* \"contracts/token/ERC20/ERC20.sol\":7282:7289  account */\n      dup3\n        /* \"contracts/token/ERC20/ERC20.sol\":7282:7303  account == address(0) */\n      0xffffffffffffffffffffffffffffffffffffffff\n      and\n      sub\n        /* \"contracts/token/ERC20/ERC20.sol\":7278:7367  if (account == address(0)) {... */\n      tag_298\n      jumpi\n        /* \"contracts/token/ERC20/ERC20.sol\":7353:7354  0 */\n      0x00\n        /* \"contracts/token/ERC20/ERC20.sol\":7326:7356  ERC20InvalidSender(address(0)) */\n      mload(0x40)\n      0x96c6fd1e00000000000000000000000000000000000000000000000000000000\n      dup2\n      mstore\n      0x04\n      add\n      tag_299\n      swap2\n      swap1\n      tag_92\n      jump\t// in\n    tag_299:\n      mload(0x40)\n      dup1\n      swap2\n      sub\n      swap1\n      revert\n        /* \"contracts/token/ERC20/ERC20.sol\":7278:7367  if (account == address(0)) {... */\n    tag_298:\n        /* \"contracts/token/ERC20/ERC20.sol\":7376:7411  _update(account, address(0), value) */\n      tag_300\n        /* \"contracts/token/ERC20/ERC20.sol\":7384:7391  account */\n      dup3\n        /* \"contracts/token/ERC20/ERC20.sol\":7401:7402  0 */\n      0x00\n        /* \"contracts/token/ERC20/ERC20.sol\":7405:7410  value */\n      dup4\n        /* \"contracts/token/ERC20/ERC20.sol\":7376:7383  _update */\n      tag_301\n        /* \"contracts/token/ERC20/ERC20.sol\":7376:7411  _update(account, address(0), value) */\n      jump\t// in\n    tag_300:\n        /* \"contracts/token/ERC20/ERC20.sol\":7212:7418  function _burn(address account, uint256 value) internal {... */\n      pop\n      pop\n      jump\t// out\n        /* \"contracts/access/Ownable.sol\":2912:3099  function _transferOwnership(address newOwner) internal virtual {... */\n    tag_186:\n        /* \"contracts/access/Ownable.sol\":2985:3001  address oldOwner */\n      0x00\n        /* \"contracts/access/Ownable.sol\":3004:3010  _owner */\n      0x05\n      0x01\n      swap1\n      sload\n      swap1\n      0x0100\n      exp\n      swap1\n      div\n      0xffffffffffffffffffffffffffffffffffffffff\n      and\n        /* \"contracts/access/Ownable.sol\":2985:3010  address oldOwner = _owner */\n      swap1\n      pop\n        /* \"contracts/access/Ownable.sol\":3029:3037  newOwner */\n      dup2\n        /* \"contracts/access/Ownable.sol\":3020:3026  _owner */\n      0x05\n      0x01\n        /* \"contracts/access/Ownable.sol\":3020:3037  _owner = newOwner */\n      0x0100\n      exp\n      dup2\n      sload\n      dup2\n      0xffffffffffffffffffffffffffffffffffffffff\n      mul\n      not\n      and\n      swap1\n      dup4\n      0xffffffffffffffffffffffffffffffffffffffff\n      and\n      mul\n      or\n      swap1\n      sstore\n      pop\n        /* \"contracts/access/Ownable.sol\":3083:3091  newOwner */\n      dup2\n        /* \"contracts/access/Ownable.sol\":3052:3092  OwnershipTransferred(oldOwner, newOwner) */\n      0xffffffffffffffffffffffffffffffffffffffff\n      and\n        /* \"contracts/access/Ownable.sol\":3073:3081  oldOwner */\n      dup2\n        /* \"contracts/access/Ownable.sol\":3052:3092  OwnershipTransferred(oldOwner, newOwner) */\n      0xffffffffffffffffffffffffffffffffffffffff\n      and\n      0x8be0079c531659141344cd1fd0a4f28419497f9722a3daafe3b4186f6b6457e0\n      mload(0x40)\n      mload(0x40)\n      dup1\n      swap2\n      sub\n      swap1\n      log3\n        /* \"contracts/access/Ownable.sol\":2975:3099  {... */\n      pop\n        /* \"contracts/access/Ownable.sol\":2912:3099  function _transferOwnership(address newOwner) internal virtual {... */\n      pop\n      jump\t// out\n        /* \"contracts/security/Pausable.sol\":2186:2301  function _pause() internal virtual whenNotPaused {... */\n    tag_195:\n        /* \"contracts/security/Pausable.sol\":1239:1258  _requireNotPaused() */\n      tag_304\n        /* \"contracts/security/Pausable.sol\":1239:1256  _requireNotPaused */\n      tag_305\n        /* \"contracts/security/Pausable.sol\":1239:1258  _requireNotPaused() */\n      jump\t// in\n    tag_304:\n        /* \"contracts/security/Pausable.sol\":2255:2259  true */\n      0x01\n        /* \"contracts/security/Pausable.sol\":2245:2252  _paused */\n      0x05\n      0x00\n        /* \"contracts/security/Pausable.sol\":2245:2259  _paused = true */\n      0x0100\n      exp\n      dup2\n      sload\n      dup2\n      0xff\n      mul\n      not\n      and\n      swap1\n      dup4\n      iszero\n      iszero\n      mul\n      or\n      swap1\n      sstore\n      pop\n        /* \"contracts/security/Pausable.sol\":2274:2294  Paused(_msgSender()) */\n      0x62e78cea01bee320cd4e420270b5ea74000d11b0c9f74754ebdbfc544b05a258\n        /* \"contracts/security/Pausable.sol\":2281:2293  _msgSender() */\n      tag_307\n        /* \"contracts/security/Pausable.sol\":2281:2291  _msgSender */\n      tag_132\n        /* \"contracts/security/Pausable.sol\":2281:2293  _msgSender() */\n      jump\t// in\n    tag_307:\n        /* \"contracts/security/Pausable.sol\":2274:2294  Paused(_msgSender()) */\n      mload(0x40)\n      tag_308\n      swap2\n      swap1\n      tag_92\n      jump\t// in\n    tag_308:\n      mload(0x40)\n      dup1\n      swap2\n      sub\n      swap1\n      log1\n        /* \"contracts/security/Pausable.sol\":2186:2301  function _pause() internal virtual whenNotPaused {... */\n      jump\t// out\n        /* \"contracts/token/ERC20/ERC20.sol\":6677:6894  function _mint(address account, uint256 value) internal virtual  {... */\n    tag_216:\n        /* \"contracts/token/ERC20/ERC20.sol\":6775:6776  0 */\n      0x00\n        /* \"contracts/token/ERC20/ERC20.sol\":6756:6777  account == address(0) */\n      0xffffffffffffffffffffffffffffffffffffffff\n      and\n        /* \"contracts/token/ERC20/ERC20.sol\":6756:6763  account */\n      dup3\n        /* \"contracts/token/ERC20/ERC20.sol\":6756:6777  account == address(0) */\n      0xffffffffffffffffffffffffffffffffffffffff\n      and\n      sub\n        /* \"contracts/token/ERC20/ERC20.sol\":6752:6843  if (account == address(0)) {... */\n      tag_310\n      jumpi\n        /* \"contracts/token/ERC20/ERC20.sol\":6829:6830  0 */\n      0x00\n        /* \"contracts/token/ERC20/ERC20.sol\":6800:6832  ERC20InvalidReceiver(address(0)) */\n      mload(0x40)\n      0xec442f0500000000000000000000000000000000000000000000000000000000\n      dup2\n      mstore\n      0x04\n      add\n      tag_311\n      swap2\n      swap1\n      tag_92\n      jump\t// in\n    tag_311:\n      mload(0x40)\n      dup1\n      swap2\n      sub\n      swap1\n      revert\n        /* \"contracts/token/ERC20/ERC20.sol\":6752:6843  if (account == address(0)) {... */\n    tag_310:\n        /* \"contracts/token/ERC20/ERC20.sol\":6852:6887  _update(address(0), account, value) */\n      tag_312\n        /* \"contracts/token/ERC20/ERC20.sol\":6868:6869  0 */\n      0x00\n        /* \"contracts/token/ERC20/ERC20.sol\":6872:6879  account */\n      dup4\n        /* \"contracts/token/ERC20/ERC20.sol\":6881:6886  value */\n      dup4\n        /* \"contracts/token/ERC20/ERC20.sol\":6852:6859  _update */\n      tag_301\n        /* \"contracts/token/ERC20/ERC20.sol\":6852:6887  _update(address(0), account, value) */\n      jump\t// in\n    tag_312:\n        /* \"contracts/token/ERC20/ERC20.sol\":6677:6894  function _mint(address account, uint256 value) internal virtual  {... */\n      pop\n      pop\n      jump\t// out\n        /* \"contracts/token/ERC20/ERC20.sol\":9050:9482  function _approve(address owner, address spender, uint256 value, bool emitEvent) internal virtual {... */\n    tag_258:\n        /* \"contracts/token/ERC20/ERC20.sol\":9179:9180  0 */\n      0x00\n        /* \"contracts/token/ERC20/ERC20.sol\":9162:9181  owner == address(0) */\n      0xffffffffffffffffffffffffffffffffffffffff\n      and\n        /* \"contracts/token/ERC20/ERC20.sol\":9162:9167  owner */\n      dup5\n        /* \"contracts/token/ERC20/ERC20.sol\":9162:9181  owner == address(0) */\n      0xffffffffffffffffffffffffffffffffffffffff\n      and\n      sub\n        /* \"contracts/token/ERC20/ERC20.sol\":9158:9247  if (owner == address(0)) {... */\n      tag_314\n      jumpi\n        /* \"contracts/token/ERC20/ERC20.sol\":9233:9234  0 */\n      0x00\n        /* \"contracts/token/ERC20/ERC20.sol\":9204:9236  ERC20InvalidApprover(address(0)) */\n      mload(0x40)\n      0xe602df0500000000000000000000000000000000000000000000000000000000\n      dup2\n      mstore\n      0x04\n      add\n      tag_315\n      swap2\n      swap1\n      tag_92\n      jump\t// in\n    tag_315:\n      mload(0x40)\n      dup1\n      swap2\n      sub\n      swap1\n      revert\n        /* \"contracts/token/ERC20/ERC20.sol\":9158:9247  if (owner == address(0)) {... */\n    tag_314:\n        /* \"contracts/token/ERC20/ERC20.sol\":9279:9280  0 */\n      0x00\n        /* \"contracts/token/ERC20/ERC20.sol\":9260:9281  spender == address(0) */\n      0xffffffffffffffffffffffffffffffffffffffff\n      and\n        /* \"contracts/token/ERC20/ERC20.sol\":9260:9267  spender */\n      dup4\n        /* \"contracts/token/ERC20/ERC20.sol\":9260:9281  spender == address(0) */\n      0xffffffffffffffffffffffffffffffffffffffff\n      and\n      sub\n        /* \"contracts/token/ERC20/ERC20.sol\":9256:9346  if (spender == address(0)) {... */\n      tag_316\n      jumpi\n        /* \"contracts/token/ERC20/ERC20.sol\":9332:9333  0 */\n      0x00\n        /* \"contracts/token/ERC20/ERC20.sol\":9304:9335  ERC20InvalidSpender(address(0)) */\n      mload(0x40)\n      0x94280d6200000000000000000000000000000000000000000000000000000000\n      dup2\n      mstore\n      0x04\n      add\n      tag_317\n      swap2\n      swap1\n      tag_92\n      jump\t// in\n    tag_317:\n      mload(0x40)\n      dup1\n      swap2\n      sub\n      swap1\n      revert\n        /* \"contracts/token/ERC20/ERC20.sol\":9256:9346  if (spender == address(0)) {... */\n    tag_316:\n        /* \"contracts/token/ERC20/ERC20.sol\":9385:9390  value */\n      dup2\n        /* \"contracts/token/ERC20/ERC20.sol\":9355:9366  _allowances */\n      0x01\n        /* \"contracts/token/ERC20/ERC20.sol\":9355:9373  _allowances[owner] */\n      0x00\n        /* \"contracts/token/ERC20/ERC20.sol\":9367:9372  owner */\n      dup7\n        /* \"contracts/token/ERC20/ERC20.sol\":9355:9373  _allowances[owner] */\n      0xffffffffffffffffffffffffffffffffffffffff\n      and\n      0xffffffffffffffffffffffffffffffffffffffff\n      and\n      dup2\n      mstore\n      0x20\n      add\n      swap1\n      dup2\n      mstore\n      0x20\n      add\n      0x00\n      keccak256\n        /* \"contracts/token/ERC20/ERC20.sol\":9355:9382  _allowances[owner][spender] */\n      0x00\n        /* \"contracts/token/ERC20/ERC20.sol\":9374:9381  spender */\n      dup6\n        /* \"contracts/token/ERC20/ERC20.sol\":9355:9382  _allowances[owner][spender] */\n      0xffffffffffffffffffffffffffffffffffffffff\n      and\n      0xffffffffffffffffffffffffffffffffffffffff\n      and\n      dup2\n      mstore\n      0x20\n      add\n      swap1\n      dup2\n      mstore\n      0x20\n      add\n      0x00\n      keccak256\n        /* \"contracts/token/ERC20/ERC20.sol\":9355:9390  _allowances[owner][spender] = value */\n      dup2\n      swap1\n      sstore\n      pop\n        /* \"contracts/token/ERC20/ERC20.sol\":9404:9413  emitEvent */\n      dup1\n        /* \"contracts/token/ERC20/ERC20.sol\":9400:9476  if (emitEvent) {... */\n      iszero\n      tag_318\n      jumpi\n        /* \"contracts/token/ERC20/ERC20.sol\":9450:9457  spender */\n      dup3\n        /* \"contracts/token/ERC20/ERC20.sol\":9434:9465  Approval(owner, spender, value) */\n      0xffffffffffffffffffffffffffffffffffffffff\n      and\n        /* \"contracts/token/ERC20/ERC20.sol\":9443:9448  owner */\n      dup5\n        /* \"contracts/token/ERC20/ERC20.sol\":9434:9465  Approval(owner, spender, value) */\n      0xffffffffffffffffffffffffffffffffffffffff\n      and\n      0x8c5be1e5ebec7d5bd14f71427d1e84f3dd0314c0f7b2291e5b200ac8c7c3b925\n        /* \"contracts/token/ERC20/ERC20.sol\":9459:9464  value */\n      dup5\n        /* \"contracts/token/ERC20/ERC20.sol\":9434:9465  Approval(owner, spender, value) */\n      mload(0x40)\n      tag_319\n      swap2\n      swap1\n      tag_47\n      jump\t// in\n    tag_319:\n      mload(0x40)\n      dup1\n      swap2\n      sub\n      swap1\n      log3\n        /* \"contracts/token/ERC20/ERC20.sol\":9400:9476  if (emitEvent) {... */\n    tag_318:\n        /* \"contracts/token/ERC20/ERC20.sol\":9050:9482  function _approve(address owner, address spender, uint256 value, bool emitEvent) internal virtual {... */\n      pop\n      pop\n      pop\n      pop\n      jump\t// out\n        /* \"contracts/token/ERC20/ERC20.sol\":4604:4912  function _transfer(address from, address to, uint256 value) internal virtual {... */\n    tag_281:\n        /* \"contracts/token/ERC20/ERC20.sol\":4711:4712  0 */\n      0x00\n        /* \"contracts/token/ERC20/ERC20.sol\":4695:4713  from == address(0) */\n      0xffffffffffffffffffffffffffffffffffffffff\n      and\n        /* \"contracts/token/ERC20/ERC20.sol\":4695:4699  from */\n      dup4\n        /* \"contracts/token/ERC20/ERC20.sol\":4695:4713  from == address(0) */\n      0xffffffffffffffffffffffffffffffffffffffff\n      and\n      sub\n        /* \"contracts/token/ERC20/ERC20.sol\":4691:4777  if (from == address(0)) {... */\n      tag_321\n      jumpi\n        /* \"contracts/token/ERC20/ERC20.sol\":4763:4764  0 */\n      0x00\n        /* \"contracts/token/ERC20/ERC20.sol\":4736:4766  ERC20InvalidSender(address(0)) */\n      mload(0x40)\n      0x96c6fd1e00000000000000000000000000000000000000000000000000000000\n      dup2\n      mstore\n      0x04\n      add\n      tag_322\n      swap2\n      swap1\n      tag_92\n      jump\t// in\n    tag_322:\n      mload(0x40)\n      dup1\n      swap2\n      sub\n      swap1\n      revert\n        /* \"contracts/token/ERC20/ERC20.sol\":4691:4777  if (from == address(0)) {... */\n    tag_321:\n        /* \"contracts/token/ERC20/ERC20.sol\":4804:4805  0 */\n      0x00\n        /* \"contracts/token/ERC20/ERC20.sol\":4790:4806  to == address(0) */\n      0xffffffffffffffffffffffffffffffffffffffff\n      and\n        /* \"contracts/token/ERC20/ERC20.sol\":4790:4792  to */\n      dup3\n        /* \"contracts/token/ERC20/ERC20.sol\":4790:4806  to == address(0) */\n      0xffffffffffffffffffffffffffffffffffffffff\n      and\n      sub\n        /* \"contracts/token/ERC20/ERC20.sol\":4786:4872  if (to == address(0)) {... */\n      tag_323\n      jumpi\n        /* \"contracts/token/ERC20/ERC20.sol\":4858:4859  0 */\n      0x00\n        /* \"contracts/token/ERC20/ERC20.sol\":4829:4861  ERC20InvalidReceiver(address(0)) */\n      mload(0x40)\n      0xec442f0500000000000000000000000000000000000000000000000000000000\n      dup2\n      mstore\n      0x04\n      add\n      tag_324\n      swap2\n      swap1\n      tag_92\n      jump\t// in\n    tag_324:\n      mload(0x40)\n      dup1\n      swap2\n      sub\n      swap1\n      revert\n        /* \"contracts/token/ERC20/ERC20.sol\":4786:4872  if (to == address(0)) {... */\n    tag_323:\n        /* \"contracts/token/ERC20/ERC20.sol\":4881:4905  _update(from, to, value) */\n      tag_325\n        /* \"contracts/token/ERC20/ERC20.sol\":4889:4893  from */\n      dup4\n        /* \"contracts/token/ERC20/ERC20.sol\":4895:4897  to */\n      dup4\n        /* \"contracts/token/ERC20/ERC20.sol\":4899:4904  value */\n      dup4\n        /* \"contracts/token/ERC20/ERC20.sol\":4881:4888  _update */\n      tag_301\n        /* \"contracts/token/ERC20/ERC20.sol\":4881:4905  _update(from, to, value) */\n      jump\t// in\n    tag_325:\n        /* \"contracts/token/ERC20/ERC20.sol\":4604:4912  function _transfer(address from, address to, uint256 value) internal virtual {... */\n      pop\n      pop\n      pop\n      jump\t// out\n        /* \"contracts/security/Pausable.sol\":1945:2051  function _requirePaused() internal view virtual {... */\n    tag_293:\n        /* \"contracts/security/Pausable.sol\":2011:2019  paused() */\n      tag_327\n        /* \"contracts/security/Pausable.sol\":2011:2017  paused */\n      tag_75\n        /* \"contracts/security/Pausable.sol\":2011:2019  paused() */\n      jump\t// in\n    tag_327:\n        /* \"contracts/security/Pausable.sol\":2003:2044  require(paused(), \"Pausable: not paused\") */\n      tag_328\n      jumpi\n      mload(0x40)\n      0x08c379a000000000000000000000000000000000000000000000000000000000\n      dup2\n      mstore\n      0x04\n      add\n      tag_329\n      swap1\n      tag_330\n      jump\t// in\n    tag_329:\n      mload(0x40)\n      dup1\n      swap2\n      sub\n      swap1\n      revert\n    tag_328:\n        /* \"contracts/security/Pausable.sol\":1945:2051  function _requirePaused() internal view virtual {... */\n      jump\t// out\n        /* \"contracts/token/ERC20/ERC20.sol\":5227:6334  function _update(address from, address to, uint256 value) internal virtual {... */\n    tag_301:\n        /* \"contracts/token/ERC20/ERC20.sol\":5332:5333  0 */\n      0x00\n        /* \"contracts/token/ERC20/ERC20.sol\":5316:5334  from == address(0) */\n      0xffffffffffffffffffffffffffffffffffffffff\n      and\n        /* \"contracts/token/ERC20/ERC20.sol\":5316:5320  from */\n      dup4\n        /* \"contracts/token/ERC20/ERC20.sol\":5316:5334  from == address(0) */\n      0xffffffffffffffffffffffffffffffffffffffff\n      and\n      sub\n        /* \"contracts/token/ERC20/ERC20.sol\":5312:5852  if (from == address(0)) {... */\n      tag_332\n      jumpi\n        /* \"contracts/token/ERC20/ERC20.sol\":5468:5473  value */\n      dup1\n        /* \"contracts/token/ERC20/ERC20.sol\":5452:5464  _totalSupply */\n      0x02\n      0x00\n        /* \"contracts/token/ERC20/ERC20.sol\":5452:5473  _totalSupply += value */\n      dup3\n      dup3\n      sload\n      tag_333\n      swap2\n      swap1\n      tag_179\n      jump\t// in\n    tag_333:\n      swap3\n      pop\n      pop\n      dup2\n      swap1\n      sstore\n      pop\n        /* \"contracts/token/ERC20/ERC20.sol\":5312:5852  if (from == address(0)) {... */\n      jump(tag_334)\n    tag_332:\n        /* \"contracts/token/ERC20/ERC20.sol\":5504:5523  uint256 fromBalance */\n      0x00\n        /* \"contracts/token/ERC20/ERC20.sol\":5526:5535  _balances */\n      dup1\n        /* \"contracts/token/ERC20/ERC20.sol\":5526:5541  _balances[from] */\n      0x00\n        /* \"contracts/token/ERC20/ERC20.sol\":5536:5540  from */\n      dup6\n        /* \"contracts/token/ERC20/ERC20.sol\":5526:5541  _balances[from] */\n      0xffffffffffffffffffffffffffffffffffffffff\n      and\n      0xffffffffffffffffffffffffffffffffffffffff\n      and\n      dup2\n      mstore\n      0x20\n      add\n      swap1\n      dup2\n      mstore\n      0x20\n      add\n      0x00\n      keccak256\n      sload\n        /* \"contracts/token/ERC20/ERC20.sol\":5504:5541  uint256 fromBalance = _balances[from] */\n      swap1\n      pop\n        /* \"contracts/token/ERC20/ERC20.sol\":5573:5578  value */\n      dup2\n        /* \"contracts/token/ERC20/ERC20.sol\":5559:5570  fromBalance */\n      dup2\n        /* \"contracts/token/ERC20/ERC20.sol\":5559:5578  fromBalance < value */\n      lt\n        /* \"contracts/token/ERC20/ERC20.sol\":5555:5670  if (fromBalance < value) {... */\n      iszero\n      tag_335\n      jumpi\n        /* \"contracts/token/ERC20/ERC20.sol\":5630:5634  from */\n      dup4\n        /* \"contracts/token/ERC20/ERC20.sol\":5636:5647  fromBalance */\n      dup2\n        /* \"contracts/token/ERC20/ERC20.sol\":5649:5654  value */\n      dup4\n        /* \"contracts/token/ERC20/ERC20.sol\":5605:5655  ERC20InsufficientBalance(from, fromBalance, value) */\n      mload(0x40)\n      0xe450d38c00000000000000000000000000000000000000000000000000000000\n      dup2\n      mstore\n      0x04\n      add\n      tag_336\n      swap4\n      swap3\n      swap2\n      swap1\n      tag_289\n      jump\t// in\n    tag_336:\n      mload(0x40)\n      dup1\n      swap2\n      sub\n      swap1\n      revert\n        /* \"contracts/token/ERC20/ERC20.sol\":5555:5670  if (fromBalance < value) {... */\n    tag_335:\n        /* \"contracts/token/ERC20/ERC20.sol\":5822:5827  value */\n      dup2\n        /* \"contracts/token/ERC20/ERC20.sol\":5808:5819  fromBalance */\n      dup2\n        /* \"contracts/token/ERC20/ERC20.sol\":5808:5827  fromBalance - value */\n      sub\n        /* \"contracts/token/ERC20/ERC20.sol\":5790:5799  _balances */\n      0x00\n        /* \"contracts/token/ERC20/ERC20.sol\":5790:5805  _balances[from] */\n      dup1\n        /* \"contracts/token/ERC20/ERC20.sol\":5800:5804  from */\n      dup7\n        /* \"contracts/token/ERC20/ERC20.sol\":5790:5805  _balances[from] */\n      0xffffffffffffffffffffffffffffffffffffffff\n      and\n      0xffffffffffffffffffffffffffffffffffffffff\n      and\n      dup2\n      mstore\n      0x20\n      add\n      swap1\n      dup2\n      mstore\n      0x20\n      add\n      0x00\n      keccak256\n        /* \"contracts/token/ERC20/ERC20.sol\":5790:5827  _balances[from] = fromBalance - value */\n      dup2\n      swap1\n      sstore\n      pop\n        /* \"contracts/token/ERC20/ERC20.sol\":5490:5852  {... */\n      pop\n        /* \"contracts/token/ERC20/ERC20.sol\":5312:5852  if (from == address(0)) {... */\n    tag_334:\n        /* \"contracts/token/ERC20/ERC20.sol\":5880:5881  0 */\n      0x00\n        /* \"contracts/token/ERC20/ERC20.sol\":5866:5882  to == address(0) */\n      0xffffffffffffffffffffffffffffffffffffffff\n      and\n        /* \"contracts/token/ERC20/ERC20.sol\":5866:5868  to */\n      dup3\n        /* \"contracts/token/ERC20/ERC20.sol\":5866:5882  to == address(0) */\n      0xffffffffffffffffffffffffffffffffffffffff\n      and\n      sub\n        /* \"contracts/token/ERC20/ERC20.sol\":5862:6287  if (to == address(0)) {... */\n      tag_337\n      jumpi\n        /* \"contracts/token/ERC20/ERC20.sol\":6045:6050  value */\n      dup1\n        /* \"contracts/token/ERC20/ERC20.sol\":6029:6041  _totalSupply */\n      0x02\n      0x00\n        /* \"contracts/token/ERC20/ERC20.sol\":6029:6050  _totalSupply -= value */\n      dup3\n      dup3\n      sload\n      sub\n      swap3\n      pop\n      pop\n      dup2\n      swap1\n      sstore\n      pop\n        /* \"contracts/token/ERC20/ERC20.sol\":5862:6287  if (to == address(0)) {... */\n      jump(tag_338)\n    tag_337:\n        /* \"contracts/token/ERC20/ERC20.sol\":6257:6262  value */\n      dup1\n        /* \"contracts/token/ERC20/ERC20.sol\":6240:6249  _balances */\n      0x00\n        /* \"contracts/token/ERC20/ERC20.sol\":6240:6253  _balances[to] */\n      dup1\n        /* \"contracts/token/ERC20/ERC20.sol\":6250:6252  to */\n      dup5\n        /* \"contracts/token/ERC20/ERC20.sol\":6240:6253  _balances[to] */\n      0xffffffffffffffffffffffffffffffffffffffff\n      and\n      0xffffffffffffffffffffffffffffffffffffffff\n      and\n      dup2\n      mstore\n      0x20\n      add\n      swap1\n      dup2\n      mstore\n      0x20\n      add\n      0x00\n      keccak256\n      0x00\n        /* \"contracts/token/ERC20/ERC20.sol\":6240:6262  _balances[to] += value */\n      dup3\n      dup3\n      sload\n      add\n      swap3\n      pop\n      pop\n      dup2\n      swap1\n      sstore\n      pop\n        /* \"contracts/token/ERC20/ERC20.sol\":5862:6287  if (to == address(0)) {... */\n    tag_338:\n        /* \"contracts/token/ERC20/ERC20.sol\":6317:6319  to */\n      dup2\n        /* \"contracts/token/ERC20/ERC20.sol\":6302:6327  Transfer(from, to, value) */\n      0xffffffffffffffffffffffffffffffffffffffff\n      and\n        /* \"contracts/token/ERC20/ERC20.sol\":6311:6315  from */\n      dup4\n        /* \"contracts/token/ERC20/ERC20.sol\":6302:6327  Transfer(from, to, value) */\n      0xffffffffffffffffffffffffffffffffffffffff\n      and\n      0xddf252ad1be2c89b69c2b068fc378daa952ba7f163c4a11628f55a4df523b3ef\n        /* \"contracts/token/ERC20/ERC20.sol\":6321:6326  value */\n      dup4\n        /* \"contracts/token/ERC20/ERC20.sol\":6302:6327  Transfer(from, to, value) */\n      mload(0x40)\n      tag_339\n      swap2\n      swap1\n      tag_47\n      jump\t// in\n    tag_339:\n      mload(0x40)\n      dup1\n      swap2\n      sub\n      swap1\n      log3\n        /* \"contracts/token/ERC20/ERC20.sol\":5227:6334  function _update(address from, address to, uint256 value) internal virtual {... */\n      pop\n      pop\n      pop\n      jump\t// out\n        /* \"contracts/security/Pausable.sol\":1767:1873  function _requireNotPaused() internal view virtual {... */\n    tag_305:\n        /* \"contracts/security/Pausable.sol\":1837:1845  paused() */\n      tag_341\n        /* \"contracts/security/Pausable.sol\":1837:1843  paused */\n      tag_75\n        /* \"contracts/security/Pausable.sol\":1837:1845  paused() */\n      jump\t// in\n    tag_341:\n        /* \"contracts/security/Pausable.sol\":1836:1845  !paused() */\n      iszero\n        /* \"contracts/security/Pausable.sol\":1828:1866  require(!paused(), \"Pausable: paused\") */\n      tag_342\n      jumpi\n      mload(0x40)\n      0x08c379a000000000000000000000000000000000000000000000000000000000\n      dup2\n      mstore\n      0x04\n      add\n      tag_343\n      swap1\n      tag_344\n      jump\t// in\n    tag_343:\n      mload(0x40)\n      dup1\n      swap2\n      sub\n      swap1\n      revert\n    tag_342:\n        /* \"contracts/security/Pausable.sol\":1767:1873  function _requireNotPaused() internal view virtual {... */\n      jump\t// out\n        /* \"#utility.yul\":7:106   */\n    tag_345:\n        /* \"#utility.yul\":59:65   */\n      0x00\n        /* \"#utility.yul\":93:98   */\n      dup2\n        /* \"#utility.yul\":87:99   */\n      mload\n        /* \"#utility.yul\":77:99   */\n      swap1\n      pop\n        /* \"#utility.yul\":7:106   */\n      swap2\n      swap1\n      pop\n      jump\t// out\n        /* \"#utility.yul\":112:281   */\n    tag_346:\n        /* \"#utility.yul\":196:207   */\n      0x00\n        /* \"#utility.yul\":230:236   */\n      dup3\n        /* \"#utility.yul\":225:228   */\n      dup3\n        /* \"#utility.yul\":218:237   */\n      mstore\n        /* \"#utility.yul\":270:274   */\n      0x20\n        /* \"#utility.yul\":265:268   */\n      dup3\n        /* \"#utility.yul\":261:275   */\n      add\n        /* \"#utility.yul\":246:275   */\n      swap1\n      pop\n        /* \"#utility.yul\":112:281   */\n      swap3\n      swap2\n      pop\n      pop\n      jump\t// out\n        /* \"#utility.yul\":287:426   */\n    tag_347:\n        /* \"#utility.yul\":376:382   */\n      dup3\n        /* \"#utility.yul\":371:374   */\n      dup2\n        /* \"#utility.yul\":366:369   */\n      dup4\n        /* \"#utility.yul\":360:383   */\n      mcopy\n        /* \"#utility.yul\":417:418   */\n      0x00\n        /* \"#utility.yul\":408:414   */\n      dup4\n        /* \"#utility.yul\":403:406   */\n      dup4\n        /* \"#utility.yul\":399:415   */\n      add\n        /* \"#utility.yul\":392:419   */\n      mstore\n        /* \"#utility.yul\":287:426   */\n      pop\n      pop\n      pop\n      jump\t// out\n        /* \"#utility.yul\":432:534   */\n    tag_348:\n        /* \"#utility.yul\":473:479   */\n      0x00\n        /* \"#utility.yul\":524:526   */\n      0x1f\n        /* \"#utility.yul\":520:527   */\n      not\n        /* \"#utility.yul\":515:517   */\n      0x1f\n        /* \"#utility.yul\":508:513   */\n      dup4\n        /* \"#utility.yul\":504:518   */\n      add\n        /* \"#utility.yul\":500:528   */\n      and\n        /* \"#utility.yul\":490:528   */\n      swap1\n      pop\n        /* \"#utility.yul\":432:534   */\n      swap2\n      swap1\n      pop\n      jump\t// out\n        /* \"#utility.yul\":540:917   */\n    tag_349:\n        /* \"#utility.yul\":628:631   */\n      0x00\n        /* \"#utility.yul\":656:695   */\n      tag_391\n        /* \"#utility.yul\":689:694   */\n      dup3\n        /* \"#utility.yul\":656:695   */\n      tag_345\n      jump\t// in\n    tag_391:\n        /* \"#utility.yul\":711:782   */\n      tag_392\n        /* \"#utility.yul\":775:781   */\n      dup2\n        /* \"#utility.yul\":770:773   */\n      dup6\n        /* \"#utility.yul\":711:782   */\n      tag_346\n      jump\t// in\n    tag_392:\n        /* \"#utility.yul\":704:782   */\n      swap4\n      pop\n        /* \"#utility.yul\":791:856   */\n      tag_393\n        /* \"#utility.yul\":849:855   */\n      dup2\n        /* \"#utility.yul\":844:847   */\n      dup6\n        /* \"#utility.yul\":837:841   */\n      0x20\n        /* \"#utility.yul\":830:835   */\n      dup7\n        /* \"#utility.yul\":826:842   */\n      add\n        /* \"#utility.yul\":791:856   */\n      tag_347\n      jump\t// in\n    tag_393:\n        /* \"#utility.yul\":881:910   */\n      tag_394\n        /* \"#utility.yul\":903:909   */\n      dup2\n        /* \"#utility.yul\":881:910   */\n      tag_348\n      jump\t// in\n    tag_394:\n        /* \"#utility.yul\":876:879   */\n      dup5\n        /* \"#utility.yul\":872:911   */\n      add\n        /* \"#utility.yul\":865:911   */\n      swap2\n      pop\n        /* \"#utility.yul\":632:917   */\n      pop\n        /* \"#utility.yul\":540:917   */\n      swap3\n      swap2\n      pop\n      pop\n      jump\t// out\n        /* \"#utility.yul\":923:1236   */\n    tag_37:\n        /* \"#utility.yul\":1036:1040   */\n      0x00\n        /* \"#utility.yul\":1074:1076   */\n      0x20\n        /* \"#utility.yul\":1063:1072   */\n      dup3\n        /* \"#utility.yul\":1059:1077   */\n      add\n        /* \"#utility.yul\":1051:1077   */\n      swap1\n      pop\n        /* \"#utility.yul\":1123:1132   */\n      dup2\n        /* \"#utility.yul\":1117:1121   */\n      dup2\n        /* \"#utility.yul\":1113:1133   */\n      sub\n        /* \"#utility.yul\":1109:1110   */\n      0x00\n        /* \"#utility.yul\":1098:1107   */\n      dup4\n        /* \"#utility.yul\":1094:1111   */\n      add\n        /* \"#utility.yul\":1087:1134   */\n      mstore\n        /* \"#utility.yul\":1151:1229   */\n      tag_396\n        /* \"#utility.yul\":1224:1228   */\n      dup2\n        /* \"#utility.yul\":1215:1221   */\n      dup5\n        /* \"#utility.yul\":1151:1229   */\n      tag_349\n      jump\t// in\n    tag_396:\n        /* \"#utility.yul\":1143:1229   */\n      swap1\n      pop\n        /* \"#utility.yul\":923:1236   */\n      swap3\n      swap2\n      pop\n      pop\n      jump\t// out\n        /* \"#utility.yul\":1323:1440   */\n    tag_351:\n        /* \"#utility.yul\":1432:1433   */\n      0x00\n        /* \"#utility.yul\":1429:1430   */\n      dup1\n        /* \"#utility.yul\":1422:1434   */\n      revert\n        /* \"#utility.yul\":1569:1695   */\n    tag_353:\n        /* \"#utility.yul\":1606:1613   */\n      0x00\n        /* \"#utility.yul\":1646:1688   */\n      0xffffffffffffffffffffffffffffffffffffffff\n        /* \"#utility.yul\":1639:1644   */\n      dup3\n        /* \"#utility.yul\":1635:1689   */\n      and\n        /* \"#utility.yul\":1624:1689   */\n      swap1\n      pop\n        /* \"#utility.yul\":1569:1695   */\n      swap2\n      swap1\n      pop\n      jump\t// out\n        /* \"#utility.yul\":1701:1797   */\n    tag_354:\n        /* \"#utility.yul\":1738:1745   */\n      0x00\n        /* \"#utility.yul\":1767:1791   */\n      tag_402\n        /* \"#utility.yul\":1785:1790   */\n      dup3\n        /* \"#utility.yul\":1767:1791   */\n      tag_353\n      jump\t// in\n    tag_402:\n        /* \"#utility.yul\":1756:1791   */\n      swap1\n      pop\n        /* \"#utility.yul\":1701:1797   */\n      swap2\n      swap1\n      pop\n      jump\t// out\n        /* \"#utility.yul\":1803:1925   */\n    tag_355:\n        /* \"#utility.yul\":1876:1900   */\n      tag_404\n        /* \"#utility.yul\":1894:1899   */\n      dup2\n        /* \"#utility.yul\":1876:1900   */\n      tag_354\n      jump\t// in\n    tag_404:\n        /* \"#utility.yul\":1869:1874   */\n      dup2\n        /* \"#utility.yul\":1866:1901   */\n      eq\n        /* \"#utility.yul\":1856:1919   */\n      tag_405\n      jumpi\n        /* \"#utility.yul\":1915:1916   */\n      0x00\n        /* \"#utility.yul\":1912:1913   */\n      dup1\n        /* \"#utility.yul\":1905:1917   */\n      revert\n        /* \"#utility.yul\":1856:1919   */\n    tag_405:\n        /* \"#utility.yul\":1803:1925   */\n      pop\n      jump\t// out\n        /* \"#utility.yul\":1931:2070   */\n    tag_356:\n        /* \"#utility.yul\":1977:1982   */\n      0x00\n        /* \"#utility.yul\":2015:2021   */\n      dup2\n        /* \"#utility.yul\":2002:2022   */\n      calldataload\n        /* \"#utility.yul\":1993:2022   */\n      swap1\n      pop\n        /* \"#utility.yul\":2031:2064   */\n      tag_407\n        /* \"#utility.yul\":2058:2063   */\n      dup2\n        /* \"#utility.yul\":2031:2064   */\n      tag_355\n      jump\t// in\n    tag_407:\n        /* \"#utility.yul\":1931:2070   */\n      swap3\n      swap2\n      pop\n      pop\n      jump\t// out\n        /* \"#utility.yul\":2076:2153   */\n    tag_357:\n        /* \"#utility.yul\":2113:2120   */\n      0x00\n        /* \"#utility.yul\":2142:2147   */\n      dup2\n        /* \"#utility.yul\":2131:2147   */\n      swap1\n      pop\n        /* \"#utility.yul\":2076:2153   */\n      swap2\n      swap1\n      pop\n      jump\t// out\n        /* \"#utility.yul\":2159:2281   */\n    tag_358:\n        /* \"#utility.yul\":2232:2256   */\n      tag_410\n        /* \"#utility.yul\":2250:2255   */\n      dup2\n        /* \"#utility.yul\":2232:2256   */\n      tag_357\n      jump\t// in\n    tag_410:\n        /* \"#utility.yul\":2225:2230   */\n      dup2\n        /* \"#utility.yul\":2222:2257   */\n      eq\n        /* \"#utility.yul\":2212:2275   */\n      tag_411\n      jumpi\n        /* \"#utility.yul\":2271:2272   */\n      0x00\n        /* \"#utility.yul\":2268:2269   */\n      dup1\n        /* \"#utility.yul\":2261:2273   */\n      revert\n        /* \"#utility.yul\":2212:2275   */\n    tag_411:\n        /* \"#utility.yul\":2159:2281   */\n      pop\n      jump\t// out\n        /* \"#utility.yul\":2287:2426   */\n    tag_359:\n        /* \"#utility.yul\":2333:2338   */\n      0x00\n        /* \"#utility.yul\":2371:2377   */\n      dup2\n        /* \"#utility.yul\":2358:2378   */\n      calldataload\n        /* \"#utility.yul\":2349:2378   */\n      swap1\n      pop\n        /* \"#utility.yul\":2387:2420   */\n      tag_413\n        /* \"#utility.yul\":2414:2419   */\n      dup2\n        /* \"#utility.yul\":2387:2420   */\n      tag_358\n      jump\t// in\n    tag_413:\n        /* \"#utility.yul\":2287:2426   */\n      swap3\n      swap2\n      pop\n      pop\n      jump\t// out\n        /* \"#utility.yul\":2432:2906   */\n    tag_40:\n        /* \"#utility.yul\":2500:2506   */\n      0x00\n        /* \"#utility.yul\":2508:2514   */\n      dup1\n        /* \"#utility.yul\":2557:2559   */\n      0x40\n        /* \"#utility.yul\":2545:2554   */\n      dup4\n        /* \"#utility.yul\":2536:2543   */\n      dup6\n        /* \"#utility.yul\":2532:2555   */\n      sub\n        /* \"#utility.yul\":2528:2560   */\n      slt\n        /* \"#utility.yul\":2525:2644   */\n      iszero\n      tag_415\n      jumpi\n        /* \"#utility.yul\":2563:2642   */\n      tag_416\n      tag_351\n      jump\t// in\n    tag_416:\n        /* \"#utility.yul\":2525:2644   */\n    tag_415:\n        /* \"#utility.yul\":2683:2684   */\n      0x00\n        /* \"#utility.yul\":2708:2761   */\n      tag_417\n        /* \"#utility.yul\":2753:2760   */\n      dup6\n        /* \"#utility.yul\":2744:2750   */\n      dup3\n        /* \"#utility.yul\":2733:2742   */\n      dup7\n        /* \"#utility.yul\":2729:2751   */\n      add\n        /* \"#utility.yul\":2708:2761   */\n      tag_356\n      jump\t// in\n    tag_417:\n        /* \"#utility.yul\":2698:2761   */\n      swap3\n      pop\n        /* \"#utility.yul\":2654:2771   */\n      pop\n        /* \"#utility.yul\":2810:2812   */\n      0x20\n        /* \"#utility.yul\":2836:2889   */\n      tag_418\n        /* \"#utility.yul\":2881:2888   */\n      dup6\n        /* \"#utility.yul\":2872:2878   */\n      dup3\n        /* \"#utility.yul\":2861:2870   */\n      dup7\n        /* \"#utility.yul\":2857:2879   */\n      add\n        /* \"#utility.yul\":2836:2889   */\n      tag_359\n      jump\t// in\n    tag_418:\n        /* \"#utility.yul\":2826:2889   */\n      swap2\n      pop\n        /* \"#utility.yul\":2781:2899   */\n      pop\n        /* \"#utility.yul\":2432:2906   */\n      swap3\n      pop\n      swap3\n      swap1\n      pop\n      jump\t// out\n        /* \"#utility.yul\":2912:3002   */\n    tag_360:\n        /* \"#utility.yul\":2946:2953   */\n      0x00\n        /* \"#utility.yul\":2989:2994   */\n      dup2\n        /* \"#utility.yul\":2982:2995   */\n      iszero\n        /* \"#utility.yul\":2975:2996   */\n      iszero\n        /* \"#utility.yul\":2964:2996   */\n      swap1\n      pop\n        /* \"#utility.yul\":2912:3002   */\n      swap2\n      swap1\n      pop\n      jump\t// out\n        /* \"#utility.yul\":3008:3117   */\n    tag_361:\n        /* \"#utility.yul\":3089:3110   */\n      tag_421\n        /* \"#utility.yul\":3104:3109   */\n      dup2\n        /* \"#utility.yul\":3089:3110   */\n      tag_360\n      jump\t// in\n    tag_421:\n        /* \"#utility.yul\":3084:3087   */\n      dup3\n        /* \"#utility.yul\":3077:3111   */\n      mstore\n        /* \"#utility.yul\":3008:3117   */\n      pop\n      pop\n      jump\t// out\n        /* \"#utility.yul\":3123:3333   */\n    tag_43:\n        /* \"#utility.yul\":3210:3214   */\n      0x00\n        /* \"#utility.yul\":3248:3250   */\n      0x20\n        /* \"#utility.yul\":3237:3246   */\n      dup3\n        /* \"#utility.yul\":3233:3251   */\n      add\n        /* \"#utility.yul\":3225:3251   */\n      swap1\n      pop\n        /* \"#utility.yul\":3261:3326   */\n      tag_423\n        /* \"#utility.yul\":3323:3324   */\n      0x00\n        /* \"#utility.yul\":3312:3321   */\n      dup4\n        /* \"#utility.yul\":3308:3325   */\n      add\n        /* \"#utility.yul\":3299:3305   */\n      dup5\n        /* \"#utility.yul\":3261:3326   */\n      tag_361\n      jump\t// in\n    tag_423:\n        /* \"#utility.yul\":3123:3333   */\n      swap3\n      swap2\n      pop\n      pop\n      jump\t// out\n        /* \"#utility.yul\":3339:3457   */\n    tag_362:\n        /* \"#utility.yul\":3426:3450   */\n      tag_425\n        /* \"#utility.yul\":3444:3449   */\n      dup2\n        /* \"#utility.yul\":3426:3450   */\n      tag_357\n      jump\t// in\n    tag_425:\n        /* \"#utility.yul\":3421:3424   */\n      dup3\n        /* \"#utility.yul\":3414:3451   */\n      mstore\n        /* \"#utility.yul\":3339:3457   */\n      pop\n      pop\n      jump\t// out\n        /* \"#utility.yul\":3463:3685   */\n    tag_47:\n        /* \"#utility.yul\":3556:3560   */\n      0x00\n        /* \"#utility.yul\":3594:3596   */\n      0x20\n        /* \"#utility.yul\":3583:3592   */\n      dup3\n        /* \"#utility.yul\":3579:3597   */\n      add\n        /* \"#utility.yul\":3571:3597   */\n      swap1\n      pop\n        /* \"#utility.yul\":3607:3678   */\n      tag_427\n        /* \"#utility.yul\":3675:3676   */\n      0x00\n        /* \"#utility.yul\":3664:3673   */\n      dup4\n        /* \"#utility.yul\":3660:3677   */\n      add\n        /* \"#utility.yul\":3651:3657   */\n      dup5\n        /* \"#utility.yul\":3607:3678   */\n      tag_362\n      jump\t// in\n    tag_427:\n        /* \"#utility.yul\":3463:3685   */\n      swap3\n      swap2\n      pop\n      pop\n      jump\t// out\n        /* \"#utility.yul\":3691:4020   */\n    tag_52:\n        /* \"#utility.yul\":3750:3756   */\n      0x00\n        /* \"#utility.yul\":3799:3801   */\n      0x20\n        /* \"#utility.yul\":3787:3796   */\n      dup3\n        /* \"#utility.yul\":3778:3785   */\n      dup5\n        /* \"#utility.yul\":3774:3797   */\n      sub\n        /* \"#utility.yul\":3770:3802   */\n      slt\n        /* \"#utility.yul\":3767:3886   */\n      iszero\n      tag_429\n      jumpi\n        /* \"#utility.yul\":3805:3884   */\n      tag_430\n      tag_351\n      jump\t// in\n    tag_430:\n        /* \"#utility.yul\":3767:3886   */\n    tag_429:\n        /* \"#utility.yul\":3925:3926   */\n      0x00\n        /* \"#utility.yul\":3950:4003   */\n      tag_431\n        /* \"#utility.yul\":3995:4002   */\n      dup5\n        /* \"#utility.yul\":3986:3992   */\n      dup3\n        /* \"#utility.yul\":3975:3984   */\n      dup6\n        /* \"#utility.yul\":3971:3993   */\n      add\n        /* \"#utility.yul\":3950:4003   */\n      tag_359\n      jump\t// in\n    tag_431:\n        /* \"#utility.yul\":3940:4003   */\n      swap2\n      pop\n        /* \"#utility.yul\":3896:4013   */\n      pop\n        /* \"#utility.yul\":3691:4020   */\n      swap3\n      swap2\n      pop\n      pop\n      jump\t// out\n        /* \"#utility.yul\":4026:4645   */\n    tag_56:\n        /* \"#utility.yul\":4103:4109   */\n      0x00\n        /* \"#utility.yul\":4111:4117   */\n      dup1\n        /* \"#utility.yul\":4119:4125   */\n      0x00\n        /* \"#utility.yul\":4168:4170   */\n      0x60\n        /* \"#utility.yul\":4156:4165   */\n      dup5\n        /* \"#utility.yul\":4147:4154   */\n      dup7\n        /* \"#utility.yul\":4143:4166   */\n      sub\n        /* \"#utility.yul\":4139:4171   */\n      slt\n        /* \"#utility.yul\":4136:4255   */\n      iszero\n      tag_433\n      jumpi\n        /* \"#utility.yul\":4174:4253   */\n      tag_434\n      tag_351\n      jump\t// in\n    tag_434:\n        /* \"#utility.yul\":4136:4255   */\n    tag_433:\n        /* \"#utility.yul\":4294:4295   */\n      0x00\n        /* \"#utility.yul\":4319:4372   */\n      tag_435\n        /* \"#utility.yul\":4364:4371   */\n      dup7\n        /* \"#utility.yul\":4355:4361   */\n      dup3\n        /* \"#utility.yul\":4344:4353   */\n      dup8\n        /* \"#utility.yul\":4340:4362   */\n      add\n        /* \"#utility.yul\":4319:4372   */\n      tag_356\n      jump\t// in\n    tag_435:\n        /* \"#utility.yul\":4309:4372   */\n      swap4\n      pop\n        /* \"#utility.yul\":4265:4382   */\n      pop\n        /* \"#utility.yul\":4421:4423   */\n      0x20\n        /* \"#utility.yul\":4447:4500   */\n      tag_436\n        /* \"#utility.yul\":4492:4499   */\n      dup7\n        /* \"#utility.yul\":4483:4489   */\n      dup3\n        /* \"#utility.yul\":4472:4481   */\n      dup8\n        /* \"#utility.yul\":4468:4490   */\n      add\n        /* \"#utility.yul\":4447:4500   */\n      tag_356\n      jump\t// in\n    tag_436:\n        /* \"#utility.yul\":4437:4500   */\n      swap3\n      pop\n        /* \"#utility.yul\":4392:4510   */\n      pop\n        /* \"#utility.yul\":4549:4551   */\n      0x40\n        /* \"#utility.yul\":4575:4628   */\n      tag_437\n        /* \"#utility.yul\":4620:4627   */\n      dup7\n        /* \"#utility.yul\":4611:4617   */\n      dup3\n        /* \"#utility.yul\":4600:4609   */\n      dup8\n        /* \"#utility.yul\":4596:4618   */\n      add\n        /* \"#utility.yul\":4575:4628   */\n      tag_359\n      jump\t// in\n    tag_437:\n        /* \"#utility.yul\":4565:4628   */\n      swap2\n      pop\n        /* \"#utility.yul\":4520:4638   */\n      pop\n        /* \"#utility.yul\":4026:4645   */\n      swap3\n      pop\n      swap3\n      pop\n      swap3\n      jump\t// out\n        /* \"#utility.yul\":4651:4737   */\n    tag_363:\n        /* \"#utility.yul\":4686:4693   */\n      0x00\n        /* \"#utility.yul\":4726:4730   */\n      0xff\n        /* \"#utility.yul\":4719:4724   */\n      dup3\n        /* \"#utility.yul\":4715:4731   */\n      and\n        /* \"#utility.yul\":4704:4731   */\n      swap1\n      pop\n        /* \"#utility.yul\":4651:4737   */\n      swap2\n      swap1\n      pop\n      jump\t// out\n        /* \"#utility.yul\":4743:4855   */\n    tag_364:\n        /* \"#utility.yul\":4826:4848   */\n      tag_440\n        /* \"#utility.yul\":4842:4847   */\n      dup2\n        /* \"#utility.yul\":4826:4848   */\n      tag_363\n      jump\t// in\n    tag_440:\n        /* \"#utility.yul\":4821:4824   */\n      dup3\n        /* \"#utility.yul\":4814:4849   */\n      mstore\n        /* \"#utility.yul\":4743:4855   */\n      pop\n      pop\n      jump\t// out\n        /* \"#utility.yul\":4861:5075   */\n    tag_62:\n        /* \"#utility.yul\":4950:4954   */\n      0x00\n        /* \"#utility.yul\":4988:4990   */\n      0x20\n        /* \"#utility.yul\":4977:4986   */\n      dup3\n        /* \"#utility.yul\":4973:4991   */\n      add\n        /* \"#utility.yul\":4965:4991   */\n      swap1\n      pop\n        /* \"#utility.yul\":5001:5068   */\n      tag_442\n        /* \"#utility.yul\":5065:5066   */\n      0x00\n        /* \"#utility.yul\":5054:5063   */\n      dup4\n        /* \"#utility.yul\":5050:5067   */\n      add\n        /* \"#utility.yul\":5041:5047   */\n      dup5\n        /* \"#utility.yul\":5001:5068   */\n      tag_364\n      jump\t// in\n    tag_442:\n        /* \"#utility.yul\":4861:5075   */\n      swap3\n      swap2\n      pop\n      pop\n      jump\t// out\n        /* \"#utility.yul\":5081:5410   */\n    tag_79:\n        /* \"#utility.yul\":5140:5146   */\n      0x00\n        /* \"#utility.yul\":5189:5191   */\n      0x20\n        /* \"#utility.yul\":5177:5186   */\n      dup3\n        /* \"#utility.yul\":5168:5175   */\n      dup5\n        /* \"#utility.yul\":5164:5187   */\n      sub\n        /* \"#utility.yul\":5160:5192   */\n      slt\n        /* \"#utility.yul\":5157:5276   */\n      iszero\n      tag_444\n      jumpi\n        /* \"#utility.yul\":5195:5274   */\n      tag_445\n      tag_351\n      jump\t// in\n    tag_445:\n        /* \"#utility.yul\":5157:5276   */\n    tag_444:\n        /* \"#utility.yul\":5315:5316   */\n      0x00\n        /* \"#utility.yul\":5340:5393   */\n      tag_446\n        /* \"#utility.yul\":5385:5392   */\n      dup5\n        /* \"#utility.yul\":5376:5382   */\n      dup3\n        /* \"#utility.yul\":5365:5374   */\n      dup6\n        /* \"#utility.yul\":5361:5383   */\n      add\n        /* \"#utility.yul\":5340:5393   */\n      tag_356\n      jump\t// in\n    tag_446:\n        /* \"#utility.yul\":5330:5393   */\n      swap2\n      pop\n        /* \"#utility.yul\":5286:5403   */\n      pop\n        /* \"#utility.yul\":5081:5410   */\n      swap3\n      swap2\n      pop\n      pop\n      jump\t// out\n        /* \"#utility.yul\":5416:5534   */\n    tag_365:\n        /* \"#utility.yul\":5503:5527   */\n      tag_448\n        /* \"#utility.yul\":5521:5526   */\n      dup2\n        /* \"#utility.yul\":5503:5527   */\n      tag_354\n      jump\t// in\n    tag_448:\n        /* \"#utility.yul\":5498:5501   */\n      dup3\n        /* \"#utility.yul\":5491:5528   */\n      mstore\n        /* \"#utility.yul\":5416:5534   */\n      pop\n      pop\n      jump\t// out\n        /* \"#utility.yul\":5540:5762   */\n    tag_92:\n        /* \"#utility.yul\":5633:5637   */\n      0x00\n        /* \"#utility.yul\":5671:5673   */\n      0x20\n        /* \"#utility.yul\":5660:5669   */\n      dup3\n        /* \"#utility.yul\":5656:5674   */\n      add\n        /* \"#utility.yul\":5648:5674   */\n      swap1\n      pop\n        /* \"#utility.yul\":5684:5755   */\n      tag_450\n        /* \"#utility.yul\":5752:5753   */\n      0x00\n        /* \"#utility.yul\":5741:5750   */\n      dup4\n        /* \"#utility.yul\":5737:5754   */\n      add\n        /* \"#utility.yul\":5728:5734   */\n      dup5\n        /* \"#utility.yul\":5684:5755   */\n      tag_365\n      jump\t// in\n    tag_450:\n        /* \"#utility.yul\":5540:5762   */\n      swap3\n      swap2\n      pop\n      pop\n      jump\t// out\n        /* \"#utility.yul\":5768:6242   */\n    tag_117:\n        /* \"#utility.yul\":5836:5842   */\n      0x00\n        /* \"#utility.yul\":5844:5850   */\n      dup1\n        /* \"#utility.yul\":5893:5895   */\n      0x40\n        /* \"#utility.yul\":5881:5890   */\n      dup4\n        /* \"#utility.yul\":5872:5879   */\n      dup6\n        /* \"#utility.yul\":5868:5891   */\n      sub\n        /* \"#utility.yul\":5864:5896   */\n      slt\n        /* \"#utility.yul\":5861:5980   */\n      iszero\n      tag_452\n      jumpi\n        /* \"#utility.yul\":5899:5978   */\n      tag_453\n      tag_351\n      jump\t// in\n    tag_453:\n        /* \"#utility.yul\":5861:5980   */\n    tag_452:\n        /* \"#utility.yul\":6019:6020   */\n      0x00\n        /* \"#utility.yul\":6044:6097   */\n      tag_454\n        /* \"#utility.yul\":6089:6096   */\n      dup6\n        /* \"#utility.yul\":6080:6086   */\n      dup3\n        /* \"#utility.yul\":6069:6078   */\n      dup7\n        /* \"#utility.yul\":6065:6087   */\n      add\n        /* \"#utility.yul\":6044:6097   */\n      tag_356\n      jump\t// in\n    tag_454:\n        /* \"#utility.yul\":6034:6097   */\n      swap3\n      pop\n        /* \"#utility.yul\":5990:6107   */\n      pop\n        /* \"#utility.yul\":6146:6148   */\n      0x20\n        /* \"#utility.yul\":6172:6225   */\n      tag_455\n        /* \"#utility.yul\":6217:6224   */\n      dup6\n        /* \"#utility.yul\":6208:6214   */\n      dup3\n        /* \"#utility.yul\":6197:6206   */\n      dup7\n        /* \"#utility.yul\":6193:6215   */\n      add\n        /* \"#utility.yul\":6172:6225   */\n      tag_356\n      jump\t// in\n    tag_455:\n        /* \"#utility.yul\":6162:6225   */\n      swap2\n      pop\n        /* \"#utility.yul\":6117:6235   */\n      pop\n        /* \"#utility.yul\":5768:6242   */\n      swap3\n      pop\n      swap3\n      swap1\n      pop\n      jump\t// out\n        /* \"#utility.yul\":6248:6428   */\n    tag_366:\n        /* \"#utility.yul\":6296:6373   */\n      0x4e487b7100000000000000000000000000000000000000000000000000000000\n        /* \"#utility.yul\":6293:6294   */\n      0x00\n        /* \"#utility.yul\":6286:6374   */\n      mstore\n        /* \"#utility.yul\":6393:6397   */\n      0x22\n        /* \"#utility.yul\":6390:6391   */\n      0x04\n        /* \"#utility.yul\":6383:6398   */\n      mstore\n        /* \"#utility.yul\":6417:6421   */\n      0x24\n        /* \"#utility.yul\":6414:6415   */\n      0x00\n        /* \"#utility.yul\":6407:6422   */\n      revert\n        /* \"#utility.yul\":6434:6754   */\n    tag_125:\n        /* \"#utility.yul\":6478:6484   */\n      0x00\n        /* \"#utility.yul\":6515:6516   */\n      0x02\n        /* \"#utility.yul\":6509:6513   */\n      dup3\n        /* \"#utility.yul\":6505:6517   */\n      div\n        /* \"#utility.yul\":6495:6517   */\n      swap1\n      pop\n        /* \"#utility.yul\":6562:6563   */\n      0x01\n        /* \"#utility.yul\":6556:6560   */\n      dup3\n        /* \"#utility.yul\":6552:6564   */\n      and\n        /* \"#utility.yul\":6583:6601   */\n      dup1\n        /* \"#utility.yul\":6573:6654   */\n      tag_458\n      jumpi\n        /* \"#utility.yul\":6639:6643   */\n      0x7f\n        /* \"#utility.yul\":6631:6637   */\n      dup3\n        /* \"#utility.yul\":6627:6644   */\n      and\n        /* \"#utility.yul\":6617:6644   */\n      swap2\n      pop\n        /* \"#utility.yul\":6573:6654   */\n    tag_458:\n        /* \"#utility.yul\":6701:6703   */\n      0x20\n        /* \"#utility.yul\":6693:6699   */\n      dup3\n        /* \"#utility.yul\":6690:6704   */\n      lt\n        /* \"#utility.yul\":6670:6688   */\n      dup2\n        /* \"#utility.yul\":6667:6705   */\n      sub\n        /* \"#utility.yul\":6664:6748   */\n      tag_459\n      jumpi\n        /* \"#utility.yul\":6720:6738   */\n      tag_460\n      tag_366\n      jump\t// in\n    tag_460:\n        /* \"#utility.yul\":6664:6748   */\n    tag_459:\n        /* \"#utility.yul\":6485:6754   */\n      pop\n        /* \"#utility.yul\":6434:6754   */\n      swap2\n      swap1\n      pop\n      jump\t// out\n        /* \"#utility.yul\":6760:6930   */\n    tag_367:\n        /* \"#utility.yul\":6900:6922   */\n      0x496e73756666696369656e742062616c616e6365000000000000000000000000\n        /* \"#utility.yul\":6896:6897   */\n      0x00\n        /* \"#utility.yul\":6888:6894   */\n      dup3\n        /* \"#utility.yul\":6884:6898   */\n      add\n        /* \"#utility.yul\":6877:6923   */\n      mstore\n        /* \"#utility.yul\":6760:6930   */\n      pop\n      jump\t// out\n        /* \"#utility.yul\":6936:7302   */\n    tag_368:\n        /* \"#utility.yul\":7078:7081   */\n      0x00\n        /* \"#utility.yul\":7099:7166   */\n      tag_463\n        /* \"#utility.yul\":7163:7165   */\n      0x14\n        /* \"#utility.yul\":7158:7161   */\n      dup4\n        /* \"#utility.yul\":7099:7166   */\n      tag_346\n      jump\t// in\n    tag_463:\n        /* \"#utility.yul\":7092:7166   */\n      swap2\n      pop\n        /* \"#utility.yul\":7175:7268   */\n      tag_464\n        /* \"#utility.yul\":7264:7267   */\n      dup3\n        /* \"#utility.yul\":7175:7268   */\n      tag_367\n      jump\t// in\n    tag_464:\n        /* \"#utility.yul\":7293:7295   */\n      0x20\n        /* \"#utility.yul\":7288:7291   */\n      dup3\n        /* \"#utility.yul\":7284:7296   */\n      add\n        /* \"#utility.yul\":7277:7296   */\n      swap1\n      pop\n        /* \"#utility.yul\":6936:7302   */\n      swap2\n      swap1\n      pop\n      jump\t// out\n        /* \"#utility.yul\":7308:7727   */\n    tag_149:\n        /* \"#utility.yul\":7474:7478   */\n      0x00\n        /* \"#utility.yul\":7512:7514   */\n      0x20\n        /* \"#utility.yul\":7501:7510   */\n      dup3\n        /* \"#utility.yul\":7497:7515   */\n      add\n        /* \"#utility.yul\":7489:7515   */\n      swap1\n      pop\n        /* \"#utility.yul\":7561:7570   */\n      dup2\n        /* \"#utility.yul\":7555:7559   */\n      dup2\n        /* \"#utility.yul\":7551:7571   */\n      sub\n        /* \"#utility.yul\":7547:7548   */\n      0x00\n        /* \"#utility.yul\":7536:7545   */\n      dup4\n        /* \"#utility.yul\":7532:7549   */\n      add\n        /* \"#utility.yul\":7525:7572   */\n      mstore\n        /* \"#utility.yul\":7589:7720   */\n      tag_466\n        /* \"#utility.yul\":7715:7719   */\n      dup2\n        /* \"#utility.yul\":7589:7720   */\n      tag_368\n      jump\t// in\n    tag_466:\n        /* \"#utility.yul\":7581:7720   */\n      swap1\n      pop\n        /* \"#utility.yul\":7308:7727   */\n      swap2\n      swap1\n      pop\n      jump\t// out\n        /* \"#utility.yul\":7733:7913   */\n    tag_369:\n        /* \"#utility.yul\":7781:7858   */\n      0x4e487b7100000000000000000000000000000000000000000000000000000000\n        /* \"#utility.yul\":7778:7779   */\n      0x00\n        /* \"#utility.yul\":7771:7859   */\n      mstore\n        /* \"#utility.yul\":7878:7882   */\n      0x11\n        /* \"#utility.yul\":7875:7876   */\n      0x04\n        /* \"#utility.yul\":7868:7883   */\n      mstore\n        /* \"#utility.yul\":7902:7906   */\n      0x24\n        /* \"#utility.yul\":7899:7900   */\n      0x00\n        /* \"#utility.yul\":7892:7907   */\n      revert\n        /* \"#utility.yul\":7919:8113   */\n    tag_152:\n        /* \"#utility.yul\":7959:7963   */\n      0x00\n        /* \"#utility.yul\":7979:7999   */\n      tag_469\n        /* \"#utility.yul\":7997:7998   */\n      dup3\n        /* \"#utility.yul\":7979:7999   */\n      tag_357\n      jump\t// in\n    tag_469:\n        /* \"#utility.yul\":7974:7999   */\n      swap2\n      pop\n        /* \"#utility.yul\":8013:8033   */\n      tag_470\n        /* \"#utility.yul\":8031:8032   */\n      dup4\n        /* \"#utility.yul\":8013:8033   */\n      tag_357\n      jump\t// in\n    tag_470:\n        /* \"#utility.yul\":8008:8033   */\n      swap3\n      pop\n        /* \"#utility.yul\":8057:8058   */\n      dup3\n        /* \"#utility.yul\":8054:8055   */\n      dup3\n        /* \"#utility.yul\":8050:8059   */\n      sub\n        /* \"#utility.yul\":8042:8059   */\n      swap1\n      pop\n        /* \"#utility.yul\":8081:8082   */\n      dup2\n        /* \"#utility.yul\":8075:8079   */\n      dup2\n        /* \"#utility.yul\":8072:8083   */\n      gt\n        /* \"#utility.yul\":8069:8106   */\n      iszero\n      tag_471\n      jumpi\n        /* \"#utility.yul\":8086:8104   */\n      tag_472\n      tag_369\n      jump\t// in\n    tag_472:\n        /* \"#utility.yul\":8069:8106   */\n    tag_471:\n        /* \"#utility.yul\":7919:8113   */\n      swap3\n      swap2\n      pop\n      pop\n      jump\t// out\n        /* \"#utility.yul\":8119:8310   */\n    tag_179:\n        /* \"#utility.yul\":8159:8162   */\n      0x00\n        /* \"#utility.yul\":8178:8198   */\n      tag_474\n        /* \"#utility.yul\":8196:8197   */\n      dup3\n        /* \"#utility.yul\":8178:8198   */\n      tag_357\n      jump\t// in\n    tag_474:\n        /* \"#utility.yul\":8173:8198   */\n      swap2\n      pop\n        /* \"#utility.yul\":8212:8232   */\n      tag_475\n        /* \"#utility.yul\":8230:8231   */\n      dup4\n        /* \"#utility.yul\":8212:8232   */\n      tag_357\n      jump\t// in\n    tag_475:\n        /* \"#utility.yul\":8207:8232   */\n      swap3\n      pop\n        /* \"#utility.yul\":8255:8256   */\n      dup3\n        /* \"#utility.yul\":8252:8253   */\n      dup3\n        /* \"#utility.yul\":8248:8257   */\n      add\n        /* \"#utility.yul\":8241:8257   */\n      swap1\n      pop\n        /* \"#utility.yul\":8276:8279   */\n      dup1\n        /* \"#utility.yul\":8273:8274   */\n      dup3\n        /* \"#utility.yul\":8270:8280   */\n      gt\n        /* \"#utility.yul\":8267:8303   */\n      iszero\n      tag_476\n      jumpi\n        /* \"#utility.yul\":8283:8301   */\n      tag_477\n      tag_369\n      jump\t// in\n    tag_477:\n        /* \"#utility.yul\":8267:8303   */\n    tag_476:\n        /* \"#utility.yul\":8119:8310   */\n      swap3\n      swap2\n      pop\n      pop\n      jump\t// out\n        /* \"#utility.yul\":8316:8610   */\n    tag_370:\n        /* \"#utility.yul\":8456:8490   */\n      0x4c6971756964697479206d7573742062652070726f766964656420666f722061\n        /* \"#utility.yul\":8452:8453   */\n      0x00\n        /* \"#utility.yul\":8444:8450   */\n      dup3\n        /* \"#utility.yul\":8440:8454   */\n      add\n        /* \"#utility.yul\":8433:8491   */\n      mstore\n        /* \"#utility.yul\":8525:8559   */\n      0x74206c65617374203330206461797320746f207175616c69667920666f722072\n        /* \"#utility.yul\":8520:8522   */\n      0x20\n        /* \"#utility.yul\":8512:8518   */\n      dup3\n        /* \"#utility.yul\":8508:8523   */\n      add\n        /* \"#utility.yul\":8501:8560   */\n      mstore\n        /* \"#utility.yul\":8594:8602   */\n      0x6577617264730000000000000000000000000000000000000000000000000000\n        /* \"#utility.yul\":8589:8591   */\n      0x40\n        /* \"#utility.yul\":8581:8587   */\n      dup3\n        /* \"#utility.yul\":8577:8592   */\n      add\n        /* \"#utility.yul\":8570:8603   */\n      mstore\n        /* \"#utility.yul\":8316:8610   */\n      pop\n      jump\t// out\n        /* \"#utility.yul\":8616:8982   */\n    tag_371:\n        /* \"#utility.yul\":8758:8761   */\n      0x00\n        /* \"#utility.yul\":8779:8846   */\n      tag_480\n        /* \"#utility.yul\":8843:8845   */\n      0x46\n        /* \"#utility.yul\":8838:8841   */\n      dup4\n        /* \"#utility.yul\":8779:8846   */\n      tag_346\n      jump\t// in\n    tag_480:\n        /* \"#utility.yul\":8772:8846   */\n      swap2\n      pop\n        /* \"#utility.yul\":8855:8948   */\n      tag_481\n        /* \"#utility.yul\":8944:8947   */\n      dup3\n        /* \"#utility.yul\":8855:8948   */\n      tag_370\n      jump\t// in\n    tag_481:\n        /* \"#utility.yul\":8973:8975   */\n      0x60\n        /* \"#utility.yul\":8968:8971   */\n      dup3\n        /* \"#utility.yul\":8964:8976   */\n      add\n        /* \"#utility.yul\":8957:8976   */\n      swap1\n      pop\n        /* \"#utility.yul\":8616:8982   */\n      swap2\n      swap1\n      pop\n      jump\t// out\n        /* \"#utility.yul\":8988:9407   */\n    tag_225:\n        /* \"#utility.yul\":9154:9158   */\n      0x00\n        /* \"#utility.yul\":9192:9194   */\n      0x20\n        /* \"#utility.yul\":9181:9190   */\n      dup3\n        /* \"#utility.yul\":9177:9195   */\n      add\n        /* \"#utility.yul\":9169:9195   */\n      swap1\n      pop\n        /* \"#utility.yul\":9241:9250   */\n      dup2\n        /* \"#utility.yul\":9235:9239   */\n      dup2\n        /* \"#utility.yul\":9231:9251   */\n      sub\n        /* \"#utility.yul\":9227:9228   */\n      0x00\n        /* \"#utility.yul\":9216:9225   */\n      dup4\n        /* \"#utility.yul\":9212:9229   */\n      add\n        /* \"#utility.yul\":9205:9252   */\n      mstore\n        /* \"#utility.yul\":9269:9400   */\n      tag_483\n        /* \"#utility.yul\":9395:9399   */\n      dup2\n        /* \"#utility.yul\":9269:9400   */\n      tag_371\n      jump\t// in\n    tag_483:\n        /* \"#utility.yul\":9261:9400   */\n      swap1\n      pop\n        /* \"#utility.yul\":8988:9407   */\n      swap2\n      swap1\n      pop\n      jump\t// out\n        /* \"#utility.yul\":9413:9588   */\n    tag_372:\n        /* \"#utility.yul\":9553:9580   */\n      0x5265776172642065786365656473206d617820737570706c7900000000000000\n        /* \"#utility.yul\":9549:9550   */\n      0x00\n        /* \"#utility.yul\":9541:9547   */\n      dup3\n        /* \"#utility.yul\":9537:9551   */\n      add\n        /* \"#utility.yul\":9530:9581   */\n      mstore\n        /* \"#utility.yul\":9413:9588   */\n      pop\n      jump\t// out\n        /* \"#utility.yul\":9594:9960   */\n    tag_373:\n        /* \"#utility.yul\":9736:9739   */\n      0x00\n        /* \"#utility.yul\":9757:9824   */\n      tag_486\n        /* \"#utility.yul\":9821:9823   */\n      0x19\n        /* \"#utility.yul\":9816:9819   */\n      dup4\n        /* \"#utility.yul\":9757:9824   */\n      tag_346\n      jump\t// in\n    tag_486:\n        /* \"#utility.yul\":9750:9824   */\n      swap2\n      pop\n        /* \"#utility.yul\":9833:9926   */\n      tag_487\n        /* \"#utility.yul\":9922:9925   */\n      dup3\n        /* \"#utility.yul\":9833:9926   */\n      tag_372\n      jump\t// in\n    tag_487:\n        /* \"#utility.yul\":9951:9953   */\n      0x20\n        /* \"#utility.yul\":9946:9949   */\n      dup3\n        /* \"#utility.yul\":9942:9954   */\n      add\n        /* \"#utility.yul\":9935:9954   */\n      swap1\n      pop\n        /* \"#utility.yul\":9594:9960   */\n      swap2\n      swap1\n      pop\n      jump\t// out\n        /* \"#utility.yul\":9966:10385   */\n    tag_231:\n        /* \"#utility.yul\":10132:10136   */\n      0x00\n        /* \"#utility.yul\":10170:10172   */\n      0x20\n        /* \"#utility.yul\":10159:10168   */\n      dup3\n        /* \"#utility.yul\":10155:10173   */\n      add\n        /* \"#utility.yul\":10147:10173   */\n      swap1\n      pop\n        /* \"#utility.yul\":10219:10228   */\n      dup2\n        /* \"#utility.yul\":10213:10217   */\n      dup2\n        /* \"#utility.yul\":10209:10229   */\n      sub\n        /* \"#utility.yul\":10205:10206   */\n      0x00\n        /* \"#utility.yul\":10194:10203   */\n      dup4\n        /* \"#utility.yul\":10190:10207   */\n      add\n        /* \"#utility.yul\":10183:10230   */\n      mstore\n        /* \"#utility.yul\":10247:10378   */\n      tag_489\n        /* \"#utility.yul\":10373:10377   */\n      dup2\n        /* \"#utility.yul\":10247:10378   */\n      tag_373\n      jump\t// in\n    tag_489:\n        /* \"#utility.yul\":10239:10378   */\n      swap1\n      pop\n        /* \"#utility.yul\":9966:10385   */\n      swap2\n      swap1\n      pop\n      jump\t// out\n        /* \"#utility.yul\":10391:10801   */\n    tag_242:\n        /* \"#utility.yul\":10431:10438   */\n      0x00\n        /* \"#utility.yul\":10454:10474   */\n      tag_491\n        /* \"#utility.yul\":10472:10473   */\n      dup3\n        /* \"#utility.yul\":10454:10474   */\n      tag_357\n      jump\t// in\n    tag_491:\n        /* \"#utility.yul\":10449:10474   */\n      swap2\n      pop\n        /* \"#utility.yul\":10488:10508   */\n      tag_492\n        /* \"#utility.yul\":10506:10507   */\n      dup4\n        /* \"#utility.yul\":10488:10508   */\n      tag_357\n      jump\t// in\n    tag_492:\n        /* \"#utility.yul\":10483:10508   */\n      swap3\n      pop\n        /* \"#utility.yul\":10543:10544   */\n      dup3\n        /* \"#utility.yul\":10540:10541   */\n      dup3\n        /* \"#utility.yul\":10536:10545   */\n      mul\n        /* \"#utility.yul\":10565:10595   */\n      tag_493\n        /* \"#utility.yul\":10583:10594   */\n      dup2\n        /* \"#utility.yul\":10565:10595   */\n      tag_357\n      jump\t// in\n    tag_493:\n        /* \"#utility.yul\":10554:10595   */\n      swap2\n      pop\n        /* \"#utility.yul\":10744:10745   */\n      dup3\n        /* \"#utility.yul\":10735:10742   */\n      dup3\n        /* \"#utility.yul\":10731:10746   */\n      div\n        /* \"#utility.yul\":10728:10729   */\n      dup5\n        /* \"#utility.yul\":10725:10747   */\n      eq\n        /* \"#utility.yul\":10705:10706   */\n      dup4\n        /* \"#utility.yul\":10698:10707   */\n      iszero\n        /* \"#utility.yul\":10678:10761   */\n      or\n        /* \"#utility.yul\":10655:10794   */\n      tag_494\n      jumpi\n        /* \"#utility.yul\":10774:10792   */\n      tag_495\n      tag_369\n      jump\t// in\n    tag_495:\n        /* \"#utility.yul\":10655:10794   */\n    tag_494:\n        /* \"#utility.yul\":10439:10801   */\n      pop\n        /* \"#utility.yul\":10391:10801   */\n      swap3\n      swap2\n      pop\n      pop\n      jump\t// out\n        /* \"#utility.yul\":10807:10987   */\n    tag_374:\n        /* \"#utility.yul\":10855:10932   */\n      0x4e487b7100000000000000000000000000000000000000000000000000000000\n        /* \"#utility.yul\":10852:10853   */\n      0x00\n        /* \"#utility.yul\":10845:10933   */\n      mstore\n        /* \"#utility.yul\":10952:10956   */\n      0x12\n        /* \"#utility.yul\":10949:10950   */\n      0x04\n        /* \"#utility.yul\":10942:10957   */\n      mstore\n        /* \"#utility.yul\":10976:10980   */\n      0x24\n        /* \"#utility.yul\":10973:10974   */\n      0x00\n        /* \"#utility.yul\":10966:10981   */\n      revert\n        /* \"#utility.yul\":10993:11178   */\n    tag_244:\n        /* \"#utility.yul\":11033:11034   */\n      0x00\n        /* \"#utility.yul\":11050:11070   */\n      tag_498\n        /* \"#utility.yul\":11068:11069   */\n      dup3\n        /* \"#utility.yul\":11050:11070   */\n      tag_357\n      jump\t// in\n    tag_498:\n        /* \"#utility.yul\":11045:11070   */\n      swap2\n      pop\n        /* \"#utility.yul\":11084:11104   */\n      tag_499\n        /* \"#utility.yul\":11102:11103   */\n      dup4\n        /* \"#utility.yul\":11084:11104   */\n      tag_357\n      jump\t// in\n    tag_499:\n        /* \"#utility.yul\":11079:11104   */\n      swap3\n      pop\n        /* \"#utility.yul\":11123:11124   */\n      dup3\n        /* \"#utility.yul\":11113:11148   */\n      tag_500\n      jumpi\n        /* \"#utility.yul\":11128:11146   */\n      tag_501\n      tag_374\n      jump\t// in\n    tag_501:\n        /* \"#utility.yul\":11113:11148   */\n    tag_500:\n        /* \"#utility.yul\":11170:11171   */\n      dup3\n        /* \"#utility.yul\":11167:11168   */\n      dup3\n        /* \"#utility.yul\":11163:11172   */\n      div\n        /* \"#utility.yul\":11158:11172   */\n      swap1\n      pop\n        /* \"#utility.yul\":10993:11178   */\n      swap3\n      swap2\n      pop\n      pop\n      jump\t// out\n        /* \"#utility.yul\":11184:11365   */\n    tag_375:\n        /* \"#utility.yul\":11324:11357   */\n      0x5265656e7472616e637947756172643a207265656e7472616e742063616c6c00\n        /* \"#utility.yul\":11320:11321   */\n      0x00\n        /* \"#utility.yul\":11312:11318   */\n      dup3\n        /* \"#utility.yul\":11308:11322   */\n      add\n        /* \"#utility.yul\":11301:11358   */\n      mstore\n        /* \"#utility.yul\":11184:11365   */\n      pop\n      jump\t// out\n        /* \"#utility.yul\":11371:11737   */\n    tag_376:\n        /* \"#utility.yul\":11513:11516   */\n      0x00\n        /* \"#utility.yul\":11534:11601   */\n      tag_504\n        /* \"#utility.yul\":11598:11600   */\n      0x1f\n        /* \"#utility.yul\":11593:11596   */\n      dup4\n        /* \"#utility.yul\":11534:11601   */\n      tag_346\n      jump\t// in\n    tag_504:\n        /* \"#utility.yul\":11527:11601   */\n      swap2\n      pop\n        /* \"#utility.yul\":11610:11703   */\n      tag_505\n        /* \"#utility.yul\":11699:11702   */\n      dup3\n        /* \"#utility.yul\":11610:11703   */\n      tag_375\n      jump\t// in\n    tag_505:\n        /* \"#utility.yul\":11728:11730   */\n      0x20\n        /* \"#utility.yul\":11723:11726   */\n      dup3\n        /* \"#utility.yul\":11719:11731   */\n      add\n        /* \"#utility.yul\":11712:11731   */\n      swap1\n      pop\n        /* \"#utility.yul\":11371:11737   */\n      swap2\n      swap1\n      pop\n      jump\t// out\n        /* \"#utility.yul\":11743:12162   */\n    tag_268:\n        /* \"#utility.yul\":11909:11913   */\n      0x00\n        /* \"#utility.yul\":11947:11949   */\n      0x20\n        /* \"#utility.yul\":11936:11945   */\n      dup3\n        /* \"#utility.yul\":11932:11950   */\n      add\n        /* \"#utility.yul\":11924:11950   */\n      swap1\n      pop\n        /* \"#utility.yul\":11996:12005   */\n      dup2\n        /* \"#utility.yul\":11990:11994   */\n      dup2\n        /* \"#utility.yul\":11986:12006   */\n      sub\n        /* \"#utility.yul\":11982:11983   */\n      0x00\n        /* \"#utility.yul\":11971:11980   */\n      dup4\n        /* \"#utility.yul\":11967:11984   */\n      add\n        /* \"#utility.yul\":11960:12007   */\n      mstore\n        /* \"#utility.yul\":12024:12155   */\n      tag_507\n        /* \"#utility.yul\":12150:12154   */\n      dup2\n        /* \"#utility.yul\":12024:12155   */\n      tag_376\n      jump\t// in\n    tag_507:\n        /* \"#utility.yul\":12016:12155   */\n      swap1\n      pop\n        /* \"#utility.yul\":11743:12162   */\n      swap2\n      swap1\n      pop\n      jump\t// out\n        /* \"#utility.yul\":12168:12343   */\n    tag_377:\n        /* \"#utility.yul\":12308:12335   */\n      0x4369726375697420627265616b65722069732061637469766500000000000000\n        /* \"#utility.yul\":12304:12305   */\n      0x00\n        /* \"#utility.yul\":12296:12302   */\n      dup3\n        /* \"#utility.yul\":12292:12306   */\n      add\n        /* \"#utility.yul\":12285:12336   */\n      mstore\n        /* \"#utility.yul\":12168:12343   */\n      pop\n      jump\t// out\n        /* \"#utility.yul\":12349:12715   */\n    tag_378:\n        /* \"#utility.yul\":12491:12494   */\n      0x00\n        /* \"#utility.yul\":12512:12579   */\n      tag_510\n        /* \"#utility.yul\":12576:12578   */\n      0x19\n        /* \"#utility.yul\":12571:12574   */\n      dup4\n        /* \"#utility.yul\":12512:12579   */\n      tag_346\n      jump\t// in\n    tag_510:\n        /* \"#utility.yul\":12505:12579   */\n      swap2\n      pop\n        /* \"#utility.yul\":12588:12681   */\n      tag_511\n        /* \"#utility.yul\":12677:12680   */\n      dup3\n        /* \"#utility.yul\":12588:12681   */\n      tag_377\n      jump\t// in\n    tag_511:\n        /* \"#utility.yul\":12706:12708   */\n      0x20\n        /* \"#utility.yul\":12701:12704   */\n      dup3\n        /* \"#utility.yul\":12697:12709   */\n      add\n        /* \"#utility.yul\":12690:12709   */\n      swap1\n      pop\n        /* \"#utility.yul\":12349:12715   */\n      swap2\n      swap1\n      pop\n      jump\t// out\n        /* \"#utility.yul\":12721:13140   */\n    tag_272:\n        /* \"#utility.yul\":12887:12891   */\n      0x00\n        /* \"#utility.yul\":12925:12927   */\n      0x20\n        /* \"#utility.yul\":12914:12923   */\n      dup3\n        /* \"#utility.yul\":12910:12928   */\n      add\n        /* \"#utility.yul\":12902:12928   */\n      swap1\n      pop\n        /* \"#utility.yul\":12974:12983   */\n      dup2\n        /* \"#utility.yul\":12968:12972   */\n      dup2\n        /* \"#utility.yul\":12964:12984   */\n      sub\n        /* \"#utility.yul\":12960:12961   */\n      0x00\n        /* \"#utility.yul\":12949:12958   */\n      dup4\n        /* \"#utility.yul\":12945:12962   */\n      add\n        /* \"#utility.yul\":12938:12985   */\n      mstore\n        /* \"#utility.yul\":13002:13133   */\n      tag_513\n        /* \"#utility.yul\":13128:13132   */\n      dup2\n        /* \"#utility.yul\":13002:13133   */\n      tag_378\n      jump\t// in\n    tag_513:\n        /* \"#utility.yul\":12994:13133   */\n      swap1\n      pop\n        /* \"#utility.yul\":12721:13140   */\n      swap2\n      swap1\n      pop\n      jump\t// out\n        /* \"#utility.yul\":13146:13314   */\n    tag_379:\n        /* \"#utility.yul\":13286:13306   */\n      0x4275726e2076616c756520696e76616c69640000000000000000000000000000\n        /* \"#utility.yul\":13282:13283   */\n      0x00\n        /* \"#utility.yul\":13274:13280   */\n      dup3\n        /* \"#utility.yul\":13270:13284   */\n      add\n        /* \"#utility.yul\":13263:13307   */\n      mstore\n        /* \"#utility.yul\":13146:13314   */\n      pop\n      jump\t// out\n        /* \"#utility.yul\":13320:13686   */\n    tag_380:\n        /* \"#utility.yul\":13462:13465   */\n      0x00\n        /* \"#utility.yul\":13483:13550   */\n      tag_516\n        /* \"#utility.yul\":13547:13549   */\n      0x12\n        /* \"#utility.yul\":13542:13545   */\n      dup4\n        /* \"#utility.yul\":13483:13550   */\n      tag_346\n      jump\t// in\n    tag_516:\n        /* \"#utility.yul\":13476:13550   */\n      swap2\n      pop\n        /* \"#utility.yul\":13559:13652   */\n      tag_517\n        /* \"#utility.yul\":13648:13651   */\n      dup3\n        /* \"#utility.yul\":13559:13652   */\n      tag_379\n      jump\t// in\n    tag_517:\n        /* \"#utility.yul\":13677:13679   */\n      0x20\n        /* \"#utility.yul\":13672:13675   */\n      dup3\n        /* \"#utility.yul\":13668:13680   */\n      add\n        /* \"#utility.yul\":13661:13680   */\n      swap1\n      pop\n        /* \"#utility.yul\":13320:13686   */\n      swap2\n      swap1\n      pop\n      jump\t// out\n        /* \"#utility.yul\":13692:14111   */\n    tag_279:\n        /* \"#utility.yul\":13858:13862   */\n      0x00\n        /* \"#utility.yul\":13896:13898   */\n      0x20\n        /* \"#utility.yul\":13885:13894   */\n      dup3\n        /* \"#utility.yul\":13881:13899   */\n      add\n        /* \"#utility.yul\":13873:13899   */\n      swap1\n      pop\n        /* \"#utility.yul\":13945:13954   */\n      dup2\n        /* \"#utility.yul\":13939:13943   */\n      dup2\n        /* \"#utility.yul\":13935:13955   */\n      sub\n        /* \"#utility.yul\":13931:13932   */\n      0x00\n        /* \"#utility.yul\":13920:13929   */\n      dup4\n        /* \"#utility.yul\":13916:13933   */\n      add\n        /* \"#utility.yul\":13909:13956   */\n      mstore\n        /* \"#utility.yul\":13973:14104   */\n      tag_519\n        /* \"#utility.yul\":14099:14103   */\n      dup2\n        /* \"#utility.yul\":13973:14104   */\n      tag_380\n      jump\t// in\n    tag_519:\n        /* \"#utility.yul\":13965:14104   */\n      swap1\n      pop\n        /* \"#utility.yul\":13692:14111   */\n      swap2\n      swap1\n      pop\n      jump\t// out\n        /* \"#utility.yul\":14117:14559   */\n    tag_289:\n        /* \"#utility.yul\":14266:14270   */\n      0x00\n        /* \"#utility.yul\":14304:14306   */\n      0x60\n        /* \"#utility.yul\":14293:14302   */\n      dup3\n        /* \"#utility.yul\":14289:14307   */\n      add\n        /* \"#utility.yul\":14281:14307   */\n      swap1\n      pop\n        /* \"#utility.yul\":14317:14388   */\n      tag_521\n        /* \"#utility.yul\":14385:14386   */\n      0x00\n        /* \"#utility.yul\":14374:14383   */\n      dup4\n        /* \"#utility.yul\":14370:14387   */\n      add\n        /* \"#utility.yul\":14361:14367   */\n      dup7\n        /* \"#utility.yul\":14317:14388   */\n      tag_365\n      jump\t// in\n    tag_521:\n        /* \"#utility.yul\":14398:14470   */\n      tag_522\n        /* \"#utility.yul\":14466:14468   */\n      0x20\n        /* \"#utility.yul\":14455:14464   */\n      dup4\n        /* \"#utility.yul\":14451:14469   */\n      add\n        /* \"#utility.yul\":14442:14448   */\n      dup6\n        /* \"#utility.yul\":14398:14470   */\n      tag_362\n      jump\t// in\n    tag_522:\n        /* \"#utility.yul\":14480:14552   */\n      tag_523\n        /* \"#utility.yul\":14548:14550   */\n      0x40\n        /* \"#utility.yul\":14537:14546   */\n      dup4\n        /* \"#utility.yul\":14533:14551   */\n      add\n        /* \"#utility.yul\":14524:14530   */\n      dup5\n        /* \"#utility.yul\":14480:14552   */\n      tag_362\n      jump\t// in\n    tag_523:\n        /* \"#utility.yul\":14117:14559   */\n      swap5\n      swap4\n      pop\n      pop\n      pop\n      pop\n      jump\t// out\n        /* \"#utility.yul\":14565:14735   */\n    tag_381:\n        /* \"#utility.yul\":14705:14727   */\n      0x5061757361626c653a206e6f7420706175736564000000000000000000000000\n        /* \"#utility.yul\":14701:14702   */\n      0x00\n        /* \"#utility.yul\":14693:14699   */\n      dup3\n        /* \"#utility.yul\":14689:14703   */\n      add\n        /* \"#utility.yul\":14682:14728   */\n      mstore\n        /* \"#utility.yul\":14565:14735   */\n      pop\n      jump\t// out\n        /* \"#utility.yul\":14741:15107   */\n    tag_382:\n        /* \"#utility.yul\":14883:14886   */\n      0x00\n        /* \"#utility.yul\":14904:14971   */\n      tag_526\n        /* \"#utility.yul\":14968:14970   */\n      0x14\n        /* \"#utility.yul\":14963:14966   */\n      dup4\n        /* \"#utility.yul\":14904:14971   */\n      tag_346\n      jump\t// in\n    tag_526:\n        /* \"#utility.yul\":14897:14971   */\n      swap2\n      pop\n        /* \"#utility.yul\":14980:15073   */\n      tag_527\n        /* \"#utility.yul\":15069:15072   */\n      dup3\n        /* \"#utility.yul\":14980:15073   */\n      tag_381\n      jump\t// in\n    tag_527:\n        /* \"#utility.yul\":15098:15100   */\n      0x20\n        /* \"#utility.yul\":15093:15096   */\n      dup3\n        /* \"#utility.yul\":15089:15101   */\n      add\n        /* \"#utility.yul\":15082:15101   */\n      swap1\n      pop\n        /* \"#utility.yul\":14741:15107   */\n      swap2\n      swap1\n      pop\n      jump\t// out\n        /* \"#utility.yul\":15113:15532   */\n    tag_330:\n        /* \"#utility.yul\":15279:15283   */\n      0x00\n        /* \"#utility.yul\":15317:15319   */\n      0x20\n        /* \"#utility.yul\":15306:15315   */\n      dup3\n        /* \"#utility.yul\":15302:15320   */\n      add\n        /* \"#utility.yul\":15294:15320   */\n      swap1\n      pop\n        /* \"#utility.yul\":15366:15375   */\n      dup2\n        /* \"#utility.yul\":15360:15364   */\n      dup2\n        /* \"#utility.yul\":15356:15376   */\n      sub\n        /* \"#utility.yul\":15352:15353   */\n      0x00\n        /* \"#utility.yul\":15341:15350   */\n      dup4\n        /* \"#utility.yul\":15337:15354   */\n      add\n        /* \"#utility.yul\":15330:15377   */\n      mstore\n        /* \"#utility.yul\":15394:15525   */\n      tag_529\n        /* \"#utility.yul\":15520:15524   */\n      dup2\n        /* \"#utility.yul\":15394:15525   */\n      tag_382\n      jump\t// in\n    tag_529:\n        /* \"#utility.yul\":15386:15525   */\n      swap1\n      pop\n        /* \"#utility.yul\":15113:15532   */\n      swap2\n      swap1\n      pop\n      jump\t// out\n        /* \"#utility.yul\":15538:15704   */\n    tag_383:\n        /* \"#utility.yul\":15678:15696   */\n      0x5061757361626c653a2070617573656400000000000000000000000000000000\n        /* \"#utility.yul\":15674:15675   */\n      0x00\n        /* \"#utility.yul\":15666:15672   */\n      dup3\n        /* \"#utility.yul\":15662:15676   */\n      add\n        /* \"#utility.yul\":15655:15697   */\n      mstore\n        /* \"#utility.yul\":15538:15704   */\n      pop\n      jump\t// out\n        /* \"#utility.yul\":15710:16076   */\n    tag_384:\n        /* \"#utility.yul\":15852:15855   */\n      0x00\n        /* \"#utility.yul\":15873:15940   */\n      tag_532\n        /* \"#utility.yul\":15937:15939   */\n      0x10\n        /* \"#utility.yul\":15932:15935   */\n      dup4\n        /* \"#utility.yul\":15873:15940   */\n      tag_346\n      jump\t// in\n    tag_532:\n        /* \"#utility.yul\":15866:15940   */\n      swap2\n      pop\n        /* \"#utility.yul\":15949:16042   */\n      tag_533\n        /* \"#utility.yul\":16038:16041   */\n      dup3\n        /* \"#utility.yul\":15949:16042   */\n      tag_383\n      jump\t// in\n    tag_533:\n        /* \"#utility.yul\":16067:16069   */\n      0x20\n        /* \"#utility.yul\":16062:16065   */\n      dup3\n        /* \"#utility.yul\":16058:16070   */\n      add\n        /* \"#utility.yul\":16051:16070   */\n      swap1\n      pop\n        /* \"#utility.yul\":15710:16076   */\n      swap2\n      swap1\n      pop\n      jump\t// out\n        /* \"#utility.yul\":16082:16501   */\n    tag_344:\n        /* \"#utility.yul\":16248:16252   */\n      0x00\n        /* \"#utility.yul\":16286:16288   */\n      0x20\n        /* \"#utility.yul\":16275:16284   */\n      dup3\n        /* \"#utility.yul\":16271:16289   */\n      add\n        /* \"#utility.yul\":16263:16289   */\n      swap1\n      pop\n        /* \"#utility.yul\":16335:16344   */\n      dup2\n        /* \"#utility.yul\":16329:16333   */\n      dup2\n        /* \"#utility.yul\":16325:16345   */\n      sub\n        /* \"#utility.yul\":16321:16322   */\n      0x00\n        /* \"#utility.yul\":16310:16319   */\n      dup4\n        /* \"#utility.yul\":16306:16323   */\n      add\n        /* \"#utility.yul\":16299:16346   */\n      mstore\n        /* \"#utility.yul\":16363:16494   */\n      tag_535\n        /* \"#utility.yul\":16489:16493   */\n      dup2\n        /* \"#utility.yul\":16363:16494   */\n      tag_384\n      jump\t// in\n    tag_535:\n        /* \"#utility.yul\":16355:16494   */\n      swap1\n      pop\n        /* \"#utility.yul\":16082:16501   */\n      swap2\n      swap1\n      pop\n      jump\t// out\n\n    auxdata: 0xa2646970667358221220942ba8ad5703d3cbe368297cf7d9b293fe865c19e4c5bc1b053e25dbf4913b7364736f6c634300081a0033\n}\n",
				"bytecode": {
					"linkReferences": {},
					"object": "60806040525f600b5f6101000a81548160ff021916908315150217905550348015610028575f80fd5b50604051612e27380380612e27833981810160405281019061004a9190610702565b808686816003908161005c91906109c7565b50806004908161006c91906109c7565b5050505f60055f6101000a81548160ff0219169083151502179055505f73ffffffffffffffffffffffffffffffffffffffff168173ffffffffffffffffffffffffffffffffffffffff16036100f8575f6040517f1e4fbdf70000000000000000000000000000000000000000000000000000000081526004016100ef9190610aa5565b60405180910390fd5b6101078161018f60201b60201c565b50600160068190555082841115610153576040517f08c379a000000000000000000000000000000000000000000000000000000000815260040161014a90610b3e565b60405180910390fd5b610163818561025460201b60201c565b826007819055508160085f6101000a81548160ff021916908360ff160217905550505050505050610c19565b5f600560019054906101000a900473ffffffffffffffffffffffffffffffffffffffff16905081600560016101000a81548173ffffffffffffffffffffffffffffffffffffffff021916908373ffffffffffffffffffffffffffffffffffffffff1602179055508173ffffffffffffffffffffffffffffffffffffffff168173ffffffffffffffffffffffffffffffffffffffff167f8be0079c531659141344cd1fd0a4f28419497f9722a3daafe3b4186f6b6457e060405160405180910390a35050565b5f73ffffffffffffffffffffffffffffffffffffffff168273ffffffffffffffffffffffffffffffffffffffff16036102c4575f6040517fec442f050000000000000000000000000000000000000000000000000000000081526004016102bb9190610aa5565b60405180910390fd5b6102d55f83836102d960201b60201c565b5050565b5f73ffffffffffffffffffffffffffffffffffffffff168373ffffffffffffffffffffffffffffffffffffffff1603610329578060025f82825461031d9190610b89565b925050819055506103f7565b5f805f8573ffffffffffffffffffffffffffffffffffffffff1673ffffffffffffffffffffffffffffffffffffffff1681526020019081526020015f20549050818110156103b2578381836040517fe450d38c0000000000000000000000000000000000000000000000000000000081526004016103a993929190610bcb565b60405180910390fd5b8181035f808673ffffffffffffffffffffffffffffffffffffffff1673ffffffffffffffffffffffffffffffffffffffff1681526020019081526020015f2081905550505b5f73ffffffffffffffffffffffffffffffffffffffff168273ffffffffffffffffffffffffffffffffffffffff160361043e578060025f8282540392505081905550610488565b805f808473ffffffffffffffffffffffffffffffffffffffff1673ffffffffffffffffffffffffffffffffffffffff1681526020019081526020015f205f82825401925050819055505b8173ffffffffffffffffffffffffffffffffffffffff168373ffffffffffffffffffffffffffffffffffffffff167fddf252ad1be2c89b69c2b068fc378daa952ba7f163c4a11628f55a4df523b3ef836040516104e59190610c00565b60405180910390a3505050565b5f604051905090565b5f80fd5b5f80fd5b5f80fd5b5f80fd5b5f601f19601f8301169050919050565b7f4e487b71000000000000000000000000000000000000000000000000000000005f52604160045260245ffd5b6105518261050b565b810181811067ffffffffffffffff821117156105705761056f61051b565b5b80604052505050565b5f6105826104f2565b905061058e8282610548565b919050565b5f67ffffffffffffffff8211156105ad576105ac61051b565b5b6105b68261050b565b9050602081019050919050565b8281835e5f83830152505050565b5f6105e36105de84610593565b610579565b9050828152602081018484840111156105ff576105fe610507565b5b61060a8482856105c3565b509392505050565b5f82601f83011261062657610625610503565b5b81516106368482602086016105d1565b91505092915050565b5f819050919050565b6106518161063f565b811461065b575f80fd5b50565b5f8151905061066c81610648565b92915050565b5f60ff82169050919050565b61068781610672565b8114610691575f80fd5b50565b5f815190506106a28161067e565b92915050565b5f73ffffffffffffffffffffffffffffffffffffffff82169050919050565b5f6106d1826106a8565b9050919050565b6106e1816106c7565b81146106eb575f80fd5b50565b5f815190506106fc816106d8565b92915050565b5f805f805f8060c0878903121561071c5761071b6104fb565b5b5f87015167ffffffffffffffff811115610739576107386104ff565b5b61074589828a01610612565b965050602087015167ffffffffffffffff811115610766576107656104ff565b5b61077289828a01610612565b955050604061078389828a0161065e565b945050606061079489828a0161065e565b93505060806107a589828a01610694565b92505060a06107b689828a016106ee565b9150509295509295509295565b5f81519050919050565b7f4e487b71000000000000000000000000000000000000000000000000000000005f52602260045260245ffd5b5f600282049050600182168061081157607f821691505b602082108103610824576108236107cd565b5b50919050565b5f819050815f5260205f209050919050565b5f6020601f8301049050919050565b5f82821b905092915050565b5f600883026108867fffffffffffffffffffffffffffffffffffffffffffffffffffffffffffffffff8261084b565b610890868361084b565b95508019841693508086168417925050509392505050565b5f819050919050565b5f6108cb6108c66108c18461063f565b6108a8565b61063f565b9050919050565b5f819050919050565b6108e4836108b1565b6108f86108f0826108d2565b848454610857565b825550505050565b5f90565b61090c610900565b6109178184846108db565b505050565b5b8181101561093a5761092f5f82610904565b60018101905061091d565b5050565b601f82111561097f576109508161082a565b6109598461083c565b81016020851015610968578190505b61097c6109748561083c565b83018261091c565b50505b505050565b5f82821c905092915050565b5f61099f5f1984600802610984565b1980831691505092915050565b5f6109b78383610990565b9150826002028217905092915050565b6109d0826107c3565b67ffffffffffffffff8111156109e9576109e861051b565b5b6109f382546107fa565b6109fe82828561093e565b5f60209050601f831160018114610a2f575f8415610a1d578287015190505b610a2785826109ac565b865550610a8e565b601f198416610a3d8661082a565b5f5b82811015610a6457848901518255600182019150602085019450602081019050610a3f565b86831015610a815784890151610a7d601f891682610990565b8355505b6001600288020188555050505b505050505050565b610a9f816106c7565b82525050565b5f602082019050610ab85f830184610a96565b92915050565b5f82825260208201905092915050565b7f496e697469616c20737570706c792063616e6e6f74206265206d6f72652074685f8201527f616e206d617820737570706c792e000000000000000000000000000000000000602082015250565b5f610b28602e83610abe565b9150610b3382610ace565b604082019050919050565b5f6020820190508181035f830152610b5581610b1c565b9050919050565b7f4e487b71000000000000000000000000000000000000000000000000000000005f52601160045260245ffd5b5f610b938261063f565b9150610b9e8361063f565b9250828201905080821115610bb657610bb5610b5c565b5b92915050565b610bc58161063f565b82525050565b5f606082019050610bde5f830186610a96565b610beb6020830185610bbc565b610bf86040830184610bbc565b949350505050565b5f602082019050610c135f830184610bbc565b92915050565b61220180610c265f395ff3fe608060405234801561000f575f80fd5b506004361061018c575f3560e01c8063715018a6116100dc578063a9059cbb11610095578063d5abeb011161006f578063d5abeb01146103fc578063d82e39621461041a578063dd62ed3e1461044a578063f2fde38b1461047a5761018c565b8063a9059cbb14610394578063afe8289a146103c4578063c8052107146103e05761018c565b8063715018a61461031e57806379cc6790146103285780638456cb59146103445780638da5cb5b1461034e57806395d89b411461036c578063a64254c31461038a5761018c565b8063313ce5671161014957806351c6590a1161012357806351c6590a1461029657806352756986146102b25780635c975abb146102d057806370a08231146102ee5761018c565b8063313ce567146102525780633f4ba83a1461027057806342966c681461027a5761018c565b806306fdde0314610190578063095ea7b3146101ae57806318160ddd146101de57806321208fa2146101fc5780632254b79c1461020657806323b872dd14610222575b5f80fd5b610198610496565b6040516101a591906119f2565b60405180910390f35b6101c860048036038101906101c39190611aa3565b610526565b6040516101d59190611afb565b60405180910390f35b6101e6610548565b6040516101f39190611b23565b60405180910390f35b610204610551565b005b610220600480360381019061021b9190611b3c565b610574565b005b61023c60048036038101906102379190611b67565b610717565b6040516102499190611afb565b60405180910390f35b61025a610745565b6040516102679190611bd2565b60405180910390f35b61027861075a565b005b610294600480360381019061028f9190611b3c565b61076c565b005b6102b060048036038101906102ab9190611b3c565b610780565b005b6102ba610823565b6040516102c79190611bd2565b60405180910390f35b6102d8610835565b6040516102e59190611afb565b60405180910390f35b61030860048036038101906103039190611beb565b61084a565b6040516103159190611b23565b60405180910390f35b61032661088f565b005b610342600480360381019061033d9190611aa3565b6108a2565b005b61034c6108c2565b005b6103566108d4565b6040516103639190611c25565b60405180910390f35b6103746108fd565b60405161038191906119f2565b60405180910390f35b61039261098d565b005b6103ae60048036038101906103a99190611aa3565b6109b1565b6040516103bb9190611afb565b60405180910390f35b6103de60048036038101906103d99190611b3c565b6109d3565b005b6103fa60048036038101906103f59190611b3c565b610a8b565b005b610404610d46565b6040516104119190611b23565b60405180910390f35b610434600480360381019061042f9190611beb565b610d4c565b6040516104419190611b23565b60405180910390f35b610464600480360381019061045f9190611c3e565b610e27565b6040516104719190611b23565b60405180910390f35b610494600480360381019061048f9190611beb565b610ea9565b005b6060600380546104a590611ca9565b80601f01602080910402602001604051908101604052809291908181526020018280546104d190611ca9565b801561051c5780601f106104f35761010080835404028352916020019161051c565b820191905f5260205f20905b8154815290600101906020018083116104ff57829003601f168201915b5050505050905090565b5f80610530610f2d565b905061053d818585610f34565b600191505092915050565b5f600254905090565b610559610f46565b5f600b5f6101000a81548160ff021916908315150217905550565b61057c610f46565b610584610fcd565b60095f61058f6108d4565b73ffffffffffffffffffffffffffffffffffffffff1673ffffffffffffffffffffffffffffffffffffffff1681526020019081526020015f205481111561060b576040517f08c379a000000000000000000000000000000000000000000000000000000000815260040161060290611d23565b60405180910390fd5b8060095f6106176108d4565b73ffffffffffffffffffffffffffffffffffffffff1673ffffffffffffffffffffffffffffffffffffffff1681526020019081526020015f205f82825461065e9190611d6e565b925050819055505f60095f6106716108d4565b73ffffffffffffffffffffffffffffffffffffffff1673ffffffffffffffffffffffffffffffffffffffff1681526020019081526020015f2054036106fa575f600a5f6106bc6108d4565b73ffffffffffffffffffffffffffffffffffffffff1673ffffffffffffffffffffffffffffffffffffffff1681526020019081526020015f20819055505b61070c306107066108d4565b8361101c565b6107146110f5565b50565b5f80610721610f2d565b905061072e8582856110ff565b61073985858561101c565b60019150509392505050565b5f60085f9054906101000a900460ff16905090565b610762610f46565b61076a611191565b565b61077d610777610f2d565b826111f2565b50565b61078b33308361101c565b8060095f3373ffffffffffffffffffffffffffffffffffffffff1673ffffffffffffffffffffffffffffffffffffffff1681526020019081526020015f205f8282546107d79190611da1565b9250508190555042600a5f3373ffffffffffffffffffffffffffffffffffffffff1673ffffffffffffffffffffffffffffffffffffffff1681526020019081526020015f208190555050565b60085f9054906101000a900460ff1681565b5f60055f9054906101000a900460ff16905090565b5f805f8373ffffffffffffffffffffffffffffffffffffffff1673ffffffffffffffffffffffffffffffffffffffff1681526020019081526020015f20549050919050565b610897610f46565b6108a05f611271565b565b6108b4826108ae610f2d565b836110ff565b6108be82826111f2565b5050565b6108ca610f46565b6108d2611336565b565b5f600560019054906101000a900473ffffffffffffffffffffffffffffffffffffffff16905090565b60606004805461090c90611ca9565b80601f016020809104026020016040519081016040528092919081815260200182805461093890611ca9565b80156109835780601f1061095a57610100808354040283529160200191610983565b820191905f5260205f20905b81548152906001019060200180831161096657829003601f168201915b5050505050905090565b610995610f46565b6001600b5f6101000a81548160ff021916908315150217905550565b5f806109bb610f2d565b90506109c881858561101c565b600191505092915050565b6109db610f46565b8060095f6109e76108d4565b73ffffffffffffffffffffffffffffffffffffffff1673ffffffffffffffffffffffffffffffffffffffff1681526020019081526020015f205f828254610a2e9190611da1565b9250508190555042600a5f610a416108d4565b73ffffffffffffffffffffffffffffffffffffffff1673ffffffffffffffffffffffffffffffffffffffff1681526020019081526020015f2081905550610a883082611398565b50565b610a93610fcd565b60095f3373ffffffffffffffffffffffffffffffffffffffff1673ffffffffffffffffffffffffffffffffffffffff1681526020019081526020015f2054811115610b13576040517f08c379a0000000000000000000000000000000000000000000000000000000008152600401610b0a90611d23565b60405180910390fd5b62278d00600a5f3373ffffffffffffffffffffffffffffffffffffffff1673ffffffffffffffffffffffffffffffffffffffff1681526020019081526020015f2054610b5f9190611da1565b421015610ba1576040517f08c379a0000000000000000000000000000000000000000000000000000000008152600401610b9890611e6a565b60405180910390fd5b5f610bab33610d4c565b905060075481610bb9610548565b610bc39190611da1565b1115610c04576040517f08c379a0000000000000000000000000000000000000000000000000000000008152600401610bfb90611ed2565b60405180910390fd5b610c0e3382611398565b610c1930338461101c565b8160095f3373ffffffffffffffffffffffffffffffffffffffff1673ffffffffffffffffffffffffffffffffffffffff1681526020019081526020015f205f828254610c659190611d6e565b925050819055505f60095f3373ffffffffffffffffffffffffffffffffffffffff1673ffffffffffffffffffffffffffffffffffffffff1681526020019081526020015f205403610cf7575f600a5f3373ffffffffffffffffffffffffffffffffffffffff1673ffffffffffffffffffffffffffffffffffffffff1681526020019081526020015f2081905550610d3a565b42600a5f3373ffffffffffffffffffffffffffffffffffffffff1673ffffffffffffffffffffffffffffffffffffffff1681526020019081526020015f20819055505b50610d436110f5565b50565b60075481565b5f62278d00600a5f8473ffffffffffffffffffffffffffffffffffffffff1673ffffffffffffffffffffffffffffffffffffffff1681526020019081526020015f2054610d999190611da1565b4210610e1e575f6064600560095f8673ffffffffffffffffffffffffffffffffffffffff1673ffffffffffffffffffffffffffffffffffffffff1681526020019081526020015f2054610dec9190611ef0565b610df69190611f5e565b905060075481610e04610548565b610e0e9190611da1565b11610e1c5780915050610e22565b505b5f90505b919050565b5f60015f8473ffffffffffffffffffffffffffffffffffffffff1673ffffffffffffffffffffffffffffffffffffffff1681526020019081526020015f205f8373ffffffffffffffffffffffffffffffffffffffff1673ffffffffffffffffffffffffffffffffffffffff1681526020019081526020015f2054905092915050565b610eb1610f46565b5f73ffffffffffffffffffffffffffffffffffffffff168173ffffffffffffffffffffffffffffffffffffffff1603610f21575f6040517f1e4fbdf7000000000000000000000000000000000000000000000000000000008152600401610f189190611c25565b60405180910390fd5b610f2a81611271565b50565b5f33905090565b610f418383836001611417565b505050565b610f4e610f2d565b73ffffffffffffffffffffffffffffffffffffffff16610f6c6108d4565b73ffffffffffffffffffffffffffffffffffffffff1614610fcb57610f8f610f2d565b6040517f118cdaa7000000000000000000000000000000000000000000000000000000008152600401610fc29190611c25565b60405180910390fd5b565b600260065403611012576040517f08c379a000000000000000000000000000000000000000000000000000000000815260040161100990611fd8565b60405180910390fd5b6002600681905550565b600b5f9054906101000a900460ff161561106b576040517f08c379a000000000000000000000000000000000000000000000000000000000815260040161106290612040565b60405180910390fd5b5f620186a08261107b9190611f5e565b90505f818361108a9190611d6e565b905081816110989190611da1565b83146110d9576040517f08c379a00000000000000000000000000000000000000000000000000000000081526004016110d0906120a8565b60405180910390fd5b6110e48585836115e6565b6110ee85836111f2565b5050505050565b6001600681905550565b5f61110a8484610e27565b90507fffffffffffffffffffffffffffffffffffffffffffffffffffffffffffffffff811461118b578181101561117c578281836040517ffb8f41b2000000000000000000000000000000000000000000000000000000008152600401611173939291906120c6565b60405180910390fd5b61118a84848484035f611417565b5b50505050565b6111996116d6565b5f60055f6101000a81548160ff0219169083151502179055507f5db9ee0a495bf2e6ff9c91a7834c1ba4fdd244a5e8aa4e537bd38aeae4b073aa6111db610f2d565b6040516111e89190611c25565b60405180910390a1565b5f73ffffffffffffffffffffffffffffffffffffffff168273ffffffffffffffffffffffffffffffffffffffff1603611262575f6040517f96c6fd1e0000000000000000000000000000000000000000000000000000000081526004016112599190611c25565b60405180910390fd5b61126d825f8361171f565b5050565b5f600560019054906101000a900473ffffffffffffffffffffffffffffffffffffffff16905081600560016101000a81548173ffffffffffffffffffffffffffffffffffffffff021916908373ffffffffffffffffffffffffffffffffffffffff1602179055508173ffffffffffffffffffffffffffffffffffffffff168173ffffffffffffffffffffffffffffffffffffffff167f8be0079c531659141344cd1fd0a4f28419497f9722a3daafe3b4186f6b6457e060405160405180910390a35050565b61133e611938565b600160055f6101000a81548160ff0219169083151502179055507f62e78cea01bee320cd4e420270b5ea74000d11b0c9f74754ebdbfc544b05a258611381610f2d565b60405161138e9190611c25565b60405180910390a1565b5f73ffffffffffffffffffffffffffffffffffffffff168273ffffffffffffffffffffffffffffffffffffffff1603611408575f6040517fec442f050000000000000000000000000000000000000000000000000000000081526004016113ff9190611c25565b60405180910390fd5b6114135f838361171f565b5050565b5f73ffffffffffffffffffffffffffffffffffffffff168473ffffffffffffffffffffffffffffffffffffffff1603611487575f6040517fe602df0500000000000000000000000000000000000000000000000000000000815260040161147e9190611c25565b60405180910390fd5b5f73ffffffffffffffffffffffffffffffffffffffff168373ffffffffffffffffffffffffffffffffffffffff16036114f7575f6040517f94280d620000000000000000000000000000000000000000000000000000000081526004016114ee9190611c25565b60405180910390fd5b8160015f8673ffffffffffffffffffffffffffffffffffffffff1673ffffffffffffffffffffffffffffffffffffffff1681526020019081526020015f205f8573ffffffffffffffffffffffffffffffffffffffff1673ffffffffffffffffffffffffffffffffffffffff1681526020019081526020015f208190555080156115e0578273ffffffffffffffffffffffffffffffffffffffff168473ffffffffffffffffffffffffffffffffffffffff167f8c5be1e5ebec7d5bd14f71427d1e84f3dd0314c0f7b2291e5b200ac8c7c3b925846040516115d79190611b23565b60405180910390a35b50505050565b5f73ffffffffffffffffffffffffffffffffffffffff168373ffffffffffffffffffffffffffffffffffffffff1603611656575f6040517f96c6fd1e00000000000000000000000000000000000000000000000000000000815260040161164d9190611c25565b60405180910390fd5b5f73ffffffffffffffffffffffffffffffffffffffff168273ffffffffffffffffffffffffffffffffffffffff16036116c6575f6040517fec442f050000000000000000000000000000000000000000000000000000000081526004016116bd9190611c25565b60405180910390fd5b6116d183838361171f565b505050565b6116de610835565b61171d576040517f08c379a000000000000000000000000000000000000000000000000000000000815260040161171490612145565b60405180910390fd5b565b5f73ffffffffffffffffffffffffffffffffffffffff168373ffffffffffffffffffffffffffffffffffffffff160361176f578060025f8282546117639190611da1565b9250508190555061183d565b5f805f8573ffffffffffffffffffffffffffffffffffffffff1673ffffffffffffffffffffffffffffffffffffffff1681526020019081526020015f20549050818110156117f8578381836040517fe450d38c0000000000000000000000000000000000000000000000000000000081526004016117ef939291906120c6565b60405180910390fd5b8181035f808673ffffffffffffffffffffffffffffffffffffffff1673ffffffffffffffffffffffffffffffffffffffff1681526020019081526020015f2081905550505b5f73ffffffffffffffffffffffffffffffffffffffff168273ffffffffffffffffffffffffffffffffffffffff1603611884578060025f82825403925050819055506118ce565b805f808473ffffffffffffffffffffffffffffffffffffffff1673ffffffffffffffffffffffffffffffffffffffff1681526020019081526020015f205f82825401925050819055505b8173ffffffffffffffffffffffffffffffffffffffff168373ffffffffffffffffffffffffffffffffffffffff167fddf252ad1be2c89b69c2b068fc378daa952ba7f163c4a11628f55a4df523b3ef8360405161192b9190611b23565b60405180910390a3505050565b611940610835565b15611980576040517f08c379a0000000000000000000000000000000000000000000000000000000008152600401611977906121ad565b60405180910390fd5b565b5f81519050919050565b5f82825260208201905092915050565b8281835e5f83830152505050565b5f601f19601f8301169050919050565b5f6119c482611982565b6119ce818561198c565b93506119de81856020860161199c565b6119e7816119aa565b840191505092915050565b5f6020820190508181035f830152611a0a81846119ba565b905092915050565b5f80fd5b5f73ffffffffffffffffffffffffffffffffffffffff82169050919050565b5f611a3f82611a16565b9050919050565b611a4f81611a35565b8114611a59575f80fd5b50565b5f81359050611a6a81611a46565b92915050565b5f819050919050565b611a8281611a70565b8114611a8c575f80fd5b50565b5f81359050611a9d81611a79565b92915050565b5f8060408385031215611ab957611ab8611a12565b5b5f611ac685828601611a5c565b9250506020611ad785828601611a8f565b9150509250929050565b5f8115159050919050565b611af581611ae1565b82525050565b5f602082019050611b0e5f830184611aec565b92915050565b611b1d81611a70565b82525050565b5f602082019050611b365f830184611b14565b92915050565b5f60208284031215611b5157611b50611a12565b5b5f611b5e84828501611a8f565b91505092915050565b5f805f60608486031215611b7e57611b7d611a12565b5b5f611b8b86828701611a5c565b9350506020611b9c86828701611a5c565b9250506040611bad86828701611a8f565b9150509250925092565b5f60ff82169050919050565b611bcc81611bb7565b82525050565b5f602082019050611be55f830184611bc3565b92915050565b5f60208284031215611c0057611bff611a12565b5b5f611c0d84828501611a5c565b91505092915050565b611c1f81611a35565b82525050565b5f602082019050611c385f830184611c16565b92915050565b5f8060408385031215611c5457611c53611a12565b5b5f611c6185828601611a5c565b9250506020611c7285828601611a5c565b9150509250929050565b7f4e487b71000000000000000000000000000000000000000000000000000000005f52602260045260245ffd5b5f6002820490506001821680611cc057607f821691505b602082108103611cd357611cd2611c7c565b5b50919050565b7f496e73756666696369656e742062616c616e63650000000000000000000000005f82015250565b5f611d0d60148361198c565b9150611d1882611cd9565b602082019050919050565b5f6020820190508181035f830152611d3a81611d01565b9050919050565b7f4e487b71000000000000000000000000000000000000000000000000000000005f52601160045260245ffd5b5f611d7882611a70565b9150611d8383611a70565b9250828203905081811115611d9b57611d9a611d41565b5b92915050565b5f611dab82611a70565b9150611db683611a70565b9250828201905080821115611dce57611dcd611d41565b5b92915050565b7f4c6971756964697479206d7573742062652070726f766964656420666f7220615f8201527f74206c65617374203330206461797320746f207175616c69667920666f72207260208201527f6577617264730000000000000000000000000000000000000000000000000000604082015250565b5f611e5460468361198c565b9150611e5f82611dd4565b606082019050919050565b5f6020820190508181035f830152611e8181611e48565b9050919050565b7f5265776172642065786365656473206d617820737570706c79000000000000005f82015250565b5f611ebc60198361198c565b9150611ec782611e88565b602082019050919050565b5f6020820190508181035f830152611ee981611eb0565b9050919050565b5f611efa82611a70565b9150611f0583611a70565b9250828202611f1381611a70565b91508282048414831517611f2a57611f29611d41565b5b5092915050565b7f4e487b71000000000000000000000000000000000000000000000000000000005f52601260045260245ffd5b5f611f6882611a70565b9150611f7383611a70565b925082611f8357611f82611f31565b5b828204905092915050565b7f5265656e7472616e637947756172643a207265656e7472616e742063616c6c005f82015250565b5f611fc2601f8361198c565b9150611fcd82611f8e565b602082019050919050565b5f6020820190508181035f830152611fef81611fb6565b9050919050565b7f4369726375697420627265616b657220697320616374697665000000000000005f82015250565b5f61202a60198361198c565b915061203582611ff6565b602082019050919050565b5f6020820190508181035f8301526120578161201e565b9050919050565b7f4275726e2076616c756520696e76616c696400000000000000000000000000005f82015250565b5f61209260128361198c565b915061209d8261205e565b602082019050919050565b5f6020820190508181035f8301526120bf81612086565b9050919050565b5f6060820190506120d95f830186611c16565b6120e66020830185611b14565b6120f36040830184611b14565b949350505050565b7f5061757361626c653a206e6f74207061757365640000000000000000000000005f82015250565b5f61212f60148361198c565b915061213a826120fb565b602082019050919050565b5f6020820190508181035f83015261215c81612123565b9050919050565b7f5061757361626c653a20706175736564000000000000000000000000000000005f82015250565b5f61219760108361198c565b91506121a282612163565b602082019050919050565b5f6020820190508181035f8301526121c48161218b565b905091905056fea2646970667358221220942ba8ad5703d3cbe368297cf7d9b293fe865c19e4c5bc1b053e25dbf4913b7364736f6c634300081a0033",
					"opcodes": "PUSH1 0x80 PUSH1 0x40 MSTORE PUSH0 PUSH1 0xB PUSH0 PUSH2 0x100 EXP DUP2 SLOAD DUP2 PUSH1 0xFF MUL NOT AND SWAP1 DUP4 ISZERO ISZERO MUL OR SWAP1 SSTORE POP CALLVALUE DUP1 ISZERO PUSH2 0x28 JUMPI PUSH0 DUP1 REVERT JUMPDEST POP PUSH1 0x40 MLOAD PUSH2 0x2E27 CODESIZE SUB DUP1 PUSH2 0x2E27 DUP4 CODECOPY DUP2 DUP2 ADD PUSH1 0x40 MSTORE DUP2 ADD SWAP1 PUSH2 0x4A SWAP2 SWAP1 PUSH2 0x702 JUMP JUMPDEST DUP1 DUP7 DUP7 DUP2 PUSH1 0x3 SWAP1 DUP2 PUSH2 0x5C SWAP2 SWAP1 PUSH2 0x9C7 JUMP JUMPDEST POP DUP1 PUSH1 0x4 SWAP1 DUP2 PUSH2 0x6C SWAP2 SWAP1 PUSH2 0x9C7 JUMP JUMPDEST POP POP POP PUSH0 PUSH1 0x5 PUSH0 PUSH2 0x100 EXP DUP2 SLOAD DUP2 PUSH1 0xFF MUL NOT AND SWAP1 DUP4 ISZERO ISZERO MUL OR SWAP1 SSTORE POP PUSH0 PUSH20 0xFFFFFFFFFFFFFFFFFFFFFFFFFFFFFFFFFFFFFFFF AND DUP2 PUSH20 0xFFFFFFFFFFFFFFFFFFFFFFFFFFFFFFFFFFFFFFFF AND SUB PUSH2 0xF8 JUMPI PUSH0 PUSH1 0x40 MLOAD PUSH32 0x1E4FBDF700000000000000000000000000000000000000000000000000000000 DUP2 MSTORE PUSH1 0x4 ADD PUSH2 0xEF SWAP2 SWAP1 PUSH2 0xAA5 JUMP JUMPDEST PUSH1 0x40 MLOAD DUP1 SWAP2 SUB SWAP1 REVERT JUMPDEST PUSH2 0x107 DUP2 PUSH2 0x18F PUSH1 0x20 SHL PUSH1 0x20 SHR JUMP JUMPDEST POP PUSH1 0x1 PUSH1 0x6 DUP2 SWAP1 SSTORE POP DUP3 DUP5 GT ISZERO PUSH2 0x153 JUMPI PUSH1 0x40 MLOAD PUSH32 0x8C379A000000000000000000000000000000000000000000000000000000000 DUP2 MSTORE PUSH1 0x4 ADD PUSH2 0x14A SWAP1 PUSH2 0xB3E JUMP JUMPDEST PUSH1 0x40 MLOAD DUP1 SWAP2 SUB SWAP1 REVERT JUMPDEST PUSH2 0x163 DUP2 DUP6 PUSH2 0x254 PUSH1 0x20 SHL PUSH1 0x20 SHR JUMP JUMPDEST DUP3 PUSH1 0x7 DUP2 SWAP1 SSTORE POP DUP2 PUSH1 0x8 PUSH0 PUSH2 0x100 EXP DUP2 SLOAD DUP2 PUSH1 0xFF MUL NOT AND SWAP1 DUP4 PUSH1 0xFF AND MUL OR SWAP1 SSTORE POP POP POP POP POP POP POP PUSH2 0xC19 JUMP JUMPDEST PUSH0 PUSH1 0x5 PUSH1 0x1 SWAP1 SLOAD SWAP1 PUSH2 0x100 EXP SWAP1 DIV PUSH20 0xFFFFFFFFFFFFFFFFFFFFFFFFFFFFFFFFFFFFFFFF AND SWAP1 POP DUP2 PUSH1 0x5 PUSH1 0x1 PUSH2 0x100 EXP DUP2 SLOAD DUP2 PUSH20 0xFFFFFFFFFFFFFFFFFFFFFFFFFFFFFFFFFFFFFFFF MUL NOT AND SWAP1 DUP4 PUSH20 0xFFFFFFFFFFFFFFFFFFFFFFFFFFFFFFFFFFFFFFFF AND MUL OR SWAP1 SSTORE POP DUP2 PUSH20 0xFFFFFFFFFFFFFFFFFFFFFFFFFFFFFFFFFFFFFFFF AND DUP2 PUSH20 0xFFFFFFFFFFFFFFFFFFFFFFFFFFFFFFFFFFFFFFFF AND PUSH32 0x8BE0079C531659141344CD1FD0A4F28419497F9722A3DAAFE3B4186F6B6457E0 PUSH1 0x40 MLOAD PUSH1 0x40 MLOAD DUP1 SWAP2 SUB SWAP1 LOG3 POP POP JUMP JUMPDEST PUSH0 PUSH20 0xFFFFFFFFFFFFFFFFFFFFFFFFFFFFFFFFFFFFFFFF AND DUP3 PUSH20 0xFFFFFFFFFFFFFFFFFFFFFFFFFFFFFFFFFFFFFFFF AND SUB PUSH2 0x2C4 JUMPI PUSH0 PUSH1 0x40 MLOAD PUSH32 0xEC442F0500000000000000000000000000000000000000000000000000000000 DUP2 MSTORE PUSH1 0x4 ADD PUSH2 0x2BB SWAP2 SWAP1 PUSH2 0xAA5 JUMP JUMPDEST PUSH1 0x40 MLOAD DUP1 SWAP2 SUB SWAP1 REVERT JUMPDEST PUSH2 0x2D5 PUSH0 DUP4 DUP4 PUSH2 0x2D9 PUSH1 0x20 SHL PUSH1 0x20 SHR JUMP JUMPDEST POP POP JUMP JUMPDEST PUSH0 PUSH20 0xFFFFFFFFFFFFFFFFFFFFFFFFFFFFFFFFFFFFFFFF AND DUP4 PUSH20 0xFFFFFFFFFFFFFFFFFFFFFFFFFFFFFFFFFFFFFFFF AND SUB PUSH2 0x329 JUMPI DUP1 PUSH1 0x2 PUSH0 DUP3 DUP3 SLOAD PUSH2 0x31D SWAP2 SWAP1 PUSH2 0xB89 JUMP JUMPDEST SWAP3 POP POP DUP2 SWAP1 SSTORE POP PUSH2 0x3F7 JUMP JUMPDEST PUSH0 DUP1 PUSH0 DUP6 PUSH20 0xFFFFFFFFFFFFFFFFFFFFFFFFFFFFFFFFFFFFFFFF AND PUSH20 0xFFFFFFFFFFFFFFFFFFFFFFFFFFFFFFFFFFFFFFFF AND DUP2 MSTORE PUSH1 0x20 ADD SWAP1 DUP2 MSTORE PUSH1 0x20 ADD PUSH0 KECCAK256 SLOAD SWAP1 POP DUP2 DUP2 LT ISZERO PUSH2 0x3B2 JUMPI DUP4 DUP2 DUP4 PUSH1 0x40 MLOAD PUSH32 0xE450D38C00000000000000000000000000000000000000000000000000000000 DUP2 MSTORE PUSH1 0x4 ADD PUSH2 0x3A9 SWAP4 SWAP3 SWAP2 SWAP1 PUSH2 0xBCB JUMP JUMPDEST PUSH1 0x40 MLOAD DUP1 SWAP2 SUB SWAP1 REVERT JUMPDEST DUP2 DUP2 SUB PUSH0 DUP1 DUP7 PUSH20 0xFFFFFFFFFFFFFFFFFFFFFFFFFFFFFFFFFFFFFFFF AND PUSH20 0xFFFFFFFFFFFFFFFFFFFFFFFFFFFFFFFFFFFFFFFF AND DUP2 MSTORE PUSH1 0x20 ADD SWAP1 DUP2 MSTORE PUSH1 0x20 ADD PUSH0 KECCAK256 DUP2 SWAP1 SSTORE POP POP JUMPDEST PUSH0 PUSH20 0xFFFFFFFFFFFFFFFFFFFFFFFFFFFFFFFFFFFFFFFF AND DUP3 PUSH20 0xFFFFFFFFFFFFFFFFFFFFFFFFFFFFFFFFFFFFFFFF AND SUB PUSH2 0x43E JUMPI DUP1 PUSH1 0x2 PUSH0 DUP3 DUP3 SLOAD SUB SWAP3 POP POP DUP2 SWAP1 SSTORE POP PUSH2 0x488 JUMP JUMPDEST DUP1 PUSH0 DUP1 DUP5 PUSH20 0xFFFFFFFFFFFFFFFFFFFFFFFFFFFFFFFFFFFFFFFF AND PUSH20 0xFFFFFFFFFFFFFFFFFFFFFFFFFFFFFFFFFFFFFFFF AND DUP2 MSTORE PUSH1 0x20 ADD SWAP1 DUP2 MSTORE PUSH1 0x20 ADD PUSH0 KECCAK256 PUSH0 DUP3 DUP3 SLOAD ADD SWAP3 POP POP DUP2 SWAP1 SSTORE POP JUMPDEST DUP2 PUSH20 0xFFFFFFFFFFFFFFFFFFFFFFFFFFFFFFFFFFFFFFFF AND DUP4 PUSH20 0xFFFFFFFFFFFFFFFFFFFFFFFFFFFFFFFFFFFFFFFF AND PUSH32 0xDDF252AD1BE2C89B69C2B068FC378DAA952BA7F163C4A11628F55A4DF523B3EF DUP4 PUSH1 0x40 MLOAD PUSH2 0x4E5 SWAP2 SWAP1 PUSH2 0xC00 JUMP JUMPDEST PUSH1 0x40 MLOAD DUP1 SWAP2 SUB SWAP1 LOG3 POP POP POP JUMP JUMPDEST PUSH0 PUSH1 0x40 MLOAD SWAP1 POP SWAP1 JUMP JUMPDEST PUSH0 DUP1 REVERT JUMPDEST PUSH0 DUP1 REVERT JUMPDEST PUSH0 DUP1 REVERT JUMPDEST PUSH0 DUP1 REVERT JUMPDEST PUSH0 PUSH1 0x1F NOT PUSH1 0x1F DUP4 ADD AND SWAP1 POP SWAP2 SWAP1 POP JUMP JUMPDEST PUSH32 0x4E487B7100000000000000000000000000000000000000000000000000000000 PUSH0 MSTORE PUSH1 0x41 PUSH1 0x4 MSTORE PUSH1 0x24 PUSH0 REVERT JUMPDEST PUSH2 0x551 DUP3 PUSH2 0x50B JUMP JUMPDEST DUP2 ADD DUP2 DUP2 LT PUSH8 0xFFFFFFFFFFFFFFFF DUP3 GT OR ISZERO PUSH2 0x570 JUMPI PUSH2 0x56F PUSH2 0x51B JUMP JUMPDEST JUMPDEST DUP1 PUSH1 0x40 MSTORE POP POP POP JUMP JUMPDEST PUSH0 PUSH2 0x582 PUSH2 0x4F2 JUMP JUMPDEST SWAP1 POP PUSH2 0x58E DUP3 DUP3 PUSH2 0x548 JUMP JUMPDEST SWAP2 SWAP1 POP JUMP JUMPDEST PUSH0 PUSH8 0xFFFFFFFFFFFFFFFF DUP3 GT ISZERO PUSH2 0x5AD JUMPI PUSH2 0x5AC PUSH2 0x51B JUMP JUMPDEST JUMPDEST PUSH2 0x5B6 DUP3 PUSH2 0x50B JUMP JUMPDEST SWAP1 POP PUSH1 0x20 DUP2 ADD SWAP1 POP SWAP2 SWAP1 POP JUMP JUMPDEST DUP3 DUP2 DUP4 MCOPY PUSH0 DUP4 DUP4 ADD MSTORE POP POP POP JUMP JUMPDEST PUSH0 PUSH2 0x5E3 PUSH2 0x5DE DUP5 PUSH2 0x593 JUMP JUMPDEST PUSH2 0x579 JUMP JUMPDEST SWAP1 POP DUP3 DUP2 MSTORE PUSH1 0x20 DUP2 ADD DUP5 DUP5 DUP5 ADD GT ISZERO PUSH2 0x5FF JUMPI PUSH2 0x5FE PUSH2 0x507 JUMP JUMPDEST JUMPDEST PUSH2 0x60A DUP5 DUP3 DUP6 PUSH2 0x5C3 JUMP JUMPDEST POP SWAP4 SWAP3 POP POP POP JUMP JUMPDEST PUSH0 DUP3 PUSH1 0x1F DUP4 ADD SLT PUSH2 0x626 JUMPI PUSH2 0x625 PUSH2 0x503 JUMP JUMPDEST JUMPDEST DUP2 MLOAD PUSH2 0x636 DUP5 DUP3 PUSH1 0x20 DUP7 ADD PUSH2 0x5D1 JUMP JUMPDEST SWAP2 POP POP SWAP3 SWAP2 POP POP JUMP JUMPDEST PUSH0 DUP2 SWAP1 POP SWAP2 SWAP1 POP JUMP JUMPDEST PUSH2 0x651 DUP2 PUSH2 0x63F JUMP JUMPDEST DUP2 EQ PUSH2 0x65B JUMPI PUSH0 DUP1 REVERT JUMPDEST POP JUMP JUMPDEST PUSH0 DUP2 MLOAD SWAP1 POP PUSH2 0x66C DUP2 PUSH2 0x648 JUMP JUMPDEST SWAP3 SWAP2 POP POP JUMP JUMPDEST PUSH0 PUSH1 0xFF DUP3 AND SWAP1 POP SWAP2 SWAP1 POP JUMP JUMPDEST PUSH2 0x687 DUP2 PUSH2 0x672 JUMP JUMPDEST DUP2 EQ PUSH2 0x691 JUMPI PUSH0 DUP1 REVERT JUMPDEST POP JUMP JUMPDEST PUSH0 DUP2 MLOAD SWAP1 POP PUSH2 0x6A2 DUP2 PUSH2 0x67E JUMP JUMPDEST SWAP3 SWAP2 POP POP JUMP JUMPDEST PUSH0 PUSH20 0xFFFFFFFFFFFFFFFFFFFFFFFFFFFFFFFFFFFFFFFF DUP3 AND SWAP1 POP SWAP2 SWAP1 POP JUMP JUMPDEST PUSH0 PUSH2 0x6D1 DUP3 PUSH2 0x6A8 JUMP JUMPDEST SWAP1 POP SWAP2 SWAP1 POP JUMP JUMPDEST PUSH2 0x6E1 DUP2 PUSH2 0x6C7 JUMP JUMPDEST DUP2 EQ PUSH2 0x6EB JUMPI PUSH0 DUP1 REVERT JUMPDEST POP JUMP JUMPDEST PUSH0 DUP2 MLOAD SWAP1 POP PUSH2 0x6FC DUP2 PUSH2 0x6D8 JUMP JUMPDEST SWAP3 SWAP2 POP POP JUMP JUMPDEST PUSH0 DUP1 PUSH0 DUP1 PUSH0 DUP1 PUSH1 0xC0 DUP8 DUP10 SUB SLT ISZERO PUSH2 0x71C JUMPI PUSH2 0x71B PUSH2 0x4FB JUMP JUMPDEST JUMPDEST PUSH0 DUP8 ADD MLOAD PUSH8 0xFFFFFFFFFFFFFFFF DUP2 GT ISZERO PUSH2 0x739 JUMPI PUSH2 0x738 PUSH2 0x4FF JUMP JUMPDEST JUMPDEST PUSH2 0x745 DUP10 DUP3 DUP11 ADD PUSH2 0x612 JUMP JUMPDEST SWAP7 POP POP PUSH1 0x20 DUP8 ADD MLOAD PUSH8 0xFFFFFFFFFFFFFFFF DUP2 GT ISZERO PUSH2 0x766 JUMPI PUSH2 0x765 PUSH2 0x4FF JUMP JUMPDEST JUMPDEST PUSH2 0x772 DUP10 DUP3 DUP11 ADD PUSH2 0x612 JUMP JUMPDEST SWAP6 POP POP PUSH1 0x40 PUSH2 0x783 DUP10 DUP3 DUP11 ADD PUSH2 0x65E JUMP JUMPDEST SWAP5 POP POP PUSH1 0x60 PUSH2 0x794 DUP10 DUP3 DUP11 ADD PUSH2 0x65E JUMP JUMPDEST SWAP4 POP POP PUSH1 0x80 PUSH2 0x7A5 DUP10 DUP3 DUP11 ADD PUSH2 0x694 JUMP JUMPDEST SWAP3 POP POP PUSH1 0xA0 PUSH2 0x7B6 DUP10 DUP3 DUP11 ADD PUSH2 0x6EE JUMP JUMPDEST SWAP2 POP POP SWAP3 SWAP6 POP SWAP3 SWAP6 POP SWAP3 SWAP6 JUMP JUMPDEST PUSH0 DUP2 MLOAD SWAP1 POP SWAP2 SWAP1 POP JUMP JUMPDEST PUSH32 0x4E487B7100000000000000000000000000000000000000000000000000000000 PUSH0 MSTORE PUSH1 0x22 PUSH1 0x4 MSTORE PUSH1 0x24 PUSH0 REVERT JUMPDEST PUSH0 PUSH1 0x2 DUP3 DIV SWAP1 POP PUSH1 0x1 DUP3 AND DUP1 PUSH2 0x811 JUMPI PUSH1 0x7F DUP3 AND SWAP2 POP JUMPDEST PUSH1 0x20 DUP3 LT DUP2 SUB PUSH2 0x824 JUMPI PUSH2 0x823 PUSH2 0x7CD JUMP JUMPDEST JUMPDEST POP SWAP2 SWAP1 POP JUMP JUMPDEST PUSH0 DUP2 SWAP1 POP DUP2 PUSH0 MSTORE PUSH1 0x20 PUSH0 KECCAK256 SWAP1 POP SWAP2 SWAP1 POP JUMP JUMPDEST PUSH0 PUSH1 0x20 PUSH1 0x1F DUP4 ADD DIV SWAP1 POP SWAP2 SWAP1 POP JUMP JUMPDEST PUSH0 DUP3 DUP3 SHL SWAP1 POP SWAP3 SWAP2 POP POP JUMP JUMPDEST PUSH0 PUSH1 0x8 DUP4 MUL PUSH2 0x886 PUSH32 0xFFFFFFFFFFFFFFFFFFFFFFFFFFFFFFFFFFFFFFFFFFFFFFFFFFFFFFFFFFFFFFFF DUP3 PUSH2 0x84B JUMP JUMPDEST PUSH2 0x890 DUP7 DUP4 PUSH2 0x84B JUMP JUMPDEST SWAP6 POP DUP1 NOT DUP5 AND SWAP4 POP DUP1 DUP7 AND DUP5 OR SWAP3 POP POP POP SWAP4 SWAP3 POP POP POP JUMP JUMPDEST PUSH0 DUP2 SWAP1 POP SWAP2 SWAP1 POP JUMP JUMPDEST PUSH0 PUSH2 0x8CB PUSH2 0x8C6 PUSH2 0x8C1 DUP5 PUSH2 0x63F JUMP JUMPDEST PUSH2 0x8A8 JUMP JUMPDEST PUSH2 0x63F JUMP JUMPDEST SWAP1 POP SWAP2 SWAP1 POP JUMP JUMPDEST PUSH0 DUP2 SWAP1 POP SWAP2 SWAP1 POP JUMP JUMPDEST PUSH2 0x8E4 DUP4 PUSH2 0x8B1 JUMP JUMPDEST PUSH2 0x8F8 PUSH2 0x8F0 DUP3 PUSH2 0x8D2 JUMP JUMPDEST DUP5 DUP5 SLOAD PUSH2 0x857 JUMP JUMPDEST DUP3 SSTORE POP POP POP POP JUMP JUMPDEST PUSH0 SWAP1 JUMP JUMPDEST PUSH2 0x90C PUSH2 0x900 JUMP JUMPDEST PUSH2 0x917 DUP2 DUP5 DUP5 PUSH2 0x8DB JUMP JUMPDEST POP POP POP JUMP JUMPDEST JUMPDEST DUP2 DUP2 LT ISZERO PUSH2 0x93A JUMPI PUSH2 0x92F PUSH0 DUP3 PUSH2 0x904 JUMP JUMPDEST PUSH1 0x1 DUP2 ADD SWAP1 POP PUSH2 0x91D JUMP JUMPDEST POP POP JUMP JUMPDEST PUSH1 0x1F DUP3 GT ISZERO PUSH2 0x97F JUMPI PUSH2 0x950 DUP2 PUSH2 0x82A JUMP JUMPDEST PUSH2 0x959 DUP5 PUSH2 0x83C JUMP JUMPDEST DUP2 ADD PUSH1 0x20 DUP6 LT ISZERO PUSH2 0x968 JUMPI DUP2 SWAP1 POP JUMPDEST PUSH2 0x97C PUSH2 0x974 DUP6 PUSH2 0x83C JUMP JUMPDEST DUP4 ADD DUP3 PUSH2 0x91C JUMP JUMPDEST POP POP JUMPDEST POP POP POP JUMP JUMPDEST PUSH0 DUP3 DUP3 SHR SWAP1 POP SWAP3 SWAP2 POP POP JUMP JUMPDEST PUSH0 PUSH2 0x99F PUSH0 NOT DUP5 PUSH1 0x8 MUL PUSH2 0x984 JUMP JUMPDEST NOT DUP1 DUP4 AND SWAP2 POP POP SWAP3 SWAP2 POP POP JUMP JUMPDEST PUSH0 PUSH2 0x9B7 DUP4 DUP4 PUSH2 0x990 JUMP JUMPDEST SWAP2 POP DUP3 PUSH1 0x2 MUL DUP3 OR SWAP1 POP SWAP3 SWAP2 POP POP JUMP JUMPDEST PUSH2 0x9D0 DUP3 PUSH2 0x7C3 JUMP JUMPDEST PUSH8 0xFFFFFFFFFFFFFFFF DUP2 GT ISZERO PUSH2 0x9E9 JUMPI PUSH2 0x9E8 PUSH2 0x51B JUMP JUMPDEST JUMPDEST PUSH2 0x9F3 DUP3 SLOAD PUSH2 0x7FA JUMP JUMPDEST PUSH2 0x9FE DUP3 DUP3 DUP6 PUSH2 0x93E JUMP JUMPDEST PUSH0 PUSH1 0x20 SWAP1 POP PUSH1 0x1F DUP4 GT PUSH1 0x1 DUP2 EQ PUSH2 0xA2F JUMPI PUSH0 DUP5 ISZERO PUSH2 0xA1D JUMPI DUP3 DUP8 ADD MLOAD SWAP1 POP JUMPDEST PUSH2 0xA27 DUP6 DUP3 PUSH2 0x9AC JUMP JUMPDEST DUP7 SSTORE POP PUSH2 0xA8E JUMP JUMPDEST PUSH1 0x1F NOT DUP5 AND PUSH2 0xA3D DUP7 PUSH2 0x82A JUMP JUMPDEST PUSH0 JUMPDEST DUP3 DUP2 LT ISZERO PUSH2 0xA64 JUMPI DUP5 DUP10 ADD MLOAD DUP3 SSTORE PUSH1 0x1 DUP3 ADD SWAP2 POP PUSH1 0x20 DUP6 ADD SWAP5 POP PUSH1 0x20 DUP2 ADD SWAP1 POP PUSH2 0xA3F JUMP JUMPDEST DUP7 DUP4 LT ISZERO PUSH2 0xA81 JUMPI DUP5 DUP10 ADD MLOAD PUSH2 0xA7D PUSH1 0x1F DUP10 AND DUP3 PUSH2 0x990 JUMP JUMPDEST DUP4 SSTORE POP JUMPDEST PUSH1 0x1 PUSH1 0x2 DUP9 MUL ADD DUP9 SSTORE POP POP POP JUMPDEST POP POP POP POP POP POP JUMP JUMPDEST PUSH2 0xA9F DUP2 PUSH2 0x6C7 JUMP JUMPDEST DUP3 MSTORE POP POP JUMP JUMPDEST PUSH0 PUSH1 0x20 DUP3 ADD SWAP1 POP PUSH2 0xAB8 PUSH0 DUP4 ADD DUP5 PUSH2 0xA96 JUMP JUMPDEST SWAP3 SWAP2 POP POP JUMP JUMPDEST PUSH0 DUP3 DUP3 MSTORE PUSH1 0x20 DUP3 ADD SWAP1 POP SWAP3 SWAP2 POP POP JUMP JUMPDEST PUSH32 0x496E697469616C20737570706C792063616E6E6F74206265206D6F7265207468 PUSH0 DUP3 ADD MSTORE PUSH32 0x616E206D617820737570706C792E000000000000000000000000000000000000 PUSH1 0x20 DUP3 ADD MSTORE POP JUMP JUMPDEST PUSH0 PUSH2 0xB28 PUSH1 0x2E DUP4 PUSH2 0xABE JUMP JUMPDEST SWAP2 POP PUSH2 0xB33 DUP3 PUSH2 0xACE JUMP JUMPDEST PUSH1 0x40 DUP3 ADD SWAP1 POP SWAP2 SWAP1 POP JUMP JUMPDEST PUSH0 PUSH1 0x20 DUP3 ADD SWAP1 POP DUP2 DUP2 SUB PUSH0 DUP4 ADD MSTORE PUSH2 0xB55 DUP2 PUSH2 0xB1C JUMP JUMPDEST SWAP1 POP SWAP2 SWAP1 POP JUMP JUMPDEST PUSH32 0x4E487B7100000000000000000000000000000000000000000000000000000000 PUSH0 MSTORE PUSH1 0x11 PUSH1 0x4 MSTORE PUSH1 0x24 PUSH0 REVERT JUMPDEST PUSH0 PUSH2 0xB93 DUP3 PUSH2 0x63F JUMP JUMPDEST SWAP2 POP PUSH2 0xB9E DUP4 PUSH2 0x63F JUMP JUMPDEST SWAP3 POP DUP3 DUP3 ADD SWAP1 POP DUP1 DUP3 GT ISZERO PUSH2 0xBB6 JUMPI PUSH2 0xBB5 PUSH2 0xB5C JUMP JUMPDEST JUMPDEST SWAP3 SWAP2 POP POP JUMP JUMPDEST PUSH2 0xBC5 DUP2 PUSH2 0x63F JUMP JUMPDEST DUP3 MSTORE POP POP JUMP JUMPDEST PUSH0 PUSH1 0x60 DUP3 ADD SWAP1 POP PUSH2 0xBDE PUSH0 DUP4 ADD DUP7 PUSH2 0xA96 JUMP JUMPDEST PUSH2 0xBEB PUSH1 0x20 DUP4 ADD DUP6 PUSH2 0xBBC JUMP JUMPDEST PUSH2 0xBF8 PUSH1 0x40 DUP4 ADD DUP5 PUSH2 0xBBC JUMP JUMPDEST SWAP5 SWAP4 POP POP POP POP JUMP JUMPDEST PUSH0 PUSH1 0x20 DUP3 ADD SWAP1 POP PUSH2 0xC13 PUSH0 DUP4 ADD DUP5 PUSH2 0xBBC JUMP JUMPDEST SWAP3 SWAP2 POP POP JUMP JUMPDEST PUSH2 0x2201 DUP1 PUSH2 0xC26 PUSH0 CODECOPY PUSH0 RETURN INVALID PUSH1 0x80 PUSH1 0x40 MSTORE CALLVALUE DUP1 ISZERO PUSH2 0xF JUMPI PUSH0 DUP1 REVERT JUMPDEST POP PUSH1 0x4 CALLDATASIZE LT PUSH2 0x18C JUMPI PUSH0 CALLDATALOAD PUSH1 0xE0 SHR DUP1 PUSH4 0x715018A6 GT PUSH2 0xDC JUMPI DUP1 PUSH4 0xA9059CBB GT PUSH2 0x95 JUMPI DUP1 PUSH4 0xD5ABEB01 GT PUSH2 0x6F JUMPI DUP1 PUSH4 0xD5ABEB01 EQ PUSH2 0x3FC JUMPI DUP1 PUSH4 0xD82E3962 EQ PUSH2 0x41A JUMPI DUP1 PUSH4 0xDD62ED3E EQ PUSH2 0x44A JUMPI DUP1 PUSH4 0xF2FDE38B EQ PUSH2 0x47A JUMPI PUSH2 0x18C JUMP JUMPDEST DUP1 PUSH4 0xA9059CBB EQ PUSH2 0x394 JUMPI DUP1 PUSH4 0xAFE8289A EQ PUSH2 0x3C4 JUMPI DUP1 PUSH4 0xC8052107 EQ PUSH2 0x3E0 JUMPI PUSH2 0x18C JUMP JUMPDEST DUP1 PUSH4 0x715018A6 EQ PUSH2 0x31E JUMPI DUP1 PUSH4 0x79CC6790 EQ PUSH2 0x328 JUMPI DUP1 PUSH4 0x8456CB59 EQ PUSH2 0x344 JUMPI DUP1 PUSH4 0x8DA5CB5B EQ PUSH2 0x34E JUMPI DUP1 PUSH4 0x95D89B41 EQ PUSH2 0x36C JUMPI DUP1 PUSH4 0xA64254C3 EQ PUSH2 0x38A JUMPI PUSH2 0x18C JUMP JUMPDEST DUP1 PUSH4 0x313CE567 GT PUSH2 0x149 JUMPI DUP1 PUSH4 0x51C6590A GT PUSH2 0x123 JUMPI DUP1 PUSH4 0x51C6590A EQ PUSH2 0x296 JUMPI DUP1 PUSH4 0x52756986 EQ PUSH2 0x2B2 JUMPI DUP1 PUSH4 0x5C975ABB EQ PUSH2 0x2D0 JUMPI DUP1 PUSH4 0x70A08231 EQ PUSH2 0x2EE JUMPI PUSH2 0x18C JUMP JUMPDEST DUP1 PUSH4 0x313CE567 EQ PUSH2 0x252 JUMPI DUP1 PUSH4 0x3F4BA83A EQ PUSH2 0x270 JUMPI DUP1 PUSH4 0x42966C68 EQ PUSH2 0x27A JUMPI PUSH2 0x18C JUMP JUMPDEST DUP1 PUSH4 0x6FDDE03 EQ PUSH2 0x190 JUMPI DUP1 PUSH4 0x95EA7B3 EQ PUSH2 0x1AE JUMPI DUP1 PUSH4 0x18160DDD EQ PUSH2 0x1DE JUMPI DUP1 PUSH4 0x21208FA2 EQ PUSH2 0x1FC JUMPI DUP1 PUSH4 0x2254B79C EQ PUSH2 0x206 JUMPI DUP1 PUSH4 0x23B872DD EQ PUSH2 0x222 JUMPI JUMPDEST PUSH0 DUP1 REVERT JUMPDEST PUSH2 0x198 PUSH2 0x496 JUMP JUMPDEST PUSH1 0x40 MLOAD PUSH2 0x1A5 SWAP2 SWAP1 PUSH2 0x19F2 JUMP JUMPDEST PUSH1 0x40 MLOAD DUP1 SWAP2 SUB SWAP1 RETURN JUMPDEST PUSH2 0x1C8 PUSH1 0x4 DUP1 CALLDATASIZE SUB DUP2 ADD SWAP1 PUSH2 0x1C3 SWAP2 SWAP1 PUSH2 0x1AA3 JUMP JUMPDEST PUSH2 0x526 JUMP JUMPDEST PUSH1 0x40 MLOAD PUSH2 0x1D5 SWAP2 SWAP1 PUSH2 0x1AFB JUMP JUMPDEST PUSH1 0x40 MLOAD DUP1 SWAP2 SUB SWAP1 RETURN JUMPDEST PUSH2 0x1E6 PUSH2 0x548 JUMP JUMPDEST PUSH1 0x40 MLOAD PUSH2 0x1F3 SWAP2 SWAP1 PUSH2 0x1B23 JUMP JUMPDEST PUSH1 0x40 MLOAD DUP1 SWAP2 SUB SWAP1 RETURN JUMPDEST PUSH2 0x204 PUSH2 0x551 JUMP JUMPDEST STOP JUMPDEST PUSH2 0x220 PUSH1 0x4 DUP1 CALLDATASIZE SUB DUP2 ADD SWAP1 PUSH2 0x21B SWAP2 SWAP1 PUSH2 0x1B3C JUMP JUMPDEST PUSH2 0x574 JUMP JUMPDEST STOP JUMPDEST PUSH2 0x23C PUSH1 0x4 DUP1 CALLDATASIZE SUB DUP2 ADD SWAP1 PUSH2 0x237 SWAP2 SWAP1 PUSH2 0x1B67 JUMP JUMPDEST PUSH2 0x717 JUMP JUMPDEST PUSH1 0x40 MLOAD PUSH2 0x249 SWAP2 SWAP1 PUSH2 0x1AFB JUMP JUMPDEST PUSH1 0x40 MLOAD DUP1 SWAP2 SUB SWAP1 RETURN JUMPDEST PUSH2 0x25A PUSH2 0x745 JUMP JUMPDEST PUSH1 0x40 MLOAD PUSH2 0x267 SWAP2 SWAP1 PUSH2 0x1BD2 JUMP JUMPDEST PUSH1 0x40 MLOAD DUP1 SWAP2 SUB SWAP1 RETURN JUMPDEST PUSH2 0x278 PUSH2 0x75A JUMP JUMPDEST STOP JUMPDEST PUSH2 0x294 PUSH1 0x4 DUP1 CALLDATASIZE SUB DUP2 ADD SWAP1 PUSH2 0x28F SWAP2 SWAP1 PUSH2 0x1B3C JUMP JUMPDEST PUSH2 0x76C JUMP JUMPDEST STOP JUMPDEST PUSH2 0x2B0 PUSH1 0x4 DUP1 CALLDATASIZE SUB DUP2 ADD SWAP1 PUSH2 0x2AB SWAP2 SWAP1 PUSH2 0x1B3C JUMP JUMPDEST PUSH2 0x780 JUMP JUMPDEST STOP JUMPDEST PUSH2 0x2BA PUSH2 0x823 JUMP JUMPDEST PUSH1 0x40 MLOAD PUSH2 0x2C7 SWAP2 SWAP1 PUSH2 0x1BD2 JUMP JUMPDEST PUSH1 0x40 MLOAD DUP1 SWAP2 SUB SWAP1 RETURN JUMPDEST PUSH2 0x2D8 PUSH2 0x835 JUMP JUMPDEST PUSH1 0x40 MLOAD PUSH2 0x2E5 SWAP2 SWAP1 PUSH2 0x1AFB JUMP JUMPDEST PUSH1 0x40 MLOAD DUP1 SWAP2 SUB SWAP1 RETURN JUMPDEST PUSH2 0x308 PUSH1 0x4 DUP1 CALLDATASIZE SUB DUP2 ADD SWAP1 PUSH2 0x303 SWAP2 SWAP1 PUSH2 0x1BEB JUMP JUMPDEST PUSH2 0x84A JUMP JUMPDEST PUSH1 0x40 MLOAD PUSH2 0x315 SWAP2 SWAP1 PUSH2 0x1B23 JUMP JUMPDEST PUSH1 0x40 MLOAD DUP1 SWAP2 SUB SWAP1 RETURN JUMPDEST PUSH2 0x326 PUSH2 0x88F JUMP JUMPDEST STOP JUMPDEST PUSH2 0x342 PUSH1 0x4 DUP1 CALLDATASIZE SUB DUP2 ADD SWAP1 PUSH2 0x33D SWAP2 SWAP1 PUSH2 0x1AA3 JUMP JUMPDEST PUSH2 0x8A2 JUMP JUMPDEST STOP JUMPDEST PUSH2 0x34C PUSH2 0x8C2 JUMP JUMPDEST STOP JUMPDEST PUSH2 0x356 PUSH2 0x8D4 JUMP JUMPDEST PUSH1 0x40 MLOAD PUSH2 0x363 SWAP2 SWAP1 PUSH2 0x1C25 JUMP JUMPDEST PUSH1 0x40 MLOAD DUP1 SWAP2 SUB SWAP1 RETURN JUMPDEST PUSH2 0x374 PUSH2 0x8FD JUMP JUMPDEST PUSH1 0x40 MLOAD PUSH2 0x381 SWAP2 SWAP1 PUSH2 0x19F2 JUMP JUMPDEST PUSH1 0x40 MLOAD DUP1 SWAP2 SUB SWAP1 RETURN JUMPDEST PUSH2 0x392 PUSH2 0x98D JUMP JUMPDEST STOP JUMPDEST PUSH2 0x3AE PUSH1 0x4 DUP1 CALLDATASIZE SUB DUP2 ADD SWAP1 PUSH2 0x3A9 SWAP2 SWAP1 PUSH2 0x1AA3 JUMP JUMPDEST PUSH2 0x9B1 JUMP JUMPDEST PUSH1 0x40 MLOAD PUSH2 0x3BB SWAP2 SWAP1 PUSH2 0x1AFB JUMP JUMPDEST PUSH1 0x40 MLOAD DUP1 SWAP2 SUB SWAP1 RETURN JUMPDEST PUSH2 0x3DE PUSH1 0x4 DUP1 CALLDATASIZE SUB DUP2 ADD SWAP1 PUSH2 0x3D9 SWAP2 SWAP1 PUSH2 0x1B3C JUMP JUMPDEST PUSH2 0x9D3 JUMP JUMPDEST STOP JUMPDEST PUSH2 0x3FA PUSH1 0x4 DUP1 CALLDATASIZE SUB DUP2 ADD SWAP1 PUSH2 0x3F5 SWAP2 SWAP1 PUSH2 0x1B3C JUMP JUMPDEST PUSH2 0xA8B JUMP JUMPDEST STOP JUMPDEST PUSH2 0x404 PUSH2 0xD46 JUMP JUMPDEST PUSH1 0x40 MLOAD PUSH2 0x411 SWAP2 SWAP1 PUSH2 0x1B23 JUMP JUMPDEST PUSH1 0x40 MLOAD DUP1 SWAP2 SUB SWAP1 RETURN JUMPDEST PUSH2 0x434 PUSH1 0x4 DUP1 CALLDATASIZE SUB DUP2 ADD SWAP1 PUSH2 0x42F SWAP2 SWAP1 PUSH2 0x1BEB JUMP JUMPDEST PUSH2 0xD4C JUMP JUMPDEST PUSH1 0x40 MLOAD PUSH2 0x441 SWAP2 SWAP1 PUSH2 0x1B23 JUMP JUMPDEST PUSH1 0x40 MLOAD DUP1 SWAP2 SUB SWAP1 RETURN JUMPDEST PUSH2 0x464 PUSH1 0x4 DUP1 CALLDATASIZE SUB DUP2 ADD SWAP1 PUSH2 0x45F SWAP2 SWAP1 PUSH2 0x1C3E JUMP JUMPDEST PUSH2 0xE27 JUMP JUMPDEST PUSH1 0x40 MLOAD PUSH2 0x471 SWAP2 SWAP1 PUSH2 0x1B23 JUMP JUMPDEST PUSH1 0x40 MLOAD DUP1 SWAP2 SUB SWAP1 RETURN JUMPDEST PUSH2 0x494 PUSH1 0x4 DUP1 CALLDATASIZE SUB DUP2 ADD SWAP1 PUSH2 0x48F SWAP2 SWAP1 PUSH2 0x1BEB JUMP JUMPDEST PUSH2 0xEA9 JUMP JUMPDEST STOP JUMPDEST PUSH1 0x60 PUSH1 0x3 DUP1 SLOAD PUSH2 0x4A5 SWAP1 PUSH2 0x1CA9 JUMP JUMPDEST DUP1 PUSH1 0x1F ADD PUSH1 0x20 DUP1 SWAP2 DIV MUL PUSH1 0x20 ADD PUSH1 0x40 MLOAD SWAP1 DUP2 ADD PUSH1 0x40 MSTORE DUP1 SWAP3 SWAP2 SWAP1 DUP2 DUP2 MSTORE PUSH1 0x20 ADD DUP3 DUP1 SLOAD PUSH2 0x4D1 SWAP1 PUSH2 0x1CA9 JUMP JUMPDEST DUP1 ISZERO PUSH2 0x51C JUMPI DUP1 PUSH1 0x1F LT PUSH2 0x4F3 JUMPI PUSH2 0x100 DUP1 DUP4 SLOAD DIV MUL DUP4 MSTORE SWAP2 PUSH1 0x20 ADD SWAP2 PUSH2 0x51C JUMP JUMPDEST DUP3 ADD SWAP2 SWAP1 PUSH0 MSTORE PUSH1 0x20 PUSH0 KECCAK256 SWAP1 JUMPDEST DUP2 SLOAD DUP2 MSTORE SWAP1 PUSH1 0x1 ADD SWAP1 PUSH1 0x20 ADD DUP1 DUP4 GT PUSH2 0x4FF JUMPI DUP3 SWAP1 SUB PUSH1 0x1F AND DUP3 ADD SWAP2 JUMPDEST POP POP POP POP POP SWAP1 POP SWAP1 JUMP JUMPDEST PUSH0 DUP1 PUSH2 0x530 PUSH2 0xF2D JUMP JUMPDEST SWAP1 POP PUSH2 0x53D DUP2 DUP6 DUP6 PUSH2 0xF34 JUMP JUMPDEST PUSH1 0x1 SWAP2 POP POP SWAP3 SWAP2 POP POP JUMP JUMPDEST PUSH0 PUSH1 0x2 SLOAD SWAP1 POP SWAP1 JUMP JUMPDEST PUSH2 0x559 PUSH2 0xF46 JUMP JUMPDEST PUSH0 PUSH1 0xB PUSH0 PUSH2 0x100 EXP DUP2 SLOAD DUP2 PUSH1 0xFF MUL NOT AND SWAP1 DUP4 ISZERO ISZERO MUL OR SWAP1 SSTORE POP JUMP JUMPDEST PUSH2 0x57C PUSH2 0xF46 JUMP JUMPDEST PUSH2 0x584 PUSH2 0xFCD JUMP JUMPDEST PUSH1 0x9 PUSH0 PUSH2 0x58F PUSH2 0x8D4 JUMP JUMPDEST PUSH20 0xFFFFFFFFFFFFFFFFFFFFFFFFFFFFFFFFFFFFFFFF AND PUSH20 0xFFFFFFFFFFFFFFFFFFFFFFFFFFFFFFFFFFFFFFFF AND DUP2 MSTORE PUSH1 0x20 ADD SWAP1 DUP2 MSTORE PUSH1 0x20 ADD PUSH0 KECCAK256 SLOAD DUP2 GT ISZERO PUSH2 0x60B JUMPI PUSH1 0x40 MLOAD PUSH32 0x8C379A000000000000000000000000000000000000000000000000000000000 DUP2 MSTORE PUSH1 0x4 ADD PUSH2 0x602 SWAP1 PUSH2 0x1D23 JUMP JUMPDEST PUSH1 0x40 MLOAD DUP1 SWAP2 SUB SWAP1 REVERT JUMPDEST DUP1 PUSH1 0x9 PUSH0 PUSH2 0x617 PUSH2 0x8D4 JUMP JUMPDEST PUSH20 0xFFFFFFFFFFFFFFFFFFFFFFFFFFFFFFFFFFFFFFFF AND PUSH20 0xFFFFFFFFFFFFFFFFFFFFFFFFFFFFFFFFFFFFFFFF AND DUP2 MSTORE PUSH1 0x20 ADD SWAP1 DUP2 MSTORE PUSH1 0x20 ADD PUSH0 KECCAK256 PUSH0 DUP3 DUP3 SLOAD PUSH2 0x65E SWAP2 SWAP1 PUSH2 0x1D6E JUMP JUMPDEST SWAP3 POP POP DUP2 SWAP1 SSTORE POP PUSH0 PUSH1 0x9 PUSH0 PUSH2 0x671 PUSH2 0x8D4 JUMP JUMPDEST PUSH20 0xFFFFFFFFFFFFFFFFFFFFFFFFFFFFFFFFFFFFFFFF AND PUSH20 0xFFFFFFFFFFFFFFFFFFFFFFFFFFFFFFFFFFFFFFFF AND DUP2 MSTORE PUSH1 0x20 ADD SWAP1 DUP2 MSTORE PUSH1 0x20 ADD PUSH0 KECCAK256 SLOAD SUB PUSH2 0x6FA JUMPI PUSH0 PUSH1 0xA PUSH0 PUSH2 0x6BC PUSH2 0x8D4 JUMP JUMPDEST PUSH20 0xFFFFFFFFFFFFFFFFFFFFFFFFFFFFFFFFFFFFFFFF AND PUSH20 0xFFFFFFFFFFFFFFFFFFFFFFFFFFFFFFFFFFFFFFFF AND DUP2 MSTORE PUSH1 0x20 ADD SWAP1 DUP2 MSTORE PUSH1 0x20 ADD PUSH0 KECCAK256 DUP2 SWAP1 SSTORE POP JUMPDEST PUSH2 0x70C ADDRESS PUSH2 0x706 PUSH2 0x8D4 JUMP JUMPDEST DUP4 PUSH2 0x101C JUMP JUMPDEST PUSH2 0x714 PUSH2 0x10F5 JUMP JUMPDEST POP JUMP JUMPDEST PUSH0 DUP1 PUSH2 0x721 PUSH2 0xF2D JUMP JUMPDEST SWAP1 POP PUSH2 0x72E DUP6 DUP3 DUP6 PUSH2 0x10FF JUMP JUMPDEST PUSH2 0x739 DUP6 DUP6 DUP6 PUSH2 0x101C JUMP JUMPDEST PUSH1 0x1 SWAP2 POP POP SWAP4 SWAP3 POP POP POP JUMP JUMPDEST PUSH0 PUSH1 0x8 PUSH0 SWAP1 SLOAD SWAP1 PUSH2 0x100 EXP SWAP1 DIV PUSH1 0xFF AND SWAP1 POP SWAP1 JUMP JUMPDEST PUSH2 0x762 PUSH2 0xF46 JUMP JUMPDEST PUSH2 0x76A PUSH2 0x1191 JUMP JUMPDEST JUMP JUMPDEST PUSH2 0x77D PUSH2 0x777 PUSH2 0xF2D JUMP JUMPDEST DUP3 PUSH2 0x11F2 JUMP JUMPDEST POP JUMP JUMPDEST PUSH2 0x78B CALLER ADDRESS DUP4 PUSH2 0x101C JUMP JUMPDEST DUP1 PUSH1 0x9 PUSH0 CALLER PUSH20 0xFFFFFFFFFFFFFFFFFFFFFFFFFFFFFFFFFFFFFFFF AND PUSH20 0xFFFFFFFFFFFFFFFFFFFFFFFFFFFFFFFFFFFFFFFF AND DUP2 MSTORE PUSH1 0x20 ADD SWAP1 DUP2 MSTORE PUSH1 0x20 ADD PUSH0 KECCAK256 PUSH0 DUP3 DUP3 SLOAD PUSH2 0x7D7 SWAP2 SWAP1 PUSH2 0x1DA1 JUMP JUMPDEST SWAP3 POP POP DUP2 SWAP1 SSTORE POP TIMESTAMP PUSH1 0xA PUSH0 CALLER PUSH20 0xFFFFFFFFFFFFFFFFFFFFFFFFFFFFFFFFFFFFFFFF AND PUSH20 0xFFFFFFFFFFFFFFFFFFFFFFFFFFFFFFFFFFFFFFFF AND DUP2 MSTORE PUSH1 0x20 ADD SWAP1 DUP2 MSTORE PUSH1 0x20 ADD PUSH0 KECCAK256 DUP2 SWAP1 SSTORE POP POP JUMP JUMPDEST PUSH1 0x8 PUSH0 SWAP1 SLOAD SWAP1 PUSH2 0x100 EXP SWAP1 DIV PUSH1 0xFF AND DUP2 JUMP JUMPDEST PUSH0 PUSH1 0x5 PUSH0 SWAP1 SLOAD SWAP1 PUSH2 0x100 EXP SWAP1 DIV PUSH1 0xFF AND SWAP1 POP SWAP1 JUMP JUMPDEST PUSH0 DUP1 PUSH0 DUP4 PUSH20 0xFFFFFFFFFFFFFFFFFFFFFFFFFFFFFFFFFFFFFFFF AND PUSH20 0xFFFFFFFFFFFFFFFFFFFFFFFFFFFFFFFFFFFFFFFF AND DUP2 MSTORE PUSH1 0x20 ADD SWAP1 DUP2 MSTORE PUSH1 0x20 ADD PUSH0 KECCAK256 SLOAD SWAP1 POP SWAP2 SWAP1 POP JUMP JUMPDEST PUSH2 0x897 PUSH2 0xF46 JUMP JUMPDEST PUSH2 0x8A0 PUSH0 PUSH2 0x1271 JUMP JUMPDEST JUMP JUMPDEST PUSH2 0x8B4 DUP3 PUSH2 0x8AE PUSH2 0xF2D JUMP JUMPDEST DUP4 PUSH2 0x10FF JUMP JUMPDEST PUSH2 0x8BE DUP3 DUP3 PUSH2 0x11F2 JUMP JUMPDEST POP POP JUMP JUMPDEST PUSH2 0x8CA PUSH2 0xF46 JUMP JUMPDEST PUSH2 0x8D2 PUSH2 0x1336 JUMP JUMPDEST JUMP JUMPDEST PUSH0 PUSH1 0x5 PUSH1 0x1 SWAP1 SLOAD SWAP1 PUSH2 0x100 EXP SWAP1 DIV PUSH20 0xFFFFFFFFFFFFFFFFFFFFFFFFFFFFFFFFFFFFFFFF AND SWAP1 POP SWAP1 JUMP JUMPDEST PUSH1 0x60 PUSH1 0x4 DUP1 SLOAD PUSH2 0x90C SWAP1 PUSH2 0x1CA9 JUMP JUMPDEST DUP1 PUSH1 0x1F ADD PUSH1 0x20 DUP1 SWAP2 DIV MUL PUSH1 0x20 ADD PUSH1 0x40 MLOAD SWAP1 DUP2 ADD PUSH1 0x40 MSTORE DUP1 SWAP3 SWAP2 SWAP1 DUP2 DUP2 MSTORE PUSH1 0x20 ADD DUP3 DUP1 SLOAD PUSH2 0x938 SWAP1 PUSH2 0x1CA9 JUMP JUMPDEST DUP1 ISZERO PUSH2 0x983 JUMPI DUP1 PUSH1 0x1F LT PUSH2 0x95A JUMPI PUSH2 0x100 DUP1 DUP4 SLOAD DIV MUL DUP4 MSTORE SWAP2 PUSH1 0x20 ADD SWAP2 PUSH2 0x983 JUMP JUMPDEST DUP3 ADD SWAP2 SWAP1 PUSH0 MSTORE PUSH1 0x20 PUSH0 KECCAK256 SWAP1 JUMPDEST DUP2 SLOAD DUP2 MSTORE SWAP1 PUSH1 0x1 ADD SWAP1 PUSH1 0x20 ADD DUP1 DUP4 GT PUSH2 0x966 JUMPI DUP3 SWAP1 SUB PUSH1 0x1F AND DUP3 ADD SWAP2 JUMPDEST POP POP POP POP POP SWAP1 POP SWAP1 JUMP JUMPDEST PUSH2 0x995 PUSH2 0xF46 JUMP JUMPDEST PUSH1 0x1 PUSH1 0xB PUSH0 PUSH2 0x100 EXP DUP2 SLOAD DUP2 PUSH1 0xFF MUL NOT AND SWAP1 DUP4 ISZERO ISZERO MUL OR SWAP1 SSTORE POP JUMP JUMPDEST PUSH0 DUP1 PUSH2 0x9BB PUSH2 0xF2D JUMP JUMPDEST SWAP1 POP PUSH2 0x9C8 DUP2 DUP6 DUP6 PUSH2 0x101C JUMP JUMPDEST PUSH1 0x1 SWAP2 POP POP SWAP3 SWAP2 POP POP JUMP JUMPDEST PUSH2 0x9DB PUSH2 0xF46 JUMP JUMPDEST DUP1 PUSH1 0x9 PUSH0 PUSH2 0x9E7 PUSH2 0x8D4 JUMP JUMPDEST PUSH20 0xFFFFFFFFFFFFFFFFFFFFFFFFFFFFFFFFFFFFFFFF AND PUSH20 0xFFFFFFFFFFFFFFFFFFFFFFFFFFFFFFFFFFFFFFFF AND DUP2 MSTORE PUSH1 0x20 ADD SWAP1 DUP2 MSTORE PUSH1 0x20 ADD PUSH0 KECCAK256 PUSH0 DUP3 DUP3 SLOAD PUSH2 0xA2E SWAP2 SWAP1 PUSH2 0x1DA1 JUMP JUMPDEST SWAP3 POP POP DUP2 SWAP1 SSTORE POP TIMESTAMP PUSH1 0xA PUSH0 PUSH2 0xA41 PUSH2 0x8D4 JUMP JUMPDEST PUSH20 0xFFFFFFFFFFFFFFFFFFFFFFFFFFFFFFFFFFFFFFFF AND PUSH20 0xFFFFFFFFFFFFFFFFFFFFFFFFFFFFFFFFFFFFFFFF AND DUP2 MSTORE PUSH1 0x20 ADD SWAP1 DUP2 MSTORE PUSH1 0x20 ADD PUSH0 KECCAK256 DUP2 SWAP1 SSTORE POP PUSH2 0xA88 ADDRESS DUP3 PUSH2 0x1398 JUMP JUMPDEST POP JUMP JUMPDEST PUSH2 0xA93 PUSH2 0xFCD JUMP JUMPDEST PUSH1 0x9 PUSH0 CALLER PUSH20 0xFFFFFFFFFFFFFFFFFFFFFFFFFFFFFFFFFFFFFFFF AND PUSH20 0xFFFFFFFFFFFFFFFFFFFFFFFFFFFFFFFFFFFFFFFF AND DUP2 MSTORE PUSH1 0x20 ADD SWAP1 DUP2 MSTORE PUSH1 0x20 ADD PUSH0 KECCAK256 SLOAD DUP2 GT ISZERO PUSH2 0xB13 JUMPI PUSH1 0x40 MLOAD PUSH32 0x8C379A000000000000000000000000000000000000000000000000000000000 DUP2 MSTORE PUSH1 0x4 ADD PUSH2 0xB0A SWAP1 PUSH2 0x1D23 JUMP JUMPDEST PUSH1 0x40 MLOAD DUP1 SWAP2 SUB SWAP1 REVERT JUMPDEST PUSH3 0x278D00 PUSH1 0xA PUSH0 CALLER PUSH20 0xFFFFFFFFFFFFFFFFFFFFFFFFFFFFFFFFFFFFFFFF AND PUSH20 0xFFFFFFFFFFFFFFFFFFFFFFFFFFFFFFFFFFFFFFFF AND DUP2 MSTORE PUSH1 0x20 ADD SWAP1 DUP2 MSTORE PUSH1 0x20 ADD PUSH0 KECCAK256 SLOAD PUSH2 0xB5F SWAP2 SWAP1 PUSH2 0x1DA1 JUMP JUMPDEST TIMESTAMP LT ISZERO PUSH2 0xBA1 JUMPI PUSH1 0x40 MLOAD PUSH32 0x8C379A000000000000000000000000000000000000000000000000000000000 DUP2 MSTORE PUSH1 0x4 ADD PUSH2 0xB98 SWAP1 PUSH2 0x1E6A JUMP JUMPDEST PUSH1 0x40 MLOAD DUP1 SWAP2 SUB SWAP1 REVERT JUMPDEST PUSH0 PUSH2 0xBAB CALLER PUSH2 0xD4C JUMP JUMPDEST SWAP1 POP PUSH1 0x7 SLOAD DUP2 PUSH2 0xBB9 PUSH2 0x548 JUMP JUMPDEST PUSH2 0xBC3 SWAP2 SWAP1 PUSH2 0x1DA1 JUMP JUMPDEST GT ISZERO PUSH2 0xC04 JUMPI PUSH1 0x40 MLOAD PUSH32 0x8C379A000000000000000000000000000000000000000000000000000000000 DUP2 MSTORE PUSH1 0x4 ADD PUSH2 0xBFB SWAP1 PUSH2 0x1ED2 JUMP JUMPDEST PUSH1 0x40 MLOAD DUP1 SWAP2 SUB SWAP1 REVERT JUMPDEST PUSH2 0xC0E CALLER DUP3 PUSH2 0x1398 JUMP JUMPDEST PUSH2 0xC19 ADDRESS CALLER DUP5 PUSH2 0x101C JUMP JUMPDEST DUP2 PUSH1 0x9 PUSH0 CALLER PUSH20 0xFFFFFFFFFFFFFFFFFFFFFFFFFFFFFFFFFFFFFFFF AND PUSH20 0xFFFFFFFFFFFFFFFFFFFFFFFFFFFFFFFFFFFFFFFF AND DUP2 MSTORE PUSH1 0x20 ADD SWAP1 DUP2 MSTORE PUSH1 0x20 ADD PUSH0 KECCAK256 PUSH0 DUP3 DUP3 SLOAD PUSH2 0xC65 SWAP2 SWAP1 PUSH2 0x1D6E JUMP JUMPDEST SWAP3 POP POP DUP2 SWAP1 SSTORE POP PUSH0 PUSH1 0x9 PUSH0 CALLER PUSH20 0xFFFFFFFFFFFFFFFFFFFFFFFFFFFFFFFFFFFFFFFF AND PUSH20 0xFFFFFFFFFFFFFFFFFFFFFFFFFFFFFFFFFFFFFFFF AND DUP2 MSTORE PUSH1 0x20 ADD SWAP1 DUP2 MSTORE PUSH1 0x20 ADD PUSH0 KECCAK256 SLOAD SUB PUSH2 0xCF7 JUMPI PUSH0 PUSH1 0xA PUSH0 CALLER PUSH20 0xFFFFFFFFFFFFFFFFFFFFFFFFFFFFFFFFFFFFFFFF AND PUSH20 0xFFFFFFFFFFFFFFFFFFFFFFFFFFFFFFFFFFFFFFFF AND DUP2 MSTORE PUSH1 0x20 ADD SWAP1 DUP2 MSTORE PUSH1 0x20 ADD PUSH0 KECCAK256 DUP2 SWAP1 SSTORE POP PUSH2 0xD3A JUMP JUMPDEST TIMESTAMP PUSH1 0xA PUSH0 CALLER PUSH20 0xFFFFFFFFFFFFFFFFFFFFFFFFFFFFFFFFFFFFFFFF AND PUSH20 0xFFFFFFFFFFFFFFFFFFFFFFFFFFFFFFFFFFFFFFFF AND DUP2 MSTORE PUSH1 0x20 ADD SWAP1 DUP2 MSTORE PUSH1 0x20 ADD PUSH0 KECCAK256 DUP2 SWAP1 SSTORE POP JUMPDEST POP PUSH2 0xD43 PUSH2 0x10F5 JUMP JUMPDEST POP JUMP JUMPDEST PUSH1 0x7 SLOAD DUP2 JUMP JUMPDEST PUSH0 PUSH3 0x278D00 PUSH1 0xA PUSH0 DUP5 PUSH20 0xFFFFFFFFFFFFFFFFFFFFFFFFFFFFFFFFFFFFFFFF AND PUSH20 0xFFFFFFFFFFFFFFFFFFFFFFFFFFFFFFFFFFFFFFFF AND DUP2 MSTORE PUSH1 0x20 ADD SWAP1 DUP2 MSTORE PUSH1 0x20 ADD PUSH0 KECCAK256 SLOAD PUSH2 0xD99 SWAP2 SWAP1 PUSH2 0x1DA1 JUMP JUMPDEST TIMESTAMP LT PUSH2 0xE1E JUMPI PUSH0 PUSH1 0x64 PUSH1 0x5 PUSH1 0x9 PUSH0 DUP7 PUSH20 0xFFFFFFFFFFFFFFFFFFFFFFFFFFFFFFFFFFFFFFFF AND PUSH20 0xFFFFFFFFFFFFFFFFFFFFFFFFFFFFFFFFFFFFFFFF AND DUP2 MSTORE PUSH1 0x20 ADD SWAP1 DUP2 MSTORE PUSH1 0x20 ADD PUSH0 KECCAK256 SLOAD PUSH2 0xDEC SWAP2 SWAP1 PUSH2 0x1EF0 JUMP JUMPDEST PUSH2 0xDF6 SWAP2 SWAP1 PUSH2 0x1F5E JUMP JUMPDEST SWAP1 POP PUSH1 0x7 SLOAD DUP2 PUSH2 0xE04 PUSH2 0x548 JUMP JUMPDEST PUSH2 0xE0E SWAP2 SWAP1 PUSH2 0x1DA1 JUMP JUMPDEST GT PUSH2 0xE1C JUMPI DUP1 SWAP2 POP POP PUSH2 0xE22 JUMP JUMPDEST POP JUMPDEST PUSH0 SWAP1 POP JUMPDEST SWAP2 SWAP1 POP JUMP JUMPDEST PUSH0 PUSH1 0x1 PUSH0 DUP5 PUSH20 0xFFFFFFFFFFFFFFFFFFFFFFFFFFFFFFFFFFFFFFFF AND PUSH20 0xFFFFFFFFFFFFFFFFFFFFFFFFFFFFFFFFFFFFFFFF AND DUP2 MSTORE PUSH1 0x20 ADD SWAP1 DUP2 MSTORE PUSH1 0x20 ADD PUSH0 KECCAK256 PUSH0 DUP4 PUSH20 0xFFFFFFFFFFFFFFFFFFFFFFFFFFFFFFFFFFFFFFFF AND PUSH20 0xFFFFFFFFFFFFFFFFFFFFFFFFFFFFFFFFFFFFFFFF AND DUP2 MSTORE PUSH1 0x20 ADD SWAP1 DUP2 MSTORE PUSH1 0x20 ADD PUSH0 KECCAK256 SLOAD SWAP1 POP SWAP3 SWAP2 POP POP JUMP JUMPDEST PUSH2 0xEB1 PUSH2 0xF46 JUMP JUMPDEST PUSH0 PUSH20 0xFFFFFFFFFFFFFFFFFFFFFFFFFFFFFFFFFFFFFFFF AND DUP2 PUSH20 0xFFFFFFFFFFFFFFFFFFFFFFFFFFFFFFFFFFFFFFFF AND SUB PUSH2 0xF21 JUMPI PUSH0 PUSH1 0x40 MLOAD PUSH32 0x1E4FBDF700000000000000000000000000000000000000000000000000000000 DUP2 MSTORE PUSH1 0x4 ADD PUSH2 0xF18 SWAP2 SWAP1 PUSH2 0x1C25 JUMP JUMPDEST PUSH1 0x40 MLOAD DUP1 SWAP2 SUB SWAP1 REVERT JUMPDEST PUSH2 0xF2A DUP2 PUSH2 0x1271 JUMP JUMPDEST POP JUMP JUMPDEST PUSH0 CALLER SWAP1 POP SWAP1 JUMP JUMPDEST PUSH2 0xF41 DUP4 DUP4 DUP4 PUSH1 0x1 PUSH2 0x1417 JUMP JUMPDEST POP POP POP JUMP JUMPDEST PUSH2 0xF4E PUSH2 0xF2D JUMP JUMPDEST PUSH20 0xFFFFFFFFFFFFFFFFFFFFFFFFFFFFFFFFFFFFFFFF AND PUSH2 0xF6C PUSH2 0x8D4 JUMP JUMPDEST PUSH20 0xFFFFFFFFFFFFFFFFFFFFFFFFFFFFFFFFFFFFFFFF AND EQ PUSH2 0xFCB JUMPI PUSH2 0xF8F PUSH2 0xF2D JUMP JUMPDEST PUSH1 0x40 MLOAD PUSH32 0x118CDAA700000000000000000000000000000000000000000000000000000000 DUP2 MSTORE PUSH1 0x4 ADD PUSH2 0xFC2 SWAP2 SWAP1 PUSH2 0x1C25 JUMP JUMPDEST PUSH1 0x40 MLOAD DUP1 SWAP2 SUB SWAP1 REVERT JUMPDEST JUMP JUMPDEST PUSH1 0x2 PUSH1 0x6 SLOAD SUB PUSH2 0x1012 JUMPI PUSH1 0x40 MLOAD PUSH32 0x8C379A000000000000000000000000000000000000000000000000000000000 DUP2 MSTORE PUSH1 0x4 ADD PUSH2 0x1009 SWAP1 PUSH2 0x1FD8 JUMP JUMPDEST PUSH1 0x40 MLOAD DUP1 SWAP2 SUB SWAP1 REVERT JUMPDEST PUSH1 0x2 PUSH1 0x6 DUP2 SWAP1 SSTORE POP JUMP JUMPDEST PUSH1 0xB PUSH0 SWAP1 SLOAD SWAP1 PUSH2 0x100 EXP SWAP1 DIV PUSH1 0xFF AND ISZERO PUSH2 0x106B JUMPI PUSH1 0x40 MLOAD PUSH32 0x8C379A000000000000000000000000000000000000000000000000000000000 DUP2 MSTORE PUSH1 0x4 ADD PUSH2 0x1062 SWAP1 PUSH2 0x2040 JUMP JUMPDEST PUSH1 0x40 MLOAD DUP1 SWAP2 SUB SWAP1 REVERT JUMPDEST PUSH0 PUSH3 0x186A0 DUP3 PUSH2 0x107B SWAP2 SWAP1 PUSH2 0x1F5E JUMP JUMPDEST SWAP1 POP PUSH0 DUP2 DUP4 PUSH2 0x108A SWAP2 SWAP1 PUSH2 0x1D6E JUMP JUMPDEST SWAP1 POP DUP2 DUP2 PUSH2 0x1098 SWAP2 SWAP1 PUSH2 0x1DA1 JUMP JUMPDEST DUP4 EQ PUSH2 0x10D9 JUMPI PUSH1 0x40 MLOAD PUSH32 0x8C379A000000000000000000000000000000000000000000000000000000000 DUP2 MSTORE PUSH1 0x4 ADD PUSH2 0x10D0 SWAP1 PUSH2 0x20A8 JUMP JUMPDEST PUSH1 0x40 MLOAD DUP1 SWAP2 SUB SWAP1 REVERT JUMPDEST PUSH2 0x10E4 DUP6 DUP6 DUP4 PUSH2 0x15E6 JUMP JUMPDEST PUSH2 0x10EE DUP6 DUP4 PUSH2 0x11F2 JUMP JUMPDEST POP POP POP POP POP JUMP JUMPDEST PUSH1 0x1 PUSH1 0x6 DUP2 SWAP1 SSTORE POP JUMP JUMPDEST PUSH0 PUSH2 0x110A DUP5 DUP5 PUSH2 0xE27 JUMP JUMPDEST SWAP1 POP PUSH32 0xFFFFFFFFFFFFFFFFFFFFFFFFFFFFFFFFFFFFFFFFFFFFFFFFFFFFFFFFFFFFFFFF DUP2 EQ PUSH2 0x118B JUMPI DUP2 DUP2 LT ISZERO PUSH2 0x117C JUMPI DUP3 DUP2 DUP4 PUSH1 0x40 MLOAD PUSH32 0xFB8F41B200000000000000000000000000000000000000000000000000000000 DUP2 MSTORE PUSH1 0x4 ADD PUSH2 0x1173 SWAP4 SWAP3 SWAP2 SWAP1 PUSH2 0x20C6 JUMP JUMPDEST PUSH1 0x40 MLOAD DUP1 SWAP2 SUB SWAP1 REVERT JUMPDEST PUSH2 0x118A DUP5 DUP5 DUP5 DUP5 SUB PUSH0 PUSH2 0x1417 JUMP JUMPDEST JUMPDEST POP POP POP POP JUMP JUMPDEST PUSH2 0x1199 PUSH2 0x16D6 JUMP JUMPDEST PUSH0 PUSH1 0x5 PUSH0 PUSH2 0x100 EXP DUP2 SLOAD DUP2 PUSH1 0xFF MUL NOT AND SWAP1 DUP4 ISZERO ISZERO MUL OR SWAP1 SSTORE POP PUSH32 0x5DB9EE0A495BF2E6FF9C91A7834C1BA4FDD244A5E8AA4E537BD38AEAE4B073AA PUSH2 0x11DB PUSH2 0xF2D JUMP JUMPDEST PUSH1 0x40 MLOAD PUSH2 0x11E8 SWAP2 SWAP1 PUSH2 0x1C25 JUMP JUMPDEST PUSH1 0x40 MLOAD DUP1 SWAP2 SUB SWAP1 LOG1 JUMP JUMPDEST PUSH0 PUSH20 0xFFFFFFFFFFFFFFFFFFFFFFFFFFFFFFFFFFFFFFFF AND DUP3 PUSH20 0xFFFFFFFFFFFFFFFFFFFFFFFFFFFFFFFFFFFFFFFF AND SUB PUSH2 0x1262 JUMPI PUSH0 PUSH1 0x40 MLOAD PUSH32 0x96C6FD1E00000000000000000000000000000000000000000000000000000000 DUP2 MSTORE PUSH1 0x4 ADD PUSH2 0x1259 SWAP2 SWAP1 PUSH2 0x1C25 JUMP JUMPDEST PUSH1 0x40 MLOAD DUP1 SWAP2 SUB SWAP1 REVERT JUMPDEST PUSH2 0x126D DUP3 PUSH0 DUP4 PUSH2 0x171F JUMP JUMPDEST POP POP JUMP JUMPDEST PUSH0 PUSH1 0x5 PUSH1 0x1 SWAP1 SLOAD SWAP1 PUSH2 0x100 EXP SWAP1 DIV PUSH20 0xFFFFFFFFFFFFFFFFFFFFFFFFFFFFFFFFFFFFFFFF AND SWAP1 POP DUP2 PUSH1 0x5 PUSH1 0x1 PUSH2 0x100 EXP DUP2 SLOAD DUP2 PUSH20 0xFFFFFFFFFFFFFFFFFFFFFFFFFFFFFFFFFFFFFFFF MUL NOT AND SWAP1 DUP4 PUSH20 0xFFFFFFFFFFFFFFFFFFFFFFFFFFFFFFFFFFFFFFFF AND MUL OR SWAP1 SSTORE POP DUP2 PUSH20 0xFFFFFFFFFFFFFFFFFFFFFFFFFFFFFFFFFFFFFFFF AND DUP2 PUSH20 0xFFFFFFFFFFFFFFFFFFFFFFFFFFFFFFFFFFFFFFFF AND PUSH32 0x8BE0079C531659141344CD1FD0A4F28419497F9722A3DAAFE3B4186F6B6457E0 PUSH1 0x40 MLOAD PUSH1 0x40 MLOAD DUP1 SWAP2 SUB SWAP1 LOG3 POP POP JUMP JUMPDEST PUSH2 0x133E PUSH2 0x1938 JUMP JUMPDEST PUSH1 0x1 PUSH1 0x5 PUSH0 PUSH2 0x100 EXP DUP2 SLOAD DUP2 PUSH1 0xFF MUL NOT AND SWAP1 DUP4 ISZERO ISZERO MUL OR SWAP1 SSTORE POP PUSH32 0x62E78CEA01BEE320CD4E420270B5EA74000D11B0C9F74754EBDBFC544B05A258 PUSH2 0x1381 PUSH2 0xF2D JUMP JUMPDEST PUSH1 0x40 MLOAD PUSH2 0x138E SWAP2 SWAP1 PUSH2 0x1C25 JUMP JUMPDEST PUSH1 0x40 MLOAD DUP1 SWAP2 SUB SWAP1 LOG1 JUMP JUMPDEST PUSH0 PUSH20 0xFFFFFFFFFFFFFFFFFFFFFFFFFFFFFFFFFFFFFFFF AND DUP3 PUSH20 0xFFFFFFFFFFFFFFFFFFFFFFFFFFFFFFFFFFFFFFFF AND SUB PUSH2 0x1408 JUMPI PUSH0 PUSH1 0x40 MLOAD PUSH32 0xEC442F0500000000000000000000000000000000000000000000000000000000 DUP2 MSTORE PUSH1 0x4 ADD PUSH2 0x13FF SWAP2 SWAP1 PUSH2 0x1C25 JUMP JUMPDEST PUSH1 0x40 MLOAD DUP1 SWAP2 SUB SWAP1 REVERT JUMPDEST PUSH2 0x1413 PUSH0 DUP4 DUP4 PUSH2 0x171F JUMP JUMPDEST POP POP JUMP JUMPDEST PUSH0 PUSH20 0xFFFFFFFFFFFFFFFFFFFFFFFFFFFFFFFFFFFFFFFF AND DUP5 PUSH20 0xFFFFFFFFFFFFFFFFFFFFFFFFFFFFFFFFFFFFFFFF AND SUB PUSH2 0x1487 JUMPI PUSH0 PUSH1 0x40 MLOAD PUSH32 0xE602DF0500000000000000000000000000000000000000000000000000000000 DUP2 MSTORE PUSH1 0x4 ADD PUSH2 0x147E SWAP2 SWAP1 PUSH2 0x1C25 JUMP JUMPDEST PUSH1 0x40 MLOAD DUP1 SWAP2 SUB SWAP1 REVERT JUMPDEST PUSH0 PUSH20 0xFFFFFFFFFFFFFFFFFFFFFFFFFFFFFFFFFFFFFFFF AND DUP4 PUSH20 0xFFFFFFFFFFFFFFFFFFFFFFFFFFFFFFFFFFFFFFFF AND SUB PUSH2 0x14F7 JUMPI PUSH0 PUSH1 0x40 MLOAD PUSH32 0x94280D6200000000000000000000000000000000000000000000000000000000 DUP2 MSTORE PUSH1 0x4 ADD PUSH2 0x14EE SWAP2 SWAP1 PUSH2 0x1C25 JUMP JUMPDEST PUSH1 0x40 MLOAD DUP1 SWAP2 SUB SWAP1 REVERT JUMPDEST DUP2 PUSH1 0x1 PUSH0 DUP7 PUSH20 0xFFFFFFFFFFFFFFFFFFFFFFFFFFFFFFFFFFFFFFFF AND PUSH20 0xFFFFFFFFFFFFFFFFFFFFFFFFFFFFFFFFFFFFFFFF AND DUP2 MSTORE PUSH1 0x20 ADD SWAP1 DUP2 MSTORE PUSH1 0x20 ADD PUSH0 KECCAK256 PUSH0 DUP6 PUSH20 0xFFFFFFFFFFFFFFFFFFFFFFFFFFFFFFFFFFFFFFFF AND PUSH20 0xFFFFFFFFFFFFFFFFFFFFFFFFFFFFFFFFFFFFFFFF AND DUP2 MSTORE PUSH1 0x20 ADD SWAP1 DUP2 MSTORE PUSH1 0x20 ADD PUSH0 KECCAK256 DUP2 SWAP1 SSTORE POP DUP1 ISZERO PUSH2 0x15E0 JUMPI DUP3 PUSH20 0xFFFFFFFFFFFFFFFFFFFFFFFFFFFFFFFFFFFFFFFF AND DUP5 PUSH20 0xFFFFFFFFFFFFFFFFFFFFFFFFFFFFFFFFFFFFFFFF AND PUSH32 0x8C5BE1E5EBEC7D5BD14F71427D1E84F3DD0314C0F7B2291E5B200AC8C7C3B925 DUP5 PUSH1 0x40 MLOAD PUSH2 0x15D7 SWAP2 SWAP1 PUSH2 0x1B23 JUMP JUMPDEST PUSH1 0x40 MLOAD DUP1 SWAP2 SUB SWAP1 LOG3 JUMPDEST POP POP POP POP JUMP JUMPDEST PUSH0 PUSH20 0xFFFFFFFFFFFFFFFFFFFFFFFFFFFFFFFFFFFFFFFF AND DUP4 PUSH20 0xFFFFFFFFFFFFFFFFFFFFFFFFFFFFFFFFFFFFFFFF AND SUB PUSH2 0x1656 JUMPI PUSH0 PUSH1 0x40 MLOAD PUSH32 0x96C6FD1E00000000000000000000000000000000000000000000000000000000 DUP2 MSTORE PUSH1 0x4 ADD PUSH2 0x164D SWAP2 SWAP1 PUSH2 0x1C25 JUMP JUMPDEST PUSH1 0x40 MLOAD DUP1 SWAP2 SUB SWAP1 REVERT JUMPDEST PUSH0 PUSH20 0xFFFFFFFFFFFFFFFFFFFFFFFFFFFFFFFFFFFFFFFF AND DUP3 PUSH20 0xFFFFFFFFFFFFFFFFFFFFFFFFFFFFFFFFFFFFFFFF AND SUB PUSH2 0x16C6 JUMPI PUSH0 PUSH1 0x40 MLOAD PUSH32 0xEC442F0500000000000000000000000000000000000000000000000000000000 DUP2 MSTORE PUSH1 0x4 ADD PUSH2 0x16BD SWAP2 SWAP1 PUSH2 0x1C25 JUMP JUMPDEST PUSH1 0x40 MLOAD DUP1 SWAP2 SUB SWAP1 REVERT JUMPDEST PUSH2 0x16D1 DUP4 DUP4 DUP4 PUSH2 0x171F JUMP JUMPDEST POP POP POP JUMP JUMPDEST PUSH2 0x16DE PUSH2 0x835 JUMP JUMPDEST PUSH2 0x171D JUMPI PUSH1 0x40 MLOAD PUSH32 0x8C379A000000000000000000000000000000000000000000000000000000000 DUP2 MSTORE PUSH1 0x4 ADD PUSH2 0x1714 SWAP1 PUSH2 0x2145 JUMP JUMPDEST PUSH1 0x40 MLOAD DUP1 SWAP2 SUB SWAP1 REVERT JUMPDEST JUMP JUMPDEST PUSH0 PUSH20 0xFFFFFFFFFFFFFFFFFFFFFFFFFFFFFFFFFFFFFFFF AND DUP4 PUSH20 0xFFFFFFFFFFFFFFFFFFFFFFFFFFFFFFFFFFFFFFFF AND SUB PUSH2 0x176F JUMPI DUP1 PUSH1 0x2 PUSH0 DUP3 DUP3 SLOAD PUSH2 0x1763 SWAP2 SWAP1 PUSH2 0x1DA1 JUMP JUMPDEST SWAP3 POP POP DUP2 SWAP1 SSTORE POP PUSH2 0x183D JUMP JUMPDEST PUSH0 DUP1 PUSH0 DUP6 PUSH20 0xFFFFFFFFFFFFFFFFFFFFFFFFFFFFFFFFFFFFFFFF AND PUSH20 0xFFFFFFFFFFFFFFFFFFFFFFFFFFFFFFFFFFFFFFFF AND DUP2 MSTORE PUSH1 0x20 ADD SWAP1 DUP2 MSTORE PUSH1 0x20 ADD PUSH0 KECCAK256 SLOAD SWAP1 POP DUP2 DUP2 LT ISZERO PUSH2 0x17F8 JUMPI DUP4 DUP2 DUP4 PUSH1 0x40 MLOAD PUSH32 0xE450D38C00000000000000000000000000000000000000000000000000000000 DUP2 MSTORE PUSH1 0x4 ADD PUSH2 0x17EF SWAP4 SWAP3 SWAP2 SWAP1 PUSH2 0x20C6 JUMP JUMPDEST PUSH1 0x40 MLOAD DUP1 SWAP2 SUB SWAP1 REVERT JUMPDEST DUP2 DUP2 SUB PUSH0 DUP1 DUP7 PUSH20 0xFFFFFFFFFFFFFFFFFFFFFFFFFFFFFFFFFFFFFFFF AND PUSH20 0xFFFFFFFFFFFFFFFFFFFFFFFFFFFFFFFFFFFFFFFF AND DUP2 MSTORE PUSH1 0x20 ADD SWAP1 DUP2 MSTORE PUSH1 0x20 ADD PUSH0 KECCAK256 DUP2 SWAP1 SSTORE POP POP JUMPDEST PUSH0 PUSH20 0xFFFFFFFFFFFFFFFFFFFFFFFFFFFFFFFFFFFFFFFF AND DUP3 PUSH20 0xFFFFFFFFFFFFFFFFFFFFFFFFFFFFFFFFFFFFFFFF AND SUB PUSH2 0x1884 JUMPI DUP1 PUSH1 0x2 PUSH0 DUP3 DUP3 SLOAD SUB SWAP3 POP POP DUP2 SWAP1 SSTORE POP PUSH2 0x18CE JUMP JUMPDEST DUP1 PUSH0 DUP1 DUP5 PUSH20 0xFFFFFFFFFFFFFFFFFFFFFFFFFFFFFFFFFFFFFFFF AND PUSH20 0xFFFFFFFFFFFFFFFFFFFFFFFFFFFFFFFFFFFFFFFF AND DUP2 MSTORE PUSH1 0x20 ADD SWAP1 DUP2 MSTORE PUSH1 0x20 ADD PUSH0 KECCAK256 PUSH0 DUP3 DUP3 SLOAD ADD SWAP3 POP POP DUP2 SWAP1 SSTORE POP JUMPDEST DUP2 PUSH20 0xFFFFFFFFFFFFFFFFFFFFFFFFFFFFFFFFFFFFFFFF AND DUP4 PUSH20 0xFFFFFFFFFFFFFFFFFFFFFFFFFFFFFFFFFFFFFFFF AND PUSH32 0xDDF252AD1BE2C89B69C2B068FC378DAA952BA7F163C4A11628F55A4DF523B3EF DUP4 PUSH1 0x40 MLOAD PUSH2 0x192B SWAP2 SWAP1 PUSH2 0x1B23 JUMP JUMPDEST PUSH1 0x40 MLOAD DUP1 SWAP2 SUB SWAP1 LOG3 POP POP POP JUMP JUMPDEST PUSH2 0x1940 PUSH2 0x835 JUMP JUMPDEST ISZERO PUSH2 0x1980 JUMPI PUSH1 0x40 MLOAD PUSH32 0x8C379A000000000000000000000000000000000000000000000000000000000 DUP2 MSTORE PUSH1 0x4 ADD PUSH2 0x1977 SWAP1 PUSH2 0x21AD JUMP JUMPDEST PUSH1 0x40 MLOAD DUP1 SWAP2 SUB SWAP1 REVERT JUMPDEST JUMP JUMPDEST PUSH0 DUP2 MLOAD SWAP1 POP SWAP2 SWAP1 POP JUMP JUMPDEST PUSH0 DUP3 DUP3 MSTORE PUSH1 0x20 DUP3 ADD SWAP1 POP SWAP3 SWAP2 POP POP JUMP JUMPDEST DUP3 DUP2 DUP4 MCOPY PUSH0 DUP4 DUP4 ADD MSTORE POP POP POP JUMP JUMPDEST PUSH0 PUSH1 0x1F NOT PUSH1 0x1F DUP4 ADD AND SWAP1 POP SWAP2 SWAP1 POP JUMP JUMPDEST PUSH0 PUSH2 0x19C4 DUP3 PUSH2 0x1982 JUMP JUMPDEST PUSH2 0x19CE DUP2 DUP6 PUSH2 0x198C JUMP JUMPDEST SWAP4 POP PUSH2 0x19DE DUP2 DUP6 PUSH1 0x20 DUP7 ADD PUSH2 0x199C JUMP JUMPDEST PUSH2 0x19E7 DUP2 PUSH2 0x19AA JUMP JUMPDEST DUP5 ADD SWAP2 POP POP SWAP3 SWAP2 POP POP JUMP JUMPDEST PUSH0 PUSH1 0x20 DUP3 ADD SWAP1 POP DUP2 DUP2 SUB PUSH0 DUP4 ADD MSTORE PUSH2 0x1A0A DUP2 DUP5 PUSH2 0x19BA JUMP JUMPDEST SWAP1 POP SWAP3 SWAP2 POP POP JUMP JUMPDEST PUSH0 DUP1 REVERT JUMPDEST PUSH0 PUSH20 0xFFFFFFFFFFFFFFFFFFFFFFFFFFFFFFFFFFFFFFFF DUP3 AND SWAP1 POP SWAP2 SWAP1 POP JUMP JUMPDEST PUSH0 PUSH2 0x1A3F DUP3 PUSH2 0x1A16 JUMP JUMPDEST SWAP1 POP SWAP2 SWAP1 POP JUMP JUMPDEST PUSH2 0x1A4F DUP2 PUSH2 0x1A35 JUMP JUMPDEST DUP2 EQ PUSH2 0x1A59 JUMPI PUSH0 DUP1 REVERT JUMPDEST POP JUMP JUMPDEST PUSH0 DUP2 CALLDATALOAD SWAP1 POP PUSH2 0x1A6A DUP2 PUSH2 0x1A46 JUMP JUMPDEST SWAP3 SWAP2 POP POP JUMP JUMPDEST PUSH0 DUP2 SWAP1 POP SWAP2 SWAP1 POP JUMP JUMPDEST PUSH2 0x1A82 DUP2 PUSH2 0x1A70 JUMP JUMPDEST DUP2 EQ PUSH2 0x1A8C JUMPI PUSH0 DUP1 REVERT JUMPDEST POP JUMP JUMPDEST PUSH0 DUP2 CALLDATALOAD SWAP1 POP PUSH2 0x1A9D DUP2 PUSH2 0x1A79 JUMP JUMPDEST SWAP3 SWAP2 POP POP JUMP JUMPDEST PUSH0 DUP1 PUSH1 0x40 DUP4 DUP6 SUB SLT ISZERO PUSH2 0x1AB9 JUMPI PUSH2 0x1AB8 PUSH2 0x1A12 JUMP JUMPDEST JUMPDEST PUSH0 PUSH2 0x1AC6 DUP6 DUP3 DUP7 ADD PUSH2 0x1A5C JUMP JUMPDEST SWAP3 POP POP PUSH1 0x20 PUSH2 0x1AD7 DUP6 DUP3 DUP7 ADD PUSH2 0x1A8F JUMP JUMPDEST SWAP2 POP POP SWAP3 POP SWAP3 SWAP1 POP JUMP JUMPDEST PUSH0 DUP2 ISZERO ISZERO SWAP1 POP SWAP2 SWAP1 POP JUMP JUMPDEST PUSH2 0x1AF5 DUP2 PUSH2 0x1AE1 JUMP JUMPDEST DUP3 MSTORE POP POP JUMP JUMPDEST PUSH0 PUSH1 0x20 DUP3 ADD SWAP1 POP PUSH2 0x1B0E PUSH0 DUP4 ADD DUP5 PUSH2 0x1AEC JUMP JUMPDEST SWAP3 SWAP2 POP POP JUMP JUMPDEST PUSH2 0x1B1D DUP2 PUSH2 0x1A70 JUMP JUMPDEST DUP3 MSTORE POP POP JUMP JUMPDEST PUSH0 PUSH1 0x20 DUP3 ADD SWAP1 POP PUSH2 0x1B36 PUSH0 DUP4 ADD DUP5 PUSH2 0x1B14 JUMP JUMPDEST SWAP3 SWAP2 POP POP JUMP JUMPDEST PUSH0 PUSH1 0x20 DUP3 DUP5 SUB SLT ISZERO PUSH2 0x1B51 JUMPI PUSH2 0x1B50 PUSH2 0x1A12 JUMP JUMPDEST JUMPDEST PUSH0 PUSH2 0x1B5E DUP5 DUP3 DUP6 ADD PUSH2 0x1A8F JUMP JUMPDEST SWAP2 POP POP SWAP3 SWAP2 POP POP JUMP JUMPDEST PUSH0 DUP1 PUSH0 PUSH1 0x60 DUP5 DUP7 SUB SLT ISZERO PUSH2 0x1B7E JUMPI PUSH2 0x1B7D PUSH2 0x1A12 JUMP JUMPDEST JUMPDEST PUSH0 PUSH2 0x1B8B DUP7 DUP3 DUP8 ADD PUSH2 0x1A5C JUMP JUMPDEST SWAP4 POP POP PUSH1 0x20 PUSH2 0x1B9C DUP7 DUP3 DUP8 ADD PUSH2 0x1A5C JUMP JUMPDEST SWAP3 POP POP PUSH1 0x40 PUSH2 0x1BAD DUP7 DUP3 DUP8 ADD PUSH2 0x1A8F JUMP JUMPDEST SWAP2 POP POP SWAP3 POP SWAP3 POP SWAP3 JUMP JUMPDEST PUSH0 PUSH1 0xFF DUP3 AND SWAP1 POP SWAP2 SWAP1 POP JUMP JUMPDEST PUSH2 0x1BCC DUP2 PUSH2 0x1BB7 JUMP JUMPDEST DUP3 MSTORE POP POP JUMP JUMPDEST PUSH0 PUSH1 0x20 DUP3 ADD SWAP1 POP PUSH2 0x1BE5 PUSH0 DUP4 ADD DUP5 PUSH2 0x1BC3 JUMP JUMPDEST SWAP3 SWAP2 POP POP JUMP JUMPDEST PUSH0 PUSH1 0x20 DUP3 DUP5 SUB SLT ISZERO PUSH2 0x1C00 JUMPI PUSH2 0x1BFF PUSH2 0x1A12 JUMP JUMPDEST JUMPDEST PUSH0 PUSH2 0x1C0D DUP5 DUP3 DUP6 ADD PUSH2 0x1A5C JUMP JUMPDEST SWAP2 POP POP SWAP3 SWAP2 POP POP JUMP JUMPDEST PUSH2 0x1C1F DUP2 PUSH2 0x1A35 JUMP JUMPDEST DUP3 MSTORE POP POP JUMP JUMPDEST PUSH0 PUSH1 0x20 DUP3 ADD SWAP1 POP PUSH2 0x1C38 PUSH0 DUP4 ADD DUP5 PUSH2 0x1C16 JUMP JUMPDEST SWAP3 SWAP2 POP POP JUMP JUMPDEST PUSH0 DUP1 PUSH1 0x40 DUP4 DUP6 SUB SLT ISZERO PUSH2 0x1C54 JUMPI PUSH2 0x1C53 PUSH2 0x1A12 JUMP JUMPDEST JUMPDEST PUSH0 PUSH2 0x1C61 DUP6 DUP3 DUP7 ADD PUSH2 0x1A5C JUMP JUMPDEST SWAP3 POP POP PUSH1 0x20 PUSH2 0x1C72 DUP6 DUP3 DUP7 ADD PUSH2 0x1A5C JUMP JUMPDEST SWAP2 POP POP SWAP3 POP SWAP3 SWAP1 POP JUMP JUMPDEST PUSH32 0x4E487B7100000000000000000000000000000000000000000000000000000000 PUSH0 MSTORE PUSH1 0x22 PUSH1 0x4 MSTORE PUSH1 0x24 PUSH0 REVERT JUMPDEST PUSH0 PUSH1 0x2 DUP3 DIV SWAP1 POP PUSH1 0x1 DUP3 AND DUP1 PUSH2 0x1CC0 JUMPI PUSH1 0x7F DUP3 AND SWAP2 POP JUMPDEST PUSH1 0x20 DUP3 LT DUP2 SUB PUSH2 0x1CD3 JUMPI PUSH2 0x1CD2 PUSH2 0x1C7C JUMP JUMPDEST JUMPDEST POP SWAP2 SWAP1 POP JUMP JUMPDEST PUSH32 0x496E73756666696369656E742062616C616E6365000000000000000000000000 PUSH0 DUP3 ADD MSTORE POP JUMP JUMPDEST PUSH0 PUSH2 0x1D0D PUSH1 0x14 DUP4 PUSH2 0x198C JUMP JUMPDEST SWAP2 POP PUSH2 0x1D18 DUP3 PUSH2 0x1CD9 JUMP JUMPDEST PUSH1 0x20 DUP3 ADD SWAP1 POP SWAP2 SWAP1 POP JUMP JUMPDEST PUSH0 PUSH1 0x20 DUP3 ADD SWAP1 POP DUP2 DUP2 SUB PUSH0 DUP4 ADD MSTORE PUSH2 0x1D3A DUP2 PUSH2 0x1D01 JUMP JUMPDEST SWAP1 POP SWAP2 SWAP1 POP JUMP JUMPDEST PUSH32 0x4E487B7100000000000000000000000000000000000000000000000000000000 PUSH0 MSTORE PUSH1 0x11 PUSH1 0x4 MSTORE PUSH1 0x24 PUSH0 REVERT JUMPDEST PUSH0 PUSH2 0x1D78 DUP3 PUSH2 0x1A70 JUMP JUMPDEST SWAP2 POP PUSH2 0x1D83 DUP4 PUSH2 0x1A70 JUMP JUMPDEST SWAP3 POP DUP3 DUP3 SUB SWAP1 POP DUP2 DUP2 GT ISZERO PUSH2 0x1D9B JUMPI PUSH2 0x1D9A PUSH2 0x1D41 JUMP JUMPDEST JUMPDEST SWAP3 SWAP2 POP POP JUMP JUMPDEST PUSH0 PUSH2 0x1DAB DUP3 PUSH2 0x1A70 JUMP JUMPDEST SWAP2 POP PUSH2 0x1DB6 DUP4 PUSH2 0x1A70 JUMP JUMPDEST SWAP3 POP DUP3 DUP3 ADD SWAP1 POP DUP1 DUP3 GT ISZERO PUSH2 0x1DCE JUMPI PUSH2 0x1DCD PUSH2 0x1D41 JUMP JUMPDEST JUMPDEST SWAP3 SWAP2 POP POP JUMP JUMPDEST PUSH32 0x4C6971756964697479206D7573742062652070726F766964656420666F722061 PUSH0 DUP3 ADD MSTORE PUSH32 0x74206C65617374203330206461797320746F207175616C69667920666F722072 PUSH1 0x20 DUP3 ADD MSTORE PUSH32 0x6577617264730000000000000000000000000000000000000000000000000000 PUSH1 0x40 DUP3 ADD MSTORE POP JUMP JUMPDEST PUSH0 PUSH2 0x1E54 PUSH1 0x46 DUP4 PUSH2 0x198C JUMP JUMPDEST SWAP2 POP PUSH2 0x1E5F DUP3 PUSH2 0x1DD4 JUMP JUMPDEST PUSH1 0x60 DUP3 ADD SWAP1 POP SWAP2 SWAP1 POP JUMP JUMPDEST PUSH0 PUSH1 0x20 DUP3 ADD SWAP1 POP DUP2 DUP2 SUB PUSH0 DUP4 ADD MSTORE PUSH2 0x1E81 DUP2 PUSH2 0x1E48 JUMP JUMPDEST SWAP1 POP SWAP2 SWAP1 POP JUMP JUMPDEST PUSH32 0x5265776172642065786365656473206D617820737570706C7900000000000000 PUSH0 DUP3 ADD MSTORE POP JUMP JUMPDEST PUSH0 PUSH2 0x1EBC PUSH1 0x19 DUP4 PUSH2 0x198C JUMP JUMPDEST SWAP2 POP PUSH2 0x1EC7 DUP3 PUSH2 0x1E88 JUMP JUMPDEST PUSH1 0x20 DUP3 ADD SWAP1 POP SWAP2 SWAP1 POP JUMP JUMPDEST PUSH0 PUSH1 0x20 DUP3 ADD SWAP1 POP DUP2 DUP2 SUB PUSH0 DUP4 ADD MSTORE PUSH2 0x1EE9 DUP2 PUSH2 0x1EB0 JUMP JUMPDEST SWAP1 POP SWAP2 SWAP1 POP JUMP JUMPDEST PUSH0 PUSH2 0x1EFA DUP3 PUSH2 0x1A70 JUMP JUMPDEST SWAP2 POP PUSH2 0x1F05 DUP4 PUSH2 0x1A70 JUMP JUMPDEST SWAP3 POP DUP3 DUP3 MUL PUSH2 0x1F13 DUP2 PUSH2 0x1A70 JUMP JUMPDEST SWAP2 POP DUP3 DUP3 DIV DUP5 EQ DUP4 ISZERO OR PUSH2 0x1F2A JUMPI PUSH2 0x1F29 PUSH2 0x1D41 JUMP JUMPDEST JUMPDEST POP SWAP3 SWAP2 POP POP JUMP JUMPDEST PUSH32 0x4E487B7100000000000000000000000000000000000000000000000000000000 PUSH0 MSTORE PUSH1 0x12 PUSH1 0x4 MSTORE PUSH1 0x24 PUSH0 REVERT JUMPDEST PUSH0 PUSH2 0x1F68 DUP3 PUSH2 0x1A70 JUMP JUMPDEST SWAP2 POP PUSH2 0x1F73 DUP4 PUSH2 0x1A70 JUMP JUMPDEST SWAP3 POP DUP3 PUSH2 0x1F83 JUMPI PUSH2 0x1F82 PUSH2 0x1F31 JUMP JUMPDEST JUMPDEST DUP3 DUP3 DIV SWAP1 POP SWAP3 SWAP2 POP POP JUMP JUMPDEST PUSH32 0x5265656E7472616E637947756172643A207265656E7472616E742063616C6C00 PUSH0 DUP3 ADD MSTORE POP JUMP JUMPDEST PUSH0 PUSH2 0x1FC2 PUSH1 0x1F DUP4 PUSH2 0x198C JUMP JUMPDEST SWAP2 POP PUSH2 0x1FCD DUP3 PUSH2 0x1F8E JUMP JUMPDEST PUSH1 0x20 DUP3 ADD SWAP1 POP SWAP2 SWAP1 POP JUMP JUMPDEST PUSH0 PUSH1 0x20 DUP3 ADD SWAP1 POP DUP2 DUP2 SUB PUSH0 DUP4 ADD MSTORE PUSH2 0x1FEF DUP2 PUSH2 0x1FB6 JUMP JUMPDEST SWAP1 POP SWAP2 SWAP1 POP JUMP JUMPDEST PUSH32 0x4369726375697420627265616B65722069732061637469766500000000000000 PUSH0 DUP3 ADD MSTORE POP JUMP JUMPDEST PUSH0 PUSH2 0x202A PUSH1 0x19 DUP4 PUSH2 0x198C JUMP JUMPDEST SWAP2 POP PUSH2 0x2035 DUP3 PUSH2 0x1FF6 JUMP JUMPDEST PUSH1 0x20 DUP3 ADD SWAP1 POP SWAP2 SWAP1 POP JUMP JUMPDEST PUSH0 PUSH1 0x20 DUP3 ADD SWAP1 POP DUP2 DUP2 SUB PUSH0 DUP4 ADD MSTORE PUSH2 0x2057 DUP2 PUSH2 0x201E JUMP JUMPDEST SWAP1 POP SWAP2 SWAP1 POP JUMP JUMPDEST PUSH32 0x4275726E2076616C756520696E76616C69640000000000000000000000000000 PUSH0 DUP3 ADD MSTORE POP JUMP JUMPDEST PUSH0 PUSH2 0x2092 PUSH1 0x12 DUP4 PUSH2 0x198C JUMP JUMPDEST SWAP2 POP PUSH2 0x209D DUP3 PUSH2 0x205E JUMP JUMPDEST PUSH1 0x20 DUP3 ADD SWAP1 POP SWAP2 SWAP1 POP JUMP JUMPDEST PUSH0 PUSH1 0x20 DUP3 ADD SWAP1 POP DUP2 DUP2 SUB PUSH0 DUP4 ADD MSTORE PUSH2 0x20BF DUP2 PUSH2 0x2086 JUMP JUMPDEST SWAP1 POP SWAP2 SWAP1 POP JUMP JUMPDEST PUSH0 PUSH1 0x60 DUP3 ADD SWAP1 POP PUSH2 0x20D9 PUSH0 DUP4 ADD DUP7 PUSH2 0x1C16 JUMP JUMPDEST PUSH2 0x20E6 PUSH1 0x20 DUP4 ADD DUP6 PUSH2 0x1B14 JUMP JUMPDEST PUSH2 0x20F3 PUSH1 0x40 DUP4 ADD DUP5 PUSH2 0x1B14 JUMP JUMPDEST SWAP5 SWAP4 POP POP POP POP JUMP JUMPDEST PUSH32 0x5061757361626C653A206E6F7420706175736564000000000000000000000000 PUSH0 DUP3 ADD MSTORE POP JUMP JUMPDEST PUSH0 PUSH2 0x212F PUSH1 0x14 DUP4 PUSH2 0x198C JUMP JUMPDEST SWAP2 POP PUSH2 0x213A DUP3 PUSH2 0x20FB JUMP JUMPDEST PUSH1 0x20 DUP3 ADD SWAP1 POP SWAP2 SWAP1 POP JUMP JUMPDEST PUSH0 PUSH1 0x20 DUP3 ADD SWAP1 POP DUP2 DUP2 SUB PUSH0 DUP4 ADD MSTORE PUSH2 0x215C DUP2 PUSH2 0x2123 JUMP JUMPDEST SWAP1 POP SWAP2 SWAP1 POP JUMP JUMPDEST PUSH32 0x5061757361626C653A2070617573656400000000000000000000000000000000 PUSH0 DUP3 ADD MSTORE POP JUMP JUMPDEST PUSH0 PUSH2 0x2197 PUSH1 0x10 DUP4 PUSH2 0x198C JUMP JUMPDEST SWAP2 POP PUSH2 0x21A2 DUP3 PUSH2 0x2163 JUMP JUMPDEST PUSH1 0x20 DUP3 ADD SWAP1 POP SWAP2 SWAP1 POP JUMP JUMPDEST PUSH0 PUSH1 0x20 DUP3 ADD SWAP1 POP DUP2 DUP2 SUB PUSH0 DUP4 ADD MSTORE PUSH2 0x21C4 DUP2 PUSH2 0x218B JUMP JUMPDEST SWAP1 POP SWAP2 SWAP1 POP JUMP INVALID LOG2 PUSH5 0x6970667358 0x22 SLT KECCAK256 SWAP5 0x2B 0xA8 0xAD JUMPI SUB 0xD3 0xCB 0xE3 PUSH9 0x297CF7D9B293FE865C NOT 0xE4 0xC5 0xBC SHL SDIV RETURNDATACOPY 0x25 0xDB DELEGATECALL SWAP2 EXTCODESIZE PUSH20 0x64736F6C634300081A0033000000000000000000 "
				},
				"gasEstimates": {
					"creation": {
						"codeDepositCost": "1741000",
						"executionCost": "infinite",
						"totalCost": "infinite"
					},
					"external": {
						"addLiquidity(uint256)": "infinite",
						"allowance(address,address)": "infinite",
						"approve(address,uint256)": "infinite",
						"balanceOf(address)": "2940",
						"burn(uint256)": "infinite",
						"burnFrom(address,uint256)": "infinite",
						"calculateReward(address)": "infinite",
						"decimals()": "2519",
						"decimalsPlaces()": "2533",
						"disableCircuitBreaker()": "infinite",
						"enableCircuitBreaker()": "infinite",
						"maxSupply()": "2469",
						"name()": "infinite",
						"owner()": "2655",
						"ownerAddLiquidity(uint256)": "infinite",
						"ownerRemoveLiquidity(uint256)": "infinite",
						"pause()": "infinite",
						"paused()": "2562",
						"removeLiquidityAndClaimRewards(uint256)": "infinite",
						"renounceOwnership()": "infinite",
						"symbol()": "infinite",
						"totalSupply()": "2500",
						"transfer(address,uint256)": "infinite",
						"transferFrom(address,address,uint256)": "infinite",
						"transferOwnership(address)": "infinite",
						"unpause()": "infinite"
					},
					"internal": {
						"_beforeTokenTransfer(address,address,uint256)": "infinite",
						"_transfer(address,address,uint256)": "infinite"
					}
				},
				"methodIdentifiers": {
					"addLiquidity(uint256)": "51c6590a",
					"allowance(address,address)": "dd62ed3e",
					"approve(address,uint256)": "095ea7b3",
					"balanceOf(address)": "70a08231",
					"burn(uint256)": "42966c68",
					"burnFrom(address,uint256)": "79cc6790",
					"calculateReward(address)": "d82e3962",
					"decimals()": "313ce567",
					"decimalsPlaces()": "52756986",
					"disableCircuitBreaker()": "21208fa2",
					"enableCircuitBreaker()": "a64254c3",
					"maxSupply()": "d5abeb01",
					"name()": "06fdde03",
					"owner()": "8da5cb5b",
					"ownerAddLiquidity(uint256)": "afe8289a",
					"ownerRemoveLiquidity(uint256)": "2254b79c",
					"pause()": "8456cb59",
					"paused()": "5c975abb",
					"removeLiquidityAndClaimRewards(uint256)": "c8052107",
					"renounceOwnership()": "715018a6",
					"symbol()": "95d89b41",
					"totalSupply()": "18160ddd",
					"transfer(address,uint256)": "a9059cbb",
					"transferFrom(address,address,uint256)": "23b872dd",
					"transferOwnership(address)": "f2fde38b",
					"unpause()": "3f4ba83a"
				}
			},
			"storageLayout": {
				"storage": [
					{
						"astId": 932,
						"contract": "XXX.sol:GenericLayout",
						"label": "_balances",
						"offset": 0,
						"slot": "0",
						"type": "t_mapping(t_address,t_uint256)"
					},
					{
						"astId": 938,
						"contract": "XXX.sol:GenericLayout",
						"label": "_allowances",
						"offset": 0,
						"slot": "1",
						"type": "t_mapping(t_address,t_mapping(t_address,t_uint256))"
					},
					{
						"astId": 940,
						"contract": "XXX.sol:GenericLayout",
						"label": "_totalSupply",
						"offset": 0,
						"slot": "2",
						"type": "t_uint256"
					},
					{
						"astId": 942,
						"contract": "XXX.sol:GenericLayout",
						"label": "_name",
						"offset": 0,
						"slot": "3",
						"type": "t_string_storage"
					},
					{
						"astId": 944,
						"contract": "XXX.sol:GenericLayout",
						"label": "_symbol",
						"offset": 0,
						"slot": "4",
						"type": "t_string_storage"
					},
					{
						"astId": 755,
						"contract": "XXX.sol:GenericLayout",
						"label": "_paused",
						"offset": 0,
						"slot": "5",
						"type": "t_bool"
					},
					{
						"astId": 461,
						"contract": "XXX.sol:GenericLayout",
						"label": "_owner",
						"offset": 1,
						"slot": "5",
						"type": "t_address"
					},
					{
						"astId": 856,
						"contract": "XXX.sol:GenericLayout",
						"label": "_status",
						"offset": 0,
						"slot": "6",
						"type": "t_uint256"
					},
					{
						"astId": 18,
						"contract": "XXX.sol:GenericLayout",
						"label": "maxSupply",
						"offset": 0,
						"slot": "7",
						"type": "t_uint256"
					},
					{
						"astId": 20,
						"contract": "XXX.sol:GenericLayout",
						"label": "decimalsPlaces",
						"offset": 0,
						"slot": "8",
						"type": "t_uint8"
					},
					{
						"astId": 24,
						"contract": "XXX.sol:GenericLayout",
						"label": "_liquidityProvided",
						"offset": 0,
						"slot": "9",
						"type": "t_mapping(t_address,t_uint256)"
					},
					{
						"astId": 28,
						"contract": "XXX.sol:GenericLayout",
						"label": "_liquidityProvidedTimestamp",
						"offset": 0,
						"slot": "10",
						"type": "t_mapping(t_address,t_uint256)"
					},
					{
						"astId": 101,
						"contract": "XXX.sol:GenericLayout",
						"label": "_circuitBreakerEnabled",
						"offset": 0,
						"slot": "11",
						"type": "t_bool"
					}
				],
				"types": {
					"t_address": {
						"encoding": "inplace",
						"label": "address",
						"numberOfBytes": "20"
					},
					"t_bool": {
						"encoding": "inplace",
						"label": "bool",
						"numberOfBytes": "1"
					},
					"t_mapping(t_address,t_mapping(t_address,t_uint256))": {
						"encoding": "mapping",
						"key": "t_address",
						"label": "mapping(address => mapping(address => uint256))",
						"numberOfBytes": "32",
						"value": "t_mapping(t_address,t_uint256)"
					},
					"t_mapping(t_address,t_uint256)": {
						"encoding": "mapping",
						"key": "t_address",
						"label": "mapping(address => uint256)",
						"numberOfBytes": "32",
						"value": "t_uint256"
					},
					"t_string_storage": {
						"encoding": "bytes",
						"label": "string",
						"numberOfBytes": "32"
					},
					"t_uint256": {
						"encoding": "inplace",
						"label": "uint256",
						"numberOfBytes": "32"
					},
					"t_uint8": {
						"encoding": "inplace",
						"label": "uint8",
						"numberOfBytes": "1"
					}
				}
			},
			"userdoc": {
				"kind": "user",
				"methods": {},
				"version": 1
			}
		}
	}
}