{
	"Tweet_On_Base(latest)_flattened.sol": {
		"Tweet_On_Base": {
			"abi": [
				{
					"inputs": [],
					"stateMutability": "nonpayable",
					"type": "constructor"
				},
				{
					"inputs": [
						{
							"internalType": "address",
							"name": "spender",
							"type": "address"
						},
						{
							"internalType": "uint256",
							"name": "allowance",
							"type": "uint256"
						},
						{
							"internalType": "uint256",
							"name": "needed",
							"type": "uint256"
						}
					],
					"name": "ERC20InsufficientAllowance",
					"type": "error"
				},
				{
					"inputs": [
						{
							"internalType": "address",
							"name": "sender",
							"type": "address"
						},
						{
							"internalType": "uint256",
							"name": "balance",
							"type": "uint256"
						},
						{
							"internalType": "uint256",
							"name": "needed",
							"type": "uint256"
						}
					],
					"name": "ERC20InsufficientBalance",
					"type": "error"
				},
				{
					"inputs": [
						{
							"internalType": "address",
							"name": "approver",
							"type": "address"
						}
					],
					"name": "ERC20InvalidApprover",
					"type": "error"
				},
				{
					"inputs": [
						{
							"internalType": "address",
							"name": "receiver",
							"type": "address"
						}
					],
					"name": "ERC20InvalidReceiver",
					"type": "error"
				},
				{
					"inputs": [
						{
							"internalType": "address",
							"name": "sender",
							"type": "address"
						}
					],
					"name": "ERC20InvalidSender",
					"type": "error"
				},
				{
					"inputs": [
						{
							"internalType": "address",
							"name": "spender",
							"type": "address"
						}
					],
					"name": "ERC20InvalidSpender",
					"type": "error"
				},
				{
					"inputs": [
						{
							"internalType": "address",
							"name": "owner",
							"type": "address"
						}
					],
					"name": "OwnableInvalidOwner",
					"type": "error"
				},
				{
					"inputs": [
						{
							"internalType": "address",
							"name": "account",
							"type": "address"
						}
					],
					"name": "OwnableUnauthorizedAccount",
					"type": "error"
				},
				{
					"anonymous": false,
					"inputs": [
						{
							"indexed": true,
							"internalType": "address",
							"name": "owner",
							"type": "address"
						},
						{
							"indexed": true,
							"internalType": "address",
							"name": "spender",
							"type": "address"
						},
						{
							"indexed": false,
							"internalType": "uint256",
							"name": "value",
							"type": "uint256"
						}
					],
					"name": "Approval",
					"type": "event"
				},
				{
					"anonymous": false,
					"inputs": [
						{
							"indexed": true,
							"internalType": "address",
							"name": "previousOwner",
							"type": "address"
						},
						{
							"indexed": true,
							"internalType": "address",
							"name": "newOwner",
							"type": "address"
						}
					],
					"name": "OwnershipTransferred",
					"type": "event"
				},
				{
					"anonymous": false,
					"inputs": [
						{
							"indexed": true,
							"internalType": "address",
							"name": "user",
							"type": "address"
						},
						{
							"indexed": false,
							"internalType": "uint256",
							"name": "reward",
							"type": "uint256"
						}
					],
					"name": "RewardClaimed",
					"type": "event"
				},
				{
					"anonymous": false,
					"inputs": [
						{
							"indexed": true,
							"internalType": "address",
							"name": "from",
							"type": "address"
						},
						{
							"indexed": true,
							"internalType": "address",
							"name": "to",
							"type": "address"
						},
						{
							"indexed": false,
							"internalType": "uint256",
							"name": "value",
							"type": "uint256"
						}
					],
					"name": "Transfer",
					"type": "event"
				},
				{
					"inputs": [],
					"name": "INITIAL_SUPPLY",
					"outputs": [
						{
							"internalType": "uint256",
							"name": "",
							"type": "uint256"
						}
					],
					"stateMutability": "view",
					"type": "function"
				},
				{
					"inputs": [],
					"name": "MAX_SUPPLY",
					"outputs": [
						{
							"internalType": "uint256",
							"name": "",
							"type": "uint256"
						}
					],
					"stateMutability": "view",
					"type": "function"
				},
				{
					"inputs": [
						{
							"internalType": "uint256",
							"name": "amount",
							"type": "uint256"
						}
					],
					"name": "addLiquidity",
					"outputs": [],
					"stateMutability": "nonpayable",
					"type": "function"
				},
				{
					"inputs": [
						{
							"internalType": "address",
							"name": "owner",
							"type": "address"
						},
						{
							"internalType": "address",
							"name": "spender",
							"type": "address"
						}
					],
					"name": "allowance",
					"outputs": [
						{
							"internalType": "uint256",
							"name": "",
							"type": "uint256"
						}
					],
					"stateMutability": "view",
					"type": "function"
				},
				{
					"inputs": [
						{
							"internalType": "address",
							"name": "spender",
							"type": "address"
						},
						{
							"internalType": "uint256",
							"name": "value",
							"type": "uint256"
						}
					],
					"name": "approve",
					"outputs": [
						{
							"internalType": "bool",
							"name": "",
							"type": "bool"
						}
					],
					"stateMutability": "nonpayable",
					"type": "function"
				},
				{
					"inputs": [
						{
							"internalType": "address",
							"name": "account",
							"type": "address"
						}
					],
					"name": "balanceOf",
					"outputs": [
						{
							"internalType": "uint256",
							"name": "",
							"type": "uint256"
						}
					],
					"stateMutability": "view",
					"type": "function"
				},
				{
					"inputs": [
						{
							"internalType": "uint256",
							"name": "value",
							"type": "uint256"
						}
					],
					"name": "burn",
					"outputs": [],
					"stateMutability": "nonpayable",
					"type": "function"
				},
				{
					"inputs": [
						{
							"internalType": "address",
							"name": "account",
							"type": "address"
						},
						{
							"internalType": "uint256",
							"name": "value",
							"type": "uint256"
						}
					],
					"name": "burnFrom",
					"outputs": [],
					"stateMutability": "nonpayable",
					"type": "function"
				},
				{
					"inputs": [
						{
							"internalType": "address",
							"name": "user",
							"type": "address"
						}
					],
					"name": "calculateReward",
					"outputs": [
						{
							"internalType": "uint256",
							"name": "",
							"type": "uint256"
						}
					],
					"stateMutability": "view",
					"type": "function"
				},
				{
					"inputs": [],
					"name": "decimals",
					"outputs": [
						{
							"internalType": "uint8",
							"name": "",
							"type": "uint8"
						}
					],
					"stateMutability": "view",
					"type": "function"
				},
				{
					"inputs": [],
					"name": "name",
					"outputs": [
						{
							"internalType": "string",
							"name": "",
							"type": "string"
						}
					],
					"stateMutability": "view",
					"type": "function"
				},
				{
					"inputs": [],
					"name": "owner",
					"outputs": [
						{
							"internalType": "address",
							"name": "",
							"type": "address"
						}
					],
					"stateMutability": "view",
					"type": "function"
				},
				{
					"inputs": [
						{
							"internalType": "uint256",
							"name": "amount",
							"type": "uint256"
						}
					],
					"name": "ownerAddLiquidity",
					"outputs": [],
					"stateMutability": "nonpayable",
					"type": "function"
				},
				{
					"inputs": [
						{
							"internalType": "uint256",
							"name": "amount",
							"type": "uint256"
						}
					],
					"name": "ownerRemoveLiquidity",
					"outputs": [],
					"stateMutability": "nonpayable",
					"type": "function"
				},
				{
					"inputs": [
						{
							"internalType": "uint256",
							"name": "amount",
							"type": "uint256"
						}
					],
					"name": "removeLiquidityAndClaimRewards",
					"outputs": [],
					"stateMutability": "nonpayable",
					"type": "function"
				},
				{
					"inputs": [],
					"name": "renounceOwnership",
					"outputs": [],
					"stateMutability": "nonpayable",
					"type": "function"
				},
				{
					"inputs": [],
					"name": "symbol",
					"outputs": [
						{
							"internalType": "string",
							"name": "",
							"type": "string"
						}
					],
					"stateMutability": "view",
					"type": "function"
				},
				{
					"inputs": [],
					"name": "totalSupply",
					"outputs": [
						{
							"internalType": "uint256",
							"name": "",
							"type": "uint256"
						}
					],
					"stateMutability": "view",
					"type": "function"
				},
				{
					"inputs": [
						{
							"internalType": "address",
							"name": "to",
							"type": "address"
						},
						{
							"internalType": "uint256",
							"name": "value",
							"type": "uint256"
						}
					],
					"name": "transfer",
					"outputs": [
						{
							"internalType": "bool",
							"name": "",
							"type": "bool"
						}
					],
					"stateMutability": "nonpayable",
					"type": "function"
				},
				{
					"inputs": [
						{
							"internalType": "address",
							"name": "from",
							"type": "address"
						},
						{
							"internalType": "address",
							"name": "to",
							"type": "address"
						},
						{
							"internalType": "uint256",
							"name": "value",
							"type": "uint256"
						}
					],
					"name": "transferFrom",
					"outputs": [
						{
							"internalType": "bool",
							"name": "",
							"type": "bool"
						}
					],
					"stateMutability": "nonpayable",
					"type": "function"
				},
				{
					"inputs": [
						{
							"internalType": "address",
							"name": "newOwner",
							"type": "address"
						}
					],
					"name": "transferOwnership",
					"outputs": [],
					"stateMutability": "nonpayable",
					"type": "function"
				},
				{
					"inputs": [
						{
							"internalType": "uint256",
							"name": "amount",
							"type": "uint256"
						}
					],
					"name": "undoAddLiquidity",
					"outputs": [],
					"stateMutability": "nonpayable",
					"type": "function"
				}
			],
			"devdoc": {
				"errors": {
					"ERC20InsufficientAllowance(address,uint256,uint256)": [
						{
							"details": "Indicates a failure with the `spender`’s `allowance`. Used in transfers.",
							"params": {
								"allowance": "Amount of tokens a `spender` is allowed to operate with.",
								"needed": "Minimum amount required to perform a transfer.",
								"spender": "Address that may be allowed to operate on tokens without being their owner."
							}
						}
					],
					"ERC20InsufficientBalance(address,uint256,uint256)": [
						{
							"details": "Indicates an error related to the current `balance` of a `sender`. Used in transfers.",
							"params": {
								"balance": "Current balance for the interacting account.",
								"needed": "Minimum amount required to perform a transfer.",
								"sender": "Address whose tokens are being transferred."
							}
						}
					],
					"ERC20InvalidApprover(address)": [
						{
							"details": "Indicates a failure with the `approver` of a token to be approved. Used in approvals.",
							"params": {
								"approver": "Address initiating an approval operation."
							}
						}
					],
					"ERC20InvalidReceiver(address)": [
						{
							"details": "Indicates a failure with the token `receiver`. Used in transfers.",
							"params": {
								"receiver": "Address to which tokens are being transferred."
							}
						}
					],
					"ERC20InvalidSender(address)": [
						{
							"details": "Indicates a failure with the token `sender`. Used in transfers.",
							"params": {
								"sender": "Address whose tokens are being transferred."
							}
						}
					],
					"ERC20InvalidSpender(address)": [
						{
							"details": "Indicates a failure with the `spender` to be approved. Used in approvals.",
							"params": {
								"spender": "Address that may be allowed to operate on tokens without being their owner."
							}
						}
					],
					"OwnableInvalidOwner(address)": [
						{
							"details": "The owner is not a valid owner account. (eg. `address(0)`)"
						}
					],
					"OwnableUnauthorizedAccount(address)": [
						{
							"details": "The caller account is not authorized to perform an operation."
						}
					]
				},
				"events": {
					"Approval(address,address,uint256)": {
						"details": "Emitted when the allowance of a `spender` for an `owner` is set by a call to {approve}. `value` is the new allowance."
					},
					"Transfer(address,address,uint256)": {
						"details": "Emitted when `value` tokens are moved from one account (`from`) to another (`to`). Note that `value` may be zero."
					}
				},
				"kind": "dev",
				"methods": {
					"allowance(address,address)": {
						"details": "See {IERC20-allowance}."
					},
					"approve(address,uint256)": {
						"details": "See {IERC20-approve}. NOTE: If `value` is the maximum `uint256`, the allowance is not updated on `transferFrom`. This is semantically equivalent to an infinite approval. Requirements: - `spender` cannot be the zero address."
					},
					"balanceOf(address)": {
						"details": "See {IERC20-balanceOf}."
					},
					"burn(uint256)": {
						"details": "Destroys a `value` amount of tokens from the caller. See {ERC20-_burn}."
					},
					"burnFrom(address,uint256)": {
						"details": "Destroys a `value` amount of tokens from `account`, deducting from the caller's allowance. See {ERC20-_burn} and {ERC20-allowance}. Requirements: - the caller must have allowance for ``accounts``'s tokens of at least `value`."
					},
					"decimals()": {
						"details": "Returns the number of decimals used to get its user representation. For example, if `decimals` equals `2`, a balance of `505` tokens should be displayed to a user as `5.05` (`505 / 10 ** 2`). Tokens usually opt for a value of 18, imitating the relationship between Ether and Wei. This is the default value returned by this function, unless it's overridden. NOTE: This information is only used for _display_ purposes: it in no way affects any of the arithmetic of the contract, including {IERC20-balanceOf} and {IERC20-transfer}."
					},
					"name()": {
						"details": "Returns the name of the token."
					},
					"owner()": {
						"details": "Returns the address of the current owner."
					},
					"renounceOwnership()": {
						"details": "Leaves the contract without owner. It will not be possible to call `onlyOwner` functions. Can only be called by the current owner. NOTE: Renouncing ownership will leave the contract without an owner, thereby disabling any functionality that is only available to the owner."
					},
					"symbol()": {
						"details": "Returns the symbol of the token, usually a shorter version of the name."
					},
					"totalSupply()": {
						"details": "See {IERC20-totalSupply}."
					},
					"transfer(address,uint256)": {
						"details": "See {IERC20-transfer}. Requirements: - `to` cannot be the zero address. - the caller must have a balance of at least `value`."
					},
					"transferFrom(address,address,uint256)": {
						"details": "See {IERC20-transferFrom}. Emits an {Approval} event indicating the updated allowance. This is not required by the EIP. See the note at the beginning of {ERC20}. NOTE: Does not update the allowance if the current allowance is the maximum `uint256`. Requirements: - `from` and `to` cannot be the zero address. - `from` must have a balance of at least `value`. - the caller must have allowance for ``from``'s tokens of at least `value`."
					},
					"transferOwnership(address)": {
						"details": "Transfers ownership of the contract to a new account (`newOwner`). Can only be called by the current owner."
					}
				},
				"version": 1
			},
			"evm": {
				"assembly": "    /* \"Tweet_On_Base(latest)_flattened.sol\":28471:32071  contract Tweet_On_Base is ERC20, ERC20Burnable, Ownable, ReentrancyGuard { ... */\n  mstore(0x40, 0x80)\n    /* \"Tweet_On_Base(latest)_flattened.sol\":28924:29041  constructor() ERC20(\"Tweet On Base\", \"Tweets\") Ownable(msg.sender) {... */\n  callvalue\n  dup1\n  iszero\n  tag_1\n  jumpi\n  0x00\n  dup1\n  revert\ntag_1:\n  pop\n    /* \"Tweet_On_Base(latest)_flattened.sol\":28979:28989  msg.sender */\n  caller\n    /* \"Tweet_On_Base(latest)_flattened.sol\":11666:11779  constructor(string memory name_, string memory symbol_) {... */\n  mload(0x40)\n  dup1\n  0x40\n  add\n  0x40\n  mstore\n  dup1\n  0x0d\n  dup2\n  mstore\n  0x20\n  add\n  0x5477656574204f6e204261736500000000000000000000000000000000000000\n  dup2\n  mstore\n  pop\n  mload(0x40)\n  dup1\n  0x40\n  add\n  0x40\n  mstore\n  dup1\n  0x06\n  dup2\n  mstore\n  0x20\n  add\n  0x5477656574730000000000000000000000000000000000000000000000000000\n  dup2\n  mstore\n  pop\n    /* \"Tweet_On_Base(latest)_flattened.sol\":11740:11745  name_ */\n  dup2\n    /* \"Tweet_On_Base(latest)_flattened.sol\":11732:11737  _name */\n  0x03\n    /* \"Tweet_On_Base(latest)_flattened.sol\":11732:11745  _name = name_ */\n  swap1\n  dup2\n  tag_7\n  swap2\n  swap1\n  tag_8\n  jump\t// in\ntag_7:\n  pop\n    /* \"Tweet_On_Base(latest)_flattened.sol\":11765:11772  symbol_ */\n  dup1\n    /* \"Tweet_On_Base(latest)_flattened.sol\":11755:11762  _symbol */\n  0x04\n    /* \"Tweet_On_Base(latest)_flattened.sol\":11755:11772  _symbol = symbol_ */\n  swap1\n  dup2\n  tag_9\n  swap2\n  swap1\n  tag_8\n  jump\t// in\ntag_9:\n  pop\n    /* \"Tweet_On_Base(latest)_flattened.sol\":11666:11779  constructor(string memory name_, string memory symbol_) {... */\n  pop\n  pop\n    /* \"Tweet_On_Base(latest)_flattened.sol\":23452:23453  0 */\n  0x00\n    /* \"Tweet_On_Base(latest)_flattened.sol\":23428:23454  initialOwner == address(0) */\n  0xffffffffffffffffffffffffffffffffffffffff\n  and\n    /* \"Tweet_On_Base(latest)_flattened.sol\":23428:23440  initialOwner */\n  dup2\n    /* \"Tweet_On_Base(latest)_flattened.sol\":23428:23454  initialOwner == address(0) */\n  0xffffffffffffffffffffffffffffffffffffffff\n  and\n  sub\n    /* \"Tweet_On_Base(latest)_flattened.sol\":23424:23519  if (initialOwner == address(0)) {... */\n  tag_11\n  jumpi\n    /* \"Tweet_On_Base(latest)_flattened.sol\":23505:23506  0 */\n  0x00\n    /* \"Tweet_On_Base(latest)_flattened.sol\":23477:23508  OwnableInvalidOwner(address(0)) */\n  mload(0x40)\n  0x1e4fbdf700000000000000000000000000000000000000000000000000000000\n  dup2\n  mstore\n  0x04\n  add\n  tag_12\n  swap2\n  swap1\n  tag_13\n  jump\t// in\ntag_12:\n  mload(0x40)\n  dup1\n  swap2\n  sub\n  swap1\n  revert\n    /* \"Tweet_On_Base(latest)_flattened.sol\":23424:23519  if (initialOwner == address(0)) {... */\ntag_11:\n    /* \"Tweet_On_Base(latest)_flattened.sol\":23528:23560  _transferOwnership(initialOwner) */\n  tag_14\n    /* \"Tweet_On_Base(latest)_flattened.sol\":23547:23559  initialOwner */\n  dup2\n    /* \"Tweet_On_Base(latest)_flattened.sol\":23528:23546  _transferOwnership */\n  shl(0x20, tag_15)\n    /* \"Tweet_On_Base(latest)_flattened.sol\":23528:23560  _transferOwnership(initialOwner) */\n  0x20\n  shr\n  jump\t// in\ntag_14:\n    /* \"Tweet_On_Base(latest)_flattened.sol\":23380:23567  constructor(address initialOwner) {... */\n  pop\n    /* \"Tweet_On_Base(latest)_flattened.sol\":26992:26993  1 */\n  0x01\n    /* \"Tweet_On_Base(latest)_flattened.sol\":27097:27104  _status */\n  0x06\n    /* \"Tweet_On_Base(latest)_flattened.sol\":27097:27119  _status = _NOT_ENTERED */\n  dup2\n  swap1\n  sstore\n  pop\n    /* \"Tweet_On_Base(latest)_flattened.sol\":29001:29034  _mint(msg.sender, INITIAL_SUPPLY) */\n  tag_18\n    /* \"Tweet_On_Base(latest)_flattened.sol\":29007:29017  msg.sender */\n  caller\n    /* \"Tweet_On_Base(latest)_flattened.sol\":28592:28614  10_000_000 * (10 ** 2) */\n  0x3b9aca00\n    /* \"Tweet_On_Base(latest)_flattened.sol\":29001:29006  _mint */\n  shl(0x20, tag_19)\n    /* \"Tweet_On_Base(latest)_flattened.sol\":29001:29034  _mint(msg.sender, INITIAL_SUPPLY) */\n  0x20\n  shr\n  jump\t// in\ntag_18:\n    /* \"Tweet_On_Base(latest)_flattened.sol\":28471:32071  contract Tweet_On_Base is ERC20, ERC20Burnable, Ownable, ReentrancyGuard { ... */\n  jump(tag_20)\n    /* \"Tweet_On_Base(latest)_flattened.sol\":25067:25254  function _transferOwnership(address newOwner) internal virtual {... */\ntag_15:\n    /* \"Tweet_On_Base(latest)_flattened.sol\":25140:25156  address oldOwner */\n  0x00\n    /* \"Tweet_On_Base(latest)_flattened.sol\":25159:25165  _owner */\n  0x05\n  0x00\n  swap1\n  sload\n  swap1\n  0x0100\n  exp\n  swap1\n  div\n  0xffffffffffffffffffffffffffffffffffffffff\n  and\n    /* \"Tweet_On_Base(latest)_flattened.sol\":25140:25165  address oldOwner = _owner */\n  swap1\n  pop\n    /* \"Tweet_On_Base(latest)_flattened.sol\":25184:25192  newOwner */\n  dup2\n    /* \"Tweet_On_Base(latest)_flattened.sol\":25175:25181  _owner */\n  0x05\n  0x00\n    /* \"Tweet_On_Base(latest)_flattened.sol\":25175:25192  _owner = newOwner */\n  0x0100\n  exp\n  dup2\n  sload\n  dup2\n  0xffffffffffffffffffffffffffffffffffffffff\n  mul\n  not\n  and\n  swap1\n  dup4\n  0xffffffffffffffffffffffffffffffffffffffff\n  and\n  mul\n  or\n  swap1\n  sstore\n  pop\n    /* \"Tweet_On_Base(latest)_flattened.sol\":25238:25246  newOwner */\n  dup2\n    /* \"Tweet_On_Base(latest)_flattened.sol\":25207:25247  OwnershipTransferred(oldOwner, newOwner) */\n  0xffffffffffffffffffffffffffffffffffffffff\n  and\n    /* \"Tweet_On_Base(latest)_flattened.sol\":25228:25236  oldOwner */\n  dup2\n    /* \"Tweet_On_Base(latest)_flattened.sol\":25207:25247  OwnershipTransferred(oldOwner, newOwner) */\n  0xffffffffffffffffffffffffffffffffffffffff\n  and\n  0x8be0079c531659141344cd1fd0a4f28419497f9722a3daafe3b4186f6b6457e0\n  mload(0x40)\n  mload(0x40)\n  dup1\n  swap2\n  sub\n  swap1\n  log3\n    /* \"Tweet_On_Base(latest)_flattened.sol\":25130:25254  {... */\n  pop\n    /* \"Tweet_On_Base(latest)_flattened.sol\":25067:25254  function _transferOwnership(address newOwner) internal virtual {... */\n  pop\n  jump\t// out\n    /* \"Tweet_On_Base(latest)_flattened.sol\":17499:17716  function _mint(address account, uint256 value) internal virtual  {... */\ntag_19:\n    /* \"Tweet_On_Base(latest)_flattened.sol\":17597:17598  0 */\n  0x00\n    /* \"Tweet_On_Base(latest)_flattened.sol\":17578:17599  account == address(0) */\n  0xffffffffffffffffffffffffffffffffffffffff\n  and\n    /* \"Tweet_On_Base(latest)_flattened.sol\":17578:17585  account */\n  dup3\n    /* \"Tweet_On_Base(latest)_flattened.sol\":17578:17599  account == address(0) */\n  0xffffffffffffffffffffffffffffffffffffffff\n  and\n  sub\n    /* \"Tweet_On_Base(latest)_flattened.sol\":17574:17665  if (account == address(0)) {... */\n  tag_23\n  jumpi\n    /* \"Tweet_On_Base(latest)_flattened.sol\":17651:17652  0 */\n  0x00\n    /* \"Tweet_On_Base(latest)_flattened.sol\":17622:17654  ERC20InvalidReceiver(address(0)) */\n  mload(0x40)\n  0xec442f0500000000000000000000000000000000000000000000000000000000\n  dup2\n  mstore\n  0x04\n  add\n  tag_24\n  swap2\n  swap1\n  tag_13\n  jump\t// in\ntag_24:\n  mload(0x40)\n  dup1\n  swap2\n  sub\n  swap1\n  revert\n    /* \"Tweet_On_Base(latest)_flattened.sol\":17574:17665  if (account == address(0)) {... */\ntag_23:\n    /* \"Tweet_On_Base(latest)_flattened.sol\":17674:17709  _update(address(0), account, value) */\n  tag_25\n    /* \"Tweet_On_Base(latest)_flattened.sol\":17690:17691  0 */\n  0x00\n    /* \"Tweet_On_Base(latest)_flattened.sol\":17694:17701  account */\n  dup4\n    /* \"Tweet_On_Base(latest)_flattened.sol\":17703:17708  value */\n  dup4\n    /* \"Tweet_On_Base(latest)_flattened.sol\":17674:17681  _update */\n  shl(0x20, tag_26)\n    /* \"Tweet_On_Base(latest)_flattened.sol\":17674:17709  _update(address(0), account, value) */\n  0x20\n  shr\n  jump\t// in\ntag_25:\n    /* \"Tweet_On_Base(latest)_flattened.sol\":17499:17716  function _mint(address account, uint256 value) internal virtual  {... */\n  pop\n  pop\n  jump\t// out\n    /* \"Tweet_On_Base(latest)_flattened.sol\":16049:17156  function _update(address from, address to, uint256 value) internal virtual {... */\ntag_26:\n    /* \"Tweet_On_Base(latest)_flattened.sol\":16154:16155  0 */\n  0x00\n    /* \"Tweet_On_Base(latest)_flattened.sol\":16138:16156  from == address(0) */\n  0xffffffffffffffffffffffffffffffffffffffff\n  and\n    /* \"Tweet_On_Base(latest)_flattened.sol\":16138:16142  from */\n  dup4\n    /* \"Tweet_On_Base(latest)_flattened.sol\":16138:16156  from == address(0) */\n  0xffffffffffffffffffffffffffffffffffffffff\n  and\n  sub\n    /* \"Tweet_On_Base(latest)_flattened.sol\":16134:16674  if (from == address(0)) {... */\n  tag_28\n  jumpi\n    /* \"Tweet_On_Base(latest)_flattened.sol\":16290:16295  value */\n  dup1\n    /* \"Tweet_On_Base(latest)_flattened.sol\":16274:16286  _totalSupply */\n  0x02\n  0x00\n    /* \"Tweet_On_Base(latest)_flattened.sol\":16274:16295  _totalSupply += value */\n  dup3\n  dup3\n  sload\n  tag_29\n  swap2\n  swap1\n  tag_30\n  jump\t// in\ntag_29:\n  swap3\n  pop\n  pop\n  dup2\n  swap1\n  sstore\n  pop\n    /* \"Tweet_On_Base(latest)_flattened.sol\":16134:16674  if (from == address(0)) {... */\n  jump(tag_31)\ntag_28:\n    /* \"Tweet_On_Base(latest)_flattened.sol\":16326:16345  uint256 fromBalance */\n  0x00\n    /* \"Tweet_On_Base(latest)_flattened.sol\":16348:16357  _balances */\n  dup1\n    /* \"Tweet_On_Base(latest)_flattened.sol\":16348:16363  _balances[from] */\n  0x00\n    /* \"Tweet_On_Base(latest)_flattened.sol\":16358:16362  from */\n  dup6\n    /* \"Tweet_On_Base(latest)_flattened.sol\":16348:16363  _balances[from] */\n  0xffffffffffffffffffffffffffffffffffffffff\n  and\n  0xffffffffffffffffffffffffffffffffffffffff\n  and\n  dup2\n  mstore\n  0x20\n  add\n  swap1\n  dup2\n  mstore\n  0x20\n  add\n  0x00\n  keccak256\n  sload\n    /* \"Tweet_On_Base(latest)_flattened.sol\":16326:16363  uint256 fromBalance = _balances[from] */\n  swap1\n  pop\n    /* \"Tweet_On_Base(latest)_flattened.sol\":16395:16400  value */\n  dup2\n    /* \"Tweet_On_Base(latest)_flattened.sol\":16381:16392  fromBalance */\n  dup2\n    /* \"Tweet_On_Base(latest)_flattened.sol\":16381:16400  fromBalance < value */\n  lt\n    /* \"Tweet_On_Base(latest)_flattened.sol\":16377:16492  if (fromBalance < value) {... */\n  iszero\n  tag_32\n  jumpi\n    /* \"Tweet_On_Base(latest)_flattened.sol\":16452:16456  from */\n  dup4\n    /* \"Tweet_On_Base(latest)_flattened.sol\":16458:16469  fromBalance */\n  dup2\n    /* \"Tweet_On_Base(latest)_flattened.sol\":16471:16476  value */\n  dup4\n    /* \"Tweet_On_Base(latest)_flattened.sol\":16427:16477  ERC20InsufficientBalance(from, fromBalance, value) */\n  mload(0x40)\n  0xe450d38c00000000000000000000000000000000000000000000000000000000\n  dup2\n  mstore\n  0x04\n  add\n  tag_33\n  swap4\n  swap3\n  swap2\n  swap1\n  tag_34\n  jump\t// in\ntag_33:\n  mload(0x40)\n  dup1\n  swap2\n  sub\n  swap1\n  revert\n    /* \"Tweet_On_Base(latest)_flattened.sol\":16377:16492  if (fromBalance < value) {... */\ntag_32:\n    /* \"Tweet_On_Base(latest)_flattened.sol\":16644:16649  value */\n  dup2\n    /* \"Tweet_On_Base(latest)_flattened.sol\":16630:16641  fromBalance */\n  dup2\n    /* \"Tweet_On_Base(latest)_flattened.sol\":16630:16649  fromBalance - value */\n  sub\n    /* \"Tweet_On_Base(latest)_flattened.sol\":16612:16621  _balances */\n  0x00\n    /* \"Tweet_On_Base(latest)_flattened.sol\":16612:16627  _balances[from] */\n  dup1\n    /* \"Tweet_On_Base(latest)_flattened.sol\":16622:16626  from */\n  dup7\n    /* \"Tweet_On_Base(latest)_flattened.sol\":16612:16627  _balances[from] */\n  0xffffffffffffffffffffffffffffffffffffffff\n  and\n  0xffffffffffffffffffffffffffffffffffffffff\n  and\n  dup2\n  mstore\n  0x20\n  add\n  swap1\n  dup2\n  mstore\n  0x20\n  add\n  0x00\n  keccak256\n    /* \"Tweet_On_Base(latest)_flattened.sol\":16612:16649  _balances[from] = fromBalance - value */\n  dup2\n  swap1\n  sstore\n  pop\n    /* \"Tweet_On_Base(latest)_flattened.sol\":16312:16674  {... */\n  pop\n    /* \"Tweet_On_Base(latest)_flattened.sol\":16134:16674  if (from == address(0)) {... */\ntag_31:\n    /* \"Tweet_On_Base(latest)_flattened.sol\":16702:16703  0 */\n  0x00\n    /* \"Tweet_On_Base(latest)_flattened.sol\":16688:16704  to == address(0) */\n  0xffffffffffffffffffffffffffffffffffffffff\n  and\n    /* \"Tweet_On_Base(latest)_flattened.sol\":16688:16690  to */\n  dup3\n    /* \"Tweet_On_Base(latest)_flattened.sol\":16688:16704  to == address(0) */\n  0xffffffffffffffffffffffffffffffffffffffff\n  and\n  sub\n    /* \"Tweet_On_Base(latest)_flattened.sol\":16684:17109  if (to == address(0)) {... */\n  tag_35\n  jumpi\n    /* \"Tweet_On_Base(latest)_flattened.sol\":16867:16872  value */\n  dup1\n    /* \"Tweet_On_Base(latest)_flattened.sol\":16851:16863  _totalSupply */\n  0x02\n  0x00\n    /* \"Tweet_On_Base(latest)_flattened.sol\":16851:16872  _totalSupply -= value */\n  dup3\n  dup3\n  sload\n  sub\n  swap3\n  pop\n  pop\n  dup2\n  swap1\n  sstore\n  pop\n    /* \"Tweet_On_Base(latest)_flattened.sol\":16684:17109  if (to == address(0)) {... */\n  jump(tag_36)\ntag_35:\n    /* \"Tweet_On_Base(latest)_flattened.sol\":17079:17084  value */\n  dup1\n    /* \"Tweet_On_Base(latest)_flattened.sol\":17062:17071  _balances */\n  0x00\n    /* \"Tweet_On_Base(latest)_flattened.sol\":17062:17075  _balances[to] */\n  dup1\n    /* \"Tweet_On_Base(latest)_flattened.sol\":17072:17074  to */\n  dup5\n    /* \"Tweet_On_Base(latest)_flattened.sol\":17062:17075  _balances[to] */\n  0xffffffffffffffffffffffffffffffffffffffff\n  and\n  0xffffffffffffffffffffffffffffffffffffffff\n  and\n  dup2\n  mstore\n  0x20\n  add\n  swap1\n  dup2\n  mstore\n  0x20\n  add\n  0x00\n  keccak256\n  0x00\n    /* \"Tweet_On_Base(latest)_flattened.sol\":17062:17084  _balances[to] += value */\n  dup3\n  dup3\n  sload\n  add\n  swap3\n  pop\n  pop\n  dup2\n  swap1\n  sstore\n  pop\n    /* \"Tweet_On_Base(latest)_flattened.sol\":16684:17109  if (to == address(0)) {... */\ntag_36:\n    /* \"Tweet_On_Base(latest)_flattened.sol\":17139:17141  to */\n  dup2\n    /* \"Tweet_On_Base(latest)_flattened.sol\":17124:17149  Transfer(from, to, value) */\n  0xffffffffffffffffffffffffffffffffffffffff\n  and\n    /* \"Tweet_On_Base(latest)_flattened.sol\":17133:17137  from */\n  dup4\n    /* \"Tweet_On_Base(latest)_flattened.sol\":17124:17149  Transfer(from, to, value) */\n  0xffffffffffffffffffffffffffffffffffffffff\n  and\n  0xddf252ad1be2c89b69c2b068fc378daa952ba7f163c4a11628f55a4df523b3ef\n    /* \"Tweet_On_Base(latest)_flattened.sol\":17143:17148  value */\n  dup4\n    /* \"Tweet_On_Base(latest)_flattened.sol\":17124:17149  Transfer(from, to, value) */\n  mload(0x40)\n  tag_37\n  swap2\n  swap1\n  tag_38\n  jump\t// in\ntag_37:\n  mload(0x40)\n  dup1\n  swap2\n  sub\n  swap1\n  log3\n    /* \"Tweet_On_Base(latest)_flattened.sol\":16049:17156  function _update(address from, address to, uint256 value) internal virtual {... */\n  pop\n  pop\n  pop\n  jump\t// out\n    /* \"#utility.yul\":7:106   */\ntag_39:\n    /* \"#utility.yul\":59:65   */\n  0x00\n    /* \"#utility.yul\":93:98   */\n  dup2\n    /* \"#utility.yul\":87:99   */\n  mload\n    /* \"#utility.yul\":77:99   */\n  swap1\n  pop\n    /* \"#utility.yul\":7:106   */\n  swap2\n  swap1\n  pop\n  jump\t// out\n    /* \"#utility.yul\":112:292   */\ntag_40:\n    /* \"#utility.yul\":160:237   */\n  0x4e487b7100000000000000000000000000000000000000000000000000000000\n    /* \"#utility.yul\":157:158   */\n  0x00\n    /* \"#utility.yul\":150:238   */\n  mstore\n    /* \"#utility.yul\":257:261   */\n  0x41\n    /* \"#utility.yul\":254:255   */\n  0x04\n    /* \"#utility.yul\":247:262   */\n  mstore\n    /* \"#utility.yul\":281:285   */\n  0x24\n    /* \"#utility.yul\":278:279   */\n  0x00\n    /* \"#utility.yul\":271:286   */\n  revert\n    /* \"#utility.yul\":298:478   */\ntag_41:\n    /* \"#utility.yul\":346:423   */\n  0x4e487b7100000000000000000000000000000000000000000000000000000000\n    /* \"#utility.yul\":343:344   */\n  0x00\n    /* \"#utility.yul\":336:424   */\n  mstore\n    /* \"#utility.yul\":443:447   */\n  0x22\n    /* \"#utility.yul\":440:441   */\n  0x04\n    /* \"#utility.yul\":433:448   */\n  mstore\n    /* \"#utility.yul\":467:471   */\n  0x24\n    /* \"#utility.yul\":464:465   */\n  0x00\n    /* \"#utility.yul\":457:472   */\n  revert\n    /* \"#utility.yul\":484:804   */\ntag_42:\n    /* \"#utility.yul\":528:534   */\n  0x00\n    /* \"#utility.yul\":565:566   */\n  0x02\n    /* \"#utility.yul\":559:563   */\n  dup3\n    /* \"#utility.yul\":555:567   */\n  div\n    /* \"#utility.yul\":545:567   */\n  swap1\n  pop\n    /* \"#utility.yul\":612:613   */\n  0x01\n    /* \"#utility.yul\":606:610   */\n  dup3\n    /* \"#utility.yul\":602:614   */\n  and\n    /* \"#utility.yul\":633:651   */\n  dup1\n    /* \"#utility.yul\":623:704   */\n  tag_69\n  jumpi\n    /* \"#utility.yul\":689:693   */\n  0x7f\n    /* \"#utility.yul\":681:687   */\n  dup3\n    /* \"#utility.yul\":677:694   */\n  and\n    /* \"#utility.yul\":667:694   */\n  swap2\n  pop\n    /* \"#utility.yul\":623:704   */\ntag_69:\n    /* \"#utility.yul\":751:753   */\n  0x20\n    /* \"#utility.yul\":743:749   */\n  dup3\n    /* \"#utility.yul\":740:754   */\n  lt\n    /* \"#utility.yul\":720:738   */\n  dup2\n    /* \"#utility.yul\":717:755   */\n  sub\n    /* \"#utility.yul\":714:798   */\n  tag_70\n  jumpi\n    /* \"#utility.yul\":770:788   */\n  tag_71\n  tag_41\n  jump\t// in\ntag_71:\n    /* \"#utility.yul\":714:798   */\ntag_70:\n    /* \"#utility.yul\":535:804   */\n  pop\n    /* \"#utility.yul\":484:804   */\n  swap2\n  swap1\n  pop\n  jump\t// out\n    /* \"#utility.yul\":810:951   */\ntag_43:\n    /* \"#utility.yul\":859:863   */\n  0x00\n    /* \"#utility.yul\":882:885   */\n  dup2\n    /* \"#utility.yul\":874:885   */\n  swap1\n  pop\n    /* \"#utility.yul\":905:908   */\n  dup2\n    /* \"#utility.yul\":902:903   */\n  0x00\n    /* \"#utility.yul\":895:909   */\n  mstore\n    /* \"#utility.yul\":939:943   */\n  0x20\n    /* \"#utility.yul\":936:937   */\n  0x00\n    /* \"#utility.yul\":926:944   */\n  keccak256\n    /* \"#utility.yul\":918:944   */\n  swap1\n  pop\n    /* \"#utility.yul\":810:951   */\n  swap2\n  swap1\n  pop\n  jump\t// out\n    /* \"#utility.yul\":957:1050   */\ntag_44:\n    /* \"#utility.yul\":994:1000   */\n  0x00\n    /* \"#utility.yul\":1041:1043   */\n  0x20\n    /* \"#utility.yul\":1036:1038   */\n  0x1f\n    /* \"#utility.yul\":1029:1034   */\n  dup4\n    /* \"#utility.yul\":1025:1039   */\n  add\n    /* \"#utility.yul\":1021:1044   */\n  div\n    /* \"#utility.yul\":1011:1044   */\n  swap1\n  pop\n    /* \"#utility.yul\":957:1050   */\n  swap2\n  swap1\n  pop\n  jump\t// out\n    /* \"#utility.yul\":1056:1163   */\ntag_45:\n    /* \"#utility.yul\":1100:1108   */\n  0x00\n    /* \"#utility.yul\":1150:1155   */\n  dup3\n    /* \"#utility.yul\":1144:1148   */\n  dup3\n    /* \"#utility.yul\":1140:1156   */\n  shl\n    /* \"#utility.yul\":1119:1156   */\n  swap1\n  pop\n    /* \"#utility.yul\":1056:1163   */\n  swap3\n  swap2\n  pop\n  pop\n  jump\t// out\n    /* \"#utility.yul\":1169:1562   */\ntag_46:\n    /* \"#utility.yul\":1238:1244   */\n  0x00\n    /* \"#utility.yul\":1288:1289   */\n  0x08\n    /* \"#utility.yul\":1276:1286   */\n  dup4\n    /* \"#utility.yul\":1272:1290   */\n  mul\n    /* \"#utility.yul\":1311:1408   */\n  tag_76\n    /* \"#utility.yul\":1341:1407   */\n  0xffffffffffffffffffffffffffffffffffffffffffffffffffffffffffffffff\n    /* \"#utility.yul\":1330:1339   */\n  dup3\n    /* \"#utility.yul\":1311:1408   */\n  tag_45\n  jump\t// in\ntag_76:\n    /* \"#utility.yul\":1429:1468   */\n  tag_77\n    /* \"#utility.yul\":1459:1467   */\n  dup7\n    /* \"#utility.yul\":1448:1457   */\n  dup4\n    /* \"#utility.yul\":1429:1468   */\n  tag_45\n  jump\t// in\ntag_77:\n    /* \"#utility.yul\":1417:1468   */\n  swap6\n  pop\n    /* \"#utility.yul\":1501:1505   */\n  dup1\n    /* \"#utility.yul\":1497:1506   */\n  not\n    /* \"#utility.yul\":1490:1495   */\n  dup5\n    /* \"#utility.yul\":1486:1507   */\n  and\n    /* \"#utility.yul\":1477:1507   */\n  swap4\n  pop\n    /* \"#utility.yul\":1550:1554   */\n  dup1\n    /* \"#utility.yul\":1540:1548   */\n  dup7\n    /* \"#utility.yul\":1536:1555   */\n  and\n    /* \"#utility.yul\":1529:1534   */\n  dup5\n    /* \"#utility.yul\":1526:1556   */\n  or\n    /* \"#utility.yul\":1516:1556   */\n  swap3\n  pop\n    /* \"#utility.yul\":1245:1562   */\n  pop\n  pop\n    /* \"#utility.yul\":1169:1562   */\n  swap4\n  swap3\n  pop\n  pop\n  pop\n  jump\t// out\n    /* \"#utility.yul\":1568:1645   */\ntag_47:\n    /* \"#utility.yul\":1605:1612   */\n  0x00\n    /* \"#utility.yul\":1634:1639   */\n  dup2\n    /* \"#utility.yul\":1623:1639   */\n  swap1\n  pop\n    /* \"#utility.yul\":1568:1645   */\n  swap2\n  swap1\n  pop\n  jump\t// out\n    /* \"#utility.yul\":1651:1711   */\ntag_48:\n    /* \"#utility.yul\":1679:1682   */\n  0x00\n    /* \"#utility.yul\":1700:1705   */\n  dup2\n    /* \"#utility.yul\":1693:1705   */\n  swap1\n  pop\n    /* \"#utility.yul\":1651:1711   */\n  swap2\n  swap1\n  pop\n  jump\t// out\n    /* \"#utility.yul\":1717:1859   */\ntag_49:\n    /* \"#utility.yul\":1767:1776   */\n  0x00\n    /* \"#utility.yul\":1800:1853   */\n  tag_81\n    /* \"#utility.yul\":1818:1852   */\n  tag_82\n    /* \"#utility.yul\":1827:1851   */\n  tag_83\n    /* \"#utility.yul\":1845:1850   */\n  dup5\n    /* \"#utility.yul\":1827:1851   */\n  tag_47\n  jump\t// in\ntag_83:\n    /* \"#utility.yul\":1818:1852   */\n  tag_48\n  jump\t// in\ntag_82:\n    /* \"#utility.yul\":1800:1853   */\n  tag_47\n  jump\t// in\ntag_81:\n    /* \"#utility.yul\":1787:1853   */\n  swap1\n  pop\n    /* \"#utility.yul\":1717:1859   */\n  swap2\n  swap1\n  pop\n  jump\t// out\n    /* \"#utility.yul\":1865:1940   */\ntag_50:\n    /* \"#utility.yul\":1908:1911   */\n  0x00\n    /* \"#utility.yul\":1929:1934   */\n  dup2\n    /* \"#utility.yul\":1922:1934   */\n  swap1\n  pop\n    /* \"#utility.yul\":1865:1940   */\n  swap2\n  swap1\n  pop\n  jump\t// out\n    /* \"#utility.yul\":1946:2215   */\ntag_51:\n    /* \"#utility.yul\":2056:2095   */\n  tag_86\n    /* \"#utility.yul\":2087:2094   */\n  dup4\n    /* \"#utility.yul\":2056:2095   */\n  tag_49\n  jump\t// in\ntag_86:\n    /* \"#utility.yul\":2117:2208   */\n  tag_87\n    /* \"#utility.yul\":2166:2207   */\n  tag_88\n    /* \"#utility.yul\":2190:2206   */\n  dup3\n    /* \"#utility.yul\":2166:2207   */\n  tag_50\n  jump\t// in\ntag_88:\n    /* \"#utility.yul\":2158:2164   */\n  dup5\n    /* \"#utility.yul\":2151:2155   */\n  dup5\n    /* \"#utility.yul\":2145:2156   */\n  sload\n    /* \"#utility.yul\":2117:2208   */\n  tag_46\n  jump\t// in\ntag_87:\n    /* \"#utility.yul\":2111:2115   */\n  dup3\n    /* \"#utility.yul\":2104:2209   */\n  sstore\n    /* \"#utility.yul\":2022:2215   */\n  pop\n    /* \"#utility.yul\":1946:2215   */\n  pop\n  pop\n  pop\n  jump\t// out\n    /* \"#utility.yul\":2221:2294   */\ntag_52:\n    /* \"#utility.yul\":2266:2269   */\n  0x00\n    /* \"#utility.yul\":2221:2294   */\n  swap1\n  jump\t// out\n    /* \"#utility.yul\":2300:2489   */\ntag_53:\n    /* \"#utility.yul\":2377:2409   */\n  tag_91\n  tag_52\n  jump\t// in\ntag_91:\n    /* \"#utility.yul\":2418:2483   */\n  tag_92\n    /* \"#utility.yul\":2476:2482   */\n  dup2\n    /* \"#utility.yul\":2468:2474   */\n  dup5\n    /* \"#utility.yul\":2462:2466   */\n  dup5\n    /* \"#utility.yul\":2418:2483   */\n  tag_51\n  jump\t// in\ntag_92:\n    /* \"#utility.yul\":2353:2489   */\n  pop\n    /* \"#utility.yul\":2300:2489   */\n  pop\n  pop\n  jump\t// out\n    /* \"#utility.yul\":2495:2681   */\ntag_54:\n    /* \"#utility.yul\":2555:2675   */\ntag_94:\n    /* \"#utility.yul\":2572:2575   */\n  dup2\n    /* \"#utility.yul\":2565:2570   */\n  dup2\n    /* \"#utility.yul\":2562:2576   */\n  lt\n    /* \"#utility.yul\":2555:2675   */\n  iszero\n  tag_96\n  jumpi\n    /* \"#utility.yul\":2626:2665   */\n  tag_97\n    /* \"#utility.yul\":2663:2664   */\n  0x00\n    /* \"#utility.yul\":2656:2661   */\n  dup3\n    /* \"#utility.yul\":2626:2665   */\n  tag_53\n  jump\t// in\ntag_97:\n    /* \"#utility.yul\":2599:2600   */\n  0x01\n    /* \"#utility.yul\":2592:2597   */\n  dup2\n    /* \"#utility.yul\":2588:2601   */\n  add\n    /* \"#utility.yul\":2579:2601   */\n  swap1\n  pop\n    /* \"#utility.yul\":2555:2675   */\n  jump(tag_94)\ntag_96:\n    /* \"#utility.yul\":2495:2681   */\n  pop\n  pop\n  jump\t// out\n    /* \"#utility.yul\":2687:3230   */\ntag_55:\n    /* \"#utility.yul\":2788:2790   */\n  0x1f\n    /* \"#utility.yul\":2783:2786   */\n  dup3\n    /* \"#utility.yul\":2780:2791   */\n  gt\n    /* \"#utility.yul\":2777:3223   */\n  iszero\n  tag_99\n  jumpi\n    /* \"#utility.yul\":2822:2860   */\n  tag_100\n    /* \"#utility.yul\":2854:2859   */\n  dup2\n    /* \"#utility.yul\":2822:2860   */\n  tag_43\n  jump\t// in\ntag_100:\n    /* \"#utility.yul\":2906:2935   */\n  tag_101\n    /* \"#utility.yul\":2924:2934   */\n  dup5\n    /* \"#utility.yul\":2906:2935   */\n  tag_44\n  jump\t// in\ntag_101:\n    /* \"#utility.yul\":2896:2904   */\n  dup2\n    /* \"#utility.yul\":2892:2936   */\n  add\n    /* \"#utility.yul\":3089:3091   */\n  0x20\n    /* \"#utility.yul\":3077:3087   */\n  dup6\n    /* \"#utility.yul\":3074:3092   */\n  lt\n    /* \"#utility.yul\":3071:3120   */\n  iszero\n  tag_102\n  jumpi\n    /* \"#utility.yul\":3110:3118   */\n  dup2\n    /* \"#utility.yul\":3095:3118   */\n  swap1\n  pop\n    /* \"#utility.yul\":3071:3120   */\ntag_102:\n    /* \"#utility.yul\":3133:3213   */\n  tag_103\n    /* \"#utility.yul\":3189:3211   */\n  tag_104\n    /* \"#utility.yul\":3207:3210   */\n  dup6\n    /* \"#utility.yul\":3189:3211   */\n  tag_44\n  jump\t// in\ntag_104:\n    /* \"#utility.yul\":3179:3187   */\n  dup4\n    /* \"#utility.yul\":3175:3212   */\n  add\n    /* \"#utility.yul\":3162:3173   */\n  dup3\n    /* \"#utility.yul\":3133:3213   */\n  tag_54\n  jump\t// in\ntag_103:\n    /* \"#utility.yul\":2792:3223   */\n  pop\n  pop\n    /* \"#utility.yul\":2777:3223   */\ntag_99:\n    /* \"#utility.yul\":2687:3230   */\n  pop\n  pop\n  pop\n  jump\t// out\n    /* \"#utility.yul\":3236:3353   */\ntag_56:\n    /* \"#utility.yul\":3290:3298   */\n  0x00\n    /* \"#utility.yul\":3340:3345   */\n  dup3\n    /* \"#utility.yul\":3334:3338   */\n  dup3\n    /* \"#utility.yul\":3330:3346   */\n  shr\n    /* \"#utility.yul\":3309:3346   */\n  swap1\n  pop\n    /* \"#utility.yul\":3236:3353   */\n  swap3\n  swap2\n  pop\n  pop\n  jump\t// out\n    /* \"#utility.yul\":3359:3528   */\ntag_57:\n    /* \"#utility.yul\":3403:3409   */\n  0x00\n    /* \"#utility.yul\":3436:3487   */\n  tag_107\n    /* \"#utility.yul\":3484:3485   */\n  0x00\n    /* \"#utility.yul\":3480:3486   */\n  not\n    /* \"#utility.yul\":3472:3477   */\n  dup5\n    /* \"#utility.yul\":3469:3470   */\n  0x08\n    /* \"#utility.yul\":3465:3478   */\n  mul\n    /* \"#utility.yul\":3436:3487   */\n  tag_56\n  jump\t// in\ntag_107:\n    /* \"#utility.yul\":3432:3488   */\n  not\n    /* \"#utility.yul\":3517:3521   */\n  dup1\n    /* \"#utility.yul\":3511:3515   */\n  dup4\n    /* \"#utility.yul\":3507:3522   */\n  and\n    /* \"#utility.yul\":3497:3522   */\n  swap2\n  pop\n    /* \"#utility.yul\":3410:3528   */\n  pop\n    /* \"#utility.yul\":3359:3528   */\n  swap3\n  swap2\n  pop\n  pop\n  jump\t// out\n    /* \"#utility.yul\":3533:3828   */\ntag_58:\n    /* \"#utility.yul\":3609:3613   */\n  0x00\n    /* \"#utility.yul\":3755:3784   */\n  tag_109\n    /* \"#utility.yul\":3780:3783   */\n  dup4\n    /* \"#utility.yul\":3774:3778   */\n  dup4\n    /* \"#utility.yul\":3755:3784   */\n  tag_57\n  jump\t// in\ntag_109:\n    /* \"#utility.yul\":3747:3784   */\n  swap2\n  pop\n    /* \"#utility.yul\":3817:3820   */\n  dup3\n    /* \"#utility.yul\":3814:3815   */\n  0x02\n    /* \"#utility.yul\":3810:3821   */\n  mul\n    /* \"#utility.yul\":3804:3808   */\n  dup3\n    /* \"#utility.yul\":3801:3822   */\n  or\n    /* \"#utility.yul\":3793:3822   */\n  swap1\n  pop\n    /* \"#utility.yul\":3533:3828   */\n  swap3\n  swap2\n  pop\n  pop\n  jump\t// out\n    /* \"#utility.yul\":3833:5228   */\ntag_8:\n    /* \"#utility.yul\":3950:3987   */\n  tag_111\n    /* \"#utility.yul\":3983:3986   */\n  dup3\n    /* \"#utility.yul\":3950:3987   */\n  tag_39\n  jump\t// in\ntag_111:\n    /* \"#utility.yul\":4052:4070   */\n  0xffffffffffffffff\n    /* \"#utility.yul\":4044:4050   */\n  dup2\n    /* \"#utility.yul\":4041:4071   */\n  gt\n    /* \"#utility.yul\":4038:4094   */\n  iszero\n  tag_112\n  jumpi\n    /* \"#utility.yul\":4074:4092   */\n  tag_113\n  tag_40\n  jump\t// in\ntag_113:\n    /* \"#utility.yul\":4038:4094   */\ntag_112:\n    /* \"#utility.yul\":4118:4156   */\n  tag_114\n    /* \"#utility.yul\":4150:4154   */\n  dup3\n    /* \"#utility.yul\":4144:4155   */\n  sload\n    /* \"#utility.yul\":4118:4156   */\n  tag_42\n  jump\t// in\ntag_114:\n    /* \"#utility.yul\":4203:4270   */\n  tag_115\n    /* \"#utility.yul\":4263:4269   */\n  dup3\n    /* \"#utility.yul\":4255:4261   */\n  dup3\n    /* \"#utility.yul\":4249:4253   */\n  dup6\n    /* \"#utility.yul\":4203:4270   */\n  tag_55\n  jump\t// in\ntag_115:\n    /* \"#utility.yul\":4297:4298   */\n  0x00\n    /* \"#utility.yul\":4321:4325   */\n  0x20\n    /* \"#utility.yul\":4308:4325   */\n  swap1\n  pop\n    /* \"#utility.yul\":4353:4355   */\n  0x1f\n    /* \"#utility.yul\":4345:4351   */\n  dup4\n    /* \"#utility.yul\":4342:4356   */\n  gt\n    /* \"#utility.yul\":4370:4371   */\n  0x01\n    /* \"#utility.yul\":4365:4983   */\n  dup2\n  eq\n  tag_117\n  jumpi\n    /* \"#utility.yul\":5027:5028   */\n  0x00\n    /* \"#utility.yul\":5044:5050   */\n  dup5\n    /* \"#utility.yul\":5041:5118   */\n  iszero\n  tag_118\n  jumpi\n    /* \"#utility.yul\":5093:5102   */\n  dup3\n    /* \"#utility.yul\":5088:5091   */\n  dup8\n    /* \"#utility.yul\":5084:5103   */\n  add\n    /* \"#utility.yul\":5078:5104   */\n  mload\n    /* \"#utility.yul\":5069:5104   */\n  swap1\n  pop\n    /* \"#utility.yul\":5041:5118   */\ntag_118:\n    /* \"#utility.yul\":5144:5211   */\n  tag_119\n    /* \"#utility.yul\":5204:5210   */\n  dup6\n    /* \"#utility.yul\":5197:5202   */\n  dup3\n    /* \"#utility.yul\":5144:5211   */\n  tag_58\n  jump\t// in\ntag_119:\n    /* \"#utility.yul\":5138:5142   */\n  dup7\n    /* \"#utility.yul\":5131:5212   */\n  sstore\n    /* \"#utility.yul\":5000:5222   */\n  pop\n    /* \"#utility.yul\":4335:5222   */\n  jump(tag_116)\n    /* \"#utility.yul\":4365:4983   */\ntag_117:\n    /* \"#utility.yul\":4417:4421   */\n  0x1f\n    /* \"#utility.yul\":4413:4422   */\n  not\n    /* \"#utility.yul\":4405:4411   */\n  dup5\n    /* \"#utility.yul\":4401:4423   */\n  and\n    /* \"#utility.yul\":4451:4488   */\n  tag_120\n    /* \"#utility.yul\":4483:4487   */\n  dup7\n    /* \"#utility.yul\":4451:4488   */\n  tag_43\n  jump\t// in\ntag_120:\n    /* \"#utility.yul\":4510:4511   */\n  0x00\n    /* \"#utility.yul\":4524:4732   */\ntag_121:\n    /* \"#utility.yul\":4538:4545   */\n  dup3\n    /* \"#utility.yul\":4535:4536   */\n  dup2\n    /* \"#utility.yul\":4532:4546   */\n  lt\n    /* \"#utility.yul\":4524:4732   */\n  iszero\n  tag_123\n  jumpi\n    /* \"#utility.yul\":4617:4626   */\n  dup5\n    /* \"#utility.yul\":4612:4615   */\n  dup10\n    /* \"#utility.yul\":4608:4627   */\n  add\n    /* \"#utility.yul\":4602:4628   */\n  mload\n    /* \"#utility.yul\":4594:4600   */\n  dup3\n    /* \"#utility.yul\":4587:4629   */\n  sstore\n    /* \"#utility.yul\":4668:4669   */\n  0x01\n    /* \"#utility.yul\":4660:4666   */\n  dup3\n    /* \"#utility.yul\":4656:4670   */\n  add\n    /* \"#utility.yul\":4646:4670   */\n  swap2\n  pop\n    /* \"#utility.yul\":4715:4717   */\n  0x20\n    /* \"#utility.yul\":4704:4713   */\n  dup6\n    /* \"#utility.yul\":4700:4718   */\n  add\n    /* \"#utility.yul\":4687:4718   */\n  swap5\n  pop\n    /* \"#utility.yul\":4561:4565   */\n  0x20\n    /* \"#utility.yul\":4558:4559   */\n  dup2\n    /* \"#utility.yul\":4554:4566   */\n  add\n    /* \"#utility.yul\":4549:4566   */\n  swap1\n  pop\n    /* \"#utility.yul\":4524:4732   */\n  jump(tag_121)\ntag_123:\n    /* \"#utility.yul\":4760:4766   */\n  dup7\n    /* \"#utility.yul\":4751:4758   */\n  dup4\n    /* \"#utility.yul\":4748:4767   */\n  lt\n    /* \"#utility.yul\":4745:4924   */\n  iszero\n  tag_124\n  jumpi\n    /* \"#utility.yul\":4818:4827   */\n  dup5\n    /* \"#utility.yul\":4813:4816   */\n  dup10\n    /* \"#utility.yul\":4809:4828   */\n  add\n    /* \"#utility.yul\":4803:4829   */\n  mload\n    /* \"#utility.yul\":4861:4909   */\n  tag_125\n    /* \"#utility.yul\":4903:4907   */\n  0x1f\n    /* \"#utility.yul\":4895:4901   */\n  dup10\n    /* \"#utility.yul\":4891:4908   */\n  and\n    /* \"#utility.yul\":4880:4889   */\n  dup3\n    /* \"#utility.yul\":4861:4909   */\n  tag_57\n  jump\t// in\ntag_125:\n    /* \"#utility.yul\":4853:4859   */\n  dup4\n    /* \"#utility.yul\":4846:4910   */\n  sstore\n    /* \"#utility.yul\":4768:4924   */\n  pop\n    /* \"#utility.yul\":4745:4924   */\ntag_124:\n    /* \"#utility.yul\":4970:4971   */\n  0x01\n    /* \"#utility.yul\":4966:4967   */\n  0x02\n    /* \"#utility.yul\":4958:4964   */\n  dup9\n    /* \"#utility.yul\":4954:4968   */\n  mul\n    /* \"#utility.yul\":4950:4972   */\n  add\n    /* \"#utility.yul\":4944:4948   */\n  dup9\n    /* \"#utility.yul\":4937:4973   */\n  sstore\n    /* \"#utility.yul\":4372:4983   */\n  pop\n  pop\n  pop\n    /* \"#utility.yul\":4335:5222   */\ntag_116:\n  pop\n    /* \"#utility.yul\":3925:5228   */\n  pop\n  pop\n  pop\n    /* \"#utility.yul\":3833:5228   */\n  pop\n  pop\n  jump\t// out\n    /* \"#utility.yul\":5234:5360   */\ntag_59:\n    /* \"#utility.yul\":5271:5278   */\n  0x00\n    /* \"#utility.yul\":5311:5353   */\n  0xffffffffffffffffffffffffffffffffffffffff\n    /* \"#utility.yul\":5304:5309   */\n  dup3\n    /* \"#utility.yul\":5300:5354   */\n  and\n    /* \"#utility.yul\":5289:5354   */\n  swap1\n  pop\n    /* \"#utility.yul\":5234:5360   */\n  swap2\n  swap1\n  pop\n  jump\t// out\n    /* \"#utility.yul\":5366:5462   */\ntag_60:\n    /* \"#utility.yul\":5403:5410   */\n  0x00\n    /* \"#utility.yul\":5432:5456   */\n  tag_128\n    /* \"#utility.yul\":5450:5455   */\n  dup3\n    /* \"#utility.yul\":5432:5456   */\n  tag_59\n  jump\t// in\ntag_128:\n    /* \"#utility.yul\":5421:5456   */\n  swap1\n  pop\n    /* \"#utility.yul\":5366:5462   */\n  swap2\n  swap1\n  pop\n  jump\t// out\n    /* \"#utility.yul\":5468:5586   */\ntag_61:\n    /* \"#utility.yul\":5555:5579   */\n  tag_130\n    /* \"#utility.yul\":5573:5578   */\n  dup2\n    /* \"#utility.yul\":5555:5579   */\n  tag_60\n  jump\t// in\ntag_130:\n    /* \"#utility.yul\":5550:5553   */\n  dup3\n    /* \"#utility.yul\":5543:5580   */\n  mstore\n    /* \"#utility.yul\":5468:5586   */\n  pop\n  pop\n  jump\t// out\n    /* \"#utility.yul\":5592:5814   */\ntag_13:\n    /* \"#utility.yul\":5685:5689   */\n  0x00\n    /* \"#utility.yul\":5723:5725   */\n  0x20\n    /* \"#utility.yul\":5712:5721   */\n  dup3\n    /* \"#utility.yul\":5708:5726   */\n  add\n    /* \"#utility.yul\":5700:5726   */\n  swap1\n  pop\n    /* \"#utility.yul\":5736:5807   */\n  tag_132\n    /* \"#utility.yul\":5804:5805   */\n  0x00\n    /* \"#utility.yul\":5793:5802   */\n  dup4\n    /* \"#utility.yul\":5789:5806   */\n  add\n    /* \"#utility.yul\":5780:5786   */\n  dup5\n    /* \"#utility.yul\":5736:5807   */\n  tag_61\n  jump\t// in\ntag_132:\n    /* \"#utility.yul\":5592:5814   */\n  swap3\n  swap2\n  pop\n  pop\n  jump\t// out\n    /* \"#utility.yul\":5820:6000   */\ntag_62:\n    /* \"#utility.yul\":5868:5945   */\n  0x4e487b7100000000000000000000000000000000000000000000000000000000\n    /* \"#utility.yul\":5865:5866   */\n  0x00\n    /* \"#utility.yul\":5858:5946   */\n  mstore\n    /* \"#utility.yul\":5965:5969   */\n  0x11\n    /* \"#utility.yul\":5962:5963   */\n  0x04\n    /* \"#utility.yul\":5955:5970   */\n  mstore\n    /* \"#utility.yul\":5989:5993   */\n  0x24\n    /* \"#utility.yul\":5986:5987   */\n  0x00\n    /* \"#utility.yul\":5979:5994   */\n  revert\n    /* \"#utility.yul\":6006:6197   */\ntag_30:\n    /* \"#utility.yul\":6046:6049   */\n  0x00\n    /* \"#utility.yul\":6065:6085   */\n  tag_135\n    /* \"#utility.yul\":6083:6084   */\n  dup3\n    /* \"#utility.yul\":6065:6085   */\n  tag_47\n  jump\t// in\ntag_135:\n    /* \"#utility.yul\":6060:6085   */\n  swap2\n  pop\n    /* \"#utility.yul\":6099:6119   */\n  tag_136\n    /* \"#utility.yul\":6117:6118   */\n  dup4\n    /* \"#utility.yul\":6099:6119   */\n  tag_47\n  jump\t// in\ntag_136:\n    /* \"#utility.yul\":6094:6119   */\n  swap3\n  pop\n    /* \"#utility.yul\":6142:6143   */\n  dup3\n    /* \"#utility.yul\":6139:6140   */\n  dup3\n    /* \"#utility.yul\":6135:6144   */\n  add\n    /* \"#utility.yul\":6128:6144   */\n  swap1\n  pop\n    /* \"#utility.yul\":6163:6166   */\n  dup1\n    /* \"#utility.yul\":6160:6161   */\n  dup3\n    /* \"#utility.yul\":6157:6167   */\n  gt\n    /* \"#utility.yul\":6154:6190   */\n  iszero\n  tag_137\n  jumpi\n    /* \"#utility.yul\":6170:6188   */\n  tag_138\n  tag_62\n  jump\t// in\ntag_138:\n    /* \"#utility.yul\":6154:6190   */\ntag_137:\n    /* \"#utility.yul\":6006:6197   */\n  swap3\n  swap2\n  pop\n  pop\n  jump\t// out\n    /* \"#utility.yul\":6203:6321   */\ntag_63:\n    /* \"#utility.yul\":6290:6314   */\n  tag_140\n    /* \"#utility.yul\":6308:6313   */\n  dup2\n    /* \"#utility.yul\":6290:6314   */\n  tag_47\n  jump\t// in\ntag_140:\n    /* \"#utility.yul\":6285:6288   */\n  dup3\n    /* \"#utility.yul\":6278:6315   */\n  mstore\n    /* \"#utility.yul\":6203:6321   */\n  pop\n  pop\n  jump\t// out\n    /* \"#utility.yul\":6327:6769   */\ntag_34:\n    /* \"#utility.yul\":6476:6480   */\n  0x00\n    /* \"#utility.yul\":6514:6516   */\n  0x60\n    /* \"#utility.yul\":6503:6512   */\n  dup3\n    /* \"#utility.yul\":6499:6517   */\n  add\n    /* \"#utility.yul\":6491:6517   */\n  swap1\n  pop\n    /* \"#utility.yul\":6527:6598   */\n  tag_142\n    /* \"#utility.yul\":6595:6596   */\n  0x00\n    /* \"#utility.yul\":6584:6593   */\n  dup4\n    /* \"#utility.yul\":6580:6597   */\n  add\n    /* \"#utility.yul\":6571:6577   */\n  dup7\n    /* \"#utility.yul\":6527:6598   */\n  tag_61\n  jump\t// in\ntag_142:\n    /* \"#utility.yul\":6608:6680   */\n  tag_143\n    /* \"#utility.yul\":6676:6678   */\n  0x20\n    /* \"#utility.yul\":6665:6674   */\n  dup4\n    /* \"#utility.yul\":6661:6679   */\n  add\n    /* \"#utility.yul\":6652:6658   */\n  dup6\n    /* \"#utility.yul\":6608:6680   */\n  tag_63\n  jump\t// in\ntag_143:\n    /* \"#utility.yul\":6690:6762   */\n  tag_144\n    /* \"#utility.yul\":6758:6760   */\n  0x40\n    /* \"#utility.yul\":6747:6756   */\n  dup4\n    /* \"#utility.yul\":6743:6761   */\n  add\n    /* \"#utility.yul\":6734:6740   */\n  dup5\n    /* \"#utility.yul\":6690:6762   */\n  tag_63\n  jump\t// in\ntag_144:\n    /* \"#utility.yul\":6327:6769   */\n  swap5\n  swap4\n  pop\n  pop\n  pop\n  pop\n  jump\t// out\n    /* \"#utility.yul\":6775:6997   */\ntag_38:\n    /* \"#utility.yul\":6868:6872   */\n  0x00\n    /* \"#utility.yul\":6906:6908   */\n  0x20\n    /* \"#utility.yul\":6895:6904   */\n  dup3\n    /* \"#utility.yul\":6891:6909   */\n  add\n    /* \"#utility.yul\":6883:6909   */\n  swap1\n  pop\n    /* \"#utility.yul\":6919:6990   */\n  tag_146\n    /* \"#utility.yul\":6987:6988   */\n  0x00\n    /* \"#utility.yul\":6976:6985   */\n  dup4\n    /* \"#utility.yul\":6972:6989   */\n  add\n    /* \"#utility.yul\":6963:6969   */\n  dup5\n    /* \"#utility.yul\":6919:6990   */\n  tag_63\n  jump\t// in\ntag_146:\n    /* \"#utility.yul\":6775:6997   */\n  swap3\n  swap2\n  pop\n  pop\n  jump\t// out\n    /* \"Tweet_On_Base(latest)_flattened.sol\":28471:32071  contract Tweet_On_Base is ERC20, ERC20Burnable, Ownable, ReentrancyGuard { ... */\ntag_20:\n  dataSize(sub_0)\n  dup1\n  dataOffset(sub_0)\n  0x00\n  codecopy\n  0x00\n  return\nstop\n\nsub_0: assembly {\n        /* \"Tweet_On_Base(latest)_flattened.sol\":28471:32071  contract Tweet_On_Base is ERC20, ERC20Burnable, Ownable, ReentrancyGuard { ... */\n      mstore(0x40, 0x80)\n      callvalue\n      dup1\n      iszero\n      tag_1\n      jumpi\n      0x00\n      dup1\n      revert\n    tag_1:\n      pop\n      jumpi(tag_2, lt(calldatasize, 0x04))\n      shr(0xe0, calldataload(0x00))\n      dup1\n      0x715018a6\n      gt\n      tag_25\n      jumpi\n      dup1\n      0xafe8289a\n      gt\n      tag_26\n      jumpi\n      dup1\n      0xafe8289a\n      eq\n      tag_19\n      jumpi\n      dup1\n      0xc8052107\n      eq\n      tag_20\n      jumpi\n      dup1\n      0xd82e3962\n      eq\n      tag_21\n      jumpi\n      dup1\n      0xdd62ed3e\n      eq\n      tag_22\n      jumpi\n      dup1\n      0xf2fde38b\n      eq\n      tag_23\n      jumpi\n      dup1\n      0xfc6d483a\n      eq\n      tag_24\n      jumpi\n      jump(tag_2)\n    tag_26:\n      dup1\n      0x715018a6\n      eq\n      tag_14\n      jumpi\n      dup1\n      0x79cc6790\n      eq\n      tag_15\n      jumpi\n      dup1\n      0x8da5cb5b\n      eq\n      tag_16\n      jumpi\n      dup1\n      0x95d89b41\n      eq\n      tag_17\n      jumpi\n      dup1\n      0xa9059cbb\n      eq\n      tag_18\n      jumpi\n      jump(tag_2)\n    tag_25:\n      dup1\n      0x2ff2e9dc\n      gt\n      tag_27\n      jumpi\n      dup1\n      0x2ff2e9dc\n      eq\n      tag_8\n      jumpi\n      dup1\n      0x313ce567\n      eq\n      tag_9\n      jumpi\n      dup1\n      0x32cb6b0c\n      eq\n      tag_10\n      jumpi\n      dup1\n      0x42966c68\n      eq\n      tag_11\n      jumpi\n      dup1\n      0x51c6590a\n      eq\n      tag_12\n      jumpi\n      dup1\n      0x70a08231\n      eq\n      tag_13\n      jumpi\n      jump(tag_2)\n    tag_27:\n      dup1\n      0x06fdde03\n      eq\n      tag_3\n      jumpi\n      dup1\n      0x095ea7b3\n      eq\n      tag_4\n      jumpi\n      dup1\n      0x18160ddd\n      eq\n      tag_5\n      jumpi\n      dup1\n      0x2254b79c\n      eq\n      tag_6\n      jumpi\n      dup1\n      0x23b872dd\n      eq\n      tag_7\n      jumpi\n    tag_2:\n      0x00\n      dup1\n      revert\n        /* \"Tweet_On_Base(latest)_flattened.sol\":11844:11933  function name() public view virtual returns (string memory) {... */\n    tag_3:\n      tag_28\n      tag_29\n      jump\t// in\n    tag_28:\n      mload(0x40)\n      tag_30\n      swap2\n      swap1\n      tag_31\n      jump\t// in\n    tag_30:\n      mload(0x40)\n      dup1\n      swap2\n      sub\n      swap1\n      return\n        /* \"Tweet_On_Base(latest)_flattened.sol\":14063:14249  function approve(address spender, uint256 value) public virtual returns (bool) {... */\n    tag_4:\n      tag_32\n      0x04\n      dup1\n      calldatasize\n      sub\n      dup2\n      add\n      swap1\n      tag_33\n      swap2\n      swap1\n      tag_34\n      jump\t// in\n    tag_33:\n      tag_35\n      jump\t// in\n    tag_32:\n      mload(0x40)\n      tag_36\n      swap2\n      swap1\n      tag_37\n      jump\t// in\n    tag_36:\n      mload(0x40)\n      dup1\n      swap2\n      sub\n      swap1\n      return\n        /* \"Tweet_On_Base(latest)_flattened.sol\":12914:13011  function totalSupply() public view virtual returns (uint256) {... */\n    tag_5:\n      tag_38\n      tag_39\n      jump\t// in\n    tag_38:\n      mload(0x40)\n      tag_40\n      swap2\n      swap1\n      tag_41\n      jump\t// in\n    tag_40:\n      mload(0x40)\n      dup1\n      swap2\n      sub\n      swap1\n      return\n        /* \"Tweet_On_Base(latest)_flattened.sol\":31693:32067  function ownerRemoveLiquidity(uint256 amount) public onlyOwner nonReentrant {... */\n    tag_6:\n      tag_42\n      0x04\n      dup1\n      calldatasize\n      sub\n      dup2\n      add\n      swap1\n      tag_43\n      swap2\n      swap1\n      tag_44\n      jump\t// in\n    tag_43:\n      tag_45\n      jump\t// in\n    tag_42:\n      stop\n        /* \"Tweet_On_Base(latest)_flattened.sol\":14809:15053  function transferFrom(address from, address to, uint256 value) public virtual returns (bool) {... */\n    tag_7:\n      tag_46\n      0x04\n      dup1\n      calldatasize\n      sub\n      dup2\n      add\n      swap1\n      tag_47\n      swap2\n      swap1\n      tag_48\n      jump\t// in\n    tag_47:\n      tag_49\n      jump\t// in\n    tag_46:\n      mload(0x40)\n      tag_50\n      swap2\n      swap1\n      tag_37\n      jump\t// in\n    tag_50:\n      mload(0x40)\n      dup1\n      swap2\n      sub\n      swap1\n      return\n        /* \"Tweet_On_Base(latest)_flattened.sol\":28551:28614  uint256 public constant INITIAL_SUPPLY = 10_000_000 * (10 ** 2) */\n    tag_8:\n      tag_51\n      tag_52\n      jump\t// in\n    tag_51:\n      mload(0x40)\n      tag_53\n      swap2\n      swap1\n      tag_41\n      jump\t// in\n    tag_53:\n      mload(0x40)\n      dup1\n      swap2\n      sub\n      swap1\n      return\n        /* \"Tweet_On_Base(latest)_flattened.sol\":28820:28910  function decimals() public view virtual override returns (uint8) {... */\n    tag_9:\n      tag_54\n      tag_55\n      jump\t// in\n    tag_54:\n      mload(0x40)\n      tag_56\n      swap2\n      swap1\n      tag_57\n      jump\t// in\n    tag_56:\n      mload(0x40)\n      dup1\n      swap2\n      sub\n      swap1\n      return\n        /* \"Tweet_On_Base(latest)_flattened.sol\":28620:28683  uint256 public constant MAX_SUPPLY = 50_000_000_000 * (10 ** 2) */\n    tag_10:\n      tag_58\n      tag_59\n      jump\t// in\n    tag_58:\n      mload(0x40)\n      tag_60\n      swap2\n      swap1\n      tag_41\n      jump\t// in\n    tag_60:\n      mload(0x40)\n      dup1\n      swap2\n      sub\n      swap1\n      return\n        /* \"Tweet_On_Base(latest)_flattened.sol\":21628:21715  function burn(uint256 value) public virtual {... */\n    tag_11:\n      tag_61\n      0x04\n      dup1\n      calldatasize\n      sub\n      dup2\n      add\n      swap1\n      tag_62\n      swap2\n      swap1\n      tag_44\n      jump\t// in\n    tag_62:\n      tag_63\n      jump\t// in\n    tag_61:\n      stop\n        /* \"Tweet_On_Base(latest)_flattened.sol\":29598:29821  function addLiquidity(uint256 amount) public {... */\n    tag_12:\n      tag_64\n      0x04\n      dup1\n      calldatasize\n      sub\n      dup2\n      add\n      swap1\n      tag_65\n      swap2\n      swap1\n      tag_44\n      jump\t// in\n    tag_65:\n      tag_66\n      jump\t// in\n    tag_64:\n      stop\n        /* \"Tweet_On_Base(latest)_flattened.sol\":13069:13185  function balanceOf(address account) public view virtual returns (uint256) {... */\n    tag_13:\n      tag_67\n      0x04\n      dup1\n      calldatasize\n      sub\n      dup2\n      add\n      swap1\n      tag_68\n      swap2\n      swap1\n      tag_69\n      jump\t// in\n    tag_68:\n      tag_70\n      jump\t// in\n    tag_67:\n      mload(0x40)\n      tag_71\n      swap2\n      swap1\n      tag_41\n      jump\t// in\n    tag_71:\n      mload(0x40)\n      dup1\n      swap2\n      sub\n      swap1\n      return\n        /* \"Tweet_On_Base(latest)_flattened.sol\":24448:24549  function renounceOwnership() public virtual onlyOwner {... */\n    tag_14:\n      tag_72\n      tag_73\n      jump\t// in\n    tag_72:\n      stop\n        /* \"Tweet_On_Base(latest)_flattened.sol\":22031:22189  function burnFrom(address account, uint256 value) public virtual {... */\n    tag_15:\n      tag_74\n      0x04\n      dup1\n      calldatasize\n      sub\n      dup2\n      add\n      swap1\n      tag_75\n      swap2\n      swap1\n      tag_34\n      jump\t// in\n    tag_75:\n      tag_76\n      jump\t// in\n    tag_74:\n      stop\n        /* \"Tweet_On_Base(latest)_flattened.sol\":23793:23878  function owner() public view virtual returns (address) {... */\n    tag_16:\n      tag_77\n      tag_78\n      jump\t// in\n    tag_77:\n      mload(0x40)\n      tag_79\n      swap2\n      swap1\n      tag_80\n      jump\t// in\n    tag_79:\n      mload(0x40)\n      dup1\n      swap2\n      sub\n      swap1\n      return\n        /* \"Tweet_On_Base(latest)_flattened.sol\":12046:12139  function symbol() public view virtual returns (string memory) {... */\n    tag_17:\n      tag_81\n      tag_82\n      jump\t// in\n    tag_81:\n      mload(0x40)\n      tag_83\n      swap2\n      swap1\n      tag_31\n      jump\t// in\n    tag_83:\n      mload(0x40)\n      dup1\n      swap2\n      sub\n      swap1\n      return\n        /* \"Tweet_On_Base(latest)_flattened.sol\":13380:13558  function transfer(address to, uint256 value) public virtual returns (bool) {... */\n    tag_18:\n      tag_84\n      0x04\n      dup1\n      calldatasize\n      sub\n      dup2\n      add\n      swap1\n      tag_85\n      swap2\n      swap1\n      tag_34\n      jump\t// in\n    tag_85:\n      tag_86\n      jump\t// in\n    tag_84:\n      mload(0x40)\n      tag_87\n      swap2\n      swap1\n      tag_37\n      jump\t// in\n    tag_87:\n      mload(0x40)\n      dup1\n      swap2\n      sub\n      swap1\n      return\n        /* \"Tweet_On_Base(latest)_flattened.sol\":31471:31687  function ownerAddLiquidity(uint256 amount) public onlyOwner {... */\n    tag_19:\n      tag_88\n      0x04\n      dup1\n      calldatasize\n      sub\n      dup2\n      add\n      swap1\n      tag_89\n      swap2\n      swap1\n      tag_44\n      jump\t// in\n    tag_89:\n      tag_90\n      jump\t// in\n    tag_88:\n      stop\n        /* \"Tweet_On_Base(latest)_flattened.sol\":30123:31110  function removeLiquidityAndClaimRewards(uint256 amount) public nonReentrant {... */\n    tag_20:\n      tag_91\n      0x04\n      dup1\n      calldatasize\n      sub\n      dup2\n      add\n      swap1\n      tag_92\n      swap2\n      swap1\n      tag_44\n      jump\t// in\n    tag_92:\n      tag_93\n      jump\t// in\n    tag_91:\n      stop\n        /* \"Tweet_On_Base(latest)_flattened.sol\":31116:31466  function calculateReward(address user) public view returns (uint256) {... */\n    tag_21:\n      tag_94\n      0x04\n      dup1\n      calldatasize\n      sub\n      dup2\n      add\n      swap1\n      tag_95\n      swap2\n      swap1\n      tag_69\n      jump\t// in\n    tag_95:\n      tag_96\n      jump\t// in\n    tag_94:\n      mload(0x40)\n      tag_97\n      swap2\n      swap1\n      tag_41\n      jump\t// in\n    tag_97:\n      mload(0x40)\n      dup1\n      swap2\n      sub\n      swap1\n      return\n        /* \"Tweet_On_Base(latest)_flattened.sol\":13616:13756  function allowance(address owner, address spender) public view virtual returns (uint256) {... */\n    tag_22:\n      tag_98\n      0x04\n      dup1\n      calldatasize\n      sub\n      dup2\n      add\n      swap1\n      tag_99\n      swap2\n      swap1\n      tag_100\n      jump\t// in\n    tag_99:\n      tag_101\n      jump\t// in\n    tag_98:\n      mload(0x40)\n      tag_102\n      swap2\n      swap1\n      tag_41\n      jump\t// in\n    tag_102:\n      mload(0x40)\n      dup1\n      swap2\n      sub\n      swap1\n      return\n        /* \"Tweet_On_Base(latest)_flattened.sol\":24698:24913  function transferOwnership(address newOwner) public virtual onlyOwner {... */\n    tag_23:\n      tag_103\n      0x04\n      dup1\n      calldatasize\n      sub\n      dup2\n      add\n      swap1\n      tag_104\n      swap2\n      swap1\n      tag_69\n      jump\t// in\n    tag_104:\n      tag_105\n      jump\t// in\n    tag_103:\n      stop\n        /* \"Tweet_On_Base(latest)_flattened.sol\":29826:30053  function undoAddLiquidity(uint256 amount) public {... */\n    tag_24:\n      tag_106\n      0x04\n      dup1\n      calldatasize\n      sub\n      dup2\n      add\n      swap1\n      tag_107\n      swap2\n      swap1\n      tag_44\n      jump\t// in\n    tag_107:\n      tag_108\n      jump\t// in\n    tag_106:\n      stop\n        /* \"Tweet_On_Base(latest)_flattened.sol\":11844:11933  function name() public view virtual returns (string memory) {... */\n    tag_29:\n        /* \"Tweet_On_Base(latest)_flattened.sol\":11889:11902  string memory */\n      0x60\n        /* \"Tweet_On_Base(latest)_flattened.sol\":11921:11926  _name */\n      0x03\n        /* \"Tweet_On_Base(latest)_flattened.sol\":11914:11926  return _name */\n      dup1\n      sload\n      tag_110\n      swap1\n      tag_111\n      jump\t// in\n    tag_110:\n      dup1\n      0x1f\n      add\n      0x20\n      dup1\n      swap2\n      div\n      mul\n      0x20\n      add\n      mload(0x40)\n      swap1\n      dup2\n      add\n      0x40\n      mstore\n      dup1\n      swap3\n      swap2\n      swap1\n      dup2\n      dup2\n      mstore\n      0x20\n      add\n      dup3\n      dup1\n      sload\n      tag_112\n      swap1\n      tag_111\n      jump\t// in\n    tag_112:\n      dup1\n      iszero\n      tag_113\n      jumpi\n      dup1\n      0x1f\n      lt\n      tag_114\n      jumpi\n      0x0100\n      dup1\n      dup4\n      sload\n      div\n      mul\n      dup4\n      mstore\n      swap2\n      0x20\n      add\n      swap2\n      jump(tag_113)\n    tag_114:\n      dup3\n      add\n      swap2\n      swap1\n      0x00\n      mstore\n      keccak256(0x00, 0x20)\n      swap1\n    tag_115:\n      dup2\n      sload\n      dup2\n      mstore\n      swap1\n      0x01\n      add\n      swap1\n      0x20\n      add\n      dup1\n      dup4\n      gt\n      tag_115\n      jumpi\n      dup3\n      swap1\n      sub\n      0x1f\n      and\n      dup3\n      add\n      swap2\n    tag_113:\n      pop\n      pop\n      pop\n      pop\n      pop\n      swap1\n      pop\n        /* \"Tweet_On_Base(latest)_flattened.sol\":11844:11933  function name() public view virtual returns (string memory) {... */\n      swap1\n      jump\t// out\n        /* \"Tweet_On_Base(latest)_flattened.sol\":14063:14249  function approve(address spender, uint256 value) public virtual returns (bool) {... */\n    tag_35:\n        /* \"Tweet_On_Base(latest)_flattened.sol\":14136:14140  bool */\n      0x00\n        /* \"Tweet_On_Base(latest)_flattened.sol\":14152:14165  address owner */\n      dup1\n        /* \"Tweet_On_Base(latest)_flattened.sol\":14168:14180  _msgSender() */\n      tag_117\n        /* \"Tweet_On_Base(latest)_flattened.sol\":14168:14178  _msgSender */\n      tag_118\n        /* \"Tweet_On_Base(latest)_flattened.sol\":14168:14180  _msgSender() */\n      jump\t// in\n    tag_117:\n        /* \"Tweet_On_Base(latest)_flattened.sol\":14152:14180  address owner = _msgSender() */\n      swap1\n      pop\n        /* \"Tweet_On_Base(latest)_flattened.sol\":14190:14221  _approve(owner, spender, value) */\n      tag_119\n        /* \"Tweet_On_Base(latest)_flattened.sol\":14199:14204  owner */\n      dup2\n        /* \"Tweet_On_Base(latest)_flattened.sol\":14206:14213  spender */\n      dup6\n        /* \"Tweet_On_Base(latest)_flattened.sol\":14215:14220  value */\n      dup6\n        /* \"Tweet_On_Base(latest)_flattened.sol\":14190:14198  _approve */\n      tag_120\n        /* \"Tweet_On_Base(latest)_flattened.sol\":14190:14221  _approve(owner, spender, value) */\n      jump\t// in\n    tag_119:\n        /* \"Tweet_On_Base(latest)_flattened.sol\":14238:14242  true */\n      0x01\n        /* \"Tweet_On_Base(latest)_flattened.sol\":14231:14242  return true */\n      swap2\n      pop\n      pop\n        /* \"Tweet_On_Base(latest)_flattened.sol\":14063:14249  function approve(address spender, uint256 value) public virtual returns (bool) {... */\n      swap3\n      swap2\n      pop\n      pop\n      jump\t// out\n        /* \"Tweet_On_Base(latest)_flattened.sol\":12914:13011  function totalSupply() public view virtual returns (uint256) {... */\n    tag_39:\n        /* \"Tweet_On_Base(latest)_flattened.sol\":12966:12973  uint256 */\n      0x00\n        /* \"Tweet_On_Base(latest)_flattened.sol\":12992:13004  _totalSupply */\n      sload(0x02)\n        /* \"Tweet_On_Base(latest)_flattened.sol\":12985:13004  return _totalSupply */\n      swap1\n      pop\n        /* \"Tweet_On_Base(latest)_flattened.sol\":12914:13011  function totalSupply() public view virtual returns (uint256) {... */\n      swap1\n      jump\t// out\n        /* \"Tweet_On_Base(latest)_flattened.sol\":31693:32067  function ownerRemoveLiquidity(uint256 amount) public onlyOwner nonReentrant {... */\n    tag_45:\n        /* \"Tweet_On_Base(latest)_flattened.sol\":23686:23699  _checkOwner() */\n      tag_123\n        /* \"Tweet_On_Base(latest)_flattened.sol\":23686:23697  _checkOwner */\n      tag_124\n        /* \"Tweet_On_Base(latest)_flattened.sol\":23686:23699  _checkOwner() */\n      jump\t// in\n    tag_123:\n        /* \"Tweet_On_Base(latest)_flattened.sol\":27537:27558  _nonReentrantBefore() */\n      tag_126\n        /* \"Tweet_On_Base(latest)_flattened.sol\":27537:27556  _nonReentrantBefore */\n      tag_127\n        /* \"Tweet_On_Base(latest)_flattened.sol\":27537:27558  _nonReentrantBefore() */\n      jump\t// in\n    tag_126:\n        /* \"Tweet_On_Base(latest)_flattened.sol\":31797:31815  _liquidityProvided */\n      0x07\n        /* \"Tweet_On_Base(latest)_flattened.sol\":31797:31824  _liquidityProvided[owner()] */\n      0x00\n        /* \"Tweet_On_Base(latest)_flattened.sol\":31816:31823  owner() */\n      tag_129\n        /* \"Tweet_On_Base(latest)_flattened.sol\":31816:31821  owner */\n      tag_78\n        /* \"Tweet_On_Base(latest)_flattened.sol\":31816:31823  owner() */\n      jump\t// in\n    tag_129:\n        /* \"Tweet_On_Base(latest)_flattened.sol\":31797:31824  _liquidityProvided[owner()] */\n      0xffffffffffffffffffffffffffffffffffffffff\n      and\n      0xffffffffffffffffffffffffffffffffffffffff\n      and\n      dup2\n      mstore\n      0x20\n      add\n      swap1\n      dup2\n      mstore\n      0x20\n      add\n      0x00\n      keccak256\n      sload\n        /* \"Tweet_On_Base(latest)_flattened.sol\":31787:31793  amount */\n      dup2\n        /* \"Tweet_On_Base(latest)_flattened.sol\":31787:31824  amount <= _liquidityProvided[owner()] */\n      gt\n      iszero\n        /* \"Tweet_On_Base(latest)_flattened.sol\":31779:31849  require(amount <= _liquidityProvided[owner()], \"Insufficient balance\") */\n      tag_130\n      jumpi\n      mload(0x40)\n      0x08c379a000000000000000000000000000000000000000000000000000000000\n      dup2\n      mstore\n      0x04\n      add\n      tag_131\n      swap1\n      tag_132\n      jump\t// in\n    tag_131:\n      mload(0x40)\n      dup1\n      swap2\n      sub\n      swap1\n      revert\n    tag_130:\n        /* \"Tweet_On_Base(latest)_flattened.sol\":31890:31896  amount */\n      dup1\n        /* \"Tweet_On_Base(latest)_flattened.sol\":31859:31877  _liquidityProvided */\n      0x07\n        /* \"Tweet_On_Base(latest)_flattened.sol\":31859:31886  _liquidityProvided[owner()] */\n      0x00\n        /* \"Tweet_On_Base(latest)_flattened.sol\":31878:31885  owner() */\n      tag_133\n        /* \"Tweet_On_Base(latest)_flattened.sol\":31878:31883  owner */\n      tag_78\n        /* \"Tweet_On_Base(latest)_flattened.sol\":31878:31885  owner() */\n      jump\t// in\n    tag_133:\n        /* \"Tweet_On_Base(latest)_flattened.sol\":31859:31886  _liquidityProvided[owner()] */\n      0xffffffffffffffffffffffffffffffffffffffff\n      and\n      0xffffffffffffffffffffffffffffffffffffffff\n      and\n      dup2\n      mstore\n      0x20\n      add\n      swap1\n      dup2\n      mstore\n      0x20\n      add\n      0x00\n      keccak256\n      0x00\n        /* \"Tweet_On_Base(latest)_flattened.sol\":31859:31896  _liquidityProvided[owner()] -= amount */\n      dup3\n      dup3\n      sload\n      tag_134\n      swap2\n      swap1\n      tag_135\n      jump\t// in\n    tag_134:\n      swap3\n      pop\n      pop\n      dup2\n      swap1\n      sstore\n      pop\n        /* \"Tweet_On_Base(latest)_flattened.sol\":31941:31942  0 */\n      0x00\n        /* \"Tweet_On_Base(latest)_flattened.sol\":31910:31928  _liquidityProvided */\n      0x07\n        /* \"Tweet_On_Base(latest)_flattened.sol\":31910:31937  _liquidityProvided[owner()] */\n      0x00\n        /* \"Tweet_On_Base(latest)_flattened.sol\":31929:31936  owner() */\n      tag_136\n        /* \"Tweet_On_Base(latest)_flattened.sol\":31929:31934  owner */\n      tag_78\n        /* \"Tweet_On_Base(latest)_flattened.sol\":31929:31936  owner() */\n      jump\t// in\n    tag_136:\n        /* \"Tweet_On_Base(latest)_flattened.sol\":31910:31937  _liquidityProvided[owner()] */\n      0xffffffffffffffffffffffffffffffffffffffff\n      and\n      0xffffffffffffffffffffffffffffffffffffffff\n      and\n      dup2\n      mstore\n      0x20\n      add\n      swap1\n      dup2\n      mstore\n      0x20\n      add\n      0x00\n      keccak256\n      sload\n        /* \"Tweet_On_Base(latest)_flattened.sol\":31910:31942  _liquidityProvided[owner()] == 0 */\n      sub\n        /* \"Tweet_On_Base(latest)_flattened.sol\":31906:32009  if (_liquidityProvided[owner()] == 0) {... */\n      tag_137\n      jumpi\n        /* \"Tweet_On_Base(latest)_flattened.sol\":31997:31998  0 */\n      0x00\n        /* \"Tweet_On_Base(latest)_flattened.sol\":31958:31985  _liquidityProvidedTimestamp */\n      0x08\n        /* \"Tweet_On_Base(latest)_flattened.sol\":31958:31994  _liquidityProvidedTimestamp[owner()] */\n      0x00\n        /* \"Tweet_On_Base(latest)_flattened.sol\":31986:31993  owner() */\n      tag_138\n        /* \"Tweet_On_Base(latest)_flattened.sol\":31986:31991  owner */\n      tag_78\n        /* \"Tweet_On_Base(latest)_flattened.sol\":31986:31993  owner() */\n      jump\t// in\n    tag_138:\n        /* \"Tweet_On_Base(latest)_flattened.sol\":31958:31994  _liquidityProvidedTimestamp[owner()] */\n      0xffffffffffffffffffffffffffffffffffffffff\n      and\n      0xffffffffffffffffffffffffffffffffffffffff\n      and\n      dup2\n      mstore\n      0x20\n      add\n      swap1\n      dup2\n      mstore\n      0x20\n      add\n      0x00\n      keccak256\n        /* \"Tweet_On_Base(latest)_flattened.sol\":31958:31998  _liquidityProvidedTimestamp[owner()] = 0 */\n      dup2\n      swap1\n      sstore\n      pop\n        /* \"Tweet_On_Base(latest)_flattened.sol\":31906:32009  if (_liquidityProvided[owner()] == 0) {... */\n    tag_137:\n        /* \"Tweet_On_Base(latest)_flattened.sol\":32018:32059  _transfer(address(this), owner(), amount) */\n      tag_139\n        /* \"Tweet_On_Base(latest)_flattened.sol\":32036:32040  this */\n      address\n        /* \"Tweet_On_Base(latest)_flattened.sol\":32043:32050  owner() */\n      tag_140\n        /* \"Tweet_On_Base(latest)_flattened.sol\":32043:32048  owner */\n      tag_78\n        /* \"Tweet_On_Base(latest)_flattened.sol\":32043:32050  owner() */\n      jump\t// in\n    tag_140:\n        /* \"Tweet_On_Base(latest)_flattened.sol\":32052:32058  amount */\n      dup4\n        /* \"Tweet_On_Base(latest)_flattened.sol\":32018:32027  _transfer */\n      tag_141\n        /* \"Tweet_On_Base(latest)_flattened.sol\":32018:32059  _transfer(address(this), owner(), amount) */\n      jump\t// in\n    tag_139:\n        /* \"Tweet_On_Base(latest)_flattened.sol\":27579:27599  _nonReentrantAfter() */\n      tag_142\n        /* \"Tweet_On_Base(latest)_flattened.sol\":27579:27597  _nonReentrantAfter */\n      tag_143\n        /* \"Tweet_On_Base(latest)_flattened.sol\":27579:27599  _nonReentrantAfter() */\n      jump\t// in\n    tag_142:\n        /* \"Tweet_On_Base(latest)_flattened.sol\":31693:32067  function ownerRemoveLiquidity(uint256 amount) public onlyOwner nonReentrant {... */\n      pop\n      jump\t// out\n        /* \"Tweet_On_Base(latest)_flattened.sol\":14809:15053  function transferFrom(address from, address to, uint256 value) public virtual returns (bool) {... */\n    tag_49:\n        /* \"Tweet_On_Base(latest)_flattened.sol\":14896:14900  bool */\n      0x00\n        /* \"Tweet_On_Base(latest)_flattened.sol\":14912:14927  address spender */\n      dup1\n        /* \"Tweet_On_Base(latest)_flattened.sol\":14930:14942  _msgSender() */\n      tag_145\n        /* \"Tweet_On_Base(latest)_flattened.sol\":14930:14940  _msgSender */\n      tag_118\n        /* \"Tweet_On_Base(latest)_flattened.sol\":14930:14942  _msgSender() */\n      jump\t// in\n    tag_145:\n        /* \"Tweet_On_Base(latest)_flattened.sol\":14912:14942  address spender = _msgSender() */\n      swap1\n      pop\n        /* \"Tweet_On_Base(latest)_flattened.sol\":14952:14989  _spendAllowance(from, spender, value) */\n      tag_146\n        /* \"Tweet_On_Base(latest)_flattened.sol\":14968:14972  from */\n      dup6\n        /* \"Tweet_On_Base(latest)_flattened.sol\":14974:14981  spender */\n      dup3\n        /* \"Tweet_On_Base(latest)_flattened.sol\":14983:14988  value */\n      dup6\n        /* \"Tweet_On_Base(latest)_flattened.sol\":14952:14967  _spendAllowance */\n      tag_147\n        /* \"Tweet_On_Base(latest)_flattened.sol\":14952:14989  _spendAllowance(from, spender, value) */\n      jump\t// in\n    tag_146:\n        /* \"Tweet_On_Base(latest)_flattened.sol\":14999:15025  _transfer(from, to, value) */\n      tag_148\n        /* \"Tweet_On_Base(latest)_flattened.sol\":15009:15013  from */\n      dup6\n        /* \"Tweet_On_Base(latest)_flattened.sol\":15015:15017  to */\n      dup6\n        /* \"Tweet_On_Base(latest)_flattened.sol\":15019:15024  value */\n      dup6\n        /* \"Tweet_On_Base(latest)_flattened.sol\":14999:15008  _transfer */\n      tag_141\n        /* \"Tweet_On_Base(latest)_flattened.sol\":14999:15025  _transfer(from, to, value) */\n      jump\t// in\n    tag_148:\n        /* \"Tweet_On_Base(latest)_flattened.sol\":15042:15046  true */\n      0x01\n        /* \"Tweet_On_Base(latest)_flattened.sol\":15035:15046  return true */\n      swap2\n      pop\n      pop\n        /* \"Tweet_On_Base(latest)_flattened.sol\":14809:15053  function transferFrom(address from, address to, uint256 value) public virtual returns (bool) {... */\n      swap4\n      swap3\n      pop\n      pop\n      pop\n      jump\t// out\n        /* \"Tweet_On_Base(latest)_flattened.sol\":28551:28614  uint256 public constant INITIAL_SUPPLY = 10_000_000 * (10 ** 2) */\n    tag_52:\n        /* \"Tweet_On_Base(latest)_flattened.sol\":28592:28614  10_000_000 * (10 ** 2) */\n      0x3b9aca00\n        /* \"Tweet_On_Base(latest)_flattened.sol\":28551:28614  uint256 public constant INITIAL_SUPPLY = 10_000_000 * (10 ** 2) */\n      dup2\n      jump\t// out\n        /* \"Tweet_On_Base(latest)_flattened.sol\":28820:28910  function decimals() public view virtual override returns (uint8) {... */\n    tag_55:\n        /* \"Tweet_On_Base(latest)_flattened.sol\":28878:28883  uint8 */\n      0x00\n        /* \"Tweet_On_Base(latest)_flattened.sol\":28902:28903  2 */\n      0x02\n        /* \"Tweet_On_Base(latest)_flattened.sol\":28895:28903  return 2 */\n      swap1\n      pop\n        /* \"Tweet_On_Base(latest)_flattened.sol\":28820:28910  function decimals() public view virtual override returns (uint8) {... */\n      swap1\n      jump\t// out\n        /* \"Tweet_On_Base(latest)_flattened.sol\":28620:28683  uint256 public constant MAX_SUPPLY = 50_000_000_000 * (10 ** 2) */\n    tag_59:\n        /* \"Tweet_On_Base(latest)_flattened.sol\":28657:28683  50_000_000_000 * (10 ** 2) */\n      0x048c27395000\n        /* \"Tweet_On_Base(latest)_flattened.sol\":28620:28683  uint256 public constant MAX_SUPPLY = 50_000_000_000 * (10 ** 2) */\n      dup2\n      jump\t// out\n        /* \"Tweet_On_Base(latest)_flattened.sol\":21628:21715  function burn(uint256 value) public virtual {... */\n    tag_63:\n        /* \"Tweet_On_Base(latest)_flattened.sol\":21682:21708  _burn(_msgSender(), value) */\n      tag_151\n        /* \"Tweet_On_Base(latest)_flattened.sol\":21688:21700  _msgSender() */\n      tag_152\n        /* \"Tweet_On_Base(latest)_flattened.sol\":21688:21698  _msgSender */\n      tag_118\n        /* \"Tweet_On_Base(latest)_flattened.sol\":21688:21700  _msgSender() */\n      jump\t// in\n    tag_152:\n        /* \"Tweet_On_Base(latest)_flattened.sol\":21702:21707  value */\n      dup3\n        /* \"Tweet_On_Base(latest)_flattened.sol\":21682:21687  _burn */\n      tag_153\n        /* \"Tweet_On_Base(latest)_flattened.sol\":21682:21708  _burn(_msgSender(), value) */\n      jump\t// in\n    tag_151:\n        /* \"Tweet_On_Base(latest)_flattened.sol\":21628:21715  function burn(uint256 value) public virtual {... */\n      pop\n      jump\t// out\n        /* \"Tweet_On_Base(latest)_flattened.sol\":29598:29821  function addLiquidity(uint256 amount) public {... */\n    tag_66:\n        /* \"Tweet_On_Base(latest)_flattened.sol\":29653:29697  _transfer(msg.sender, address(this), amount) */\n      tag_155\n        /* \"Tweet_On_Base(latest)_flattened.sol\":29663:29673  msg.sender */\n      caller\n        /* \"Tweet_On_Base(latest)_flattened.sol\":29683:29687  this */\n      address\n        /* \"Tweet_On_Base(latest)_flattened.sol\":29690:29696  amount */\n      dup4\n        /* \"Tweet_On_Base(latest)_flattened.sol\":29653:29662  _transfer */\n      tag_141\n        /* \"Tweet_On_Base(latest)_flattened.sol\":29653:29697  _transfer(msg.sender, address(this), amount) */\n      jump\t// in\n    tag_155:\n        /* \"Tweet_On_Base(latest)_flattened.sol\":29741:29747  amount */\n      dup1\n        /* \"Tweet_On_Base(latest)_flattened.sol\":29707:29725  _liquidityProvided */\n      0x07\n        /* \"Tweet_On_Base(latest)_flattened.sol\":29707:29737  _liquidityProvided[msg.sender] */\n      0x00\n        /* \"Tweet_On_Base(latest)_flattened.sol\":29726:29736  msg.sender */\n      caller\n        /* \"Tweet_On_Base(latest)_flattened.sol\":29707:29737  _liquidityProvided[msg.sender] */\n      0xffffffffffffffffffffffffffffffffffffffff\n      and\n      0xffffffffffffffffffffffffffffffffffffffff\n      and\n      dup2\n      mstore\n      0x20\n      add\n      swap1\n      dup2\n      mstore\n      0x20\n      add\n      0x00\n      keccak256\n      0x00\n        /* \"Tweet_On_Base(latest)_flattened.sol\":29707:29747  _liquidityProvided[msg.sender] += amount */\n      dup3\n      dup3\n      sload\n      tag_156\n      swap2\n      swap1\n      tag_157\n      jump\t// in\n    tag_156:\n      swap3\n      pop\n      pop\n      dup2\n      swap1\n      sstore\n      pop\n        /* \"Tweet_On_Base(latest)_flattened.sol\":29799:29814  block.timestamp */\n      timestamp\n        /* \"Tweet_On_Base(latest)_flattened.sol\":29757:29784  _liquidityProvidedTimestamp */\n      0x08\n        /* \"Tweet_On_Base(latest)_flattened.sol\":29757:29796  _liquidityProvidedTimestamp[msg.sender] */\n      0x00\n        /* \"Tweet_On_Base(latest)_flattened.sol\":29785:29795  msg.sender */\n      caller\n        /* \"Tweet_On_Base(latest)_flattened.sol\":29757:29796  _liquidityProvidedTimestamp[msg.sender] */\n      0xffffffffffffffffffffffffffffffffffffffff\n      and\n      0xffffffffffffffffffffffffffffffffffffffff\n      and\n      dup2\n      mstore\n      0x20\n      add\n      swap1\n      dup2\n      mstore\n      0x20\n      add\n      0x00\n      keccak256\n        /* \"Tweet_On_Base(latest)_flattened.sol\":29757:29814  _liquidityProvidedTimestamp[msg.sender] = block.timestamp */\n      dup2\n      swap1\n      sstore\n      pop\n        /* \"Tweet_On_Base(latest)_flattened.sol\":29598:29821  function addLiquidity(uint256 amount) public {... */\n      pop\n      jump\t// out\n        /* \"Tweet_On_Base(latest)_flattened.sol\":13069:13185  function balanceOf(address account) public view virtual returns (uint256) {... */\n    tag_70:\n        /* \"Tweet_On_Base(latest)_flattened.sol\":13134:13141  uint256 */\n      0x00\n        /* \"Tweet_On_Base(latest)_flattened.sol\":13160:13169  _balances */\n      dup1\n        /* \"Tweet_On_Base(latest)_flattened.sol\":13160:13178  _balances[account] */\n      0x00\n        /* \"Tweet_On_Base(latest)_flattened.sol\":13170:13177  account */\n      dup4\n        /* \"Tweet_On_Base(latest)_flattened.sol\":13160:13178  _balances[account] */\n      0xffffffffffffffffffffffffffffffffffffffff\n      and\n      0xffffffffffffffffffffffffffffffffffffffff\n      and\n      dup2\n      mstore\n      0x20\n      add\n      swap1\n      dup2\n      mstore\n      0x20\n      add\n      0x00\n      keccak256\n      sload\n        /* \"Tweet_On_Base(latest)_flattened.sol\":13153:13178  return _balances[account] */\n      swap1\n      pop\n        /* \"Tweet_On_Base(latest)_flattened.sol\":13069:13185  function balanceOf(address account) public view virtual returns (uint256) {... */\n      swap2\n      swap1\n      pop\n      jump\t// out\n        /* \"Tweet_On_Base(latest)_flattened.sol\":24448:24549  function renounceOwnership() public virtual onlyOwner {... */\n    tag_73:\n        /* \"Tweet_On_Base(latest)_flattened.sol\":23686:23699  _checkOwner() */\n      tag_160\n        /* \"Tweet_On_Base(latest)_flattened.sol\":23686:23697  _checkOwner */\n      tag_124\n        /* \"Tweet_On_Base(latest)_flattened.sol\":23686:23699  _checkOwner() */\n      jump\t// in\n    tag_160:\n        /* \"Tweet_On_Base(latest)_flattened.sol\":24512:24542  _transferOwnership(address(0)) */\n      tag_162\n        /* \"Tweet_On_Base(latest)_flattened.sol\":24539:24540  0 */\n      0x00\n        /* \"Tweet_On_Base(latest)_flattened.sol\":24512:24530  _transferOwnership */\n      tag_163\n        /* \"Tweet_On_Base(latest)_flattened.sol\":24512:24542  _transferOwnership(address(0)) */\n      jump\t// in\n    tag_162:\n        /* \"Tweet_On_Base(latest)_flattened.sol\":24448:24549  function renounceOwnership() public virtual onlyOwner {... */\n      jump\t// out\n        /* \"Tweet_On_Base(latest)_flattened.sol\":22031:22189  function burnFrom(address account, uint256 value) public virtual {... */\n    tag_76:\n        /* \"Tweet_On_Base(latest)_flattened.sol\":22106:22151  _spendAllowance(account, _msgSender(), value) */\n      tag_165\n        /* \"Tweet_On_Base(latest)_flattened.sol\":22122:22129  account */\n      dup3\n        /* \"Tweet_On_Base(latest)_flattened.sol\":22131:22143  _msgSender() */\n      tag_166\n        /* \"Tweet_On_Base(latest)_flattened.sol\":22131:22141  _msgSender */\n      tag_118\n        /* \"Tweet_On_Base(latest)_flattened.sol\":22131:22143  _msgSender() */\n      jump\t// in\n    tag_166:\n        /* \"Tweet_On_Base(latest)_flattened.sol\":22145:22150  value */\n      dup4\n        /* \"Tweet_On_Base(latest)_flattened.sol\":22106:22121  _spendAllowance */\n      tag_147\n        /* \"Tweet_On_Base(latest)_flattened.sol\":22106:22151  _spendAllowance(account, _msgSender(), value) */\n      jump\t// in\n    tag_165:\n        /* \"Tweet_On_Base(latest)_flattened.sol\":22161:22182  _burn(account, value) */\n      tag_167\n        /* \"Tweet_On_Base(latest)_flattened.sol\":22167:22174  account */\n      dup3\n        /* \"Tweet_On_Base(latest)_flattened.sol\":22176:22181  value */\n      dup3\n        /* \"Tweet_On_Base(latest)_flattened.sol\":22161:22166  _burn */\n      tag_153\n        /* \"Tweet_On_Base(latest)_flattened.sol\":22161:22182  _burn(account, value) */\n      jump\t// in\n    tag_167:\n        /* \"Tweet_On_Base(latest)_flattened.sol\":22031:22189  function burnFrom(address account, uint256 value) public virtual {... */\n      pop\n      pop\n      jump\t// out\n        /* \"Tweet_On_Base(latest)_flattened.sol\":23793:23878  function owner() public view virtual returns (address) {... */\n    tag_78:\n        /* \"Tweet_On_Base(latest)_flattened.sol\":23839:23846  address */\n      0x00\n        /* \"Tweet_On_Base(latest)_flattened.sol\":23865:23871  _owner */\n      0x05\n      0x00\n      swap1\n      sload\n      swap1\n      0x0100\n      exp\n      swap1\n      div\n      0xffffffffffffffffffffffffffffffffffffffff\n      and\n        /* \"Tweet_On_Base(latest)_flattened.sol\":23858:23871  return _owner */\n      swap1\n      pop\n        /* \"Tweet_On_Base(latest)_flattened.sol\":23793:23878  function owner() public view virtual returns (address) {... */\n      swap1\n      jump\t// out\n        /* \"Tweet_On_Base(latest)_flattened.sol\":12046:12139  function symbol() public view virtual returns (string memory) {... */\n    tag_82:\n        /* \"Tweet_On_Base(latest)_flattened.sol\":12093:12106  string memory */\n      0x60\n        /* \"Tweet_On_Base(latest)_flattened.sol\":12125:12132  _symbol */\n      0x04\n        /* \"Tweet_On_Base(latest)_flattened.sol\":12118:12132  return _symbol */\n      dup1\n      sload\n      tag_170\n      swap1\n      tag_111\n      jump\t// in\n    tag_170:\n      dup1\n      0x1f\n      add\n      0x20\n      dup1\n      swap2\n      div\n      mul\n      0x20\n      add\n      mload(0x40)\n      swap1\n      dup2\n      add\n      0x40\n      mstore\n      dup1\n      swap3\n      swap2\n      swap1\n      dup2\n      dup2\n      mstore\n      0x20\n      add\n      dup3\n      dup1\n      sload\n      tag_171\n      swap1\n      tag_111\n      jump\t// in\n    tag_171:\n      dup1\n      iszero\n      tag_172\n      jumpi\n      dup1\n      0x1f\n      lt\n      tag_173\n      jumpi\n      0x0100\n      dup1\n      dup4\n      sload\n      div\n      mul\n      dup4\n      mstore\n      swap2\n      0x20\n      add\n      swap2\n      jump(tag_172)\n    tag_173:\n      dup3\n      add\n      swap2\n      swap1\n      0x00\n      mstore\n      keccak256(0x00, 0x20)\n      swap1\n    tag_174:\n      dup2\n      sload\n      dup2\n      mstore\n      swap1\n      0x01\n      add\n      swap1\n      0x20\n      add\n      dup1\n      dup4\n      gt\n      tag_174\n      jumpi\n      dup3\n      swap1\n      sub\n      0x1f\n      and\n      dup3\n      add\n      swap2\n    tag_172:\n      pop\n      pop\n      pop\n      pop\n      pop\n      swap1\n      pop\n        /* \"Tweet_On_Base(latest)_flattened.sol\":12046:12139  function symbol() public view virtual returns (string memory) {... */\n      swap1\n      jump\t// out\n        /* \"Tweet_On_Base(latest)_flattened.sol\":13380:13558  function transfer(address to, uint256 value) public virtual returns (bool) {... */\n    tag_86:\n        /* \"Tweet_On_Base(latest)_flattened.sol\":13449:13453  bool */\n      0x00\n        /* \"Tweet_On_Base(latest)_flattened.sol\":13465:13478  address owner */\n      dup1\n        /* \"Tweet_On_Base(latest)_flattened.sol\":13481:13493  _msgSender() */\n      tag_176\n        /* \"Tweet_On_Base(latest)_flattened.sol\":13481:13491  _msgSender */\n      tag_118\n        /* \"Tweet_On_Base(latest)_flattened.sol\":13481:13493  _msgSender() */\n      jump\t// in\n    tag_176:\n        /* \"Tweet_On_Base(latest)_flattened.sol\":13465:13493  address owner = _msgSender() */\n      swap1\n      pop\n        /* \"Tweet_On_Base(latest)_flattened.sol\":13503:13530  _transfer(owner, to, value) */\n      tag_177\n        /* \"Tweet_On_Base(latest)_flattened.sol\":13513:13518  owner */\n      dup2\n        /* \"Tweet_On_Base(latest)_flattened.sol\":13520:13522  to */\n      dup6\n        /* \"Tweet_On_Base(latest)_flattened.sol\":13524:13529  value */\n      dup6\n        /* \"Tweet_On_Base(latest)_flattened.sol\":13503:13512  _transfer */\n      tag_141\n        /* \"Tweet_On_Base(latest)_flattened.sol\":13503:13530  _transfer(owner, to, value) */\n      jump\t// in\n    tag_177:\n        /* \"Tweet_On_Base(latest)_flattened.sol\":13547:13551  true */\n      0x01\n        /* \"Tweet_On_Base(latest)_flattened.sol\":13540:13551  return true */\n      swap2\n      pop\n      pop\n        /* \"Tweet_On_Base(latest)_flattened.sol\":13380:13558  function transfer(address to, uint256 value) public virtual returns (bool) {... */\n      swap3\n      swap2\n      pop\n      pop\n      jump\t// out\n        /* \"Tweet_On_Base(latest)_flattened.sol\":31471:31687  function ownerAddLiquidity(uint256 amount) public onlyOwner {... */\n    tag_90:\n        /* \"Tweet_On_Base(latest)_flattened.sol\":23686:23699  _checkOwner() */\n      tag_179\n        /* \"Tweet_On_Base(latest)_flattened.sol\":23686:23697  _checkOwner */\n      tag_124\n        /* \"Tweet_On_Base(latest)_flattened.sol\":23686:23699  _checkOwner() */\n      jump\t// in\n    tag_179:\n        /* \"Tweet_On_Base(latest)_flattened.sol\":31572:31578  amount */\n      dup1\n        /* \"Tweet_On_Base(latest)_flattened.sol\":31541:31559  _liquidityProvided */\n      0x07\n        /* \"Tweet_On_Base(latest)_flattened.sol\":31541:31568  _liquidityProvided[owner()] */\n      0x00\n        /* \"Tweet_On_Base(latest)_flattened.sol\":31560:31567  owner() */\n      tag_181\n        /* \"Tweet_On_Base(latest)_flattened.sol\":31560:31565  owner */\n      tag_78\n        /* \"Tweet_On_Base(latest)_flattened.sol\":31560:31567  owner() */\n      jump\t// in\n    tag_181:\n        /* \"Tweet_On_Base(latest)_flattened.sol\":31541:31568  _liquidityProvided[owner()] */\n      0xffffffffffffffffffffffffffffffffffffffff\n      and\n      0xffffffffffffffffffffffffffffffffffffffff\n      and\n      dup2\n      mstore\n      0x20\n      add\n      swap1\n      dup2\n      mstore\n      0x20\n      add\n      0x00\n      keccak256\n      0x00\n        /* \"Tweet_On_Base(latest)_flattened.sol\":31541:31578  _liquidityProvided[owner()] += amount */\n      dup3\n      dup3\n      sload\n      tag_182\n      swap2\n      swap1\n      tag_157\n      jump\t// in\n    tag_182:\n      swap3\n      pop\n      pop\n      dup2\n      swap1\n      sstore\n      pop\n        /* \"Tweet_On_Base(latest)_flattened.sol\":31627:31642  block.timestamp */\n      timestamp\n        /* \"Tweet_On_Base(latest)_flattened.sol\":31588:31615  _liquidityProvidedTimestamp */\n      0x08\n        /* \"Tweet_On_Base(latest)_flattened.sol\":31588:31624  _liquidityProvidedTimestamp[owner()] */\n      0x00\n        /* \"Tweet_On_Base(latest)_flattened.sol\":31616:31623  owner() */\n      tag_183\n        /* \"Tweet_On_Base(latest)_flattened.sol\":31616:31621  owner */\n      tag_78\n        /* \"Tweet_On_Base(latest)_flattened.sol\":31616:31623  owner() */\n      jump\t// in\n    tag_183:\n        /* \"Tweet_On_Base(latest)_flattened.sol\":31588:31624  _liquidityProvidedTimestamp[owner()] */\n      0xffffffffffffffffffffffffffffffffffffffff\n      and\n      0xffffffffffffffffffffffffffffffffffffffff\n      and\n      dup2\n      mstore\n      0x20\n      add\n      swap1\n      dup2\n      mstore\n      0x20\n      add\n      0x00\n      keccak256\n        /* \"Tweet_On_Base(latest)_flattened.sol\":31588:31642  _liquidityProvidedTimestamp[owner()] = block.timestamp */\n      dup2\n      swap1\n      sstore\n      pop\n        /* \"Tweet_On_Base(latest)_flattened.sol\":31652:31680  _mint(address(this), amount) */\n      tag_184\n        /* \"Tweet_On_Base(latest)_flattened.sol\":31666:31670  this */\n      address\n        /* \"Tweet_On_Base(latest)_flattened.sol\":31673:31679  amount */\n      dup3\n        /* \"Tweet_On_Base(latest)_flattened.sol\":31652:31657  _mint */\n      tag_185\n        /* \"Tweet_On_Base(latest)_flattened.sol\":31652:31680  _mint(address(this), amount) */\n      jump\t// in\n    tag_184:\n        /* \"Tweet_On_Base(latest)_flattened.sol\":31471:31687  function ownerAddLiquidity(uint256 amount) public onlyOwner {... */\n      pop\n      jump\t// out\n        /* \"Tweet_On_Base(latest)_flattened.sol\":30123:31110  function removeLiquidityAndClaimRewards(uint256 amount) public nonReentrant {... */\n    tag_93:\n        /* \"Tweet_On_Base(latest)_flattened.sol\":27537:27558  _nonReentrantBefore() */\n      tag_187\n        /* \"Tweet_On_Base(latest)_flattened.sol\":27537:27556  _nonReentrantBefore */\n      tag_127\n        /* \"Tweet_On_Base(latest)_flattened.sol\":27537:27558  _nonReentrantBefore() */\n      jump\t// in\n    tag_187:\n        /* \"Tweet_On_Base(latest)_flattened.sol\":30227:30245  _liquidityProvided */\n      0x07\n        /* \"Tweet_On_Base(latest)_flattened.sol\":30227:30257  _liquidityProvided[msg.sender] */\n      0x00\n        /* \"Tweet_On_Base(latest)_flattened.sol\":30246:30256  msg.sender */\n      caller\n        /* \"Tweet_On_Base(latest)_flattened.sol\":30227:30257  _liquidityProvided[msg.sender] */\n      0xffffffffffffffffffffffffffffffffffffffff\n      and\n      0xffffffffffffffffffffffffffffffffffffffff\n      and\n      dup2\n      mstore\n      0x20\n      add\n      swap1\n      dup2\n      mstore\n      0x20\n      add\n      0x00\n      keccak256\n      sload\n        /* \"Tweet_On_Base(latest)_flattened.sol\":30217:30223  amount */\n      dup2\n        /* \"Tweet_On_Base(latest)_flattened.sol\":30217:30257  amount <= _liquidityProvided[msg.sender] */\n      gt\n      iszero\n        /* \"Tweet_On_Base(latest)_flattened.sol\":30209:30282  require(amount <= _liquidityProvided[msg.sender], \"Insufficient balance\") */\n      tag_189\n      jumpi\n      mload(0x40)\n      0x08c379a000000000000000000000000000000000000000000000000000000000\n      dup2\n      mstore\n      0x04\n      add\n      tag_190\n      swap1\n      tag_132\n      jump\t// in\n    tag_190:\n      mload(0x40)\n      dup1\n      swap2\n      sub\n      swap1\n      revert\n    tag_189:\n        /* \"Tweet_On_Base(latest)_flattened.sol\":30361:30368  30 days */\n      0x278d00\n        /* \"Tweet_On_Base(latest)_flattened.sol\":30319:30346  _liquidityProvidedTimestamp */\n      0x08\n        /* \"Tweet_On_Base(latest)_flattened.sol\":30319:30358  _liquidityProvidedTimestamp[msg.sender] */\n      0x00\n        /* \"Tweet_On_Base(latest)_flattened.sol\":30347:30357  msg.sender */\n      caller\n        /* \"Tweet_On_Base(latest)_flattened.sol\":30319:30358  _liquidityProvidedTimestamp[msg.sender] */\n      0xffffffffffffffffffffffffffffffffffffffff\n      and\n      0xffffffffffffffffffffffffffffffffffffffff\n      and\n      dup2\n      mstore\n      0x20\n      add\n      swap1\n      dup2\n      mstore\n      0x20\n      add\n      0x00\n      keccak256\n      sload\n        /* \"Tweet_On_Base(latest)_flattened.sol\":30319:30368  _liquidityProvidedTimestamp[msg.sender] + 30 days */\n      tag_191\n      swap2\n      swap1\n      tag_157\n      jump\t// in\n    tag_191:\n        /* \"Tweet_On_Base(latest)_flattened.sol\":30300:30315  block.timestamp */\n      timestamp\n        /* \"Tweet_On_Base(latest)_flattened.sol\":30300:30368  block.timestamp >= _liquidityProvidedTimestamp[msg.sender] + 30 days */\n      lt\n      iszero\n        /* \"Tweet_On_Base(latest)_flattened.sol\":30292:30443  require(block.timestamp >= _liquidityProvidedTimestamp[msg.sender] + 30 days, \"Liquidity must be provided for at least 30 days to qualify for rewards\") */\n      tag_192\n      jumpi\n      mload(0x40)\n      0x08c379a000000000000000000000000000000000000000000000000000000000\n      dup2\n      mstore\n      0x04\n      add\n      tag_193\n      swap1\n      tag_194\n      jump\t// in\n    tag_193:\n      mload(0x40)\n      dup1\n      swap2\n      sub\n      swap1\n      revert\n    tag_192:\n        /* \"Tweet_On_Base(latest)_flattened.sol\":30454:30468  uint256 reward */\n      0x00\n        /* \"Tweet_On_Base(latest)_flattened.sol\":30471:30498  calculateReward(msg.sender) */\n      tag_195\n        /* \"Tweet_On_Base(latest)_flattened.sol\":30487:30497  msg.sender */\n      caller\n        /* \"Tweet_On_Base(latest)_flattened.sol\":30471:30486  calculateReward */\n      tag_96\n        /* \"Tweet_On_Base(latest)_flattened.sol\":30471:30498  calculateReward(msg.sender) */\n      jump\t// in\n    tag_195:\n        /* \"Tweet_On_Base(latest)_flattened.sol\":30454:30498  uint256 reward = calculateReward(msg.sender) */\n      swap1\n      pop\n        /* \"Tweet_On_Base(latest)_flattened.sol\":28657:28683  50_000_000_000 * (10 ** 2) */\n      0x048c27395000\n        /* \"Tweet_On_Base(latest)_flattened.sol\":30532:30538  reward */\n      dup2\n        /* \"Tweet_On_Base(latest)_flattened.sol\":30516:30529  totalSupply() */\n      tag_196\n        /* \"Tweet_On_Base(latest)_flattened.sol\":30516:30527  totalSupply */\n      tag_39\n        /* \"Tweet_On_Base(latest)_flattened.sol\":30516:30529  totalSupply() */\n      jump\t// in\n    tag_196:\n        /* \"Tweet_On_Base(latest)_flattened.sol\":30516:30538  totalSupply() + reward */\n      tag_197\n      swap2\n      swap1\n      tag_157\n      jump\t// in\n    tag_197:\n        /* \"Tweet_On_Base(latest)_flattened.sol\":30516:30552  totalSupply() + reward <= MAX_SUPPLY */\n      gt\n      iszero\n        /* \"Tweet_On_Base(latest)_flattened.sol\":30508:30582  require(totalSupply() + reward <= MAX_SUPPLY, \"Reward exceeds max supply\") */\n      tag_198\n      jumpi\n      mload(0x40)\n      0x08c379a000000000000000000000000000000000000000000000000000000000\n      dup2\n      mstore\n      0x04\n      add\n      tag_199\n      swap1\n      tag_200\n      jump\t// in\n    tag_199:\n      mload(0x40)\n      dup1\n      swap2\n      sub\n      swap1\n      revert\n    tag_198:\n        /* \"Tweet_On_Base(latest)_flattened.sol\":30669:30670  0 */\n      0x00\n        /* \"Tweet_On_Base(latest)_flattened.sol\":30660:30666  reward */\n      dup2\n        /* \"Tweet_On_Base(latest)_flattened.sol\":30660:30670  reward > 0 */\n      gt\n        /* \"Tweet_On_Base(latest)_flattened.sol\":30656:30792  if (reward > 0) {... */\n      iszero\n      tag_201\n      jumpi\n        /* \"Tweet_On_Base(latest)_flattened.sol\":30686:30711  _mint(msg.sender, reward) */\n      tag_202\n        /* \"Tweet_On_Base(latest)_flattened.sol\":30692:30702  msg.sender */\n      caller\n        /* \"Tweet_On_Base(latest)_flattened.sol\":30704:30710  reward */\n      dup3\n        /* \"Tweet_On_Base(latest)_flattened.sol\":30686:30691  _mint */\n      tag_185\n        /* \"Tweet_On_Base(latest)_flattened.sol\":30686:30711  _mint(msg.sender, reward) */\n      jump\t// in\n    tag_202:\n        /* \"Tweet_On_Base(latest)_flattened.sol\":30744:30754  msg.sender */\n      caller\n        /* \"Tweet_On_Base(latest)_flattened.sol\":30730:30763  RewardClaimed(msg.sender, reward) */\n      0xffffffffffffffffffffffffffffffffffffffff\n      and\n      0x106f923f993c2149d49b4255ff723acafa1f2d94393f561d3eda32ae348f7241\n        /* \"Tweet_On_Base(latest)_flattened.sol\":30756:30762  reward */\n      dup3\n        /* \"Tweet_On_Base(latest)_flattened.sol\":30730:30763  RewardClaimed(msg.sender, reward) */\n      mload(0x40)\n      tag_203\n      swap2\n      swap1\n      tag_41\n      jump\t// in\n    tag_203:\n      mload(0x40)\n      dup1\n      swap2\n      sub\n      swap1\n      log2\n        /* \"Tweet_On_Base(latest)_flattened.sol\":30656:30792  if (reward > 0) {... */\n    tag_201:\n        /* \"Tweet_On_Base(latest)_flattened.sol\":30802:30846  _transfer(address(this), msg.sender, amount) */\n      tag_204\n        /* \"Tweet_On_Base(latest)_flattened.sol\":30820:30824  this */\n      address\n        /* \"Tweet_On_Base(latest)_flattened.sol\":30827:30837  msg.sender */\n      caller\n        /* \"Tweet_On_Base(latest)_flattened.sol\":30839:30845  amount */\n      dup5\n        /* \"Tweet_On_Base(latest)_flattened.sol\":30802:30811  _transfer */\n      tag_141\n        /* \"Tweet_On_Base(latest)_flattened.sol\":30802:30846  _transfer(address(this), msg.sender, amount) */\n      jump\t// in\n    tag_204:\n        /* \"Tweet_On_Base(latest)_flattened.sol\":30890:30896  amount */\n      dup2\n        /* \"Tweet_On_Base(latest)_flattened.sol\":30856:30874  _liquidityProvided */\n      0x07\n        /* \"Tweet_On_Base(latest)_flattened.sol\":30856:30886  _liquidityProvided[msg.sender] */\n      0x00\n        /* \"Tweet_On_Base(latest)_flattened.sol\":30875:30885  msg.sender */\n      caller\n        /* \"Tweet_On_Base(latest)_flattened.sol\":30856:30886  _liquidityProvided[msg.sender] */\n      0xffffffffffffffffffffffffffffffffffffffff\n      and\n      0xffffffffffffffffffffffffffffffffffffffff\n      and\n      dup2\n      mstore\n      0x20\n      add\n      swap1\n      dup2\n      mstore\n      0x20\n      add\n      0x00\n      keccak256\n      0x00\n        /* \"Tweet_On_Base(latest)_flattened.sol\":30856:30896  _liquidityProvided[msg.sender] -= amount */\n      dup3\n      dup3\n      sload\n      tag_205\n      swap2\n      swap1\n      tag_135\n      jump\t// in\n    tag_205:\n      swap3\n      pop\n      pop\n      dup2\n      swap1\n      sstore\n      pop\n        /* \"Tweet_On_Base(latest)_flattened.sol\":30945:30946  0 */\n      0x00\n        /* \"Tweet_On_Base(latest)_flattened.sol\":30911:30929  _liquidityProvided */\n      0x07\n        /* \"Tweet_On_Base(latest)_flattened.sol\":30911:30941  _liquidityProvided[msg.sender] */\n      0x00\n        /* \"Tweet_On_Base(latest)_flattened.sol\":30930:30940  msg.sender */\n      caller\n        /* \"Tweet_On_Base(latest)_flattened.sol\":30911:30941  _liquidityProvided[msg.sender] */\n      0xffffffffffffffffffffffffffffffffffffffff\n      and\n      0xffffffffffffffffffffffffffffffffffffffff\n      and\n      dup2\n      mstore\n      0x20\n      add\n      swap1\n      dup2\n      mstore\n      0x20\n      add\n      0x00\n      keccak256\n      sload\n        /* \"Tweet_On_Base(latest)_flattened.sol\":30911:30946  _liquidityProvided[msg.sender] == 0 */\n      sub\n        /* \"Tweet_On_Base(latest)_flattened.sol\":30907:31104  if (_liquidityProvided[msg.sender] == 0) {... */\n      tag_206\n      jumpi\n        /* \"Tweet_On_Base(latest)_flattened.sol\":31004:31005  0 */\n      0x00\n        /* \"Tweet_On_Base(latest)_flattened.sol\":30962:30989  _liquidityProvidedTimestamp */\n      0x08\n        /* \"Tweet_On_Base(latest)_flattened.sol\":30962:31001  _liquidityProvidedTimestamp[msg.sender] */\n      0x00\n        /* \"Tweet_On_Base(latest)_flattened.sol\":30990:31000  msg.sender */\n      caller\n        /* \"Tweet_On_Base(latest)_flattened.sol\":30962:31001  _liquidityProvidedTimestamp[msg.sender] */\n      0xffffffffffffffffffffffffffffffffffffffff\n      and\n      0xffffffffffffffffffffffffffffffffffffffff\n      and\n      dup2\n      mstore\n      0x20\n      add\n      swap1\n      dup2\n      mstore\n      0x20\n      add\n      0x00\n      keccak256\n        /* \"Tweet_On_Base(latest)_flattened.sol\":30962:31005  _liquidityProvidedTimestamp[msg.sender] = 0 */\n      dup2\n      swap1\n      sstore\n      pop\n        /* \"Tweet_On_Base(latest)_flattened.sol\":30907:31104  if (_liquidityProvided[msg.sender] == 0) {... */\n      jump(tag_207)\n    tag_206:\n        /* \"Tweet_On_Base(latest)_flattened.sol\":31078:31093  block.timestamp */\n      timestamp\n        /* \"Tweet_On_Base(latest)_flattened.sol\":31036:31063  _liquidityProvidedTimestamp */\n      0x08\n        /* \"Tweet_On_Base(latest)_flattened.sol\":31036:31075  _liquidityProvidedTimestamp[msg.sender] */\n      0x00\n        /* \"Tweet_On_Base(latest)_flattened.sol\":31064:31074  msg.sender */\n      caller\n        /* \"Tweet_On_Base(latest)_flattened.sol\":31036:31075  _liquidityProvidedTimestamp[msg.sender] */\n      0xffffffffffffffffffffffffffffffffffffffff\n      and\n      0xffffffffffffffffffffffffffffffffffffffff\n      and\n      dup2\n      mstore\n      0x20\n      add\n      swap1\n      dup2\n      mstore\n      0x20\n      add\n      0x00\n      keccak256\n        /* \"Tweet_On_Base(latest)_flattened.sol\":31036:31093  _liquidityProvidedTimestamp[msg.sender] = block.timestamp */\n      dup2\n      swap1\n      sstore\n      pop\n        /* \"Tweet_On_Base(latest)_flattened.sol\":30907:31104  if (_liquidityProvided[msg.sender] == 0) {... */\n    tag_207:\n        /* \"Tweet_On_Base(latest)_flattened.sol\":30199:31110  {... */\n      pop\n        /* \"Tweet_On_Base(latest)_flattened.sol\":27579:27599  _nonReentrantAfter() */\n      tag_208\n        /* \"Tweet_On_Base(latest)_flattened.sol\":27579:27597  _nonReentrantAfter */\n      tag_143\n        /* \"Tweet_On_Base(latest)_flattened.sol\":27579:27599  _nonReentrantAfter() */\n      jump\t// in\n    tag_208:\n        /* \"Tweet_On_Base(latest)_flattened.sol\":30123:31110  function removeLiquidityAndClaimRewards(uint256 amount) public nonReentrant {... */\n      pop\n      jump\t// out\n        /* \"Tweet_On_Base(latest)_flattened.sol\":31116:31466  function calculateReward(address user) public view returns (uint256) {... */\n    tag_96:\n        /* \"Tweet_On_Base(latest)_flattened.sol\":31176:31183  uint256 */\n      0x00\n        /* \"Tweet_On_Base(latest)_flattened.sol\":31254:31261  30 days */\n      0x278d00\n        /* \"Tweet_On_Base(latest)_flattened.sol\":31218:31245  _liquidityProvidedTimestamp */\n      0x08\n        /* \"Tweet_On_Base(latest)_flattened.sol\":31218:31251  _liquidityProvidedTimestamp[user] */\n      0x00\n        /* \"Tweet_On_Base(latest)_flattened.sol\":31246:31250  user */\n      dup5\n        /* \"Tweet_On_Base(latest)_flattened.sol\":31218:31251  _liquidityProvidedTimestamp[user] */\n      0xffffffffffffffffffffffffffffffffffffffff\n      and\n      0xffffffffffffffffffffffffffffffffffffffff\n      and\n      dup2\n      mstore\n      0x20\n      add\n      swap1\n      dup2\n      mstore\n      0x20\n      add\n      0x00\n      keccak256\n      sload\n        /* \"Tweet_On_Base(latest)_flattened.sol\":31218:31261  _liquidityProvidedTimestamp[user] + 30 days */\n      tag_210\n      swap2\n      swap1\n      tag_157\n      jump\t// in\n    tag_210:\n        /* \"Tweet_On_Base(latest)_flattened.sol\":31199:31214  block.timestamp */\n      timestamp\n        /* \"Tweet_On_Base(latest)_flattened.sol\":31199:31261  block.timestamp >= _liquidityProvidedTimestamp[user] + 30 days */\n      lt\n        /* \"Tweet_On_Base(latest)_flattened.sol\":31195:31442  if (block.timestamp >= _liquidityProvidedTimestamp[user] + 30 days) {... */\n      tag_211\n      jumpi\n        /* \"Tweet_On_Base(latest)_flattened.sol\":31277:31291  uint256 reward */\n      0x00\n        /* \"Tweet_On_Base(latest)_flattened.sol\":31327:31330  100 */\n      0x64\n        /* \"Tweet_On_Base(latest)_flattened.sol\":31322:31323  5 */\n      0x05\n        /* \"Tweet_On_Base(latest)_flattened.sol\":31295:31313  _liquidityProvided */\n      0x07\n        /* \"Tweet_On_Base(latest)_flattened.sol\":31295:31319  _liquidityProvided[user] */\n      0x00\n        /* \"Tweet_On_Base(latest)_flattened.sol\":31314:31318  user */\n      dup7\n        /* \"Tweet_On_Base(latest)_flattened.sol\":31295:31319  _liquidityProvided[user] */\n      0xffffffffffffffffffffffffffffffffffffffff\n      and\n      0xffffffffffffffffffffffffffffffffffffffff\n      and\n      dup2\n      mstore\n      0x20\n      add\n      swap1\n      dup2\n      mstore\n      0x20\n      add\n      0x00\n      keccak256\n      sload\n        /* \"Tweet_On_Base(latest)_flattened.sol\":31295:31323  _liquidityProvided[user] * 5 */\n      tag_212\n      swap2\n      swap1\n      tag_213\n      jump\t// in\n    tag_212:\n        /* \"Tweet_On_Base(latest)_flattened.sol\":31294:31330  (_liquidityProvided[user] * 5) / 100 */\n      tag_214\n      swap2\n      swap1\n      tag_215\n      jump\t// in\n    tag_214:\n        /* \"Tweet_On_Base(latest)_flattened.sol\":31277:31330  uint256 reward = (_liquidityProvided[user] * 5) / 100 */\n      swap1\n      pop\n        /* \"Tweet_On_Base(latest)_flattened.sol\":28657:28683  50_000_000_000 * (10 ** 2) */\n      0x048c27395000\n        /* \"Tweet_On_Base(latest)_flattened.sol\":31364:31370  reward */\n      dup2\n        /* \"Tweet_On_Base(latest)_flattened.sol\":31348:31361  totalSupply() */\n      tag_216\n        /* \"Tweet_On_Base(latest)_flattened.sol\":31348:31359  totalSupply */\n      tag_39\n        /* \"Tweet_On_Base(latest)_flattened.sol\":31348:31361  totalSupply() */\n      jump\t// in\n    tag_216:\n        /* \"Tweet_On_Base(latest)_flattened.sol\":31348:31370  totalSupply() + reward */\n      tag_217\n      swap2\n      swap1\n      tag_157\n      jump\t// in\n    tag_217:\n        /* \"Tweet_On_Base(latest)_flattened.sol\":31348:31384  totalSupply() + reward <= MAX_SUPPLY */\n      gt\n        /* \"Tweet_On_Base(latest)_flattened.sol\":31344:31432  if (totalSupply() + reward <= MAX_SUPPLY) {... */\n      tag_218\n      jumpi\n        /* \"Tweet_On_Base(latest)_flattened.sol\":31411:31417  reward */\n      dup1\n        /* \"Tweet_On_Base(latest)_flattened.sol\":31404:31417  return reward */\n      swap2\n      pop\n      pop\n      jump(tag_209)\n        /* \"Tweet_On_Base(latest)_flattened.sol\":31344:31432  if (totalSupply() + reward <= MAX_SUPPLY) {... */\n    tag_218:\n        /* \"Tweet_On_Base(latest)_flattened.sol\":31263:31442  {... */\n      pop\n        /* \"Tweet_On_Base(latest)_flattened.sol\":31195:31442  if (block.timestamp >= _liquidityProvidedTimestamp[user] + 30 days) {... */\n    tag_211:\n        /* \"Tweet_On_Base(latest)_flattened.sol\":31458:31459  0 */\n      0x00\n        /* \"Tweet_On_Base(latest)_flattened.sol\":31451:31459  return 0 */\n      swap1\n      pop\n        /* \"Tweet_On_Base(latest)_flattened.sol\":31116:31466  function calculateReward(address user) public view returns (uint256) {... */\n    tag_209:\n      swap2\n      swap1\n      pop\n      jump\t// out\n        /* \"Tweet_On_Base(latest)_flattened.sol\":13616:13756  function allowance(address owner, address spender) public view virtual returns (uint256) {... */\n    tag_101:\n        /* \"Tweet_On_Base(latest)_flattened.sol\":13696:13703  uint256 */\n      0x00\n        /* \"Tweet_On_Base(latest)_flattened.sol\":13722:13733  _allowances */\n      0x01\n        /* \"Tweet_On_Base(latest)_flattened.sol\":13722:13740  _allowances[owner] */\n      0x00\n        /* \"Tweet_On_Base(latest)_flattened.sol\":13734:13739  owner */\n      dup5\n        /* \"Tweet_On_Base(latest)_flattened.sol\":13722:13740  _allowances[owner] */\n      0xffffffffffffffffffffffffffffffffffffffff\n      and\n      0xffffffffffffffffffffffffffffffffffffffff\n      and\n      dup2\n      mstore\n      0x20\n      add\n      swap1\n      dup2\n      mstore\n      0x20\n      add\n      0x00\n      keccak256\n        /* \"Tweet_On_Base(latest)_flattened.sol\":13722:13749  _allowances[owner][spender] */\n      0x00\n        /* \"Tweet_On_Base(latest)_flattened.sol\":13741:13748  spender */\n      dup4\n        /* \"Tweet_On_Base(latest)_flattened.sol\":13722:13749  _allowances[owner][spender] */\n      0xffffffffffffffffffffffffffffffffffffffff\n      and\n      0xffffffffffffffffffffffffffffffffffffffff\n      and\n      dup2\n      mstore\n      0x20\n      add\n      swap1\n      dup2\n      mstore\n      0x20\n      add\n      0x00\n      keccak256\n      sload\n        /* \"Tweet_On_Base(latest)_flattened.sol\":13715:13749  return _allowances[owner][spender] */\n      swap1\n      pop\n        /* \"Tweet_On_Base(latest)_flattened.sol\":13616:13756  function allowance(address owner, address spender) public view virtual returns (uint256) {... */\n      swap3\n      swap2\n      pop\n      pop\n      jump\t// out\n        /* \"Tweet_On_Base(latest)_flattened.sol\":24698:24913  function transferOwnership(address newOwner) public virtual onlyOwner {... */\n    tag_105:\n        /* \"Tweet_On_Base(latest)_flattened.sol\":23686:23699  _checkOwner() */\n      tag_221\n        /* \"Tweet_On_Base(latest)_flattened.sol\":23686:23697  _checkOwner */\n      tag_124\n        /* \"Tweet_On_Base(latest)_flattened.sol\":23686:23699  _checkOwner() */\n      jump\t// in\n    tag_221:\n        /* \"Tweet_On_Base(latest)_flattened.sol\":24802:24803  0 */\n      0x00\n        /* \"Tweet_On_Base(latest)_flattened.sol\":24782:24804  newOwner == address(0) */\n      0xffffffffffffffffffffffffffffffffffffffff\n      and\n        /* \"Tweet_On_Base(latest)_flattened.sol\":24782:24790  newOwner */\n      dup2\n        /* \"Tweet_On_Base(latest)_flattened.sol\":24782:24804  newOwner == address(0) */\n      0xffffffffffffffffffffffffffffffffffffffff\n      and\n      sub\n        /* \"Tweet_On_Base(latest)_flattened.sol\":24778:24869  if (newOwner == address(0)) {... */\n      tag_223\n      jumpi\n        /* \"Tweet_On_Base(latest)_flattened.sol\":24855:24856  0 */\n      0x00\n        /* \"Tweet_On_Base(latest)_flattened.sol\":24827:24858  OwnableInvalidOwner(address(0)) */\n      mload(0x40)\n      0x1e4fbdf700000000000000000000000000000000000000000000000000000000\n      dup2\n      mstore\n      0x04\n      add\n      tag_224\n      swap2\n      swap1\n      tag_80\n      jump\t// in\n    tag_224:\n      mload(0x40)\n      dup1\n      swap2\n      sub\n      swap1\n      revert\n        /* \"Tweet_On_Base(latest)_flattened.sol\":24778:24869  if (newOwner == address(0)) {... */\n    tag_223:\n        /* \"Tweet_On_Base(latest)_flattened.sol\":24878:24906  _transferOwnership(newOwner) */\n      tag_225\n        /* \"Tweet_On_Base(latest)_flattened.sol\":24897:24905  newOwner */\n      dup2\n        /* \"Tweet_On_Base(latest)_flattened.sol\":24878:24896  _transferOwnership */\n      tag_163\n        /* \"Tweet_On_Base(latest)_flattened.sol\":24878:24906  _transferOwnership(newOwner) */\n      jump\t// in\n    tag_225:\n        /* \"Tweet_On_Base(latest)_flattened.sol\":24698:24913  function transferOwnership(address newOwner) public virtual onlyOwner {... */\n      pop\n      jump\t// out\n        /* \"Tweet_On_Base(latest)_flattened.sol\":29826:30053  function undoAddLiquidity(uint256 amount) public {... */\n    tag_108:\n        /* \"Tweet_On_Base(latest)_flattened.sol\":29885:29929  _transfer(address(this), msg.sender, amount) */\n      tag_227\n        /* \"Tweet_On_Base(latest)_flattened.sol\":29903:29907  this */\n      address\n        /* \"Tweet_On_Base(latest)_flattened.sol\":29910:29920  msg.sender */\n      caller\n        /* \"Tweet_On_Base(latest)_flattened.sol\":29922:29928  amount */\n      dup4\n        /* \"Tweet_On_Base(latest)_flattened.sol\":29885:29894  _transfer */\n      tag_141\n        /* \"Tweet_On_Base(latest)_flattened.sol\":29885:29929  _transfer(address(this), msg.sender, amount) */\n      jump\t// in\n    tag_227:\n        /* \"Tweet_On_Base(latest)_flattened.sol\":29973:29979  amount */\n      dup1\n        /* \"Tweet_On_Base(latest)_flattened.sol\":29939:29957  _liquidityProvided */\n      0x07\n        /* \"Tweet_On_Base(latest)_flattened.sol\":29939:29969  _liquidityProvided[msg.sender] */\n      0x00\n        /* \"Tweet_On_Base(latest)_flattened.sol\":29958:29968  msg.sender */\n      caller\n        /* \"Tweet_On_Base(latest)_flattened.sol\":29939:29969  _liquidityProvided[msg.sender] */\n      0xffffffffffffffffffffffffffffffffffffffff\n      and\n      0xffffffffffffffffffffffffffffffffffffffff\n      and\n      dup2\n      mstore\n      0x20\n      add\n      swap1\n      dup2\n      mstore\n      0x20\n      add\n      0x00\n      keccak256\n      0x00\n        /* \"Tweet_On_Base(latest)_flattened.sol\":29939:29979  _liquidityProvided[msg.sender] -= amount */\n      dup3\n      dup3\n      sload\n      tag_228\n      swap2\n      swap1\n      tag_135\n      jump\t// in\n    tag_228:\n      swap3\n      pop\n      pop\n      dup2\n      swap1\n      sstore\n      pop\n        /* \"Tweet_On_Base(latest)_flattened.sol\":30031:30046  block.timestamp */\n      timestamp\n        /* \"Tweet_On_Base(latest)_flattened.sol\":29989:30016  _liquidityProvidedTimestamp */\n      0x08\n        /* \"Tweet_On_Base(latest)_flattened.sol\":29989:30028  _liquidityProvidedTimestamp[msg.sender] */\n      0x00\n        /* \"Tweet_On_Base(latest)_flattened.sol\":30017:30027  msg.sender */\n      caller\n        /* \"Tweet_On_Base(latest)_flattened.sol\":29989:30028  _liquidityProvidedTimestamp[msg.sender] */\n      0xffffffffffffffffffffffffffffffffffffffff\n      and\n      0xffffffffffffffffffffffffffffffffffffffff\n      and\n      dup2\n      mstore\n      0x20\n      add\n      swap1\n      dup2\n      mstore\n      0x20\n      add\n      0x00\n      keccak256\n        /* \"Tweet_On_Base(latest)_flattened.sol\":29989:30046  _liquidityProvidedTimestamp[msg.sender] = block.timestamp */\n      dup2\n      swap1\n      sstore\n      pop\n        /* \"Tweet_On_Base(latest)_flattened.sol\":29826:30053  function undoAddLiquidity(uint256 amount) public {... */\n      pop\n      jump\t// out\n        /* \"Tweet_On_Base(latest)_flattened.sol\":4164:4260  function _msgSender() internal view virtual returns (address) {... */\n    tag_118:\n        /* \"Tweet_On_Base(latest)_flattened.sol\":4217:4224  address */\n      0x00\n        /* \"Tweet_On_Base(latest)_flattened.sol\":4243:4253  msg.sender */\n      caller\n        /* \"Tweet_On_Base(latest)_flattened.sol\":4236:4253  return msg.sender */\n      swap1\n      pop\n        /* \"Tweet_On_Base(latest)_flattened.sol\":4164:4260  function _msgSender() internal view virtual returns (address) {... */\n      swap1\n      jump\t// out\n        /* \"Tweet_On_Base(latest)_flattened.sol\":18912:19040  function _approve(address owner, address spender, uint256 value) internal {... */\n    tag_120:\n        /* \"Tweet_On_Base(latest)_flattened.sol\":18996:19033  _approve(owner, spender, value, true) */\n      tag_231\n        /* \"Tweet_On_Base(latest)_flattened.sol\":19005:19010  owner */\n      dup4\n        /* \"Tweet_On_Base(latest)_flattened.sol\":19012:19019  spender */\n      dup4\n        /* \"Tweet_On_Base(latest)_flattened.sol\":19021:19026  value */\n      dup4\n        /* \"Tweet_On_Base(latest)_flattened.sol\":19028:19032  true */\n      0x01\n        /* \"Tweet_On_Base(latest)_flattened.sol\":18996:19004  _approve */\n      tag_232\n        /* \"Tweet_On_Base(latest)_flattened.sol\":18996:19033  _approve(owner, spender, value, true) */\n      jump\t// in\n    tag_231:\n        /* \"Tweet_On_Base(latest)_flattened.sol\":18912:19040  function _approve(address owner, address spender, uint256 value) internal {... */\n      pop\n      pop\n      pop\n      jump\t// out\n        /* \"Tweet_On_Base(latest)_flattened.sol\":23951:24113  function _checkOwner() internal view virtual {... */\n    tag_124:\n        /* \"Tweet_On_Base(latest)_flattened.sol\":24021:24033  _msgSender() */\n      tag_234\n        /* \"Tweet_On_Base(latest)_flattened.sol\":24021:24031  _msgSender */\n      tag_118\n        /* \"Tweet_On_Base(latest)_flattened.sol\":24021:24033  _msgSender() */\n      jump\t// in\n    tag_234:\n        /* \"Tweet_On_Base(latest)_flattened.sol\":24010:24033  owner() != _msgSender() */\n      0xffffffffffffffffffffffffffffffffffffffff\n      and\n        /* \"Tweet_On_Base(latest)_flattened.sol\":24010:24017  owner() */\n      tag_235\n        /* \"Tweet_On_Base(latest)_flattened.sol\":24010:24015  owner */\n      tag_78\n        /* \"Tweet_On_Base(latest)_flattened.sol\":24010:24017  owner() */\n      jump\t// in\n    tag_235:\n        /* \"Tweet_On_Base(latest)_flattened.sol\":24010:24033  owner() != _msgSender() */\n      0xffffffffffffffffffffffffffffffffffffffff\n      and\n      eq\n        /* \"Tweet_On_Base(latest)_flattened.sol\":24006:24107  if (owner() != _msgSender()) {... */\n      tag_236\n      jumpi\n        /* \"Tweet_On_Base(latest)_flattened.sol\":24083:24095  _msgSender() */\n      tag_237\n        /* \"Tweet_On_Base(latest)_flattened.sol\":24083:24093  _msgSender */\n      tag_118\n        /* \"Tweet_On_Base(latest)_flattened.sol\":24083:24095  _msgSender() */\n      jump\t// in\n    tag_237:\n        /* \"Tweet_On_Base(latest)_flattened.sol\":24056:24096  OwnableUnauthorizedAccount(_msgSender()) */\n      mload(0x40)\n      0x118cdaa700000000000000000000000000000000000000000000000000000000\n      dup2\n      mstore\n      0x04\n      add\n      tag_238\n      swap2\n      swap1\n      tag_80\n      jump\t// in\n    tag_238:\n      mload(0x40)\n      dup1\n      swap2\n      sub\n      swap1\n      revert\n        /* \"Tweet_On_Base(latest)_flattened.sol\":24006:24107  if (owner() != _msgSender()) {... */\n    tag_236:\n        /* \"Tweet_On_Base(latest)_flattened.sol\":23951:24113  function _checkOwner() internal view virtual {... */\n      jump\t// out\n        /* \"Tweet_On_Base(latest)_flattened.sol\":27612:27899  function _nonReentrantBefore() private {... */\n    tag_127:\n        /* \"Tweet_On_Base(latest)_flattened.sol\":27035:27036  2 */\n      0x02\n        /* \"Tweet_On_Base(latest)_flattened.sol\":27744:27751  _status */\n      sload(0x06)\n        /* \"Tweet_On_Base(latest)_flattened.sol\":27744:27763  _status != _ENTERED */\n      sub\n        /* \"Tweet_On_Base(latest)_flattened.sol\":27736:27799  require(_status != _ENTERED, \"ReentrancyGuard: reentrant call\") */\n      tag_240\n      jumpi\n      mload(0x40)\n      0x08c379a000000000000000000000000000000000000000000000000000000000\n      dup2\n      mstore\n      0x04\n      add\n      tag_241\n      swap1\n      tag_242\n      jump\t// in\n    tag_241:\n      mload(0x40)\n      dup1\n      swap2\n      sub\n      swap1\n      revert\n    tag_240:\n        /* \"Tweet_On_Base(latest)_flattened.sol\":27035:27036  2 */\n      0x02\n        /* \"Tweet_On_Base(latest)_flattened.sol\":27874:27881  _status */\n      0x06\n        /* \"Tweet_On_Base(latest)_flattened.sol\":27874:27892  _status = _ENTERED */\n      dup2\n      swap1\n      sstore\n      pop\n        /* \"Tweet_On_Base(latest)_flattened.sol\":27612:27899  function _nonReentrantBefore() private {... */\n      jump\t// out\n        /* \"Tweet_On_Base(latest)_flattened.sol\":29046:29434  function _transfer(address sender, address recipient, uint256 amount) internal override {... */\n    tag_141:\n        /* \"Tweet_On_Base(latest)_flattened.sol\":29140:29158  uint256 burnAmount */\n      0x00\n        /* \"Tweet_On_Base(latest)_flattened.sol\":29170:29176  100000 */\n      0x0186a0\n        /* \"Tweet_On_Base(latest)_flattened.sol\":29161:29167  amount */\n      dup3\n        /* \"Tweet_On_Base(latest)_flattened.sol\":29161:29176  amount / 100000 */\n      tag_244\n      swap2\n      swap1\n      tag_215\n      jump\t// in\n    tag_244:\n        /* \"Tweet_On_Base(latest)_flattened.sol\":29140:29176  uint256 burnAmount = amount / 100000 */\n      swap1\n      pop\n        /* \"Tweet_On_Base(latest)_flattened.sol\":29183:29201  uint256 sendAmount */\n      0x00\n        /* \"Tweet_On_Base(latest)_flattened.sol\":29213:29223  burnAmount */\n      dup2\n        /* \"Tweet_On_Base(latest)_flattened.sol\":29204:29210  amount */\n      dup4\n        /* \"Tweet_On_Base(latest)_flattened.sol\":29204:29223  amount - burnAmount */\n      tag_245\n      swap2\n      swap1\n      tag_135\n      jump\t// in\n    tag_245:\n        /* \"Tweet_On_Base(latest)_flattened.sol\":29183:29223  uint256 sendAmount = amount - burnAmount */\n      swap1\n      pop\n        /* \"Tweet_On_Base(latest)_flattened.sol\":29261:29271  burnAmount */\n      dup2\n        /* \"Tweet_On_Base(latest)_flattened.sol\":29248:29258  sendAmount */\n      dup2\n        /* \"Tweet_On_Base(latest)_flattened.sol\":29248:29271  sendAmount + burnAmount */\n      tag_246\n      swap2\n      swap1\n      tag_157\n      jump\t// in\n    tag_246:\n        /* \"Tweet_On_Base(latest)_flattened.sol\":29238:29244  amount */\n      dup4\n        /* \"Tweet_On_Base(latest)_flattened.sol\":29238:29271  amount == sendAmount + burnAmount */\n      eq\n        /* \"Tweet_On_Base(latest)_flattened.sol\":29230:29294  require(amount == sendAmount + burnAmount, \"Burn value invalid\") */\n      tag_247\n      jumpi\n      mload(0x40)\n      0x08c379a000000000000000000000000000000000000000000000000000000000\n      dup2\n      mstore\n      0x04\n      add\n      tag_248\n      swap1\n      tag_249\n      jump\t// in\n    tag_248:\n      mload(0x40)\n      dup1\n      swap2\n      sub\n      swap1\n      revert\n    tag_247:\n        /* \"Tweet_On_Base(latest)_flattened.sol\":29319:29329  msg.sender */\n      caller\n        /* \"Tweet_On_Base(latest)_flattened.sol\":29309:29329  sender != msg.sender */\n      0xffffffffffffffffffffffffffffffffffffffff\n      and\n        /* \"Tweet_On_Base(latest)_flattened.sol\":29309:29315  sender */\n      dup6\n        /* \"Tweet_On_Base(latest)_flattened.sol\":29309:29329  sender != msg.sender */\n      0xffffffffffffffffffffffffffffffffffffffff\n      and\n      eq\n        /* \"Tweet_On_Base(latest)_flattened.sol\":29305:29379  if (sender != msg.sender) {... */\n      tag_250\n      jumpi\n        /* \"Tweet_On_Base(latest)_flattened.sol\":29341:29372  super._burn(sender, burnAmount) */\n      tag_251\n        /* \"Tweet_On_Base(latest)_flattened.sol\":29353:29359  sender */\n      dup6\n        /* \"Tweet_On_Base(latest)_flattened.sol\":29361:29371  burnAmount */\n      dup4\n        /* \"Tweet_On_Base(latest)_flattened.sol\":29341:29352  super._burn */\n      tag_153\n        /* \"Tweet_On_Base(latest)_flattened.sol\":29341:29372  super._burn(sender, burnAmount) */\n      jump\t// in\n    tag_251:\n        /* \"Tweet_On_Base(latest)_flattened.sol\":29305:29379  if (sender != msg.sender) {... */\n    tag_250:\n        /* \"Tweet_On_Base(latest)_flattened.sol\":29385:29431  super._transfer(sender, recipient, sendAmount) */\n      tag_252\n        /* \"Tweet_On_Base(latest)_flattened.sol\":29401:29407  sender */\n      dup6\n        /* \"Tweet_On_Base(latest)_flattened.sol\":29409:29418  recipient */\n      dup6\n        /* \"Tweet_On_Base(latest)_flattened.sol\":29420:29430  sendAmount */\n      dup4\n        /* \"Tweet_On_Base(latest)_flattened.sol\":29385:29400  super._transfer */\n      tag_253\n        /* \"Tweet_On_Base(latest)_flattened.sol\":29385:29431  super._transfer(sender, recipient, sendAmount) */\n      jump\t// in\n    tag_252:\n        /* \"Tweet_On_Base(latest)_flattened.sol\":29134:29434  {... */\n      pop\n      pop\n        /* \"Tweet_On_Base(latest)_flattened.sol\":29046:29434  function _transfer(address sender, address recipient, uint256 amount) internal override {... */\n      pop\n      pop\n      pop\n      jump\t// out\n        /* \"Tweet_On_Base(latest)_flattened.sol\":27905:28114  function _nonReentrantAfter() private {... */\n    tag_143:\n        /* \"Tweet_On_Base(latest)_flattened.sol\":26992:26993  1 */\n      0x01\n        /* \"Tweet_On_Base(latest)_flattened.sol\":28085:28092  _status */\n      0x06\n        /* \"Tweet_On_Base(latest)_flattened.sol\":28085:28107  _status = _NOT_ENTERED */\n      dup2\n      swap1\n      sstore\n      pop\n        /* \"Tweet_On_Base(latest)_flattened.sol\":27905:28114  function _nonReentrantAfter() private {... */\n      jump\t// out\n        /* \"Tweet_On_Base(latest)_flattened.sol\":20586:21063  function _spendAllowance(address owner, address spender, uint256 value) internal virtual {... */\n    tag_147:\n        /* \"Tweet_On_Base(latest)_flattened.sol\":20685:20709  uint256 currentAllowance */\n      0x00\n        /* \"Tweet_On_Base(latest)_flattened.sol\":20712:20737  allowance(owner, spender) */\n      tag_256\n        /* \"Tweet_On_Base(latest)_flattened.sol\":20722:20727  owner */\n      dup5\n        /* \"Tweet_On_Base(latest)_flattened.sol\":20729:20736  spender */\n      dup5\n        /* \"Tweet_On_Base(latest)_flattened.sol\":20712:20721  allowance */\n      tag_101\n        /* \"Tweet_On_Base(latest)_flattened.sol\":20712:20737  allowance(owner, spender) */\n      jump\t// in\n    tag_256:\n        /* \"Tweet_On_Base(latest)_flattened.sol\":20685:20737  uint256 currentAllowance = allowance(owner, spender) */\n      swap1\n      pop\n        /* \"Tweet_On_Base(latest)_flattened.sol\":20771:20788  type(uint256).max */\n      0xffffffffffffffffffffffffffffffffffffffffffffffffffffffffffffffff\n        /* \"Tweet_On_Base(latest)_flattened.sol\":20751:20767  currentAllowance */\n      dup2\n        /* \"Tweet_On_Base(latest)_flattened.sol\":20751:20788  currentAllowance != type(uint256).max */\n      eq\n        /* \"Tweet_On_Base(latest)_flattened.sol\":20747:21057  if (currentAllowance != type(uint256).max) {... */\n      tag_257\n      jumpi\n        /* \"Tweet_On_Base(latest)_flattened.sol\":20827:20832  value */\n      dup2\n        /* \"Tweet_On_Base(latest)_flattened.sol\":20808:20824  currentAllowance */\n      dup2\n        /* \"Tweet_On_Base(latest)_flattened.sol\":20808:20832  currentAllowance < value */\n      lt\n        /* \"Tweet_On_Base(latest)_flattened.sol\":20804:20934  if (currentAllowance < value) {... */\n      iszero\n      tag_258\n      jumpi\n        /* \"Tweet_On_Base(latest)_flattened.sol\":20886:20893  spender */\n      dup3\n        /* \"Tweet_On_Base(latest)_flattened.sol\":20895:20911  currentAllowance */\n      dup2\n        /* \"Tweet_On_Base(latest)_flattened.sol\":20913:20918  value */\n      dup4\n        /* \"Tweet_On_Base(latest)_flattened.sol\":20859:20919  ERC20InsufficientAllowance(spender, currentAllowance, value) */\n      mload(0x40)\n      0xfb8f41b200000000000000000000000000000000000000000000000000000000\n      dup2\n      mstore\n      0x04\n      add\n      tag_259\n      swap4\n      swap3\n      swap2\n      swap1\n      tag_260\n      jump\t// in\n    tag_259:\n      mload(0x40)\n      dup1\n      swap2\n      sub\n      swap1\n      revert\n        /* \"Tweet_On_Base(latest)_flattened.sol\":20804:20934  if (currentAllowance < value) {... */\n    tag_258:\n        /* \"Tweet_On_Base(latest)_flattened.sol\":20975:21032  _approve(owner, spender, currentAllowance - value, false) */\n      tag_261\n        /* \"Tweet_On_Base(latest)_flattened.sol\":20984:20989  owner */\n      dup5\n        /* \"Tweet_On_Base(latest)_flattened.sol\":20991:20998  spender */\n      dup5\n        /* \"Tweet_On_Base(latest)_flattened.sol\":21019:21024  value */\n      dup5\n        /* \"Tweet_On_Base(latest)_flattened.sol\":21000:21016  currentAllowance */\n      dup5\n        /* \"Tweet_On_Base(latest)_flattened.sol\":21000:21024  currentAllowance - value */\n      sub\n        /* \"Tweet_On_Base(latest)_flattened.sol\":21026:21031  false */\n      0x00\n        /* \"Tweet_On_Base(latest)_flattened.sol\":20975:20983  _approve */\n      tag_232\n        /* \"Tweet_On_Base(latest)_flattened.sol\":20975:21032  _approve(owner, spender, currentAllowance - value, false) */\n      jump\t// in\n    tag_261:\n        /* \"Tweet_On_Base(latest)_flattened.sol\":20747:21057  if (currentAllowance != type(uint256).max) {... */\n    tag_257:\n        /* \"Tweet_On_Base(latest)_flattened.sol\":20675:21063  {... */\n      pop\n        /* \"Tweet_On_Base(latest)_flattened.sol\":20586:21063  function _spendAllowance(address owner, address spender, uint256 value) internal virtual {... */\n      pop\n      pop\n      pop\n      jump\t// out\n        /* \"Tweet_On_Base(latest)_flattened.sol\":18034:18240  function _burn(address account, uint256 value) internal {... */\n    tag_153:\n        /* \"Tweet_On_Base(latest)_flattened.sol\":18123:18124  0 */\n      0x00\n        /* \"Tweet_On_Base(latest)_flattened.sol\":18104:18125  account == address(0) */\n      0xffffffffffffffffffffffffffffffffffffffff\n      and\n        /* \"Tweet_On_Base(latest)_flattened.sol\":18104:18111  account */\n      dup3\n        /* \"Tweet_On_Base(latest)_flattened.sol\":18104:18125  account == address(0) */\n      0xffffffffffffffffffffffffffffffffffffffff\n      and\n      sub\n        /* \"Tweet_On_Base(latest)_flattened.sol\":18100:18189  if (account == address(0)) {... */\n      tag_263\n      jumpi\n        /* \"Tweet_On_Base(latest)_flattened.sol\":18175:18176  0 */\n      0x00\n        /* \"Tweet_On_Base(latest)_flattened.sol\":18148:18178  ERC20InvalidSender(address(0)) */\n      mload(0x40)\n      0x96c6fd1e00000000000000000000000000000000000000000000000000000000\n      dup2\n      mstore\n      0x04\n      add\n      tag_264\n      swap2\n      swap1\n      tag_80\n      jump\t// in\n    tag_264:\n      mload(0x40)\n      dup1\n      swap2\n      sub\n      swap1\n      revert\n        /* \"Tweet_On_Base(latest)_flattened.sol\":18100:18189  if (account == address(0)) {... */\n    tag_263:\n        /* \"Tweet_On_Base(latest)_flattened.sol\":18198:18233  _update(account, address(0), value) */\n      tag_265\n        /* \"Tweet_On_Base(latest)_flattened.sol\":18206:18213  account */\n      dup3\n        /* \"Tweet_On_Base(latest)_flattened.sol\":18223:18224  0 */\n      0x00\n        /* \"Tweet_On_Base(latest)_flattened.sol\":18227:18232  value */\n      dup4\n        /* \"Tweet_On_Base(latest)_flattened.sol\":18198:18205  _update */\n      tag_266\n        /* \"Tweet_On_Base(latest)_flattened.sol\":18198:18233  _update(account, address(0), value) */\n      jump\t// in\n    tag_265:\n        /* \"Tweet_On_Base(latest)_flattened.sol\":18034:18240  function _burn(address account, uint256 value) internal {... */\n      pop\n      pop\n      jump\t// out\n        /* \"Tweet_On_Base(latest)_flattened.sol\":25067:25254  function _transferOwnership(address newOwner) internal virtual {... */\n    tag_163:\n        /* \"Tweet_On_Base(latest)_flattened.sol\":25140:25156  address oldOwner */\n      0x00\n        /* \"Tweet_On_Base(latest)_flattened.sol\":25159:25165  _owner */\n      0x05\n      0x00\n      swap1\n      sload\n      swap1\n      0x0100\n      exp\n      swap1\n      div\n      0xffffffffffffffffffffffffffffffffffffffff\n      and\n        /* \"Tweet_On_Base(latest)_flattened.sol\":25140:25165  address oldOwner = _owner */\n      swap1\n      pop\n        /* \"Tweet_On_Base(latest)_flattened.sol\":25184:25192  newOwner */\n      dup2\n        /* \"Tweet_On_Base(latest)_flattened.sol\":25175:25181  _owner */\n      0x05\n      0x00\n        /* \"Tweet_On_Base(latest)_flattened.sol\":25175:25192  _owner = newOwner */\n      0x0100\n      exp\n      dup2\n      sload\n      dup2\n      0xffffffffffffffffffffffffffffffffffffffff\n      mul\n      not\n      and\n      swap1\n      dup4\n      0xffffffffffffffffffffffffffffffffffffffff\n      and\n      mul\n      or\n      swap1\n      sstore\n      pop\n        /* \"Tweet_On_Base(latest)_flattened.sol\":25238:25246  newOwner */\n      dup2\n        /* \"Tweet_On_Base(latest)_flattened.sol\":25207:25247  OwnershipTransferred(oldOwner, newOwner) */\n      0xffffffffffffffffffffffffffffffffffffffff\n      and\n        /* \"Tweet_On_Base(latest)_flattened.sol\":25228:25236  oldOwner */\n      dup2\n        /* \"Tweet_On_Base(latest)_flattened.sol\":25207:25247  OwnershipTransferred(oldOwner, newOwner) */\n      0xffffffffffffffffffffffffffffffffffffffff\n      and\n      0x8be0079c531659141344cd1fd0a4f28419497f9722a3daafe3b4186f6b6457e0\n      mload(0x40)\n      mload(0x40)\n      dup1\n      swap2\n      sub\n      swap1\n      log3\n        /* \"Tweet_On_Base(latest)_flattened.sol\":25130:25254  {... */\n      pop\n        /* \"Tweet_On_Base(latest)_flattened.sol\":25067:25254  function _transferOwnership(address newOwner) internal virtual {... */\n      pop\n      jump\t// out\n        /* \"Tweet_On_Base(latest)_flattened.sol\":17499:17716  function _mint(address account, uint256 value) internal virtual  {... */\n    tag_185:\n        /* \"Tweet_On_Base(latest)_flattened.sol\":17597:17598  0 */\n      0x00\n        /* \"Tweet_On_Base(latest)_flattened.sol\":17578:17599  account == address(0) */\n      0xffffffffffffffffffffffffffffffffffffffff\n      and\n        /* \"Tweet_On_Base(latest)_flattened.sol\":17578:17585  account */\n      dup3\n        /* \"Tweet_On_Base(latest)_flattened.sol\":17578:17599  account == address(0) */\n      0xffffffffffffffffffffffffffffffffffffffff\n      and\n      sub\n        /* \"Tweet_On_Base(latest)_flattened.sol\":17574:17665  if (account == address(0)) {... */\n      tag_269\n      jumpi\n        /* \"Tweet_On_Base(latest)_flattened.sol\":17651:17652  0 */\n      0x00\n        /* \"Tweet_On_Base(latest)_flattened.sol\":17622:17654  ERC20InvalidReceiver(address(0)) */\n      mload(0x40)\n      0xec442f0500000000000000000000000000000000000000000000000000000000\n      dup2\n      mstore\n      0x04\n      add\n      tag_270\n      swap2\n      swap1\n      tag_80\n      jump\t// in\n    tag_270:\n      mload(0x40)\n      dup1\n      swap2\n      sub\n      swap1\n      revert\n        /* \"Tweet_On_Base(latest)_flattened.sol\":17574:17665  if (account == address(0)) {... */\n    tag_269:\n        /* \"Tweet_On_Base(latest)_flattened.sol\":17674:17709  _update(address(0), account, value) */\n      tag_271\n        /* \"Tweet_On_Base(latest)_flattened.sol\":17690:17691  0 */\n      0x00\n        /* \"Tweet_On_Base(latest)_flattened.sol\":17694:17701  account */\n      dup4\n        /* \"Tweet_On_Base(latest)_flattened.sol\":17703:17708  value */\n      dup4\n        /* \"Tweet_On_Base(latest)_flattened.sol\":17674:17681  _update */\n      tag_266\n        /* \"Tweet_On_Base(latest)_flattened.sol\":17674:17709  _update(address(0), account, value) */\n      jump\t// in\n    tag_271:\n        /* \"Tweet_On_Base(latest)_flattened.sol\":17499:17716  function _mint(address account, uint256 value) internal virtual  {... */\n      pop\n      pop\n      jump\t// out\n        /* \"Tweet_On_Base(latest)_flattened.sol\":19872:20304  function _approve(address owner, address spender, uint256 value, bool emitEvent) internal virtual {... */\n    tag_232:\n        /* \"Tweet_On_Base(latest)_flattened.sol\":20001:20002  0 */\n      0x00\n        /* \"Tweet_On_Base(latest)_flattened.sol\":19984:20003  owner == address(0) */\n      0xffffffffffffffffffffffffffffffffffffffff\n      and\n        /* \"Tweet_On_Base(latest)_flattened.sol\":19984:19989  owner */\n      dup5\n        /* \"Tweet_On_Base(latest)_flattened.sol\":19984:20003  owner == address(0) */\n      0xffffffffffffffffffffffffffffffffffffffff\n      and\n      sub\n        /* \"Tweet_On_Base(latest)_flattened.sol\":19980:20069  if (owner == address(0)) {... */\n      tag_273\n      jumpi\n        /* \"Tweet_On_Base(latest)_flattened.sol\":20055:20056  0 */\n      0x00\n        /* \"Tweet_On_Base(latest)_flattened.sol\":20026:20058  ERC20InvalidApprover(address(0)) */\n      mload(0x40)\n      0xe602df0500000000000000000000000000000000000000000000000000000000\n      dup2\n      mstore\n      0x04\n      add\n      tag_274\n      swap2\n      swap1\n      tag_80\n      jump\t// in\n    tag_274:\n      mload(0x40)\n      dup1\n      swap2\n      sub\n      swap1\n      revert\n        /* \"Tweet_On_Base(latest)_flattened.sol\":19980:20069  if (owner == address(0)) {... */\n    tag_273:\n        /* \"Tweet_On_Base(latest)_flattened.sol\":20101:20102  0 */\n      0x00\n        /* \"Tweet_On_Base(latest)_flattened.sol\":20082:20103  spender == address(0) */\n      0xffffffffffffffffffffffffffffffffffffffff\n      and\n        /* \"Tweet_On_Base(latest)_flattened.sol\":20082:20089  spender */\n      dup4\n        /* \"Tweet_On_Base(latest)_flattened.sol\":20082:20103  spender == address(0) */\n      0xffffffffffffffffffffffffffffffffffffffff\n      and\n      sub\n        /* \"Tweet_On_Base(latest)_flattened.sol\":20078:20168  if (spender == address(0)) {... */\n      tag_275\n      jumpi\n        /* \"Tweet_On_Base(latest)_flattened.sol\":20154:20155  0 */\n      0x00\n        /* \"Tweet_On_Base(latest)_flattened.sol\":20126:20157  ERC20InvalidSpender(address(0)) */\n      mload(0x40)\n      0x94280d6200000000000000000000000000000000000000000000000000000000\n      dup2\n      mstore\n      0x04\n      add\n      tag_276\n      swap2\n      swap1\n      tag_80\n      jump\t// in\n    tag_276:\n      mload(0x40)\n      dup1\n      swap2\n      sub\n      swap1\n      revert\n        /* \"Tweet_On_Base(latest)_flattened.sol\":20078:20168  if (spender == address(0)) {... */\n    tag_275:\n        /* \"Tweet_On_Base(latest)_flattened.sol\":20207:20212  value */\n      dup2\n        /* \"Tweet_On_Base(latest)_flattened.sol\":20177:20188  _allowances */\n      0x01\n        /* \"Tweet_On_Base(latest)_flattened.sol\":20177:20195  _allowances[owner] */\n      0x00\n        /* \"Tweet_On_Base(latest)_flattened.sol\":20189:20194  owner */\n      dup7\n        /* \"Tweet_On_Base(latest)_flattened.sol\":20177:20195  _allowances[owner] */\n      0xffffffffffffffffffffffffffffffffffffffff\n      and\n      0xffffffffffffffffffffffffffffffffffffffff\n      and\n      dup2\n      mstore\n      0x20\n      add\n      swap1\n      dup2\n      mstore\n      0x20\n      add\n      0x00\n      keccak256\n        /* \"Tweet_On_Base(latest)_flattened.sol\":20177:20204  _allowances[owner][spender] */\n      0x00\n        /* \"Tweet_On_Base(latest)_flattened.sol\":20196:20203  spender */\n      dup6\n        /* \"Tweet_On_Base(latest)_flattened.sol\":20177:20204  _allowances[owner][spender] */\n      0xffffffffffffffffffffffffffffffffffffffff\n      and\n      0xffffffffffffffffffffffffffffffffffffffff\n      and\n      dup2\n      mstore\n      0x20\n      add\n      swap1\n      dup2\n      mstore\n      0x20\n      add\n      0x00\n      keccak256\n        /* \"Tweet_On_Base(latest)_flattened.sol\":20177:20212  _allowances[owner][spender] = value */\n      dup2\n      swap1\n      sstore\n      pop\n        /* \"Tweet_On_Base(latest)_flattened.sol\":20226:20235  emitEvent */\n      dup1\n        /* \"Tweet_On_Base(latest)_flattened.sol\":20222:20298  if (emitEvent) {... */\n      iszero\n      tag_277\n      jumpi\n        /* \"Tweet_On_Base(latest)_flattened.sol\":20272:20279  spender */\n      dup3\n        /* \"Tweet_On_Base(latest)_flattened.sol\":20256:20287  Approval(owner, spender, value) */\n      0xffffffffffffffffffffffffffffffffffffffff\n      and\n        /* \"Tweet_On_Base(latest)_flattened.sol\":20265:20270  owner */\n      dup5\n        /* \"Tweet_On_Base(latest)_flattened.sol\":20256:20287  Approval(owner, spender, value) */\n      0xffffffffffffffffffffffffffffffffffffffff\n      and\n      0x8c5be1e5ebec7d5bd14f71427d1e84f3dd0314c0f7b2291e5b200ac8c7c3b925\n        /* \"Tweet_On_Base(latest)_flattened.sol\":20281:20286  value */\n      dup5\n        /* \"Tweet_On_Base(latest)_flattened.sol\":20256:20287  Approval(owner, spender, value) */\n      mload(0x40)\n      tag_278\n      swap2\n      swap1\n      tag_41\n      jump\t// in\n    tag_278:\n      mload(0x40)\n      dup1\n      swap2\n      sub\n      swap1\n      log3\n        /* \"Tweet_On_Base(latest)_flattened.sol\":20222:20298  if (emitEvent) {... */\n    tag_277:\n        /* \"Tweet_On_Base(latest)_flattened.sol\":19872:20304  function _approve(address owner, address spender, uint256 value, bool emitEvent) internal virtual {... */\n      pop\n      pop\n      pop\n      pop\n      jump\t// out\n        /* \"Tweet_On_Base(latest)_flattened.sol\":15426:15734  function _transfer(address from, address to, uint256 value) internal virtual {... */\n    tag_253:\n        /* \"Tweet_On_Base(latest)_flattened.sol\":15533:15534  0 */\n      0x00\n        /* \"Tweet_On_Base(latest)_flattened.sol\":15517:15535  from == address(0) */\n      0xffffffffffffffffffffffffffffffffffffffff\n      and\n        /* \"Tweet_On_Base(latest)_flattened.sol\":15517:15521  from */\n      dup4\n        /* \"Tweet_On_Base(latest)_flattened.sol\":15517:15535  from == address(0) */\n      0xffffffffffffffffffffffffffffffffffffffff\n      and\n      sub\n        /* \"Tweet_On_Base(latest)_flattened.sol\":15513:15599  if (from == address(0)) {... */\n      tag_280\n      jumpi\n        /* \"Tweet_On_Base(latest)_flattened.sol\":15585:15586  0 */\n      0x00\n        /* \"Tweet_On_Base(latest)_flattened.sol\":15558:15588  ERC20InvalidSender(address(0)) */\n      mload(0x40)\n      0x96c6fd1e00000000000000000000000000000000000000000000000000000000\n      dup2\n      mstore\n      0x04\n      add\n      tag_281\n      swap2\n      swap1\n      tag_80\n      jump\t// in\n    tag_281:\n      mload(0x40)\n      dup1\n      swap2\n      sub\n      swap1\n      revert\n        /* \"Tweet_On_Base(latest)_flattened.sol\":15513:15599  if (from == address(0)) {... */\n    tag_280:\n        /* \"Tweet_On_Base(latest)_flattened.sol\":15626:15627  0 */\n      0x00\n        /* \"Tweet_On_Base(latest)_flattened.sol\":15612:15628  to == address(0) */\n      0xffffffffffffffffffffffffffffffffffffffff\n      and\n        /* \"Tweet_On_Base(latest)_flattened.sol\":15612:15614  to */\n      dup3\n        /* \"Tweet_On_Base(latest)_flattened.sol\":15612:15628  to == address(0) */\n      0xffffffffffffffffffffffffffffffffffffffff\n      and\n      sub\n        /* \"Tweet_On_Base(latest)_flattened.sol\":15608:15694  if (to == address(0)) {... */\n      tag_282\n      jumpi\n        /* \"Tweet_On_Base(latest)_flattened.sol\":15680:15681  0 */\n      0x00\n        /* \"Tweet_On_Base(latest)_flattened.sol\":15651:15683  ERC20InvalidReceiver(address(0)) */\n      mload(0x40)\n      0xec442f0500000000000000000000000000000000000000000000000000000000\n      dup2\n      mstore\n      0x04\n      add\n      tag_283\n      swap2\n      swap1\n      tag_80\n      jump\t// in\n    tag_283:\n      mload(0x40)\n      dup1\n      swap2\n      sub\n      swap1\n      revert\n        /* \"Tweet_On_Base(latest)_flattened.sol\":15608:15694  if (to == address(0)) {... */\n    tag_282:\n        /* \"Tweet_On_Base(latest)_flattened.sol\":15703:15727  _update(from, to, value) */\n      tag_284\n        /* \"Tweet_On_Base(latest)_flattened.sol\":15711:15715  from */\n      dup4\n        /* \"Tweet_On_Base(latest)_flattened.sol\":15717:15719  to */\n      dup4\n        /* \"Tweet_On_Base(latest)_flattened.sol\":15721:15726  value */\n      dup4\n        /* \"Tweet_On_Base(latest)_flattened.sol\":15703:15710  _update */\n      tag_266\n        /* \"Tweet_On_Base(latest)_flattened.sol\":15703:15727  _update(from, to, value) */\n      jump\t// in\n    tag_284:\n        /* \"Tweet_On_Base(latest)_flattened.sol\":15426:15734  function _transfer(address from, address to, uint256 value) internal virtual {... */\n      pop\n      pop\n      pop\n      jump\t// out\n        /* \"Tweet_On_Base(latest)_flattened.sol\":16049:17156  function _update(address from, address to, uint256 value) internal virtual {... */\n    tag_266:\n        /* \"Tweet_On_Base(latest)_flattened.sol\":16154:16155  0 */\n      0x00\n        /* \"Tweet_On_Base(latest)_flattened.sol\":16138:16156  from == address(0) */\n      0xffffffffffffffffffffffffffffffffffffffff\n      and\n        /* \"Tweet_On_Base(latest)_flattened.sol\":16138:16142  from */\n      dup4\n        /* \"Tweet_On_Base(latest)_flattened.sol\":16138:16156  from == address(0) */\n      0xffffffffffffffffffffffffffffffffffffffff\n      and\n      sub\n        /* \"Tweet_On_Base(latest)_flattened.sol\":16134:16674  if (from == address(0)) {... */\n      tag_286\n      jumpi\n        /* \"Tweet_On_Base(latest)_flattened.sol\":16290:16295  value */\n      dup1\n        /* \"Tweet_On_Base(latest)_flattened.sol\":16274:16286  _totalSupply */\n      0x02\n      0x00\n        /* \"Tweet_On_Base(latest)_flattened.sol\":16274:16295  _totalSupply += value */\n      dup3\n      dup3\n      sload\n      tag_287\n      swap2\n      swap1\n      tag_157\n      jump\t// in\n    tag_287:\n      swap3\n      pop\n      pop\n      dup2\n      swap1\n      sstore\n      pop\n        /* \"Tweet_On_Base(latest)_flattened.sol\":16134:16674  if (from == address(0)) {... */\n      jump(tag_288)\n    tag_286:\n        /* \"Tweet_On_Base(latest)_flattened.sol\":16326:16345  uint256 fromBalance */\n      0x00\n        /* \"Tweet_On_Base(latest)_flattened.sol\":16348:16357  _balances */\n      dup1\n        /* \"Tweet_On_Base(latest)_flattened.sol\":16348:16363  _balances[from] */\n      0x00\n        /* \"Tweet_On_Base(latest)_flattened.sol\":16358:16362  from */\n      dup6\n        /* \"Tweet_On_Base(latest)_flattened.sol\":16348:16363  _balances[from] */\n      0xffffffffffffffffffffffffffffffffffffffff\n      and\n      0xffffffffffffffffffffffffffffffffffffffff\n      and\n      dup2\n      mstore\n      0x20\n      add\n      swap1\n      dup2\n      mstore\n      0x20\n      add\n      0x00\n      keccak256\n      sload\n        /* \"Tweet_On_Base(latest)_flattened.sol\":16326:16363  uint256 fromBalance = _balances[from] */\n      swap1\n      pop\n        /* \"Tweet_On_Base(latest)_flattened.sol\":16395:16400  value */\n      dup2\n        /* \"Tweet_On_Base(latest)_flattened.sol\":16381:16392  fromBalance */\n      dup2\n        /* \"Tweet_On_Base(latest)_flattened.sol\":16381:16400  fromBalance < value */\n      lt\n        /* \"Tweet_On_Base(latest)_flattened.sol\":16377:16492  if (fromBalance < value) {... */\n      iszero\n      tag_289\n      jumpi\n        /* \"Tweet_On_Base(latest)_flattened.sol\":16452:16456  from */\n      dup4\n        /* \"Tweet_On_Base(latest)_flattened.sol\":16458:16469  fromBalance */\n      dup2\n        /* \"Tweet_On_Base(latest)_flattened.sol\":16471:16476  value */\n      dup4\n        /* \"Tweet_On_Base(latest)_flattened.sol\":16427:16477  ERC20InsufficientBalance(from, fromBalance, value) */\n      mload(0x40)\n      0xe450d38c00000000000000000000000000000000000000000000000000000000\n      dup2\n      mstore\n      0x04\n      add\n      tag_290\n      swap4\n      swap3\n      swap2\n      swap1\n      tag_260\n      jump\t// in\n    tag_290:\n      mload(0x40)\n      dup1\n      swap2\n      sub\n      swap1\n      revert\n        /* \"Tweet_On_Base(latest)_flattened.sol\":16377:16492  if (fromBalance < value) {... */\n    tag_289:\n        /* \"Tweet_On_Base(latest)_flattened.sol\":16644:16649  value */\n      dup2\n        /* \"Tweet_On_Base(latest)_flattened.sol\":16630:16641  fromBalance */\n      dup2\n        /* \"Tweet_On_Base(latest)_flattened.sol\":16630:16649  fromBalance - value */\n      sub\n        /* \"Tweet_On_Base(latest)_flattened.sol\":16612:16621  _balances */\n      0x00\n        /* \"Tweet_On_Base(latest)_flattened.sol\":16612:16627  _balances[from] */\n      dup1\n        /* \"Tweet_On_Base(latest)_flattened.sol\":16622:16626  from */\n      dup7\n        /* \"Tweet_On_Base(latest)_flattened.sol\":16612:16627  _balances[from] */\n      0xffffffffffffffffffffffffffffffffffffffff\n      and\n      0xffffffffffffffffffffffffffffffffffffffff\n      and\n      dup2\n      mstore\n      0x20\n      add\n      swap1\n      dup2\n      mstore\n      0x20\n      add\n      0x00\n      keccak256\n        /* \"Tweet_On_Base(latest)_flattened.sol\":16612:16649  _balances[from] = fromBalance - value */\n      dup2\n      swap1\n      sstore\n      pop\n        /* \"Tweet_On_Base(latest)_flattened.sol\":16312:16674  {... */\n      pop\n        /* \"Tweet_On_Base(latest)_flattened.sol\":16134:16674  if (from == address(0)) {... */\n    tag_288:\n        /* \"Tweet_On_Base(latest)_flattened.sol\":16702:16703  0 */\n      0x00\n        /* \"Tweet_On_Base(latest)_flattened.sol\":16688:16704  to == address(0) */\n      0xffffffffffffffffffffffffffffffffffffffff\n      and\n        /* \"Tweet_On_Base(latest)_flattened.sol\":16688:16690  to */\n      dup3\n        /* \"Tweet_On_Base(latest)_flattened.sol\":16688:16704  to == address(0) */\n      0xffffffffffffffffffffffffffffffffffffffff\n      and\n      sub\n        /* \"Tweet_On_Base(latest)_flattened.sol\":16684:17109  if (to == address(0)) {... */\n      tag_291\n      jumpi\n        /* \"Tweet_On_Base(latest)_flattened.sol\":16867:16872  value */\n      dup1\n        /* \"Tweet_On_Base(latest)_flattened.sol\":16851:16863  _totalSupply */\n      0x02\n      0x00\n        /* \"Tweet_On_Base(latest)_flattened.sol\":16851:16872  _totalSupply -= value */\n      dup3\n      dup3\n      sload\n      sub\n      swap3\n      pop\n      pop\n      dup2\n      swap1\n      sstore\n      pop\n        /* \"Tweet_On_Base(latest)_flattened.sol\":16684:17109  if (to == address(0)) {... */\n      jump(tag_292)\n    tag_291:\n        /* \"Tweet_On_Base(latest)_flattened.sol\":17079:17084  value */\n      dup1\n        /* \"Tweet_On_Base(latest)_flattened.sol\":17062:17071  _balances */\n      0x00\n        /* \"Tweet_On_Base(latest)_flattened.sol\":17062:17075  _balances[to] */\n      dup1\n        /* \"Tweet_On_Base(latest)_flattened.sol\":17072:17074  to */\n      dup5\n        /* \"Tweet_On_Base(latest)_flattened.sol\":17062:17075  _balances[to] */\n      0xffffffffffffffffffffffffffffffffffffffff\n      and\n      0xffffffffffffffffffffffffffffffffffffffff\n      and\n      dup2\n      mstore\n      0x20\n      add\n      swap1\n      dup2\n      mstore\n      0x20\n      add\n      0x00\n      keccak256\n      0x00\n        /* \"Tweet_On_Base(latest)_flattened.sol\":17062:17084  _balances[to] += value */\n      dup3\n      dup3\n      sload\n      add\n      swap3\n      pop\n      pop\n      dup2\n      swap1\n      sstore\n      pop\n        /* \"Tweet_On_Base(latest)_flattened.sol\":16684:17109  if (to == address(0)) {... */\n    tag_292:\n        /* \"Tweet_On_Base(latest)_flattened.sol\":17139:17141  to */\n      dup2\n        /* \"Tweet_On_Base(latest)_flattened.sol\":17124:17149  Transfer(from, to, value) */\n      0xffffffffffffffffffffffffffffffffffffffff\n      and\n        /* \"Tweet_On_Base(latest)_flattened.sol\":17133:17137  from */\n      dup4\n        /* \"Tweet_On_Base(latest)_flattened.sol\":17124:17149  Transfer(from, to, value) */\n      0xffffffffffffffffffffffffffffffffffffffff\n      and\n      0xddf252ad1be2c89b69c2b068fc378daa952ba7f163c4a11628f55a4df523b3ef\n        /* \"Tweet_On_Base(latest)_flattened.sol\":17143:17148  value */\n      dup4\n        /* \"Tweet_On_Base(latest)_flattened.sol\":17124:17149  Transfer(from, to, value) */\n      mload(0x40)\n      tag_293\n      swap2\n      swap1\n      tag_41\n      jump\t// in\n    tag_293:\n      mload(0x40)\n      dup1\n      swap2\n      sub\n      swap1\n      log3\n        /* \"Tweet_On_Base(latest)_flattened.sol\":16049:17156  function _update(address from, address to, uint256 value) internal virtual {... */\n      pop\n      pop\n      pop\n      jump\t// out\n        /* \"#utility.yul\":7:106   */\n    tag_294:\n        /* \"#utility.yul\":59:65   */\n      0x00\n        /* \"#utility.yul\":93:98   */\n      dup2\n        /* \"#utility.yul\":87:99   */\n      mload\n        /* \"#utility.yul\":77:99   */\n      swap1\n      pop\n        /* \"#utility.yul\":7:106   */\n      swap2\n      swap1\n      pop\n      jump\t// out\n        /* \"#utility.yul\":112:281   */\n    tag_295:\n        /* \"#utility.yul\":196:207   */\n      0x00\n        /* \"#utility.yul\":230:236   */\n      dup3\n        /* \"#utility.yul\":225:228   */\n      dup3\n        /* \"#utility.yul\":218:237   */\n      mstore\n        /* \"#utility.yul\":270:274   */\n      0x20\n        /* \"#utility.yul\":265:268   */\n      dup3\n        /* \"#utility.yul\":261:275   */\n      add\n        /* \"#utility.yul\":246:275   */\n      swap1\n      pop\n        /* \"#utility.yul\":112:281   */\n      swap3\n      swap2\n      pop\n      pop\n      jump\t// out\n        /* \"#utility.yul\":287:426   */\n    tag_296:\n        /* \"#utility.yul\":376:382   */\n      dup3\n        /* \"#utility.yul\":371:374   */\n      dup2\n        /* \"#utility.yul\":366:369   */\n      dup4\n        /* \"#utility.yul\":360:383   */\n      mcopy\n        /* \"#utility.yul\":417:418   */\n      0x00\n        /* \"#utility.yul\":408:414   */\n      dup4\n        /* \"#utility.yul\":403:406   */\n      dup4\n        /* \"#utility.yul\":399:415   */\n      add\n        /* \"#utility.yul\":392:419   */\n      mstore\n        /* \"#utility.yul\":287:426   */\n      pop\n      pop\n      pop\n      jump\t// out\n        /* \"#utility.yul\":432:534   */\n    tag_297:\n        /* \"#utility.yul\":473:479   */\n      0x00\n        /* \"#utility.yul\":524:526   */\n      0x1f\n        /* \"#utility.yul\":520:527   */\n      not\n        /* \"#utility.yul\":515:517   */\n      0x1f\n        /* \"#utility.yul\":508:513   */\n      dup4\n        /* \"#utility.yul\":504:518   */\n      add\n        /* \"#utility.yul\":500:528   */\n      and\n        /* \"#utility.yul\":490:528   */\n      swap1\n      pop\n        /* \"#utility.yul\":432:534   */\n      swap2\n      swap1\n      pop\n      jump\t// out\n        /* \"#utility.yul\":540:917   */\n    tag_298:\n        /* \"#utility.yul\":628:631   */\n      0x00\n        /* \"#utility.yul\":656:695   */\n      tag_334\n        /* \"#utility.yul\":689:694   */\n      dup3\n        /* \"#utility.yul\":656:695   */\n      tag_294\n      jump\t// in\n    tag_334:\n        /* \"#utility.yul\":711:782   */\n      tag_335\n        /* \"#utility.yul\":775:781   */\n      dup2\n        /* \"#utility.yul\":770:773   */\n      dup6\n        /* \"#utility.yul\":711:782   */\n      tag_295\n      jump\t// in\n    tag_335:\n        /* \"#utility.yul\":704:782   */\n      swap4\n      pop\n        /* \"#utility.yul\":791:856   */\n      tag_336\n        /* \"#utility.yul\":849:855   */\n      dup2\n        /* \"#utility.yul\":844:847   */\n      dup6\n        /* \"#utility.yul\":837:841   */\n      0x20\n        /* \"#utility.yul\":830:835   */\n      dup7\n        /* \"#utility.yul\":826:842   */\n      add\n        /* \"#utility.yul\":791:856   */\n      tag_296\n      jump\t// in\n    tag_336:\n        /* \"#utility.yul\":881:910   */\n      tag_337\n        /* \"#utility.yul\":903:909   */\n      dup2\n        /* \"#utility.yul\":881:910   */\n      tag_297\n      jump\t// in\n    tag_337:\n        /* \"#utility.yul\":876:879   */\n      dup5\n        /* \"#utility.yul\":872:911   */\n      add\n        /* \"#utility.yul\":865:911   */\n      swap2\n      pop\n        /* \"#utility.yul\":632:917   */\n      pop\n        /* \"#utility.yul\":540:917   */\n      swap3\n      swap2\n      pop\n      pop\n      jump\t// out\n        /* \"#utility.yul\":923:1236   */\n    tag_31:\n        /* \"#utility.yul\":1036:1040   */\n      0x00\n        /* \"#utility.yul\":1074:1076   */\n      0x20\n        /* \"#utility.yul\":1063:1072   */\n      dup3\n        /* \"#utility.yul\":1059:1077   */\n      add\n        /* \"#utility.yul\":1051:1077   */\n      swap1\n      pop\n        /* \"#utility.yul\":1123:1132   */\n      dup2\n        /* \"#utility.yul\":1117:1121   */\n      dup2\n        /* \"#utility.yul\":1113:1133   */\n      sub\n        /* \"#utility.yul\":1109:1110   */\n      0x00\n        /* \"#utility.yul\":1098:1107   */\n      dup4\n        /* \"#utility.yul\":1094:1111   */\n      add\n        /* \"#utility.yul\":1087:1134   */\n      mstore\n        /* \"#utility.yul\":1151:1229   */\n      tag_339\n        /* \"#utility.yul\":1224:1228   */\n      dup2\n        /* \"#utility.yul\":1215:1221   */\n      dup5\n        /* \"#utility.yul\":1151:1229   */\n      tag_298\n      jump\t// in\n    tag_339:\n        /* \"#utility.yul\":1143:1229   */\n      swap1\n      pop\n        /* \"#utility.yul\":923:1236   */\n      swap3\n      swap2\n      pop\n      pop\n      jump\t// out\n        /* \"#utility.yul\":1323:1440   */\n    tag_300:\n        /* \"#utility.yul\":1432:1433   */\n      0x00\n        /* \"#utility.yul\":1429:1430   */\n      dup1\n        /* \"#utility.yul\":1422:1434   */\n      revert\n        /* \"#utility.yul\":1569:1695   */\n    tag_302:\n        /* \"#utility.yul\":1606:1613   */\n      0x00\n        /* \"#utility.yul\":1646:1688   */\n      0xffffffffffffffffffffffffffffffffffffffff\n        /* \"#utility.yul\":1639:1644   */\n      dup3\n        /* \"#utility.yul\":1635:1689   */\n      and\n        /* \"#utility.yul\":1624:1689   */\n      swap1\n      pop\n        /* \"#utility.yul\":1569:1695   */\n      swap2\n      swap1\n      pop\n      jump\t// out\n        /* \"#utility.yul\":1701:1797   */\n    tag_303:\n        /* \"#utility.yul\":1738:1745   */\n      0x00\n        /* \"#utility.yul\":1767:1791   */\n      tag_345\n        /* \"#utility.yul\":1785:1790   */\n      dup3\n        /* \"#utility.yul\":1767:1791   */\n      tag_302\n      jump\t// in\n    tag_345:\n        /* \"#utility.yul\":1756:1791   */\n      swap1\n      pop\n        /* \"#utility.yul\":1701:1797   */\n      swap2\n      swap1\n      pop\n      jump\t// out\n        /* \"#utility.yul\":1803:1925   */\n    tag_304:\n        /* \"#utility.yul\":1876:1900   */\n      tag_347\n        /* \"#utility.yul\":1894:1899   */\n      dup2\n        /* \"#utility.yul\":1876:1900   */\n      tag_303\n      jump\t// in\n    tag_347:\n        /* \"#utility.yul\":1869:1874   */\n      dup2\n        /* \"#utility.yul\":1866:1901   */\n      eq\n        /* \"#utility.yul\":1856:1919   */\n      tag_348\n      jumpi\n        /* \"#utility.yul\":1915:1916   */\n      0x00\n        /* \"#utility.yul\":1912:1913   */\n      dup1\n        /* \"#utility.yul\":1905:1917   */\n      revert\n        /* \"#utility.yul\":1856:1919   */\n    tag_348:\n        /* \"#utility.yul\":1803:1925   */\n      pop\n      jump\t// out\n        /* \"#utility.yul\":1931:2070   */\n    tag_305:\n        /* \"#utility.yul\":1977:1982   */\n      0x00\n        /* \"#utility.yul\":2015:2021   */\n      dup2\n        /* \"#utility.yul\":2002:2022   */\n      calldataload\n        /* \"#utility.yul\":1993:2022   */\n      swap1\n      pop\n        /* \"#utility.yul\":2031:2064   */\n      tag_350\n        /* \"#utility.yul\":2058:2063   */\n      dup2\n        /* \"#utility.yul\":2031:2064   */\n      tag_304\n      jump\t// in\n    tag_350:\n        /* \"#utility.yul\":1931:2070   */\n      swap3\n      swap2\n      pop\n      pop\n      jump\t// out\n        /* \"#utility.yul\":2076:2153   */\n    tag_306:\n        /* \"#utility.yul\":2113:2120   */\n      0x00\n        /* \"#utility.yul\":2142:2147   */\n      dup2\n        /* \"#utility.yul\":2131:2147   */\n      swap1\n      pop\n        /* \"#utility.yul\":2076:2153   */\n      swap2\n      swap1\n      pop\n      jump\t// out\n        /* \"#utility.yul\":2159:2281   */\n    tag_307:\n        /* \"#utility.yul\":2232:2256   */\n      tag_353\n        /* \"#utility.yul\":2250:2255   */\n      dup2\n        /* \"#utility.yul\":2232:2256   */\n      tag_306\n      jump\t// in\n    tag_353:\n        /* \"#utility.yul\":2225:2230   */\n      dup2\n        /* \"#utility.yul\":2222:2257   */\n      eq\n        /* \"#utility.yul\":2212:2275   */\n      tag_354\n      jumpi\n        /* \"#utility.yul\":2271:2272   */\n      0x00\n        /* \"#utility.yul\":2268:2269   */\n      dup1\n        /* \"#utility.yul\":2261:2273   */\n      revert\n        /* \"#utility.yul\":2212:2275   */\n    tag_354:\n        /* \"#utility.yul\":2159:2281   */\n      pop\n      jump\t// out\n        /* \"#utility.yul\":2287:2426   */\n    tag_308:\n        /* \"#utility.yul\":2333:2338   */\n      0x00\n        /* \"#utility.yul\":2371:2377   */\n      dup2\n        /* \"#utility.yul\":2358:2378   */\n      calldataload\n        /* \"#utility.yul\":2349:2378   */\n      swap1\n      pop\n        /* \"#utility.yul\":2387:2420   */\n      tag_356\n        /* \"#utility.yul\":2414:2419   */\n      dup2\n        /* \"#utility.yul\":2387:2420   */\n      tag_307\n      jump\t// in\n    tag_356:\n        /* \"#utility.yul\":2287:2426   */\n      swap3\n      swap2\n      pop\n      pop\n      jump\t// out\n        /* \"#utility.yul\":2432:2906   */\n    tag_34:\n        /* \"#utility.yul\":2500:2506   */\n      0x00\n        /* \"#utility.yul\":2508:2514   */\n      dup1\n        /* \"#utility.yul\":2557:2559   */\n      0x40\n        /* \"#utility.yul\":2545:2554   */\n      dup4\n        /* \"#utility.yul\":2536:2543   */\n      dup6\n        /* \"#utility.yul\":2532:2555   */\n      sub\n        /* \"#utility.yul\":2528:2560   */\n      slt\n        /* \"#utility.yul\":2525:2644   */\n      iszero\n      tag_358\n      jumpi\n        /* \"#utility.yul\":2563:2642   */\n      tag_359\n      tag_300\n      jump\t// in\n    tag_359:\n        /* \"#utility.yul\":2525:2644   */\n    tag_358:\n        /* \"#utility.yul\":2683:2684   */\n      0x00\n        /* \"#utility.yul\":2708:2761   */\n      tag_360\n        /* \"#utility.yul\":2753:2760   */\n      dup6\n        /* \"#utility.yul\":2744:2750   */\n      dup3\n        /* \"#utility.yul\":2733:2742   */\n      dup7\n        /* \"#utility.yul\":2729:2751   */\n      add\n        /* \"#utility.yul\":2708:2761   */\n      tag_305\n      jump\t// in\n    tag_360:\n        /* \"#utility.yul\":2698:2761   */\n      swap3\n      pop\n        /* \"#utility.yul\":2654:2771   */\n      pop\n        /* \"#utility.yul\":2810:2812   */\n      0x20\n        /* \"#utility.yul\":2836:2889   */\n      tag_361\n        /* \"#utility.yul\":2881:2888   */\n      dup6\n        /* \"#utility.yul\":2872:2878   */\n      dup3\n        /* \"#utility.yul\":2861:2870   */\n      dup7\n        /* \"#utility.yul\":2857:2879   */\n      add\n        /* \"#utility.yul\":2836:2889   */\n      tag_308\n      jump\t// in\n    tag_361:\n        /* \"#utility.yul\":2826:2889   */\n      swap2\n      pop\n        /* \"#utility.yul\":2781:2899   */\n      pop\n        /* \"#utility.yul\":2432:2906   */\n      swap3\n      pop\n      swap3\n      swap1\n      pop\n      jump\t// out\n        /* \"#utility.yul\":2912:3002   */\n    tag_309:\n        /* \"#utility.yul\":2946:2953   */\n      0x00\n        /* \"#utility.yul\":2989:2994   */\n      dup2\n        /* \"#utility.yul\":2982:2995   */\n      iszero\n        /* \"#utility.yul\":2975:2996   */\n      iszero\n        /* \"#utility.yul\":2964:2996   */\n      swap1\n      pop\n        /* \"#utility.yul\":2912:3002   */\n      swap2\n      swap1\n      pop\n      jump\t// out\n        /* \"#utility.yul\":3008:3117   */\n    tag_310:\n        /* \"#utility.yul\":3089:3110   */\n      tag_364\n        /* \"#utility.yul\":3104:3109   */\n      dup2\n        /* \"#utility.yul\":3089:3110   */\n      tag_309\n      jump\t// in\n    tag_364:\n        /* \"#utility.yul\":3084:3087   */\n      dup3\n        /* \"#utility.yul\":3077:3111   */\n      mstore\n        /* \"#utility.yul\":3008:3117   */\n      pop\n      pop\n      jump\t// out\n        /* \"#utility.yul\":3123:3333   */\n    tag_37:\n        /* \"#utility.yul\":3210:3214   */\n      0x00\n        /* \"#utility.yul\":3248:3250   */\n      0x20\n        /* \"#utility.yul\":3237:3246   */\n      dup3\n        /* \"#utility.yul\":3233:3251   */\n      add\n        /* \"#utility.yul\":3225:3251   */\n      swap1\n      pop\n        /* \"#utility.yul\":3261:3326   */\n      tag_366\n        /* \"#utility.yul\":3323:3324   */\n      0x00\n        /* \"#utility.yul\":3312:3321   */\n      dup4\n        /* \"#utility.yul\":3308:3325   */\n      add\n        /* \"#utility.yul\":3299:3305   */\n      dup5\n        /* \"#utility.yul\":3261:3326   */\n      tag_310\n      jump\t// in\n    tag_366:\n        /* \"#utility.yul\":3123:3333   */\n      swap3\n      swap2\n      pop\n      pop\n      jump\t// out\n        /* \"#utility.yul\":3339:3457   */\n    tag_311:\n        /* \"#utility.yul\":3426:3450   */\n      tag_368\n        /* \"#utility.yul\":3444:3449   */\n      dup2\n        /* \"#utility.yul\":3426:3450   */\n      tag_306\n      jump\t// in\n    tag_368:\n        /* \"#utility.yul\":3421:3424   */\n      dup3\n        /* \"#utility.yul\":3414:3451   */\n      mstore\n        /* \"#utility.yul\":3339:3457   */\n      pop\n      pop\n      jump\t// out\n        /* \"#utility.yul\":3463:3685   */\n    tag_41:\n        /* \"#utility.yul\":3556:3560   */\n      0x00\n        /* \"#utility.yul\":3594:3596   */\n      0x20\n        /* \"#utility.yul\":3583:3592   */\n      dup3\n        /* \"#utility.yul\":3579:3597   */\n      add\n        /* \"#utility.yul\":3571:3597   */\n      swap1\n      pop\n        /* \"#utility.yul\":3607:3678   */\n      tag_370\n        /* \"#utility.yul\":3675:3676   */\n      0x00\n        /* \"#utility.yul\":3664:3673   */\n      dup4\n        /* \"#utility.yul\":3660:3677   */\n      add\n        /* \"#utility.yul\":3651:3657   */\n      dup5\n        /* \"#utility.yul\":3607:3678   */\n      tag_311\n      jump\t// in\n    tag_370:\n        /* \"#utility.yul\":3463:3685   */\n      swap3\n      swap2\n      pop\n      pop\n      jump\t// out\n        /* \"#utility.yul\":3691:4020   */\n    tag_44:\n        /* \"#utility.yul\":3750:3756   */\n      0x00\n        /* \"#utility.yul\":3799:3801   */\n      0x20\n        /* \"#utility.yul\":3787:3796   */\n      dup3\n        /* \"#utility.yul\":3778:3785   */\n      dup5\n        /* \"#utility.yul\":3774:3797   */\n      sub\n        /* \"#utility.yul\":3770:3802   */\n      slt\n        /* \"#utility.yul\":3767:3886   */\n      iszero\n      tag_372\n      jumpi\n        /* \"#utility.yul\":3805:3884   */\n      tag_373\n      tag_300\n      jump\t// in\n    tag_373:\n        /* \"#utility.yul\":3767:3886   */\n    tag_372:\n        /* \"#utility.yul\":3925:3926   */\n      0x00\n        /* \"#utility.yul\":3950:4003   */\n      tag_374\n        /* \"#utility.yul\":3995:4002   */\n      dup5\n        /* \"#utility.yul\":3986:3992   */\n      dup3\n        /* \"#utility.yul\":3975:3984   */\n      dup6\n        /* \"#utility.yul\":3971:3993   */\n      add\n        /* \"#utility.yul\":3950:4003   */\n      tag_308\n      jump\t// in\n    tag_374:\n        /* \"#utility.yul\":3940:4003   */\n      swap2\n      pop\n        /* \"#utility.yul\":3896:4013   */\n      pop\n        /* \"#utility.yul\":3691:4020   */\n      swap3\n      swap2\n      pop\n      pop\n      jump\t// out\n        /* \"#utility.yul\":4026:4645   */\n    tag_48:\n        /* \"#utility.yul\":4103:4109   */\n      0x00\n        /* \"#utility.yul\":4111:4117   */\n      dup1\n        /* \"#utility.yul\":4119:4125   */\n      0x00\n        /* \"#utility.yul\":4168:4170   */\n      0x60\n        /* \"#utility.yul\":4156:4165   */\n      dup5\n        /* \"#utility.yul\":4147:4154   */\n      dup7\n        /* \"#utility.yul\":4143:4166   */\n      sub\n        /* \"#utility.yul\":4139:4171   */\n      slt\n        /* \"#utility.yul\":4136:4255   */\n      iszero\n      tag_376\n      jumpi\n        /* \"#utility.yul\":4174:4253   */\n      tag_377\n      tag_300\n      jump\t// in\n    tag_377:\n        /* \"#utility.yul\":4136:4255   */\n    tag_376:\n        /* \"#utility.yul\":4294:4295   */\n      0x00\n        /* \"#utility.yul\":4319:4372   */\n      tag_378\n        /* \"#utility.yul\":4364:4371   */\n      dup7\n        /* \"#utility.yul\":4355:4361   */\n      dup3\n        /* \"#utility.yul\":4344:4353   */\n      dup8\n        /* \"#utility.yul\":4340:4362   */\n      add\n        /* \"#utility.yul\":4319:4372   */\n      tag_305\n      jump\t// in\n    tag_378:\n        /* \"#utility.yul\":4309:4372   */\n      swap4\n      pop\n        /* \"#utility.yul\":4265:4382   */\n      pop\n        /* \"#utility.yul\":4421:4423   */\n      0x20\n        /* \"#utility.yul\":4447:4500   */\n      tag_379\n        /* \"#utility.yul\":4492:4499   */\n      dup7\n        /* \"#utility.yul\":4483:4489   */\n      dup3\n        /* \"#utility.yul\":4472:4481   */\n      dup8\n        /* \"#utility.yul\":4468:4490   */\n      add\n        /* \"#utility.yul\":4447:4500   */\n      tag_305\n      jump\t// in\n    tag_379:\n        /* \"#utility.yul\":4437:4500   */\n      swap3\n      pop\n        /* \"#utility.yul\":4392:4510   */\n      pop\n        /* \"#utility.yul\":4549:4551   */\n      0x40\n        /* \"#utility.yul\":4575:4628   */\n      tag_380\n        /* \"#utility.yul\":4620:4627   */\n      dup7\n        /* \"#utility.yul\":4611:4617   */\n      dup3\n        /* \"#utility.yul\":4600:4609   */\n      dup8\n        /* \"#utility.yul\":4596:4618   */\n      add\n        /* \"#utility.yul\":4575:4628   */\n      tag_308\n      jump\t// in\n    tag_380:\n        /* \"#utility.yul\":4565:4628   */\n      swap2\n      pop\n        /* \"#utility.yul\":4520:4638   */\n      pop\n        /* \"#utility.yul\":4026:4645   */\n      swap3\n      pop\n      swap3\n      pop\n      swap3\n      jump\t// out\n        /* \"#utility.yul\":4651:4737   */\n    tag_312:\n        /* \"#utility.yul\":4686:4693   */\n      0x00\n        /* \"#utility.yul\":4726:4730   */\n      0xff\n        /* \"#utility.yul\":4719:4724   */\n      dup3\n        /* \"#utility.yul\":4715:4731   */\n      and\n        /* \"#utility.yul\":4704:4731   */\n      swap1\n      pop\n        /* \"#utility.yul\":4651:4737   */\n      swap2\n      swap1\n      pop\n      jump\t// out\n        /* \"#utility.yul\":4743:4855   */\n    tag_313:\n        /* \"#utility.yul\":4826:4848   */\n      tag_383\n        /* \"#utility.yul\":4842:4847   */\n      dup2\n        /* \"#utility.yul\":4826:4848   */\n      tag_312\n      jump\t// in\n    tag_383:\n        /* \"#utility.yul\":4821:4824   */\n      dup3\n        /* \"#utility.yul\":4814:4849   */\n      mstore\n        /* \"#utility.yul\":4743:4855   */\n      pop\n      pop\n      jump\t// out\n        /* \"#utility.yul\":4861:5075   */\n    tag_57:\n        /* \"#utility.yul\":4950:4954   */\n      0x00\n        /* \"#utility.yul\":4988:4990   */\n      0x20\n        /* \"#utility.yul\":4977:4986   */\n      dup3\n        /* \"#utility.yul\":4973:4991   */\n      add\n        /* \"#utility.yul\":4965:4991   */\n      swap1\n      pop\n        /* \"#utility.yul\":5001:5068   */\n      tag_385\n        /* \"#utility.yul\":5065:5066   */\n      0x00\n        /* \"#utility.yul\":5054:5063   */\n      dup4\n        /* \"#utility.yul\":5050:5067   */\n      add\n        /* \"#utility.yul\":5041:5047   */\n      dup5\n        /* \"#utility.yul\":5001:5068   */\n      tag_313\n      jump\t// in\n    tag_385:\n        /* \"#utility.yul\":4861:5075   */\n      swap3\n      swap2\n      pop\n      pop\n      jump\t// out\n        /* \"#utility.yul\":5081:5410   */\n    tag_69:\n        /* \"#utility.yul\":5140:5146   */\n      0x00\n        /* \"#utility.yul\":5189:5191   */\n      0x20\n        /* \"#utility.yul\":5177:5186   */\n      dup3\n        /* \"#utility.yul\":5168:5175   */\n      dup5\n        /* \"#utility.yul\":5164:5187   */\n      sub\n        /* \"#utility.yul\":5160:5192   */\n      slt\n        /* \"#utility.yul\":5157:5276   */\n      iszero\n      tag_387\n      jumpi\n        /* \"#utility.yul\":5195:5274   */\n      tag_388\n      tag_300\n      jump\t// in\n    tag_388:\n        /* \"#utility.yul\":5157:5276   */\n    tag_387:\n        /* \"#utility.yul\":5315:5316   */\n      0x00\n        /* \"#utility.yul\":5340:5393   */\n      tag_389\n        /* \"#utility.yul\":5385:5392   */\n      dup5\n        /* \"#utility.yul\":5376:5382   */\n      dup3\n        /* \"#utility.yul\":5365:5374   */\n      dup6\n        /* \"#utility.yul\":5361:5383   */\n      add\n        /* \"#utility.yul\":5340:5393   */\n      tag_305\n      jump\t// in\n    tag_389:\n        /* \"#utility.yul\":5330:5393   */\n      swap2\n      pop\n        /* \"#utility.yul\":5286:5403   */\n      pop\n        /* \"#utility.yul\":5081:5410   */\n      swap3\n      swap2\n      pop\n      pop\n      jump\t// out\n        /* \"#utility.yul\":5416:5534   */\n    tag_314:\n        /* \"#utility.yul\":5503:5527   */\n      tag_391\n        /* \"#utility.yul\":5521:5526   */\n      dup2\n        /* \"#utility.yul\":5503:5527   */\n      tag_303\n      jump\t// in\n    tag_391:\n        /* \"#utility.yul\":5498:5501   */\n      dup3\n        /* \"#utility.yul\":5491:5528   */\n      mstore\n        /* \"#utility.yul\":5416:5534   */\n      pop\n      pop\n      jump\t// out\n        /* \"#utility.yul\":5540:5762   */\n    tag_80:\n        /* \"#utility.yul\":5633:5637   */\n      0x00\n        /* \"#utility.yul\":5671:5673   */\n      0x20\n        /* \"#utility.yul\":5660:5669   */\n      dup3\n        /* \"#utility.yul\":5656:5674   */\n      add\n        /* \"#utility.yul\":5648:5674   */\n      swap1\n      pop\n        /* \"#utility.yul\":5684:5755   */\n      tag_393\n        /* \"#utility.yul\":5752:5753   */\n      0x00\n        /* \"#utility.yul\":5741:5750   */\n      dup4\n        /* \"#utility.yul\":5737:5754   */\n      add\n        /* \"#utility.yul\":5728:5734   */\n      dup5\n        /* \"#utility.yul\":5684:5755   */\n      tag_314\n      jump\t// in\n    tag_393:\n        /* \"#utility.yul\":5540:5762   */\n      swap3\n      swap2\n      pop\n      pop\n      jump\t// out\n        /* \"#utility.yul\":5768:6242   */\n    tag_100:\n        /* \"#utility.yul\":5836:5842   */\n      0x00\n        /* \"#utility.yul\":5844:5850   */\n      dup1\n        /* \"#utility.yul\":5893:5895   */\n      0x40\n        /* \"#utility.yul\":5881:5890   */\n      dup4\n        /* \"#utility.yul\":5872:5879   */\n      dup6\n        /* \"#utility.yul\":5868:5891   */\n      sub\n        /* \"#utility.yul\":5864:5896   */\n      slt\n        /* \"#utility.yul\":5861:5980   */\n      iszero\n      tag_395\n      jumpi\n        /* \"#utility.yul\":5899:5978   */\n      tag_396\n      tag_300\n      jump\t// in\n    tag_396:\n        /* \"#utility.yul\":5861:5980   */\n    tag_395:\n        /* \"#utility.yul\":6019:6020   */\n      0x00\n        /* \"#utility.yul\":6044:6097   */\n      tag_397\n        /* \"#utility.yul\":6089:6096   */\n      dup6\n        /* \"#utility.yul\":6080:6086   */\n      dup3\n        /* \"#utility.yul\":6069:6078   */\n      dup7\n        /* \"#utility.yul\":6065:6087   */\n      add\n        /* \"#utility.yul\":6044:6097   */\n      tag_305\n      jump\t// in\n    tag_397:\n        /* \"#utility.yul\":6034:6097   */\n      swap3\n      pop\n        /* \"#utility.yul\":5990:6107   */\n      pop\n        /* \"#utility.yul\":6146:6148   */\n      0x20\n        /* \"#utility.yul\":6172:6225   */\n      tag_398\n        /* \"#utility.yul\":6217:6224   */\n      dup6\n        /* \"#utility.yul\":6208:6214   */\n      dup3\n        /* \"#utility.yul\":6197:6206   */\n      dup7\n        /* \"#utility.yul\":6193:6215   */\n      add\n        /* \"#utility.yul\":6172:6225   */\n      tag_305\n      jump\t// in\n    tag_398:\n        /* \"#utility.yul\":6162:6225   */\n      swap2\n      pop\n        /* \"#utility.yul\":6117:6235   */\n      pop\n        /* \"#utility.yul\":5768:6242   */\n      swap3\n      pop\n      swap3\n      swap1\n      pop\n      jump\t// out\n        /* \"#utility.yul\":6248:6428   */\n    tag_315:\n        /* \"#utility.yul\":6296:6373   */\n      0x4e487b7100000000000000000000000000000000000000000000000000000000\n        /* \"#utility.yul\":6293:6294   */\n      0x00\n        /* \"#utility.yul\":6286:6374   */\n      mstore\n        /* \"#utility.yul\":6393:6397   */\n      0x22\n        /* \"#utility.yul\":6390:6391   */\n      0x04\n        /* \"#utility.yul\":6383:6398   */\n      mstore\n        /* \"#utility.yul\":6417:6421   */\n      0x24\n        /* \"#utility.yul\":6414:6415   */\n      0x00\n        /* \"#utility.yul\":6407:6422   */\n      revert\n        /* \"#utility.yul\":6434:6754   */\n    tag_111:\n        /* \"#utility.yul\":6478:6484   */\n      0x00\n        /* \"#utility.yul\":6515:6516   */\n      0x02\n        /* \"#utility.yul\":6509:6513   */\n      dup3\n        /* \"#utility.yul\":6505:6517   */\n      div\n        /* \"#utility.yul\":6495:6517   */\n      swap1\n      pop\n        /* \"#utility.yul\":6562:6563   */\n      0x01\n        /* \"#utility.yul\":6556:6560   */\n      dup3\n        /* \"#utility.yul\":6552:6564   */\n      and\n        /* \"#utility.yul\":6583:6601   */\n      dup1\n        /* \"#utility.yul\":6573:6654   */\n      tag_401\n      jumpi\n        /* \"#utility.yul\":6639:6643   */\n      0x7f\n        /* \"#utility.yul\":6631:6637   */\n      dup3\n        /* \"#utility.yul\":6627:6644   */\n      and\n        /* \"#utility.yul\":6617:6644   */\n      swap2\n      pop\n        /* \"#utility.yul\":6573:6654   */\n    tag_401:\n        /* \"#utility.yul\":6701:6703   */\n      0x20\n        /* \"#utility.yul\":6693:6699   */\n      dup3\n        /* \"#utility.yul\":6690:6704   */\n      lt\n        /* \"#utility.yul\":6670:6688   */\n      dup2\n        /* \"#utility.yul\":6667:6705   */\n      sub\n        /* \"#utility.yul\":6664:6748   */\n      tag_402\n      jumpi\n        /* \"#utility.yul\":6720:6738   */\n      tag_403\n      tag_315\n      jump\t// in\n    tag_403:\n        /* \"#utility.yul\":6664:6748   */\n    tag_402:\n        /* \"#utility.yul\":6485:6754   */\n      pop\n        /* \"#utility.yul\":6434:6754   */\n      swap2\n      swap1\n      pop\n      jump\t// out\n        /* \"#utility.yul\":6760:6930   */\n    tag_316:\n        /* \"#utility.yul\":6900:6922   */\n      0x496e73756666696369656e742062616c616e6365000000000000000000000000\n        /* \"#utility.yul\":6896:6897   */\n      0x00\n        /* \"#utility.yul\":6888:6894   */\n      dup3\n        /* \"#utility.yul\":6884:6898   */\n      add\n        /* \"#utility.yul\":6877:6923   */\n      mstore\n        /* \"#utility.yul\":6760:6930   */\n      pop\n      jump\t// out\n        /* \"#utility.yul\":6936:7302   */\n    tag_317:\n        /* \"#utility.yul\":7078:7081   */\n      0x00\n        /* \"#utility.yul\":7099:7166   */\n      tag_406\n        /* \"#utility.yul\":7163:7165   */\n      0x14\n        /* \"#utility.yul\":7158:7161   */\n      dup4\n        /* \"#utility.yul\":7099:7166   */\n      tag_295\n      jump\t// in\n    tag_406:\n        /* \"#utility.yul\":7092:7166   */\n      swap2\n      pop\n        /* \"#utility.yul\":7175:7268   */\n      tag_407\n        /* \"#utility.yul\":7264:7267   */\n      dup3\n        /* \"#utility.yul\":7175:7268   */\n      tag_316\n      jump\t// in\n    tag_407:\n        /* \"#utility.yul\":7293:7295   */\n      0x20\n        /* \"#utility.yul\":7288:7291   */\n      dup3\n        /* \"#utility.yul\":7284:7296   */\n      add\n        /* \"#utility.yul\":7277:7296   */\n      swap1\n      pop\n        /* \"#utility.yul\":6936:7302   */\n      swap2\n      swap1\n      pop\n      jump\t// out\n        /* \"#utility.yul\":7308:7727   */\n    tag_132:\n        /* \"#utility.yul\":7474:7478   */\n      0x00\n        /* \"#utility.yul\":7512:7514   */\n      0x20\n        /* \"#utility.yul\":7501:7510   */\n      dup3\n        /* \"#utility.yul\":7497:7515   */\n      add\n        /* \"#utility.yul\":7489:7515   */\n      swap1\n      pop\n        /* \"#utility.yul\":7561:7570   */\n      dup2\n        /* \"#utility.yul\":7555:7559   */\n      dup2\n        /* \"#utility.yul\":7551:7571   */\n      sub\n        /* \"#utility.yul\":7547:7548   */\n      0x00\n        /* \"#utility.yul\":7536:7545   */\n      dup4\n        /* \"#utility.yul\":7532:7549   */\n      add\n        /* \"#utility.yul\":7525:7572   */\n      mstore\n        /* \"#utility.yul\":7589:7720   */\n      tag_409\n        /* \"#utility.yul\":7715:7719   */\n      dup2\n        /* \"#utility.yul\":7589:7720   */\n      tag_317\n      jump\t// in\n    tag_409:\n        /* \"#utility.yul\":7581:7720   */\n      swap1\n      pop\n        /* \"#utility.yul\":7308:7727   */\n      swap2\n      swap1\n      pop\n      jump\t// out\n        /* \"#utility.yul\":7733:7913   */\n    tag_318:\n        /* \"#utility.yul\":7781:7858   */\n      0x4e487b7100000000000000000000000000000000000000000000000000000000\n        /* \"#utility.yul\":7778:7779   */\n      0x00\n        /* \"#utility.yul\":7771:7859   */\n      mstore\n        /* \"#utility.yul\":7878:7882   */\n      0x11\n        /* \"#utility.yul\":7875:7876   */\n      0x04\n        /* \"#utility.yul\":7868:7883   */\n      mstore\n        /* \"#utility.yul\":7902:7906   */\n      0x24\n        /* \"#utility.yul\":7899:7900   */\n      0x00\n        /* \"#utility.yul\":7892:7907   */\n      revert\n        /* \"#utility.yul\":7919:8113   */\n    tag_135:\n        /* \"#utility.yul\":7959:7963   */\n      0x00\n        /* \"#utility.yul\":7979:7999   */\n      tag_412\n        /* \"#utility.yul\":7997:7998   */\n      dup3\n        /* \"#utility.yul\":7979:7999   */\n      tag_306\n      jump\t// in\n    tag_412:\n        /* \"#utility.yul\":7974:7999   */\n      swap2\n      pop\n        /* \"#utility.yul\":8013:8033   */\n      tag_413\n        /* \"#utility.yul\":8031:8032   */\n      dup4\n        /* \"#utility.yul\":8013:8033   */\n      tag_306\n      jump\t// in\n    tag_413:\n        /* \"#utility.yul\":8008:8033   */\n      swap3\n      pop\n        /* \"#utility.yul\":8057:8058   */\n      dup3\n        /* \"#utility.yul\":8054:8055   */\n      dup3\n        /* \"#utility.yul\":8050:8059   */\n      sub\n        /* \"#utility.yul\":8042:8059   */\n      swap1\n      pop\n        /* \"#utility.yul\":8081:8082   */\n      dup2\n        /* \"#utility.yul\":8075:8079   */\n      dup2\n        /* \"#utility.yul\":8072:8083   */\n      gt\n        /* \"#utility.yul\":8069:8106   */\n      iszero\n      tag_414\n      jumpi\n        /* \"#utility.yul\":8086:8104   */\n      tag_415\n      tag_318\n      jump\t// in\n    tag_415:\n        /* \"#utility.yul\":8069:8106   */\n    tag_414:\n        /* \"#utility.yul\":7919:8113   */\n      swap3\n      swap2\n      pop\n      pop\n      jump\t// out\n        /* \"#utility.yul\":8119:8310   */\n    tag_157:\n        /* \"#utility.yul\":8159:8162   */\n      0x00\n        /* \"#utility.yul\":8178:8198   */\n      tag_417\n        /* \"#utility.yul\":8196:8197   */\n      dup3\n        /* \"#utility.yul\":8178:8198   */\n      tag_306\n      jump\t// in\n    tag_417:\n        /* \"#utility.yul\":8173:8198   */\n      swap2\n      pop\n        /* \"#utility.yul\":8212:8232   */\n      tag_418\n        /* \"#utility.yul\":8230:8231   */\n      dup4\n        /* \"#utility.yul\":8212:8232   */\n      tag_306\n      jump\t// in\n    tag_418:\n        /* \"#utility.yul\":8207:8232   */\n      swap3\n      pop\n        /* \"#utility.yul\":8255:8256   */\n      dup3\n        /* \"#utility.yul\":8252:8253   */\n      dup3\n        /* \"#utility.yul\":8248:8257   */\n      add\n        /* \"#utility.yul\":8241:8257   */\n      swap1\n      pop\n        /* \"#utility.yul\":8276:8279   */\n      dup1\n        /* \"#utility.yul\":8273:8274   */\n      dup3\n        /* \"#utility.yul\":8270:8280   */\n      gt\n        /* \"#utility.yul\":8267:8303   */\n      iszero\n      tag_419\n      jumpi\n        /* \"#utility.yul\":8283:8301   */\n      tag_420\n      tag_318\n      jump\t// in\n    tag_420:\n        /* \"#utility.yul\":8267:8303   */\n    tag_419:\n        /* \"#utility.yul\":8119:8310   */\n      swap3\n      swap2\n      pop\n      pop\n      jump\t// out\n        /* \"#utility.yul\":8316:8610   */\n    tag_319:\n        /* \"#utility.yul\":8456:8490   */\n      0x4c6971756964697479206d7573742062652070726f766964656420666f722061\n        /* \"#utility.yul\":8452:8453   */\n      0x00\n        /* \"#utility.yul\":8444:8450   */\n      dup3\n        /* \"#utility.yul\":8440:8454   */\n      add\n        /* \"#utility.yul\":8433:8491   */\n      mstore\n        /* \"#utility.yul\":8525:8559   */\n      0x74206c65617374203330206461797320746f207175616c69667920666f722072\n        /* \"#utility.yul\":8520:8522   */\n      0x20\n        /* \"#utility.yul\":8512:8518   */\n      dup3\n        /* \"#utility.yul\":8508:8523   */\n      add\n        /* \"#utility.yul\":8501:8560   */\n      mstore\n        /* \"#utility.yul\":8594:8602   */\n      0x6577617264730000000000000000000000000000000000000000000000000000\n        /* \"#utility.yul\":8589:8591   */\n      0x40\n        /* \"#utility.yul\":8581:8587   */\n      dup3\n        /* \"#utility.yul\":8577:8592   */\n      add\n        /* \"#utility.yul\":8570:8603   */\n      mstore\n        /* \"#utility.yul\":8316:8610   */\n      pop\n      jump\t// out\n        /* \"#utility.yul\":8616:8982   */\n    tag_320:\n        /* \"#utility.yul\":8758:8761   */\n      0x00\n        /* \"#utility.yul\":8779:8846   */\n      tag_423\n        /* \"#utility.yul\":8843:8845   */\n      0x46\n        /* \"#utility.yul\":8838:8841   */\n      dup4\n        /* \"#utility.yul\":8779:8846   */\n      tag_295\n      jump\t// in\n    tag_423:\n        /* \"#utility.yul\":8772:8846   */\n      swap2\n      pop\n        /* \"#utility.yul\":8855:8948   */\n      tag_424\n        /* \"#utility.yul\":8944:8947   */\n      dup3\n        /* \"#utility.yul\":8855:8948   */\n      tag_319\n      jump\t// in\n    tag_424:\n        /* \"#utility.yul\":8973:8975   */\n      0x60\n        /* \"#utility.yul\":8968:8971   */\n      dup3\n        /* \"#utility.yul\":8964:8976   */\n      add\n        /* \"#utility.yul\":8957:8976   */\n      swap1\n      pop\n        /* \"#utility.yul\":8616:8982   */\n      swap2\n      swap1\n      pop\n      jump\t// out\n        /* \"#utility.yul\":8988:9407   */\n    tag_194:\n        /* \"#utility.yul\":9154:9158   */\n      0x00\n        /* \"#utility.yul\":9192:9194   */\n      0x20\n        /* \"#utility.yul\":9181:9190   */\n      dup3\n        /* \"#utility.yul\":9177:9195   */\n      add\n        /* \"#utility.yul\":9169:9195   */\n      swap1\n      pop\n        /* \"#utility.yul\":9241:9250   */\n      dup2\n        /* \"#utility.yul\":9235:9239   */\n      dup2\n        /* \"#utility.yul\":9231:9251   */\n      sub\n        /* \"#utility.yul\":9227:9228   */\n      0x00\n        /* \"#utility.yul\":9216:9225   */\n      dup4\n        /* \"#utility.yul\":9212:9229   */\n      add\n        /* \"#utility.yul\":9205:9252   */\n      mstore\n        /* \"#utility.yul\":9269:9400   */\n      tag_426\n        /* \"#utility.yul\":9395:9399   */\n      dup2\n        /* \"#utility.yul\":9269:9400   */\n      tag_320\n      jump\t// in\n    tag_426:\n        /* \"#utility.yul\":9261:9400   */\n      swap1\n      pop\n        /* \"#utility.yul\":8988:9407   */\n      swap2\n      swap1\n      pop\n      jump\t// out\n        /* \"#utility.yul\":9413:9588   */\n    tag_321:\n        /* \"#utility.yul\":9553:9580   */\n      0x5265776172642065786365656473206d617820737570706c7900000000000000\n        /* \"#utility.yul\":9549:9550   */\n      0x00\n        /* \"#utility.yul\":9541:9547   */\n      dup3\n        /* \"#utility.yul\":9537:9551   */\n      add\n        /* \"#utility.yul\":9530:9581   */\n      mstore\n        /* \"#utility.yul\":9413:9588   */\n      pop\n      jump\t// out\n        /* \"#utility.yul\":9594:9960   */\n    tag_322:\n        /* \"#utility.yul\":9736:9739   */\n      0x00\n        /* \"#utility.yul\":9757:9824   */\n      tag_429\n        /* \"#utility.yul\":9821:9823   */\n      0x19\n        /* \"#utility.yul\":9816:9819   */\n      dup4\n        /* \"#utility.yul\":9757:9824   */\n      tag_295\n      jump\t// in\n    tag_429:\n        /* \"#utility.yul\":9750:9824   */\n      swap2\n      pop\n        /* \"#utility.yul\":9833:9926   */\n      tag_430\n        /* \"#utility.yul\":9922:9925   */\n      dup3\n        /* \"#utility.yul\":9833:9926   */\n      tag_321\n      jump\t// in\n    tag_430:\n        /* \"#utility.yul\":9951:9953   */\n      0x20\n        /* \"#utility.yul\":9946:9949   */\n      dup3\n        /* \"#utility.yul\":9942:9954   */\n      add\n        /* \"#utility.yul\":9935:9954   */\n      swap1\n      pop\n        /* \"#utility.yul\":9594:9960   */\n      swap2\n      swap1\n      pop\n      jump\t// out\n        /* \"#utility.yul\":9966:10385   */\n    tag_200:\n        /* \"#utility.yul\":10132:10136   */\n      0x00\n        /* \"#utility.yul\":10170:10172   */\n      0x20\n        /* \"#utility.yul\":10159:10168   */\n      dup3\n        /* \"#utility.yul\":10155:10173   */\n      add\n        /* \"#utility.yul\":10147:10173   */\n      swap1\n      pop\n        /* \"#utility.yul\":10219:10228   */\n      dup2\n        /* \"#utility.yul\":10213:10217   */\n      dup2\n        /* \"#utility.yul\":10209:10229   */\n      sub\n        /* \"#utility.yul\":10205:10206   */\n      0x00\n        /* \"#utility.yul\":10194:10203   */\n      dup4\n        /* \"#utility.yul\":10190:10207   */\n      add\n        /* \"#utility.yul\":10183:10230   */\n      mstore\n        /* \"#utility.yul\":10247:10378   */\n      tag_432\n        /* \"#utility.yul\":10373:10377   */\n      dup2\n        /* \"#utility.yul\":10247:10378   */\n      tag_322\n      jump\t// in\n    tag_432:\n        /* \"#utility.yul\":10239:10378   */\n      swap1\n      pop\n        /* \"#utility.yul\":9966:10385   */\n      swap2\n      swap1\n      pop\n      jump\t// out\n        /* \"#utility.yul\":10391:10801   */\n    tag_213:\n        /* \"#utility.yul\":10431:10438   */\n      0x00\n        /* \"#utility.yul\":10454:10474   */\n      tag_434\n        /* \"#utility.yul\":10472:10473   */\n      dup3\n        /* \"#utility.yul\":10454:10474   */\n      tag_306\n      jump\t// in\n    tag_434:\n        /* \"#utility.yul\":10449:10474   */\n      swap2\n      pop\n        /* \"#utility.yul\":10488:10508   */\n      tag_435\n        /* \"#utility.yul\":10506:10507   */\n      dup4\n        /* \"#utility.yul\":10488:10508   */\n      tag_306\n      jump\t// in\n    tag_435:\n        /* \"#utility.yul\":10483:10508   */\n      swap3\n      pop\n        /* \"#utility.yul\":10543:10544   */\n      dup3\n        /* \"#utility.yul\":10540:10541   */\n      dup3\n        /* \"#utility.yul\":10536:10545   */\n      mul\n        /* \"#utility.yul\":10565:10595   */\n      tag_436\n        /* \"#utility.yul\":10583:10594   */\n      dup2\n        /* \"#utility.yul\":10565:10595   */\n      tag_306\n      jump\t// in\n    tag_436:\n        /* \"#utility.yul\":10554:10595   */\n      swap2\n      pop\n        /* \"#utility.yul\":10744:10745   */\n      dup3\n        /* \"#utility.yul\":10735:10742   */\n      dup3\n        /* \"#utility.yul\":10731:10746   */\n      div\n        /* \"#utility.yul\":10728:10729   */\n      dup5\n        /* \"#utility.yul\":10725:10747   */\n      eq\n        /* \"#utility.yul\":10705:10706   */\n      dup4\n        /* \"#utility.yul\":10698:10707   */\n      iszero\n        /* \"#utility.yul\":10678:10761   */\n      or\n        /* \"#utility.yul\":10655:10794   */\n      tag_437\n      jumpi\n        /* \"#utility.yul\":10774:10792   */\n      tag_438\n      tag_318\n      jump\t// in\n    tag_438:\n        /* \"#utility.yul\":10655:10794   */\n    tag_437:\n        /* \"#utility.yul\":10439:10801   */\n      pop\n        /* \"#utility.yul\":10391:10801   */\n      swap3\n      swap2\n      pop\n      pop\n      jump\t// out\n        /* \"#utility.yul\":10807:10987   */\n    tag_323:\n        /* \"#utility.yul\":10855:10932   */\n      0x4e487b7100000000000000000000000000000000000000000000000000000000\n        /* \"#utility.yul\":10852:10853   */\n      0x00\n        /* \"#utility.yul\":10845:10933   */\n      mstore\n        /* \"#utility.yul\":10952:10956   */\n      0x12\n        /* \"#utility.yul\":10949:10950   */\n      0x04\n        /* \"#utility.yul\":10942:10957   */\n      mstore\n        /* \"#utility.yul\":10976:10980   */\n      0x24\n        /* \"#utility.yul\":10973:10974   */\n      0x00\n        /* \"#utility.yul\":10966:10981   */\n      revert\n        /* \"#utility.yul\":10993:11178   */\n    tag_215:\n        /* \"#utility.yul\":11033:11034   */\n      0x00\n        /* \"#utility.yul\":11050:11070   */\n      tag_441\n        /* \"#utility.yul\":11068:11069   */\n      dup3\n        /* \"#utility.yul\":11050:11070   */\n      tag_306\n      jump\t// in\n    tag_441:\n        /* \"#utility.yul\":11045:11070   */\n      swap2\n      pop\n        /* \"#utility.yul\":11084:11104   */\n      tag_442\n        /* \"#utility.yul\":11102:11103   */\n      dup4\n        /* \"#utility.yul\":11084:11104   */\n      tag_306\n      jump\t// in\n    tag_442:\n        /* \"#utility.yul\":11079:11104   */\n      swap3\n      pop\n        /* \"#utility.yul\":11123:11124   */\n      dup3\n        /* \"#utility.yul\":11113:11148   */\n      tag_443\n      jumpi\n        /* \"#utility.yul\":11128:11146   */\n      tag_444\n      tag_323\n      jump\t// in\n    tag_444:\n        /* \"#utility.yul\":11113:11148   */\n    tag_443:\n        /* \"#utility.yul\":11170:11171   */\n      dup3\n        /* \"#utility.yul\":11167:11168   */\n      dup3\n        /* \"#utility.yul\":11163:11172   */\n      div\n        /* \"#utility.yul\":11158:11172   */\n      swap1\n      pop\n        /* \"#utility.yul\":10993:11178   */\n      swap3\n      swap2\n      pop\n      pop\n      jump\t// out\n        /* \"#utility.yul\":11184:11365   */\n    tag_324:\n        /* \"#utility.yul\":11324:11357   */\n      0x5265656e7472616e637947756172643a207265656e7472616e742063616c6c00\n        /* \"#utility.yul\":11320:11321   */\n      0x00\n        /* \"#utility.yul\":11312:11318   */\n      dup3\n        /* \"#utility.yul\":11308:11322   */\n      add\n        /* \"#utility.yul\":11301:11358   */\n      mstore\n        /* \"#utility.yul\":11184:11365   */\n      pop\n      jump\t// out\n        /* \"#utility.yul\":11371:11737   */\n    tag_325:\n        /* \"#utility.yul\":11513:11516   */\n      0x00\n        /* \"#utility.yul\":11534:11601   */\n      tag_447\n        /* \"#utility.yul\":11598:11600   */\n      0x1f\n        /* \"#utility.yul\":11593:11596   */\n      dup4\n        /* \"#utility.yul\":11534:11601   */\n      tag_295\n      jump\t// in\n    tag_447:\n        /* \"#utility.yul\":11527:11601   */\n      swap2\n      pop\n        /* \"#utility.yul\":11610:11703   */\n      tag_448\n        /* \"#utility.yul\":11699:11702   */\n      dup3\n        /* \"#utility.yul\":11610:11703   */\n      tag_324\n      jump\t// in\n    tag_448:\n        /* \"#utility.yul\":11728:11730   */\n      0x20\n        /* \"#utility.yul\":11723:11726   */\n      dup3\n        /* \"#utility.yul\":11719:11731   */\n      add\n        /* \"#utility.yul\":11712:11731   */\n      swap1\n      pop\n        /* \"#utility.yul\":11371:11737   */\n      swap2\n      swap1\n      pop\n      jump\t// out\n        /* \"#utility.yul\":11743:12162   */\n    tag_242:\n        /* \"#utility.yul\":11909:11913   */\n      0x00\n        /* \"#utility.yul\":11947:11949   */\n      0x20\n        /* \"#utility.yul\":11936:11945   */\n      dup3\n        /* \"#utility.yul\":11932:11950   */\n      add\n        /* \"#utility.yul\":11924:11950   */\n      swap1\n      pop\n        /* \"#utility.yul\":11996:12005   */\n      dup2\n        /* \"#utility.yul\":11990:11994   */\n      dup2\n        /* \"#utility.yul\":11986:12006   */\n      sub\n        /* \"#utility.yul\":11982:11983   */\n      0x00\n        /* \"#utility.yul\":11971:11980   */\n      dup4\n        /* \"#utility.yul\":11967:11984   */\n      add\n        /* \"#utility.yul\":11960:12007   */\n      mstore\n        /* \"#utility.yul\":12024:12155   */\n      tag_450\n        /* \"#utility.yul\":12150:12154   */\n      dup2\n        /* \"#utility.yul\":12024:12155   */\n      tag_325\n      jump\t// in\n    tag_450:\n        /* \"#utility.yul\":12016:12155   */\n      swap1\n      pop\n        /* \"#utility.yul\":11743:12162   */\n      swap2\n      swap1\n      pop\n      jump\t// out\n        /* \"#utility.yul\":12168:12336   */\n    tag_326:\n        /* \"#utility.yul\":12308:12328   */\n      0x4275726e2076616c756520696e76616c69640000000000000000000000000000\n        /* \"#utility.yul\":12304:12305   */\n      0x00\n        /* \"#utility.yul\":12296:12302   */\n      dup3\n        /* \"#utility.yul\":12292:12306   */\n      add\n        /* \"#utility.yul\":12285:12329   */\n      mstore\n        /* \"#utility.yul\":12168:12336   */\n      pop\n      jump\t// out\n        /* \"#utility.yul\":12342:12708   */\n    tag_327:\n        /* \"#utility.yul\":12484:12487   */\n      0x00\n        /* \"#utility.yul\":12505:12572   */\n      tag_453\n        /* \"#utility.yul\":12569:12571   */\n      0x12\n        /* \"#utility.yul\":12564:12567   */\n      dup4\n        /* \"#utility.yul\":12505:12572   */\n      tag_295\n      jump\t// in\n    tag_453:\n        /* \"#utility.yul\":12498:12572   */\n      swap2\n      pop\n        /* \"#utility.yul\":12581:12674   */\n      tag_454\n        /* \"#utility.yul\":12670:12673   */\n      dup3\n        /* \"#utility.yul\":12581:12674   */\n      tag_326\n      jump\t// in\n    tag_454:\n        /* \"#utility.yul\":12699:12701   */\n      0x20\n        /* \"#utility.yul\":12694:12697   */\n      dup3\n        /* \"#utility.yul\":12690:12702   */\n      add\n        /* \"#utility.yul\":12683:12702   */\n      swap1\n      pop\n        /* \"#utility.yul\":12342:12708   */\n      swap2\n      swap1\n      pop\n      jump\t// out\n        /* \"#utility.yul\":12714:13133   */\n    tag_249:\n        /* \"#utility.yul\":12880:12884   */\n      0x00\n        /* \"#utility.yul\":12918:12920   */\n      0x20\n        /* \"#utility.yul\":12907:12916   */\n      dup3\n        /* \"#utility.yul\":12903:12921   */\n      add\n        /* \"#utility.yul\":12895:12921   */\n      swap1\n      pop\n        /* \"#utility.yul\":12967:12976   */\n      dup2\n        /* \"#utility.yul\":12961:12965   */\n      dup2\n        /* \"#utility.yul\":12957:12977   */\n      sub\n        /* \"#utility.yul\":12953:12954   */\n      0x00\n        /* \"#utility.yul\":12942:12951   */\n      dup4\n        /* \"#utility.yul\":12938:12955   */\n      add\n        /* \"#utility.yul\":12931:12978   */\n      mstore\n        /* \"#utility.yul\":12995:13126   */\n      tag_456\n        /* \"#utility.yul\":13121:13125   */\n      dup2\n        /* \"#utility.yul\":12995:13126   */\n      tag_327\n      jump\t// in\n    tag_456:\n        /* \"#utility.yul\":12987:13126   */\n      swap1\n      pop\n        /* \"#utility.yul\":12714:13133   */\n      swap2\n      swap1\n      pop\n      jump\t// out\n        /* \"#utility.yul\":13139:13581   */\n    tag_260:\n        /* \"#utility.yul\":13288:13292   */\n      0x00\n        /* \"#utility.yul\":13326:13328   */\n      0x60\n        /* \"#utility.yul\":13315:13324   */\n      dup3\n        /* \"#utility.yul\":13311:13329   */\n      add\n        /* \"#utility.yul\":13303:13329   */\n      swap1\n      pop\n        /* \"#utility.yul\":13339:13410   */\n      tag_458\n        /* \"#utility.yul\":13407:13408   */\n      0x00\n        /* \"#utility.yul\":13396:13405   */\n      dup4\n        /* \"#utility.yul\":13392:13409   */\n      add\n        /* \"#utility.yul\":13383:13389   */\n      dup7\n        /* \"#utility.yul\":13339:13410   */\n      tag_314\n      jump\t// in\n    tag_458:\n        /* \"#utility.yul\":13420:13492   */\n      tag_459\n        /* \"#utility.yul\":13488:13490   */\n      0x20\n        /* \"#utility.yul\":13477:13486   */\n      dup4\n        /* \"#utility.yul\":13473:13491   */\n      add\n        /* \"#utility.yul\":13464:13470   */\n      dup6\n        /* \"#utility.yul\":13420:13492   */\n      tag_311\n      jump\t// in\n    tag_459:\n        /* \"#utility.yul\":13502:13574   */\n      tag_460\n        /* \"#utility.yul\":13570:13572   */\n      0x40\n        /* \"#utility.yul\":13559:13568   */\n      dup4\n        /* \"#utility.yul\":13555:13573   */\n      add\n        /* \"#utility.yul\":13546:13552   */\n      dup5\n        /* \"#utility.yul\":13502:13574   */\n      tag_311\n      jump\t// in\n    tag_460:\n        /* \"#utility.yul\":13139:13581   */\n      swap5\n      swap4\n      pop\n      pop\n      pop\n      pop\n      jump\t// out\n\n    auxdata: 0xa264697066735822122081eda74695bce720927ac57d4cfb6212a2b1fac79dac9d6f1553fcad9efdbed064736f6c634300081a0033\n}\n",
				"bytecode": {
					"linkReferences": {},
					"object": "608060405234801561000f575f80fd5b50336040518060400160405280600d81526020017f5477656574204f6e2042617365000000000000000000000000000000000000008152506040518060400160405280600681526020017f5477656574730000000000000000000000000000000000000000000000000000815250816003908161008c91906106db565b50806004908161009c91906106db565b5050505f73ffffffffffffffffffffffffffffffffffffffff168173ffffffffffffffffffffffffffffffffffffffff160361010f575f6040517f1e4fbdf700000000000000000000000000000000000000000000000000000000815260040161010691906107e9565b60405180910390fd5b61011e8161014060201b60201c565b50600160068190555061013b33633b9aca0061020360201b60201c565b6108bf565b5f60055f9054906101000a900473ffffffffffffffffffffffffffffffffffffffff1690508160055f6101000a81548173ffffffffffffffffffffffffffffffffffffffff021916908373ffffffffffffffffffffffffffffffffffffffff1602179055508173ffffffffffffffffffffffffffffffffffffffff168173ffffffffffffffffffffffffffffffffffffffff167f8be0079c531659141344cd1fd0a4f28419497f9722a3daafe3b4186f6b6457e060405160405180910390a35050565b5f73ffffffffffffffffffffffffffffffffffffffff168273ffffffffffffffffffffffffffffffffffffffff1603610273575f6040517fec442f0500000000000000000000000000000000000000000000000000000000815260040161026a91906107e9565b60405180910390fd5b6102845f838361028860201b60201c565b5050565b5f73ffffffffffffffffffffffffffffffffffffffff168373ffffffffffffffffffffffffffffffffffffffff16036102d8578060025f8282546102cc919061082f565b925050819055506103a6565b5f805f8573ffffffffffffffffffffffffffffffffffffffff1673ffffffffffffffffffffffffffffffffffffffff1681526020019081526020015f2054905081811015610361578381836040517fe450d38c00000000000000000000000000000000000000000000000000000000815260040161035893929190610871565b60405180910390fd5b8181035f808673ffffffffffffffffffffffffffffffffffffffff1673ffffffffffffffffffffffffffffffffffffffff1681526020019081526020015f2081905550505b5f73ffffffffffffffffffffffffffffffffffffffff168273ffffffffffffffffffffffffffffffffffffffff16036103ed578060025f8282540392505081905550610437565b805f808473ffffffffffffffffffffffffffffffffffffffff1673ffffffffffffffffffffffffffffffffffffffff1681526020019081526020015f205f82825401925050819055505b8173ffffffffffffffffffffffffffffffffffffffff168373ffffffffffffffffffffffffffffffffffffffff167fddf252ad1be2c89b69c2b068fc378daa952ba7f163c4a11628f55a4df523b3ef8360405161049491906108a6565b60405180910390a3505050565b5f81519050919050565b7f4e487b71000000000000000000000000000000000000000000000000000000005f52604160045260245ffd5b7f4e487b71000000000000000000000000000000000000000000000000000000005f52602260045260245ffd5b5f600282049050600182168061051c57607f821691505b60208210810361052f5761052e6104d8565b5b50919050565b5f819050815f5260205f209050919050565b5f6020601f8301049050919050565b5f82821b905092915050565b5f600883026105917fffffffffffffffffffffffffffffffffffffffffffffffffffffffffffffffff82610556565b61059b8683610556565b95508019841693508086168417925050509392505050565b5f819050919050565b5f819050919050565b5f6105df6105da6105d5846105b3565b6105bc565b6105b3565b9050919050565b5f819050919050565b6105f8836105c5565b61060c610604826105e6565b848454610562565b825550505050565b5f90565b610620610614565b61062b8184846105ef565b505050565b5b8181101561064e576106435f82610618565b600181019050610631565b5050565b601f8211156106935761066481610535565b61066d84610547565b8101602085101561067c578190505b61069061068885610547565b830182610630565b50505b505050565b5f82821c905092915050565b5f6106b35f1984600802610698565b1980831691505092915050565b5f6106cb83836106a4565b9150826002028217905092915050565b6106e4826104a1565b67ffffffffffffffff8111156106fd576106fc6104ab565b5b6107078254610505565b610712828285610652565b5f60209050601f831160018114610743575f8415610731578287015190505b61073b85826106c0565b8655506107a2565b601f19841661075186610535565b5f5b8281101561077857848901518255600182019150602085019450602081019050610753565b868310156107955784890151610791601f8916826106a4565b8355505b6001600288020188555050505b505050505050565b5f73ffffffffffffffffffffffffffffffffffffffff82169050919050565b5f6107d3826107aa565b9050919050565b6107e3816107c9565b82525050565b5f6020820190506107fc5f8301846107da565b92915050565b7f4e487b71000000000000000000000000000000000000000000000000000000005f52601160045260245ffd5b5f610839826105b3565b9150610844836105b3565b925082820190508082111561085c5761085b610802565b5b92915050565b61086b816105b3565b82525050565b5f6060820190506108845f8301866107da565b6108916020830185610862565b61089e6040830184610862565b949350505050565b5f6020820190506108b95f830184610862565b92915050565b611f4e806108cc5f395ff3fe608060405234801561000f575f80fd5b5060043610610140575f3560e01c8063715018a6116100b6578063afe8289a1161007a578063afe8289a14610350578063c80521071461036c578063d82e396214610388578063dd62ed3e146103b8578063f2fde38b146103e8578063fc6d483a1461040457610140565b8063715018a6146102be57806379cc6790146102c85780638da5cb5b146102e457806395d89b4114610302578063a9059cbb1461032057610140565b80632ff2e9dc116101085780632ff2e9dc146101fc578063313ce5671461021a57806332cb6b0c1461023857806342966c681461025657806351c6590a1461027257806370a082311461028e57610140565b806306fdde0314610144578063095ea7b31461016257806318160ddd146101925780632254b79c146101b057806323b872dd146101cc575b5f80fd5b61014c610420565b6040516101599190611877565b60405180910390f35b61017c60048036038101906101779190611928565b6104b0565b6040516101899190611980565b60405180910390f35b61019a6104d2565b6040516101a791906119a8565b60405180910390f35b6101ca60048036038101906101c591906119c1565b6104db565b005b6101e660048036038101906101e191906119ec565b61067e565b6040516101f39190611980565b60405180910390f35b6102046106ac565b60405161021191906119a8565b60405180910390f35b6102226106b4565b60405161022f9190611a57565b60405180910390f35b6102406106bc565b60405161024d91906119a8565b60405180910390f35b610270600480360381019061026b91906119c1565b6106c6565b005b61028c600480360381019061028791906119c1565b6106da565b005b6102a860048036038101906102a39190611a70565b61077d565b6040516102b591906119a8565b60405180910390f35b6102c66107c2565b005b6102e260048036038101906102dd9190611928565b6107d5565b005b6102ec6107f5565b6040516102f99190611aaa565b60405180910390f35b61030a61081d565b6040516103179190611877565b60405180910390f35b61033a60048036038101906103359190611928565b6108ad565b6040516103479190611980565b60405180910390f35b61036a600480360381019061036591906119c1565b6108cf565b005b610386600480360381019061038191906119c1565b610987565b005b6103a2600480360381019061039d9190611a70565b610c9d565b6040516103af91906119a8565b60405180910390f35b6103d260048036038101906103cd9190611ac3565b610d7c565b6040516103df91906119a8565b60405180910390f35b61040260048036038101906103fd9190611a70565b610dfe565b005b61041e600480360381019061041991906119c1565b610e82565b005b60606003805461042f90611b2e565b80601f016020809104026020016040519081016040528092919081815260200182805461045b90611b2e565b80156104a65780601f1061047d576101008083540402835291602001916104a6565b820191905f5260205f20905b81548152906001019060200180831161048957829003601f168201915b5050505050905090565b5f806104ba610f25565b90506104c7818585610f2c565b600191505092915050565b5f600254905090565b6104e3610f3e565b6104eb610fc5565b60075f6104f66107f5565b73ffffffffffffffffffffffffffffffffffffffff1673ffffffffffffffffffffffffffffffffffffffff1681526020019081526020015f2054811115610572576040517f08c379a000000000000000000000000000000000000000000000000000000000815260040161056990611ba8565b60405180910390fd5b8060075f61057e6107f5565b73ffffffffffffffffffffffffffffffffffffffff1673ffffffffffffffffffffffffffffffffffffffff1681526020019081526020015f205f8282546105c59190611bf3565b925050819055505f60075f6105d86107f5565b73ffffffffffffffffffffffffffffffffffffffff1673ffffffffffffffffffffffffffffffffffffffff1681526020019081526020015f205403610661575f60085f6106236107f5565b73ffffffffffffffffffffffffffffffffffffffff1673ffffffffffffffffffffffffffffffffffffffff1681526020019081526020015f20819055505b6106733061066d6107f5565b83611014565b61067b6110d2565b50565b5f80610688610f25565b90506106958582856110dc565b6106a0858585611014565b60019150509392505050565b633b9aca0081565b5f6002905090565b65048c2739500081565b6106d76106d1610f25565b8261116e565b50565b6106e5333083611014565b8060075f3373ffffffffffffffffffffffffffffffffffffffff1673ffffffffffffffffffffffffffffffffffffffff1681526020019081526020015f205f8282546107319190611c26565b925050819055504260085f3373ffffffffffffffffffffffffffffffffffffffff1673ffffffffffffffffffffffffffffffffffffffff1681526020019081526020015f208190555050565b5f805f8373ffffffffffffffffffffffffffffffffffffffff1673ffffffffffffffffffffffffffffffffffffffff1681526020019081526020015f20549050919050565b6107ca610f3e565b6107d35f6111ed565b565b6107e7826107e1610f25565b836110dc565b6107f1828261116e565b5050565b5f60055f9054906101000a900473ffffffffffffffffffffffffffffffffffffffff16905090565b60606004805461082c90611b2e565b80601f016020809104026020016040519081016040528092919081815260200182805461085890611b2e565b80156108a35780601f1061087a576101008083540402835291602001916108a3565b820191905f5260205f20905b81548152906001019060200180831161088657829003601f168201915b5050505050905090565b5f806108b7610f25565b90506108c4818585611014565b600191505092915050565b6108d7610f3e565b8060075f6108e36107f5565b73ffffffffffffffffffffffffffffffffffffffff1673ffffffffffffffffffffffffffffffffffffffff1681526020019081526020015f205f82825461092a9190611c26565b925050819055504260085f61093d6107f5565b73ffffffffffffffffffffffffffffffffffffffff1673ffffffffffffffffffffffffffffffffffffffff1681526020019081526020015f208190555061098430826112b0565b50565b61098f610fc5565b60075f3373ffffffffffffffffffffffffffffffffffffffff1673ffffffffffffffffffffffffffffffffffffffff1681526020019081526020015f2054811115610a0f576040517f08c379a0000000000000000000000000000000000000000000000000000000008152600401610a0690611ba8565b60405180910390fd5b62278d0060085f3373ffffffffffffffffffffffffffffffffffffffff1673ffffffffffffffffffffffffffffffffffffffff1681526020019081526020015f2054610a5b9190611c26565b421015610a9d576040517f08c379a0000000000000000000000000000000000000000000000000000000008152600401610a9490611cef565b60405180910390fd5b5f610aa733610c9d565b905065048c2739500081610ab96104d2565b610ac39190611c26565b1115610b04576040517f08c379a0000000000000000000000000000000000000000000000000000000008152600401610afb90611d57565b60405180910390fd5b5f811115610b6557610b1633826112b0565b3373ffffffffffffffffffffffffffffffffffffffff167f106f923f993c2149d49b4255ff723acafa1f2d94393f561d3eda32ae348f724182604051610b5c91906119a8565b60405180910390a25b610b70303384611014565b8160075f3373ffffffffffffffffffffffffffffffffffffffff1673ffffffffffffffffffffffffffffffffffffffff1681526020019081526020015f205f828254610bbc9190611bf3565b925050819055505f60075f3373ffffffffffffffffffffffffffffffffffffffff1673ffffffffffffffffffffffffffffffffffffffff1681526020019081526020015f205403610c4e575f60085f3373ffffffffffffffffffffffffffffffffffffffff1673ffffffffffffffffffffffffffffffffffffffff1681526020019081526020015f2081905550610c91565b4260085f3373ffffffffffffffffffffffffffffffffffffffff1673ffffffffffffffffffffffffffffffffffffffff1681526020019081526020015f20819055505b50610c9a6110d2565b50565b5f62278d0060085f8473ffffffffffffffffffffffffffffffffffffffff1673ffffffffffffffffffffffffffffffffffffffff1681526020019081526020015f2054610cea9190611c26565b4210610d73575f6064600560075f8673ffffffffffffffffffffffffffffffffffffffff1673ffffffffffffffffffffffffffffffffffffffff1681526020019081526020015f2054610d3d9190611d75565b610d479190611de3565b905065048c2739500081610d596104d2565b610d639190611c26565b11610d715780915050610d77565b505b5f90505b919050565b5f60015f8473ffffffffffffffffffffffffffffffffffffffff1673ffffffffffffffffffffffffffffffffffffffff1681526020019081526020015f205f8373ffffffffffffffffffffffffffffffffffffffff1673ffffffffffffffffffffffffffffffffffffffff1681526020019081526020015f2054905092915050565b610e06610f3e565b5f73ffffffffffffffffffffffffffffffffffffffff168173ffffffffffffffffffffffffffffffffffffffff1603610e76575f6040517f1e4fbdf7000000000000000000000000000000000000000000000000000000008152600401610e6d9190611aaa565b60405180910390fd5b610e7f816111ed565b50565b610e8d303383611014565b8060075f3373ffffffffffffffffffffffffffffffffffffffff1673ffffffffffffffffffffffffffffffffffffffff1681526020019081526020015f205f828254610ed99190611bf3565b925050819055504260085f3373ffffffffffffffffffffffffffffffffffffffff1673ffffffffffffffffffffffffffffffffffffffff1681526020019081526020015f208190555050565b5f33905090565b610f39838383600161132f565b505050565b610f46610f25565b73ffffffffffffffffffffffffffffffffffffffff16610f646107f5565b73ffffffffffffffffffffffffffffffffffffffff1614610fc357610f87610f25565b6040517f118cdaa7000000000000000000000000000000000000000000000000000000008152600401610fba9190611aaa565b60405180910390fd5b565b60026006540361100a576040517f08c379a000000000000000000000000000000000000000000000000000000000815260040161100190611e5d565b60405180910390fd5b6002600681905550565b5f620186a0826110249190611de3565b90505f81836110339190611bf3565b905081816110419190611c26565b8314611082576040517f08c379a000000000000000000000000000000000000000000000000000000000815260040161107990611ec5565b60405180910390fd5b3373ffffffffffffffffffffffffffffffffffffffff168573ffffffffffffffffffffffffffffffffffffffff16146110c0576110bf858361116e565b5b6110cb8585836114fe565b5050505050565b6001600681905550565b5f6110e78484610d7c565b90507fffffffffffffffffffffffffffffffffffffffffffffffffffffffffffffffff81146111685781811015611159578281836040517ffb8f41b200000000000000000000000000000000000000000000000000000000815260040161115093929190611ee3565b60405180910390fd5b61116784848484035f61132f565b5b50505050565b5f73ffffffffffffffffffffffffffffffffffffffff168273ffffffffffffffffffffffffffffffffffffffff16036111de575f6040517f96c6fd1e0000000000000000000000000000000000000000000000000000000081526004016111d59190611aaa565b60405180910390fd5b6111e9825f836115ee565b5050565b5f60055f9054906101000a900473ffffffffffffffffffffffffffffffffffffffff1690508160055f6101000a81548173ffffffffffffffffffffffffffffffffffffffff021916908373ffffffffffffffffffffffffffffffffffffffff1602179055508173ffffffffffffffffffffffffffffffffffffffff168173ffffffffffffffffffffffffffffffffffffffff167f8be0079c531659141344cd1fd0a4f28419497f9722a3daafe3b4186f6b6457e060405160405180910390a35050565b5f73ffffffffffffffffffffffffffffffffffffffff168273ffffffffffffffffffffffffffffffffffffffff1603611320575f6040517fec442f050000000000000000000000000000000000000000000000000000000081526004016113179190611aaa565b60405180910390fd5b61132b5f83836115ee565b5050565b5f73ffffffffffffffffffffffffffffffffffffffff168473ffffffffffffffffffffffffffffffffffffffff160361139f575f6040517fe602df050000000000000000000000000000000000000000000000000000000081526004016113969190611aaa565b60405180910390fd5b5f73ffffffffffffffffffffffffffffffffffffffff168373ffffffffffffffffffffffffffffffffffffffff160361140f575f6040517f94280d620000000000000000000000000000000000000000000000000000000081526004016114069190611aaa565b60405180910390fd5b8160015f8673ffffffffffffffffffffffffffffffffffffffff1673ffffffffffffffffffffffffffffffffffffffff1681526020019081526020015f205f8573ffffffffffffffffffffffffffffffffffffffff1673ffffffffffffffffffffffffffffffffffffffff1681526020019081526020015f208190555080156114f8578273ffffffffffffffffffffffffffffffffffffffff168473ffffffffffffffffffffffffffffffffffffffff167f8c5be1e5ebec7d5bd14f71427d1e84f3dd0314c0f7b2291e5b200ac8c7c3b925846040516114ef91906119a8565b60405180910390a35b50505050565b5f73ffffffffffffffffffffffffffffffffffffffff168373ffffffffffffffffffffffffffffffffffffffff160361156e575f6040517f96c6fd1e0000000000000000000000000000000000000000000000000000000081526004016115659190611aaa565b60405180910390fd5b5f73ffffffffffffffffffffffffffffffffffffffff168273ffffffffffffffffffffffffffffffffffffffff16036115de575f6040517fec442f050000000000000000000000000000000000000000000000000000000081526004016115d59190611aaa565b60405180910390fd5b6115e98383836115ee565b505050565b5f73ffffffffffffffffffffffffffffffffffffffff168373ffffffffffffffffffffffffffffffffffffffff160361163e578060025f8282546116329190611c26565b9250508190555061170c565b5f805f8573ffffffffffffffffffffffffffffffffffffffff1673ffffffffffffffffffffffffffffffffffffffff1681526020019081526020015f20549050818110156116c7578381836040517fe450d38c0000000000000000000000000000000000000000000000000000000081526004016116be93929190611ee3565b60405180910390fd5b8181035f808673ffffffffffffffffffffffffffffffffffffffff1673ffffffffffffffffffffffffffffffffffffffff1681526020019081526020015f2081905550505b5f73ffffffffffffffffffffffffffffffffffffffff168273ffffffffffffffffffffffffffffffffffffffff1603611753578060025f828254039250508190555061179d565b805f808473ffffffffffffffffffffffffffffffffffffffff1673ffffffffffffffffffffffffffffffffffffffff1681526020019081526020015f205f82825401925050819055505b8173ffffffffffffffffffffffffffffffffffffffff168373ffffffffffffffffffffffffffffffffffffffff167fddf252ad1be2c89b69c2b068fc378daa952ba7f163c4a11628f55a4df523b3ef836040516117fa91906119a8565b60405180910390a3505050565b5f81519050919050565b5f82825260208201905092915050565b8281835e5f83830152505050565b5f601f19601f8301169050919050565b5f61184982611807565b6118538185611811565b9350611863818560208601611821565b61186c8161182f565b840191505092915050565b5f6020820190508181035f83015261188f818461183f565b905092915050565b5f80fd5b5f73ffffffffffffffffffffffffffffffffffffffff82169050919050565b5f6118c48261189b565b9050919050565b6118d4816118ba565b81146118de575f80fd5b50565b5f813590506118ef816118cb565b92915050565b5f819050919050565b611907816118f5565b8114611911575f80fd5b50565b5f81359050611922816118fe565b92915050565b5f806040838503121561193e5761193d611897565b5b5f61194b858286016118e1565b925050602061195c85828601611914565b9150509250929050565b5f8115159050919050565b61197a81611966565b82525050565b5f6020820190506119935f830184611971565b92915050565b6119a2816118f5565b82525050565b5f6020820190506119bb5f830184611999565b92915050565b5f602082840312156119d6576119d5611897565b5b5f6119e384828501611914565b91505092915050565b5f805f60608486031215611a0357611a02611897565b5b5f611a10868287016118e1565b9350506020611a21868287016118e1565b9250506040611a3286828701611914565b9150509250925092565b5f60ff82169050919050565b611a5181611a3c565b82525050565b5f602082019050611a6a5f830184611a48565b92915050565b5f60208284031215611a8557611a84611897565b5b5f611a92848285016118e1565b91505092915050565b611aa4816118ba565b82525050565b5f602082019050611abd5f830184611a9b565b92915050565b5f8060408385031215611ad957611ad8611897565b5b5f611ae6858286016118e1565b9250506020611af7858286016118e1565b9150509250929050565b7f4e487b71000000000000000000000000000000000000000000000000000000005f52602260045260245ffd5b5f6002820490506001821680611b4557607f821691505b602082108103611b5857611b57611b01565b5b50919050565b7f496e73756666696369656e742062616c616e63650000000000000000000000005f82015250565b5f611b92601483611811565b9150611b9d82611b5e565b602082019050919050565b5f6020820190508181035f830152611bbf81611b86565b9050919050565b7f4e487b71000000000000000000000000000000000000000000000000000000005f52601160045260245ffd5b5f611bfd826118f5565b9150611c08836118f5565b9250828203905081811115611c2057611c1f611bc6565b5b92915050565b5f611c30826118f5565b9150611c3b836118f5565b9250828201905080821115611c5357611c52611bc6565b5b92915050565b7f4c6971756964697479206d7573742062652070726f766964656420666f7220615f8201527f74206c65617374203330206461797320746f207175616c69667920666f72207260208201527f6577617264730000000000000000000000000000000000000000000000000000604082015250565b5f611cd9604683611811565b9150611ce482611c59565b606082019050919050565b5f6020820190508181035f830152611d0681611ccd565b9050919050565b7f5265776172642065786365656473206d617820737570706c79000000000000005f82015250565b5f611d41601983611811565b9150611d4c82611d0d565b602082019050919050565b5f6020820190508181035f830152611d6e81611d35565b9050919050565b5f611d7f826118f5565b9150611d8a836118f5565b9250828202611d98816118f5565b91508282048414831517611daf57611dae611bc6565b5b5092915050565b7f4e487b71000000000000000000000000000000000000000000000000000000005f52601260045260245ffd5b5f611ded826118f5565b9150611df8836118f5565b925082611e0857611e07611db6565b5b828204905092915050565b7f5265656e7472616e637947756172643a207265656e7472616e742063616c6c005f82015250565b5f611e47601f83611811565b9150611e5282611e13565b602082019050919050565b5f6020820190508181035f830152611e7481611e3b565b9050919050565b7f4275726e2076616c756520696e76616c696400000000000000000000000000005f82015250565b5f611eaf601283611811565b9150611eba82611e7b565b602082019050919050565b5f6020820190508181035f830152611edc81611ea3565b9050919050565b5f606082019050611ef65f830186611a9b565b611f036020830185611999565b611f106040830184611999565b94935050505056fea264697066735822122081eda74695bce720927ac57d4cfb6212a2b1fac79dac9d6f1553fcad9efdbed064736f6c634300081a0033",
					"opcodes": "PUSH1 0x80 PUSH1 0x40 MSTORE CALLVALUE DUP1 ISZERO PUSH2 0xF JUMPI PUSH0 DUP1 REVERT JUMPDEST POP CALLER PUSH1 0x40 MLOAD DUP1 PUSH1 0x40 ADD PUSH1 0x40 MSTORE DUP1 PUSH1 0xD DUP2 MSTORE PUSH1 0x20 ADD PUSH32 0x5477656574204F6E204261736500000000000000000000000000000000000000 DUP2 MSTORE POP PUSH1 0x40 MLOAD DUP1 PUSH1 0x40 ADD PUSH1 0x40 MSTORE DUP1 PUSH1 0x6 DUP2 MSTORE PUSH1 0x20 ADD PUSH32 0x5477656574730000000000000000000000000000000000000000000000000000 DUP2 MSTORE POP DUP2 PUSH1 0x3 SWAP1 DUP2 PUSH2 0x8C SWAP2 SWAP1 PUSH2 0x6DB JUMP JUMPDEST POP DUP1 PUSH1 0x4 SWAP1 DUP2 PUSH2 0x9C SWAP2 SWAP1 PUSH2 0x6DB JUMP JUMPDEST POP POP POP PUSH0 PUSH20 0xFFFFFFFFFFFFFFFFFFFFFFFFFFFFFFFFFFFFFFFF AND DUP2 PUSH20 0xFFFFFFFFFFFFFFFFFFFFFFFFFFFFFFFFFFFFFFFF AND SUB PUSH2 0x10F JUMPI PUSH0 PUSH1 0x40 MLOAD PUSH32 0x1E4FBDF700000000000000000000000000000000000000000000000000000000 DUP2 MSTORE PUSH1 0x4 ADD PUSH2 0x106 SWAP2 SWAP1 PUSH2 0x7E9 JUMP JUMPDEST PUSH1 0x40 MLOAD DUP1 SWAP2 SUB SWAP1 REVERT JUMPDEST PUSH2 0x11E DUP2 PUSH2 0x140 PUSH1 0x20 SHL PUSH1 0x20 SHR JUMP JUMPDEST POP PUSH1 0x1 PUSH1 0x6 DUP2 SWAP1 SSTORE POP PUSH2 0x13B CALLER PUSH4 0x3B9ACA00 PUSH2 0x203 PUSH1 0x20 SHL PUSH1 0x20 SHR JUMP JUMPDEST PUSH2 0x8BF JUMP JUMPDEST PUSH0 PUSH1 0x5 PUSH0 SWAP1 SLOAD SWAP1 PUSH2 0x100 EXP SWAP1 DIV PUSH20 0xFFFFFFFFFFFFFFFFFFFFFFFFFFFFFFFFFFFFFFFF AND SWAP1 POP DUP2 PUSH1 0x5 PUSH0 PUSH2 0x100 EXP DUP2 SLOAD DUP2 PUSH20 0xFFFFFFFFFFFFFFFFFFFFFFFFFFFFFFFFFFFFFFFF MUL NOT AND SWAP1 DUP4 PUSH20 0xFFFFFFFFFFFFFFFFFFFFFFFFFFFFFFFFFFFFFFFF AND MUL OR SWAP1 SSTORE POP DUP2 PUSH20 0xFFFFFFFFFFFFFFFFFFFFFFFFFFFFFFFFFFFFFFFF AND DUP2 PUSH20 0xFFFFFFFFFFFFFFFFFFFFFFFFFFFFFFFFFFFFFFFF AND PUSH32 0x8BE0079C531659141344CD1FD0A4F28419497F9722A3DAAFE3B4186F6B6457E0 PUSH1 0x40 MLOAD PUSH1 0x40 MLOAD DUP1 SWAP2 SUB SWAP1 LOG3 POP POP JUMP JUMPDEST PUSH0 PUSH20 0xFFFFFFFFFFFFFFFFFFFFFFFFFFFFFFFFFFFFFFFF AND DUP3 PUSH20 0xFFFFFFFFFFFFFFFFFFFFFFFFFFFFFFFFFFFFFFFF AND SUB PUSH2 0x273 JUMPI PUSH0 PUSH1 0x40 MLOAD PUSH32 0xEC442F0500000000000000000000000000000000000000000000000000000000 DUP2 MSTORE PUSH1 0x4 ADD PUSH2 0x26A SWAP2 SWAP1 PUSH2 0x7E9 JUMP JUMPDEST PUSH1 0x40 MLOAD DUP1 SWAP2 SUB SWAP1 REVERT JUMPDEST PUSH2 0x284 PUSH0 DUP4 DUP4 PUSH2 0x288 PUSH1 0x20 SHL PUSH1 0x20 SHR JUMP JUMPDEST POP POP JUMP JUMPDEST PUSH0 PUSH20 0xFFFFFFFFFFFFFFFFFFFFFFFFFFFFFFFFFFFFFFFF AND DUP4 PUSH20 0xFFFFFFFFFFFFFFFFFFFFFFFFFFFFFFFFFFFFFFFF AND SUB PUSH2 0x2D8 JUMPI DUP1 PUSH1 0x2 PUSH0 DUP3 DUP3 SLOAD PUSH2 0x2CC SWAP2 SWAP1 PUSH2 0x82F JUMP JUMPDEST SWAP3 POP POP DUP2 SWAP1 SSTORE POP PUSH2 0x3A6 JUMP JUMPDEST PUSH0 DUP1 PUSH0 DUP6 PUSH20 0xFFFFFFFFFFFFFFFFFFFFFFFFFFFFFFFFFFFFFFFF AND PUSH20 0xFFFFFFFFFFFFFFFFFFFFFFFFFFFFFFFFFFFFFFFF AND DUP2 MSTORE PUSH1 0x20 ADD SWAP1 DUP2 MSTORE PUSH1 0x20 ADD PUSH0 KECCAK256 SLOAD SWAP1 POP DUP2 DUP2 LT ISZERO PUSH2 0x361 JUMPI DUP4 DUP2 DUP4 PUSH1 0x40 MLOAD PUSH32 0xE450D38C00000000000000000000000000000000000000000000000000000000 DUP2 MSTORE PUSH1 0x4 ADD PUSH2 0x358 SWAP4 SWAP3 SWAP2 SWAP1 PUSH2 0x871 JUMP JUMPDEST PUSH1 0x40 MLOAD DUP1 SWAP2 SUB SWAP1 REVERT JUMPDEST DUP2 DUP2 SUB PUSH0 DUP1 DUP7 PUSH20 0xFFFFFFFFFFFFFFFFFFFFFFFFFFFFFFFFFFFFFFFF AND PUSH20 0xFFFFFFFFFFFFFFFFFFFFFFFFFFFFFFFFFFFFFFFF AND DUP2 MSTORE PUSH1 0x20 ADD SWAP1 DUP2 MSTORE PUSH1 0x20 ADD PUSH0 KECCAK256 DUP2 SWAP1 SSTORE POP POP JUMPDEST PUSH0 PUSH20 0xFFFFFFFFFFFFFFFFFFFFFFFFFFFFFFFFFFFFFFFF AND DUP3 PUSH20 0xFFFFFFFFFFFFFFFFFFFFFFFFFFFFFFFFFFFFFFFF AND SUB PUSH2 0x3ED JUMPI DUP1 PUSH1 0x2 PUSH0 DUP3 DUP3 SLOAD SUB SWAP3 POP POP DUP2 SWAP1 SSTORE POP PUSH2 0x437 JUMP JUMPDEST DUP1 PUSH0 DUP1 DUP5 PUSH20 0xFFFFFFFFFFFFFFFFFFFFFFFFFFFFFFFFFFFFFFFF AND PUSH20 0xFFFFFFFFFFFFFFFFFFFFFFFFFFFFFFFFFFFFFFFF AND DUP2 MSTORE PUSH1 0x20 ADD SWAP1 DUP2 MSTORE PUSH1 0x20 ADD PUSH0 KECCAK256 PUSH0 DUP3 DUP3 SLOAD ADD SWAP3 POP POP DUP2 SWAP1 SSTORE POP JUMPDEST DUP2 PUSH20 0xFFFFFFFFFFFFFFFFFFFFFFFFFFFFFFFFFFFFFFFF AND DUP4 PUSH20 0xFFFFFFFFFFFFFFFFFFFFFFFFFFFFFFFFFFFFFFFF AND PUSH32 0xDDF252AD1BE2C89B69C2B068FC378DAA952BA7F163C4A11628F55A4DF523B3EF DUP4 PUSH1 0x40 MLOAD PUSH2 0x494 SWAP2 SWAP1 PUSH2 0x8A6 JUMP JUMPDEST PUSH1 0x40 MLOAD DUP1 SWAP2 SUB SWAP1 LOG3 POP POP POP JUMP JUMPDEST PUSH0 DUP2 MLOAD SWAP1 POP SWAP2 SWAP1 POP JUMP JUMPDEST PUSH32 0x4E487B7100000000000000000000000000000000000000000000000000000000 PUSH0 MSTORE PUSH1 0x41 PUSH1 0x4 MSTORE PUSH1 0x24 PUSH0 REVERT JUMPDEST PUSH32 0x4E487B7100000000000000000000000000000000000000000000000000000000 PUSH0 MSTORE PUSH1 0x22 PUSH1 0x4 MSTORE PUSH1 0x24 PUSH0 REVERT JUMPDEST PUSH0 PUSH1 0x2 DUP3 DIV SWAP1 POP PUSH1 0x1 DUP3 AND DUP1 PUSH2 0x51C JUMPI PUSH1 0x7F DUP3 AND SWAP2 POP JUMPDEST PUSH1 0x20 DUP3 LT DUP2 SUB PUSH2 0x52F JUMPI PUSH2 0x52E PUSH2 0x4D8 JUMP JUMPDEST JUMPDEST POP SWAP2 SWAP1 POP JUMP JUMPDEST PUSH0 DUP2 SWAP1 POP DUP2 PUSH0 MSTORE PUSH1 0x20 PUSH0 KECCAK256 SWAP1 POP SWAP2 SWAP1 POP JUMP JUMPDEST PUSH0 PUSH1 0x20 PUSH1 0x1F DUP4 ADD DIV SWAP1 POP SWAP2 SWAP1 POP JUMP JUMPDEST PUSH0 DUP3 DUP3 SHL SWAP1 POP SWAP3 SWAP2 POP POP JUMP JUMPDEST PUSH0 PUSH1 0x8 DUP4 MUL PUSH2 0x591 PUSH32 0xFFFFFFFFFFFFFFFFFFFFFFFFFFFFFFFFFFFFFFFFFFFFFFFFFFFFFFFFFFFFFFFF DUP3 PUSH2 0x556 JUMP JUMPDEST PUSH2 0x59B DUP7 DUP4 PUSH2 0x556 JUMP JUMPDEST SWAP6 POP DUP1 NOT DUP5 AND SWAP4 POP DUP1 DUP7 AND DUP5 OR SWAP3 POP POP POP SWAP4 SWAP3 POP POP POP JUMP JUMPDEST PUSH0 DUP2 SWAP1 POP SWAP2 SWAP1 POP JUMP JUMPDEST PUSH0 DUP2 SWAP1 POP SWAP2 SWAP1 POP JUMP JUMPDEST PUSH0 PUSH2 0x5DF PUSH2 0x5DA PUSH2 0x5D5 DUP5 PUSH2 0x5B3 JUMP JUMPDEST PUSH2 0x5BC JUMP JUMPDEST PUSH2 0x5B3 JUMP JUMPDEST SWAP1 POP SWAP2 SWAP1 POP JUMP JUMPDEST PUSH0 DUP2 SWAP1 POP SWAP2 SWAP1 POP JUMP JUMPDEST PUSH2 0x5F8 DUP4 PUSH2 0x5C5 JUMP JUMPDEST PUSH2 0x60C PUSH2 0x604 DUP3 PUSH2 0x5E6 JUMP JUMPDEST DUP5 DUP5 SLOAD PUSH2 0x562 JUMP JUMPDEST DUP3 SSTORE POP POP POP POP JUMP JUMPDEST PUSH0 SWAP1 JUMP JUMPDEST PUSH2 0x620 PUSH2 0x614 JUMP JUMPDEST PUSH2 0x62B DUP2 DUP5 DUP5 PUSH2 0x5EF JUMP JUMPDEST POP POP POP JUMP JUMPDEST JUMPDEST DUP2 DUP2 LT ISZERO PUSH2 0x64E JUMPI PUSH2 0x643 PUSH0 DUP3 PUSH2 0x618 JUMP JUMPDEST PUSH1 0x1 DUP2 ADD SWAP1 POP PUSH2 0x631 JUMP JUMPDEST POP POP JUMP JUMPDEST PUSH1 0x1F DUP3 GT ISZERO PUSH2 0x693 JUMPI PUSH2 0x664 DUP2 PUSH2 0x535 JUMP JUMPDEST PUSH2 0x66D DUP5 PUSH2 0x547 JUMP JUMPDEST DUP2 ADD PUSH1 0x20 DUP6 LT ISZERO PUSH2 0x67C JUMPI DUP2 SWAP1 POP JUMPDEST PUSH2 0x690 PUSH2 0x688 DUP6 PUSH2 0x547 JUMP JUMPDEST DUP4 ADD DUP3 PUSH2 0x630 JUMP JUMPDEST POP POP JUMPDEST POP POP POP JUMP JUMPDEST PUSH0 DUP3 DUP3 SHR SWAP1 POP SWAP3 SWAP2 POP POP JUMP JUMPDEST PUSH0 PUSH2 0x6B3 PUSH0 NOT DUP5 PUSH1 0x8 MUL PUSH2 0x698 JUMP JUMPDEST NOT DUP1 DUP4 AND SWAP2 POP POP SWAP3 SWAP2 POP POP JUMP JUMPDEST PUSH0 PUSH2 0x6CB DUP4 DUP4 PUSH2 0x6A4 JUMP JUMPDEST SWAP2 POP DUP3 PUSH1 0x2 MUL DUP3 OR SWAP1 POP SWAP3 SWAP2 POP POP JUMP JUMPDEST PUSH2 0x6E4 DUP3 PUSH2 0x4A1 JUMP JUMPDEST PUSH8 0xFFFFFFFFFFFFFFFF DUP2 GT ISZERO PUSH2 0x6FD JUMPI PUSH2 0x6FC PUSH2 0x4AB JUMP JUMPDEST JUMPDEST PUSH2 0x707 DUP3 SLOAD PUSH2 0x505 JUMP JUMPDEST PUSH2 0x712 DUP3 DUP3 DUP6 PUSH2 0x652 JUMP JUMPDEST PUSH0 PUSH1 0x20 SWAP1 POP PUSH1 0x1F DUP4 GT PUSH1 0x1 DUP2 EQ PUSH2 0x743 JUMPI PUSH0 DUP5 ISZERO PUSH2 0x731 JUMPI DUP3 DUP8 ADD MLOAD SWAP1 POP JUMPDEST PUSH2 0x73B DUP6 DUP3 PUSH2 0x6C0 JUMP JUMPDEST DUP7 SSTORE POP PUSH2 0x7A2 JUMP JUMPDEST PUSH1 0x1F NOT DUP5 AND PUSH2 0x751 DUP7 PUSH2 0x535 JUMP JUMPDEST PUSH0 JUMPDEST DUP3 DUP2 LT ISZERO PUSH2 0x778 JUMPI DUP5 DUP10 ADD MLOAD DUP3 SSTORE PUSH1 0x1 DUP3 ADD SWAP2 POP PUSH1 0x20 DUP6 ADD SWAP5 POP PUSH1 0x20 DUP2 ADD SWAP1 POP PUSH2 0x753 JUMP JUMPDEST DUP7 DUP4 LT ISZERO PUSH2 0x795 JUMPI DUP5 DUP10 ADD MLOAD PUSH2 0x791 PUSH1 0x1F DUP10 AND DUP3 PUSH2 0x6A4 JUMP JUMPDEST DUP4 SSTORE POP JUMPDEST PUSH1 0x1 PUSH1 0x2 DUP9 MUL ADD DUP9 SSTORE POP POP POP JUMPDEST POP POP POP POP POP POP JUMP JUMPDEST PUSH0 PUSH20 0xFFFFFFFFFFFFFFFFFFFFFFFFFFFFFFFFFFFFFFFF DUP3 AND SWAP1 POP SWAP2 SWAP1 POP JUMP JUMPDEST PUSH0 PUSH2 0x7D3 DUP3 PUSH2 0x7AA JUMP JUMPDEST SWAP1 POP SWAP2 SWAP1 POP JUMP JUMPDEST PUSH2 0x7E3 DUP2 PUSH2 0x7C9 JUMP JUMPDEST DUP3 MSTORE POP POP JUMP JUMPDEST PUSH0 PUSH1 0x20 DUP3 ADD SWAP1 POP PUSH2 0x7FC PUSH0 DUP4 ADD DUP5 PUSH2 0x7DA JUMP JUMPDEST SWAP3 SWAP2 POP POP JUMP JUMPDEST PUSH32 0x4E487B7100000000000000000000000000000000000000000000000000000000 PUSH0 MSTORE PUSH1 0x11 PUSH1 0x4 MSTORE PUSH1 0x24 PUSH0 REVERT JUMPDEST PUSH0 PUSH2 0x839 DUP3 PUSH2 0x5B3 JUMP JUMPDEST SWAP2 POP PUSH2 0x844 DUP4 PUSH2 0x5B3 JUMP JUMPDEST SWAP3 POP DUP3 DUP3 ADD SWAP1 POP DUP1 DUP3 GT ISZERO PUSH2 0x85C JUMPI PUSH2 0x85B PUSH2 0x802 JUMP JUMPDEST JUMPDEST SWAP3 SWAP2 POP POP JUMP JUMPDEST PUSH2 0x86B DUP2 PUSH2 0x5B3 JUMP JUMPDEST DUP3 MSTORE POP POP JUMP JUMPDEST PUSH0 PUSH1 0x60 DUP3 ADD SWAP1 POP PUSH2 0x884 PUSH0 DUP4 ADD DUP7 PUSH2 0x7DA JUMP JUMPDEST PUSH2 0x891 PUSH1 0x20 DUP4 ADD DUP6 PUSH2 0x862 JUMP JUMPDEST PUSH2 0x89E PUSH1 0x40 DUP4 ADD DUP5 PUSH2 0x862 JUMP JUMPDEST SWAP5 SWAP4 POP POP POP POP JUMP JUMPDEST PUSH0 PUSH1 0x20 DUP3 ADD SWAP1 POP PUSH2 0x8B9 PUSH0 DUP4 ADD DUP5 PUSH2 0x862 JUMP JUMPDEST SWAP3 SWAP2 POP POP JUMP JUMPDEST PUSH2 0x1F4E DUP1 PUSH2 0x8CC PUSH0 CODECOPY PUSH0 RETURN INVALID PUSH1 0x80 PUSH1 0x40 MSTORE CALLVALUE DUP1 ISZERO PUSH2 0xF JUMPI PUSH0 DUP1 REVERT JUMPDEST POP PUSH1 0x4 CALLDATASIZE LT PUSH2 0x140 JUMPI PUSH0 CALLDATALOAD PUSH1 0xE0 SHR DUP1 PUSH4 0x715018A6 GT PUSH2 0xB6 JUMPI DUP1 PUSH4 0xAFE8289A GT PUSH2 0x7A JUMPI DUP1 PUSH4 0xAFE8289A EQ PUSH2 0x350 JUMPI DUP1 PUSH4 0xC8052107 EQ PUSH2 0x36C JUMPI DUP1 PUSH4 0xD82E3962 EQ PUSH2 0x388 JUMPI DUP1 PUSH4 0xDD62ED3E EQ PUSH2 0x3B8 JUMPI DUP1 PUSH4 0xF2FDE38B EQ PUSH2 0x3E8 JUMPI DUP1 PUSH4 0xFC6D483A EQ PUSH2 0x404 JUMPI PUSH2 0x140 JUMP JUMPDEST DUP1 PUSH4 0x715018A6 EQ PUSH2 0x2BE JUMPI DUP1 PUSH4 0x79CC6790 EQ PUSH2 0x2C8 JUMPI DUP1 PUSH4 0x8DA5CB5B EQ PUSH2 0x2E4 JUMPI DUP1 PUSH4 0x95D89B41 EQ PUSH2 0x302 JUMPI DUP1 PUSH4 0xA9059CBB EQ PUSH2 0x320 JUMPI PUSH2 0x140 JUMP JUMPDEST DUP1 PUSH4 0x2FF2E9DC GT PUSH2 0x108 JUMPI DUP1 PUSH4 0x2FF2E9DC EQ PUSH2 0x1FC JUMPI DUP1 PUSH4 0x313CE567 EQ PUSH2 0x21A JUMPI DUP1 PUSH4 0x32CB6B0C EQ PUSH2 0x238 JUMPI DUP1 PUSH4 0x42966C68 EQ PUSH2 0x256 JUMPI DUP1 PUSH4 0x51C6590A EQ PUSH2 0x272 JUMPI DUP1 PUSH4 0x70A08231 EQ PUSH2 0x28E JUMPI PUSH2 0x140 JUMP JUMPDEST DUP1 PUSH4 0x6FDDE03 EQ PUSH2 0x144 JUMPI DUP1 PUSH4 0x95EA7B3 EQ PUSH2 0x162 JUMPI DUP1 PUSH4 0x18160DDD EQ PUSH2 0x192 JUMPI DUP1 PUSH4 0x2254B79C EQ PUSH2 0x1B0 JUMPI DUP1 PUSH4 0x23B872DD EQ PUSH2 0x1CC JUMPI JUMPDEST PUSH0 DUP1 REVERT JUMPDEST PUSH2 0x14C PUSH2 0x420 JUMP JUMPDEST PUSH1 0x40 MLOAD PUSH2 0x159 SWAP2 SWAP1 PUSH2 0x1877 JUMP JUMPDEST PUSH1 0x40 MLOAD DUP1 SWAP2 SUB SWAP1 RETURN JUMPDEST PUSH2 0x17C PUSH1 0x4 DUP1 CALLDATASIZE SUB DUP2 ADD SWAP1 PUSH2 0x177 SWAP2 SWAP1 PUSH2 0x1928 JUMP JUMPDEST PUSH2 0x4B0 JUMP JUMPDEST PUSH1 0x40 MLOAD PUSH2 0x189 SWAP2 SWAP1 PUSH2 0x1980 JUMP JUMPDEST PUSH1 0x40 MLOAD DUP1 SWAP2 SUB SWAP1 RETURN JUMPDEST PUSH2 0x19A PUSH2 0x4D2 JUMP JUMPDEST PUSH1 0x40 MLOAD PUSH2 0x1A7 SWAP2 SWAP1 PUSH2 0x19A8 JUMP JUMPDEST PUSH1 0x40 MLOAD DUP1 SWAP2 SUB SWAP1 RETURN JUMPDEST PUSH2 0x1CA PUSH1 0x4 DUP1 CALLDATASIZE SUB DUP2 ADD SWAP1 PUSH2 0x1C5 SWAP2 SWAP1 PUSH2 0x19C1 JUMP JUMPDEST PUSH2 0x4DB JUMP JUMPDEST STOP JUMPDEST PUSH2 0x1E6 PUSH1 0x4 DUP1 CALLDATASIZE SUB DUP2 ADD SWAP1 PUSH2 0x1E1 SWAP2 SWAP1 PUSH2 0x19EC JUMP JUMPDEST PUSH2 0x67E JUMP JUMPDEST PUSH1 0x40 MLOAD PUSH2 0x1F3 SWAP2 SWAP1 PUSH2 0x1980 JUMP JUMPDEST PUSH1 0x40 MLOAD DUP1 SWAP2 SUB SWAP1 RETURN JUMPDEST PUSH2 0x204 PUSH2 0x6AC JUMP JUMPDEST PUSH1 0x40 MLOAD PUSH2 0x211 SWAP2 SWAP1 PUSH2 0x19A8 JUMP JUMPDEST PUSH1 0x40 MLOAD DUP1 SWAP2 SUB SWAP1 RETURN JUMPDEST PUSH2 0x222 PUSH2 0x6B4 JUMP JUMPDEST PUSH1 0x40 MLOAD PUSH2 0x22F SWAP2 SWAP1 PUSH2 0x1A57 JUMP JUMPDEST PUSH1 0x40 MLOAD DUP1 SWAP2 SUB SWAP1 RETURN JUMPDEST PUSH2 0x240 PUSH2 0x6BC JUMP JUMPDEST PUSH1 0x40 MLOAD PUSH2 0x24D SWAP2 SWAP1 PUSH2 0x19A8 JUMP JUMPDEST PUSH1 0x40 MLOAD DUP1 SWAP2 SUB SWAP1 RETURN JUMPDEST PUSH2 0x270 PUSH1 0x4 DUP1 CALLDATASIZE SUB DUP2 ADD SWAP1 PUSH2 0x26B SWAP2 SWAP1 PUSH2 0x19C1 JUMP JUMPDEST PUSH2 0x6C6 JUMP JUMPDEST STOP JUMPDEST PUSH2 0x28C PUSH1 0x4 DUP1 CALLDATASIZE SUB DUP2 ADD SWAP1 PUSH2 0x287 SWAP2 SWAP1 PUSH2 0x19C1 JUMP JUMPDEST PUSH2 0x6DA JUMP JUMPDEST STOP JUMPDEST PUSH2 0x2A8 PUSH1 0x4 DUP1 CALLDATASIZE SUB DUP2 ADD SWAP1 PUSH2 0x2A3 SWAP2 SWAP1 PUSH2 0x1A70 JUMP JUMPDEST PUSH2 0x77D JUMP JUMPDEST PUSH1 0x40 MLOAD PUSH2 0x2B5 SWAP2 SWAP1 PUSH2 0x19A8 JUMP JUMPDEST PUSH1 0x40 MLOAD DUP1 SWAP2 SUB SWAP1 RETURN JUMPDEST PUSH2 0x2C6 PUSH2 0x7C2 JUMP JUMPDEST STOP JUMPDEST PUSH2 0x2E2 PUSH1 0x4 DUP1 CALLDATASIZE SUB DUP2 ADD SWAP1 PUSH2 0x2DD SWAP2 SWAP1 PUSH2 0x1928 JUMP JUMPDEST PUSH2 0x7D5 JUMP JUMPDEST STOP JUMPDEST PUSH2 0x2EC PUSH2 0x7F5 JUMP JUMPDEST PUSH1 0x40 MLOAD PUSH2 0x2F9 SWAP2 SWAP1 PUSH2 0x1AAA JUMP JUMPDEST PUSH1 0x40 MLOAD DUP1 SWAP2 SUB SWAP1 RETURN JUMPDEST PUSH2 0x30A PUSH2 0x81D JUMP JUMPDEST PUSH1 0x40 MLOAD PUSH2 0x317 SWAP2 SWAP1 PUSH2 0x1877 JUMP JUMPDEST PUSH1 0x40 MLOAD DUP1 SWAP2 SUB SWAP1 RETURN JUMPDEST PUSH2 0x33A PUSH1 0x4 DUP1 CALLDATASIZE SUB DUP2 ADD SWAP1 PUSH2 0x335 SWAP2 SWAP1 PUSH2 0x1928 JUMP JUMPDEST PUSH2 0x8AD JUMP JUMPDEST PUSH1 0x40 MLOAD PUSH2 0x347 SWAP2 SWAP1 PUSH2 0x1980 JUMP JUMPDEST PUSH1 0x40 MLOAD DUP1 SWAP2 SUB SWAP1 RETURN JUMPDEST PUSH2 0x36A PUSH1 0x4 DUP1 CALLDATASIZE SUB DUP2 ADD SWAP1 PUSH2 0x365 SWAP2 SWAP1 PUSH2 0x19C1 JUMP JUMPDEST PUSH2 0x8CF JUMP JUMPDEST STOP JUMPDEST PUSH2 0x386 PUSH1 0x4 DUP1 CALLDATASIZE SUB DUP2 ADD SWAP1 PUSH2 0x381 SWAP2 SWAP1 PUSH2 0x19C1 JUMP JUMPDEST PUSH2 0x987 JUMP JUMPDEST STOP JUMPDEST PUSH2 0x3A2 PUSH1 0x4 DUP1 CALLDATASIZE SUB DUP2 ADD SWAP1 PUSH2 0x39D SWAP2 SWAP1 PUSH2 0x1A70 JUMP JUMPDEST PUSH2 0xC9D JUMP JUMPDEST PUSH1 0x40 MLOAD PUSH2 0x3AF SWAP2 SWAP1 PUSH2 0x19A8 JUMP JUMPDEST PUSH1 0x40 MLOAD DUP1 SWAP2 SUB SWAP1 RETURN JUMPDEST PUSH2 0x3D2 PUSH1 0x4 DUP1 CALLDATASIZE SUB DUP2 ADD SWAP1 PUSH2 0x3CD SWAP2 SWAP1 PUSH2 0x1AC3 JUMP JUMPDEST PUSH2 0xD7C JUMP JUMPDEST PUSH1 0x40 MLOAD PUSH2 0x3DF SWAP2 SWAP1 PUSH2 0x19A8 JUMP JUMPDEST PUSH1 0x40 MLOAD DUP1 SWAP2 SUB SWAP1 RETURN JUMPDEST PUSH2 0x402 PUSH1 0x4 DUP1 CALLDATASIZE SUB DUP2 ADD SWAP1 PUSH2 0x3FD SWAP2 SWAP1 PUSH2 0x1A70 JUMP JUMPDEST PUSH2 0xDFE JUMP JUMPDEST STOP JUMPDEST PUSH2 0x41E PUSH1 0x4 DUP1 CALLDATASIZE SUB DUP2 ADD SWAP1 PUSH2 0x419 SWAP2 SWAP1 PUSH2 0x19C1 JUMP JUMPDEST PUSH2 0xE82 JUMP JUMPDEST STOP JUMPDEST PUSH1 0x60 PUSH1 0x3 DUP1 SLOAD PUSH2 0x42F SWAP1 PUSH2 0x1B2E JUMP JUMPDEST DUP1 PUSH1 0x1F ADD PUSH1 0x20 DUP1 SWAP2 DIV MUL PUSH1 0x20 ADD PUSH1 0x40 MLOAD SWAP1 DUP2 ADD PUSH1 0x40 MSTORE DUP1 SWAP3 SWAP2 SWAP1 DUP2 DUP2 MSTORE PUSH1 0x20 ADD DUP3 DUP1 SLOAD PUSH2 0x45B SWAP1 PUSH2 0x1B2E JUMP JUMPDEST DUP1 ISZERO PUSH2 0x4A6 JUMPI DUP1 PUSH1 0x1F LT PUSH2 0x47D JUMPI PUSH2 0x100 DUP1 DUP4 SLOAD DIV MUL DUP4 MSTORE SWAP2 PUSH1 0x20 ADD SWAP2 PUSH2 0x4A6 JUMP JUMPDEST DUP3 ADD SWAP2 SWAP1 PUSH0 MSTORE PUSH1 0x20 PUSH0 KECCAK256 SWAP1 JUMPDEST DUP2 SLOAD DUP2 MSTORE SWAP1 PUSH1 0x1 ADD SWAP1 PUSH1 0x20 ADD DUP1 DUP4 GT PUSH2 0x489 JUMPI DUP3 SWAP1 SUB PUSH1 0x1F AND DUP3 ADD SWAP2 JUMPDEST POP POP POP POP POP SWAP1 POP SWAP1 JUMP JUMPDEST PUSH0 DUP1 PUSH2 0x4BA PUSH2 0xF25 JUMP JUMPDEST SWAP1 POP PUSH2 0x4C7 DUP2 DUP6 DUP6 PUSH2 0xF2C JUMP JUMPDEST PUSH1 0x1 SWAP2 POP POP SWAP3 SWAP2 POP POP JUMP JUMPDEST PUSH0 PUSH1 0x2 SLOAD SWAP1 POP SWAP1 JUMP JUMPDEST PUSH2 0x4E3 PUSH2 0xF3E JUMP JUMPDEST PUSH2 0x4EB PUSH2 0xFC5 JUMP JUMPDEST PUSH1 0x7 PUSH0 PUSH2 0x4F6 PUSH2 0x7F5 JUMP JUMPDEST PUSH20 0xFFFFFFFFFFFFFFFFFFFFFFFFFFFFFFFFFFFFFFFF AND PUSH20 0xFFFFFFFFFFFFFFFFFFFFFFFFFFFFFFFFFFFFFFFF AND DUP2 MSTORE PUSH1 0x20 ADD SWAP1 DUP2 MSTORE PUSH1 0x20 ADD PUSH0 KECCAK256 SLOAD DUP2 GT ISZERO PUSH2 0x572 JUMPI PUSH1 0x40 MLOAD PUSH32 0x8C379A000000000000000000000000000000000000000000000000000000000 DUP2 MSTORE PUSH1 0x4 ADD PUSH2 0x569 SWAP1 PUSH2 0x1BA8 JUMP JUMPDEST PUSH1 0x40 MLOAD DUP1 SWAP2 SUB SWAP1 REVERT JUMPDEST DUP1 PUSH1 0x7 PUSH0 PUSH2 0x57E PUSH2 0x7F5 JUMP JUMPDEST PUSH20 0xFFFFFFFFFFFFFFFFFFFFFFFFFFFFFFFFFFFFFFFF AND PUSH20 0xFFFFFFFFFFFFFFFFFFFFFFFFFFFFFFFFFFFFFFFF AND DUP2 MSTORE PUSH1 0x20 ADD SWAP1 DUP2 MSTORE PUSH1 0x20 ADD PUSH0 KECCAK256 PUSH0 DUP3 DUP3 SLOAD PUSH2 0x5C5 SWAP2 SWAP1 PUSH2 0x1BF3 JUMP JUMPDEST SWAP3 POP POP DUP2 SWAP1 SSTORE POP PUSH0 PUSH1 0x7 PUSH0 PUSH2 0x5D8 PUSH2 0x7F5 JUMP JUMPDEST PUSH20 0xFFFFFFFFFFFFFFFFFFFFFFFFFFFFFFFFFFFFFFFF AND PUSH20 0xFFFFFFFFFFFFFFFFFFFFFFFFFFFFFFFFFFFFFFFF AND DUP2 MSTORE PUSH1 0x20 ADD SWAP1 DUP2 MSTORE PUSH1 0x20 ADD PUSH0 KECCAK256 SLOAD SUB PUSH2 0x661 JUMPI PUSH0 PUSH1 0x8 PUSH0 PUSH2 0x623 PUSH2 0x7F5 JUMP JUMPDEST PUSH20 0xFFFFFFFFFFFFFFFFFFFFFFFFFFFFFFFFFFFFFFFF AND PUSH20 0xFFFFFFFFFFFFFFFFFFFFFFFFFFFFFFFFFFFFFFFF AND DUP2 MSTORE PUSH1 0x20 ADD SWAP1 DUP2 MSTORE PUSH1 0x20 ADD PUSH0 KECCAK256 DUP2 SWAP1 SSTORE POP JUMPDEST PUSH2 0x673 ADDRESS PUSH2 0x66D PUSH2 0x7F5 JUMP JUMPDEST DUP4 PUSH2 0x1014 JUMP JUMPDEST PUSH2 0x67B PUSH2 0x10D2 JUMP JUMPDEST POP JUMP JUMPDEST PUSH0 DUP1 PUSH2 0x688 PUSH2 0xF25 JUMP JUMPDEST SWAP1 POP PUSH2 0x695 DUP6 DUP3 DUP6 PUSH2 0x10DC JUMP JUMPDEST PUSH2 0x6A0 DUP6 DUP6 DUP6 PUSH2 0x1014 JUMP JUMPDEST PUSH1 0x1 SWAP2 POP POP SWAP4 SWAP3 POP POP POP JUMP JUMPDEST PUSH4 0x3B9ACA00 DUP2 JUMP JUMPDEST PUSH0 PUSH1 0x2 SWAP1 POP SWAP1 JUMP JUMPDEST PUSH6 0x48C27395000 DUP2 JUMP JUMPDEST PUSH2 0x6D7 PUSH2 0x6D1 PUSH2 0xF25 JUMP JUMPDEST DUP3 PUSH2 0x116E JUMP JUMPDEST POP JUMP JUMPDEST PUSH2 0x6E5 CALLER ADDRESS DUP4 PUSH2 0x1014 JUMP JUMPDEST DUP1 PUSH1 0x7 PUSH0 CALLER PUSH20 0xFFFFFFFFFFFFFFFFFFFFFFFFFFFFFFFFFFFFFFFF AND PUSH20 0xFFFFFFFFFFFFFFFFFFFFFFFFFFFFFFFFFFFFFFFF AND DUP2 MSTORE PUSH1 0x20 ADD SWAP1 DUP2 MSTORE PUSH1 0x20 ADD PUSH0 KECCAK256 PUSH0 DUP3 DUP3 SLOAD PUSH2 0x731 SWAP2 SWAP1 PUSH2 0x1C26 JUMP JUMPDEST SWAP3 POP POP DUP2 SWAP1 SSTORE POP TIMESTAMP PUSH1 0x8 PUSH0 CALLER PUSH20 0xFFFFFFFFFFFFFFFFFFFFFFFFFFFFFFFFFFFFFFFF AND PUSH20 0xFFFFFFFFFFFFFFFFFFFFFFFFFFFFFFFFFFFFFFFF AND DUP2 MSTORE PUSH1 0x20 ADD SWAP1 DUP2 MSTORE PUSH1 0x20 ADD PUSH0 KECCAK256 DUP2 SWAP1 SSTORE POP POP JUMP JUMPDEST PUSH0 DUP1 PUSH0 DUP4 PUSH20 0xFFFFFFFFFFFFFFFFFFFFFFFFFFFFFFFFFFFFFFFF AND PUSH20 0xFFFFFFFFFFFFFFFFFFFFFFFFFFFFFFFFFFFFFFFF AND DUP2 MSTORE PUSH1 0x20 ADD SWAP1 DUP2 MSTORE PUSH1 0x20 ADD PUSH0 KECCAK256 SLOAD SWAP1 POP SWAP2 SWAP1 POP JUMP JUMPDEST PUSH2 0x7CA PUSH2 0xF3E JUMP JUMPDEST PUSH2 0x7D3 PUSH0 PUSH2 0x11ED JUMP JUMPDEST JUMP JUMPDEST PUSH2 0x7E7 DUP3 PUSH2 0x7E1 PUSH2 0xF25 JUMP JUMPDEST DUP4 PUSH2 0x10DC JUMP JUMPDEST PUSH2 0x7F1 DUP3 DUP3 PUSH2 0x116E JUMP JUMPDEST POP POP JUMP JUMPDEST PUSH0 PUSH1 0x5 PUSH0 SWAP1 SLOAD SWAP1 PUSH2 0x100 EXP SWAP1 DIV PUSH20 0xFFFFFFFFFFFFFFFFFFFFFFFFFFFFFFFFFFFFFFFF AND SWAP1 POP SWAP1 JUMP JUMPDEST PUSH1 0x60 PUSH1 0x4 DUP1 SLOAD PUSH2 0x82C SWAP1 PUSH2 0x1B2E JUMP JUMPDEST DUP1 PUSH1 0x1F ADD PUSH1 0x20 DUP1 SWAP2 DIV MUL PUSH1 0x20 ADD PUSH1 0x40 MLOAD SWAP1 DUP2 ADD PUSH1 0x40 MSTORE DUP1 SWAP3 SWAP2 SWAP1 DUP2 DUP2 MSTORE PUSH1 0x20 ADD DUP3 DUP1 SLOAD PUSH2 0x858 SWAP1 PUSH2 0x1B2E JUMP JUMPDEST DUP1 ISZERO PUSH2 0x8A3 JUMPI DUP1 PUSH1 0x1F LT PUSH2 0x87A JUMPI PUSH2 0x100 DUP1 DUP4 SLOAD DIV MUL DUP4 MSTORE SWAP2 PUSH1 0x20 ADD SWAP2 PUSH2 0x8A3 JUMP JUMPDEST DUP3 ADD SWAP2 SWAP1 PUSH0 MSTORE PUSH1 0x20 PUSH0 KECCAK256 SWAP1 JUMPDEST DUP2 SLOAD DUP2 MSTORE SWAP1 PUSH1 0x1 ADD SWAP1 PUSH1 0x20 ADD DUP1 DUP4 GT PUSH2 0x886 JUMPI DUP3 SWAP1 SUB PUSH1 0x1F AND DUP3 ADD SWAP2 JUMPDEST POP POP POP POP POP SWAP1 POP SWAP1 JUMP JUMPDEST PUSH0 DUP1 PUSH2 0x8B7 PUSH2 0xF25 JUMP JUMPDEST SWAP1 POP PUSH2 0x8C4 DUP2 DUP6 DUP6 PUSH2 0x1014 JUMP JUMPDEST PUSH1 0x1 SWAP2 POP POP SWAP3 SWAP2 POP POP JUMP JUMPDEST PUSH2 0x8D7 PUSH2 0xF3E JUMP JUMPDEST DUP1 PUSH1 0x7 PUSH0 PUSH2 0x8E3 PUSH2 0x7F5 JUMP JUMPDEST PUSH20 0xFFFFFFFFFFFFFFFFFFFFFFFFFFFFFFFFFFFFFFFF AND PUSH20 0xFFFFFFFFFFFFFFFFFFFFFFFFFFFFFFFFFFFFFFFF AND DUP2 MSTORE PUSH1 0x20 ADD SWAP1 DUP2 MSTORE PUSH1 0x20 ADD PUSH0 KECCAK256 PUSH0 DUP3 DUP3 SLOAD PUSH2 0x92A SWAP2 SWAP1 PUSH2 0x1C26 JUMP JUMPDEST SWAP3 POP POP DUP2 SWAP1 SSTORE POP TIMESTAMP PUSH1 0x8 PUSH0 PUSH2 0x93D PUSH2 0x7F5 JUMP JUMPDEST PUSH20 0xFFFFFFFFFFFFFFFFFFFFFFFFFFFFFFFFFFFFFFFF AND PUSH20 0xFFFFFFFFFFFFFFFFFFFFFFFFFFFFFFFFFFFFFFFF AND DUP2 MSTORE PUSH1 0x20 ADD SWAP1 DUP2 MSTORE PUSH1 0x20 ADD PUSH0 KECCAK256 DUP2 SWAP1 SSTORE POP PUSH2 0x984 ADDRESS DUP3 PUSH2 0x12B0 JUMP JUMPDEST POP JUMP JUMPDEST PUSH2 0x98F PUSH2 0xFC5 JUMP JUMPDEST PUSH1 0x7 PUSH0 CALLER PUSH20 0xFFFFFFFFFFFFFFFFFFFFFFFFFFFFFFFFFFFFFFFF AND PUSH20 0xFFFFFFFFFFFFFFFFFFFFFFFFFFFFFFFFFFFFFFFF AND DUP2 MSTORE PUSH1 0x20 ADD SWAP1 DUP2 MSTORE PUSH1 0x20 ADD PUSH0 KECCAK256 SLOAD DUP2 GT ISZERO PUSH2 0xA0F JUMPI PUSH1 0x40 MLOAD PUSH32 0x8C379A000000000000000000000000000000000000000000000000000000000 DUP2 MSTORE PUSH1 0x4 ADD PUSH2 0xA06 SWAP1 PUSH2 0x1BA8 JUMP JUMPDEST PUSH1 0x40 MLOAD DUP1 SWAP2 SUB SWAP1 REVERT JUMPDEST PUSH3 0x278D00 PUSH1 0x8 PUSH0 CALLER PUSH20 0xFFFFFFFFFFFFFFFFFFFFFFFFFFFFFFFFFFFFFFFF AND PUSH20 0xFFFFFFFFFFFFFFFFFFFFFFFFFFFFFFFFFFFFFFFF AND DUP2 MSTORE PUSH1 0x20 ADD SWAP1 DUP2 MSTORE PUSH1 0x20 ADD PUSH0 KECCAK256 SLOAD PUSH2 0xA5B SWAP2 SWAP1 PUSH2 0x1C26 JUMP JUMPDEST TIMESTAMP LT ISZERO PUSH2 0xA9D JUMPI PUSH1 0x40 MLOAD PUSH32 0x8C379A000000000000000000000000000000000000000000000000000000000 DUP2 MSTORE PUSH1 0x4 ADD PUSH2 0xA94 SWAP1 PUSH2 0x1CEF JUMP JUMPDEST PUSH1 0x40 MLOAD DUP1 SWAP2 SUB SWAP1 REVERT JUMPDEST PUSH0 PUSH2 0xAA7 CALLER PUSH2 0xC9D JUMP JUMPDEST SWAP1 POP PUSH6 0x48C27395000 DUP2 PUSH2 0xAB9 PUSH2 0x4D2 JUMP JUMPDEST PUSH2 0xAC3 SWAP2 SWAP1 PUSH2 0x1C26 JUMP JUMPDEST GT ISZERO PUSH2 0xB04 JUMPI PUSH1 0x40 MLOAD PUSH32 0x8C379A000000000000000000000000000000000000000000000000000000000 DUP2 MSTORE PUSH1 0x4 ADD PUSH2 0xAFB SWAP1 PUSH2 0x1D57 JUMP JUMPDEST PUSH1 0x40 MLOAD DUP1 SWAP2 SUB SWAP1 REVERT JUMPDEST PUSH0 DUP2 GT ISZERO PUSH2 0xB65 JUMPI PUSH2 0xB16 CALLER DUP3 PUSH2 0x12B0 JUMP JUMPDEST CALLER PUSH20 0xFFFFFFFFFFFFFFFFFFFFFFFFFFFFFFFFFFFFFFFF AND PUSH32 0x106F923F993C2149D49B4255FF723ACAFA1F2D94393F561D3EDA32AE348F7241 DUP3 PUSH1 0x40 MLOAD PUSH2 0xB5C SWAP2 SWAP1 PUSH2 0x19A8 JUMP JUMPDEST PUSH1 0x40 MLOAD DUP1 SWAP2 SUB SWAP1 LOG2 JUMPDEST PUSH2 0xB70 ADDRESS CALLER DUP5 PUSH2 0x1014 JUMP JUMPDEST DUP2 PUSH1 0x7 PUSH0 CALLER PUSH20 0xFFFFFFFFFFFFFFFFFFFFFFFFFFFFFFFFFFFFFFFF AND PUSH20 0xFFFFFFFFFFFFFFFFFFFFFFFFFFFFFFFFFFFFFFFF AND DUP2 MSTORE PUSH1 0x20 ADD SWAP1 DUP2 MSTORE PUSH1 0x20 ADD PUSH0 KECCAK256 PUSH0 DUP3 DUP3 SLOAD PUSH2 0xBBC SWAP2 SWAP1 PUSH2 0x1BF3 JUMP JUMPDEST SWAP3 POP POP DUP2 SWAP1 SSTORE POP PUSH0 PUSH1 0x7 PUSH0 CALLER PUSH20 0xFFFFFFFFFFFFFFFFFFFFFFFFFFFFFFFFFFFFFFFF AND PUSH20 0xFFFFFFFFFFFFFFFFFFFFFFFFFFFFFFFFFFFFFFFF AND DUP2 MSTORE PUSH1 0x20 ADD SWAP1 DUP2 MSTORE PUSH1 0x20 ADD PUSH0 KECCAK256 SLOAD SUB PUSH2 0xC4E JUMPI PUSH0 PUSH1 0x8 PUSH0 CALLER PUSH20 0xFFFFFFFFFFFFFFFFFFFFFFFFFFFFFFFFFFFFFFFF AND PUSH20 0xFFFFFFFFFFFFFFFFFFFFFFFFFFFFFFFFFFFFFFFF AND DUP2 MSTORE PUSH1 0x20 ADD SWAP1 DUP2 MSTORE PUSH1 0x20 ADD PUSH0 KECCAK256 DUP2 SWAP1 SSTORE POP PUSH2 0xC91 JUMP JUMPDEST TIMESTAMP PUSH1 0x8 PUSH0 CALLER PUSH20 0xFFFFFFFFFFFFFFFFFFFFFFFFFFFFFFFFFFFFFFFF AND PUSH20 0xFFFFFFFFFFFFFFFFFFFFFFFFFFFFFFFFFFFFFFFF AND DUP2 MSTORE PUSH1 0x20 ADD SWAP1 DUP2 MSTORE PUSH1 0x20 ADD PUSH0 KECCAK256 DUP2 SWAP1 SSTORE POP JUMPDEST POP PUSH2 0xC9A PUSH2 0x10D2 JUMP JUMPDEST POP JUMP JUMPDEST PUSH0 PUSH3 0x278D00 PUSH1 0x8 PUSH0 DUP5 PUSH20 0xFFFFFFFFFFFFFFFFFFFFFFFFFFFFFFFFFFFFFFFF AND PUSH20 0xFFFFFFFFFFFFFFFFFFFFFFFFFFFFFFFFFFFFFFFF AND DUP2 MSTORE PUSH1 0x20 ADD SWAP1 DUP2 MSTORE PUSH1 0x20 ADD PUSH0 KECCAK256 SLOAD PUSH2 0xCEA SWAP2 SWAP1 PUSH2 0x1C26 JUMP JUMPDEST TIMESTAMP LT PUSH2 0xD73 JUMPI PUSH0 PUSH1 0x64 PUSH1 0x5 PUSH1 0x7 PUSH0 DUP7 PUSH20 0xFFFFFFFFFFFFFFFFFFFFFFFFFFFFFFFFFFFFFFFF AND PUSH20 0xFFFFFFFFFFFFFFFFFFFFFFFFFFFFFFFFFFFFFFFF AND DUP2 MSTORE PUSH1 0x20 ADD SWAP1 DUP2 MSTORE PUSH1 0x20 ADD PUSH0 KECCAK256 SLOAD PUSH2 0xD3D SWAP2 SWAP1 PUSH2 0x1D75 JUMP JUMPDEST PUSH2 0xD47 SWAP2 SWAP1 PUSH2 0x1DE3 JUMP JUMPDEST SWAP1 POP PUSH6 0x48C27395000 DUP2 PUSH2 0xD59 PUSH2 0x4D2 JUMP JUMPDEST PUSH2 0xD63 SWAP2 SWAP1 PUSH2 0x1C26 JUMP JUMPDEST GT PUSH2 0xD71 JUMPI DUP1 SWAP2 POP POP PUSH2 0xD77 JUMP JUMPDEST POP JUMPDEST PUSH0 SWAP1 POP JUMPDEST SWAP2 SWAP1 POP JUMP JUMPDEST PUSH0 PUSH1 0x1 PUSH0 DUP5 PUSH20 0xFFFFFFFFFFFFFFFFFFFFFFFFFFFFFFFFFFFFFFFF AND PUSH20 0xFFFFFFFFFFFFFFFFFFFFFFFFFFFFFFFFFFFFFFFF AND DUP2 MSTORE PUSH1 0x20 ADD SWAP1 DUP2 MSTORE PUSH1 0x20 ADD PUSH0 KECCAK256 PUSH0 DUP4 PUSH20 0xFFFFFFFFFFFFFFFFFFFFFFFFFFFFFFFFFFFFFFFF AND PUSH20 0xFFFFFFFFFFFFFFFFFFFFFFFFFFFFFFFFFFFFFFFF AND DUP2 MSTORE PUSH1 0x20 ADD SWAP1 DUP2 MSTORE PUSH1 0x20 ADD PUSH0 KECCAK256 SLOAD SWAP1 POP SWAP3 SWAP2 POP POP JUMP JUMPDEST PUSH2 0xE06 PUSH2 0xF3E JUMP JUMPDEST PUSH0 PUSH20 0xFFFFFFFFFFFFFFFFFFFFFFFFFFFFFFFFFFFFFFFF AND DUP2 PUSH20 0xFFFFFFFFFFFFFFFFFFFFFFFFFFFFFFFFFFFFFFFF AND SUB PUSH2 0xE76 JUMPI PUSH0 PUSH1 0x40 MLOAD PUSH32 0x1E4FBDF700000000000000000000000000000000000000000000000000000000 DUP2 MSTORE PUSH1 0x4 ADD PUSH2 0xE6D SWAP2 SWAP1 PUSH2 0x1AAA JUMP JUMPDEST PUSH1 0x40 MLOAD DUP1 SWAP2 SUB SWAP1 REVERT JUMPDEST PUSH2 0xE7F DUP2 PUSH2 0x11ED JUMP JUMPDEST POP JUMP JUMPDEST PUSH2 0xE8D ADDRESS CALLER DUP4 PUSH2 0x1014 JUMP JUMPDEST DUP1 PUSH1 0x7 PUSH0 CALLER PUSH20 0xFFFFFFFFFFFFFFFFFFFFFFFFFFFFFFFFFFFFFFFF AND PUSH20 0xFFFFFFFFFFFFFFFFFFFFFFFFFFFFFFFFFFFFFFFF AND DUP2 MSTORE PUSH1 0x20 ADD SWAP1 DUP2 MSTORE PUSH1 0x20 ADD PUSH0 KECCAK256 PUSH0 DUP3 DUP3 SLOAD PUSH2 0xED9 SWAP2 SWAP1 PUSH2 0x1BF3 JUMP JUMPDEST SWAP3 POP POP DUP2 SWAP1 SSTORE POP TIMESTAMP PUSH1 0x8 PUSH0 CALLER PUSH20 0xFFFFFFFFFFFFFFFFFFFFFFFFFFFFFFFFFFFFFFFF AND PUSH20 0xFFFFFFFFFFFFFFFFFFFFFFFFFFFFFFFFFFFFFFFF AND DUP2 MSTORE PUSH1 0x20 ADD SWAP1 DUP2 MSTORE PUSH1 0x20 ADD PUSH0 KECCAK256 DUP2 SWAP1 SSTORE POP POP JUMP JUMPDEST PUSH0 CALLER SWAP1 POP SWAP1 JUMP JUMPDEST PUSH2 0xF39 DUP4 DUP4 DUP4 PUSH1 0x1 PUSH2 0x132F JUMP JUMPDEST POP POP POP JUMP JUMPDEST PUSH2 0xF46 PUSH2 0xF25 JUMP JUMPDEST PUSH20 0xFFFFFFFFFFFFFFFFFFFFFFFFFFFFFFFFFFFFFFFF AND PUSH2 0xF64 PUSH2 0x7F5 JUMP JUMPDEST PUSH20 0xFFFFFFFFFFFFFFFFFFFFFFFFFFFFFFFFFFFFFFFF AND EQ PUSH2 0xFC3 JUMPI PUSH2 0xF87 PUSH2 0xF25 JUMP JUMPDEST PUSH1 0x40 MLOAD PUSH32 0x118CDAA700000000000000000000000000000000000000000000000000000000 DUP2 MSTORE PUSH1 0x4 ADD PUSH2 0xFBA SWAP2 SWAP1 PUSH2 0x1AAA JUMP JUMPDEST PUSH1 0x40 MLOAD DUP1 SWAP2 SUB SWAP1 REVERT JUMPDEST JUMP JUMPDEST PUSH1 0x2 PUSH1 0x6 SLOAD SUB PUSH2 0x100A JUMPI PUSH1 0x40 MLOAD PUSH32 0x8C379A000000000000000000000000000000000000000000000000000000000 DUP2 MSTORE PUSH1 0x4 ADD PUSH2 0x1001 SWAP1 PUSH2 0x1E5D JUMP JUMPDEST PUSH1 0x40 MLOAD DUP1 SWAP2 SUB SWAP1 REVERT JUMPDEST PUSH1 0x2 PUSH1 0x6 DUP2 SWAP1 SSTORE POP JUMP JUMPDEST PUSH0 PUSH3 0x186A0 DUP3 PUSH2 0x1024 SWAP2 SWAP1 PUSH2 0x1DE3 JUMP JUMPDEST SWAP1 POP PUSH0 DUP2 DUP4 PUSH2 0x1033 SWAP2 SWAP1 PUSH2 0x1BF3 JUMP JUMPDEST SWAP1 POP DUP2 DUP2 PUSH2 0x1041 SWAP2 SWAP1 PUSH2 0x1C26 JUMP JUMPDEST DUP4 EQ PUSH2 0x1082 JUMPI PUSH1 0x40 MLOAD PUSH32 0x8C379A000000000000000000000000000000000000000000000000000000000 DUP2 MSTORE PUSH1 0x4 ADD PUSH2 0x1079 SWAP1 PUSH2 0x1EC5 JUMP JUMPDEST PUSH1 0x40 MLOAD DUP1 SWAP2 SUB SWAP1 REVERT JUMPDEST CALLER PUSH20 0xFFFFFFFFFFFFFFFFFFFFFFFFFFFFFFFFFFFFFFFF AND DUP6 PUSH20 0xFFFFFFFFFFFFFFFFFFFFFFFFFFFFFFFFFFFFFFFF AND EQ PUSH2 0x10C0 JUMPI PUSH2 0x10BF DUP6 DUP4 PUSH2 0x116E JUMP JUMPDEST JUMPDEST PUSH2 0x10CB DUP6 DUP6 DUP4 PUSH2 0x14FE JUMP JUMPDEST POP POP POP POP POP JUMP JUMPDEST PUSH1 0x1 PUSH1 0x6 DUP2 SWAP1 SSTORE POP JUMP JUMPDEST PUSH0 PUSH2 0x10E7 DUP5 DUP5 PUSH2 0xD7C JUMP JUMPDEST SWAP1 POP PUSH32 0xFFFFFFFFFFFFFFFFFFFFFFFFFFFFFFFFFFFFFFFFFFFFFFFFFFFFFFFFFFFFFFFF DUP2 EQ PUSH2 0x1168 JUMPI DUP2 DUP2 LT ISZERO PUSH2 0x1159 JUMPI DUP3 DUP2 DUP4 PUSH1 0x40 MLOAD PUSH32 0xFB8F41B200000000000000000000000000000000000000000000000000000000 DUP2 MSTORE PUSH1 0x4 ADD PUSH2 0x1150 SWAP4 SWAP3 SWAP2 SWAP1 PUSH2 0x1EE3 JUMP JUMPDEST PUSH1 0x40 MLOAD DUP1 SWAP2 SUB SWAP1 REVERT JUMPDEST PUSH2 0x1167 DUP5 DUP5 DUP5 DUP5 SUB PUSH0 PUSH2 0x132F JUMP JUMPDEST JUMPDEST POP POP POP POP JUMP JUMPDEST PUSH0 PUSH20 0xFFFFFFFFFFFFFFFFFFFFFFFFFFFFFFFFFFFFFFFF AND DUP3 PUSH20 0xFFFFFFFFFFFFFFFFFFFFFFFFFFFFFFFFFFFFFFFF AND SUB PUSH2 0x11DE JUMPI PUSH0 PUSH1 0x40 MLOAD PUSH32 0x96C6FD1E00000000000000000000000000000000000000000000000000000000 DUP2 MSTORE PUSH1 0x4 ADD PUSH2 0x11D5 SWAP2 SWAP1 PUSH2 0x1AAA JUMP JUMPDEST PUSH1 0x40 MLOAD DUP1 SWAP2 SUB SWAP1 REVERT JUMPDEST PUSH2 0x11E9 DUP3 PUSH0 DUP4 PUSH2 0x15EE JUMP JUMPDEST POP POP JUMP JUMPDEST PUSH0 PUSH1 0x5 PUSH0 SWAP1 SLOAD SWAP1 PUSH2 0x100 EXP SWAP1 DIV PUSH20 0xFFFFFFFFFFFFFFFFFFFFFFFFFFFFFFFFFFFFFFFF AND SWAP1 POP DUP2 PUSH1 0x5 PUSH0 PUSH2 0x100 EXP DUP2 SLOAD DUP2 PUSH20 0xFFFFFFFFFFFFFFFFFFFFFFFFFFFFFFFFFFFFFFFF MUL NOT AND SWAP1 DUP4 PUSH20 0xFFFFFFFFFFFFFFFFFFFFFFFFFFFFFFFFFFFFFFFF AND MUL OR SWAP1 SSTORE POP DUP2 PUSH20 0xFFFFFFFFFFFFFFFFFFFFFFFFFFFFFFFFFFFFFFFF AND DUP2 PUSH20 0xFFFFFFFFFFFFFFFFFFFFFFFFFFFFFFFFFFFFFFFF AND PUSH32 0x8BE0079C531659141344CD1FD0A4F28419497F9722A3DAAFE3B4186F6B6457E0 PUSH1 0x40 MLOAD PUSH1 0x40 MLOAD DUP1 SWAP2 SUB SWAP1 LOG3 POP POP JUMP JUMPDEST PUSH0 PUSH20 0xFFFFFFFFFFFFFFFFFFFFFFFFFFFFFFFFFFFFFFFF AND DUP3 PUSH20 0xFFFFFFFFFFFFFFFFFFFFFFFFFFFFFFFFFFFFFFFF AND SUB PUSH2 0x1320 JUMPI PUSH0 PUSH1 0x40 MLOAD PUSH32 0xEC442F0500000000000000000000000000000000000000000000000000000000 DUP2 MSTORE PUSH1 0x4 ADD PUSH2 0x1317 SWAP2 SWAP1 PUSH2 0x1AAA JUMP JUMPDEST PUSH1 0x40 MLOAD DUP1 SWAP2 SUB SWAP1 REVERT JUMPDEST PUSH2 0x132B PUSH0 DUP4 DUP4 PUSH2 0x15EE JUMP JUMPDEST POP POP JUMP JUMPDEST PUSH0 PUSH20 0xFFFFFFFFFFFFFFFFFFFFFFFFFFFFFFFFFFFFFFFF AND DUP5 PUSH20 0xFFFFFFFFFFFFFFFFFFFFFFFFFFFFFFFFFFFFFFFF AND SUB PUSH2 0x139F JUMPI PUSH0 PUSH1 0x40 MLOAD PUSH32 0xE602DF0500000000000000000000000000000000000000000000000000000000 DUP2 MSTORE PUSH1 0x4 ADD PUSH2 0x1396 SWAP2 SWAP1 PUSH2 0x1AAA JUMP JUMPDEST PUSH1 0x40 MLOAD DUP1 SWAP2 SUB SWAP1 REVERT JUMPDEST PUSH0 PUSH20 0xFFFFFFFFFFFFFFFFFFFFFFFFFFFFFFFFFFFFFFFF AND DUP4 PUSH20 0xFFFFFFFFFFFFFFFFFFFFFFFFFFFFFFFFFFFFFFFF AND SUB PUSH2 0x140F JUMPI PUSH0 PUSH1 0x40 MLOAD PUSH32 0x94280D6200000000000000000000000000000000000000000000000000000000 DUP2 MSTORE PUSH1 0x4 ADD PUSH2 0x1406 SWAP2 SWAP1 PUSH2 0x1AAA JUMP JUMPDEST PUSH1 0x40 MLOAD DUP1 SWAP2 SUB SWAP1 REVERT JUMPDEST DUP2 PUSH1 0x1 PUSH0 DUP7 PUSH20 0xFFFFFFFFFFFFFFFFFFFFFFFFFFFFFFFFFFFFFFFF AND PUSH20 0xFFFFFFFFFFFFFFFFFFFFFFFFFFFFFFFFFFFFFFFF AND DUP2 MSTORE PUSH1 0x20 ADD SWAP1 DUP2 MSTORE PUSH1 0x20 ADD PUSH0 KECCAK256 PUSH0 DUP6 PUSH20 0xFFFFFFFFFFFFFFFFFFFFFFFFFFFFFFFFFFFFFFFF AND PUSH20 0xFFFFFFFFFFFFFFFFFFFFFFFFFFFFFFFFFFFFFFFF AND DUP2 MSTORE PUSH1 0x20 ADD SWAP1 DUP2 MSTORE PUSH1 0x20 ADD PUSH0 KECCAK256 DUP2 SWAP1 SSTORE POP DUP1 ISZERO PUSH2 0x14F8 JUMPI DUP3 PUSH20 0xFFFFFFFFFFFFFFFFFFFFFFFFFFFFFFFFFFFFFFFF AND DUP5 PUSH20 0xFFFFFFFFFFFFFFFFFFFFFFFFFFFFFFFFFFFFFFFF AND PUSH32 0x8C5BE1E5EBEC7D5BD14F71427D1E84F3DD0314C0F7B2291E5B200AC8C7C3B925 DUP5 PUSH1 0x40 MLOAD PUSH2 0x14EF SWAP2 SWAP1 PUSH2 0x19A8 JUMP JUMPDEST PUSH1 0x40 MLOAD DUP1 SWAP2 SUB SWAP1 LOG3 JUMPDEST POP POP POP POP JUMP JUMPDEST PUSH0 PUSH20 0xFFFFFFFFFFFFFFFFFFFFFFFFFFFFFFFFFFFFFFFF AND DUP4 PUSH20 0xFFFFFFFFFFFFFFFFFFFFFFFFFFFFFFFFFFFFFFFF AND SUB PUSH2 0x156E JUMPI PUSH0 PUSH1 0x40 MLOAD PUSH32 0x96C6FD1E00000000000000000000000000000000000000000000000000000000 DUP2 MSTORE PUSH1 0x4 ADD PUSH2 0x1565 SWAP2 SWAP1 PUSH2 0x1AAA JUMP JUMPDEST PUSH1 0x40 MLOAD DUP1 SWAP2 SUB SWAP1 REVERT JUMPDEST PUSH0 PUSH20 0xFFFFFFFFFFFFFFFFFFFFFFFFFFFFFFFFFFFFFFFF AND DUP3 PUSH20 0xFFFFFFFFFFFFFFFFFFFFFFFFFFFFFFFFFFFFFFFF AND SUB PUSH2 0x15DE JUMPI PUSH0 PUSH1 0x40 MLOAD PUSH32 0xEC442F0500000000000000000000000000000000000000000000000000000000 DUP2 MSTORE PUSH1 0x4 ADD PUSH2 0x15D5 SWAP2 SWAP1 PUSH2 0x1AAA JUMP JUMPDEST PUSH1 0x40 MLOAD DUP1 SWAP2 SUB SWAP1 REVERT JUMPDEST PUSH2 0x15E9 DUP4 DUP4 DUP4 PUSH2 0x15EE JUMP JUMPDEST POP POP POP JUMP JUMPDEST PUSH0 PUSH20 0xFFFFFFFFFFFFFFFFFFFFFFFFFFFFFFFFFFFFFFFF AND DUP4 PUSH20 0xFFFFFFFFFFFFFFFFFFFFFFFFFFFFFFFFFFFFFFFF AND SUB PUSH2 0x163E JUMPI DUP1 PUSH1 0x2 PUSH0 DUP3 DUP3 SLOAD PUSH2 0x1632 SWAP2 SWAP1 PUSH2 0x1C26 JUMP JUMPDEST SWAP3 POP POP DUP2 SWAP1 SSTORE POP PUSH2 0x170C JUMP JUMPDEST PUSH0 DUP1 PUSH0 DUP6 PUSH20 0xFFFFFFFFFFFFFFFFFFFFFFFFFFFFFFFFFFFFFFFF AND PUSH20 0xFFFFFFFFFFFFFFFFFFFFFFFFFFFFFFFFFFFFFFFF AND DUP2 MSTORE PUSH1 0x20 ADD SWAP1 DUP2 MSTORE PUSH1 0x20 ADD PUSH0 KECCAK256 SLOAD SWAP1 POP DUP2 DUP2 LT ISZERO PUSH2 0x16C7 JUMPI DUP4 DUP2 DUP4 PUSH1 0x40 MLOAD PUSH32 0xE450D38C00000000000000000000000000000000000000000000000000000000 DUP2 MSTORE PUSH1 0x4 ADD PUSH2 0x16BE SWAP4 SWAP3 SWAP2 SWAP1 PUSH2 0x1EE3 JUMP JUMPDEST PUSH1 0x40 MLOAD DUP1 SWAP2 SUB SWAP1 REVERT JUMPDEST DUP2 DUP2 SUB PUSH0 DUP1 DUP7 PUSH20 0xFFFFFFFFFFFFFFFFFFFFFFFFFFFFFFFFFFFFFFFF AND PUSH20 0xFFFFFFFFFFFFFFFFFFFFFFFFFFFFFFFFFFFFFFFF AND DUP2 MSTORE PUSH1 0x20 ADD SWAP1 DUP2 MSTORE PUSH1 0x20 ADD PUSH0 KECCAK256 DUP2 SWAP1 SSTORE POP POP JUMPDEST PUSH0 PUSH20 0xFFFFFFFFFFFFFFFFFFFFFFFFFFFFFFFFFFFFFFFF AND DUP3 PUSH20 0xFFFFFFFFFFFFFFFFFFFFFFFFFFFFFFFFFFFFFFFF AND SUB PUSH2 0x1753 JUMPI DUP1 PUSH1 0x2 PUSH0 DUP3 DUP3 SLOAD SUB SWAP3 POP POP DUP2 SWAP1 SSTORE POP PUSH2 0x179D JUMP JUMPDEST DUP1 PUSH0 DUP1 DUP5 PUSH20 0xFFFFFFFFFFFFFFFFFFFFFFFFFFFFFFFFFFFFFFFF AND PUSH20 0xFFFFFFFFFFFFFFFFFFFFFFFFFFFFFFFFFFFFFFFF AND DUP2 MSTORE PUSH1 0x20 ADD SWAP1 DUP2 MSTORE PUSH1 0x20 ADD PUSH0 KECCAK256 PUSH0 DUP3 DUP3 SLOAD ADD SWAP3 POP POP DUP2 SWAP1 SSTORE POP JUMPDEST DUP2 PUSH20 0xFFFFFFFFFFFFFFFFFFFFFFFFFFFFFFFFFFFFFFFF AND DUP4 PUSH20 0xFFFFFFFFFFFFFFFFFFFFFFFFFFFFFFFFFFFFFFFF AND PUSH32 0xDDF252AD1BE2C89B69C2B068FC378DAA952BA7F163C4A11628F55A4DF523B3EF DUP4 PUSH1 0x40 MLOAD PUSH2 0x17FA SWAP2 SWAP1 PUSH2 0x19A8 JUMP JUMPDEST PUSH1 0x40 MLOAD DUP1 SWAP2 SUB SWAP1 LOG3 POP POP POP JUMP JUMPDEST PUSH0 DUP2 MLOAD SWAP1 POP SWAP2 SWAP1 POP JUMP JUMPDEST PUSH0 DUP3 DUP3 MSTORE PUSH1 0x20 DUP3 ADD SWAP1 POP SWAP3 SWAP2 POP POP JUMP JUMPDEST DUP3 DUP2 DUP4 MCOPY PUSH0 DUP4 DUP4 ADD MSTORE POP POP POP JUMP JUMPDEST PUSH0 PUSH1 0x1F NOT PUSH1 0x1F DUP4 ADD AND SWAP1 POP SWAP2 SWAP1 POP JUMP JUMPDEST PUSH0 PUSH2 0x1849 DUP3 PUSH2 0x1807 JUMP JUMPDEST PUSH2 0x1853 DUP2 DUP6 PUSH2 0x1811 JUMP JUMPDEST SWAP4 POP PUSH2 0x1863 DUP2 DUP6 PUSH1 0x20 DUP7 ADD PUSH2 0x1821 JUMP JUMPDEST PUSH2 0x186C DUP2 PUSH2 0x182F JUMP JUMPDEST DUP5 ADD SWAP2 POP POP SWAP3 SWAP2 POP POP JUMP JUMPDEST PUSH0 PUSH1 0x20 DUP3 ADD SWAP1 POP DUP2 DUP2 SUB PUSH0 DUP4 ADD MSTORE PUSH2 0x188F DUP2 DUP5 PUSH2 0x183F JUMP JUMPDEST SWAP1 POP SWAP3 SWAP2 POP POP JUMP JUMPDEST PUSH0 DUP1 REVERT JUMPDEST PUSH0 PUSH20 0xFFFFFFFFFFFFFFFFFFFFFFFFFFFFFFFFFFFFFFFF DUP3 AND SWAP1 POP SWAP2 SWAP1 POP JUMP JUMPDEST PUSH0 PUSH2 0x18C4 DUP3 PUSH2 0x189B JUMP JUMPDEST SWAP1 POP SWAP2 SWAP1 POP JUMP JUMPDEST PUSH2 0x18D4 DUP2 PUSH2 0x18BA JUMP JUMPDEST DUP2 EQ PUSH2 0x18DE JUMPI PUSH0 DUP1 REVERT JUMPDEST POP JUMP JUMPDEST PUSH0 DUP2 CALLDATALOAD SWAP1 POP PUSH2 0x18EF DUP2 PUSH2 0x18CB JUMP JUMPDEST SWAP3 SWAP2 POP POP JUMP JUMPDEST PUSH0 DUP2 SWAP1 POP SWAP2 SWAP1 POP JUMP JUMPDEST PUSH2 0x1907 DUP2 PUSH2 0x18F5 JUMP JUMPDEST DUP2 EQ PUSH2 0x1911 JUMPI PUSH0 DUP1 REVERT JUMPDEST POP JUMP JUMPDEST PUSH0 DUP2 CALLDATALOAD SWAP1 POP PUSH2 0x1922 DUP2 PUSH2 0x18FE JUMP JUMPDEST SWAP3 SWAP2 POP POP JUMP JUMPDEST PUSH0 DUP1 PUSH1 0x40 DUP4 DUP6 SUB SLT ISZERO PUSH2 0x193E JUMPI PUSH2 0x193D PUSH2 0x1897 JUMP JUMPDEST JUMPDEST PUSH0 PUSH2 0x194B DUP6 DUP3 DUP7 ADD PUSH2 0x18E1 JUMP JUMPDEST SWAP3 POP POP PUSH1 0x20 PUSH2 0x195C DUP6 DUP3 DUP7 ADD PUSH2 0x1914 JUMP JUMPDEST SWAP2 POP POP SWAP3 POP SWAP3 SWAP1 POP JUMP JUMPDEST PUSH0 DUP2 ISZERO ISZERO SWAP1 POP SWAP2 SWAP1 POP JUMP JUMPDEST PUSH2 0x197A DUP2 PUSH2 0x1966 JUMP JUMPDEST DUP3 MSTORE POP POP JUMP JUMPDEST PUSH0 PUSH1 0x20 DUP3 ADD SWAP1 POP PUSH2 0x1993 PUSH0 DUP4 ADD DUP5 PUSH2 0x1971 JUMP JUMPDEST SWAP3 SWAP2 POP POP JUMP JUMPDEST PUSH2 0x19A2 DUP2 PUSH2 0x18F5 JUMP JUMPDEST DUP3 MSTORE POP POP JUMP JUMPDEST PUSH0 PUSH1 0x20 DUP3 ADD SWAP1 POP PUSH2 0x19BB PUSH0 DUP4 ADD DUP5 PUSH2 0x1999 JUMP JUMPDEST SWAP3 SWAP2 POP POP JUMP JUMPDEST PUSH0 PUSH1 0x20 DUP3 DUP5 SUB SLT ISZERO PUSH2 0x19D6 JUMPI PUSH2 0x19D5 PUSH2 0x1897 JUMP JUMPDEST JUMPDEST PUSH0 PUSH2 0x19E3 DUP5 DUP3 DUP6 ADD PUSH2 0x1914 JUMP JUMPDEST SWAP2 POP POP SWAP3 SWAP2 POP POP JUMP JUMPDEST PUSH0 DUP1 PUSH0 PUSH1 0x60 DUP5 DUP7 SUB SLT ISZERO PUSH2 0x1A03 JUMPI PUSH2 0x1A02 PUSH2 0x1897 JUMP JUMPDEST JUMPDEST PUSH0 PUSH2 0x1A10 DUP7 DUP3 DUP8 ADD PUSH2 0x18E1 JUMP JUMPDEST SWAP4 POP POP PUSH1 0x20 PUSH2 0x1A21 DUP7 DUP3 DUP8 ADD PUSH2 0x18E1 JUMP JUMPDEST SWAP3 POP POP PUSH1 0x40 PUSH2 0x1A32 DUP7 DUP3 DUP8 ADD PUSH2 0x1914 JUMP JUMPDEST SWAP2 POP POP SWAP3 POP SWAP3 POP SWAP3 JUMP JUMPDEST PUSH0 PUSH1 0xFF DUP3 AND SWAP1 POP SWAP2 SWAP1 POP JUMP JUMPDEST PUSH2 0x1A51 DUP2 PUSH2 0x1A3C JUMP JUMPDEST DUP3 MSTORE POP POP JUMP JUMPDEST PUSH0 PUSH1 0x20 DUP3 ADD SWAP1 POP PUSH2 0x1A6A PUSH0 DUP4 ADD DUP5 PUSH2 0x1A48 JUMP JUMPDEST SWAP3 SWAP2 POP POP JUMP JUMPDEST PUSH0 PUSH1 0x20 DUP3 DUP5 SUB SLT ISZERO PUSH2 0x1A85 JUMPI PUSH2 0x1A84 PUSH2 0x1897 JUMP JUMPDEST JUMPDEST PUSH0 PUSH2 0x1A92 DUP5 DUP3 DUP6 ADD PUSH2 0x18E1 JUMP JUMPDEST SWAP2 POP POP SWAP3 SWAP2 POP POP JUMP JUMPDEST PUSH2 0x1AA4 DUP2 PUSH2 0x18BA JUMP JUMPDEST DUP3 MSTORE POP POP JUMP JUMPDEST PUSH0 PUSH1 0x20 DUP3 ADD SWAP1 POP PUSH2 0x1ABD PUSH0 DUP4 ADD DUP5 PUSH2 0x1A9B JUMP JUMPDEST SWAP3 SWAP2 POP POP JUMP JUMPDEST PUSH0 DUP1 PUSH1 0x40 DUP4 DUP6 SUB SLT ISZERO PUSH2 0x1AD9 JUMPI PUSH2 0x1AD8 PUSH2 0x1897 JUMP JUMPDEST JUMPDEST PUSH0 PUSH2 0x1AE6 DUP6 DUP3 DUP7 ADD PUSH2 0x18E1 JUMP JUMPDEST SWAP3 POP POP PUSH1 0x20 PUSH2 0x1AF7 DUP6 DUP3 DUP7 ADD PUSH2 0x18E1 JUMP JUMPDEST SWAP2 POP POP SWAP3 POP SWAP3 SWAP1 POP JUMP JUMPDEST PUSH32 0x4E487B7100000000000000000000000000000000000000000000000000000000 PUSH0 MSTORE PUSH1 0x22 PUSH1 0x4 MSTORE PUSH1 0x24 PUSH0 REVERT JUMPDEST PUSH0 PUSH1 0x2 DUP3 DIV SWAP1 POP PUSH1 0x1 DUP3 AND DUP1 PUSH2 0x1B45 JUMPI PUSH1 0x7F DUP3 AND SWAP2 POP JUMPDEST PUSH1 0x20 DUP3 LT DUP2 SUB PUSH2 0x1B58 JUMPI PUSH2 0x1B57 PUSH2 0x1B01 JUMP JUMPDEST JUMPDEST POP SWAP2 SWAP1 POP JUMP JUMPDEST PUSH32 0x496E73756666696369656E742062616C616E6365000000000000000000000000 PUSH0 DUP3 ADD MSTORE POP JUMP JUMPDEST PUSH0 PUSH2 0x1B92 PUSH1 0x14 DUP4 PUSH2 0x1811 JUMP JUMPDEST SWAP2 POP PUSH2 0x1B9D DUP3 PUSH2 0x1B5E JUMP JUMPDEST PUSH1 0x20 DUP3 ADD SWAP1 POP SWAP2 SWAP1 POP JUMP JUMPDEST PUSH0 PUSH1 0x20 DUP3 ADD SWAP1 POP DUP2 DUP2 SUB PUSH0 DUP4 ADD MSTORE PUSH2 0x1BBF DUP2 PUSH2 0x1B86 JUMP JUMPDEST SWAP1 POP SWAP2 SWAP1 POP JUMP JUMPDEST PUSH32 0x4E487B7100000000000000000000000000000000000000000000000000000000 PUSH0 MSTORE PUSH1 0x11 PUSH1 0x4 MSTORE PUSH1 0x24 PUSH0 REVERT JUMPDEST PUSH0 PUSH2 0x1BFD DUP3 PUSH2 0x18F5 JUMP JUMPDEST SWAP2 POP PUSH2 0x1C08 DUP4 PUSH2 0x18F5 JUMP JUMPDEST SWAP3 POP DUP3 DUP3 SUB SWAP1 POP DUP2 DUP2 GT ISZERO PUSH2 0x1C20 JUMPI PUSH2 0x1C1F PUSH2 0x1BC6 JUMP JUMPDEST JUMPDEST SWAP3 SWAP2 POP POP JUMP JUMPDEST PUSH0 PUSH2 0x1C30 DUP3 PUSH2 0x18F5 JUMP JUMPDEST SWAP2 POP PUSH2 0x1C3B DUP4 PUSH2 0x18F5 JUMP JUMPDEST SWAP3 POP DUP3 DUP3 ADD SWAP1 POP DUP1 DUP3 GT ISZERO PUSH2 0x1C53 JUMPI PUSH2 0x1C52 PUSH2 0x1BC6 JUMP JUMPDEST JUMPDEST SWAP3 SWAP2 POP POP JUMP JUMPDEST PUSH32 0x4C6971756964697479206D7573742062652070726F766964656420666F722061 PUSH0 DUP3 ADD MSTORE PUSH32 0x74206C65617374203330206461797320746F207175616C69667920666F722072 PUSH1 0x20 DUP3 ADD MSTORE PUSH32 0x6577617264730000000000000000000000000000000000000000000000000000 PUSH1 0x40 DUP3 ADD MSTORE POP JUMP JUMPDEST PUSH0 PUSH2 0x1CD9 PUSH1 0x46 DUP4 PUSH2 0x1811 JUMP JUMPDEST SWAP2 POP PUSH2 0x1CE4 DUP3 PUSH2 0x1C59 JUMP JUMPDEST PUSH1 0x60 DUP3 ADD SWAP1 POP SWAP2 SWAP1 POP JUMP JUMPDEST PUSH0 PUSH1 0x20 DUP3 ADD SWAP1 POP DUP2 DUP2 SUB PUSH0 DUP4 ADD MSTORE PUSH2 0x1D06 DUP2 PUSH2 0x1CCD JUMP JUMPDEST SWAP1 POP SWAP2 SWAP1 POP JUMP JUMPDEST PUSH32 0x5265776172642065786365656473206D617820737570706C7900000000000000 PUSH0 DUP3 ADD MSTORE POP JUMP JUMPDEST PUSH0 PUSH2 0x1D41 PUSH1 0x19 DUP4 PUSH2 0x1811 JUMP JUMPDEST SWAP2 POP PUSH2 0x1D4C DUP3 PUSH2 0x1D0D JUMP JUMPDEST PUSH1 0x20 DUP3 ADD SWAP1 POP SWAP2 SWAP1 POP JUMP JUMPDEST PUSH0 PUSH1 0x20 DUP3 ADD SWAP1 POP DUP2 DUP2 SUB PUSH0 DUP4 ADD MSTORE PUSH2 0x1D6E DUP2 PUSH2 0x1D35 JUMP JUMPDEST SWAP1 POP SWAP2 SWAP1 POP JUMP JUMPDEST PUSH0 PUSH2 0x1D7F DUP3 PUSH2 0x18F5 JUMP JUMPDEST SWAP2 POP PUSH2 0x1D8A DUP4 PUSH2 0x18F5 JUMP JUMPDEST SWAP3 POP DUP3 DUP3 MUL PUSH2 0x1D98 DUP2 PUSH2 0x18F5 JUMP JUMPDEST SWAP2 POP DUP3 DUP3 DIV DUP5 EQ DUP4 ISZERO OR PUSH2 0x1DAF JUMPI PUSH2 0x1DAE PUSH2 0x1BC6 JUMP JUMPDEST JUMPDEST POP SWAP3 SWAP2 POP POP JUMP JUMPDEST PUSH32 0x4E487B7100000000000000000000000000000000000000000000000000000000 PUSH0 MSTORE PUSH1 0x12 PUSH1 0x4 MSTORE PUSH1 0x24 PUSH0 REVERT JUMPDEST PUSH0 PUSH2 0x1DED DUP3 PUSH2 0x18F5 JUMP JUMPDEST SWAP2 POP PUSH2 0x1DF8 DUP4 PUSH2 0x18F5 JUMP JUMPDEST SWAP3 POP DUP3 PUSH2 0x1E08 JUMPI PUSH2 0x1E07 PUSH2 0x1DB6 JUMP JUMPDEST JUMPDEST DUP3 DUP3 DIV SWAP1 POP SWAP3 SWAP2 POP POP JUMP JUMPDEST PUSH32 0x5265656E7472616E637947756172643A207265656E7472616E742063616C6C00 PUSH0 DUP3 ADD MSTORE POP JUMP JUMPDEST PUSH0 PUSH2 0x1E47 PUSH1 0x1F DUP4 PUSH2 0x1811 JUMP JUMPDEST SWAP2 POP PUSH2 0x1E52 DUP3 PUSH2 0x1E13 JUMP JUMPDEST PUSH1 0x20 DUP3 ADD SWAP1 POP SWAP2 SWAP1 POP JUMP JUMPDEST PUSH0 PUSH1 0x20 DUP3 ADD SWAP1 POP DUP2 DUP2 SUB PUSH0 DUP4 ADD MSTORE PUSH2 0x1E74 DUP2 PUSH2 0x1E3B JUMP JUMPDEST SWAP1 POP SWAP2 SWAP1 POP JUMP JUMPDEST PUSH32 0x4275726E2076616C756520696E76616C69640000000000000000000000000000 PUSH0 DUP3 ADD MSTORE POP JUMP JUMPDEST PUSH0 PUSH2 0x1EAF PUSH1 0x12 DUP4 PUSH2 0x1811 JUMP JUMPDEST SWAP2 POP PUSH2 0x1EBA DUP3 PUSH2 0x1E7B JUMP JUMPDEST PUSH1 0x20 DUP3 ADD SWAP1 POP SWAP2 SWAP1 POP JUMP JUMPDEST PUSH0 PUSH1 0x20 DUP3 ADD SWAP1 POP DUP2 DUP2 SUB PUSH0 DUP4 ADD MSTORE PUSH2 0x1EDC DUP2 PUSH2 0x1EA3 JUMP JUMPDEST SWAP1 POP SWAP2 SWAP1 POP JUMP JUMPDEST PUSH0 PUSH1 0x60 DUP3 ADD SWAP1 POP PUSH2 0x1EF6 PUSH0 DUP4 ADD DUP7 PUSH2 0x1A9B JUMP JUMPDEST PUSH2 0x1F03 PUSH1 0x20 DUP4 ADD DUP6 PUSH2 0x1999 JUMP JUMPDEST PUSH2 0x1F10 PUSH1 0x40 DUP4 ADD DUP5 PUSH2 0x1999 JUMP JUMPDEST SWAP5 SWAP4 POP POP POP POP JUMP INVALID LOG2 PUSH5 0x6970667358 0x22 SLT KECCAK256 DUP2 0xED 0xA7 CHAINID SWAP6 0xBC 0xE7 KECCAK256 SWAP3 PUSH27 0xC57D4CFB6212A2B1FAC79DAC9D6F1553FCAD9EFDBED064736F6C63 NUMBER STOP ADDMOD BYTE STOP CALLER "
				},
				"gasEstimates": {
					"creation": {
						"codeDepositCost": "1602800",
						"executionCost": "infinite",
						"totalCost": "infinite"
					},
					"external": {
						"INITIAL_SUPPLY()": "348",
						"MAX_SUPPLY()": "392",
						"addLiquidity(uint256)": "infinite",
						"allowance(address,address)": "infinite",
						"approve(address,uint256)": "infinite",
						"balanceOf(address)": "2962",
						"burn(uint256)": "infinite",
						"burnFrom(address,uint256)": "infinite",
						"calculateReward(address)": "infinite",
						"decimals()": "383",
						"name()": "infinite",
						"owner()": "2582",
						"ownerAddLiquidity(uint256)": "infinite",
						"ownerRemoveLiquidity(uint256)": "infinite",
						"removeLiquidityAndClaimRewards(uint256)": "infinite",
						"renounceOwnership()": "infinite",
						"symbol()": "infinite",
						"totalSupply()": "2500",
						"transfer(address,uint256)": "infinite",
						"transferFrom(address,address,uint256)": "infinite",
						"transferOwnership(address)": "infinite",
						"undoAddLiquidity(uint256)": "infinite"
					},
					"internal": {
						"_beforeTokenTransfer(address,address,uint256)": "infinite",
						"_transfer(address,address,uint256)": "infinite"
					}
				},
				"methodIdentifiers": {
					"INITIAL_SUPPLY()": "2ff2e9dc",
					"MAX_SUPPLY()": "32cb6b0c",
					"addLiquidity(uint256)": "51c6590a",
					"allowance(address,address)": "dd62ed3e",
					"approve(address,uint256)": "095ea7b3",
					"balanceOf(address)": "70a08231",
					"burn(uint256)": "42966c68",
					"burnFrom(address,uint256)": "79cc6790",
					"calculateReward(address)": "d82e3962",
					"decimals()": "313ce567",
					"name()": "06fdde03",
					"owner()": "8da5cb5b",
					"ownerAddLiquidity(uint256)": "afe8289a",
					"ownerRemoveLiquidity(uint256)": "2254b79c",
					"removeLiquidityAndClaimRewards(uint256)": "c8052107",
					"renounceOwnership()": "715018a6",
					"symbol()": "95d89b41",
					"totalSupply()": "18160ddd",
					"transfer(address,uint256)": "a9059cbb",
					"transferFrom(address,address,uint256)": "23b872dd",
					"transferOwnership(address)": "f2fde38b",
					"undoAddLiquidity(uint256)": "fc6d483a"
				}
			},
			"storageLayout": {
				"storage": [
					{
						"astId": 278,
						"contract": "Tweet_On_Base(latest)_flattened.sol:Tweet_On_Base",
						"label": "_balances",
						"offset": 0,
						"slot": "0",
						"type": "t_mapping(t_address,t_uint256)"
					},
					{
						"astId": 284,
						"contract": "Tweet_On_Base(latest)_flattened.sol:Tweet_On_Base",
						"label": "_allowances",
						"offset": 0,
						"slot": "1",
						"type": "t_mapping(t_address,t_mapping(t_address,t_uint256))"
					},
					{
						"astId": 286,
						"contract": "Tweet_On_Base(latest)_flattened.sol:Tweet_On_Base",
						"label": "_totalSupply",
						"offset": 0,
						"slot": "2",
						"type": "t_uint256"
					},
					{
						"astId": 288,
						"contract": "Tweet_On_Base(latest)_flattened.sol:Tweet_On_Base",
						"label": "_name",
						"offset": 0,
						"slot": "3",
						"type": "t_string_storage"
					},
					{
						"astId": 290,
						"contract": "Tweet_On_Base(latest)_flattened.sol:Tweet_On_Base",
						"label": "_symbol",
						"offset": 0,
						"slot": "4",
						"type": "t_string_storage"
					},
					{
						"astId": 827,
						"contract": "Tweet_On_Base(latest)_flattened.sol:Tweet_On_Base",
						"label": "_owner",
						"offset": 0,
						"slot": "5",
						"type": "t_address"
					},
					{
						"astId": 976,
						"contract": "Tweet_On_Base(latest)_flattened.sol:Tweet_On_Base",
						"label": "_status",
						"offset": 0,
						"slot": "6",
						"type": "t_uint256"
					},
					{
						"astId": 1059,
						"contract": "Tweet_On_Base(latest)_flattened.sol:Tweet_On_Base",
						"label": "_liquidityProvided",
						"offset": 0,
						"slot": "7",
						"type": "t_mapping(t_address,t_uint256)"
					},
					{
						"astId": 1063,
						"contract": "Tweet_On_Base(latest)_flattened.sol:Tweet_On_Base",
						"label": "_liquidityProvidedTimestamp",
						"offset": 0,
						"slot": "8",
						"type": "t_mapping(t_address,t_uint256)"
					}
				],
				"types": {
					"t_address": {
						"encoding": "inplace",
						"label": "address",
						"numberOfBytes": "20"
					},
					"t_mapping(t_address,t_mapping(t_address,t_uint256))": {
						"encoding": "mapping",
						"key": "t_address",
						"label": "mapping(address => mapping(address => uint256))",
						"numberOfBytes": "32",
						"value": "t_mapping(t_address,t_uint256)"
					},
					"t_mapping(t_address,t_uint256)": {
						"encoding": "mapping",
						"key": "t_address",
						"label": "mapping(address => uint256)",
						"numberOfBytes": "32",
						"value": "t_uint256"
					},
					"t_string_storage": {
						"encoding": "bytes",
						"label": "string",
						"numberOfBytes": "32"
					},
					"t_uint256": {
						"encoding": "inplace",
						"label": "uint256",
						"numberOfBytes": "32"
					}
				}
			},
			"userdoc": {
				"kind": "user",
				"methods": {},
				"version": 1
			}
		}
	}
}