{
	"GenericLayout.sol": {
		"GenericLayout": {
			"abi": [
				{
					"inputs": [
						{
							"internalType": "string",
							"name": "name",
							"type": "string"
						},
						{
							"internalType": "string",
							"name": "symbol",
							"type": "string"
						},
						{
							"internalType": "uint256",
							"name": "initialSupply",
							"type": "uint256"
						},
						{
							"internalType": "uint256",
							"name": "_maxSupply",
							"type": "uint256"
						},
						{
							"internalType": "uint8",
							"name": "_decimalsPlaces",
							"type": "uint8"
						},
						{
							"internalType": "address",
							"name": "deployerAddress",
							"type": "address"
						}
					],
					"stateMutability": "nonpayable",
					"type": "constructor"
				},
				{
					"inputs": [
						{
							"internalType": "address",
							"name": "spender",
							"type": "address"
						},
						{
							"internalType": "uint256",
							"name": "allowance",
							"type": "uint256"
						},
						{
							"internalType": "uint256",
							"name": "needed",
							"type": "uint256"
						}
					],
					"name": "ERC20InsufficientAllowance",
					"type": "error"
				},
				{
					"inputs": [
						{
							"internalType": "address",
							"name": "sender",
							"type": "address"
						},
						{
							"internalType": "uint256",
							"name": "balance",
							"type": "uint256"
						},
						{
							"internalType": "uint256",
							"name": "needed",
							"type": "uint256"
						}
					],
					"name": "ERC20InsufficientBalance",
					"type": "error"
				},
				{
					"inputs": [
						{
							"internalType": "address",
							"name": "approver",
							"type": "address"
						}
					],
					"name": "ERC20InvalidApprover",
					"type": "error"
				},
				{
					"inputs": [
						{
							"internalType": "address",
							"name": "receiver",
							"type": "address"
						}
					],
					"name": "ERC20InvalidReceiver",
					"type": "error"
				},
				{
					"inputs": [
						{
							"internalType": "address",
							"name": "sender",
							"type": "address"
						}
					],
					"name": "ERC20InvalidSender",
					"type": "error"
				},
				{
					"inputs": [
						{
							"internalType": "address",
							"name": "spender",
							"type": "address"
						}
					],
					"name": "ERC20InvalidSpender",
					"type": "error"
				},
				{
					"inputs": [
						{
							"internalType": "address",
							"name": "owner",
							"type": "address"
						}
					],
					"name": "OwnableInvalidOwner",
					"type": "error"
				},
				{
					"inputs": [
						{
							"internalType": "address",
							"name": "account",
							"type": "address"
						}
					],
					"name": "OwnableUnauthorizedAccount",
					"type": "error"
				},
				{
					"anonymous": false,
					"inputs": [
						{
							"indexed": true,
							"internalType": "address",
							"name": "owner",
							"type": "address"
						},
						{
							"indexed": true,
							"internalType": "address",
							"name": "spender",
							"type": "address"
						},
						{
							"indexed": false,
							"internalType": "uint256",
							"name": "value",
							"type": "uint256"
						}
					],
					"name": "Approval",
					"type": "event"
				},
				{
					"anonymous": false,
					"inputs": [
						{
							"indexed": true,
							"internalType": "address",
							"name": "previousOwner",
							"type": "address"
						},
						{
							"indexed": true,
							"internalType": "address",
							"name": "newOwner",
							"type": "address"
						}
					],
					"name": "OwnershipTransferred",
					"type": "event"
				},
				{
					"anonymous": false,
					"inputs": [
						{
							"indexed": true,
							"internalType": "address",
							"name": "from",
							"type": "address"
						},
						{
							"indexed": true,
							"internalType": "address",
							"name": "to",
							"type": "address"
						},
						{
							"indexed": false,
							"internalType": "uint256",
							"name": "value",
							"type": "uint256"
						}
					],
					"name": "Transfer",
					"type": "event"
				},
				{
					"inputs": [
						{
							"internalType": "uint256",
							"name": "amount",
							"type": "uint256"
						}
					],
					"name": "addLiquidity",
					"outputs": [],
					"stateMutability": "nonpayable",
					"type": "function"
				},
				{
					"inputs": [
						{
							"internalType": "address",
							"name": "owner",
							"type": "address"
						},
						{
							"internalType": "address",
							"name": "spender",
							"type": "address"
						}
					],
					"name": "allowance",
					"outputs": [
						{
							"internalType": "uint256",
							"name": "",
							"type": "uint256"
						}
					],
					"stateMutability": "view",
					"type": "function"
				},
				{
					"inputs": [
						{
							"internalType": "address",
							"name": "spender",
							"type": "address"
						},
						{
							"internalType": "uint256",
							"name": "value",
							"type": "uint256"
						}
					],
					"name": "approve",
					"outputs": [
						{
							"internalType": "bool",
							"name": "",
							"type": "bool"
						}
					],
					"stateMutability": "nonpayable",
					"type": "function"
				},
				{
					"inputs": [
						{
							"internalType": "address",
							"name": "account",
							"type": "address"
						}
					],
					"name": "balanceOf",
					"outputs": [
						{
							"internalType": "uint256",
							"name": "",
							"type": "uint256"
						}
					],
					"stateMutability": "view",
					"type": "function"
				},
				{
					"inputs": [
						{
							"internalType": "uint256",
							"name": "value",
							"type": "uint256"
						}
					],
					"name": "burn",
					"outputs": [],
					"stateMutability": "nonpayable",
					"type": "function"
				},
				{
					"inputs": [
						{
							"internalType": "address",
							"name": "account",
							"type": "address"
						},
						{
							"internalType": "uint256",
							"name": "value",
							"type": "uint256"
						}
					],
					"name": "burnFrom",
					"outputs": [],
					"stateMutability": "nonpayable",
					"type": "function"
				},
				{
					"inputs": [
						{
							"internalType": "address",
							"name": "user",
							"type": "address"
						}
					],
					"name": "calculateReward",
					"outputs": [
						{
							"internalType": "uint256",
							"name": "",
							"type": "uint256"
						}
					],
					"stateMutability": "view",
					"type": "function"
				},
				{
					"inputs": [],
					"name": "decimals",
					"outputs": [
						{
							"internalType": "uint8",
							"name": "",
							"type": "uint8"
						}
					],
					"stateMutability": "view",
					"type": "function"
				},
				{
					"inputs": [],
					"name": "decimalsPlaces",
					"outputs": [
						{
							"internalType": "uint8",
							"name": "",
							"type": "uint8"
						}
					],
					"stateMutability": "view",
					"type": "function"
				},
				{
					"inputs": [],
					"name": "disableCircuitBreaker",
					"outputs": [],
					"stateMutability": "nonpayable",
					"type": "function"
				},
				{
					"inputs": [],
					"name": "enableCircuitBreaker",
					"outputs": [],
					"stateMutability": "nonpayable",
					"type": "function"
				},
				{
					"inputs": [],
					"name": "maxSupply",
					"outputs": [
						{
							"internalType": "uint256",
							"name": "",
							"type": "uint256"
						}
					],
					"stateMutability": "view",
					"type": "function"
				},
				{
					"inputs": [],
					"name": "name",
					"outputs": [
						{
							"internalType": "string",
							"name": "",
							"type": "string"
						}
					],
					"stateMutability": "view",
					"type": "function"
				},
				{
					"inputs": [],
					"name": "owner",
					"outputs": [
						{
							"internalType": "address",
							"name": "",
							"type": "address"
						}
					],
					"stateMutability": "view",
					"type": "function"
				},
				{
					"inputs": [
						{
							"internalType": "uint256",
							"name": "amount",
							"type": "uint256"
						}
					],
					"name": "ownerAddLiquidity",
					"outputs": [],
					"stateMutability": "nonpayable",
					"type": "function"
				},
				{
					"inputs": [
						{
							"internalType": "uint256",
							"name": "amount",
							"type": "uint256"
						}
					],
					"name": "ownerRemoveLiquidity",
					"outputs": [],
					"stateMutability": "nonpayable",
					"type": "function"
				},
				{
					"inputs": [
						{
							"internalType": "uint256",
							"name": "amount",
							"type": "uint256"
						}
					],
					"name": "removeLiquidityAndClaimRewards",
					"outputs": [],
					"stateMutability": "nonpayable",
					"type": "function"
				},
				{
					"inputs": [],
					"name": "renounceOwnership",
					"outputs": [],
					"stateMutability": "nonpayable",
					"type": "function"
				},
				{
					"inputs": [],
					"name": "symbol",
					"outputs": [
						{
							"internalType": "string",
							"name": "",
							"type": "string"
						}
					],
					"stateMutability": "view",
					"type": "function"
				},
				{
					"inputs": [],
					"name": "totalSupply",
					"outputs": [
						{
							"internalType": "uint256",
							"name": "",
							"type": "uint256"
						}
					],
					"stateMutability": "view",
					"type": "function"
				},
				{
					"inputs": [
						{
							"internalType": "address",
							"name": "to",
							"type": "address"
						},
						{
							"internalType": "uint256",
							"name": "value",
							"type": "uint256"
						}
					],
					"name": "transfer",
					"outputs": [
						{
							"internalType": "bool",
							"name": "",
							"type": "bool"
						}
					],
					"stateMutability": "nonpayable",
					"type": "function"
				},
				{
					"inputs": [
						{
							"internalType": "address",
							"name": "from",
							"type": "address"
						},
						{
							"internalType": "address",
							"name": "to",
							"type": "address"
						},
						{
							"internalType": "uint256",
							"name": "value",
							"type": "uint256"
						}
					],
					"name": "transferFrom",
					"outputs": [
						{
							"internalType": "bool",
							"name": "",
							"type": "bool"
						}
					],
					"stateMutability": "nonpayable",
					"type": "function"
				},
				{
					"inputs": [
						{
							"internalType": "address",
							"name": "newOwner",
							"type": "address"
						}
					],
					"name": "transferOwnership",
					"outputs": [],
					"stateMutability": "nonpayable",
					"type": "function"
				}
			],
			"devdoc": {
				"errors": {
					"ERC20InsufficientAllowance(address,uint256,uint256)": [
						{
							"details": "Indicates a failure with the `spender`’s `allowance`. Used in transfers.",
							"params": {
								"allowance": "Amount of tokens a `spender` is allowed to operate with.",
								"needed": "Minimum amount required to perform a transfer.",
								"spender": "Address that may be allowed to operate on tokens without being their owner."
							}
						}
					],
					"ERC20InsufficientBalance(address,uint256,uint256)": [
						{
							"details": "Indicates an error related to the current `balance` of a `sender`. Used in transfers.",
							"params": {
								"balance": "Current balance for the interacting account.",
								"needed": "Minimum amount required to perform a transfer.",
								"sender": "Address whose tokens are being transferred."
							}
						}
					],
					"ERC20InvalidApprover(address)": [
						{
							"details": "Indicates a failure with the `approver` of a token to be approved. Used in approvals.",
							"params": {
								"approver": "Address initiating an approval operation."
							}
						}
					],
					"ERC20InvalidReceiver(address)": [
						{
							"details": "Indicates a failure with the token `receiver`. Used in transfers.",
							"params": {
								"receiver": "Address to which tokens are being transferred."
							}
						}
					],
					"ERC20InvalidSender(address)": [
						{
							"details": "Indicates a failure with the token `sender`. Used in transfers.",
							"params": {
								"sender": "Address whose tokens are being transferred."
							}
						}
					],
					"ERC20InvalidSpender(address)": [
						{
							"details": "Indicates a failure with the `spender` to be approved. Used in approvals.",
							"params": {
								"spender": "Address that may be allowed to operate on tokens without being their owner."
							}
						}
					],
					"OwnableInvalidOwner(address)": [
						{
							"details": "The owner is not a valid owner account. (eg. `address(0)`)"
						}
					],
					"OwnableUnauthorizedAccount(address)": [
						{
							"details": "The caller account is not authorized to perform an operation."
						}
					]
				},
				"events": {
					"Approval(address,address,uint256)": {
						"details": "Emitted when the allowance of a `spender` for an `owner` is set by a call to {approve}. `value` is the new allowance."
					},
					"Transfer(address,address,uint256)": {
						"details": "Emitted when `value` tokens are moved from one account (`from`) to another (`to`). Note that `value` may be zero."
					}
				},
				"kind": "dev",
				"methods": {
					"allowance(address,address)": {
						"details": "See {IERC20-allowance}."
					},
					"approve(address,uint256)": {
						"details": "See {IERC20-approve}. NOTE: If `value` is the maximum `uint256`, the allowance is not updated on `transferFrom`. This is semantically equivalent to an infinite approval. Requirements: - `spender` cannot be the zero address."
					},
					"balanceOf(address)": {
						"details": "See {IERC20-balanceOf}."
					},
					"burn(uint256)": {
						"details": "Destroys a `value` amount of tokens from the caller. See {ERC20-_burn}."
					},
					"burnFrom(address,uint256)": {
						"details": "Destroys a `value` amount of tokens from `account`, deducting from the caller's allowance. See {ERC20-_burn} and {ERC20-allowance}. Requirements: - the caller must have allowance for ``accounts``'s tokens of at least `value`."
					},
					"decimals()": {
						"details": "Returns the number of decimals used to get its user representation. For example, if `decimals` equals `2`, a balance of `505` tokens should be displayed to a user as `5.05` (`505 / 10 ** 2`). Tokens usually opt for a value of 18, imitating the relationship between Ether and Wei. This is the default value returned by this function, unless it's overridden. NOTE: This information is only used for _display_ purposes: it in no way affects any of the arithmetic of the contract, including {IERC20-balanceOf} and {IERC20-transfer}."
					},
					"name()": {
						"details": "Returns the name of the token."
					},
					"owner()": {
						"details": "Returns the address of the current owner."
					},
					"renounceOwnership()": {
						"details": "Leaves the contract without owner. It will not be possible to call `onlyOwner` functions. Can only be called by the current owner. NOTE: Renouncing ownership will leave the contract without an owner, thereby disabling any functionality that is only available to the owner."
					},
					"symbol()": {
						"details": "Returns the symbol of the token, usually a shorter version of the name."
					},
					"totalSupply()": {
						"details": "See {IERC20-totalSupply}."
					},
					"transfer(address,uint256)": {
						"details": "See {IERC20-transfer}. Requirements: - `to` cannot be the zero address. - the caller must have a balance of at least `value`."
					},
					"transferFrom(address,address,uint256)": {
						"details": "See {IERC20-transferFrom}. Emits an {Approval} event indicating the updated allowance. This is not required by the EIP. See the note at the beginning of {ERC20}. NOTE: Does not update the allowance if the current allowance is the maximum `uint256`. Requirements: - `from` and `to` cannot be the zero address. - `from` must have a balance of at least `value`. - the caller must have allowance for ``from``'s tokens of at least `value`."
					},
					"transferOwnership(address)": {
						"details": "Transfers ownership of the contract to a new account (`newOwner`). Can only be called by the current owner."
					}
				},
				"version": 1
			},
			"evm": {
				"assembly": "    /* \"GenericLayout.sol\":301:4406  contract GenericLayout is ERC20, ERC20Burnable, /*Pausable*/ Ownable, ReentrancyGuard {... */\n  mstore(0x40, 0x80)\n    /* \"GenericLayout.sol\":1388:1393  false */\n  0x00\n    /* \"GenericLayout.sol\":1350:1393  bool private _circuitBreakerEnabled = false */\n  0x0b\n  exp(0x0100, 0x00)\n  dup2\n  sload\n  dup2\n  0xff\n  mul\n  not\n  and\n  swap1\n  dup4\n  iszero\n  iszero\n  mul\n  or\n  swap1\n  sstore\n  pop\n    /* \"GenericLayout.sol\":601:1081  constructor(... */\n  callvalue\n  dup1\n  iszero\n  tag_1\n  jumpi\n  0x00\n  dup1\n  revert\ntag_1:\n  pop\n  mload(0x40)\n  sub(codesize, bytecodeSize)\n  dup1\n  bytecodeSize\n  dup4\n  codecopy\n  dup2\n  dup2\n  add\n  0x40\n  mstore\n  dup2\n  add\n  swap1\n  tag_2\n  swap2\n  swap1\n  tag_3\n  jump\t// in\ntag_2:\n    /* \"GenericLayout.sol\":835:850  deployerAddress */\n  dup1\n    /* \"GenericLayout.sol\":813:817  name */\n  dup7\n    /* \"GenericLayout.sol\":819:825  symbol */\n  dup7\n    /* \"contracts/token/ERC20/ERC20.sol\":918:923  name_ */\n  dup2\n    /* \"contracts/token/ERC20/ERC20.sol\":910:915  _name */\n  0x03\n    /* \"contracts/token/ERC20/ERC20.sol\":910:923  _name = name_ */\n  swap1\n  dup2\n  tag_9\n  swap2\n  swap1\n  tag_10\n  jump\t// in\ntag_9:\n  pop\n    /* \"contracts/token/ERC20/ERC20.sol\":943:950  symbol_ */\n  dup1\n    /* \"contracts/token/ERC20/ERC20.sol\":933:940  _symbol */\n  0x04\n    /* \"contracts/token/ERC20/ERC20.sol\":933:950  _symbol = symbol_ */\n  swap1\n  dup2\n  tag_11\n  swap2\n  swap1\n  tag_10\n  jump\t// in\ntag_11:\n  pop\n    /* \"contracts/token/ERC20/ERC20.sol\":844:957  constructor(string memory name_, string memory symbol_) {... */\n  pop\n  pop\n    /* \"contracts/access/Ownable.sol\":1297:1298  0 */\n  0x00\n    /* \"contracts/access/Ownable.sol\":1273:1299  initialOwner == address(0) */\n  0xffffffffffffffffffffffffffffffffffffffff\n  and\n    /* \"contracts/access/Ownable.sol\":1273:1285  initialOwner */\n  dup2\n    /* \"contracts/access/Ownable.sol\":1273:1299  initialOwner == address(0) */\n  0xffffffffffffffffffffffffffffffffffffffff\n  and\n  sub\n    /* \"contracts/access/Ownable.sol\":1269:1364  if (initialOwner == address(0)) {... */\n  tag_13\n  jumpi\n    /* \"contracts/access/Ownable.sol\":1350:1351  0 */\n  0x00\n    /* \"contracts/access/Ownable.sol\":1322:1353  OwnableInvalidOwner(address(0)) */\n  mload(0x40)\n  0x1e4fbdf700000000000000000000000000000000000000000000000000000000\n  dup2\n  mstore\n  0x04\n  add\n  tag_14\n  swap2\n  swap1\n  tag_15\n  jump\t// in\ntag_14:\n  mload(0x40)\n  dup1\n  swap2\n  sub\n  swap1\n  revert\n    /* \"contracts/access/Ownable.sol\":1269:1364  if (initialOwner == address(0)) {... */\ntag_13:\n    /* \"contracts/access/Ownable.sol\":1373:1405  _transferOwnership(initialOwner) */\n  tag_16\n    /* \"contracts/access/Ownable.sol\":1392:1404  initialOwner */\n  dup2\n    /* \"contracts/access/Ownable.sol\":1373:1391  _transferOwnership */\n  shl(0x20, tag_17)\n    /* \"contracts/access/Ownable.sol\":1373:1405  _transferOwnership(initialOwner) */\n  0x20\n  shr\n  jump\t// in\ntag_16:\n    /* \"contracts/access/Ownable.sol\":1225:1412  constructor(address initialOwner) {... */\n  pop\n    /* \"contracts/security/ReentrancyGuard.sol\":1716:1717  1 */\n  0x01\n    /* \"contracts/security/ReentrancyGuard.sol\":1821:1828  _status */\n  0x06\n    /* \"contracts/security/ReentrancyGuard.sol\":1821:1843  _status = _NOT_ENTERED */\n  dup2\n  swap1\n  sstore\n  pop\n    /* \"GenericLayout.sol\":888:898  _maxSupply */\n  dup3\n    /* \"GenericLayout.sol\":871:884  initialSupply */\n  dup5\n    /* \"GenericLayout.sol\":871:898  initialSupply <= _maxSupply */\n  gt\n  iszero\n    /* \"GenericLayout.sol\":863:949  require(initialSupply <= _maxSupply, \"Initial supply cannot be more than max supply.\") */\n  tag_20\n  jumpi\n  mload(0x40)\n  0x08c379a000000000000000000000000000000000000000000000000000000000\n  dup2\n  mstore\n  0x04\n  add\n  tag_21\n  swap1\n  tag_22\n  jump\t// in\ntag_21:\n  mload(0x40)\n  dup1\n  swap2\n  sub\n  swap1\n  revert\ntag_20:\n    /* \"GenericLayout.sol\":960:997  _mint(deployerAddress, initialSupply) */\n  tag_23\n    /* \"GenericLayout.sol\":966:981  deployerAddress */\n  dup2\n    /* \"GenericLayout.sol\":983:996  initialSupply */\n  dup6\n    /* \"GenericLayout.sol\":960:965  _mint */\n  shl(0x20, tag_24)\n    /* \"GenericLayout.sol\":960:997  _mint(deployerAddress, initialSupply) */\n  0x20\n  shr\n  jump\t// in\ntag_23:\n    /* \"GenericLayout.sol\":1020:1030  _maxSupply */\n  dup3\n    /* \"GenericLayout.sol\":1008:1017  maxSupply */\n  0x07\n    /* \"GenericLayout.sol\":1008:1030  maxSupply = _maxSupply */\n  dup2\n  swap1\n  sstore\n  pop\n    /* \"GenericLayout.sol\":1058:1073  _decimalsPlaces */\n  dup2\n    /* \"GenericLayout.sol\":1041:1055  decimalsPlaces */\n  0x08\n  0x00\n    /* \"GenericLayout.sol\":1041:1073  decimalsPlaces = _decimalsPlaces */\n  0x0100\n  exp\n  dup2\n  sload\n  dup2\n  0xff\n  mul\n  not\n  and\n  swap1\n  dup4\n  0xff\n  and\n  mul\n  or\n  swap1\n  sstore\n  pop\n    /* \"GenericLayout.sol\":601:1081  constructor(... */\n  pop\n  pop\n  pop\n  pop\n  pop\n  pop\n    /* \"GenericLayout.sol\":301:4406  contract GenericLayout is ERC20, ERC20Burnable, /*Pausable*/ Ownable, ReentrancyGuard {... */\n  jump(tag_25)\n    /* \"contracts/access/Ownable.sol\":2912:3099  function _transferOwnership(address newOwner) internal virtual {... */\ntag_17:\n    /* \"contracts/access/Ownable.sol\":2985:3001  address oldOwner */\n  0x00\n    /* \"contracts/access/Ownable.sol\":3004:3010  _owner */\n  0x05\n  0x00\n  swap1\n  sload\n  swap1\n  0x0100\n  exp\n  swap1\n  div\n  0xffffffffffffffffffffffffffffffffffffffff\n  and\n    /* \"contracts/access/Ownable.sol\":2985:3010  address oldOwner = _owner */\n  swap1\n  pop\n    /* \"contracts/access/Ownable.sol\":3029:3037  newOwner */\n  dup2\n    /* \"contracts/access/Ownable.sol\":3020:3026  _owner */\n  0x05\n  0x00\n    /* \"contracts/access/Ownable.sol\":3020:3037  _owner = newOwner */\n  0x0100\n  exp\n  dup2\n  sload\n  dup2\n  0xffffffffffffffffffffffffffffffffffffffff\n  mul\n  not\n  and\n  swap1\n  dup4\n  0xffffffffffffffffffffffffffffffffffffffff\n  and\n  mul\n  or\n  swap1\n  sstore\n  pop\n    /* \"contracts/access/Ownable.sol\":3083:3091  newOwner */\n  dup2\n    /* \"contracts/access/Ownable.sol\":3052:3092  OwnershipTransferred(oldOwner, newOwner) */\n  0xffffffffffffffffffffffffffffffffffffffff\n  and\n    /* \"contracts/access/Ownable.sol\":3073:3081  oldOwner */\n  dup2\n    /* \"contracts/access/Ownable.sol\":3052:3092  OwnershipTransferred(oldOwner, newOwner) */\n  0xffffffffffffffffffffffffffffffffffffffff\n  and\n  0x8be0079c531659141344cd1fd0a4f28419497f9722a3daafe3b4186f6b6457e0\n  mload(0x40)\n  mload(0x40)\n  dup1\n  swap2\n  sub\n  swap1\n  log3\n    /* \"contracts/access/Ownable.sol\":2975:3099  {... */\n  pop\n    /* \"contracts/access/Ownable.sol\":2912:3099  function _transferOwnership(address newOwner) internal virtual {... */\n  pop\n  jump\t// out\n    /* \"contracts/token/ERC20/ERC20.sol\":6677:6894  function _mint(address account, uint256 value) internal virtual  {... */\ntag_24:\n    /* \"contracts/token/ERC20/ERC20.sol\":6775:6776  0 */\n  0x00\n    /* \"contracts/token/ERC20/ERC20.sol\":6756:6777  account == address(0) */\n  0xffffffffffffffffffffffffffffffffffffffff\n  and\n    /* \"contracts/token/ERC20/ERC20.sol\":6756:6763  account */\n  dup3\n    /* \"contracts/token/ERC20/ERC20.sol\":6756:6777  account == address(0) */\n  0xffffffffffffffffffffffffffffffffffffffff\n  and\n  sub\n    /* \"contracts/token/ERC20/ERC20.sol\":6752:6843  if (account == address(0)) {... */\n  tag_28\n  jumpi\n    /* \"contracts/token/ERC20/ERC20.sol\":6829:6830  0 */\n  0x00\n    /* \"contracts/token/ERC20/ERC20.sol\":6800:6832  ERC20InvalidReceiver(address(0)) */\n  mload(0x40)\n  0xec442f0500000000000000000000000000000000000000000000000000000000\n  dup2\n  mstore\n  0x04\n  add\n  tag_29\n  swap2\n  swap1\n  tag_15\n  jump\t// in\ntag_29:\n  mload(0x40)\n  dup1\n  swap2\n  sub\n  swap1\n  revert\n    /* \"contracts/token/ERC20/ERC20.sol\":6752:6843  if (account == address(0)) {... */\ntag_28:\n    /* \"contracts/token/ERC20/ERC20.sol\":6852:6887  _update(address(0), account, value) */\n  tag_30\n    /* \"contracts/token/ERC20/ERC20.sol\":6868:6869  0 */\n  0x00\n    /* \"contracts/token/ERC20/ERC20.sol\":6872:6879  account */\n  dup4\n    /* \"contracts/token/ERC20/ERC20.sol\":6881:6886  value */\n  dup4\n    /* \"contracts/token/ERC20/ERC20.sol\":6852:6859  _update */\n  shl(0x20, tag_31)\n    /* \"contracts/token/ERC20/ERC20.sol\":6852:6887  _update(address(0), account, value) */\n  0x20\n  shr\n  jump\t// in\ntag_30:\n    /* \"contracts/token/ERC20/ERC20.sol\":6677:6894  function _mint(address account, uint256 value) internal virtual  {... */\n  pop\n  pop\n  jump\t// out\n    /* \"contracts/token/ERC20/ERC20.sol\":5227:6334  function _update(address from, address to, uint256 value) internal virtual {... */\ntag_31:\n    /* \"contracts/token/ERC20/ERC20.sol\":5332:5333  0 */\n  0x00\n    /* \"contracts/token/ERC20/ERC20.sol\":5316:5334  from == address(0) */\n  0xffffffffffffffffffffffffffffffffffffffff\n  and\n    /* \"contracts/token/ERC20/ERC20.sol\":5316:5320  from */\n  dup4\n    /* \"contracts/token/ERC20/ERC20.sol\":5316:5334  from == address(0) */\n  0xffffffffffffffffffffffffffffffffffffffff\n  and\n  sub\n    /* \"contracts/token/ERC20/ERC20.sol\":5312:5852  if (from == address(0)) {... */\n  tag_33\n  jumpi\n    /* \"contracts/token/ERC20/ERC20.sol\":5468:5473  value */\n  dup1\n    /* \"contracts/token/ERC20/ERC20.sol\":5452:5464  _totalSupply */\n  0x02\n  0x00\n    /* \"contracts/token/ERC20/ERC20.sol\":5452:5473  _totalSupply += value */\n  dup3\n  dup3\n  sload\n  tag_34\n  swap2\n  swap1\n  tag_35\n  jump\t// in\ntag_34:\n  swap3\n  pop\n  pop\n  dup2\n  swap1\n  sstore\n  pop\n    /* \"contracts/token/ERC20/ERC20.sol\":5312:5852  if (from == address(0)) {... */\n  jump(tag_36)\ntag_33:\n    /* \"contracts/token/ERC20/ERC20.sol\":5504:5523  uint256 fromBalance */\n  0x00\n    /* \"contracts/token/ERC20/ERC20.sol\":5526:5535  _balances */\n  dup1\n    /* \"contracts/token/ERC20/ERC20.sol\":5526:5541  _balances[from] */\n  0x00\n    /* \"contracts/token/ERC20/ERC20.sol\":5536:5540  from */\n  dup6\n    /* \"contracts/token/ERC20/ERC20.sol\":5526:5541  _balances[from] */\n  0xffffffffffffffffffffffffffffffffffffffff\n  and\n  0xffffffffffffffffffffffffffffffffffffffff\n  and\n  dup2\n  mstore\n  0x20\n  add\n  swap1\n  dup2\n  mstore\n  0x20\n  add\n  0x00\n  keccak256\n  sload\n    /* \"contracts/token/ERC20/ERC20.sol\":5504:5541  uint256 fromBalance = _balances[from] */\n  swap1\n  pop\n    /* \"contracts/token/ERC20/ERC20.sol\":5573:5578  value */\n  dup2\n    /* \"contracts/token/ERC20/ERC20.sol\":5559:5570  fromBalance */\n  dup2\n    /* \"contracts/token/ERC20/ERC20.sol\":5559:5578  fromBalance < value */\n  lt\n    /* \"contracts/token/ERC20/ERC20.sol\":5555:5670  if (fromBalance < value) {... */\n  iszero\n  tag_37\n  jumpi\n    /* \"contracts/token/ERC20/ERC20.sol\":5630:5634  from */\n  dup4\n    /* \"contracts/token/ERC20/ERC20.sol\":5636:5647  fromBalance */\n  dup2\n    /* \"contracts/token/ERC20/ERC20.sol\":5649:5654  value */\n  dup4\n    /* \"contracts/token/ERC20/ERC20.sol\":5605:5655  ERC20InsufficientBalance(from, fromBalance, value) */\n  mload(0x40)\n  0xe450d38c00000000000000000000000000000000000000000000000000000000\n  dup2\n  mstore\n  0x04\n  add\n  tag_38\n  swap4\n  swap3\n  swap2\n  swap1\n  tag_39\n  jump\t// in\ntag_38:\n  mload(0x40)\n  dup1\n  swap2\n  sub\n  swap1\n  revert\n    /* \"contracts/token/ERC20/ERC20.sol\":5555:5670  if (fromBalance < value) {... */\ntag_37:\n    /* \"contracts/token/ERC20/ERC20.sol\":5822:5827  value */\n  dup2\n    /* \"contracts/token/ERC20/ERC20.sol\":5808:5819  fromBalance */\n  dup2\n    /* \"contracts/token/ERC20/ERC20.sol\":5808:5827  fromBalance - value */\n  sub\n    /* \"contracts/token/ERC20/ERC20.sol\":5790:5799  _balances */\n  0x00\n    /* \"contracts/token/ERC20/ERC20.sol\":5790:5805  _balances[from] */\n  dup1\n    /* \"contracts/token/ERC20/ERC20.sol\":5800:5804  from */\n  dup7\n    /* \"contracts/token/ERC20/ERC20.sol\":5790:5805  _balances[from] */\n  0xffffffffffffffffffffffffffffffffffffffff\n  and\n  0xffffffffffffffffffffffffffffffffffffffff\n  and\n  dup2\n  mstore\n  0x20\n  add\n  swap1\n  dup2\n  mstore\n  0x20\n  add\n  0x00\n  keccak256\n    /* \"contracts/token/ERC20/ERC20.sol\":5790:5827  _balances[from] = fromBalance - value */\n  dup2\n  swap1\n  sstore\n  pop\n    /* \"contracts/token/ERC20/ERC20.sol\":5490:5852  {... */\n  pop\n    /* \"contracts/token/ERC20/ERC20.sol\":5312:5852  if (from == address(0)) {... */\ntag_36:\n    /* \"contracts/token/ERC20/ERC20.sol\":5880:5881  0 */\n  0x00\n    /* \"contracts/token/ERC20/ERC20.sol\":5866:5882  to == address(0) */\n  0xffffffffffffffffffffffffffffffffffffffff\n  and\n    /* \"contracts/token/ERC20/ERC20.sol\":5866:5868  to */\n  dup3\n    /* \"contracts/token/ERC20/ERC20.sol\":5866:5882  to == address(0) */\n  0xffffffffffffffffffffffffffffffffffffffff\n  and\n  sub\n    /* \"contracts/token/ERC20/ERC20.sol\":5862:6287  if (to == address(0)) {... */\n  tag_40\n  jumpi\n    /* \"contracts/token/ERC20/ERC20.sol\":6045:6050  value */\n  dup1\n    /* \"contracts/token/ERC20/ERC20.sol\":6029:6041  _totalSupply */\n  0x02\n  0x00\n    /* \"contracts/token/ERC20/ERC20.sol\":6029:6050  _totalSupply -= value */\n  dup3\n  dup3\n  sload\n  sub\n  swap3\n  pop\n  pop\n  dup2\n  swap1\n  sstore\n  pop\n    /* \"contracts/token/ERC20/ERC20.sol\":5862:6287  if (to == address(0)) {... */\n  jump(tag_41)\ntag_40:\n    /* \"contracts/token/ERC20/ERC20.sol\":6257:6262  value */\n  dup1\n    /* \"contracts/token/ERC20/ERC20.sol\":6240:6249  _balances */\n  0x00\n    /* \"contracts/token/ERC20/ERC20.sol\":6240:6253  _balances[to] */\n  dup1\n    /* \"contracts/token/ERC20/ERC20.sol\":6250:6252  to */\n  dup5\n    /* \"contracts/token/ERC20/ERC20.sol\":6240:6253  _balances[to] */\n  0xffffffffffffffffffffffffffffffffffffffff\n  and\n  0xffffffffffffffffffffffffffffffffffffffff\n  and\n  dup2\n  mstore\n  0x20\n  add\n  swap1\n  dup2\n  mstore\n  0x20\n  add\n  0x00\n  keccak256\n  0x00\n    /* \"contracts/token/ERC20/ERC20.sol\":6240:6262  _balances[to] += value */\n  dup3\n  dup3\n  sload\n  add\n  swap3\n  pop\n  pop\n  dup2\n  swap1\n  sstore\n  pop\n    /* \"contracts/token/ERC20/ERC20.sol\":5862:6287  if (to == address(0)) {... */\ntag_41:\n    /* \"contracts/token/ERC20/ERC20.sol\":6317:6319  to */\n  dup2\n    /* \"contracts/token/ERC20/ERC20.sol\":6302:6327  Transfer(from, to, value) */\n  0xffffffffffffffffffffffffffffffffffffffff\n  and\n    /* \"contracts/token/ERC20/ERC20.sol\":6311:6315  from */\n  dup4\n    /* \"contracts/token/ERC20/ERC20.sol\":6302:6327  Transfer(from, to, value) */\n  0xffffffffffffffffffffffffffffffffffffffff\n  and\n  0xddf252ad1be2c89b69c2b068fc378daa952ba7f163c4a11628f55a4df523b3ef\n    /* \"contracts/token/ERC20/ERC20.sol\":6321:6326  value */\n  dup4\n    /* \"contracts/token/ERC20/ERC20.sol\":6302:6327  Transfer(from, to, value) */\n  mload(0x40)\n  tag_42\n  swap2\n  swap1\n  tag_43\n  jump\t// in\ntag_42:\n  mload(0x40)\n  dup1\n  swap2\n  sub\n  swap1\n  log3\n    /* \"contracts/token/ERC20/ERC20.sol\":5227:6334  function _update(address from, address to, uint256 value) internal virtual {... */\n  pop\n  pop\n  pop\n  jump\t// out\n    /* \"#utility.yul\":7:82   */\ntag_44:\n    /* \"#utility.yul\":40:46   */\n  0x00\n    /* \"#utility.yul\":73:75   */\n  0x40\n    /* \"#utility.yul\":67:76   */\n  mload\n    /* \"#utility.yul\":57:76   */\n  swap1\n  pop\n    /* \"#utility.yul\":7:82   */\n  swap1\n  jump\t// out\n    /* \"#utility.yul\":88:205   */\ntag_45:\n    /* \"#utility.yul\":197:198   */\n  0x00\n    /* \"#utility.yul\":194:195   */\n  dup1\n    /* \"#utility.yul\":187:199   */\n  revert\n    /* \"#utility.yul\":211:328   */\ntag_46:\n    /* \"#utility.yul\":320:321   */\n  0x00\n    /* \"#utility.yul\":317:318   */\n  dup1\n    /* \"#utility.yul\":310:322   */\n  revert\n    /* \"#utility.yul\":334:451   */\ntag_47:\n    /* \"#utility.yul\":443:444   */\n  0x00\n    /* \"#utility.yul\":440:441   */\n  dup1\n    /* \"#utility.yul\":433:445   */\n  revert\n    /* \"#utility.yul\":457:574   */\ntag_48:\n    /* \"#utility.yul\":566:567   */\n  0x00\n    /* \"#utility.yul\":563:564   */\n  dup1\n    /* \"#utility.yul\":556:568   */\n  revert\n    /* \"#utility.yul\":580:682   */\ntag_49:\n    /* \"#utility.yul\":621:627   */\n  0x00\n    /* \"#utility.yul\":672:674   */\n  0x1f\n    /* \"#utility.yul\":668:675   */\n  not\n    /* \"#utility.yul\":663:665   */\n  0x1f\n    /* \"#utility.yul\":656:661   */\n  dup4\n    /* \"#utility.yul\":652:666   */\n  add\n    /* \"#utility.yul\":648:676   */\n  and\n    /* \"#utility.yul\":638:676   */\n  swap1\n  pop\n    /* \"#utility.yul\":580:682   */\n  swap2\n  swap1\n  pop\n  jump\t// out\n    /* \"#utility.yul\":688:868   */\ntag_50:\n    /* \"#utility.yul\":736:813   */\n  0x4e487b7100000000000000000000000000000000000000000000000000000000\n    /* \"#utility.yul\":733:734   */\n  0x00\n    /* \"#utility.yul\":726:814   */\n  mstore\n    /* \"#utility.yul\":833:837   */\n  0x41\n    /* \"#utility.yul\":830:831   */\n  0x04\n    /* \"#utility.yul\":823:838   */\n  mstore\n    /* \"#utility.yul\":857:861   */\n  0x24\n    /* \"#utility.yul\":854:855   */\n  0x00\n    /* \"#utility.yul\":847:862   */\n  revert\n    /* \"#utility.yul\":874:1155   */\ntag_51:\n    /* \"#utility.yul\":957:984   */\n  tag_100\n    /* \"#utility.yul\":979:983   */\n  dup3\n    /* \"#utility.yul\":957:984   */\n  tag_49\n  jump\t// in\ntag_100:\n    /* \"#utility.yul\":949:955   */\n  dup2\n    /* \"#utility.yul\":945:985   */\n  add\n    /* \"#utility.yul\":1087:1093   */\n  dup2\n    /* \"#utility.yul\":1075:1085   */\n  dup2\n    /* \"#utility.yul\":1072:1094   */\n  lt\n    /* \"#utility.yul\":1051:1069   */\n  0xffffffffffffffff\n    /* \"#utility.yul\":1039:1049   */\n  dup3\n    /* \"#utility.yul\":1036:1070   */\n  gt\n    /* \"#utility.yul\":1033:1095   */\n  or\n    /* \"#utility.yul\":1030:1118   */\n  iszero\n  tag_101\n  jumpi\n    /* \"#utility.yul\":1098:1116   */\n  tag_102\n  tag_50\n  jump\t// in\ntag_102:\n    /* \"#utility.yul\":1030:1118   */\ntag_101:\n    /* \"#utility.yul\":1138:1148   */\n  dup1\n    /* \"#utility.yul\":1134:1136   */\n  0x40\n    /* \"#utility.yul\":1127:1149   */\n  mstore\n    /* \"#utility.yul\":917:1155   */\n  pop\n    /* \"#utility.yul\":874:1155   */\n  pop\n  pop\n  jump\t// out\n    /* \"#utility.yul\":1161:1290   */\ntag_52:\n    /* \"#utility.yul\":1195:1201   */\n  0x00\n    /* \"#utility.yul\":1222:1242   */\n  tag_104\n  tag_44\n  jump\t// in\ntag_104:\n    /* \"#utility.yul\":1212:1242   */\n  swap1\n  pop\n    /* \"#utility.yul\":1251:1284   */\n  tag_105\n    /* \"#utility.yul\":1279:1283   */\n  dup3\n    /* \"#utility.yul\":1271:1277   */\n  dup3\n    /* \"#utility.yul\":1251:1284   */\n  tag_51\n  jump\t// in\ntag_105:\n    /* \"#utility.yul\":1161:1290   */\n  swap2\n  swap1\n  pop\n  jump\t// out\n    /* \"#utility.yul\":1296:1604   */\ntag_53:\n    /* \"#utility.yul\":1358:1362   */\n  0x00\n    /* \"#utility.yul\":1448:1466   */\n  0xffffffffffffffff\n    /* \"#utility.yul\":1440:1446   */\n  dup3\n    /* \"#utility.yul\":1437:1467   */\n  gt\n    /* \"#utility.yul\":1434:1490   */\n  iszero\n  tag_107\n  jumpi\n    /* \"#utility.yul\":1470:1488   */\n  tag_108\n  tag_50\n  jump\t// in\ntag_108:\n    /* \"#utility.yul\":1434:1490   */\ntag_107:\n    /* \"#utility.yul\":1508:1537   */\n  tag_109\n    /* \"#utility.yul\":1530:1536   */\n  dup3\n    /* \"#utility.yul\":1508:1537   */\n  tag_49\n  jump\t// in\ntag_109:\n    /* \"#utility.yul\":1500:1537   */\n  swap1\n  pop\n    /* \"#utility.yul\":1592:1596   */\n  0x20\n    /* \"#utility.yul\":1586:1590   */\n  dup2\n    /* \"#utility.yul\":1582:1597   */\n  add\n    /* \"#utility.yul\":1574:1597   */\n  swap1\n  pop\n    /* \"#utility.yul\":1296:1604   */\n  swap2\n  swap1\n  pop\n  jump\t// out\n    /* \"#utility.yul\":1610:1749   */\ntag_54:\n    /* \"#utility.yul\":1699:1705   */\n  dup3\n    /* \"#utility.yul\":1694:1697   */\n  dup2\n    /* \"#utility.yul\":1689:1692   */\n  dup4\n    /* \"#utility.yul\":1683:1706   */\n  mcopy\n    /* \"#utility.yul\":1740:1741   */\n  0x00\n    /* \"#utility.yul\":1731:1737   */\n  dup4\n    /* \"#utility.yul\":1726:1729   */\n  dup4\n    /* \"#utility.yul\":1722:1738   */\n  add\n    /* \"#utility.yul\":1715:1742   */\n  mstore\n    /* \"#utility.yul\":1610:1749   */\n  pop\n  pop\n  pop\n  jump\t// out\n    /* \"#utility.yul\":1755:2189   */\ntag_55:\n    /* \"#utility.yul\":1844:1849   */\n  0x00\n    /* \"#utility.yul\":1869:1935   */\n  tag_112\n    /* \"#utility.yul\":1885:1934   */\n  tag_113\n    /* \"#utility.yul\":1927:1933   */\n  dup5\n    /* \"#utility.yul\":1885:1934   */\n  tag_53\n  jump\t// in\ntag_113:\n    /* \"#utility.yul\":1869:1935   */\n  tag_52\n  jump\t// in\ntag_112:\n    /* \"#utility.yul\":1860:1935   */\n  swap1\n  pop\n    /* \"#utility.yul\":1958:1964   */\n  dup3\n    /* \"#utility.yul\":1951:1956   */\n  dup2\n    /* \"#utility.yul\":1944:1965   */\n  mstore\n    /* \"#utility.yul\":1996:2000   */\n  0x20\n    /* \"#utility.yul\":1989:1994   */\n  dup2\n    /* \"#utility.yul\":1985:2001   */\n  add\n    /* \"#utility.yul\":2034:2037   */\n  dup5\n    /* \"#utility.yul\":2025:2031   */\n  dup5\n    /* \"#utility.yul\":2020:2023   */\n  dup5\n    /* \"#utility.yul\":2016:2032   */\n  add\n    /* \"#utility.yul\":2013:2038   */\n  gt\n    /* \"#utility.yul\":2010:2122   */\n  iszero\n  tag_114\n  jumpi\n    /* \"#utility.yul\":2041:2120   */\n  tag_115\n  tag_48\n  jump\t// in\ntag_115:\n    /* \"#utility.yul\":2010:2122   */\ntag_114:\n    /* \"#utility.yul\":2131:2183   */\n  tag_116\n    /* \"#utility.yul\":2176:2182   */\n  dup5\n    /* \"#utility.yul\":2171:2174   */\n  dup3\n    /* \"#utility.yul\":2166:2169   */\n  dup6\n    /* \"#utility.yul\":2131:2183   */\n  tag_54\n  jump\t// in\ntag_116:\n    /* \"#utility.yul\":1850:2189   */\n  pop\n    /* \"#utility.yul\":1755:2189   */\n  swap4\n  swap3\n  pop\n  pop\n  pop\n  jump\t// out\n    /* \"#utility.yul\":2209:2564   */\ntag_56:\n    /* \"#utility.yul\":2276:2281   */\n  0x00\n    /* \"#utility.yul\":2325:2328   */\n  dup3\n    /* \"#utility.yul\":2318:2322   */\n  0x1f\n    /* \"#utility.yul\":2310:2316   */\n  dup4\n    /* \"#utility.yul\":2306:2323   */\n  add\n    /* \"#utility.yul\":2302:2329   */\n  slt\n    /* \"#utility.yul\":2292:2414   */\n  tag_118\n  jumpi\n    /* \"#utility.yul\":2333:2412   */\n  tag_119\n  tag_47\n  jump\t// in\ntag_119:\n    /* \"#utility.yul\":2292:2414   */\ntag_118:\n    /* \"#utility.yul\":2443:2449   */\n  dup2\n    /* \"#utility.yul\":2437:2450   */\n  mload\n    /* \"#utility.yul\":2468:2558   */\n  tag_120\n    /* \"#utility.yul\":2554:2557   */\n  dup5\n    /* \"#utility.yul\":2546:2552   */\n  dup3\n    /* \"#utility.yul\":2539:2543   */\n  0x20\n    /* \"#utility.yul\":2531:2537   */\n  dup7\n    /* \"#utility.yul\":2527:2544   */\n  add\n    /* \"#utility.yul\":2468:2558   */\n  tag_55\n  jump\t// in\ntag_120:\n    /* \"#utility.yul\":2459:2558   */\n  swap2\n  pop\n    /* \"#utility.yul\":2282:2564   */\n  pop\n    /* \"#utility.yul\":2209:2564   */\n  swap3\n  swap2\n  pop\n  pop\n  jump\t// out\n    /* \"#utility.yul\":2570:2647   */\ntag_57:\n    /* \"#utility.yul\":2607:2614   */\n  0x00\n    /* \"#utility.yul\":2636:2641   */\n  dup2\n    /* \"#utility.yul\":2625:2641   */\n  swap1\n  pop\n    /* \"#utility.yul\":2570:2647   */\n  swap2\n  swap1\n  pop\n  jump\t// out\n    /* \"#utility.yul\":2653:2775   */\ntag_58:\n    /* \"#utility.yul\":2726:2750   */\n  tag_123\n    /* \"#utility.yul\":2744:2749   */\n  dup2\n    /* \"#utility.yul\":2726:2750   */\n  tag_57\n  jump\t// in\ntag_123:\n    /* \"#utility.yul\":2719:2724   */\n  dup2\n    /* \"#utility.yul\":2716:2751   */\n  eq\n    /* \"#utility.yul\":2706:2769   */\n  tag_124\n  jumpi\n    /* \"#utility.yul\":2765:2766   */\n  0x00\n    /* \"#utility.yul\":2762:2763   */\n  dup1\n    /* \"#utility.yul\":2755:2767   */\n  revert\n    /* \"#utility.yul\":2706:2769   */\ntag_124:\n    /* \"#utility.yul\":2653:2775   */\n  pop\n  jump\t// out\n    /* \"#utility.yul\":2781:2924   */\ntag_59:\n    /* \"#utility.yul\":2838:2843   */\n  0x00\n    /* \"#utility.yul\":2869:2875   */\n  dup2\n    /* \"#utility.yul\":2863:2876   */\n  mload\n    /* \"#utility.yul\":2854:2876   */\n  swap1\n  pop\n    /* \"#utility.yul\":2885:2918   */\n  tag_126\n    /* \"#utility.yul\":2912:2917   */\n  dup2\n    /* \"#utility.yul\":2885:2918   */\n  tag_58\n  jump\t// in\ntag_126:\n    /* \"#utility.yul\":2781:2924   */\n  swap3\n  swap2\n  pop\n  pop\n  jump\t// out\n    /* \"#utility.yul\":2930:3016   */\ntag_60:\n    /* \"#utility.yul\":2965:2972   */\n  0x00\n    /* \"#utility.yul\":3005:3009   */\n  0xff\n    /* \"#utility.yul\":2998:3003   */\n  dup3\n    /* \"#utility.yul\":2994:3010   */\n  and\n    /* \"#utility.yul\":2983:3010   */\n  swap1\n  pop\n    /* \"#utility.yul\":2930:3016   */\n  swap2\n  swap1\n  pop\n  jump\t// out\n    /* \"#utility.yul\":3022:3140   */\ntag_61:\n    /* \"#utility.yul\":3093:3115   */\n  tag_129\n    /* \"#utility.yul\":3109:3114   */\n  dup2\n    /* \"#utility.yul\":3093:3115   */\n  tag_60\n  jump\t// in\ntag_129:\n    /* \"#utility.yul\":3086:3091   */\n  dup2\n    /* \"#utility.yul\":3083:3116   */\n  eq\n    /* \"#utility.yul\":3073:3134   */\n  tag_130\n  jumpi\n    /* \"#utility.yul\":3130:3131   */\n  0x00\n    /* \"#utility.yul\":3127:3128   */\n  dup1\n    /* \"#utility.yul\":3120:3132   */\n  revert\n    /* \"#utility.yul\":3073:3134   */\ntag_130:\n    /* \"#utility.yul\":3022:3140   */\n  pop\n  jump\t// out\n    /* \"#utility.yul\":3146:3285   */\ntag_62:\n    /* \"#utility.yul\":3201:3206   */\n  0x00\n    /* \"#utility.yul\":3232:3238   */\n  dup2\n    /* \"#utility.yul\":3226:3239   */\n  mload\n    /* \"#utility.yul\":3217:3239   */\n  swap1\n  pop\n    /* \"#utility.yul\":3248:3279   */\n  tag_132\n    /* \"#utility.yul\":3273:3278   */\n  dup2\n    /* \"#utility.yul\":3248:3279   */\n  tag_61\n  jump\t// in\ntag_132:\n    /* \"#utility.yul\":3146:3285   */\n  swap3\n  swap2\n  pop\n  pop\n  jump\t// out\n    /* \"#utility.yul\":3291:3417   */\ntag_63:\n    /* \"#utility.yul\":3328:3335   */\n  0x00\n    /* \"#utility.yul\":3368:3410   */\n  0xffffffffffffffffffffffffffffffffffffffff\n    /* \"#utility.yul\":3361:3366   */\n  dup3\n    /* \"#utility.yul\":3357:3411   */\n  and\n    /* \"#utility.yul\":3346:3411   */\n  swap1\n  pop\n    /* \"#utility.yul\":3291:3417   */\n  swap2\n  swap1\n  pop\n  jump\t// out\n    /* \"#utility.yul\":3423:3519   */\ntag_64:\n    /* \"#utility.yul\":3460:3467   */\n  0x00\n    /* \"#utility.yul\":3489:3513   */\n  tag_135\n    /* \"#utility.yul\":3507:3512   */\n  dup3\n    /* \"#utility.yul\":3489:3513   */\n  tag_63\n  jump\t// in\ntag_135:\n    /* \"#utility.yul\":3478:3513   */\n  swap1\n  pop\n    /* \"#utility.yul\":3423:3519   */\n  swap2\n  swap1\n  pop\n  jump\t// out\n    /* \"#utility.yul\":3525:3647   */\ntag_65:\n    /* \"#utility.yul\":3598:3622   */\n  tag_137\n    /* \"#utility.yul\":3616:3621   */\n  dup2\n    /* \"#utility.yul\":3598:3622   */\n  tag_64\n  jump\t// in\ntag_137:\n    /* \"#utility.yul\":3591:3596   */\n  dup2\n    /* \"#utility.yul\":3588:3623   */\n  eq\n    /* \"#utility.yul\":3578:3641   */\n  tag_138\n  jumpi\n    /* \"#utility.yul\":3637:3638   */\n  0x00\n    /* \"#utility.yul\":3634:3635   */\n  dup1\n    /* \"#utility.yul\":3627:3639   */\n  revert\n    /* \"#utility.yul\":3578:3641   */\ntag_138:\n    /* \"#utility.yul\":3525:3647   */\n  pop\n  jump\t// out\n    /* \"#utility.yul\":3653:3796   */\ntag_66:\n    /* \"#utility.yul\":3710:3715   */\n  0x00\n    /* \"#utility.yul\":3741:3747   */\n  dup2\n    /* \"#utility.yul\":3735:3748   */\n  mload\n    /* \"#utility.yul\":3726:3748   */\n  swap1\n  pop\n    /* \"#utility.yul\":3757:3790   */\n  tag_140\n    /* \"#utility.yul\":3784:3789   */\n  dup2\n    /* \"#utility.yul\":3757:3790   */\n  tag_65\n  jump\t// in\ntag_140:\n    /* \"#utility.yul\":3653:3796   */\n  swap3\n  swap2\n  pop\n  pop\n  jump\t// out\n    /* \"#utility.yul\":3802:5278   */\ntag_3:\n    /* \"#utility.yul\":3935:3941   */\n  0x00\n    /* \"#utility.yul\":3943:3949   */\n  dup1\n    /* \"#utility.yul\":3951:3957   */\n  0x00\n    /* \"#utility.yul\":3959:3965   */\n  dup1\n    /* \"#utility.yul\":3967:3973   */\n  0x00\n    /* \"#utility.yul\":3975:3981   */\n  dup1\n    /* \"#utility.yul\":4024:4027   */\n  0xc0\n    /* \"#utility.yul\":4012:4021   */\n  dup8\n    /* \"#utility.yul\":4003:4010   */\n  dup10\n    /* \"#utility.yul\":3999:4022   */\n  sub\n    /* \"#utility.yul\":3995:4028   */\n  slt\n    /* \"#utility.yul\":3992:4112   */\n  iszero\n  tag_142\n  jumpi\n    /* \"#utility.yul\":4031:4110   */\n  tag_143\n  tag_45\n  jump\t// in\ntag_143:\n    /* \"#utility.yul\":3992:4112   */\ntag_142:\n    /* \"#utility.yul\":4172:4173   */\n  0x00\n    /* \"#utility.yul\":4161:4170   */\n  dup8\n    /* \"#utility.yul\":4157:4174   */\n  add\n    /* \"#utility.yul\":4151:4175   */\n  mload\n    /* \"#utility.yul\":4202:4220   */\n  0xffffffffffffffff\n    /* \"#utility.yul\":4194:4200   */\n  dup2\n    /* \"#utility.yul\":4191:4221   */\n  gt\n    /* \"#utility.yul\":4188:4305   */\n  iszero\n  tag_144\n  jumpi\n    /* \"#utility.yul\":4224:4303   */\n  tag_145\n  tag_46\n  jump\t// in\ntag_145:\n    /* \"#utility.yul\":4188:4305   */\ntag_144:\n    /* \"#utility.yul\":4329:4403   */\n  tag_146\n    /* \"#utility.yul\":4395:4402   */\n  dup10\n    /* \"#utility.yul\":4386:4392   */\n  dup3\n    /* \"#utility.yul\":4375:4384   */\n  dup11\n    /* \"#utility.yul\":4371:4393   */\n  add\n    /* \"#utility.yul\":4329:4403   */\n  tag_56\n  jump\t// in\ntag_146:\n    /* \"#utility.yul\":4319:4403   */\n  swap7\n  pop\n    /* \"#utility.yul\":4122:4413   */\n  pop\n    /* \"#utility.yul\":4473:4475   */\n  0x20\n    /* \"#utility.yul\":4462:4471   */\n  dup8\n    /* \"#utility.yul\":4458:4476   */\n  add\n    /* \"#utility.yul\":4452:4477   */\n  mload\n    /* \"#utility.yul\":4504:4522   */\n  0xffffffffffffffff\n    /* \"#utility.yul\":4496:4502   */\n  dup2\n    /* \"#utility.yul\":4493:4523   */\n  gt\n    /* \"#utility.yul\":4490:4607   */\n  iszero\n  tag_147\n  jumpi\n    /* \"#utility.yul\":4526:4605   */\n  tag_148\n  tag_46\n  jump\t// in\ntag_148:\n    /* \"#utility.yul\":4490:4607   */\ntag_147:\n    /* \"#utility.yul\":4631:4705   */\n  tag_149\n    /* \"#utility.yul\":4697:4704   */\n  dup10\n    /* \"#utility.yul\":4688:4694   */\n  dup3\n    /* \"#utility.yul\":4677:4686   */\n  dup11\n    /* \"#utility.yul\":4673:4695   */\n  add\n    /* \"#utility.yul\":4631:4705   */\n  tag_56\n  jump\t// in\ntag_149:\n    /* \"#utility.yul\":4621:4705   */\n  swap6\n  pop\n    /* \"#utility.yul\":4423:4715   */\n  pop\n    /* \"#utility.yul\":4754:4756   */\n  0x40\n    /* \"#utility.yul\":4780:4844   */\n  tag_150\n    /* \"#utility.yul\":4836:4843   */\n  dup10\n    /* \"#utility.yul\":4827:4833   */\n  dup3\n    /* \"#utility.yul\":4816:4825   */\n  dup11\n    /* \"#utility.yul\":4812:4834   */\n  add\n    /* \"#utility.yul\":4780:4844   */\n  tag_59\n  jump\t// in\ntag_150:\n    /* \"#utility.yul\":4770:4844   */\n  swap5\n  pop\n    /* \"#utility.yul\":4725:4854   */\n  pop\n    /* \"#utility.yul\":4893:4895   */\n  0x60\n    /* \"#utility.yul\":4919:4983   */\n  tag_151\n    /* \"#utility.yul\":4975:4982   */\n  dup10\n    /* \"#utility.yul\":4966:4972   */\n  dup3\n    /* \"#utility.yul\":4955:4964   */\n  dup11\n    /* \"#utility.yul\":4951:4973   */\n  add\n    /* \"#utility.yul\":4919:4983   */\n  tag_59\n  jump\t// in\ntag_151:\n    /* \"#utility.yul\":4909:4983   */\n  swap4\n  pop\n    /* \"#utility.yul\":4864:4993   */\n  pop\n    /* \"#utility.yul\":5032:5035   */\n  0x80\n    /* \"#utility.yul\":5059:5121   */\n  tag_152\n    /* \"#utility.yul\":5113:5120   */\n  dup10\n    /* \"#utility.yul\":5104:5110   */\n  dup3\n    /* \"#utility.yul\":5093:5102   */\n  dup11\n    /* \"#utility.yul\":5089:5111   */\n  add\n    /* \"#utility.yul\":5059:5121   */\n  tag_62\n  jump\t// in\ntag_152:\n    /* \"#utility.yul\":5049:5121   */\n  swap3\n  pop\n    /* \"#utility.yul\":5003:5131   */\n  pop\n    /* \"#utility.yul\":5170:5173   */\n  0xa0\n    /* \"#utility.yul\":5197:5261   */\n  tag_153\n    /* \"#utility.yul\":5253:5260   */\n  dup10\n    /* \"#utility.yul\":5244:5250   */\n  dup3\n    /* \"#utility.yul\":5233:5242   */\n  dup11\n    /* \"#utility.yul\":5229:5251   */\n  add\n    /* \"#utility.yul\":5197:5261   */\n  tag_66\n  jump\t// in\ntag_153:\n    /* \"#utility.yul\":5187:5261   */\n  swap2\n  pop\n    /* \"#utility.yul\":5141:5271   */\n  pop\n    /* \"#utility.yul\":3802:5278   */\n  swap3\n  swap6\n  pop\n  swap3\n  swap6\n  pop\n  swap3\n  swap6\n  jump\t// out\n    /* \"#utility.yul\":5284:5383   */\ntag_67:\n    /* \"#utility.yul\":5336:5342   */\n  0x00\n    /* \"#utility.yul\":5370:5375   */\n  dup2\n    /* \"#utility.yul\":5364:5376   */\n  mload\n    /* \"#utility.yul\":5354:5376   */\n  swap1\n  pop\n    /* \"#utility.yul\":5284:5383   */\n  swap2\n  swap1\n  pop\n  jump\t// out\n    /* \"#utility.yul\":5389:5569   */\ntag_68:\n    /* \"#utility.yul\":5437:5514   */\n  0x4e487b7100000000000000000000000000000000000000000000000000000000\n    /* \"#utility.yul\":5434:5435   */\n  0x00\n    /* \"#utility.yul\":5427:5515   */\n  mstore\n    /* \"#utility.yul\":5534:5538   */\n  0x22\n    /* \"#utility.yul\":5531:5532   */\n  0x04\n    /* \"#utility.yul\":5524:5539   */\n  mstore\n    /* \"#utility.yul\":5558:5562   */\n  0x24\n    /* \"#utility.yul\":5555:5556   */\n  0x00\n    /* \"#utility.yul\":5548:5563   */\n  revert\n    /* \"#utility.yul\":5575:5895   */\ntag_69:\n    /* \"#utility.yul\":5619:5625   */\n  0x00\n    /* \"#utility.yul\":5656:5657   */\n  0x02\n    /* \"#utility.yul\":5650:5654   */\n  dup3\n    /* \"#utility.yul\":5646:5658   */\n  div\n    /* \"#utility.yul\":5636:5658   */\n  swap1\n  pop\n    /* \"#utility.yul\":5703:5704   */\n  0x01\n    /* \"#utility.yul\":5697:5701   */\n  dup3\n    /* \"#utility.yul\":5693:5705   */\n  and\n    /* \"#utility.yul\":5724:5742   */\n  dup1\n    /* \"#utility.yul\":5714:5795   */\n  tag_157\n  jumpi\n    /* \"#utility.yul\":5780:5784   */\n  0x7f\n    /* \"#utility.yul\":5772:5778   */\n  dup3\n    /* \"#utility.yul\":5768:5785   */\n  and\n    /* \"#utility.yul\":5758:5785   */\n  swap2\n  pop\n    /* \"#utility.yul\":5714:5795   */\ntag_157:\n    /* \"#utility.yul\":5842:5844   */\n  0x20\n    /* \"#utility.yul\":5834:5840   */\n  dup3\n    /* \"#utility.yul\":5831:5845   */\n  lt\n    /* \"#utility.yul\":5811:5829   */\n  dup2\n    /* \"#utility.yul\":5808:5846   */\n  sub\n    /* \"#utility.yul\":5805:5889   */\n  tag_158\n  jumpi\n    /* \"#utility.yul\":5861:5879   */\n  tag_159\n  tag_68\n  jump\t// in\ntag_159:\n    /* \"#utility.yul\":5805:5889   */\ntag_158:\n    /* \"#utility.yul\":5626:5895   */\n  pop\n    /* \"#utility.yul\":5575:5895   */\n  swap2\n  swap1\n  pop\n  jump\t// out\n    /* \"#utility.yul\":5901:6042   */\ntag_70:\n    /* \"#utility.yul\":5950:5954   */\n  0x00\n    /* \"#utility.yul\":5973:5976   */\n  dup2\n    /* \"#utility.yul\":5965:5976   */\n  swap1\n  pop\n    /* \"#utility.yul\":5996:5999   */\n  dup2\n    /* \"#utility.yul\":5993:5994   */\n  0x00\n    /* \"#utility.yul\":5986:6000   */\n  mstore\n    /* \"#utility.yul\":6030:6034   */\n  0x20\n    /* \"#utility.yul\":6027:6028   */\n  0x00\n    /* \"#utility.yul\":6017:6035   */\n  keccak256\n    /* \"#utility.yul\":6009:6035   */\n  swap1\n  pop\n    /* \"#utility.yul\":5901:6042   */\n  swap2\n  swap1\n  pop\n  jump\t// out\n    /* \"#utility.yul\":6048:6141   */\ntag_71:\n    /* \"#utility.yul\":6085:6091   */\n  0x00\n    /* \"#utility.yul\":6132:6134   */\n  0x20\n    /* \"#utility.yul\":6127:6129   */\n  0x1f\n    /* \"#utility.yul\":6120:6125   */\n  dup4\n    /* \"#utility.yul\":6116:6130   */\n  add\n    /* \"#utility.yul\":6112:6135   */\n  div\n    /* \"#utility.yul\":6102:6135   */\n  swap1\n  pop\n    /* \"#utility.yul\":6048:6141   */\n  swap2\n  swap1\n  pop\n  jump\t// out\n    /* \"#utility.yul\":6147:6254   */\ntag_72:\n    /* \"#utility.yul\":6191:6199   */\n  0x00\n    /* \"#utility.yul\":6241:6246   */\n  dup3\n    /* \"#utility.yul\":6235:6239   */\n  dup3\n    /* \"#utility.yul\":6231:6247   */\n  shl\n    /* \"#utility.yul\":6210:6247   */\n  swap1\n  pop\n    /* \"#utility.yul\":6147:6254   */\n  swap3\n  swap2\n  pop\n  pop\n  jump\t// out\n    /* \"#utility.yul\":6260:6653   */\ntag_73:\n    /* \"#utility.yul\":6329:6335   */\n  0x00\n    /* \"#utility.yul\":6379:6380   */\n  0x08\n    /* \"#utility.yul\":6367:6377   */\n  dup4\n    /* \"#utility.yul\":6363:6381   */\n  mul\n    /* \"#utility.yul\":6402:6499   */\n  tag_164\n    /* \"#utility.yul\":6432:6498   */\n  0xffffffffffffffffffffffffffffffffffffffffffffffffffffffffffffffff\n    /* \"#utility.yul\":6421:6430   */\n  dup3\n    /* \"#utility.yul\":6402:6499   */\n  tag_72\n  jump\t// in\ntag_164:\n    /* \"#utility.yul\":6520:6559   */\n  tag_165\n    /* \"#utility.yul\":6550:6558   */\n  dup7\n    /* \"#utility.yul\":6539:6548   */\n  dup4\n    /* \"#utility.yul\":6520:6559   */\n  tag_72\n  jump\t// in\ntag_165:\n    /* \"#utility.yul\":6508:6559   */\n  swap6\n  pop\n    /* \"#utility.yul\":6592:6596   */\n  dup1\n    /* \"#utility.yul\":6588:6597   */\n  not\n    /* \"#utility.yul\":6581:6586   */\n  dup5\n    /* \"#utility.yul\":6577:6598   */\n  and\n    /* \"#utility.yul\":6568:6598   */\n  swap4\n  pop\n    /* \"#utility.yul\":6641:6645   */\n  dup1\n    /* \"#utility.yul\":6631:6639   */\n  dup7\n    /* \"#utility.yul\":6627:6646   */\n  and\n    /* \"#utility.yul\":6620:6625   */\n  dup5\n    /* \"#utility.yul\":6617:6647   */\n  or\n    /* \"#utility.yul\":6607:6647   */\n  swap3\n  pop\n    /* \"#utility.yul\":6336:6653   */\n  pop\n  pop\n    /* \"#utility.yul\":6260:6653   */\n  swap4\n  swap3\n  pop\n  pop\n  pop\n  jump\t// out\n    /* \"#utility.yul\":6659:6719   */\ntag_74:\n    /* \"#utility.yul\":6687:6690   */\n  0x00\n    /* \"#utility.yul\":6708:6713   */\n  dup2\n    /* \"#utility.yul\":6701:6713   */\n  swap1\n  pop\n    /* \"#utility.yul\":6659:6719   */\n  swap2\n  swap1\n  pop\n  jump\t// out\n    /* \"#utility.yul\":6725:6867   */\ntag_75:\n    /* \"#utility.yul\":6775:6784   */\n  0x00\n    /* \"#utility.yul\":6808:6861   */\n  tag_168\n    /* \"#utility.yul\":6826:6860   */\n  tag_169\n    /* \"#utility.yul\":6835:6859   */\n  tag_170\n    /* \"#utility.yul\":6853:6858   */\n  dup5\n    /* \"#utility.yul\":6835:6859   */\n  tag_57\n  jump\t// in\ntag_170:\n    /* \"#utility.yul\":6826:6860   */\n  tag_74\n  jump\t// in\ntag_169:\n    /* \"#utility.yul\":6808:6861   */\n  tag_57\n  jump\t// in\ntag_168:\n    /* \"#utility.yul\":6795:6861   */\n  swap1\n  pop\n    /* \"#utility.yul\":6725:6867   */\n  swap2\n  swap1\n  pop\n  jump\t// out\n    /* \"#utility.yul\":6873:6948   */\ntag_76:\n    /* \"#utility.yul\":6916:6919   */\n  0x00\n    /* \"#utility.yul\":6937:6942   */\n  dup2\n    /* \"#utility.yul\":6930:6942   */\n  swap1\n  pop\n    /* \"#utility.yul\":6873:6948   */\n  swap2\n  swap1\n  pop\n  jump\t// out\n    /* \"#utility.yul\":6954:7223   */\ntag_77:\n    /* \"#utility.yul\":7064:7103   */\n  tag_173\n    /* \"#utility.yul\":7095:7102   */\n  dup4\n    /* \"#utility.yul\":7064:7103   */\n  tag_75\n  jump\t// in\ntag_173:\n    /* \"#utility.yul\":7125:7216   */\n  tag_174\n    /* \"#utility.yul\":7174:7215   */\n  tag_175\n    /* \"#utility.yul\":7198:7214   */\n  dup3\n    /* \"#utility.yul\":7174:7215   */\n  tag_76\n  jump\t// in\ntag_175:\n    /* \"#utility.yul\":7166:7172   */\n  dup5\n    /* \"#utility.yul\":7159:7163   */\n  dup5\n    /* \"#utility.yul\":7153:7164   */\n  sload\n    /* \"#utility.yul\":7125:7216   */\n  tag_73\n  jump\t// in\ntag_174:\n    /* \"#utility.yul\":7119:7123   */\n  dup3\n    /* \"#utility.yul\":7112:7217   */\n  sstore\n    /* \"#utility.yul\":7030:7223   */\n  pop\n    /* \"#utility.yul\":6954:7223   */\n  pop\n  pop\n  pop\n  jump\t// out\n    /* \"#utility.yul\":7229:7302   */\ntag_78:\n    /* \"#utility.yul\":7274:7277   */\n  0x00\n    /* \"#utility.yul\":7229:7302   */\n  swap1\n  jump\t// out\n    /* \"#utility.yul\":7308:7497   */\ntag_79:\n    /* \"#utility.yul\":7385:7417   */\n  tag_178\n  tag_78\n  jump\t// in\ntag_178:\n    /* \"#utility.yul\":7426:7491   */\n  tag_179\n    /* \"#utility.yul\":7484:7490   */\n  dup2\n    /* \"#utility.yul\":7476:7482   */\n  dup5\n    /* \"#utility.yul\":7470:7474   */\n  dup5\n    /* \"#utility.yul\":7426:7491   */\n  tag_77\n  jump\t// in\ntag_179:\n    /* \"#utility.yul\":7361:7497   */\n  pop\n    /* \"#utility.yul\":7308:7497   */\n  pop\n  pop\n  jump\t// out\n    /* \"#utility.yul\":7503:7689   */\ntag_80:\n    /* \"#utility.yul\":7563:7683   */\ntag_181:\n    /* \"#utility.yul\":7580:7583   */\n  dup2\n    /* \"#utility.yul\":7573:7578   */\n  dup2\n    /* \"#utility.yul\":7570:7584   */\n  lt\n    /* \"#utility.yul\":7563:7683   */\n  iszero\n  tag_183\n  jumpi\n    /* \"#utility.yul\":7634:7673   */\n  tag_184\n    /* \"#utility.yul\":7671:7672   */\n  0x00\n    /* \"#utility.yul\":7664:7669   */\n  dup3\n    /* \"#utility.yul\":7634:7673   */\n  tag_79\n  jump\t// in\ntag_184:\n    /* \"#utility.yul\":7607:7608   */\n  0x01\n    /* \"#utility.yul\":7600:7605   */\n  dup2\n    /* \"#utility.yul\":7596:7609   */\n  add\n    /* \"#utility.yul\":7587:7609   */\n  swap1\n  pop\n    /* \"#utility.yul\":7563:7683   */\n  jump(tag_181)\ntag_183:\n    /* \"#utility.yul\":7503:7689   */\n  pop\n  pop\n  jump\t// out\n    /* \"#utility.yul\":7695:8238   */\ntag_81:\n    /* \"#utility.yul\":7796:7798   */\n  0x1f\n    /* \"#utility.yul\":7791:7794   */\n  dup3\n    /* \"#utility.yul\":7788:7799   */\n  gt\n    /* \"#utility.yul\":7785:8231   */\n  iszero\n  tag_186\n  jumpi\n    /* \"#utility.yul\":7830:7868   */\n  tag_187\n    /* \"#utility.yul\":7862:7867   */\n  dup2\n    /* \"#utility.yul\":7830:7868   */\n  tag_70\n  jump\t// in\ntag_187:\n    /* \"#utility.yul\":7914:7943   */\n  tag_188\n    /* \"#utility.yul\":7932:7942   */\n  dup5\n    /* \"#utility.yul\":7914:7943   */\n  tag_71\n  jump\t// in\ntag_188:\n    /* \"#utility.yul\":7904:7912   */\n  dup2\n    /* \"#utility.yul\":7900:7944   */\n  add\n    /* \"#utility.yul\":8097:8099   */\n  0x20\n    /* \"#utility.yul\":8085:8095   */\n  dup6\n    /* \"#utility.yul\":8082:8100   */\n  lt\n    /* \"#utility.yul\":8079:8128   */\n  iszero\n  tag_189\n  jumpi\n    /* \"#utility.yul\":8118:8126   */\n  dup2\n    /* \"#utility.yul\":8103:8126   */\n  swap1\n  pop\n    /* \"#utility.yul\":8079:8128   */\ntag_189:\n    /* \"#utility.yul\":8141:8221   */\n  tag_190\n    /* \"#utility.yul\":8197:8219   */\n  tag_191\n    /* \"#utility.yul\":8215:8218   */\n  dup6\n    /* \"#utility.yul\":8197:8219   */\n  tag_71\n  jump\t// in\ntag_191:\n    /* \"#utility.yul\":8187:8195   */\n  dup4\n    /* \"#utility.yul\":8183:8220   */\n  add\n    /* \"#utility.yul\":8170:8181   */\n  dup3\n    /* \"#utility.yul\":8141:8221   */\n  tag_80\n  jump\t// in\ntag_190:\n    /* \"#utility.yul\":7800:8231   */\n  pop\n  pop\n    /* \"#utility.yul\":7785:8231   */\ntag_186:\n    /* \"#utility.yul\":7695:8238   */\n  pop\n  pop\n  pop\n  jump\t// out\n    /* \"#utility.yul\":8244:8361   */\ntag_82:\n    /* \"#utility.yul\":8298:8306   */\n  0x00\n    /* \"#utility.yul\":8348:8353   */\n  dup3\n    /* \"#utility.yul\":8342:8346   */\n  dup3\n    /* \"#utility.yul\":8338:8354   */\n  shr\n    /* \"#utility.yul\":8317:8354   */\n  swap1\n  pop\n    /* \"#utility.yul\":8244:8361   */\n  swap3\n  swap2\n  pop\n  pop\n  jump\t// out\n    /* \"#utility.yul\":8367:8536   */\ntag_83:\n    /* \"#utility.yul\":8411:8417   */\n  0x00\n    /* \"#utility.yul\":8444:8495   */\n  tag_194\n    /* \"#utility.yul\":8492:8493   */\n  0x00\n    /* \"#utility.yul\":8488:8494   */\n  not\n    /* \"#utility.yul\":8480:8485   */\n  dup5\n    /* \"#utility.yul\":8477:8478   */\n  0x08\n    /* \"#utility.yul\":8473:8486   */\n  mul\n    /* \"#utility.yul\":8444:8495   */\n  tag_82\n  jump\t// in\ntag_194:\n    /* \"#utility.yul\":8440:8496   */\n  not\n    /* \"#utility.yul\":8525:8529   */\n  dup1\n    /* \"#utility.yul\":8519:8523   */\n  dup4\n    /* \"#utility.yul\":8515:8530   */\n  and\n    /* \"#utility.yul\":8505:8530   */\n  swap2\n  pop\n    /* \"#utility.yul\":8418:8536   */\n  pop\n    /* \"#utility.yul\":8367:8536   */\n  swap3\n  swap2\n  pop\n  pop\n  jump\t// out\n    /* \"#utility.yul\":8541:8836   */\ntag_84:\n    /* \"#utility.yul\":8617:8621   */\n  0x00\n    /* \"#utility.yul\":8763:8792   */\n  tag_196\n    /* \"#utility.yul\":8788:8791   */\n  dup4\n    /* \"#utility.yul\":8782:8786   */\n  dup4\n    /* \"#utility.yul\":8763:8792   */\n  tag_83\n  jump\t// in\ntag_196:\n    /* \"#utility.yul\":8755:8792   */\n  swap2\n  pop\n    /* \"#utility.yul\":8825:8828   */\n  dup3\n    /* \"#utility.yul\":8822:8823   */\n  0x02\n    /* \"#utility.yul\":8818:8829   */\n  mul\n    /* \"#utility.yul\":8812:8816   */\n  dup3\n    /* \"#utility.yul\":8809:8830   */\n  or\n    /* \"#utility.yul\":8801:8830   */\n  swap1\n  pop\n    /* \"#utility.yul\":8541:8836   */\n  swap3\n  swap2\n  pop\n  pop\n  jump\t// out\n    /* \"#utility.yul\":8841:10236   */\ntag_10:\n    /* \"#utility.yul\":8958:8995   */\n  tag_198\n    /* \"#utility.yul\":8991:8994   */\n  dup3\n    /* \"#utility.yul\":8958:8995   */\n  tag_67\n  jump\t// in\ntag_198:\n    /* \"#utility.yul\":9060:9078   */\n  0xffffffffffffffff\n    /* \"#utility.yul\":9052:9058   */\n  dup2\n    /* \"#utility.yul\":9049:9079   */\n  gt\n    /* \"#utility.yul\":9046:9102   */\n  iszero\n  tag_199\n  jumpi\n    /* \"#utility.yul\":9082:9100   */\n  tag_200\n  tag_50\n  jump\t// in\ntag_200:\n    /* \"#utility.yul\":9046:9102   */\ntag_199:\n    /* \"#utility.yul\":9126:9164   */\n  tag_201\n    /* \"#utility.yul\":9158:9162   */\n  dup3\n    /* \"#utility.yul\":9152:9163   */\n  sload\n    /* \"#utility.yul\":9126:9164   */\n  tag_69\n  jump\t// in\ntag_201:\n    /* \"#utility.yul\":9211:9278   */\n  tag_202\n    /* \"#utility.yul\":9271:9277   */\n  dup3\n    /* \"#utility.yul\":9263:9269   */\n  dup3\n    /* \"#utility.yul\":9257:9261   */\n  dup6\n    /* \"#utility.yul\":9211:9278   */\n  tag_81\n  jump\t// in\ntag_202:\n    /* \"#utility.yul\":9305:9306   */\n  0x00\n    /* \"#utility.yul\":9329:9333   */\n  0x20\n    /* \"#utility.yul\":9316:9333   */\n  swap1\n  pop\n    /* \"#utility.yul\":9361:9363   */\n  0x1f\n    /* \"#utility.yul\":9353:9359   */\n  dup4\n    /* \"#utility.yul\":9350:9364   */\n  gt\n    /* \"#utility.yul\":9378:9379   */\n  0x01\n    /* \"#utility.yul\":9373:9991   */\n  dup2\n  eq\n  tag_204\n  jumpi\n    /* \"#utility.yul\":10035:10036   */\n  0x00\n    /* \"#utility.yul\":10052:10058   */\n  dup5\n    /* \"#utility.yul\":10049:10126   */\n  iszero\n  tag_205\n  jumpi\n    /* \"#utility.yul\":10101:10110   */\n  dup3\n    /* \"#utility.yul\":10096:10099   */\n  dup8\n    /* \"#utility.yul\":10092:10111   */\n  add\n    /* \"#utility.yul\":10086:10112   */\n  mload\n    /* \"#utility.yul\":10077:10112   */\n  swap1\n  pop\n    /* \"#utility.yul\":10049:10126   */\ntag_205:\n    /* \"#utility.yul\":10152:10219   */\n  tag_206\n    /* \"#utility.yul\":10212:10218   */\n  dup6\n    /* \"#utility.yul\":10205:10210   */\n  dup3\n    /* \"#utility.yul\":10152:10219   */\n  tag_84\n  jump\t// in\ntag_206:\n    /* \"#utility.yul\":10146:10150   */\n  dup7\n    /* \"#utility.yul\":10139:10220   */\n  sstore\n    /* \"#utility.yul\":10008:10230   */\n  pop\n    /* \"#utility.yul\":9343:10230   */\n  jump(tag_203)\n    /* \"#utility.yul\":9373:9991   */\ntag_204:\n    /* \"#utility.yul\":9425:9429   */\n  0x1f\n    /* \"#utility.yul\":9421:9430   */\n  not\n    /* \"#utility.yul\":9413:9419   */\n  dup5\n    /* \"#utility.yul\":9409:9431   */\n  and\n    /* \"#utility.yul\":9459:9496   */\n  tag_207\n    /* \"#utility.yul\":9491:9495   */\n  dup7\n    /* \"#utility.yul\":9459:9496   */\n  tag_70\n  jump\t// in\ntag_207:\n    /* \"#utility.yul\":9518:9519   */\n  0x00\n    /* \"#utility.yul\":9532:9740   */\ntag_208:\n    /* \"#utility.yul\":9546:9553   */\n  dup3\n    /* \"#utility.yul\":9543:9544   */\n  dup2\n    /* \"#utility.yul\":9540:9554   */\n  lt\n    /* \"#utility.yul\":9532:9740   */\n  iszero\n  tag_210\n  jumpi\n    /* \"#utility.yul\":9625:9634   */\n  dup5\n    /* \"#utility.yul\":9620:9623   */\n  dup10\n    /* \"#utility.yul\":9616:9635   */\n  add\n    /* \"#utility.yul\":9610:9636   */\n  mload\n    /* \"#utility.yul\":9602:9608   */\n  dup3\n    /* \"#utility.yul\":9595:9637   */\n  sstore\n    /* \"#utility.yul\":9676:9677   */\n  0x01\n    /* \"#utility.yul\":9668:9674   */\n  dup3\n    /* \"#utility.yul\":9664:9678   */\n  add\n    /* \"#utility.yul\":9654:9678   */\n  swap2\n  pop\n    /* \"#utility.yul\":9723:9725   */\n  0x20\n    /* \"#utility.yul\":9712:9721   */\n  dup6\n    /* \"#utility.yul\":9708:9726   */\n  add\n    /* \"#utility.yul\":9695:9726   */\n  swap5\n  pop\n    /* \"#utility.yul\":9569:9573   */\n  0x20\n    /* \"#utility.yul\":9566:9567   */\n  dup2\n    /* \"#utility.yul\":9562:9574   */\n  add\n    /* \"#utility.yul\":9557:9574   */\n  swap1\n  pop\n    /* \"#utility.yul\":9532:9740   */\n  jump(tag_208)\ntag_210:\n    /* \"#utility.yul\":9768:9774   */\n  dup7\n    /* \"#utility.yul\":9759:9766   */\n  dup4\n    /* \"#utility.yul\":9756:9775   */\n  lt\n    /* \"#utility.yul\":9753:9932   */\n  iszero\n  tag_211\n  jumpi\n    /* \"#utility.yul\":9826:9835   */\n  dup5\n    /* \"#utility.yul\":9821:9824   */\n  dup10\n    /* \"#utility.yul\":9817:9836   */\n  add\n    /* \"#utility.yul\":9811:9837   */\n  mload\n    /* \"#utility.yul\":9869:9917   */\n  tag_212\n    /* \"#utility.yul\":9911:9915   */\n  0x1f\n    /* \"#utility.yul\":9903:9909   */\n  dup10\n    /* \"#utility.yul\":9899:9916   */\n  and\n    /* \"#utility.yul\":9888:9897   */\n  dup3\n    /* \"#utility.yul\":9869:9917   */\n  tag_83\n  jump\t// in\ntag_212:\n    /* \"#utility.yul\":9861:9867   */\n  dup4\n    /* \"#utility.yul\":9854:9918   */\n  sstore\n    /* \"#utility.yul\":9776:9932   */\n  pop\n    /* \"#utility.yul\":9753:9932   */\ntag_211:\n    /* \"#utility.yul\":9978:9979   */\n  0x01\n    /* \"#utility.yul\":9974:9975   */\n  0x02\n    /* \"#utility.yul\":9966:9972   */\n  dup9\n    /* \"#utility.yul\":9962:9976   */\n  mul\n    /* \"#utility.yul\":9958:9980   */\n  add\n    /* \"#utility.yul\":9952:9956   */\n  dup9\n    /* \"#utility.yul\":9945:9981   */\n  sstore\n    /* \"#utility.yul\":9380:9991   */\n  pop\n  pop\n  pop\n    /* \"#utility.yul\":9343:10230   */\ntag_203:\n  pop\n    /* \"#utility.yul\":8933:10236   */\n  pop\n  pop\n  pop\n    /* \"#utility.yul\":8841:10236   */\n  pop\n  pop\n  jump\t// out\n    /* \"#utility.yul\":10242:10360   */\ntag_85:\n    /* \"#utility.yul\":10329:10353   */\n  tag_214\n    /* \"#utility.yul\":10347:10352   */\n  dup2\n    /* \"#utility.yul\":10329:10353   */\n  tag_64\n  jump\t// in\ntag_214:\n    /* \"#utility.yul\":10324:10327   */\n  dup3\n    /* \"#utility.yul\":10317:10354   */\n  mstore\n    /* \"#utility.yul\":10242:10360   */\n  pop\n  pop\n  jump\t// out\n    /* \"#utility.yul\":10366:10588   */\ntag_15:\n    /* \"#utility.yul\":10459:10463   */\n  0x00\n    /* \"#utility.yul\":10497:10499   */\n  0x20\n    /* \"#utility.yul\":10486:10495   */\n  dup3\n    /* \"#utility.yul\":10482:10500   */\n  add\n    /* \"#utility.yul\":10474:10500   */\n  swap1\n  pop\n    /* \"#utility.yul\":10510:10581   */\n  tag_216\n    /* \"#utility.yul\":10578:10579   */\n  0x00\n    /* \"#utility.yul\":10567:10576   */\n  dup4\n    /* \"#utility.yul\":10563:10580   */\n  add\n    /* \"#utility.yul\":10554:10560   */\n  dup5\n    /* \"#utility.yul\":10510:10581   */\n  tag_85\n  jump\t// in\ntag_216:\n    /* \"#utility.yul\":10366:10588   */\n  swap3\n  swap2\n  pop\n  pop\n  jump\t// out\n    /* \"#utility.yul\":10594:10763   */\ntag_86:\n    /* \"#utility.yul\":10678:10689   */\n  0x00\n    /* \"#utility.yul\":10712:10718   */\n  dup3\n    /* \"#utility.yul\":10707:10710   */\n  dup3\n    /* \"#utility.yul\":10700:10719   */\n  mstore\n    /* \"#utility.yul\":10752:10756   */\n  0x20\n    /* \"#utility.yul\":10747:10750   */\n  dup3\n    /* \"#utility.yul\":10743:10757   */\n  add\n    /* \"#utility.yul\":10728:10757   */\n  swap1\n  pop\n    /* \"#utility.yul\":10594:10763   */\n  swap3\n  swap2\n  pop\n  pop\n  jump\t// out\n    /* \"#utility.yul\":10769:11002   */\ntag_87:\n    /* \"#utility.yul\":10909:10943   */\n  0x496e697469616c20737570706c792063616e6e6f74206265206d6f7265207468\n    /* \"#utility.yul\":10905:10906   */\n  0x00\n    /* \"#utility.yul\":10897:10903   */\n  dup3\n    /* \"#utility.yul\":10893:10907   */\n  add\n    /* \"#utility.yul\":10886:10944   */\n  mstore\n    /* \"#utility.yul\":10978:10994   */\n  0x616e206d617820737570706c792e000000000000000000000000000000000000\n    /* \"#utility.yul\":10973:10975   */\n  0x20\n    /* \"#utility.yul\":10965:10971   */\n  dup3\n    /* \"#utility.yul\":10961:10976   */\n  add\n    /* \"#utility.yul\":10954:10995   */\n  mstore\n    /* \"#utility.yul\":10769:11002   */\n  pop\n  jump\t// out\n    /* \"#utility.yul\":11008:11374   */\ntag_88:\n    /* \"#utility.yul\":11150:11153   */\n  0x00\n    /* \"#utility.yul\":11171:11238   */\n  tag_220\n    /* \"#utility.yul\":11235:11237   */\n  0x2e\n    /* \"#utility.yul\":11230:11233   */\n  dup4\n    /* \"#utility.yul\":11171:11238   */\n  tag_86\n  jump\t// in\ntag_220:\n    /* \"#utility.yul\":11164:11238   */\n  swap2\n  pop\n    /* \"#utility.yul\":11247:11340   */\n  tag_221\n    /* \"#utility.yul\":11336:11339   */\n  dup3\n    /* \"#utility.yul\":11247:11340   */\n  tag_87\n  jump\t// in\ntag_221:\n    /* \"#utility.yul\":11365:11367   */\n  0x40\n    /* \"#utility.yul\":11360:11363   */\n  dup3\n    /* \"#utility.yul\":11356:11368   */\n  add\n    /* \"#utility.yul\":11349:11368   */\n  swap1\n  pop\n    /* \"#utility.yul\":11008:11374   */\n  swap2\n  swap1\n  pop\n  jump\t// out\n    /* \"#utility.yul\":11380:11799   */\ntag_22:\n    /* \"#utility.yul\":11546:11550   */\n  0x00\n    /* \"#utility.yul\":11584:11586   */\n  0x20\n    /* \"#utility.yul\":11573:11582   */\n  dup3\n    /* \"#utility.yul\":11569:11587   */\n  add\n    /* \"#utility.yul\":11561:11587   */\n  swap1\n  pop\n    /* \"#utility.yul\":11633:11642   */\n  dup2\n    /* \"#utility.yul\":11627:11631   */\n  dup2\n    /* \"#utility.yul\":11623:11643   */\n  sub\n    /* \"#utility.yul\":11619:11620   */\n  0x00\n    /* \"#utility.yul\":11608:11617   */\n  dup4\n    /* \"#utility.yul\":11604:11621   */\n  add\n    /* \"#utility.yul\":11597:11644   */\n  mstore\n    /* \"#utility.yul\":11661:11792   */\n  tag_223\n    /* \"#utility.yul\":11787:11791   */\n  dup2\n    /* \"#utility.yul\":11661:11792   */\n  tag_88\n  jump\t// in\ntag_223:\n    /* \"#utility.yul\":11653:11792   */\n  swap1\n  pop\n    /* \"#utility.yul\":11380:11799   */\n  swap2\n  swap1\n  pop\n  jump\t// out\n    /* \"#utility.yul\":11805:11985   */\ntag_89:\n    /* \"#utility.yul\":11853:11930   */\n  0x4e487b7100000000000000000000000000000000000000000000000000000000\n    /* \"#utility.yul\":11850:11851   */\n  0x00\n    /* \"#utility.yul\":11843:11931   */\n  mstore\n    /* \"#utility.yul\":11950:11954   */\n  0x11\n    /* \"#utility.yul\":11947:11948   */\n  0x04\n    /* \"#utility.yul\":11940:11955   */\n  mstore\n    /* \"#utility.yul\":11974:11978   */\n  0x24\n    /* \"#utility.yul\":11971:11972   */\n  0x00\n    /* \"#utility.yul\":11964:11979   */\n  revert\n    /* \"#utility.yul\":11991:12182   */\ntag_35:\n    /* \"#utility.yul\":12031:12034   */\n  0x00\n    /* \"#utility.yul\":12050:12070   */\n  tag_226\n    /* \"#utility.yul\":12068:12069   */\n  dup3\n    /* \"#utility.yul\":12050:12070   */\n  tag_57\n  jump\t// in\ntag_226:\n    /* \"#utility.yul\":12045:12070   */\n  swap2\n  pop\n    /* \"#utility.yul\":12084:12104   */\n  tag_227\n    /* \"#utility.yul\":12102:12103   */\n  dup4\n    /* \"#utility.yul\":12084:12104   */\n  tag_57\n  jump\t// in\ntag_227:\n    /* \"#utility.yul\":12079:12104   */\n  swap3\n  pop\n    /* \"#utility.yul\":12127:12128   */\n  dup3\n    /* \"#utility.yul\":12124:12125   */\n  dup3\n    /* \"#utility.yul\":12120:12129   */\n  add\n    /* \"#utility.yul\":12113:12129   */\n  swap1\n  pop\n    /* \"#utility.yul\":12148:12151   */\n  dup1\n    /* \"#utility.yul\":12145:12146   */\n  dup3\n    /* \"#utility.yul\":12142:12152   */\n  gt\n    /* \"#utility.yul\":12139:12175   */\n  iszero\n  tag_228\n  jumpi\n    /* \"#utility.yul\":12155:12173   */\n  tag_229\n  tag_89\n  jump\t// in\ntag_229:\n    /* \"#utility.yul\":12139:12175   */\ntag_228:\n    /* \"#utility.yul\":11991:12182   */\n  swap3\n  swap2\n  pop\n  pop\n  jump\t// out\n    /* \"#utility.yul\":12188:12306   */\ntag_90:\n    /* \"#utility.yul\":12275:12299   */\n  tag_231\n    /* \"#utility.yul\":12293:12298   */\n  dup2\n    /* \"#utility.yul\":12275:12299   */\n  tag_57\n  jump\t// in\ntag_231:\n    /* \"#utility.yul\":12270:12273   */\n  dup3\n    /* \"#utility.yul\":12263:12300   */\n  mstore\n    /* \"#utility.yul\":12188:12306   */\n  pop\n  pop\n  jump\t// out\n    /* \"#utility.yul\":12312:12754   */\ntag_39:\n    /* \"#utility.yul\":12461:12465   */\n  0x00\n    /* \"#utility.yul\":12499:12501   */\n  0x60\n    /* \"#utility.yul\":12488:12497   */\n  dup3\n    /* \"#utility.yul\":12484:12502   */\n  add\n    /* \"#utility.yul\":12476:12502   */\n  swap1\n  pop\n    /* \"#utility.yul\":12512:12583   */\n  tag_233\n    /* \"#utility.yul\":12580:12581   */\n  0x00\n    /* \"#utility.yul\":12569:12578   */\n  dup4\n    /* \"#utility.yul\":12565:12582   */\n  add\n    /* \"#utility.yul\":12556:12562   */\n  dup7\n    /* \"#utility.yul\":12512:12583   */\n  tag_85\n  jump\t// in\ntag_233:\n    /* \"#utility.yul\":12593:12665   */\n  tag_234\n    /* \"#utility.yul\":12661:12663   */\n  0x20\n    /* \"#utility.yul\":12650:12659   */\n  dup4\n    /* \"#utility.yul\":12646:12664   */\n  add\n    /* \"#utility.yul\":12637:12643   */\n  dup6\n    /* \"#utility.yul\":12593:12665   */\n  tag_90\n  jump\t// in\ntag_234:\n    /* \"#utility.yul\":12675:12747   */\n  tag_235\n    /* \"#utility.yul\":12743:12745   */\n  0x40\n    /* \"#utility.yul\":12732:12741   */\n  dup4\n    /* \"#utility.yul\":12728:12746   */\n  add\n    /* \"#utility.yul\":12719:12725   */\n  dup5\n    /* \"#utility.yul\":12675:12747   */\n  tag_90\n  jump\t// in\ntag_235:\n    /* \"#utility.yul\":12312:12754   */\n  swap5\n  swap4\n  pop\n  pop\n  pop\n  pop\n  jump\t// out\n    /* \"#utility.yul\":12760:12982   */\ntag_43:\n    /* \"#utility.yul\":12853:12857   */\n  0x00\n    /* \"#utility.yul\":12891:12893   */\n  0x20\n    /* \"#utility.yul\":12880:12889   */\n  dup3\n    /* \"#utility.yul\":12876:12894   */\n  add\n    /* \"#utility.yul\":12868:12894   */\n  swap1\n  pop\n    /* \"#utility.yul\":12904:12975   */\n  tag_237\n    /* \"#utility.yul\":12972:12973   */\n  0x00\n    /* \"#utility.yul\":12961:12970   */\n  dup4\n    /* \"#utility.yul\":12957:12974   */\n  add\n    /* \"#utility.yul\":12948:12954   */\n  dup5\n    /* \"#utility.yul\":12904:12975   */\n  tag_90\n  jump\t// in\ntag_237:\n    /* \"#utility.yul\":12760:12982   */\n  swap3\n  swap2\n  pop\n  pop\n  jump\t// out\n    /* \"GenericLayout.sol\":301:4406  contract GenericLayout is ERC20, ERC20Burnable, /*Pausable*/ Ownable, ReentrancyGuard {... */\ntag_25:\n  dataSize(sub_0)\n  dup1\n  dataOffset(sub_0)\n  0x00\n  codecopy\n  0x00\n  return\nstop\n\nsub_0: assembly {\n        /* \"GenericLayout.sol\":301:4406  contract GenericLayout is ERC20, ERC20Burnable, /*Pausable*/ Ownable, ReentrancyGuard {... */\n      mstore(0x40, 0x80)\n      callvalue\n      dup1\n      iszero\n      tag_1\n      jumpi\n      0x00\n      dup1\n      revert\n    tag_1:\n      pop\n      jumpi(tag_2, lt(calldatasize, 0x04))\n      shr(0xe0, calldataload(0x00))\n      dup1\n      0x715018a6\n      gt\n      tag_26\n      jumpi\n      dup1\n      0xafe8289a\n      gt\n      tag_27\n      jumpi\n      dup1\n      0xafe8289a\n      eq\n      tag_20\n      jumpi\n      dup1\n      0xc8052107\n      eq\n      tag_21\n      jumpi\n      dup1\n      0xd5abeb01\n      eq\n      tag_22\n      jumpi\n      dup1\n      0xd82e3962\n      eq\n      tag_23\n      jumpi\n      dup1\n      0xdd62ed3e\n      eq\n      tag_24\n      jumpi\n      dup1\n      0xf2fde38b\n      eq\n      tag_25\n      jumpi\n      jump(tag_2)\n    tag_27:\n      dup1\n      0x715018a6\n      eq\n      tag_14\n      jumpi\n      dup1\n      0x79cc6790\n      eq\n      tag_15\n      jumpi\n      dup1\n      0x8da5cb5b\n      eq\n      tag_16\n      jumpi\n      dup1\n      0x95d89b41\n      eq\n      tag_17\n      jumpi\n      dup1\n      0xa64254c3\n      eq\n      tag_18\n      jumpi\n      dup1\n      0xa9059cbb\n      eq\n      tag_19\n      jumpi\n      jump(tag_2)\n    tag_26:\n      dup1\n      0x23b872dd\n      gt\n      tag_28\n      jumpi\n      dup1\n      0x23b872dd\n      eq\n      tag_8\n      jumpi\n      dup1\n      0x313ce567\n      eq\n      tag_9\n      jumpi\n      dup1\n      0x42966c68\n      eq\n      tag_10\n      jumpi\n      dup1\n      0x51c6590a\n      eq\n      tag_11\n      jumpi\n      dup1\n      0x52756986\n      eq\n      tag_12\n      jumpi\n      dup1\n      0x70a08231\n      eq\n      tag_13\n      jumpi\n      jump(tag_2)\n    tag_28:\n      dup1\n      0x06fdde03\n      eq\n      tag_3\n      jumpi\n      dup1\n      0x095ea7b3\n      eq\n      tag_4\n      jumpi\n      dup1\n      0x18160ddd\n      eq\n      tag_5\n      jumpi\n      dup1\n      0x21208fa2\n      eq\n      tag_6\n      jumpi\n      dup1\n      0x2254b79c\n      eq\n      tag_7\n      jumpi\n    tag_2:\n      0x00\n      dup1\n      revert\n        /* \"contracts/token/ERC20/ERC20.sol\":1022:1111  function name() public view virtual returns (string memory) {... */\n    tag_3:\n      tag_29\n      tag_30\n      jump\t// in\n    tag_29:\n      mload(0x40)\n      tag_31\n      swap2\n      swap1\n      tag_32\n      jump\t// in\n    tag_31:\n      mload(0x40)\n      dup1\n      swap2\n      sub\n      swap1\n      return\n        /* \"contracts/token/ERC20/ERC20.sol\":3241:3427  function approve(address spender, uint256 value) public virtual returns (bool) {... */\n    tag_4:\n      tag_33\n      0x04\n      dup1\n      calldatasize\n      sub\n      dup2\n      add\n      swap1\n      tag_34\n      swap2\n      swap1\n      tag_35\n      jump\t// in\n    tag_34:\n      tag_36\n      jump\t// in\n    tag_33:\n      mload(0x40)\n      tag_37\n      swap2\n      swap1\n      tag_38\n      jump\t// in\n    tag_37:\n      mload(0x40)\n      dup1\n      swap2\n      sub\n      swap1\n      return\n        /* \"contracts/token/ERC20/ERC20.sol\":2092:2189  function totalSupply() public view virtual returns (uint256) {... */\n    tag_5:\n      tag_39\n      tag_40\n      jump\t// in\n    tag_39:\n      mload(0x40)\n      tag_41\n      swap2\n      swap1\n      tag_42\n      jump\t// in\n    tag_41:\n      mload(0x40)\n      dup1\n      swap2\n      sub\n      swap1\n      return\n        /* \"GenericLayout.sol\":1640:1739  function disableCircuitBreaker() public onlyOwner {... */\n    tag_6:\n      tag_43\n      tag_44\n      jump\t// in\n    tag_43:\n      stop\n        /* \"GenericLayout.sol\":4020:4401  function ownerRemoveLiquidity(uint256 amount) public onlyOwner nonReentrant {... */\n    tag_7:\n      tag_45\n      0x04\n      dup1\n      calldatasize\n      sub\n      dup2\n      add\n      swap1\n      tag_46\n      swap2\n      swap1\n      tag_47\n      jump\t// in\n    tag_46:\n      tag_48\n      jump\t// in\n    tag_45:\n      stop\n        /* \"contracts/token/ERC20/ERC20.sol\":3987:4231  function transferFrom(address from, address to, uint256 value) public virtual returns (bool) {... */\n    tag_8:\n      tag_49\n      0x04\n      dup1\n      calldatasize\n      sub\n      dup2\n      add\n      swap1\n      tag_50\n      swap2\n      swap1\n      tag_51\n      jump\t// in\n    tag_50:\n      tag_52\n      jump\t// in\n    tag_49:\n      mload(0x40)\n      tag_53\n      swap2\n      swap1\n      tag_38\n      jump\t// in\n    tag_53:\n      mload(0x40)\n      dup1\n      swap2\n      sub\n      swap1\n      return\n        /* \"GenericLayout.sol\":1089:1194  function decimals() public view virtual override returns (uint8) {... */\n    tag_9:\n      tag_54\n      tag_55\n      jump\t// in\n    tag_54:\n      mload(0x40)\n      tag_56\n      swap2\n      swap1\n      tag_57\n      jump\t// in\n    tag_56:\n      mload(0x40)\n      dup1\n      swap2\n      sub\n      swap1\n      return\n        /* \"contracts/token/ERC20/extensions/ERC20Burnable.sol\":618:705  function burn(uint256 value) public virtual {... */\n    tag_10:\n      tag_58\n      0x04\n      dup1\n      calldatasize\n      sub\n      dup2\n      add\n      swap1\n      tag_59\n      swap2\n      swap1\n      tag_47\n      jump\t// in\n    tag_59:\n      tag_60\n      jump\t// in\n    tag_58:\n      stop\n        /* \"GenericLayout.sol\":2386:2613  function addLiquidity(uint256 amount) public {... */\n    tag_11:\n      tag_61\n      0x04\n      dup1\n      calldatasize\n      sub\n      dup2\n      add\n      swap1\n      tag_62\n      swap2\n      swap1\n      tag_47\n      jump\t// in\n    tag_62:\n      tag_63\n      jump\t// in\n    tag_61:\n      stop\n        /* \"GenericLayout.sol\":432:459  uint8 public decimalsPlaces */\n    tag_12:\n      tag_64\n      tag_65\n      jump\t// in\n    tag_64:\n      mload(0x40)\n      tag_66\n      swap2\n      swap1\n      tag_57\n      jump\t// in\n    tag_66:\n      mload(0x40)\n      dup1\n      swap2\n      sub\n      swap1\n      return\n        /* \"contracts/token/ERC20/ERC20.sol\":2247:2363  function balanceOf(address account) public view virtual returns (uint256) {... */\n    tag_13:\n      tag_67\n      0x04\n      dup1\n      calldatasize\n      sub\n      dup2\n      add\n      swap1\n      tag_68\n      swap2\n      swap1\n      tag_69\n      jump\t// in\n    tag_68:\n      tag_70\n      jump\t// in\n    tag_67:\n      mload(0x40)\n      tag_71\n      swap2\n      swap1\n      tag_42\n      jump\t// in\n    tag_71:\n      mload(0x40)\n      dup1\n      swap2\n      sub\n      swap1\n      return\n        /* \"contracts/access/Ownable.sol\":2293:2394  function renounceOwnership() public virtual onlyOwner {... */\n    tag_14:\n      tag_72\n      tag_73\n      jump\t// in\n    tag_72:\n      stop\n        /* \"contracts/token/ERC20/extensions/ERC20Burnable.sol\":1021:1179  function burnFrom(address account, uint256 value) public virtual {... */\n    tag_15:\n      tag_74\n      0x04\n      dup1\n      calldatasize\n      sub\n      dup2\n      add\n      swap1\n      tag_75\n      swap2\n      swap1\n      tag_35\n      jump\t// in\n    tag_75:\n      tag_76\n      jump\t// in\n    tag_74:\n      stop\n        /* \"contracts/access/Ownable.sol\":1638:1723  function owner() public view virtual returns (address) {... */\n    tag_16:\n      tag_77\n      tag_78\n      jump\t// in\n    tag_77:\n      mload(0x40)\n      tag_79\n      swap2\n      swap1\n      tag_80\n      jump\t// in\n    tag_79:\n      mload(0x40)\n      dup1\n      swap2\n      sub\n      swap1\n      return\n        /* \"contracts/token/ERC20/ERC20.sol\":1224:1317  function symbol() public view virtual returns (string memory) {... */\n    tag_17:\n      tag_81\n      tag_82\n      jump\t// in\n    tag_81:\n      mload(0x40)\n      tag_83\n      swap2\n      swap1\n      tag_32\n      jump\t// in\n    tag_83:\n      mload(0x40)\n      dup1\n      swap2\n      sub\n      swap1\n      return\n        /* \"GenericLayout.sol\":1537:1634  function enableCircuitBreaker() public onlyOwner {... */\n    tag_18:\n      tag_84\n      tag_85\n      jump\t// in\n    tag_84:\n      stop\n        /* \"contracts/token/ERC20/ERC20.sol\":2558:2736  function transfer(address to, uint256 value) public virtual returns (bool) {... */\n    tag_19:\n      tag_86\n      0x04\n      dup1\n      calldatasize\n      sub\n      dup2\n      add\n      swap1\n      tag_87\n      swap2\n      swap1\n      tag_35\n      jump\t// in\n    tag_87:\n      tag_88\n      jump\t// in\n    tag_86:\n      mload(0x40)\n      tag_89\n      swap2\n      swap1\n      tag_38\n      jump\t// in\n    tag_89:\n      mload(0x40)\n      dup1\n      swap2\n      sub\n      swap1\n      return\n        /* \"GenericLayout.sol\":3792:4012  function ownerAddLiquidity(uint256 amount) public onlyOwner {... */\n    tag_20:\n      tag_90\n      0x04\n      dup1\n      calldatasize\n      sub\n      dup2\n      add\n      swap1\n      tag_91\n      swap2\n      swap1\n      tag_47\n      jump\t// in\n    tag_91:\n      tag_92\n      jump\t// in\n    tag_90:\n      stop\n        /* \"GenericLayout.sol\":2621:3439  function removeLiquidityAndClaimRewards(uint256 amount) public nonReentrant {... */\n    tag_21:\n      tag_93\n      0x04\n      dup1\n      calldatasize\n      sub\n      dup2\n      add\n      swap1\n      tag_94\n      swap2\n      swap1\n      tag_47\n      jump\t// in\n    tag_94:\n      tag_95\n      jump\t// in\n    tag_93:\n      stop\n        /* \"GenericLayout.sol\":394:418  uint256 public maxSupply */\n    tag_22:\n      tag_96\n      tag_97\n      jump\t// in\n    tag_96:\n      mload(0x40)\n      tag_98\n      swap2\n      swap1\n      tag_42\n      jump\t// in\n    tag_98:\n      mload(0x40)\n      dup1\n      swap2\n      sub\n      swap1\n      return\n        /* \"GenericLayout.sol\":3447:3784  function calculateReward(address user) public view returns (uint256) {... */\n    tag_23:\n      tag_99\n      0x04\n      dup1\n      calldatasize\n      sub\n      dup2\n      add\n      swap1\n      tag_100\n      swap2\n      swap1\n      tag_69\n      jump\t// in\n    tag_100:\n      tag_101\n      jump\t// in\n    tag_99:\n      mload(0x40)\n      tag_102\n      swap2\n      swap1\n      tag_42\n      jump\t// in\n    tag_102:\n      mload(0x40)\n      dup1\n      swap2\n      sub\n      swap1\n      return\n        /* \"contracts/token/ERC20/ERC20.sol\":2794:2934  function allowance(address owner, address spender) public view virtual returns (uint256) {... */\n    tag_24:\n      tag_103\n      0x04\n      dup1\n      calldatasize\n      sub\n      dup2\n      add\n      swap1\n      tag_104\n      swap2\n      swap1\n      tag_105\n      jump\t// in\n    tag_104:\n      tag_106\n      jump\t// in\n    tag_103:\n      mload(0x40)\n      tag_107\n      swap2\n      swap1\n      tag_42\n      jump\t// in\n    tag_107:\n      mload(0x40)\n      dup1\n      swap2\n      sub\n      swap1\n      return\n        /* \"contracts/access/Ownable.sol\":2543:2758  function transferOwnership(address newOwner) public virtual onlyOwner {... */\n    tag_25:\n      tag_108\n      0x04\n      dup1\n      calldatasize\n      sub\n      dup2\n      add\n      swap1\n      tag_109\n      swap2\n      swap1\n      tag_69\n      jump\t// in\n    tag_109:\n      tag_110\n      jump\t// in\n    tag_108:\n      stop\n        /* \"contracts/token/ERC20/ERC20.sol\":1022:1111  function name() public view virtual returns (string memory) {... */\n    tag_30:\n        /* \"contracts/token/ERC20/ERC20.sol\":1067:1080  string memory */\n      0x60\n        /* \"contracts/token/ERC20/ERC20.sol\":1099:1104  _name */\n      0x03\n        /* \"contracts/token/ERC20/ERC20.sol\":1092:1104  return _name */\n      dup1\n      sload\n      tag_112\n      swap1\n      tag_113\n      jump\t// in\n    tag_112:\n      dup1\n      0x1f\n      add\n      0x20\n      dup1\n      swap2\n      div\n      mul\n      0x20\n      add\n      mload(0x40)\n      swap1\n      dup2\n      add\n      0x40\n      mstore\n      dup1\n      swap3\n      swap2\n      swap1\n      dup2\n      dup2\n      mstore\n      0x20\n      add\n      dup3\n      dup1\n      sload\n      tag_114\n      swap1\n      tag_113\n      jump\t// in\n    tag_114:\n      dup1\n      iszero\n      tag_115\n      jumpi\n      dup1\n      0x1f\n      lt\n      tag_116\n      jumpi\n      0x0100\n      dup1\n      dup4\n      sload\n      div\n      mul\n      dup4\n      mstore\n      swap2\n      0x20\n      add\n      swap2\n      jump(tag_115)\n    tag_116:\n      dup3\n      add\n      swap2\n      swap1\n      0x00\n      mstore\n      keccak256(0x00, 0x20)\n      swap1\n    tag_117:\n      dup2\n      sload\n      dup2\n      mstore\n      swap1\n      0x01\n      add\n      swap1\n      0x20\n      add\n      dup1\n      dup4\n      gt\n      tag_117\n      jumpi\n      dup3\n      swap1\n      sub\n      0x1f\n      and\n      dup3\n      add\n      swap2\n    tag_115:\n      pop\n      pop\n      pop\n      pop\n      pop\n      swap1\n      pop\n        /* \"contracts/token/ERC20/ERC20.sol\":1022:1111  function name() public view virtual returns (string memory) {... */\n      swap1\n      jump\t// out\n        /* \"contracts/token/ERC20/ERC20.sol\":3241:3427  function approve(address spender, uint256 value) public virtual returns (bool) {... */\n    tag_36:\n        /* \"contracts/token/ERC20/ERC20.sol\":3314:3318  bool */\n      0x00\n        /* \"contracts/token/ERC20/ERC20.sol\":3330:3343  address owner */\n      dup1\n        /* \"contracts/token/ERC20/ERC20.sol\":3346:3358  _msgSender() */\n      tag_119\n        /* \"contracts/token/ERC20/ERC20.sol\":3346:3356  _msgSender */\n      tag_120\n        /* \"contracts/token/ERC20/ERC20.sol\":3346:3358  _msgSender() */\n      jump\t// in\n    tag_119:\n        /* \"contracts/token/ERC20/ERC20.sol\":3330:3358  address owner = _msgSender() */\n      swap1\n      pop\n        /* \"contracts/token/ERC20/ERC20.sol\":3368:3399  _approve(owner, spender, value) */\n      tag_121\n        /* \"contracts/token/ERC20/ERC20.sol\":3377:3382  owner */\n      dup2\n        /* \"contracts/token/ERC20/ERC20.sol\":3384:3391  spender */\n      dup6\n        /* \"contracts/token/ERC20/ERC20.sol\":3393:3398  value */\n      dup6\n        /* \"contracts/token/ERC20/ERC20.sol\":3368:3376  _approve */\n      tag_122\n        /* \"contracts/token/ERC20/ERC20.sol\":3368:3399  _approve(owner, spender, value) */\n      jump\t// in\n    tag_121:\n        /* \"contracts/token/ERC20/ERC20.sol\":3416:3420  true */\n      0x01\n        /* \"contracts/token/ERC20/ERC20.sol\":3409:3420  return true */\n      swap2\n      pop\n      pop\n        /* \"contracts/token/ERC20/ERC20.sol\":3241:3427  function approve(address spender, uint256 value) public virtual returns (bool) {... */\n      swap3\n      swap2\n      pop\n      pop\n      jump\t// out\n        /* \"contracts/token/ERC20/ERC20.sol\":2092:2189  function totalSupply() public view virtual returns (uint256) {... */\n    tag_40:\n        /* \"contracts/token/ERC20/ERC20.sol\":2144:2151  uint256 */\n      0x00\n        /* \"contracts/token/ERC20/ERC20.sol\":2170:2182  _totalSupply */\n      sload(0x02)\n        /* \"contracts/token/ERC20/ERC20.sol\":2163:2182  return _totalSupply */\n      swap1\n      pop\n        /* \"contracts/token/ERC20/ERC20.sol\":2092:2189  function totalSupply() public view virtual returns (uint256) {... */\n      swap1\n      jump\t// out\n        /* \"GenericLayout.sol\":1640:1739  function disableCircuitBreaker() public onlyOwner {... */\n    tag_44:\n        /* \"contracts/access/Ownable.sol\":1531:1544  _checkOwner() */\n      tag_125\n        /* \"contracts/access/Ownable.sol\":1531:1542  _checkOwner */\n      tag_126\n        /* \"contracts/access/Ownable.sol\":1531:1544  _checkOwner() */\n      jump\t// in\n    tag_125:\n        /* \"GenericLayout.sol\":1726:1731  false */\n      0x00\n        /* \"GenericLayout.sol\":1701:1723  _circuitBreakerEnabled */\n      0x0b\n      0x00\n        /* \"GenericLayout.sol\":1701:1731  _circuitBreakerEnabled = false */\n      0x0100\n      exp\n      dup2\n      sload\n      dup2\n      0xff\n      mul\n      not\n      and\n      swap1\n      dup4\n      iszero\n      iszero\n      mul\n      or\n      swap1\n      sstore\n      pop\n        /* \"GenericLayout.sol\":1640:1739  function disableCircuitBreaker() public onlyOwner {... */\n      jump\t// out\n        /* \"GenericLayout.sol\":4020:4401  function ownerRemoveLiquidity(uint256 amount) public onlyOwner nonReentrant {... */\n    tag_48:\n        /* \"contracts/access/Ownable.sol\":1531:1544  _checkOwner() */\n      tag_129\n        /* \"contracts/access/Ownable.sol\":1531:1542  _checkOwner */\n      tag_126\n        /* \"contracts/access/Ownable.sol\":1531:1544  _checkOwner() */\n      jump\t// in\n    tag_129:\n        /* \"contracts/security/ReentrancyGuard.sol\":2261:2282  _nonReentrantBefore() */\n      tag_131\n        /* \"contracts/security/ReentrancyGuard.sol\":2261:2280  _nonReentrantBefore */\n      tag_132\n        /* \"contracts/security/ReentrancyGuard.sol\":2261:2282  _nonReentrantBefore() */\n      jump\t// in\n    tag_131:\n        /* \"GenericLayout.sol\":4125:4143  _liquidityProvided */\n      0x09\n        /* \"GenericLayout.sol\":4125:4152  _liquidityProvided[owner()] */\n      0x00\n        /* \"GenericLayout.sol\":4144:4151  owner() */\n      tag_134\n        /* \"GenericLayout.sol\":4144:4149  owner */\n      tag_78\n        /* \"GenericLayout.sol\":4144:4151  owner() */\n      jump\t// in\n    tag_134:\n        /* \"GenericLayout.sol\":4125:4152  _liquidityProvided[owner()] */\n      0xffffffffffffffffffffffffffffffffffffffff\n      and\n      0xffffffffffffffffffffffffffffffffffffffff\n      and\n      dup2\n      mstore\n      0x20\n      add\n      swap1\n      dup2\n      mstore\n      0x20\n      add\n      0x00\n      keccak256\n      sload\n        /* \"GenericLayout.sol\":4115:4121  amount */\n      dup2\n        /* \"GenericLayout.sol\":4115:4152  amount <= _liquidityProvided[owner()] */\n      gt\n      iszero\n        /* \"GenericLayout.sol\":4107:4177  require(amount <= _liquidityProvided[owner()], \"Insufficient balance\") */\n      tag_135\n      jumpi\n      mload(0x40)\n      0x08c379a000000000000000000000000000000000000000000000000000000000\n      dup2\n      mstore\n      0x04\n      add\n      tag_136\n      swap1\n      tag_137\n      jump\t// in\n    tag_136:\n      mload(0x40)\n      dup1\n      swap2\n      sub\n      swap1\n      revert\n    tag_135:\n        /* \"GenericLayout.sol\":4219:4225  amount */\n      dup1\n        /* \"GenericLayout.sol\":4188:4206  _liquidityProvided */\n      0x09\n        /* \"GenericLayout.sol\":4188:4215  _liquidityProvided[owner()] */\n      0x00\n        /* \"GenericLayout.sol\":4207:4214  owner() */\n      tag_138\n        /* \"GenericLayout.sol\":4207:4212  owner */\n      tag_78\n        /* \"GenericLayout.sol\":4207:4214  owner() */\n      jump\t// in\n    tag_138:\n        /* \"GenericLayout.sol\":4188:4215  _liquidityProvided[owner()] */\n      0xffffffffffffffffffffffffffffffffffffffff\n      and\n      0xffffffffffffffffffffffffffffffffffffffff\n      and\n      dup2\n      mstore\n      0x20\n      add\n      swap1\n      dup2\n      mstore\n      0x20\n      add\n      0x00\n      keccak256\n      0x00\n        /* \"GenericLayout.sol\":4188:4225  _liquidityProvided[owner()] -= amount */\n      dup3\n      dup3\n      sload\n      tag_139\n      swap2\n      swap1\n      tag_140\n      jump\t// in\n    tag_139:\n      swap3\n      pop\n      pop\n      dup2\n      swap1\n      sstore\n      pop\n        /* \"GenericLayout.sol\":4271:4272  0 */\n      0x00\n        /* \"GenericLayout.sol\":4240:4258  _liquidityProvided */\n      0x09\n        /* \"GenericLayout.sol\":4240:4267  _liquidityProvided[owner()] */\n      0x00\n        /* \"GenericLayout.sol\":4259:4266  owner() */\n      tag_141\n        /* \"GenericLayout.sol\":4259:4264  owner */\n      tag_78\n        /* \"GenericLayout.sol\":4259:4266  owner() */\n      jump\t// in\n    tag_141:\n        /* \"GenericLayout.sol\":4240:4267  _liquidityProvided[owner()] */\n      0xffffffffffffffffffffffffffffffffffffffff\n      and\n      0xffffffffffffffffffffffffffffffffffffffff\n      and\n      dup2\n      mstore\n      0x20\n      add\n      swap1\n      dup2\n      mstore\n      0x20\n      add\n      0x00\n      keccak256\n      sload\n        /* \"GenericLayout.sol\":4240:4272  _liquidityProvided[owner()] == 0 */\n      sub\n        /* \"GenericLayout.sol\":4236:4341  if (_liquidityProvided[owner()] == 0) {... */\n      tag_142\n      jumpi\n        /* \"GenericLayout.sol\":4328:4329  0 */\n      0x00\n        /* \"GenericLayout.sol\":4289:4316  _liquidityProvidedTimestamp */\n      0x0a\n        /* \"GenericLayout.sol\":4289:4325  _liquidityProvidedTimestamp[owner()] */\n      0x00\n        /* \"GenericLayout.sol\":4317:4324  owner() */\n      tag_143\n        /* \"GenericLayout.sol\":4317:4322  owner */\n      tag_78\n        /* \"GenericLayout.sol\":4317:4324  owner() */\n      jump\t// in\n    tag_143:\n        /* \"GenericLayout.sol\":4289:4325  _liquidityProvidedTimestamp[owner()] */\n      0xffffffffffffffffffffffffffffffffffffffff\n      and\n      0xffffffffffffffffffffffffffffffffffffffff\n      and\n      dup2\n      mstore\n      0x20\n      add\n      swap1\n      dup2\n      mstore\n      0x20\n      add\n      0x00\n      keccak256\n        /* \"GenericLayout.sol\":4289:4329  _liquidityProvidedTimestamp[owner()] = 0 */\n      dup2\n      swap1\n      sstore\n      pop\n        /* \"GenericLayout.sol\":4236:4341  if (_liquidityProvided[owner()] == 0) {... */\n    tag_142:\n        /* \"GenericLayout.sol\":4351:4392  _transfer(address(this), owner(), amount) */\n      tag_144\n        /* \"GenericLayout.sol\":4369:4373  this */\n      address\n        /* \"GenericLayout.sol\":4376:4383  owner() */\n      tag_145\n        /* \"GenericLayout.sol\":4376:4381  owner */\n      tag_78\n        /* \"GenericLayout.sol\":4376:4383  owner() */\n      jump\t// in\n    tag_145:\n        /* \"GenericLayout.sol\":4385:4391  amount */\n      dup4\n        /* \"GenericLayout.sol\":4351:4360  _transfer */\n      tag_146\n        /* \"GenericLayout.sol\":4351:4392  _transfer(address(this), owner(), amount) */\n      jump\t// in\n    tag_144:\n        /* \"contracts/security/ReentrancyGuard.sol\":2303:2323  _nonReentrantAfter() */\n      tag_147\n        /* \"contracts/security/ReentrancyGuard.sol\":2303:2321  _nonReentrantAfter */\n      tag_148\n        /* \"contracts/security/ReentrancyGuard.sol\":2303:2323  _nonReentrantAfter() */\n      jump\t// in\n    tag_147:\n        /* \"GenericLayout.sol\":4020:4401  function ownerRemoveLiquidity(uint256 amount) public onlyOwner nonReentrant {... */\n      pop\n      jump\t// out\n        /* \"contracts/token/ERC20/ERC20.sol\":3987:4231  function transferFrom(address from, address to, uint256 value) public virtual returns (bool) {... */\n    tag_52:\n        /* \"contracts/token/ERC20/ERC20.sol\":4074:4078  bool */\n      0x00\n        /* \"contracts/token/ERC20/ERC20.sol\":4090:4105  address spender */\n      dup1\n        /* \"contracts/token/ERC20/ERC20.sol\":4108:4120  _msgSender() */\n      tag_150\n        /* \"contracts/token/ERC20/ERC20.sol\":4108:4118  _msgSender */\n      tag_120\n        /* \"contracts/token/ERC20/ERC20.sol\":4108:4120  _msgSender() */\n      jump\t// in\n    tag_150:\n        /* \"contracts/token/ERC20/ERC20.sol\":4090:4120  address spender = _msgSender() */\n      swap1\n      pop\n        /* \"contracts/token/ERC20/ERC20.sol\":4130:4167  _spendAllowance(from, spender, value) */\n      tag_151\n        /* \"contracts/token/ERC20/ERC20.sol\":4146:4150  from */\n      dup6\n        /* \"contracts/token/ERC20/ERC20.sol\":4152:4159  spender */\n      dup3\n        /* \"contracts/token/ERC20/ERC20.sol\":4161:4166  value */\n      dup6\n        /* \"contracts/token/ERC20/ERC20.sol\":4130:4145  _spendAllowance */\n      tag_152\n        /* \"contracts/token/ERC20/ERC20.sol\":4130:4167  _spendAllowance(from, spender, value) */\n      jump\t// in\n    tag_151:\n        /* \"contracts/token/ERC20/ERC20.sol\":4177:4203  _transfer(from, to, value) */\n      tag_153\n        /* \"contracts/token/ERC20/ERC20.sol\":4187:4191  from */\n      dup6\n        /* \"contracts/token/ERC20/ERC20.sol\":4193:4195  to */\n      dup6\n        /* \"contracts/token/ERC20/ERC20.sol\":4197:4202  value */\n      dup6\n        /* \"contracts/token/ERC20/ERC20.sol\":4177:4186  _transfer */\n      tag_146\n        /* \"contracts/token/ERC20/ERC20.sol\":4177:4203  _transfer(from, to, value) */\n      jump\t// in\n    tag_153:\n        /* \"contracts/token/ERC20/ERC20.sol\":4220:4224  true */\n      0x01\n        /* \"contracts/token/ERC20/ERC20.sol\":4213:4224  return true */\n      swap2\n      pop\n      pop\n        /* \"contracts/token/ERC20/ERC20.sol\":3987:4231  function transferFrom(address from, address to, uint256 value) public virtual returns (bool) {... */\n      swap4\n      swap3\n      pop\n      pop\n      pop\n      jump\t// out\n        /* \"GenericLayout.sol\":1089:1194  function decimals() public view virtual override returns (uint8) {... */\n    tag_55:\n        /* \"GenericLayout.sol\":1147:1152  uint8 */\n      0x00\n        /* \"GenericLayout.sol\":1172:1186  decimalsPlaces */\n      0x08\n      0x00\n      swap1\n      sload\n      swap1\n      0x0100\n      exp\n      swap1\n      div\n      0xff\n      and\n        /* \"GenericLayout.sol\":1165:1186  return decimalsPlaces */\n      swap1\n      pop\n        /* \"GenericLayout.sol\":1089:1194  function decimals() public view virtual override returns (uint8) {... */\n      swap1\n      jump\t// out\n        /* \"contracts/token/ERC20/extensions/ERC20Burnable.sol\":618:705  function burn(uint256 value) public virtual {... */\n    tag_60:\n        /* \"contracts/token/ERC20/extensions/ERC20Burnable.sol\":672:698  _burn(_msgSender(), value) */\n      tag_156\n        /* \"contracts/token/ERC20/extensions/ERC20Burnable.sol\":678:690  _msgSender() */\n      tag_157\n        /* \"contracts/token/ERC20/extensions/ERC20Burnable.sol\":678:688  _msgSender */\n      tag_120\n        /* \"contracts/token/ERC20/extensions/ERC20Burnable.sol\":678:690  _msgSender() */\n      jump\t// in\n    tag_157:\n        /* \"contracts/token/ERC20/extensions/ERC20Burnable.sol\":692:697  value */\n      dup3\n        /* \"contracts/token/ERC20/extensions/ERC20Burnable.sol\":672:677  _burn */\n      tag_158\n        /* \"contracts/token/ERC20/extensions/ERC20Burnable.sol\":672:698  _burn(_msgSender(), value) */\n      jump\t// in\n    tag_156:\n        /* \"contracts/token/ERC20/extensions/ERC20Burnable.sol\":618:705  function burn(uint256 value) public virtual {... */\n      pop\n      jump\t// out\n        /* \"GenericLayout.sol\":2386:2613  function addLiquidity(uint256 amount) public {... */\n    tag_63:\n        /* \"GenericLayout.sol\":2442:2486  _transfer(msg.sender, address(this), amount) */\n      tag_160\n        /* \"GenericLayout.sol\":2452:2462  msg.sender */\n      caller\n        /* \"GenericLayout.sol\":2472:2476  this */\n      address\n        /* \"GenericLayout.sol\":2479:2485  amount */\n      dup4\n        /* \"GenericLayout.sol\":2442:2451  _transfer */\n      tag_146\n        /* \"GenericLayout.sol\":2442:2486  _transfer(msg.sender, address(this), amount) */\n      jump\t// in\n    tag_160:\n        /* \"GenericLayout.sol\":2531:2537  amount */\n      dup1\n        /* \"GenericLayout.sol\":2497:2515  _liquidityProvided */\n      0x09\n        /* \"GenericLayout.sol\":2497:2527  _liquidityProvided[msg.sender] */\n      0x00\n        /* \"GenericLayout.sol\":2516:2526  msg.sender */\n      caller\n        /* \"GenericLayout.sol\":2497:2527  _liquidityProvided[msg.sender] */\n      0xffffffffffffffffffffffffffffffffffffffff\n      and\n      0xffffffffffffffffffffffffffffffffffffffff\n      and\n      dup2\n      mstore\n      0x20\n      add\n      swap1\n      dup2\n      mstore\n      0x20\n      add\n      0x00\n      keccak256\n      0x00\n        /* \"GenericLayout.sol\":2497:2537  _liquidityProvided[msg.sender] += amount */\n      dup3\n      dup3\n      sload\n      tag_161\n      swap2\n      swap1\n      tag_162\n      jump\t// in\n    tag_161:\n      swap3\n      pop\n      pop\n      dup2\n      swap1\n      sstore\n      pop\n        /* \"GenericLayout.sol\":2590:2605  block.timestamp */\n      timestamp\n        /* \"GenericLayout.sol\":2548:2575  _liquidityProvidedTimestamp */\n      0x0a\n        /* \"GenericLayout.sol\":2548:2587  _liquidityProvidedTimestamp[msg.sender] */\n      0x00\n        /* \"GenericLayout.sol\":2576:2586  msg.sender */\n      caller\n        /* \"GenericLayout.sol\":2548:2587  _liquidityProvidedTimestamp[msg.sender] */\n      0xffffffffffffffffffffffffffffffffffffffff\n      and\n      0xffffffffffffffffffffffffffffffffffffffff\n      and\n      dup2\n      mstore\n      0x20\n      add\n      swap1\n      dup2\n      mstore\n      0x20\n      add\n      0x00\n      keccak256\n        /* \"GenericLayout.sol\":2548:2605  _liquidityProvidedTimestamp[msg.sender] = block.timestamp */\n      dup2\n      swap1\n      sstore\n      pop\n        /* \"GenericLayout.sol\":2386:2613  function addLiquidity(uint256 amount) public {... */\n      pop\n      jump\t// out\n        /* \"GenericLayout.sol\":432:459  uint8 public decimalsPlaces */\n    tag_65:\n      0x08\n      0x00\n      swap1\n      sload\n      swap1\n      0x0100\n      exp\n      swap1\n      div\n      0xff\n      and\n      dup2\n      jump\t// out\n        /* \"contracts/token/ERC20/ERC20.sol\":2247:2363  function balanceOf(address account) public view virtual returns (uint256) {... */\n    tag_70:\n        /* \"contracts/token/ERC20/ERC20.sol\":2312:2319  uint256 */\n      0x00\n        /* \"contracts/token/ERC20/ERC20.sol\":2338:2347  _balances */\n      dup1\n        /* \"contracts/token/ERC20/ERC20.sol\":2338:2356  _balances[account] */\n      0x00\n        /* \"contracts/token/ERC20/ERC20.sol\":2348:2355  account */\n      dup4\n        /* \"contracts/token/ERC20/ERC20.sol\":2338:2356  _balances[account] */\n      0xffffffffffffffffffffffffffffffffffffffff\n      and\n      0xffffffffffffffffffffffffffffffffffffffff\n      and\n      dup2\n      mstore\n      0x20\n      add\n      swap1\n      dup2\n      mstore\n      0x20\n      add\n      0x00\n      keccak256\n      sload\n        /* \"contracts/token/ERC20/ERC20.sol\":2331:2356  return _balances[account] */\n      swap1\n      pop\n        /* \"contracts/token/ERC20/ERC20.sol\":2247:2363  function balanceOf(address account) public view virtual returns (uint256) {... */\n      swap2\n      swap1\n      pop\n      jump\t// out\n        /* \"contracts/access/Ownable.sol\":2293:2394  function renounceOwnership() public virtual onlyOwner {... */\n    tag_73:\n        /* \"contracts/access/Ownable.sol\":1531:1544  _checkOwner() */\n      tag_165\n        /* \"contracts/access/Ownable.sol\":1531:1542  _checkOwner */\n      tag_126\n        /* \"contracts/access/Ownable.sol\":1531:1544  _checkOwner() */\n      jump\t// in\n    tag_165:\n        /* \"contracts/access/Ownable.sol\":2357:2387  _transferOwnership(address(0)) */\n      tag_167\n        /* \"contracts/access/Ownable.sol\":2384:2385  0 */\n      0x00\n        /* \"contracts/access/Ownable.sol\":2357:2375  _transferOwnership */\n      tag_168\n        /* \"contracts/access/Ownable.sol\":2357:2387  _transferOwnership(address(0)) */\n      jump\t// in\n    tag_167:\n        /* \"contracts/access/Ownable.sol\":2293:2394  function renounceOwnership() public virtual onlyOwner {... */\n      jump\t// out\n        /* \"contracts/token/ERC20/extensions/ERC20Burnable.sol\":1021:1179  function burnFrom(address account, uint256 value) public virtual {... */\n    tag_76:\n        /* \"contracts/token/ERC20/extensions/ERC20Burnable.sol\":1096:1141  _spendAllowance(account, _msgSender(), value) */\n      tag_170\n        /* \"contracts/token/ERC20/extensions/ERC20Burnable.sol\":1112:1119  account */\n      dup3\n        /* \"contracts/token/ERC20/extensions/ERC20Burnable.sol\":1121:1133  _msgSender() */\n      tag_171\n        /* \"contracts/token/ERC20/extensions/ERC20Burnable.sol\":1121:1131  _msgSender */\n      tag_120\n        /* \"contracts/token/ERC20/extensions/ERC20Burnable.sol\":1121:1133  _msgSender() */\n      jump\t// in\n    tag_171:\n        /* \"contracts/token/ERC20/extensions/ERC20Burnable.sol\":1135:1140  value */\n      dup4\n        /* \"contracts/token/ERC20/extensions/ERC20Burnable.sol\":1096:1111  _spendAllowance */\n      tag_152\n        /* \"contracts/token/ERC20/extensions/ERC20Burnable.sol\":1096:1141  _spendAllowance(account, _msgSender(), value) */\n      jump\t// in\n    tag_170:\n        /* \"contracts/token/ERC20/extensions/ERC20Burnable.sol\":1151:1172  _burn(account, value) */\n      tag_172\n        /* \"contracts/token/ERC20/extensions/ERC20Burnable.sol\":1157:1164  account */\n      dup3\n        /* \"contracts/token/ERC20/extensions/ERC20Burnable.sol\":1166:1171  value */\n      dup3\n        /* \"contracts/token/ERC20/extensions/ERC20Burnable.sol\":1151:1156  _burn */\n      tag_158\n        /* \"contracts/token/ERC20/extensions/ERC20Burnable.sol\":1151:1172  _burn(account, value) */\n      jump\t// in\n    tag_172:\n        /* \"contracts/token/ERC20/extensions/ERC20Burnable.sol\":1021:1179  function burnFrom(address account, uint256 value) public virtual {... */\n      pop\n      pop\n      jump\t// out\n        /* \"contracts/access/Ownable.sol\":1638:1723  function owner() public view virtual returns (address) {... */\n    tag_78:\n        /* \"contracts/access/Ownable.sol\":1684:1691  address */\n      0x00\n        /* \"contracts/access/Ownable.sol\":1710:1716  _owner */\n      0x05\n      0x00\n      swap1\n      sload\n      swap1\n      0x0100\n      exp\n      swap1\n      div\n      0xffffffffffffffffffffffffffffffffffffffff\n      and\n        /* \"contracts/access/Ownable.sol\":1703:1716  return _owner */\n      swap1\n      pop\n        /* \"contracts/access/Ownable.sol\":1638:1723  function owner() public view virtual returns (address) {... */\n      swap1\n      jump\t// out\n        /* \"contracts/token/ERC20/ERC20.sol\":1224:1317  function symbol() public view virtual returns (string memory) {... */\n    tag_82:\n        /* \"contracts/token/ERC20/ERC20.sol\":1271:1284  string memory */\n      0x60\n        /* \"contracts/token/ERC20/ERC20.sol\":1303:1310  _symbol */\n      0x04\n        /* \"contracts/token/ERC20/ERC20.sol\":1296:1310  return _symbol */\n      dup1\n      sload\n      tag_175\n      swap1\n      tag_113\n      jump\t// in\n    tag_175:\n      dup1\n      0x1f\n      add\n      0x20\n      dup1\n      swap2\n      div\n      mul\n      0x20\n      add\n      mload(0x40)\n      swap1\n      dup2\n      add\n      0x40\n      mstore\n      dup1\n      swap3\n      swap2\n      swap1\n      dup2\n      dup2\n      mstore\n      0x20\n      add\n      dup3\n      dup1\n      sload\n      tag_176\n      swap1\n      tag_113\n      jump\t// in\n    tag_176:\n      dup1\n      iszero\n      tag_177\n      jumpi\n      dup1\n      0x1f\n      lt\n      tag_178\n      jumpi\n      0x0100\n      dup1\n      dup4\n      sload\n      div\n      mul\n      dup4\n      mstore\n      swap2\n      0x20\n      add\n      swap2\n      jump(tag_177)\n    tag_178:\n      dup3\n      add\n      swap2\n      swap1\n      0x00\n      mstore\n      keccak256(0x00, 0x20)\n      swap1\n    tag_179:\n      dup2\n      sload\n      dup2\n      mstore\n      swap1\n      0x01\n      add\n      swap1\n      0x20\n      add\n      dup1\n      dup4\n      gt\n      tag_179\n      jumpi\n      dup3\n      swap1\n      sub\n      0x1f\n      and\n      dup3\n      add\n      swap2\n    tag_177:\n      pop\n      pop\n      pop\n      pop\n      pop\n      swap1\n      pop\n        /* \"contracts/token/ERC20/ERC20.sol\":1224:1317  function symbol() public view virtual returns (string memory) {... */\n      swap1\n      jump\t// out\n        /* \"GenericLayout.sol\":1537:1634  function enableCircuitBreaker() public onlyOwner {... */\n    tag_85:\n        /* \"contracts/access/Ownable.sol\":1531:1544  _checkOwner() */\n      tag_181\n        /* \"contracts/access/Ownable.sol\":1531:1542  _checkOwner */\n      tag_126\n        /* \"contracts/access/Ownable.sol\":1531:1544  _checkOwner() */\n      jump\t// in\n    tag_181:\n        /* \"GenericLayout.sol\":1622:1626  true */\n      0x01\n        /* \"GenericLayout.sol\":1597:1619  _circuitBreakerEnabled */\n      0x0b\n      0x00\n        /* \"GenericLayout.sol\":1597:1626  _circuitBreakerEnabled = true */\n      0x0100\n      exp\n      dup2\n      sload\n      dup2\n      0xff\n      mul\n      not\n      and\n      swap1\n      dup4\n      iszero\n      iszero\n      mul\n      or\n      swap1\n      sstore\n      pop\n        /* \"GenericLayout.sol\":1537:1634  function enableCircuitBreaker() public onlyOwner {... */\n      jump\t// out\n        /* \"contracts/token/ERC20/ERC20.sol\":2558:2736  function transfer(address to, uint256 value) public virtual returns (bool) {... */\n    tag_88:\n        /* \"contracts/token/ERC20/ERC20.sol\":2627:2631  bool */\n      0x00\n        /* \"contracts/token/ERC20/ERC20.sol\":2643:2656  address owner */\n      dup1\n        /* \"contracts/token/ERC20/ERC20.sol\":2659:2671  _msgSender() */\n      tag_184\n        /* \"contracts/token/ERC20/ERC20.sol\":2659:2669  _msgSender */\n      tag_120\n        /* \"contracts/token/ERC20/ERC20.sol\":2659:2671  _msgSender() */\n      jump\t// in\n    tag_184:\n        /* \"contracts/token/ERC20/ERC20.sol\":2643:2671  address owner = _msgSender() */\n      swap1\n      pop\n        /* \"contracts/token/ERC20/ERC20.sol\":2681:2708  _transfer(owner, to, value) */\n      tag_185\n        /* \"contracts/token/ERC20/ERC20.sol\":2691:2696  owner */\n      dup2\n        /* \"contracts/token/ERC20/ERC20.sol\":2698:2700  to */\n      dup6\n        /* \"contracts/token/ERC20/ERC20.sol\":2702:2707  value */\n      dup6\n        /* \"contracts/token/ERC20/ERC20.sol\":2681:2690  _transfer */\n      tag_146\n        /* \"contracts/token/ERC20/ERC20.sol\":2681:2708  _transfer(owner, to, value) */\n      jump\t// in\n    tag_185:\n        /* \"contracts/token/ERC20/ERC20.sol\":2725:2729  true */\n      0x01\n        /* \"contracts/token/ERC20/ERC20.sol\":2718:2729  return true */\n      swap2\n      pop\n      pop\n        /* \"contracts/token/ERC20/ERC20.sol\":2558:2736  function transfer(address to, uint256 value) public virtual returns (bool) {... */\n      swap3\n      swap2\n      pop\n      pop\n      jump\t// out\n        /* \"GenericLayout.sol\":3792:4012  function ownerAddLiquidity(uint256 amount) public onlyOwner {... */\n    tag_92:\n        /* \"contracts/access/Ownable.sol\":1531:1544  _checkOwner() */\n      tag_187\n        /* \"contracts/access/Ownable.sol\":1531:1542  _checkOwner */\n      tag_126\n        /* \"contracts/access/Ownable.sol\":1531:1544  _checkOwner() */\n      jump\t// in\n    tag_187:\n        /* \"GenericLayout.sol\":3894:3900  amount */\n      dup1\n        /* \"GenericLayout.sol\":3863:3881  _liquidityProvided */\n      0x09\n        /* \"GenericLayout.sol\":3863:3890  _liquidityProvided[owner()] */\n      0x00\n        /* \"GenericLayout.sol\":3882:3889  owner() */\n      tag_189\n        /* \"GenericLayout.sol\":3882:3887  owner */\n      tag_78\n        /* \"GenericLayout.sol\":3882:3889  owner() */\n      jump\t// in\n    tag_189:\n        /* \"GenericLayout.sol\":3863:3890  _liquidityProvided[owner()] */\n      0xffffffffffffffffffffffffffffffffffffffff\n      and\n      0xffffffffffffffffffffffffffffffffffffffff\n      and\n      dup2\n      mstore\n      0x20\n      add\n      swap1\n      dup2\n      mstore\n      0x20\n      add\n      0x00\n      keccak256\n      0x00\n        /* \"GenericLayout.sol\":3863:3900  _liquidityProvided[owner()] += amount */\n      dup3\n      dup3\n      sload\n      tag_190\n      swap2\n      swap1\n      tag_162\n      jump\t// in\n    tag_190:\n      swap3\n      pop\n      pop\n      dup2\n      swap1\n      sstore\n      pop\n        /* \"GenericLayout.sol\":3950:3965  block.timestamp */\n      timestamp\n        /* \"GenericLayout.sol\":3911:3938  _liquidityProvidedTimestamp */\n      0x0a\n        /* \"GenericLayout.sol\":3911:3947  _liquidityProvidedTimestamp[owner()] */\n      0x00\n        /* \"GenericLayout.sol\":3939:3946  owner() */\n      tag_191\n        /* \"GenericLayout.sol\":3939:3944  owner */\n      tag_78\n        /* \"GenericLayout.sol\":3939:3946  owner() */\n      jump\t// in\n    tag_191:\n        /* \"GenericLayout.sol\":3911:3947  _liquidityProvidedTimestamp[owner()] */\n      0xffffffffffffffffffffffffffffffffffffffff\n      and\n      0xffffffffffffffffffffffffffffffffffffffff\n      and\n      dup2\n      mstore\n      0x20\n      add\n      swap1\n      dup2\n      mstore\n      0x20\n      add\n      0x00\n      keccak256\n        /* \"GenericLayout.sol\":3911:3965  _liquidityProvidedTimestamp[owner()] = block.timestamp */\n      dup2\n      swap1\n      sstore\n      pop\n        /* \"GenericLayout.sol\":3976:4004  _mint(address(this), amount) */\n      tag_192\n        /* \"GenericLayout.sol\":3990:3994  this */\n      address\n        /* \"GenericLayout.sol\":3997:4003  amount */\n      dup3\n        /* \"GenericLayout.sol\":3976:3981  _mint */\n      tag_193\n        /* \"GenericLayout.sol\":3976:4004  _mint(address(this), amount) */\n      jump\t// in\n    tag_192:\n        /* \"GenericLayout.sol\":3792:4012  function ownerAddLiquidity(uint256 amount) public onlyOwner {... */\n      pop\n      jump\t// out\n        /* \"GenericLayout.sol\":2621:3439  function removeLiquidityAndClaimRewards(uint256 amount) public nonReentrant {... */\n    tag_95:\n        /* \"contracts/security/ReentrancyGuard.sol\":2261:2282  _nonReentrantBefore() */\n      tag_195\n        /* \"contracts/security/ReentrancyGuard.sol\":2261:2280  _nonReentrantBefore */\n      tag_132\n        /* \"contracts/security/ReentrancyGuard.sol\":2261:2282  _nonReentrantBefore() */\n      jump\t// in\n    tag_195:\n        /* \"GenericLayout.sol\":2726:2744  _liquidityProvided */\n      0x09\n        /* \"GenericLayout.sol\":2726:2756  _liquidityProvided[msg.sender] */\n      0x00\n        /* \"GenericLayout.sol\":2745:2755  msg.sender */\n      caller\n        /* \"GenericLayout.sol\":2726:2756  _liquidityProvided[msg.sender] */\n      0xffffffffffffffffffffffffffffffffffffffff\n      and\n      0xffffffffffffffffffffffffffffffffffffffff\n      and\n      dup2\n      mstore\n      0x20\n      add\n      swap1\n      dup2\n      mstore\n      0x20\n      add\n      0x00\n      keccak256\n      sload\n        /* \"GenericLayout.sol\":2716:2722  amount */\n      dup2\n        /* \"GenericLayout.sol\":2716:2756  amount <= _liquidityProvided[msg.sender] */\n      gt\n      iszero\n        /* \"GenericLayout.sol\":2708:2781  require(amount <= _liquidityProvided[msg.sender], \"Insufficient balance\") */\n      tag_197\n      jumpi\n      mload(0x40)\n      0x08c379a000000000000000000000000000000000000000000000000000000000\n      dup2\n      mstore\n      0x04\n      add\n      tag_198\n      swap1\n      tag_137\n      jump\t// in\n    tag_198:\n      mload(0x40)\n      dup1\n      swap2\n      sub\n      swap1\n      revert\n    tag_197:\n        /* \"GenericLayout.sol\":2861:2868  30 days */\n      0x278d00\n        /* \"GenericLayout.sol\":2819:2846  _liquidityProvidedTimestamp */\n      0x0a\n        /* \"GenericLayout.sol\":2819:2858  _liquidityProvidedTimestamp[msg.sender] */\n      0x00\n        /* \"GenericLayout.sol\":2847:2857  msg.sender */\n      caller\n        /* \"GenericLayout.sol\":2819:2858  _liquidityProvidedTimestamp[msg.sender] */\n      0xffffffffffffffffffffffffffffffffffffffff\n      and\n      0xffffffffffffffffffffffffffffffffffffffff\n      and\n      dup2\n      mstore\n      0x20\n      add\n      swap1\n      dup2\n      mstore\n      0x20\n      add\n      0x00\n      keccak256\n      sload\n        /* \"GenericLayout.sol\":2819:2868  _liquidityProvidedTimestamp[msg.sender] + 30 days */\n      tag_199\n      swap2\n      swap1\n      tag_162\n      jump\t// in\n    tag_199:\n        /* \"GenericLayout.sol\":2800:2815  block.timestamp */\n      timestamp\n        /* \"GenericLayout.sol\":2800:2868  block.timestamp >= _liquidityProvidedTimestamp[msg.sender] + 30 days */\n      lt\n      iszero\n        /* \"GenericLayout.sol\":2792:2943  require(block.timestamp >= _liquidityProvidedTimestamp[msg.sender] + 30 days, \"Liquidity must be provided for at least 30 days to qualify for rewards\") */\n      tag_200\n      jumpi\n      mload(0x40)\n      0x08c379a000000000000000000000000000000000000000000000000000000000\n      dup2\n      mstore\n      0x04\n      add\n      tag_201\n      swap1\n      tag_202\n      jump\t// in\n    tag_201:\n      mload(0x40)\n      dup1\n      swap2\n      sub\n      swap1\n      revert\n    tag_200:\n        /* \"GenericLayout.sol\":2956:2970  uint256 reward */\n      0x00\n        /* \"GenericLayout.sol\":2973:3000  calculateReward(msg.sender) */\n      tag_203\n        /* \"GenericLayout.sol\":2989:2999  msg.sender */\n      caller\n        /* \"GenericLayout.sol\":2973:2988  calculateReward */\n      tag_101\n        /* \"GenericLayout.sol\":2973:3000  calculateReward(msg.sender) */\n      jump\t// in\n    tag_203:\n        /* \"GenericLayout.sol\":2956:3000  uint256 reward = calculateReward(msg.sender) */\n      swap1\n      pop\n        /* \"GenericLayout.sol\":3045:3054  maxSupply */\n      sload(0x07)\n        /* \"GenericLayout.sol\":3035:3041  reward */\n      dup2\n        /* \"GenericLayout.sol\":3019:3032  totalSupply() */\n      tag_204\n        /* \"GenericLayout.sol\":3019:3030  totalSupply */\n      tag_40\n        /* \"GenericLayout.sol\":3019:3032  totalSupply() */\n      jump\t// in\n    tag_204:\n        /* \"GenericLayout.sol\":3019:3041  totalSupply() + reward */\n      tag_205\n      swap2\n      swap1\n      tag_162\n      jump\t// in\n    tag_205:\n        /* \"GenericLayout.sol\":3019:3054  totalSupply() + reward <= maxSupply */\n      gt\n      iszero\n        /* \"GenericLayout.sol\":3011:3084  require(totalSupply() + reward <= maxSupply, \"Reward exceeds max supply\") */\n      tag_206\n      jumpi\n      mload(0x40)\n      0x08c379a000000000000000000000000000000000000000000000000000000000\n      dup2\n      mstore\n      0x04\n      add\n      tag_207\n      swap1\n      tag_208\n      jump\t// in\n    tag_207:\n      mload(0x40)\n      dup1\n      swap2\n      sub\n      swap1\n      revert\n    tag_206:\n        /* \"GenericLayout.sol\":3093:3118  _mint(msg.sender, reward) */\n      tag_209\n        /* \"GenericLayout.sol\":3099:3109  msg.sender */\n      caller\n        /* \"GenericLayout.sol\":3111:3117  reward */\n      dup3\n        /* \"GenericLayout.sol\":3093:3098  _mint */\n      tag_193\n        /* \"GenericLayout.sol\":3093:3118  _mint(msg.sender, reward) */\n      jump\t// in\n    tag_209:\n        /* \"GenericLayout.sol\":3126:3170  _transfer(address(this), msg.sender, amount) */\n      tag_210\n        /* \"GenericLayout.sol\":3144:3148  this */\n      address\n        /* \"GenericLayout.sol\":3151:3161  msg.sender */\n      caller\n        /* \"GenericLayout.sol\":3163:3169  amount */\n      dup5\n        /* \"GenericLayout.sol\":3126:3135  _transfer */\n      tag_146\n        /* \"GenericLayout.sol\":3126:3170  _transfer(address(this), msg.sender, amount) */\n      jump\t// in\n    tag_210:\n        /* \"GenericLayout.sol\":3212:3218  amount */\n      dup2\n        /* \"GenericLayout.sol\":3178:3196  _liquidityProvided */\n      0x09\n        /* \"GenericLayout.sol\":3178:3208  _liquidityProvided[msg.sender] */\n      0x00\n        /* \"GenericLayout.sol\":3197:3207  msg.sender */\n      caller\n        /* \"GenericLayout.sol\":3178:3208  _liquidityProvided[msg.sender] */\n      0xffffffffffffffffffffffffffffffffffffffff\n      and\n      0xffffffffffffffffffffffffffffffffffffffff\n      and\n      dup2\n      mstore\n      0x20\n      add\n      swap1\n      dup2\n      mstore\n      0x20\n      add\n      0x00\n      keccak256\n      0x00\n        /* \"GenericLayout.sol\":3178:3218  _liquidityProvided[msg.sender] -= amount */\n      dup3\n      dup3\n      sload\n      tag_211\n      swap2\n      swap1\n      tag_140\n      jump\t// in\n    tag_211:\n      swap3\n      pop\n      pop\n      dup2\n      swap1\n      sstore\n      pop\n        /* \"GenericLayout.sol\":3267:3268  0 */\n      0x00\n        /* \"GenericLayout.sol\":3233:3251  _liquidityProvided */\n      0x09\n        /* \"GenericLayout.sol\":3233:3263  _liquidityProvided[msg.sender] */\n      0x00\n        /* \"GenericLayout.sol\":3252:3262  msg.sender */\n      caller\n        /* \"GenericLayout.sol\":3233:3263  _liquidityProvided[msg.sender] */\n      0xffffffffffffffffffffffffffffffffffffffff\n      and\n      0xffffffffffffffffffffffffffffffffffffffff\n      and\n      dup2\n      mstore\n      0x20\n      add\n      swap1\n      dup2\n      mstore\n      0x20\n      add\n      0x00\n      keccak256\n      sload\n        /* \"GenericLayout.sol\":3233:3268  _liquidityProvided[msg.sender] == 0 */\n      sub\n        /* \"GenericLayout.sol\":3229:3432  if (_liquidityProvided[msg.sender] == 0) {... */\n      tag_212\n      jumpi\n        /* \"GenericLayout.sol\":3327:3328  0 */\n      0x00\n        /* \"GenericLayout.sol\":3285:3312  _liquidityProvidedTimestamp */\n      0x0a\n        /* \"GenericLayout.sol\":3285:3324  _liquidityProvidedTimestamp[msg.sender] */\n      0x00\n        /* \"GenericLayout.sol\":3313:3323  msg.sender */\n      caller\n        /* \"GenericLayout.sol\":3285:3324  _liquidityProvidedTimestamp[msg.sender] */\n      0xffffffffffffffffffffffffffffffffffffffff\n      and\n      0xffffffffffffffffffffffffffffffffffffffff\n      and\n      dup2\n      mstore\n      0x20\n      add\n      swap1\n      dup2\n      mstore\n      0x20\n      add\n      0x00\n      keccak256\n        /* \"GenericLayout.sol\":3285:3328  _liquidityProvidedTimestamp[msg.sender] = 0 */\n      dup2\n      swap1\n      sstore\n      pop\n        /* \"GenericLayout.sol\":3229:3432  if (_liquidityProvided[msg.sender] == 0) {... */\n      jump(tag_213)\n    tag_212:\n        /* \"GenericLayout.sol\":3404:3419  block.timestamp */\n      timestamp\n        /* \"GenericLayout.sol\":3362:3389  _liquidityProvidedTimestamp */\n      0x0a\n        /* \"GenericLayout.sol\":3362:3401  _liquidityProvidedTimestamp[msg.sender] */\n      0x00\n        /* \"GenericLayout.sol\":3390:3400  msg.sender */\n      caller\n        /* \"GenericLayout.sol\":3362:3401  _liquidityProvidedTimestamp[msg.sender] */\n      0xffffffffffffffffffffffffffffffffffffffff\n      and\n      0xffffffffffffffffffffffffffffffffffffffff\n      and\n      dup2\n      mstore\n      0x20\n      add\n      swap1\n      dup2\n      mstore\n      0x20\n      add\n      0x00\n      keccak256\n        /* \"GenericLayout.sol\":3362:3419  _liquidityProvidedTimestamp[msg.sender] = block.timestamp */\n      dup2\n      swap1\n      sstore\n      pop\n        /* \"GenericLayout.sol\":3229:3432  if (_liquidityProvided[msg.sender] == 0) {... */\n    tag_213:\n        /* \"GenericLayout.sol\":2697:3439  {... */\n      pop\n        /* \"contracts/security/ReentrancyGuard.sol\":2303:2323  _nonReentrantAfter() */\n      tag_214\n        /* \"contracts/security/ReentrancyGuard.sol\":2303:2321  _nonReentrantAfter */\n      tag_148\n        /* \"contracts/security/ReentrancyGuard.sol\":2303:2323  _nonReentrantAfter() */\n      jump\t// in\n    tag_214:\n        /* \"GenericLayout.sol\":2621:3439  function removeLiquidityAndClaimRewards(uint256 amount) public nonReentrant {... */\n      pop\n      jump\t// out\n        /* \"GenericLayout.sol\":394:418  uint256 public maxSupply */\n    tag_97:\n      sload(0x07)\n      dup2\n      jump\t// out\n        /* \"GenericLayout.sol\":3447:3784  function calculateReward(address user) public view returns (uint256) {... */\n    tag_101:\n        /* \"GenericLayout.sol\":3507:3514  uint256 */\n      0x00\n        /* \"GenericLayout.sol\":3582:3589  30 days */\n      0x278d00\n        /* \"GenericLayout.sol\":3546:3573  _liquidityProvidedTimestamp */\n      0x0a\n        /* \"GenericLayout.sol\":3546:3579  _liquidityProvidedTimestamp[user] */\n      0x00\n        /* \"GenericLayout.sol\":3574:3578  user */\n      dup5\n        /* \"GenericLayout.sol\":3546:3579  _liquidityProvidedTimestamp[user] */\n      0xffffffffffffffffffffffffffffffffffffffff\n      and\n      0xffffffffffffffffffffffffffffffffffffffff\n      and\n      dup2\n      mstore\n      0x20\n      add\n      swap1\n      dup2\n      mstore\n      0x20\n      add\n      0x00\n      keccak256\n      sload\n        /* \"GenericLayout.sol\":3546:3589  _liquidityProvidedTimestamp[user] + 30 days */\n      tag_216\n      swap2\n      swap1\n      tag_162\n      jump\t// in\n    tag_216:\n        /* \"GenericLayout.sol\":3527:3542  block.timestamp */\n      timestamp\n        /* \"GenericLayout.sol\":3527:3589  block.timestamp >= _liquidityProvidedTimestamp[user] + 30 days */\n      lt\n        /* \"GenericLayout.sol\":3523:3762  if (block.timestamp >= _liquidityProvidedTimestamp[user] + 30 days) {... */\n      tag_217\n      jumpi\n        /* \"GenericLayout.sol\":3602:3616  uint256 reward */\n      0x00\n        /* \"GenericLayout.sol\":3652:3655  100 */\n      0x64\n        /* \"GenericLayout.sol\":3647:3648  5 */\n      0x05\n        /* \"GenericLayout.sol\":3620:3638  _liquidityProvided */\n      0x09\n        /* \"GenericLayout.sol\":3620:3644  _liquidityProvided[user] */\n      0x00\n        /* \"GenericLayout.sol\":3639:3643  user */\n      dup7\n        /* \"GenericLayout.sol\":3620:3644  _liquidityProvided[user] */\n      0xffffffffffffffffffffffffffffffffffffffff\n      and\n      0xffffffffffffffffffffffffffffffffffffffff\n      and\n      dup2\n      mstore\n      0x20\n      add\n      swap1\n      dup2\n      mstore\n      0x20\n      add\n      0x00\n      keccak256\n      sload\n        /* \"GenericLayout.sol\":3620:3648  _liquidityProvided[user] * 5 */\n      tag_218\n      swap2\n      swap1\n      tag_219\n      jump\t// in\n    tag_218:\n        /* \"GenericLayout.sol\":3619:3655  (_liquidityProvided[user] * 5) / 100 */\n      tag_220\n      swap2\n      swap1\n      tag_221\n      jump\t// in\n    tag_220:\n        /* \"GenericLayout.sol\":3602:3655  uint256 reward = (_liquidityProvided[user] * 5) / 100 */\n      swap1\n      pop\n        /* \"GenericLayout.sol\":3704:3713  maxSupply */\n      sload(0x07)\n        /* \"GenericLayout.sol\":3694:3700  reward */\n      dup2\n        /* \"GenericLayout.sol\":3678:3691  totalSupply() */\n      tag_222\n        /* \"GenericLayout.sol\":3678:3689  totalSupply */\n      tag_40\n        /* \"GenericLayout.sol\":3678:3691  totalSupply() */\n      jump\t// in\n    tag_222:\n        /* \"GenericLayout.sol\":3678:3700  totalSupply() + reward */\n      tag_223\n      swap2\n      swap1\n      tag_162\n      jump\t// in\n    tag_223:\n        /* \"GenericLayout.sol\":3678:3713  totalSupply() + reward <= maxSupply */\n      gt\n        /* \"GenericLayout.sol\":3674:3755  if (totalSupply() + reward <= maxSupply) {... */\n      tag_224\n      jumpi\n        /* \"GenericLayout.sol\":3737:3743  reward */\n      dup1\n        /* \"GenericLayout.sol\":3730:3743  return reward */\n      swap2\n      pop\n      pop\n      jump(tag_215)\n        /* \"GenericLayout.sol\":3674:3755  if (totalSupply() + reward <= maxSupply) {... */\n    tag_224:\n        /* \"GenericLayout.sol\":3591:3762  {... */\n      pop\n        /* \"GenericLayout.sol\":3523:3762  if (block.timestamp >= _liquidityProvidedTimestamp[user] + 30 days) {... */\n    tag_217:\n        /* \"GenericLayout.sol\":3775:3776  0 */\n      0x00\n        /* \"GenericLayout.sol\":3768:3776  return 0 */\n      swap1\n      pop\n        /* \"GenericLayout.sol\":3447:3784  function calculateReward(address user) public view returns (uint256) {... */\n    tag_215:\n      swap2\n      swap1\n      pop\n      jump\t// out\n        /* \"contracts/token/ERC20/ERC20.sol\":2794:2934  function allowance(address owner, address spender) public view virtual returns (uint256) {... */\n    tag_106:\n        /* \"contracts/token/ERC20/ERC20.sol\":2874:2881  uint256 */\n      0x00\n        /* \"contracts/token/ERC20/ERC20.sol\":2900:2911  _allowances */\n      0x01\n        /* \"contracts/token/ERC20/ERC20.sol\":2900:2918  _allowances[owner] */\n      0x00\n        /* \"contracts/token/ERC20/ERC20.sol\":2912:2917  owner */\n      dup5\n        /* \"contracts/token/ERC20/ERC20.sol\":2900:2918  _allowances[owner] */\n      0xffffffffffffffffffffffffffffffffffffffff\n      and\n      0xffffffffffffffffffffffffffffffffffffffff\n      and\n      dup2\n      mstore\n      0x20\n      add\n      swap1\n      dup2\n      mstore\n      0x20\n      add\n      0x00\n      keccak256\n        /* \"contracts/token/ERC20/ERC20.sol\":2900:2927  _allowances[owner][spender] */\n      0x00\n        /* \"contracts/token/ERC20/ERC20.sol\":2919:2926  spender */\n      dup4\n        /* \"contracts/token/ERC20/ERC20.sol\":2900:2927  _allowances[owner][spender] */\n      0xffffffffffffffffffffffffffffffffffffffff\n      and\n      0xffffffffffffffffffffffffffffffffffffffff\n      and\n      dup2\n      mstore\n      0x20\n      add\n      swap1\n      dup2\n      mstore\n      0x20\n      add\n      0x00\n      keccak256\n      sload\n        /* \"contracts/token/ERC20/ERC20.sol\":2893:2927  return _allowances[owner][spender] */\n      swap1\n      pop\n        /* \"contracts/token/ERC20/ERC20.sol\":2794:2934  function allowance(address owner, address spender) public view virtual returns (uint256) {... */\n      swap3\n      swap2\n      pop\n      pop\n      jump\t// out\n        /* \"contracts/access/Ownable.sol\":2543:2758  function transferOwnership(address newOwner) public virtual onlyOwner {... */\n    tag_110:\n        /* \"contracts/access/Ownable.sol\":1531:1544  _checkOwner() */\n      tag_227\n        /* \"contracts/access/Ownable.sol\":1531:1542  _checkOwner */\n      tag_126\n        /* \"contracts/access/Ownable.sol\":1531:1544  _checkOwner() */\n      jump\t// in\n    tag_227:\n        /* \"contracts/access/Ownable.sol\":2647:2648  0 */\n      0x00\n        /* \"contracts/access/Ownable.sol\":2627:2649  newOwner == address(0) */\n      0xffffffffffffffffffffffffffffffffffffffff\n      and\n        /* \"contracts/access/Ownable.sol\":2627:2635  newOwner */\n      dup2\n        /* \"contracts/access/Ownable.sol\":2627:2649  newOwner == address(0) */\n      0xffffffffffffffffffffffffffffffffffffffff\n      and\n      sub\n        /* \"contracts/access/Ownable.sol\":2623:2714  if (newOwner == address(0)) {... */\n      tag_229\n      jumpi\n        /* \"contracts/access/Ownable.sol\":2700:2701  0 */\n      0x00\n        /* \"contracts/access/Ownable.sol\":2672:2703  OwnableInvalidOwner(address(0)) */\n      mload(0x40)\n      0x1e4fbdf700000000000000000000000000000000000000000000000000000000\n      dup2\n      mstore\n      0x04\n      add\n      tag_230\n      swap2\n      swap1\n      tag_80\n      jump\t// in\n    tag_230:\n      mload(0x40)\n      dup1\n      swap2\n      sub\n      swap1\n      revert\n        /* \"contracts/access/Ownable.sol\":2623:2714  if (newOwner == address(0)) {... */\n    tag_229:\n        /* \"contracts/access/Ownable.sol\":2723:2751  _transferOwnership(newOwner) */\n      tag_231\n        /* \"contracts/access/Ownable.sol\":2742:2750  newOwner */\n      dup2\n        /* \"contracts/access/Ownable.sol\":2723:2741  _transferOwnership */\n      tag_168\n        /* \"contracts/access/Ownable.sol\":2723:2751  _transferOwnership(newOwner) */\n      jump\t// in\n    tag_231:\n        /* \"contracts/access/Ownable.sol\":2543:2758  function transferOwnership(address newOwner) public virtual onlyOwner {... */\n      pop\n      jump\t// out\n        /* \"contracts/utils/Context.sol\":656:752  function _msgSender() internal view virtual returns (address) {... */\n    tag_120:\n        /* \"contracts/utils/Context.sol\":709:716  address */\n      0x00\n        /* \"contracts/utils/Context.sol\":735:745  msg.sender */\n      caller\n        /* \"contracts/utils/Context.sol\":728:745  return msg.sender */\n      swap1\n      pop\n        /* \"contracts/utils/Context.sol\":656:752  function _msgSender() internal view virtual returns (address) {... */\n      swap1\n      jump\t// out\n        /* \"contracts/token/ERC20/ERC20.sol\":8090:8218  function _approve(address owner, address spender, uint256 value) internal {... */\n    tag_122:\n        /* \"contracts/token/ERC20/ERC20.sol\":8174:8211  _approve(owner, spender, value, true) */\n      tag_234\n        /* \"contracts/token/ERC20/ERC20.sol\":8183:8188  owner */\n      dup4\n        /* \"contracts/token/ERC20/ERC20.sol\":8190:8197  spender */\n      dup4\n        /* \"contracts/token/ERC20/ERC20.sol\":8199:8204  value */\n      dup4\n        /* \"contracts/token/ERC20/ERC20.sol\":8206:8210  true */\n      0x01\n        /* \"contracts/token/ERC20/ERC20.sol\":8174:8182  _approve */\n      tag_235\n        /* \"contracts/token/ERC20/ERC20.sol\":8174:8211  _approve(owner, spender, value, true) */\n      jump\t// in\n    tag_234:\n        /* \"contracts/token/ERC20/ERC20.sol\":8090:8218  function _approve(address owner, address spender, uint256 value) internal {... */\n      pop\n      pop\n      pop\n      jump\t// out\n        /* \"contracts/access/Ownable.sol\":1796:1958  function _checkOwner() internal view virtual {... */\n    tag_126:\n        /* \"contracts/access/Ownable.sol\":1866:1878  _msgSender() */\n      tag_237\n        /* \"contracts/access/Ownable.sol\":1866:1876  _msgSender */\n      tag_120\n        /* \"contracts/access/Ownable.sol\":1866:1878  _msgSender() */\n      jump\t// in\n    tag_237:\n        /* \"contracts/access/Ownable.sol\":1855:1878  owner() != _msgSender() */\n      0xffffffffffffffffffffffffffffffffffffffff\n      and\n        /* \"contracts/access/Ownable.sol\":1855:1862  owner() */\n      tag_238\n        /* \"contracts/access/Ownable.sol\":1855:1860  owner */\n      tag_78\n        /* \"contracts/access/Ownable.sol\":1855:1862  owner() */\n      jump\t// in\n    tag_238:\n        /* \"contracts/access/Ownable.sol\":1855:1878  owner() != _msgSender() */\n      0xffffffffffffffffffffffffffffffffffffffff\n      and\n      eq\n        /* \"contracts/access/Ownable.sol\":1851:1952  if (owner() != _msgSender()) {... */\n      tag_239\n      jumpi\n        /* \"contracts/access/Ownable.sol\":1928:1940  _msgSender() */\n      tag_240\n        /* \"contracts/access/Ownable.sol\":1928:1938  _msgSender */\n      tag_120\n        /* \"contracts/access/Ownable.sol\":1928:1940  _msgSender() */\n      jump\t// in\n    tag_240:\n        /* \"contracts/access/Ownable.sol\":1901:1941  OwnableUnauthorizedAccount(_msgSender()) */\n      mload(0x40)\n      0x118cdaa700000000000000000000000000000000000000000000000000000000\n      dup2\n      mstore\n      0x04\n      add\n      tag_241\n      swap2\n      swap1\n      tag_80\n      jump\t// in\n    tag_241:\n      mload(0x40)\n      dup1\n      swap2\n      sub\n      swap1\n      revert\n        /* \"contracts/access/Ownable.sol\":1851:1952  if (owner() != _msgSender()) {... */\n    tag_239:\n        /* \"contracts/access/Ownable.sol\":1796:1958  function _checkOwner() internal view virtual {... */\n      jump\t// out\n        /* \"contracts/security/ReentrancyGuard.sol\":2336:2623  function _nonReentrantBefore() private {... */\n    tag_132:\n        /* \"contracts/security/ReentrancyGuard.sol\":1759:1760  2 */\n      0x02\n        /* \"contracts/security/ReentrancyGuard.sol\":2468:2475  _status */\n      sload(0x06)\n        /* \"contracts/security/ReentrancyGuard.sol\":2468:2487  _status != _ENTERED */\n      sub\n        /* \"contracts/security/ReentrancyGuard.sol\":2460:2523  require(_status != _ENTERED, \"ReentrancyGuard: reentrant call\") */\n      tag_243\n      jumpi\n      mload(0x40)\n      0x08c379a000000000000000000000000000000000000000000000000000000000\n      dup2\n      mstore\n      0x04\n      add\n      tag_244\n      swap1\n      tag_245\n      jump\t// in\n    tag_244:\n      mload(0x40)\n      dup1\n      swap2\n      sub\n      swap1\n      revert\n    tag_243:\n        /* \"contracts/security/ReentrancyGuard.sol\":1759:1760  2 */\n      0x02\n        /* \"contracts/security/ReentrancyGuard.sol\":2598:2605  _status */\n      0x06\n        /* \"contracts/security/ReentrancyGuard.sol\":2598:2616  _status = _ENTERED */\n      dup2\n      swap1\n      sstore\n      pop\n        /* \"contracts/security/ReentrancyGuard.sol\":2336:2623  function _nonReentrantBefore() private {... */\n      jump\t// out\n        /* \"GenericLayout.sol\":1747:2135  function _transfer(address sender, address recipient, uint256 amount) internal override circuitBreakerNotActive {... */\n    tag_146:\n        /* \"GenericLayout.sol\":1459:1481  _circuitBreakerEnabled */\n      0x0b\n      0x00\n      swap1\n      sload\n      swap1\n      0x0100\n      exp\n      swap1\n      div\n      0xff\n      and\n        /* \"GenericLayout.sol\":1458:1481  !_circuitBreakerEnabled */\n      iszero\n        /* \"GenericLayout.sol\":1450:1511  require(!_circuitBreakerEnabled, \"Circuit breaker is active\") */\n      tag_247\n      jumpi\n      mload(0x40)\n      0x08c379a000000000000000000000000000000000000000000000000000000000\n      dup2\n      mstore\n      0x04\n      add\n      tag_248\n      swap1\n      tag_249\n      jump\t// in\n    tag_248:\n      mload(0x40)\n      dup1\n      swap2\n      sub\n      swap1\n      revert\n    tag_247:\n        /* \"GenericLayout.sol\":1870:1888  uint256 burnAmount */\n      0x00\n        /* \"GenericLayout.sol\":1900:1906  100000 */\n      0x0186a0\n        /* \"GenericLayout.sol\":1891:1897  amount */\n      dup3\n        /* \"GenericLayout.sol\":1891:1906  amount / 100000 */\n      tag_251\n      swap2\n      swap1\n      tag_221\n      jump\t// in\n    tag_251:\n        /* \"GenericLayout.sol\":1870:1906  uint256 burnAmount = amount / 100000 */\n      swap1\n      pop\n        /* \"GenericLayout.sol\":1917:1935  uint256 sendAmount */\n      0x00\n        /* \"GenericLayout.sol\":1947:1957  burnAmount */\n      dup2\n        /* \"GenericLayout.sol\":1938:1944  amount */\n      dup4\n        /* \"GenericLayout.sol\":1938:1957  amount - burnAmount */\n      tag_252\n      swap2\n      swap1\n      tag_140\n      jump\t// in\n    tag_252:\n        /* \"GenericLayout.sol\":1917:1957  uint256 sendAmount = amount - burnAmount */\n      swap1\n      pop\n        /* \"GenericLayout.sol\":1999:2009  burnAmount */\n      dup2\n        /* \"GenericLayout.sol\":1986:1996  sendAmount */\n      dup2\n        /* \"GenericLayout.sol\":1986:2009  sendAmount + burnAmount */\n      tag_253\n      swap2\n      swap1\n      tag_162\n      jump\t// in\n    tag_253:\n        /* \"GenericLayout.sol\":1976:1982  amount */\n      dup4\n        /* \"GenericLayout.sol\":1976:2009  amount == sendAmount + burnAmount */\n      eq\n        /* \"GenericLayout.sol\":1968:2032  require(amount == sendAmount + burnAmount, \"Burn value invalid\") */\n      tag_254\n      jumpi\n      mload(0x40)\n      0x08c379a000000000000000000000000000000000000000000000000000000000\n      dup2\n      mstore\n      0x04\n      add\n      tag_255\n      swap1\n      tag_256\n      jump\t// in\n    tag_255:\n      mload(0x40)\n      dup1\n      swap2\n      sub\n      swap1\n      revert\n    tag_254:\n        /* \"GenericLayout.sol\":2045:2091  super._transfer(sender, recipient, sendAmount) */\n      tag_257\n        /* \"GenericLayout.sol\":2061:2067  sender */\n      dup6\n        /* \"GenericLayout.sol\":2069:2078  recipient */\n      dup6\n        /* \"GenericLayout.sol\":2080:2090  sendAmount */\n      dup4\n        /* \"GenericLayout.sol\":2045:2060  super._transfer */\n      tag_258\n        /* \"GenericLayout.sol\":2045:2091  super._transfer(sender, recipient, sendAmount) */\n      jump\t// in\n    tag_257:\n        /* \"GenericLayout.sol\":2102:2127  _burn(sender, burnAmount) */\n      tag_259\n        /* \"GenericLayout.sol\":2108:2114  sender */\n      dup6\n        /* \"GenericLayout.sol\":2116:2126  burnAmount */\n      dup4\n        /* \"GenericLayout.sol\":2102:2107  _burn */\n      tag_158\n        /* \"GenericLayout.sol\":2102:2127  _burn(sender, burnAmount) */\n      jump\t// in\n    tag_259:\n        /* \"GenericLayout.sol\":1859:2135  {... */\n      pop\n      pop\n        /* \"GenericLayout.sol\":1747:2135  function _transfer(address sender, address recipient, uint256 amount) internal override circuitBreakerNotActive {... */\n      pop\n      pop\n      pop\n      jump\t// out\n        /* \"contracts/security/ReentrancyGuard.sol\":2629:2838  function _nonReentrantAfter() private {... */\n    tag_148:\n        /* \"contracts/security/ReentrancyGuard.sol\":1716:1717  1 */\n      0x01\n        /* \"contracts/security/ReentrancyGuard.sol\":2809:2816  _status */\n      0x06\n        /* \"contracts/security/ReentrancyGuard.sol\":2809:2831  _status = _NOT_ENTERED */\n      dup2\n      swap1\n      sstore\n      pop\n        /* \"contracts/security/ReentrancyGuard.sol\":2629:2838  function _nonReentrantAfter() private {... */\n      jump\t// out\n        /* \"contracts/token/ERC20/ERC20.sol\":9764:10241  function _spendAllowance(address owner, address spender, uint256 value) internal virtual {... */\n    tag_152:\n        /* \"contracts/token/ERC20/ERC20.sol\":9863:9887  uint256 currentAllowance */\n      0x00\n        /* \"contracts/token/ERC20/ERC20.sol\":9890:9915  allowance(owner, spender) */\n      tag_262\n        /* \"contracts/token/ERC20/ERC20.sol\":9900:9905  owner */\n      dup5\n        /* \"contracts/token/ERC20/ERC20.sol\":9907:9914  spender */\n      dup5\n        /* \"contracts/token/ERC20/ERC20.sol\":9890:9899  allowance */\n      tag_106\n        /* \"contracts/token/ERC20/ERC20.sol\":9890:9915  allowance(owner, spender) */\n      jump\t// in\n    tag_262:\n        /* \"contracts/token/ERC20/ERC20.sol\":9863:9915  uint256 currentAllowance = allowance(owner, spender) */\n      swap1\n      pop\n        /* \"contracts/token/ERC20/ERC20.sol\":9949:9966  type(uint256).max */\n      0xffffffffffffffffffffffffffffffffffffffffffffffffffffffffffffffff\n        /* \"contracts/token/ERC20/ERC20.sol\":9929:9945  currentAllowance */\n      dup2\n        /* \"contracts/token/ERC20/ERC20.sol\":9929:9966  currentAllowance != type(uint256).max */\n      eq\n        /* \"contracts/token/ERC20/ERC20.sol\":9925:10235  if (currentAllowance != type(uint256).max) {... */\n      tag_263\n      jumpi\n        /* \"contracts/token/ERC20/ERC20.sol\":10005:10010  value */\n      dup2\n        /* \"contracts/token/ERC20/ERC20.sol\":9986:10002  currentAllowance */\n      dup2\n        /* \"contracts/token/ERC20/ERC20.sol\":9986:10010  currentAllowance < value */\n      lt\n        /* \"contracts/token/ERC20/ERC20.sol\":9982:10112  if (currentAllowance < value) {... */\n      iszero\n      tag_264\n      jumpi\n        /* \"contracts/token/ERC20/ERC20.sol\":10064:10071  spender */\n      dup3\n        /* \"contracts/token/ERC20/ERC20.sol\":10073:10089  currentAllowance */\n      dup2\n        /* \"contracts/token/ERC20/ERC20.sol\":10091:10096  value */\n      dup4\n        /* \"contracts/token/ERC20/ERC20.sol\":10037:10097  ERC20InsufficientAllowance(spender, currentAllowance, value) */\n      mload(0x40)\n      0xfb8f41b200000000000000000000000000000000000000000000000000000000\n      dup2\n      mstore\n      0x04\n      add\n      tag_265\n      swap4\n      swap3\n      swap2\n      swap1\n      tag_266\n      jump\t// in\n    tag_265:\n      mload(0x40)\n      dup1\n      swap2\n      sub\n      swap1\n      revert\n        /* \"contracts/token/ERC20/ERC20.sol\":9982:10112  if (currentAllowance < value) {... */\n    tag_264:\n        /* \"contracts/token/ERC20/ERC20.sol\":10153:10210  _approve(owner, spender, currentAllowance - value, false) */\n      tag_267\n        /* \"contracts/token/ERC20/ERC20.sol\":10162:10167  owner */\n      dup5\n        /* \"contracts/token/ERC20/ERC20.sol\":10169:10176  spender */\n      dup5\n        /* \"contracts/token/ERC20/ERC20.sol\":10197:10202  value */\n      dup5\n        /* \"contracts/token/ERC20/ERC20.sol\":10178:10194  currentAllowance */\n      dup5\n        /* \"contracts/token/ERC20/ERC20.sol\":10178:10202  currentAllowance - value */\n      sub\n        /* \"contracts/token/ERC20/ERC20.sol\":10204:10209  false */\n      0x00\n        /* \"contracts/token/ERC20/ERC20.sol\":10153:10161  _approve */\n      tag_235\n        /* \"contracts/token/ERC20/ERC20.sol\":10153:10210  _approve(owner, spender, currentAllowance - value, false) */\n      jump\t// in\n    tag_267:\n        /* \"contracts/token/ERC20/ERC20.sol\":9925:10235  if (currentAllowance != type(uint256).max) {... */\n    tag_263:\n        /* \"contracts/token/ERC20/ERC20.sol\":9853:10241  {... */\n      pop\n        /* \"contracts/token/ERC20/ERC20.sol\":9764:10241  function _spendAllowance(address owner, address spender, uint256 value) internal virtual {... */\n      pop\n      pop\n      pop\n      jump\t// out\n        /* \"contracts/token/ERC20/ERC20.sol\":7212:7418  function _burn(address account, uint256 value) internal {... */\n    tag_158:\n        /* \"contracts/token/ERC20/ERC20.sol\":7301:7302  0 */\n      0x00\n        /* \"contracts/token/ERC20/ERC20.sol\":7282:7303  account == address(0) */\n      0xffffffffffffffffffffffffffffffffffffffff\n      and\n        /* \"contracts/token/ERC20/ERC20.sol\":7282:7289  account */\n      dup3\n        /* \"contracts/token/ERC20/ERC20.sol\":7282:7303  account == address(0) */\n      0xffffffffffffffffffffffffffffffffffffffff\n      and\n      sub\n        /* \"contracts/token/ERC20/ERC20.sol\":7278:7367  if (account == address(0)) {... */\n      tag_269\n      jumpi\n        /* \"contracts/token/ERC20/ERC20.sol\":7353:7354  0 */\n      0x00\n        /* \"contracts/token/ERC20/ERC20.sol\":7326:7356  ERC20InvalidSender(address(0)) */\n      mload(0x40)\n      0x96c6fd1e00000000000000000000000000000000000000000000000000000000\n      dup2\n      mstore\n      0x04\n      add\n      tag_270\n      swap2\n      swap1\n      tag_80\n      jump\t// in\n    tag_270:\n      mload(0x40)\n      dup1\n      swap2\n      sub\n      swap1\n      revert\n        /* \"contracts/token/ERC20/ERC20.sol\":7278:7367  if (account == address(0)) {... */\n    tag_269:\n        /* \"contracts/token/ERC20/ERC20.sol\":7376:7411  _update(account, address(0), value) */\n      tag_271\n        /* \"contracts/token/ERC20/ERC20.sol\":7384:7391  account */\n      dup3\n        /* \"contracts/token/ERC20/ERC20.sol\":7401:7402  0 */\n      0x00\n        /* \"contracts/token/ERC20/ERC20.sol\":7405:7410  value */\n      dup4\n        /* \"contracts/token/ERC20/ERC20.sol\":7376:7383  _update */\n      tag_272\n        /* \"contracts/token/ERC20/ERC20.sol\":7376:7411  _update(account, address(0), value) */\n      jump\t// in\n    tag_271:\n        /* \"contracts/token/ERC20/ERC20.sol\":7212:7418  function _burn(address account, uint256 value) internal {... */\n      pop\n      pop\n      jump\t// out\n        /* \"contracts/access/Ownable.sol\":2912:3099  function _transferOwnership(address newOwner) internal virtual {... */\n    tag_168:\n        /* \"contracts/access/Ownable.sol\":2985:3001  address oldOwner */\n      0x00\n        /* \"contracts/access/Ownable.sol\":3004:3010  _owner */\n      0x05\n      0x00\n      swap1\n      sload\n      swap1\n      0x0100\n      exp\n      swap1\n      div\n      0xffffffffffffffffffffffffffffffffffffffff\n      and\n        /* \"contracts/access/Ownable.sol\":2985:3010  address oldOwner = _owner */\n      swap1\n      pop\n        /* \"contracts/access/Ownable.sol\":3029:3037  newOwner */\n      dup2\n        /* \"contracts/access/Ownable.sol\":3020:3026  _owner */\n      0x05\n      0x00\n        /* \"contracts/access/Ownable.sol\":3020:3037  _owner = newOwner */\n      0x0100\n      exp\n      dup2\n      sload\n      dup2\n      0xffffffffffffffffffffffffffffffffffffffff\n      mul\n      not\n      and\n      swap1\n      dup4\n      0xffffffffffffffffffffffffffffffffffffffff\n      and\n      mul\n      or\n      swap1\n      sstore\n      pop\n        /* \"contracts/access/Ownable.sol\":3083:3091  newOwner */\n      dup2\n        /* \"contracts/access/Ownable.sol\":3052:3092  OwnershipTransferred(oldOwner, newOwner) */\n      0xffffffffffffffffffffffffffffffffffffffff\n      and\n        /* \"contracts/access/Ownable.sol\":3073:3081  oldOwner */\n      dup2\n        /* \"contracts/access/Ownable.sol\":3052:3092  OwnershipTransferred(oldOwner, newOwner) */\n      0xffffffffffffffffffffffffffffffffffffffff\n      and\n      0x8be0079c531659141344cd1fd0a4f28419497f9722a3daafe3b4186f6b6457e0\n      mload(0x40)\n      mload(0x40)\n      dup1\n      swap2\n      sub\n      swap1\n      log3\n        /* \"contracts/access/Ownable.sol\":2975:3099  {... */\n      pop\n        /* \"contracts/access/Ownable.sol\":2912:3099  function _transferOwnership(address newOwner) internal virtual {... */\n      pop\n      jump\t// out\n        /* \"contracts/token/ERC20/ERC20.sol\":6677:6894  function _mint(address account, uint256 value) internal virtual  {... */\n    tag_193:\n        /* \"contracts/token/ERC20/ERC20.sol\":6775:6776  0 */\n      0x00\n        /* \"contracts/token/ERC20/ERC20.sol\":6756:6777  account == address(0) */\n      0xffffffffffffffffffffffffffffffffffffffff\n      and\n        /* \"contracts/token/ERC20/ERC20.sol\":6756:6763  account */\n      dup3\n        /* \"contracts/token/ERC20/ERC20.sol\":6756:6777  account == address(0) */\n      0xffffffffffffffffffffffffffffffffffffffff\n      and\n      sub\n        /* \"contracts/token/ERC20/ERC20.sol\":6752:6843  if (account == address(0)) {... */\n      tag_275\n      jumpi\n        /* \"contracts/token/ERC20/ERC20.sol\":6829:6830  0 */\n      0x00\n        /* \"contracts/token/ERC20/ERC20.sol\":6800:6832  ERC20InvalidReceiver(address(0)) */\n      mload(0x40)\n      0xec442f0500000000000000000000000000000000000000000000000000000000\n      dup2\n      mstore\n      0x04\n      add\n      tag_276\n      swap2\n      swap1\n      tag_80\n      jump\t// in\n    tag_276:\n      mload(0x40)\n      dup1\n      swap2\n      sub\n      swap1\n      revert\n        /* \"contracts/token/ERC20/ERC20.sol\":6752:6843  if (account == address(0)) {... */\n    tag_275:\n        /* \"contracts/token/ERC20/ERC20.sol\":6852:6887  _update(address(0), account, value) */\n      tag_277\n        /* \"contracts/token/ERC20/ERC20.sol\":6868:6869  0 */\n      0x00\n        /* \"contracts/token/ERC20/ERC20.sol\":6872:6879  account */\n      dup4\n        /* \"contracts/token/ERC20/ERC20.sol\":6881:6886  value */\n      dup4\n        /* \"contracts/token/ERC20/ERC20.sol\":6852:6859  _update */\n      tag_272\n        /* \"contracts/token/ERC20/ERC20.sol\":6852:6887  _update(address(0), account, value) */\n      jump\t// in\n    tag_277:\n        /* \"contracts/token/ERC20/ERC20.sol\":6677:6894  function _mint(address account, uint256 value) internal virtual  {... */\n      pop\n      pop\n      jump\t// out\n        /* \"contracts/token/ERC20/ERC20.sol\":9050:9482  function _approve(address owner, address spender, uint256 value, bool emitEvent) internal virtual {... */\n    tag_235:\n        /* \"contracts/token/ERC20/ERC20.sol\":9179:9180  0 */\n      0x00\n        /* \"contracts/token/ERC20/ERC20.sol\":9162:9181  owner == address(0) */\n      0xffffffffffffffffffffffffffffffffffffffff\n      and\n        /* \"contracts/token/ERC20/ERC20.sol\":9162:9167  owner */\n      dup5\n        /* \"contracts/token/ERC20/ERC20.sol\":9162:9181  owner == address(0) */\n      0xffffffffffffffffffffffffffffffffffffffff\n      and\n      sub\n        /* \"contracts/token/ERC20/ERC20.sol\":9158:9247  if (owner == address(0)) {... */\n      tag_279\n      jumpi\n        /* \"contracts/token/ERC20/ERC20.sol\":9233:9234  0 */\n      0x00\n        /* \"contracts/token/ERC20/ERC20.sol\":9204:9236  ERC20InvalidApprover(address(0)) */\n      mload(0x40)\n      0xe602df0500000000000000000000000000000000000000000000000000000000\n      dup2\n      mstore\n      0x04\n      add\n      tag_280\n      swap2\n      swap1\n      tag_80\n      jump\t// in\n    tag_280:\n      mload(0x40)\n      dup1\n      swap2\n      sub\n      swap1\n      revert\n        /* \"contracts/token/ERC20/ERC20.sol\":9158:9247  if (owner == address(0)) {... */\n    tag_279:\n        /* \"contracts/token/ERC20/ERC20.sol\":9279:9280  0 */\n      0x00\n        /* \"contracts/token/ERC20/ERC20.sol\":9260:9281  spender == address(0) */\n      0xffffffffffffffffffffffffffffffffffffffff\n      and\n        /* \"contracts/token/ERC20/ERC20.sol\":9260:9267  spender */\n      dup4\n        /* \"contracts/token/ERC20/ERC20.sol\":9260:9281  spender == address(0) */\n      0xffffffffffffffffffffffffffffffffffffffff\n      and\n      sub\n        /* \"contracts/token/ERC20/ERC20.sol\":9256:9346  if (spender == address(0)) {... */\n      tag_281\n      jumpi\n        /* \"contracts/token/ERC20/ERC20.sol\":9332:9333  0 */\n      0x00\n        /* \"contracts/token/ERC20/ERC20.sol\":9304:9335  ERC20InvalidSpender(address(0)) */\n      mload(0x40)\n      0x94280d6200000000000000000000000000000000000000000000000000000000\n      dup2\n      mstore\n      0x04\n      add\n      tag_282\n      swap2\n      swap1\n      tag_80\n      jump\t// in\n    tag_282:\n      mload(0x40)\n      dup1\n      swap2\n      sub\n      swap1\n      revert\n        /* \"contracts/token/ERC20/ERC20.sol\":9256:9346  if (spender == address(0)) {... */\n    tag_281:\n        /* \"contracts/token/ERC20/ERC20.sol\":9385:9390  value */\n      dup2\n        /* \"contracts/token/ERC20/ERC20.sol\":9355:9366  _allowances */\n      0x01\n        /* \"contracts/token/ERC20/ERC20.sol\":9355:9373  _allowances[owner] */\n      0x00\n        /* \"contracts/token/ERC20/ERC20.sol\":9367:9372  owner */\n      dup7\n        /* \"contracts/token/ERC20/ERC20.sol\":9355:9373  _allowances[owner] */\n      0xffffffffffffffffffffffffffffffffffffffff\n      and\n      0xffffffffffffffffffffffffffffffffffffffff\n      and\n      dup2\n      mstore\n      0x20\n      add\n      swap1\n      dup2\n      mstore\n      0x20\n      add\n      0x00\n      keccak256\n        /* \"contracts/token/ERC20/ERC20.sol\":9355:9382  _allowances[owner][spender] */\n      0x00\n        /* \"contracts/token/ERC20/ERC20.sol\":9374:9381  spender */\n      dup6\n        /* \"contracts/token/ERC20/ERC20.sol\":9355:9382  _allowances[owner][spender] */\n      0xffffffffffffffffffffffffffffffffffffffff\n      and\n      0xffffffffffffffffffffffffffffffffffffffff\n      and\n      dup2\n      mstore\n      0x20\n      add\n      swap1\n      dup2\n      mstore\n      0x20\n      add\n      0x00\n      keccak256\n        /* \"contracts/token/ERC20/ERC20.sol\":9355:9390  _allowances[owner][spender] = value */\n      dup2\n      swap1\n      sstore\n      pop\n        /* \"contracts/token/ERC20/ERC20.sol\":9404:9413  emitEvent */\n      dup1\n        /* \"contracts/token/ERC20/ERC20.sol\":9400:9476  if (emitEvent) {... */\n      iszero\n      tag_283\n      jumpi\n        /* \"contracts/token/ERC20/ERC20.sol\":9450:9457  spender */\n      dup3\n        /* \"contracts/token/ERC20/ERC20.sol\":9434:9465  Approval(owner, spender, value) */\n      0xffffffffffffffffffffffffffffffffffffffff\n      and\n        /* \"contracts/token/ERC20/ERC20.sol\":9443:9448  owner */\n      dup5\n        /* \"contracts/token/ERC20/ERC20.sol\":9434:9465  Approval(owner, spender, value) */\n      0xffffffffffffffffffffffffffffffffffffffff\n      and\n      0x8c5be1e5ebec7d5bd14f71427d1e84f3dd0314c0f7b2291e5b200ac8c7c3b925\n        /* \"contracts/token/ERC20/ERC20.sol\":9459:9464  value */\n      dup5\n        /* \"contracts/token/ERC20/ERC20.sol\":9434:9465  Approval(owner, spender, value) */\n      mload(0x40)\n      tag_284\n      swap2\n      swap1\n      tag_42\n      jump\t// in\n    tag_284:\n      mload(0x40)\n      dup1\n      swap2\n      sub\n      swap1\n      log3\n        /* \"contracts/token/ERC20/ERC20.sol\":9400:9476  if (emitEvent) {... */\n    tag_283:\n        /* \"contracts/token/ERC20/ERC20.sol\":9050:9482  function _approve(address owner, address spender, uint256 value, bool emitEvent) internal virtual {... */\n      pop\n      pop\n      pop\n      pop\n      jump\t// out\n        /* \"contracts/token/ERC20/ERC20.sol\":4604:4912  function _transfer(address from, address to, uint256 value) internal virtual {... */\n    tag_258:\n        /* \"contracts/token/ERC20/ERC20.sol\":4711:4712  0 */\n      0x00\n        /* \"contracts/token/ERC20/ERC20.sol\":4695:4713  from == address(0) */\n      0xffffffffffffffffffffffffffffffffffffffff\n      and\n        /* \"contracts/token/ERC20/ERC20.sol\":4695:4699  from */\n      dup4\n        /* \"contracts/token/ERC20/ERC20.sol\":4695:4713  from == address(0) */\n      0xffffffffffffffffffffffffffffffffffffffff\n      and\n      sub\n        /* \"contracts/token/ERC20/ERC20.sol\":4691:4777  if (from == address(0)) {... */\n      tag_286\n      jumpi\n        /* \"contracts/token/ERC20/ERC20.sol\":4763:4764  0 */\n      0x00\n        /* \"contracts/token/ERC20/ERC20.sol\":4736:4766  ERC20InvalidSender(address(0)) */\n      mload(0x40)\n      0x96c6fd1e00000000000000000000000000000000000000000000000000000000\n      dup2\n      mstore\n      0x04\n      add\n      tag_287\n      swap2\n      swap1\n      tag_80\n      jump\t// in\n    tag_287:\n      mload(0x40)\n      dup1\n      swap2\n      sub\n      swap1\n      revert\n        /* \"contracts/token/ERC20/ERC20.sol\":4691:4777  if (from == address(0)) {... */\n    tag_286:\n        /* \"contracts/token/ERC20/ERC20.sol\":4804:4805  0 */\n      0x00\n        /* \"contracts/token/ERC20/ERC20.sol\":4790:4806  to == address(0) */\n      0xffffffffffffffffffffffffffffffffffffffff\n      and\n        /* \"contracts/token/ERC20/ERC20.sol\":4790:4792  to */\n      dup3\n        /* \"contracts/token/ERC20/ERC20.sol\":4790:4806  to == address(0) */\n      0xffffffffffffffffffffffffffffffffffffffff\n      and\n      sub\n        /* \"contracts/token/ERC20/ERC20.sol\":4786:4872  if (to == address(0)) {... */\n      tag_288\n      jumpi\n        /* \"contracts/token/ERC20/ERC20.sol\":4858:4859  0 */\n      0x00\n        /* \"contracts/token/ERC20/ERC20.sol\":4829:4861  ERC20InvalidReceiver(address(0)) */\n      mload(0x40)\n      0xec442f0500000000000000000000000000000000000000000000000000000000\n      dup2\n      mstore\n      0x04\n      add\n      tag_289\n      swap2\n      swap1\n      tag_80\n      jump\t// in\n    tag_289:\n      mload(0x40)\n      dup1\n      swap2\n      sub\n      swap1\n      revert\n        /* \"contracts/token/ERC20/ERC20.sol\":4786:4872  if (to == address(0)) {... */\n    tag_288:\n        /* \"contracts/token/ERC20/ERC20.sol\":4881:4905  _update(from, to, value) */\n      tag_290\n        /* \"contracts/token/ERC20/ERC20.sol\":4889:4893  from */\n      dup4\n        /* \"contracts/token/ERC20/ERC20.sol\":4895:4897  to */\n      dup4\n        /* \"contracts/token/ERC20/ERC20.sol\":4899:4904  value */\n      dup4\n        /* \"contracts/token/ERC20/ERC20.sol\":4881:4888  _update */\n      tag_272\n        /* \"contracts/token/ERC20/ERC20.sol\":4881:4905  _update(from, to, value) */\n      jump\t// in\n    tag_290:\n        /* \"contracts/token/ERC20/ERC20.sol\":4604:4912  function _transfer(address from, address to, uint256 value) internal virtual {... */\n      pop\n      pop\n      pop\n      jump\t// out\n        /* \"contracts/token/ERC20/ERC20.sol\":5227:6334  function _update(address from, address to, uint256 value) internal virtual {... */\n    tag_272:\n        /* \"contracts/token/ERC20/ERC20.sol\":5332:5333  0 */\n      0x00\n        /* \"contracts/token/ERC20/ERC20.sol\":5316:5334  from == address(0) */\n      0xffffffffffffffffffffffffffffffffffffffff\n      and\n        /* \"contracts/token/ERC20/ERC20.sol\":5316:5320  from */\n      dup4\n        /* \"contracts/token/ERC20/ERC20.sol\":5316:5334  from == address(0) */\n      0xffffffffffffffffffffffffffffffffffffffff\n      and\n      sub\n        /* \"contracts/token/ERC20/ERC20.sol\":5312:5852  if (from == address(0)) {... */\n      tag_292\n      jumpi\n        /* \"contracts/token/ERC20/ERC20.sol\":5468:5473  value */\n      dup1\n        /* \"contracts/token/ERC20/ERC20.sol\":5452:5464  _totalSupply */\n      0x02\n      0x00\n        /* \"contracts/token/ERC20/ERC20.sol\":5452:5473  _totalSupply += value */\n      dup3\n      dup3\n      sload\n      tag_293\n      swap2\n      swap1\n      tag_162\n      jump\t// in\n    tag_293:\n      swap3\n      pop\n      pop\n      dup2\n      swap1\n      sstore\n      pop\n        /* \"contracts/token/ERC20/ERC20.sol\":5312:5852  if (from == address(0)) {... */\n      jump(tag_294)\n    tag_292:\n        /* \"contracts/token/ERC20/ERC20.sol\":5504:5523  uint256 fromBalance */\n      0x00\n        /* \"contracts/token/ERC20/ERC20.sol\":5526:5535  _balances */\n      dup1\n        /* \"contracts/token/ERC20/ERC20.sol\":5526:5541  _balances[from] */\n      0x00\n        /* \"contracts/token/ERC20/ERC20.sol\":5536:5540  from */\n      dup6\n        /* \"contracts/token/ERC20/ERC20.sol\":5526:5541  _balances[from] */\n      0xffffffffffffffffffffffffffffffffffffffff\n      and\n      0xffffffffffffffffffffffffffffffffffffffff\n      and\n      dup2\n      mstore\n      0x20\n      add\n      swap1\n      dup2\n      mstore\n      0x20\n      add\n      0x00\n      keccak256\n      sload\n        /* \"contracts/token/ERC20/ERC20.sol\":5504:5541  uint256 fromBalance = _balances[from] */\n      swap1\n      pop\n        /* \"contracts/token/ERC20/ERC20.sol\":5573:5578  value */\n      dup2\n        /* \"contracts/token/ERC20/ERC20.sol\":5559:5570  fromBalance */\n      dup2\n        /* \"contracts/token/ERC20/ERC20.sol\":5559:5578  fromBalance < value */\n      lt\n        /* \"contracts/token/ERC20/ERC20.sol\":5555:5670  if (fromBalance < value) {... */\n      iszero\n      tag_295\n      jumpi\n        /* \"contracts/token/ERC20/ERC20.sol\":5630:5634  from */\n      dup4\n        /* \"contracts/token/ERC20/ERC20.sol\":5636:5647  fromBalance */\n      dup2\n        /* \"contracts/token/ERC20/ERC20.sol\":5649:5654  value */\n      dup4\n        /* \"contracts/token/ERC20/ERC20.sol\":5605:5655  ERC20InsufficientBalance(from, fromBalance, value) */\n      mload(0x40)\n      0xe450d38c00000000000000000000000000000000000000000000000000000000\n      dup2\n      mstore\n      0x04\n      add\n      tag_296\n      swap4\n      swap3\n      swap2\n      swap1\n      tag_266\n      jump\t// in\n    tag_296:\n      mload(0x40)\n      dup1\n      swap2\n      sub\n      swap1\n      revert\n        /* \"contracts/token/ERC20/ERC20.sol\":5555:5670  if (fromBalance < value) {... */\n    tag_295:\n        /* \"contracts/token/ERC20/ERC20.sol\":5822:5827  value */\n      dup2\n        /* \"contracts/token/ERC20/ERC20.sol\":5808:5819  fromBalance */\n      dup2\n        /* \"contracts/token/ERC20/ERC20.sol\":5808:5827  fromBalance - value */\n      sub\n        /* \"contracts/token/ERC20/ERC20.sol\":5790:5799  _balances */\n      0x00\n        /* \"contracts/token/ERC20/ERC20.sol\":5790:5805  _balances[from] */\n      dup1\n        /* \"contracts/token/ERC20/ERC20.sol\":5800:5804  from */\n      dup7\n        /* \"contracts/token/ERC20/ERC20.sol\":5790:5805  _balances[from] */\n      0xffffffffffffffffffffffffffffffffffffffff\n      and\n      0xffffffffffffffffffffffffffffffffffffffff\n      and\n      dup2\n      mstore\n      0x20\n      add\n      swap1\n      dup2\n      mstore\n      0x20\n      add\n      0x00\n      keccak256\n        /* \"contracts/token/ERC20/ERC20.sol\":5790:5827  _balances[from] = fromBalance - value */\n      dup2\n      swap1\n      sstore\n      pop\n        /* \"contracts/token/ERC20/ERC20.sol\":5490:5852  {... */\n      pop\n        /* \"contracts/token/ERC20/ERC20.sol\":5312:5852  if (from == address(0)) {... */\n    tag_294:\n        /* \"contracts/token/ERC20/ERC20.sol\":5880:5881  0 */\n      0x00\n        /* \"contracts/token/ERC20/ERC20.sol\":5866:5882  to == address(0) */\n      0xffffffffffffffffffffffffffffffffffffffff\n      and\n        /* \"contracts/token/ERC20/ERC20.sol\":5866:5868  to */\n      dup3\n        /* \"contracts/token/ERC20/ERC20.sol\":5866:5882  to == address(0) */\n      0xffffffffffffffffffffffffffffffffffffffff\n      and\n      sub\n        /* \"contracts/token/ERC20/ERC20.sol\":5862:6287  if (to == address(0)) {... */\n      tag_297\n      jumpi\n        /* \"contracts/token/ERC20/ERC20.sol\":6045:6050  value */\n      dup1\n        /* \"contracts/token/ERC20/ERC20.sol\":6029:6041  _totalSupply */\n      0x02\n      0x00\n        /* \"contracts/token/ERC20/ERC20.sol\":6029:6050  _totalSupply -= value */\n      dup3\n      dup3\n      sload\n      sub\n      swap3\n      pop\n      pop\n      dup2\n      swap1\n      sstore\n      pop\n        /* \"contracts/token/ERC20/ERC20.sol\":5862:6287  if (to == address(0)) {... */\n      jump(tag_298)\n    tag_297:\n        /* \"contracts/token/ERC20/ERC20.sol\":6257:6262  value */\n      dup1\n        /* \"contracts/token/ERC20/ERC20.sol\":6240:6249  _balances */\n      0x00\n        /* \"contracts/token/ERC20/ERC20.sol\":6240:6253  _balances[to] */\n      dup1\n        /* \"contracts/token/ERC20/ERC20.sol\":6250:6252  to */\n      dup5\n        /* \"contracts/token/ERC20/ERC20.sol\":6240:6253  _balances[to] */\n      0xffffffffffffffffffffffffffffffffffffffff\n      and\n      0xffffffffffffffffffffffffffffffffffffffff\n      and\n      dup2\n      mstore\n      0x20\n      add\n      swap1\n      dup2\n      mstore\n      0x20\n      add\n      0x00\n      keccak256\n      0x00\n        /* \"contracts/token/ERC20/ERC20.sol\":6240:6262  _balances[to] += value */\n      dup3\n      dup3\n      sload\n      add\n      swap3\n      pop\n      pop\n      dup2\n      swap1\n      sstore\n      pop\n        /* \"contracts/token/ERC20/ERC20.sol\":5862:6287  if (to == address(0)) {... */\n    tag_298:\n        /* \"contracts/token/ERC20/ERC20.sol\":6317:6319  to */\n      dup2\n        /* \"contracts/token/ERC20/ERC20.sol\":6302:6327  Transfer(from, to, value) */\n      0xffffffffffffffffffffffffffffffffffffffff\n      and\n        /* \"contracts/token/ERC20/ERC20.sol\":6311:6315  from */\n      dup4\n        /* \"contracts/token/ERC20/ERC20.sol\":6302:6327  Transfer(from, to, value) */\n      0xffffffffffffffffffffffffffffffffffffffff\n      and\n      0xddf252ad1be2c89b69c2b068fc378daa952ba7f163c4a11628f55a4df523b3ef\n        /* \"contracts/token/ERC20/ERC20.sol\":6321:6326  value */\n      dup4\n        /* \"contracts/token/ERC20/ERC20.sol\":6302:6327  Transfer(from, to, value) */\n      mload(0x40)\n      tag_299\n      swap2\n      swap1\n      tag_42\n      jump\t// in\n    tag_299:\n      mload(0x40)\n      dup1\n      swap2\n      sub\n      swap1\n      log3\n        /* \"contracts/token/ERC20/ERC20.sol\":5227:6334  function _update(address from, address to, uint256 value) internal virtual {... */\n      pop\n      pop\n      pop\n      jump\t// out\n        /* \"#utility.yul\":7:106   */\n    tag_300:\n        /* \"#utility.yul\":59:65   */\n      0x00\n        /* \"#utility.yul\":93:98   */\n      dup2\n        /* \"#utility.yul\":87:99   */\n      mload\n        /* \"#utility.yul\":77:99   */\n      swap1\n      pop\n        /* \"#utility.yul\":7:106   */\n      swap2\n      swap1\n      pop\n      jump\t// out\n        /* \"#utility.yul\":112:281   */\n    tag_301:\n        /* \"#utility.yul\":196:207   */\n      0x00\n        /* \"#utility.yul\":230:236   */\n      dup3\n        /* \"#utility.yul\":225:228   */\n      dup3\n        /* \"#utility.yul\":218:237   */\n      mstore\n        /* \"#utility.yul\":270:274   */\n      0x20\n        /* \"#utility.yul\":265:268   */\n      dup3\n        /* \"#utility.yul\":261:275   */\n      add\n        /* \"#utility.yul\":246:275   */\n      swap1\n      pop\n        /* \"#utility.yul\":112:281   */\n      swap3\n      swap2\n      pop\n      pop\n      jump\t// out\n        /* \"#utility.yul\":287:426   */\n    tag_302:\n        /* \"#utility.yul\":376:382   */\n      dup3\n        /* \"#utility.yul\":371:374   */\n      dup2\n        /* \"#utility.yul\":366:369   */\n      dup4\n        /* \"#utility.yul\":360:383   */\n      mcopy\n        /* \"#utility.yul\":417:418   */\n      0x00\n        /* \"#utility.yul\":408:414   */\n      dup4\n        /* \"#utility.yul\":403:406   */\n      dup4\n        /* \"#utility.yul\":399:415   */\n      add\n        /* \"#utility.yul\":392:419   */\n      mstore\n        /* \"#utility.yul\":287:426   */\n      pop\n      pop\n      pop\n      jump\t// out\n        /* \"#utility.yul\":432:534   */\n    tag_303:\n        /* \"#utility.yul\":473:479   */\n      0x00\n        /* \"#utility.yul\":524:526   */\n      0x1f\n        /* \"#utility.yul\":520:527   */\n      not\n        /* \"#utility.yul\":515:517   */\n      0x1f\n        /* \"#utility.yul\":508:513   */\n      dup4\n        /* \"#utility.yul\":504:518   */\n      add\n        /* \"#utility.yul\":500:528   */\n      and\n        /* \"#utility.yul\":490:528   */\n      swap1\n      pop\n        /* \"#utility.yul\":432:534   */\n      swap2\n      swap1\n      pop\n      jump\t// out\n        /* \"#utility.yul\":540:917   */\n    tag_304:\n        /* \"#utility.yul\":628:631   */\n      0x00\n        /* \"#utility.yul\":656:695   */\n      tag_342\n        /* \"#utility.yul\":689:694   */\n      dup3\n        /* \"#utility.yul\":656:695   */\n      tag_300\n      jump\t// in\n    tag_342:\n        /* \"#utility.yul\":711:782   */\n      tag_343\n        /* \"#utility.yul\":775:781   */\n      dup2\n        /* \"#utility.yul\":770:773   */\n      dup6\n        /* \"#utility.yul\":711:782   */\n      tag_301\n      jump\t// in\n    tag_343:\n        /* \"#utility.yul\":704:782   */\n      swap4\n      pop\n        /* \"#utility.yul\":791:856   */\n      tag_344\n        /* \"#utility.yul\":849:855   */\n      dup2\n        /* \"#utility.yul\":844:847   */\n      dup6\n        /* \"#utility.yul\":837:841   */\n      0x20\n        /* \"#utility.yul\":830:835   */\n      dup7\n        /* \"#utility.yul\":826:842   */\n      add\n        /* \"#utility.yul\":791:856   */\n      tag_302\n      jump\t// in\n    tag_344:\n        /* \"#utility.yul\":881:910   */\n      tag_345\n        /* \"#utility.yul\":903:909   */\n      dup2\n        /* \"#utility.yul\":881:910   */\n      tag_303\n      jump\t// in\n    tag_345:\n        /* \"#utility.yul\":876:879   */\n      dup5\n        /* \"#utility.yul\":872:911   */\n      add\n        /* \"#utility.yul\":865:911   */\n      swap2\n      pop\n        /* \"#utility.yul\":632:917   */\n      pop\n        /* \"#utility.yul\":540:917   */\n      swap3\n      swap2\n      pop\n      pop\n      jump\t// out\n        /* \"#utility.yul\":923:1236   */\n    tag_32:\n        /* \"#utility.yul\":1036:1040   */\n      0x00\n        /* \"#utility.yul\":1074:1076   */\n      0x20\n        /* \"#utility.yul\":1063:1072   */\n      dup3\n        /* \"#utility.yul\":1059:1077   */\n      add\n        /* \"#utility.yul\":1051:1077   */\n      swap1\n      pop\n        /* \"#utility.yul\":1123:1132   */\n      dup2\n        /* \"#utility.yul\":1117:1121   */\n      dup2\n        /* \"#utility.yul\":1113:1133   */\n      sub\n        /* \"#utility.yul\":1109:1110   */\n      0x00\n        /* \"#utility.yul\":1098:1107   */\n      dup4\n        /* \"#utility.yul\":1094:1111   */\n      add\n        /* \"#utility.yul\":1087:1134   */\n      mstore\n        /* \"#utility.yul\":1151:1229   */\n      tag_347\n        /* \"#utility.yul\":1224:1228   */\n      dup2\n        /* \"#utility.yul\":1215:1221   */\n      dup5\n        /* \"#utility.yul\":1151:1229   */\n      tag_304\n      jump\t// in\n    tag_347:\n        /* \"#utility.yul\":1143:1229   */\n      swap1\n      pop\n        /* \"#utility.yul\":923:1236   */\n      swap3\n      swap2\n      pop\n      pop\n      jump\t// out\n        /* \"#utility.yul\":1323:1440   */\n    tag_306:\n        /* \"#utility.yul\":1432:1433   */\n      0x00\n        /* \"#utility.yul\":1429:1430   */\n      dup1\n        /* \"#utility.yul\":1422:1434   */\n      revert\n        /* \"#utility.yul\":1569:1695   */\n    tag_308:\n        /* \"#utility.yul\":1606:1613   */\n      0x00\n        /* \"#utility.yul\":1646:1688   */\n      0xffffffffffffffffffffffffffffffffffffffff\n        /* \"#utility.yul\":1639:1644   */\n      dup3\n        /* \"#utility.yul\":1635:1689   */\n      and\n        /* \"#utility.yul\":1624:1689   */\n      swap1\n      pop\n        /* \"#utility.yul\":1569:1695   */\n      swap2\n      swap1\n      pop\n      jump\t// out\n        /* \"#utility.yul\":1701:1797   */\n    tag_309:\n        /* \"#utility.yul\":1738:1745   */\n      0x00\n        /* \"#utility.yul\":1767:1791   */\n      tag_353\n        /* \"#utility.yul\":1785:1790   */\n      dup3\n        /* \"#utility.yul\":1767:1791   */\n      tag_308\n      jump\t// in\n    tag_353:\n        /* \"#utility.yul\":1756:1791   */\n      swap1\n      pop\n        /* \"#utility.yul\":1701:1797   */\n      swap2\n      swap1\n      pop\n      jump\t// out\n        /* \"#utility.yul\":1803:1925   */\n    tag_310:\n        /* \"#utility.yul\":1876:1900   */\n      tag_355\n        /* \"#utility.yul\":1894:1899   */\n      dup2\n        /* \"#utility.yul\":1876:1900   */\n      tag_309\n      jump\t// in\n    tag_355:\n        /* \"#utility.yul\":1869:1874   */\n      dup2\n        /* \"#utility.yul\":1866:1901   */\n      eq\n        /* \"#utility.yul\":1856:1919   */\n      tag_356\n      jumpi\n        /* \"#utility.yul\":1915:1916   */\n      0x00\n        /* \"#utility.yul\":1912:1913   */\n      dup1\n        /* \"#utility.yul\":1905:1917   */\n      revert\n        /* \"#utility.yul\":1856:1919   */\n    tag_356:\n        /* \"#utility.yul\":1803:1925   */\n      pop\n      jump\t// out\n        /* \"#utility.yul\":1931:2070   */\n    tag_311:\n        /* \"#utility.yul\":1977:1982   */\n      0x00\n        /* \"#utility.yul\":2015:2021   */\n      dup2\n        /* \"#utility.yul\":2002:2022   */\n      calldataload\n        /* \"#utility.yul\":1993:2022   */\n      swap1\n      pop\n        /* \"#utility.yul\":2031:2064   */\n      tag_358\n        /* \"#utility.yul\":2058:2063   */\n      dup2\n        /* \"#utility.yul\":2031:2064   */\n      tag_310\n      jump\t// in\n    tag_358:\n        /* \"#utility.yul\":1931:2070   */\n      swap3\n      swap2\n      pop\n      pop\n      jump\t// out\n        /* \"#utility.yul\":2076:2153   */\n    tag_312:\n        /* \"#utility.yul\":2113:2120   */\n      0x00\n        /* \"#utility.yul\":2142:2147   */\n      dup2\n        /* \"#utility.yul\":2131:2147   */\n      swap1\n      pop\n        /* \"#utility.yul\":2076:2153   */\n      swap2\n      swap1\n      pop\n      jump\t// out\n        /* \"#utility.yul\":2159:2281   */\n    tag_313:\n        /* \"#utility.yul\":2232:2256   */\n      tag_361\n        /* \"#utility.yul\":2250:2255   */\n      dup2\n        /* \"#utility.yul\":2232:2256   */\n      tag_312\n      jump\t// in\n    tag_361:\n        /* \"#utility.yul\":2225:2230   */\n      dup2\n        /* \"#utility.yul\":2222:2257   */\n      eq\n        /* \"#utility.yul\":2212:2275   */\n      tag_362\n      jumpi\n        /* \"#utility.yul\":2271:2272   */\n      0x00\n        /* \"#utility.yul\":2268:2269   */\n      dup1\n        /* \"#utility.yul\":2261:2273   */\n      revert\n        /* \"#utility.yul\":2212:2275   */\n    tag_362:\n        /* \"#utility.yul\":2159:2281   */\n      pop\n      jump\t// out\n        /* \"#utility.yul\":2287:2426   */\n    tag_314:\n        /* \"#utility.yul\":2333:2338   */\n      0x00\n        /* \"#utility.yul\":2371:2377   */\n      dup2\n        /* \"#utility.yul\":2358:2378   */\n      calldataload\n        /* \"#utility.yul\":2349:2378   */\n      swap1\n      pop\n        /* \"#utility.yul\":2387:2420   */\n      tag_364\n        /* \"#utility.yul\":2414:2419   */\n      dup2\n        /* \"#utility.yul\":2387:2420   */\n      tag_313\n      jump\t// in\n    tag_364:\n        /* \"#utility.yul\":2287:2426   */\n      swap3\n      swap2\n      pop\n      pop\n      jump\t// out\n        /* \"#utility.yul\":2432:2906   */\n    tag_35:\n        /* \"#utility.yul\":2500:2506   */\n      0x00\n        /* \"#utility.yul\":2508:2514   */\n      dup1\n        /* \"#utility.yul\":2557:2559   */\n      0x40\n        /* \"#utility.yul\":2545:2554   */\n      dup4\n        /* \"#utility.yul\":2536:2543   */\n      dup6\n        /* \"#utility.yul\":2532:2555   */\n      sub\n        /* \"#utility.yul\":2528:2560   */\n      slt\n        /* \"#utility.yul\":2525:2644   */\n      iszero\n      tag_366\n      jumpi\n        /* \"#utility.yul\":2563:2642   */\n      tag_367\n      tag_306\n      jump\t// in\n    tag_367:\n        /* \"#utility.yul\":2525:2644   */\n    tag_366:\n        /* \"#utility.yul\":2683:2684   */\n      0x00\n        /* \"#utility.yul\":2708:2761   */\n      tag_368\n        /* \"#utility.yul\":2753:2760   */\n      dup6\n        /* \"#utility.yul\":2744:2750   */\n      dup3\n        /* \"#utility.yul\":2733:2742   */\n      dup7\n        /* \"#utility.yul\":2729:2751   */\n      add\n        /* \"#utility.yul\":2708:2761   */\n      tag_311\n      jump\t// in\n    tag_368:\n        /* \"#utility.yul\":2698:2761   */\n      swap3\n      pop\n        /* \"#utility.yul\":2654:2771   */\n      pop\n        /* \"#utility.yul\":2810:2812   */\n      0x20\n        /* \"#utility.yul\":2836:2889   */\n      tag_369\n        /* \"#utility.yul\":2881:2888   */\n      dup6\n        /* \"#utility.yul\":2872:2878   */\n      dup3\n        /* \"#utility.yul\":2861:2870   */\n      dup7\n        /* \"#utility.yul\":2857:2879   */\n      add\n        /* \"#utility.yul\":2836:2889   */\n      tag_314\n      jump\t// in\n    tag_369:\n        /* \"#utility.yul\":2826:2889   */\n      swap2\n      pop\n        /* \"#utility.yul\":2781:2899   */\n      pop\n        /* \"#utility.yul\":2432:2906   */\n      swap3\n      pop\n      swap3\n      swap1\n      pop\n      jump\t// out\n        /* \"#utility.yul\":2912:3002   */\n    tag_315:\n        /* \"#utility.yul\":2946:2953   */\n      0x00\n        /* \"#utility.yul\":2989:2994   */\n      dup2\n        /* \"#utility.yul\":2982:2995   */\n      iszero\n        /* \"#utility.yul\":2975:2996   */\n      iszero\n        /* \"#utility.yul\":2964:2996   */\n      swap1\n      pop\n        /* \"#utility.yul\":2912:3002   */\n      swap2\n      swap1\n      pop\n      jump\t// out\n        /* \"#utility.yul\":3008:3117   */\n    tag_316:\n        /* \"#utility.yul\":3089:3110   */\n      tag_372\n        /* \"#utility.yul\":3104:3109   */\n      dup2\n        /* \"#utility.yul\":3089:3110   */\n      tag_315\n      jump\t// in\n    tag_372:\n        /* \"#utility.yul\":3084:3087   */\n      dup3\n        /* \"#utility.yul\":3077:3111   */\n      mstore\n        /* \"#utility.yul\":3008:3117   */\n      pop\n      pop\n      jump\t// out\n        /* \"#utility.yul\":3123:3333   */\n    tag_38:\n        /* \"#utility.yul\":3210:3214   */\n      0x00\n        /* \"#utility.yul\":3248:3250   */\n      0x20\n        /* \"#utility.yul\":3237:3246   */\n      dup3\n        /* \"#utility.yul\":3233:3251   */\n      add\n        /* \"#utility.yul\":3225:3251   */\n      swap1\n      pop\n        /* \"#utility.yul\":3261:3326   */\n      tag_374\n        /* \"#utility.yul\":3323:3324   */\n      0x00\n        /* \"#utility.yul\":3312:3321   */\n      dup4\n        /* \"#utility.yul\":3308:3325   */\n      add\n        /* \"#utility.yul\":3299:3305   */\n      dup5\n        /* \"#utility.yul\":3261:3326   */\n      tag_316\n      jump\t// in\n    tag_374:\n        /* \"#utility.yul\":3123:3333   */\n      swap3\n      swap2\n      pop\n      pop\n      jump\t// out\n        /* \"#utility.yul\":3339:3457   */\n    tag_317:\n        /* \"#utility.yul\":3426:3450   */\n      tag_376\n        /* \"#utility.yul\":3444:3449   */\n      dup2\n        /* \"#utility.yul\":3426:3450   */\n      tag_312\n      jump\t// in\n    tag_376:\n        /* \"#utility.yul\":3421:3424   */\n      dup3\n        /* \"#utility.yul\":3414:3451   */\n      mstore\n        /* \"#utility.yul\":3339:3457   */\n      pop\n      pop\n      jump\t// out\n        /* \"#utility.yul\":3463:3685   */\n    tag_42:\n        /* \"#utility.yul\":3556:3560   */\n      0x00\n        /* \"#utility.yul\":3594:3596   */\n      0x20\n        /* \"#utility.yul\":3583:3592   */\n      dup3\n        /* \"#utility.yul\":3579:3597   */\n      add\n        /* \"#utility.yul\":3571:3597   */\n      swap1\n      pop\n        /* \"#utility.yul\":3607:3678   */\n      tag_378\n        /* \"#utility.yul\":3675:3676   */\n      0x00\n        /* \"#utility.yul\":3664:3673   */\n      dup4\n        /* \"#utility.yul\":3660:3677   */\n      add\n        /* \"#utility.yul\":3651:3657   */\n      dup5\n        /* \"#utility.yul\":3607:3678   */\n      tag_317\n      jump\t// in\n    tag_378:\n        /* \"#utility.yul\":3463:3685   */\n      swap3\n      swap2\n      pop\n      pop\n      jump\t// out\n        /* \"#utility.yul\":3691:4020   */\n    tag_47:\n        /* \"#utility.yul\":3750:3756   */\n      0x00\n        /* \"#utility.yul\":3799:3801   */\n      0x20\n        /* \"#utility.yul\":3787:3796   */\n      dup3\n        /* \"#utility.yul\":3778:3785   */\n      dup5\n        /* \"#utility.yul\":3774:3797   */\n      sub\n        /* \"#utility.yul\":3770:3802   */\n      slt\n        /* \"#utility.yul\":3767:3886   */\n      iszero\n      tag_380\n      jumpi\n        /* \"#utility.yul\":3805:3884   */\n      tag_381\n      tag_306\n      jump\t// in\n    tag_381:\n        /* \"#utility.yul\":3767:3886   */\n    tag_380:\n        /* \"#utility.yul\":3925:3926   */\n      0x00\n        /* \"#utility.yul\":3950:4003   */\n      tag_382\n        /* \"#utility.yul\":3995:4002   */\n      dup5\n        /* \"#utility.yul\":3986:3992   */\n      dup3\n        /* \"#utility.yul\":3975:3984   */\n      dup6\n        /* \"#utility.yul\":3971:3993   */\n      add\n        /* \"#utility.yul\":3950:4003   */\n      tag_314\n      jump\t// in\n    tag_382:\n        /* \"#utility.yul\":3940:4003   */\n      swap2\n      pop\n        /* \"#utility.yul\":3896:4013   */\n      pop\n        /* \"#utility.yul\":3691:4020   */\n      swap3\n      swap2\n      pop\n      pop\n      jump\t// out\n        /* \"#utility.yul\":4026:4645   */\n    tag_51:\n        /* \"#utility.yul\":4103:4109   */\n      0x00\n        /* \"#utility.yul\":4111:4117   */\n      dup1\n        /* \"#utility.yul\":4119:4125   */\n      0x00\n        /* \"#utility.yul\":4168:4170   */\n      0x60\n        /* \"#utility.yul\":4156:4165   */\n      dup5\n        /* \"#utility.yul\":4147:4154   */\n      dup7\n        /* \"#utility.yul\":4143:4166   */\n      sub\n        /* \"#utility.yul\":4139:4171   */\n      slt\n        /* \"#utility.yul\":4136:4255   */\n      iszero\n      tag_384\n      jumpi\n        /* \"#utility.yul\":4174:4253   */\n      tag_385\n      tag_306\n      jump\t// in\n    tag_385:\n        /* \"#utility.yul\":4136:4255   */\n    tag_384:\n        /* \"#utility.yul\":4294:4295   */\n      0x00\n        /* \"#utility.yul\":4319:4372   */\n      tag_386\n        /* \"#utility.yul\":4364:4371   */\n      dup7\n        /* \"#utility.yul\":4355:4361   */\n      dup3\n        /* \"#utility.yul\":4344:4353   */\n      dup8\n        /* \"#utility.yul\":4340:4362   */\n      add\n        /* \"#utility.yul\":4319:4372   */\n      tag_311\n      jump\t// in\n    tag_386:\n        /* \"#utility.yul\":4309:4372   */\n      swap4\n      pop\n        /* \"#utility.yul\":4265:4382   */\n      pop\n        /* \"#utility.yul\":4421:4423   */\n      0x20\n        /* \"#utility.yul\":4447:4500   */\n      tag_387\n        /* \"#utility.yul\":4492:4499   */\n      dup7\n        /* \"#utility.yul\":4483:4489   */\n      dup3\n        /* \"#utility.yul\":4472:4481   */\n      dup8\n        /* \"#utility.yul\":4468:4490   */\n      add\n        /* \"#utility.yul\":4447:4500   */\n      tag_311\n      jump\t// in\n    tag_387:\n        /* \"#utility.yul\":4437:4500   */\n      swap3\n      pop\n        /* \"#utility.yul\":4392:4510   */\n      pop\n        /* \"#utility.yul\":4549:4551   */\n      0x40\n        /* \"#utility.yul\":4575:4628   */\n      tag_388\n        /* \"#utility.yul\":4620:4627   */\n      dup7\n        /* \"#utility.yul\":4611:4617   */\n      dup3\n        /* \"#utility.yul\":4600:4609   */\n      dup8\n        /* \"#utility.yul\":4596:4618   */\n      add\n        /* \"#utility.yul\":4575:4628   */\n      tag_314\n      jump\t// in\n    tag_388:\n        /* \"#utility.yul\":4565:4628   */\n      swap2\n      pop\n        /* \"#utility.yul\":4520:4638   */\n      pop\n        /* \"#utility.yul\":4026:4645   */\n      swap3\n      pop\n      swap3\n      pop\n      swap3\n      jump\t// out\n        /* \"#utility.yul\":4651:4737   */\n    tag_318:\n        /* \"#utility.yul\":4686:4693   */\n      0x00\n        /* \"#utility.yul\":4726:4730   */\n      0xff\n        /* \"#utility.yul\":4719:4724   */\n      dup3\n        /* \"#utility.yul\":4715:4731   */\n      and\n        /* \"#utility.yul\":4704:4731   */\n      swap1\n      pop\n        /* \"#utility.yul\":4651:4737   */\n      swap2\n      swap1\n      pop\n      jump\t// out\n        /* \"#utility.yul\":4743:4855   */\n    tag_319:\n        /* \"#utility.yul\":4826:4848   */\n      tag_391\n        /* \"#utility.yul\":4842:4847   */\n      dup2\n        /* \"#utility.yul\":4826:4848   */\n      tag_318\n      jump\t// in\n    tag_391:\n        /* \"#utility.yul\":4821:4824   */\n      dup3\n        /* \"#utility.yul\":4814:4849   */\n      mstore\n        /* \"#utility.yul\":4743:4855   */\n      pop\n      pop\n      jump\t// out\n        /* \"#utility.yul\":4861:5075   */\n    tag_57:\n        /* \"#utility.yul\":4950:4954   */\n      0x00\n        /* \"#utility.yul\":4988:4990   */\n      0x20\n        /* \"#utility.yul\":4977:4986   */\n      dup3\n        /* \"#utility.yul\":4973:4991   */\n      add\n        /* \"#utility.yul\":4965:4991   */\n      swap1\n      pop\n        /* \"#utility.yul\":5001:5068   */\n      tag_393\n        /* \"#utility.yul\":5065:5066   */\n      0x00\n        /* \"#utility.yul\":5054:5063   */\n      dup4\n        /* \"#utility.yul\":5050:5067   */\n      add\n        /* \"#utility.yul\":5041:5047   */\n      dup5\n        /* \"#utility.yul\":5001:5068   */\n      tag_319\n      jump\t// in\n    tag_393:\n        /* \"#utility.yul\":4861:5075   */\n      swap3\n      swap2\n      pop\n      pop\n      jump\t// out\n        /* \"#utility.yul\":5081:5410   */\n    tag_69:\n        /* \"#utility.yul\":5140:5146   */\n      0x00\n        /* \"#utility.yul\":5189:5191   */\n      0x20\n        /* \"#utility.yul\":5177:5186   */\n      dup3\n        /* \"#utility.yul\":5168:5175   */\n      dup5\n        /* \"#utility.yul\":5164:5187   */\n      sub\n        /* \"#utility.yul\":5160:5192   */\n      slt\n        /* \"#utility.yul\":5157:5276   */\n      iszero\n      tag_395\n      jumpi\n        /* \"#utility.yul\":5195:5274   */\n      tag_396\n      tag_306\n      jump\t// in\n    tag_396:\n        /* \"#utility.yul\":5157:5276   */\n    tag_395:\n        /* \"#utility.yul\":5315:5316   */\n      0x00\n        /* \"#utility.yul\":5340:5393   */\n      tag_397\n        /* \"#utility.yul\":5385:5392   */\n      dup5\n        /* \"#utility.yul\":5376:5382   */\n      dup3\n        /* \"#utility.yul\":5365:5374   */\n      dup6\n        /* \"#utility.yul\":5361:5383   */\n      add\n        /* \"#utility.yul\":5340:5393   */\n      tag_311\n      jump\t// in\n    tag_397:\n        /* \"#utility.yul\":5330:5393   */\n      swap2\n      pop\n        /* \"#utility.yul\":5286:5403   */\n      pop\n        /* \"#utility.yul\":5081:5410   */\n      swap3\n      swap2\n      pop\n      pop\n      jump\t// out\n        /* \"#utility.yul\":5416:5534   */\n    tag_320:\n        /* \"#utility.yul\":5503:5527   */\n      tag_399\n        /* \"#utility.yul\":5521:5526   */\n      dup2\n        /* \"#utility.yul\":5503:5527   */\n      tag_309\n      jump\t// in\n    tag_399:\n        /* \"#utility.yul\":5498:5501   */\n      dup3\n        /* \"#utility.yul\":5491:5528   */\n      mstore\n        /* \"#utility.yul\":5416:5534   */\n      pop\n      pop\n      jump\t// out\n        /* \"#utility.yul\":5540:5762   */\n    tag_80:\n        /* \"#utility.yul\":5633:5637   */\n      0x00\n        /* \"#utility.yul\":5671:5673   */\n      0x20\n        /* \"#utility.yul\":5660:5669   */\n      dup3\n        /* \"#utility.yul\":5656:5674   */\n      add\n        /* \"#utility.yul\":5648:5674   */\n      swap1\n      pop\n        /* \"#utility.yul\":5684:5755   */\n      tag_401\n        /* \"#utility.yul\":5752:5753   */\n      0x00\n        /* \"#utility.yul\":5741:5750   */\n      dup4\n        /* \"#utility.yul\":5737:5754   */\n      add\n        /* \"#utility.yul\":5728:5734   */\n      dup5\n        /* \"#utility.yul\":5684:5755   */\n      tag_320\n      jump\t// in\n    tag_401:\n        /* \"#utility.yul\":5540:5762   */\n      swap3\n      swap2\n      pop\n      pop\n      jump\t// out\n        /* \"#utility.yul\":5768:6242   */\n    tag_105:\n        /* \"#utility.yul\":5836:5842   */\n      0x00\n        /* \"#utility.yul\":5844:5850   */\n      dup1\n        /* \"#utility.yul\":5893:5895   */\n      0x40\n        /* \"#utility.yul\":5881:5890   */\n      dup4\n        /* \"#utility.yul\":5872:5879   */\n      dup6\n        /* \"#utility.yul\":5868:5891   */\n      sub\n        /* \"#utility.yul\":5864:5896   */\n      slt\n        /* \"#utility.yul\":5861:5980   */\n      iszero\n      tag_403\n      jumpi\n        /* \"#utility.yul\":5899:5978   */\n      tag_404\n      tag_306\n      jump\t// in\n    tag_404:\n        /* \"#utility.yul\":5861:5980   */\n    tag_403:\n        /* \"#utility.yul\":6019:6020   */\n      0x00\n        /* \"#utility.yul\":6044:6097   */\n      tag_405\n        /* \"#utility.yul\":6089:6096   */\n      dup6\n        /* \"#utility.yul\":6080:6086   */\n      dup3\n        /* \"#utility.yul\":6069:6078   */\n      dup7\n        /* \"#utility.yul\":6065:6087   */\n      add\n        /* \"#utility.yul\":6044:6097   */\n      tag_311\n      jump\t// in\n    tag_405:\n        /* \"#utility.yul\":6034:6097   */\n      swap3\n      pop\n        /* \"#utility.yul\":5990:6107   */\n      pop\n        /* \"#utility.yul\":6146:6148   */\n      0x20\n        /* \"#utility.yul\":6172:6225   */\n      tag_406\n        /* \"#utility.yul\":6217:6224   */\n      dup6\n        /* \"#utility.yul\":6208:6214   */\n      dup3\n        /* \"#utility.yul\":6197:6206   */\n      dup7\n        /* \"#utility.yul\":6193:6215   */\n      add\n        /* \"#utility.yul\":6172:6225   */\n      tag_311\n      jump\t// in\n    tag_406:\n        /* \"#utility.yul\":6162:6225   */\n      swap2\n      pop\n        /* \"#utility.yul\":6117:6235   */\n      pop\n        /* \"#utility.yul\":5768:6242   */\n      swap3\n      pop\n      swap3\n      swap1\n      pop\n      jump\t// out\n        /* \"#utility.yul\":6248:6428   */\n    tag_321:\n        /* \"#utility.yul\":6296:6373   */\n      0x4e487b7100000000000000000000000000000000000000000000000000000000\n        /* \"#utility.yul\":6293:6294   */\n      0x00\n        /* \"#utility.yul\":6286:6374   */\n      mstore\n        /* \"#utility.yul\":6393:6397   */\n      0x22\n        /* \"#utility.yul\":6390:6391   */\n      0x04\n        /* \"#utility.yul\":6383:6398   */\n      mstore\n        /* \"#utility.yul\":6417:6421   */\n      0x24\n        /* \"#utility.yul\":6414:6415   */\n      0x00\n        /* \"#utility.yul\":6407:6422   */\n      revert\n        /* \"#utility.yul\":6434:6754   */\n    tag_113:\n        /* \"#utility.yul\":6478:6484   */\n      0x00\n        /* \"#utility.yul\":6515:6516   */\n      0x02\n        /* \"#utility.yul\":6509:6513   */\n      dup3\n        /* \"#utility.yul\":6505:6517   */\n      div\n        /* \"#utility.yul\":6495:6517   */\n      swap1\n      pop\n        /* \"#utility.yul\":6562:6563   */\n      0x01\n        /* \"#utility.yul\":6556:6560   */\n      dup3\n        /* \"#utility.yul\":6552:6564   */\n      and\n        /* \"#utility.yul\":6583:6601   */\n      dup1\n        /* \"#utility.yul\":6573:6654   */\n      tag_409\n      jumpi\n        /* \"#utility.yul\":6639:6643   */\n      0x7f\n        /* \"#utility.yul\":6631:6637   */\n      dup3\n        /* \"#utility.yul\":6627:6644   */\n      and\n        /* \"#utility.yul\":6617:6644   */\n      swap2\n      pop\n        /* \"#utility.yul\":6573:6654   */\n    tag_409:\n        /* \"#utility.yul\":6701:6703   */\n      0x20\n        /* \"#utility.yul\":6693:6699   */\n      dup3\n        /* \"#utility.yul\":6690:6704   */\n      lt\n        /* \"#utility.yul\":6670:6688   */\n      dup2\n        /* \"#utility.yul\":6667:6705   */\n      sub\n        /* \"#utility.yul\":6664:6748   */\n      tag_410\n      jumpi\n        /* \"#utility.yul\":6720:6738   */\n      tag_411\n      tag_321\n      jump\t// in\n    tag_411:\n        /* \"#utility.yul\":6664:6748   */\n    tag_410:\n        /* \"#utility.yul\":6485:6754   */\n      pop\n        /* \"#utility.yul\":6434:6754   */\n      swap2\n      swap1\n      pop\n      jump\t// out\n        /* \"#utility.yul\":6760:6930   */\n    tag_322:\n        /* \"#utility.yul\":6900:6922   */\n      0x496e73756666696369656e742062616c616e6365000000000000000000000000\n        /* \"#utility.yul\":6896:6897   */\n      0x00\n        /* \"#utility.yul\":6888:6894   */\n      dup3\n        /* \"#utility.yul\":6884:6898   */\n      add\n        /* \"#utility.yul\":6877:6923   */\n      mstore\n        /* \"#utility.yul\":6760:6930   */\n      pop\n      jump\t// out\n        /* \"#utility.yul\":6936:7302   */\n    tag_323:\n        /* \"#utility.yul\":7078:7081   */\n      0x00\n        /* \"#utility.yul\":7099:7166   */\n      tag_414\n        /* \"#utility.yul\":7163:7165   */\n      0x14\n        /* \"#utility.yul\":7158:7161   */\n      dup4\n        /* \"#utility.yul\":7099:7166   */\n      tag_301\n      jump\t// in\n    tag_414:\n        /* \"#utility.yul\":7092:7166   */\n      swap2\n      pop\n        /* \"#utility.yul\":7175:7268   */\n      tag_415\n        /* \"#utility.yul\":7264:7267   */\n      dup3\n        /* \"#utility.yul\":7175:7268   */\n      tag_322\n      jump\t// in\n    tag_415:\n        /* \"#utility.yul\":7293:7295   */\n      0x20\n        /* \"#utility.yul\":7288:7291   */\n      dup3\n        /* \"#utility.yul\":7284:7296   */\n      add\n        /* \"#utility.yul\":7277:7296   */\n      swap1\n      pop\n        /* \"#utility.yul\":6936:7302   */\n      swap2\n      swap1\n      pop\n      jump\t// out\n        /* \"#utility.yul\":7308:7727   */\n    tag_137:\n        /* \"#utility.yul\":7474:7478   */\n      0x00\n        /* \"#utility.yul\":7512:7514   */\n      0x20\n        /* \"#utility.yul\":7501:7510   */\n      dup3\n        /* \"#utility.yul\":7497:7515   */\n      add\n        /* \"#utility.yul\":7489:7515   */\n      swap1\n      pop\n        /* \"#utility.yul\":7561:7570   */\n      dup2\n        /* \"#utility.yul\":7555:7559   */\n      dup2\n        /* \"#utility.yul\":7551:7571   */\n      sub\n        /* \"#utility.yul\":7547:7548   */\n      0x00\n        /* \"#utility.yul\":7536:7545   */\n      dup4\n        /* \"#utility.yul\":7532:7549   */\n      add\n        /* \"#utility.yul\":7525:7572   */\n      mstore\n        /* \"#utility.yul\":7589:7720   */\n      tag_417\n        /* \"#utility.yul\":7715:7719   */\n      dup2\n        /* \"#utility.yul\":7589:7720   */\n      tag_323\n      jump\t// in\n    tag_417:\n        /* \"#utility.yul\":7581:7720   */\n      swap1\n      pop\n        /* \"#utility.yul\":7308:7727   */\n      swap2\n      swap1\n      pop\n      jump\t// out\n        /* \"#utility.yul\":7733:7913   */\n    tag_324:\n        /* \"#utility.yul\":7781:7858   */\n      0x4e487b7100000000000000000000000000000000000000000000000000000000\n        /* \"#utility.yul\":7778:7779   */\n      0x00\n        /* \"#utility.yul\":7771:7859   */\n      mstore\n        /* \"#utility.yul\":7878:7882   */\n      0x11\n        /* \"#utility.yul\":7875:7876   */\n      0x04\n        /* \"#utility.yul\":7868:7883   */\n      mstore\n        /* \"#utility.yul\":7902:7906   */\n      0x24\n        /* \"#utility.yul\":7899:7900   */\n      0x00\n        /* \"#utility.yul\":7892:7907   */\n      revert\n        /* \"#utility.yul\":7919:8113   */\n    tag_140:\n        /* \"#utility.yul\":7959:7963   */\n      0x00\n        /* \"#utility.yul\":7979:7999   */\n      tag_420\n        /* \"#utility.yul\":7997:7998   */\n      dup3\n        /* \"#utility.yul\":7979:7999   */\n      tag_312\n      jump\t// in\n    tag_420:\n        /* \"#utility.yul\":7974:7999   */\n      swap2\n      pop\n        /* \"#utility.yul\":8013:8033   */\n      tag_421\n        /* \"#utility.yul\":8031:8032   */\n      dup4\n        /* \"#utility.yul\":8013:8033   */\n      tag_312\n      jump\t// in\n    tag_421:\n        /* \"#utility.yul\":8008:8033   */\n      swap3\n      pop\n        /* \"#utility.yul\":8057:8058   */\n      dup3\n        /* \"#utility.yul\":8054:8055   */\n      dup3\n        /* \"#utility.yul\":8050:8059   */\n      sub\n        /* \"#utility.yul\":8042:8059   */\n      swap1\n      pop\n        /* \"#utility.yul\":8081:8082   */\n      dup2\n        /* \"#utility.yul\":8075:8079   */\n      dup2\n        /* \"#utility.yul\":8072:8083   */\n      gt\n        /* \"#utility.yul\":8069:8106   */\n      iszero\n      tag_422\n      jumpi\n        /* \"#utility.yul\":8086:8104   */\n      tag_423\n      tag_324\n      jump\t// in\n    tag_423:\n        /* \"#utility.yul\":8069:8106   */\n    tag_422:\n        /* \"#utility.yul\":7919:8113   */\n      swap3\n      swap2\n      pop\n      pop\n      jump\t// out\n        /* \"#utility.yul\":8119:8310   */\n    tag_162:\n        /* \"#utility.yul\":8159:8162   */\n      0x00\n        /* \"#utility.yul\":8178:8198   */\n      tag_425\n        /* \"#utility.yul\":8196:8197   */\n      dup3\n        /* \"#utility.yul\":8178:8198   */\n      tag_312\n      jump\t// in\n    tag_425:\n        /* \"#utility.yul\":8173:8198   */\n      swap2\n      pop\n        /* \"#utility.yul\":8212:8232   */\n      tag_426\n        /* \"#utility.yul\":8230:8231   */\n      dup4\n        /* \"#utility.yul\":8212:8232   */\n      tag_312\n      jump\t// in\n    tag_426:\n        /* \"#utility.yul\":8207:8232   */\n      swap3\n      pop\n        /* \"#utility.yul\":8255:8256   */\n      dup3\n        /* \"#utility.yul\":8252:8253   */\n      dup3\n        /* \"#utility.yul\":8248:8257   */\n      add\n        /* \"#utility.yul\":8241:8257   */\n      swap1\n      pop\n        /* \"#utility.yul\":8276:8279   */\n      dup1\n        /* \"#utility.yul\":8273:8274   */\n      dup3\n        /* \"#utility.yul\":8270:8280   */\n      gt\n        /* \"#utility.yul\":8267:8303   */\n      iszero\n      tag_427\n      jumpi\n        /* \"#utility.yul\":8283:8301   */\n      tag_428\n      tag_324\n      jump\t// in\n    tag_428:\n        /* \"#utility.yul\":8267:8303   */\n    tag_427:\n        /* \"#utility.yul\":8119:8310   */\n      swap3\n      swap2\n      pop\n      pop\n      jump\t// out\n        /* \"#utility.yul\":8316:8610   */\n    tag_325:\n        /* \"#utility.yul\":8456:8490   */\n      0x4c6971756964697479206d7573742062652070726f766964656420666f722061\n        /* \"#utility.yul\":8452:8453   */\n      0x00\n        /* \"#utility.yul\":8444:8450   */\n      dup3\n        /* \"#utility.yul\":8440:8454   */\n      add\n        /* \"#utility.yul\":8433:8491   */\n      mstore\n        /* \"#utility.yul\":8525:8559   */\n      0x74206c65617374203330206461797320746f207175616c69667920666f722072\n        /* \"#utility.yul\":8520:8522   */\n      0x20\n        /* \"#utility.yul\":8512:8518   */\n      dup3\n        /* \"#utility.yul\":8508:8523   */\n      add\n        /* \"#utility.yul\":8501:8560   */\n      mstore\n        /* \"#utility.yul\":8594:8602   */\n      0x6577617264730000000000000000000000000000000000000000000000000000\n        /* \"#utility.yul\":8589:8591   */\n      0x40\n        /* \"#utility.yul\":8581:8587   */\n      dup3\n        /* \"#utility.yul\":8577:8592   */\n      add\n        /* \"#utility.yul\":8570:8603   */\n      mstore\n        /* \"#utility.yul\":8316:8610   */\n      pop\n      jump\t// out\n        /* \"#utility.yul\":8616:8982   */\n    tag_326:\n        /* \"#utility.yul\":8758:8761   */\n      0x00\n        /* \"#utility.yul\":8779:8846   */\n      tag_431\n        /* \"#utility.yul\":8843:8845   */\n      0x46\n        /* \"#utility.yul\":8838:8841   */\n      dup4\n        /* \"#utility.yul\":8779:8846   */\n      tag_301\n      jump\t// in\n    tag_431:\n        /* \"#utility.yul\":8772:8846   */\n      swap2\n      pop\n        /* \"#utility.yul\":8855:8948   */\n      tag_432\n        /* \"#utility.yul\":8944:8947   */\n      dup3\n        /* \"#utility.yul\":8855:8948   */\n      tag_325\n      jump\t// in\n    tag_432:\n        /* \"#utility.yul\":8973:8975   */\n      0x60\n        /* \"#utility.yul\":8968:8971   */\n      dup3\n        /* \"#utility.yul\":8964:8976   */\n      add\n        /* \"#utility.yul\":8957:8976   */\n      swap1\n      pop\n        /* \"#utility.yul\":8616:8982   */\n      swap2\n      swap1\n      pop\n      jump\t// out\n        /* \"#utility.yul\":8988:9407   */\n    tag_202:\n        /* \"#utility.yul\":9154:9158   */\n      0x00\n        /* \"#utility.yul\":9192:9194   */\n      0x20\n        /* \"#utility.yul\":9181:9190   */\n      dup3\n        /* \"#utility.yul\":9177:9195   */\n      add\n        /* \"#utility.yul\":9169:9195   */\n      swap1\n      pop\n        /* \"#utility.yul\":9241:9250   */\n      dup2\n        /* \"#utility.yul\":9235:9239   */\n      dup2\n        /* \"#utility.yul\":9231:9251   */\n      sub\n        /* \"#utility.yul\":9227:9228   */\n      0x00\n        /* \"#utility.yul\":9216:9225   */\n      dup4\n        /* \"#utility.yul\":9212:9229   */\n      add\n        /* \"#utility.yul\":9205:9252   */\n      mstore\n        /* \"#utility.yul\":9269:9400   */\n      tag_434\n        /* \"#utility.yul\":9395:9399   */\n      dup2\n        /* \"#utility.yul\":9269:9400   */\n      tag_326\n      jump\t// in\n    tag_434:\n        /* \"#utility.yul\":9261:9400   */\n      swap1\n      pop\n        /* \"#utility.yul\":8988:9407   */\n      swap2\n      swap1\n      pop\n      jump\t// out\n        /* \"#utility.yul\":9413:9588   */\n    tag_327:\n        /* \"#utility.yul\":9553:9580   */\n      0x5265776172642065786365656473206d617820737570706c7900000000000000\n        /* \"#utility.yul\":9549:9550   */\n      0x00\n        /* \"#utility.yul\":9541:9547   */\n      dup3\n        /* \"#utility.yul\":9537:9551   */\n      add\n        /* \"#utility.yul\":9530:9581   */\n      mstore\n        /* \"#utility.yul\":9413:9588   */\n      pop\n      jump\t// out\n        /* \"#utility.yul\":9594:9960   */\n    tag_328:\n        /* \"#utility.yul\":9736:9739   */\n      0x00\n        /* \"#utility.yul\":9757:9824   */\n      tag_437\n        /* \"#utility.yul\":9821:9823   */\n      0x19\n        /* \"#utility.yul\":9816:9819   */\n      dup4\n        /* \"#utility.yul\":9757:9824   */\n      tag_301\n      jump\t// in\n    tag_437:\n        /* \"#utility.yul\":9750:9824   */\n      swap2\n      pop\n        /* \"#utility.yul\":9833:9926   */\n      tag_438\n        /* \"#utility.yul\":9922:9925   */\n      dup3\n        /* \"#utility.yul\":9833:9926   */\n      tag_327\n      jump\t// in\n    tag_438:\n        /* \"#utility.yul\":9951:9953   */\n      0x20\n        /* \"#utility.yul\":9946:9949   */\n      dup3\n        /* \"#utility.yul\":9942:9954   */\n      add\n        /* \"#utility.yul\":9935:9954   */\n      swap1\n      pop\n        /* \"#utility.yul\":9594:9960   */\n      swap2\n      swap1\n      pop\n      jump\t// out\n        /* \"#utility.yul\":9966:10385   */\n    tag_208:\n        /* \"#utility.yul\":10132:10136   */\n      0x00\n        /* \"#utility.yul\":10170:10172   */\n      0x20\n        /* \"#utility.yul\":10159:10168   */\n      dup3\n        /* \"#utility.yul\":10155:10173   */\n      add\n        /* \"#utility.yul\":10147:10173   */\n      swap1\n      pop\n        /* \"#utility.yul\":10219:10228   */\n      dup2\n        /* \"#utility.yul\":10213:10217   */\n      dup2\n        /* \"#utility.yul\":10209:10229   */\n      sub\n        /* \"#utility.yul\":10205:10206   */\n      0x00\n        /* \"#utility.yul\":10194:10203   */\n      dup4\n        /* \"#utility.yul\":10190:10207   */\n      add\n        /* \"#utility.yul\":10183:10230   */\n      mstore\n        /* \"#utility.yul\":10247:10378   */\n      tag_440\n        /* \"#utility.yul\":10373:10377   */\n      dup2\n        /* \"#utility.yul\":10247:10378   */\n      tag_328\n      jump\t// in\n    tag_440:\n        /* \"#utility.yul\":10239:10378   */\n      swap1\n      pop\n        /* \"#utility.yul\":9966:10385   */\n      swap2\n      swap1\n      pop\n      jump\t// out\n        /* \"#utility.yul\":10391:10801   */\n    tag_219:\n        /* \"#utility.yul\":10431:10438   */\n      0x00\n        /* \"#utility.yul\":10454:10474   */\n      tag_442\n        /* \"#utility.yul\":10472:10473   */\n      dup3\n        /* \"#utility.yul\":10454:10474   */\n      tag_312\n      jump\t// in\n    tag_442:\n        /* \"#utility.yul\":10449:10474   */\n      swap2\n      pop\n        /* \"#utility.yul\":10488:10508   */\n      tag_443\n        /* \"#utility.yul\":10506:10507   */\n      dup4\n        /* \"#utility.yul\":10488:10508   */\n      tag_312\n      jump\t// in\n    tag_443:\n        /* \"#utility.yul\":10483:10508   */\n      swap3\n      pop\n        /* \"#utility.yul\":10543:10544   */\n      dup3\n        /* \"#utility.yul\":10540:10541   */\n      dup3\n        /* \"#utility.yul\":10536:10545   */\n      mul\n        /* \"#utility.yul\":10565:10595   */\n      tag_444\n        /* \"#utility.yul\":10583:10594   */\n      dup2\n        /* \"#utility.yul\":10565:10595   */\n      tag_312\n      jump\t// in\n    tag_444:\n        /* \"#utility.yul\":10554:10595   */\n      swap2\n      pop\n        /* \"#utility.yul\":10744:10745   */\n      dup3\n        /* \"#utility.yul\":10735:10742   */\n      dup3\n        /* \"#utility.yul\":10731:10746   */\n      div\n        /* \"#utility.yul\":10728:10729   */\n      dup5\n        /* \"#utility.yul\":10725:10747   */\n      eq\n        /* \"#utility.yul\":10705:10706   */\n      dup4\n        /* \"#utility.yul\":10698:10707   */\n      iszero\n        /* \"#utility.yul\":10678:10761   */\n      or\n        /* \"#utility.yul\":10655:10794   */\n      tag_445\n      jumpi\n        /* \"#utility.yul\":10774:10792   */\n      tag_446\n      tag_324\n      jump\t// in\n    tag_446:\n        /* \"#utility.yul\":10655:10794   */\n    tag_445:\n        /* \"#utility.yul\":10439:10801   */\n      pop\n        /* \"#utility.yul\":10391:10801   */\n      swap3\n      swap2\n      pop\n      pop\n      jump\t// out\n        /* \"#utility.yul\":10807:10987   */\n    tag_329:\n        /* \"#utility.yul\":10855:10932   */\n      0x4e487b7100000000000000000000000000000000000000000000000000000000\n        /* \"#utility.yul\":10852:10853   */\n      0x00\n        /* \"#utility.yul\":10845:10933   */\n      mstore\n        /* \"#utility.yul\":10952:10956   */\n      0x12\n        /* \"#utility.yul\":10949:10950   */\n      0x04\n        /* \"#utility.yul\":10942:10957   */\n      mstore\n        /* \"#utility.yul\":10976:10980   */\n      0x24\n        /* \"#utility.yul\":10973:10974   */\n      0x00\n        /* \"#utility.yul\":10966:10981   */\n      revert\n        /* \"#utility.yul\":10993:11178   */\n    tag_221:\n        /* \"#utility.yul\":11033:11034   */\n      0x00\n        /* \"#utility.yul\":11050:11070   */\n      tag_449\n        /* \"#utility.yul\":11068:11069   */\n      dup3\n        /* \"#utility.yul\":11050:11070   */\n      tag_312\n      jump\t// in\n    tag_449:\n        /* \"#utility.yul\":11045:11070   */\n      swap2\n      pop\n        /* \"#utility.yul\":11084:11104   */\n      tag_450\n        /* \"#utility.yul\":11102:11103   */\n      dup4\n        /* \"#utility.yul\":11084:11104   */\n      tag_312\n      jump\t// in\n    tag_450:\n        /* \"#utility.yul\":11079:11104   */\n      swap3\n      pop\n        /* \"#utility.yul\":11123:11124   */\n      dup3\n        /* \"#utility.yul\":11113:11148   */\n      tag_451\n      jumpi\n        /* \"#utility.yul\":11128:11146   */\n      tag_452\n      tag_329\n      jump\t// in\n    tag_452:\n        /* \"#utility.yul\":11113:11148   */\n    tag_451:\n        /* \"#utility.yul\":11170:11171   */\n      dup3\n        /* \"#utility.yul\":11167:11168   */\n      dup3\n        /* \"#utility.yul\":11163:11172   */\n      div\n        /* \"#utility.yul\":11158:11172   */\n      swap1\n      pop\n        /* \"#utility.yul\":10993:11178   */\n      swap3\n      swap2\n      pop\n      pop\n      jump\t// out\n        /* \"#utility.yul\":11184:11365   */\n    tag_330:\n        /* \"#utility.yul\":11324:11357   */\n      0x5265656e7472616e637947756172643a207265656e7472616e742063616c6c00\n        /* \"#utility.yul\":11320:11321   */\n      0x00\n        /* \"#utility.yul\":11312:11318   */\n      dup3\n        /* \"#utility.yul\":11308:11322   */\n      add\n        /* \"#utility.yul\":11301:11358   */\n      mstore\n        /* \"#utility.yul\":11184:11365   */\n      pop\n      jump\t// out\n        /* \"#utility.yul\":11371:11737   */\n    tag_331:\n        /* \"#utility.yul\":11513:11516   */\n      0x00\n        /* \"#utility.yul\":11534:11601   */\n      tag_455\n        /* \"#utility.yul\":11598:11600   */\n      0x1f\n        /* \"#utility.yul\":11593:11596   */\n      dup4\n        /* \"#utility.yul\":11534:11601   */\n      tag_301\n      jump\t// in\n    tag_455:\n        /* \"#utility.yul\":11527:11601   */\n      swap2\n      pop\n        /* \"#utility.yul\":11610:11703   */\n      tag_456\n        /* \"#utility.yul\":11699:11702   */\n      dup3\n        /* \"#utility.yul\":11610:11703   */\n      tag_330\n      jump\t// in\n    tag_456:\n        /* \"#utility.yul\":11728:11730   */\n      0x20\n        /* \"#utility.yul\":11723:11726   */\n      dup3\n        /* \"#utility.yul\":11719:11731   */\n      add\n        /* \"#utility.yul\":11712:11731   */\n      swap1\n      pop\n        /* \"#utility.yul\":11371:11737   */\n      swap2\n      swap1\n      pop\n      jump\t// out\n        /* \"#utility.yul\":11743:12162   */\n    tag_245:\n        /* \"#utility.yul\":11909:11913   */\n      0x00\n        /* \"#utility.yul\":11947:11949   */\n      0x20\n        /* \"#utility.yul\":11936:11945   */\n      dup3\n        /* \"#utility.yul\":11932:11950   */\n      add\n        /* \"#utility.yul\":11924:11950   */\n      swap1\n      pop\n        /* \"#utility.yul\":11996:12005   */\n      dup2\n        /* \"#utility.yul\":11990:11994   */\n      dup2\n        /* \"#utility.yul\":11986:12006   */\n      sub\n        /* \"#utility.yul\":11982:11983   */\n      0x00\n        /* \"#utility.yul\":11971:11980   */\n      dup4\n        /* \"#utility.yul\":11967:11984   */\n      add\n        /* \"#utility.yul\":11960:12007   */\n      mstore\n        /* \"#utility.yul\":12024:12155   */\n      tag_458\n        /* \"#utility.yul\":12150:12154   */\n      dup2\n        /* \"#utility.yul\":12024:12155   */\n      tag_331\n      jump\t// in\n    tag_458:\n        /* \"#utility.yul\":12016:12155   */\n      swap1\n      pop\n        /* \"#utility.yul\":11743:12162   */\n      swap2\n      swap1\n      pop\n      jump\t// out\n        /* \"#utility.yul\":12168:12343   */\n    tag_332:\n        /* \"#utility.yul\":12308:12335   */\n      0x4369726375697420627265616b65722069732061637469766500000000000000\n        /* \"#utility.yul\":12304:12305   */\n      0x00\n        /* \"#utility.yul\":12296:12302   */\n      dup3\n        /* \"#utility.yul\":12292:12306   */\n      add\n        /* \"#utility.yul\":12285:12336   */\n      mstore\n        /* \"#utility.yul\":12168:12343   */\n      pop\n      jump\t// out\n        /* \"#utility.yul\":12349:12715   */\n    tag_333:\n        /* \"#utility.yul\":12491:12494   */\n      0x00\n        /* \"#utility.yul\":12512:12579   */\n      tag_461\n        /* \"#utility.yul\":12576:12578   */\n      0x19\n        /* \"#utility.yul\":12571:12574   */\n      dup4\n        /* \"#utility.yul\":12512:12579   */\n      tag_301\n      jump\t// in\n    tag_461:\n        /* \"#utility.yul\":12505:12579   */\n      swap2\n      pop\n        /* \"#utility.yul\":12588:12681   */\n      tag_462\n        /* \"#utility.yul\":12677:12680   */\n      dup3\n        /* \"#utility.yul\":12588:12681   */\n      tag_332\n      jump\t// in\n    tag_462:\n        /* \"#utility.yul\":12706:12708   */\n      0x20\n        /* \"#utility.yul\":12701:12704   */\n      dup3\n        /* \"#utility.yul\":12697:12709   */\n      add\n        /* \"#utility.yul\":12690:12709   */\n      swap1\n      pop\n        /* \"#utility.yul\":12349:12715   */\n      swap2\n      swap1\n      pop\n      jump\t// out\n        /* \"#utility.yul\":12721:13140   */\n    tag_249:\n        /* \"#utility.yul\":12887:12891   */\n      0x00\n        /* \"#utility.yul\":12925:12927   */\n      0x20\n        /* \"#utility.yul\":12914:12923   */\n      dup3\n        /* \"#utility.yul\":12910:12928   */\n      add\n        /* \"#utility.yul\":12902:12928   */\n      swap1\n      pop\n        /* \"#utility.yul\":12974:12983   */\n      dup2\n        /* \"#utility.yul\":12968:12972   */\n      dup2\n        /* \"#utility.yul\":12964:12984   */\n      sub\n        /* \"#utility.yul\":12960:12961   */\n      0x00\n        /* \"#utility.yul\":12949:12958   */\n      dup4\n        /* \"#utility.yul\":12945:12962   */\n      add\n        /* \"#utility.yul\":12938:12985   */\n      mstore\n        /* \"#utility.yul\":13002:13133   */\n      tag_464\n        /* \"#utility.yul\":13128:13132   */\n      dup2\n        /* \"#utility.yul\":13002:13133   */\n      tag_333\n      jump\t// in\n    tag_464:\n        /* \"#utility.yul\":12994:13133   */\n      swap1\n      pop\n        /* \"#utility.yul\":12721:13140   */\n      swap2\n      swap1\n      pop\n      jump\t// out\n        /* \"#utility.yul\":13146:13314   */\n    tag_334:\n        /* \"#utility.yul\":13286:13306   */\n      0x4275726e2076616c756520696e76616c69640000000000000000000000000000\n        /* \"#utility.yul\":13282:13283   */\n      0x00\n        /* \"#utility.yul\":13274:13280   */\n      dup3\n        /* \"#utility.yul\":13270:13284   */\n      add\n        /* \"#utility.yul\":13263:13307   */\n      mstore\n        /* \"#utility.yul\":13146:13314   */\n      pop\n      jump\t// out\n        /* \"#utility.yul\":13320:13686   */\n    tag_335:\n        /* \"#utility.yul\":13462:13465   */\n      0x00\n        /* \"#utility.yul\":13483:13550   */\n      tag_467\n        /* \"#utility.yul\":13547:13549   */\n      0x12\n        /* \"#utility.yul\":13542:13545   */\n      dup4\n        /* \"#utility.yul\":13483:13550   */\n      tag_301\n      jump\t// in\n    tag_467:\n        /* \"#utility.yul\":13476:13550   */\n      swap2\n      pop\n        /* \"#utility.yul\":13559:13652   */\n      tag_468\n        /* \"#utility.yul\":13648:13651   */\n      dup3\n        /* \"#utility.yul\":13559:13652   */\n      tag_334\n      jump\t// in\n    tag_468:\n        /* \"#utility.yul\":13677:13679   */\n      0x20\n        /* \"#utility.yul\":13672:13675   */\n      dup3\n        /* \"#utility.yul\":13668:13680   */\n      add\n        /* \"#utility.yul\":13661:13680   */\n      swap1\n      pop\n        /* \"#utility.yul\":13320:13686   */\n      swap2\n      swap1\n      pop\n      jump\t// out\n        /* \"#utility.yul\":13692:14111   */\n    tag_256:\n        /* \"#utility.yul\":13858:13862   */\n      0x00\n        /* \"#utility.yul\":13896:13898   */\n      0x20\n        /* \"#utility.yul\":13885:13894   */\n      dup3\n        /* \"#utility.yul\":13881:13899   */\n      add\n        /* \"#utility.yul\":13873:13899   */\n      swap1\n      pop\n        /* \"#utility.yul\":13945:13954   */\n      dup2\n        /* \"#utility.yul\":13939:13943   */\n      dup2\n        /* \"#utility.yul\":13935:13955   */\n      sub\n        /* \"#utility.yul\":13931:13932   */\n      0x00\n        /* \"#utility.yul\":13920:13929   */\n      dup4\n        /* \"#utility.yul\":13916:13933   */\n      add\n        /* \"#utility.yul\":13909:13956   */\n      mstore\n        /* \"#utility.yul\":13973:14104   */\n      tag_470\n        /* \"#utility.yul\":14099:14103   */\n      dup2\n        /* \"#utility.yul\":13973:14104   */\n      tag_335\n      jump\t// in\n    tag_470:\n        /* \"#utility.yul\":13965:14104   */\n      swap1\n      pop\n        /* \"#utility.yul\":13692:14111   */\n      swap2\n      swap1\n      pop\n      jump\t// out\n        /* \"#utility.yul\":14117:14559   */\n    tag_266:\n        /* \"#utility.yul\":14266:14270   */\n      0x00\n        /* \"#utility.yul\":14304:14306   */\n      0x60\n        /* \"#utility.yul\":14293:14302   */\n      dup3\n        /* \"#utility.yul\":14289:14307   */\n      add\n        /* \"#utility.yul\":14281:14307   */\n      swap1\n      pop\n        /* \"#utility.yul\":14317:14388   */\n      tag_472\n        /* \"#utility.yul\":14385:14386   */\n      0x00\n        /* \"#utility.yul\":14374:14383   */\n      dup4\n        /* \"#utility.yul\":14370:14387   */\n      add\n        /* \"#utility.yul\":14361:14367   */\n      dup7\n        /* \"#utility.yul\":14317:14388   */\n      tag_320\n      jump\t// in\n    tag_472:\n        /* \"#utility.yul\":14398:14470   */\n      tag_473\n        /* \"#utility.yul\":14466:14468   */\n      0x20\n        /* \"#utility.yul\":14455:14464   */\n      dup4\n        /* \"#utility.yul\":14451:14469   */\n      add\n        /* \"#utility.yul\":14442:14448   */\n      dup6\n        /* \"#utility.yul\":14398:14470   */\n      tag_317\n      jump\t// in\n    tag_473:\n        /* \"#utility.yul\":14480:14552   */\n      tag_474\n        /* \"#utility.yul\":14548:14550   */\n      0x40\n        /* \"#utility.yul\":14537:14546   */\n      dup4\n        /* \"#utility.yul\":14533:14551   */\n      add\n        /* \"#utility.yul\":14524:14530   */\n      dup5\n        /* \"#utility.yul\":14480:14552   */\n      tag_317\n      jump\t// in\n    tag_474:\n        /* \"#utility.yul\":14117:14559   */\n      swap5\n      swap4\n      pop\n      pop\n      pop\n      pop\n      jump\t// out\n\n    auxdata: 0xa26469706673582212209c63ad704e6f86fa39459134d6c5ea5abecb7923385f4e9acf1dcf228a3f91fe64736f6c634300081a0033\n}\n",
				"bytecode": {
					"linkReferences": {},
					"object": "60806040525f600b5f6101000a81548160ff021916908315150217905550348015610028575f80fd5b50604051612b37380380612b37833981810160405281019061004a91906106e7565b808686816003908161005c91906109ac565b50806004908161006c91906109ac565b5050505f73ffffffffffffffffffffffffffffffffffffffff168173ffffffffffffffffffffffffffffffffffffffff16036100df575f6040517f1e4fbdf70000000000000000000000000000000000000000000000000000000081526004016100d69190610a8a565b60405180910390fd5b6100ee8161017660201b60201c565b5060016006819055508284111561013a576040517f08c379a000000000000000000000000000000000000000000000000000000000815260040161013190610b23565b60405180910390fd5b61014a818561023960201b60201c565b826007819055508160085f6101000a81548160ff021916908360ff160217905550505050505050610bfe565b5f60055f9054906101000a900473ffffffffffffffffffffffffffffffffffffffff1690508160055f6101000a81548173ffffffffffffffffffffffffffffffffffffffff021916908373ffffffffffffffffffffffffffffffffffffffff1602179055508173ffffffffffffffffffffffffffffffffffffffff168173ffffffffffffffffffffffffffffffffffffffff167f8be0079c531659141344cd1fd0a4f28419497f9722a3daafe3b4186f6b6457e060405160405180910390a35050565b5f73ffffffffffffffffffffffffffffffffffffffff168273ffffffffffffffffffffffffffffffffffffffff16036102a9575f6040517fec442f050000000000000000000000000000000000000000000000000000000081526004016102a09190610a8a565b60405180910390fd5b6102ba5f83836102be60201b60201c565b5050565b5f73ffffffffffffffffffffffffffffffffffffffff168373ffffffffffffffffffffffffffffffffffffffff160361030e578060025f8282546103029190610b6e565b925050819055506103dc565b5f805f8573ffffffffffffffffffffffffffffffffffffffff1673ffffffffffffffffffffffffffffffffffffffff1681526020019081526020015f2054905081811015610397578381836040517fe450d38c00000000000000000000000000000000000000000000000000000000815260040161038e93929190610bb0565b60405180910390fd5b8181035f808673ffffffffffffffffffffffffffffffffffffffff1673ffffffffffffffffffffffffffffffffffffffff1681526020019081526020015f2081905550505b5f73ffffffffffffffffffffffffffffffffffffffff168273ffffffffffffffffffffffffffffffffffffffff1603610423578060025f828254039250508190555061046d565b805f808473ffffffffffffffffffffffffffffffffffffffff1673ffffffffffffffffffffffffffffffffffffffff1681526020019081526020015f205f82825401925050819055505b8173ffffffffffffffffffffffffffffffffffffffff168373ffffffffffffffffffffffffffffffffffffffff167fddf252ad1be2c89b69c2b068fc378daa952ba7f163c4a11628f55a4df523b3ef836040516104ca9190610be5565b60405180910390a3505050565b5f604051905090565b5f80fd5b5f80fd5b5f80fd5b5f80fd5b5f601f19601f8301169050919050565b7f4e487b71000000000000000000000000000000000000000000000000000000005f52604160045260245ffd5b610536826104f0565b810181811067ffffffffffffffff8211171561055557610554610500565b5b80604052505050565b5f6105676104d7565b9050610573828261052d565b919050565b5f67ffffffffffffffff82111561059257610591610500565b5b61059b826104f0565b9050602081019050919050565b8281835e5f83830152505050565b5f6105c86105c384610578565b61055e565b9050828152602081018484840111156105e4576105e36104ec565b5b6105ef8482856105a8565b509392505050565b5f82601f83011261060b5761060a6104e8565b5b815161061b8482602086016105b6565b91505092915050565b5f819050919050565b61063681610624565b8114610640575f80fd5b50565b5f815190506106518161062d565b92915050565b5f60ff82169050919050565b61066c81610657565b8114610676575f80fd5b50565b5f8151905061068781610663565b92915050565b5f73ffffffffffffffffffffffffffffffffffffffff82169050919050565b5f6106b68261068d565b9050919050565b6106c6816106ac565b81146106d0575f80fd5b50565b5f815190506106e1816106bd565b92915050565b5f805f805f8060c08789031215610701576107006104e0565b5b5f87015167ffffffffffffffff81111561071e5761071d6104e4565b5b61072a89828a016105f7565b965050602087015167ffffffffffffffff81111561074b5761074a6104e4565b5b61075789828a016105f7565b955050604061076889828a01610643565b945050606061077989828a01610643565b935050608061078a89828a01610679565b92505060a061079b89828a016106d3565b9150509295509295509295565b5f81519050919050565b7f4e487b71000000000000000000000000000000000000000000000000000000005f52602260045260245ffd5b5f60028204905060018216806107f657607f821691505b602082108103610809576108086107b2565b5b50919050565b5f819050815f5260205f209050919050565b5f6020601f8301049050919050565b5f82821b905092915050565b5f6008830261086b7fffffffffffffffffffffffffffffffffffffffffffffffffffffffffffffffff82610830565b6108758683610830565b95508019841693508086168417925050509392505050565b5f819050919050565b5f6108b06108ab6108a684610624565b61088d565b610624565b9050919050565b5f819050919050565b6108c983610896565b6108dd6108d5826108b7565b84845461083c565b825550505050565b5f90565b6108f16108e5565b6108fc8184846108c0565b505050565b5b8181101561091f576109145f826108e9565b600181019050610902565b5050565b601f821115610964576109358161080f565b61093e84610821565b8101602085101561094d578190505b61096161095985610821565b830182610901565b50505b505050565b5f82821c905092915050565b5f6109845f1984600802610969565b1980831691505092915050565b5f61099c8383610975565b9150826002028217905092915050565b6109b5826107a8565b67ffffffffffffffff8111156109ce576109cd610500565b5b6109d882546107df565b6109e3828285610923565b5f60209050601f831160018114610a14575f8415610a02578287015190505b610a0c8582610991565b865550610a73565b601f198416610a228661080f565b5f5b82811015610a4957848901518255600182019150602085019450602081019050610a24565b86831015610a665784890151610a62601f891682610975565b8355505b6001600288020188555050505b505050505050565b610a84816106ac565b82525050565b5f602082019050610a9d5f830184610a7b565b92915050565b5f82825260208201905092915050565b7f496e697469616c20737570706c792063616e6e6f74206265206d6f72652074685f8201527f616e206d617820737570706c792e000000000000000000000000000000000000602082015250565b5f610b0d602e83610aa3565b9150610b1882610ab3565b604082019050919050565b5f6020820190508181035f830152610b3a81610b01565b9050919050565b7f4e487b71000000000000000000000000000000000000000000000000000000005f52601160045260245ffd5b5f610b7882610624565b9150610b8383610624565b9250828201905080821115610b9b57610b9a610b41565b5b92915050565b610baa81610624565b82525050565b5f606082019050610bc35f830186610a7b565b610bd06020830185610ba1565b610bdd6040830184610ba1565b949350505050565b5f602082019050610bf85f830184610ba1565b92915050565b611f2c80610c0b5f395ff3fe608060405234801561000f575f80fd5b506004361061014b575f3560e01c8063715018a6116100c1578063afe8289a1161007a578063afe8289a14610351578063c80521071461036d578063d5abeb0114610389578063d82e3962146103a7578063dd62ed3e146103d7578063f2fde38b146104075761014b565b8063715018a6146102b557806379cc6790146102bf5780638da5cb5b146102db57806395d89b41146102f9578063a64254c314610317578063a9059cbb146103215761014b565b806323b872dd1161011357806323b872dd146101e1578063313ce5671461021157806342966c681461022f57806351c6590a1461024b578063527569861461026757806370a08231146102855761014b565b806306fdde031461014f578063095ea7b31461016d57806318160ddd1461019d57806321208fa2146101bb5780632254b79c146101c5575b5f80fd5b610157610423565b60405161016491906117ed565b60405180910390f35b6101876004803603810190610182919061189e565b6104b3565b60405161019491906118f6565b60405180910390f35b6101a56104d5565b6040516101b2919061191e565b60405180910390f35b6101c36104de565b005b6101df60048036038101906101da9190611937565b610501565b005b6101fb60048036038101906101f69190611962565b6106a4565b60405161020891906118f6565b60405180910390f35b6102196106d2565b60405161022691906119cd565b60405180910390f35b61024960048036038101906102449190611937565b6106e7565b005b61026560048036038101906102609190611937565b6106fb565b005b61026f61079e565b60405161027c91906119cd565b60405180910390f35b61029f600480360381019061029a91906119e6565b6107b0565b6040516102ac919061191e565b60405180910390f35b6102bd6107f5565b005b6102d960048036038101906102d4919061189e565b610808565b005b6102e3610828565b6040516102f09190611a20565b60405180910390f35b610301610850565b60405161030e91906117ed565b60405180910390f35b61031f6108e0565b005b61033b6004803603810190610336919061189e565b610904565b60405161034891906118f6565b60405180910390f35b61036b60048036038101906103669190611937565b610926565b005b61038760048036038101906103829190611937565b6109de565b005b610391610c99565b60405161039e919061191e565b60405180910390f35b6103c160048036038101906103bc91906119e6565b610c9f565b6040516103ce919061191e565b60405180910390f35b6103f160048036038101906103ec9190611a39565b610d7a565b6040516103fe919061191e565b60405180910390f35b610421600480360381019061041c91906119e6565b610dfc565b005b60606003805461043290611aa4565b80601f016020809104026020016040519081016040528092919081815260200182805461045e90611aa4565b80156104a95780601f10610480576101008083540402835291602001916104a9565b820191905f5260205f20905b81548152906001019060200180831161048c57829003601f168201915b5050505050905090565b5f806104bd610e80565b90506104ca818585610e87565b600191505092915050565b5f600254905090565b6104e6610e99565b5f600b5f6101000a81548160ff021916908315150217905550565b610509610e99565b610511610f20565b60095f61051c610828565b73ffffffffffffffffffffffffffffffffffffffff1673ffffffffffffffffffffffffffffffffffffffff1681526020019081526020015f2054811115610598576040517f08c379a000000000000000000000000000000000000000000000000000000000815260040161058f90611b1e565b60405180910390fd5b8060095f6105a4610828565b73ffffffffffffffffffffffffffffffffffffffff1673ffffffffffffffffffffffffffffffffffffffff1681526020019081526020015f205f8282546105eb9190611b69565b925050819055505f60095f6105fe610828565b73ffffffffffffffffffffffffffffffffffffffff1673ffffffffffffffffffffffffffffffffffffffff1681526020019081526020015f205403610687575f600a5f610649610828565b73ffffffffffffffffffffffffffffffffffffffff1673ffffffffffffffffffffffffffffffffffffffff1681526020019081526020015f20819055505b61069930610693610828565b83610f6f565b6106a1611048565b50565b5f806106ae610e80565b90506106bb858285611052565b6106c6858585610f6f565b60019150509392505050565b5f60085f9054906101000a900460ff16905090565b6106f86106f2610e80565b826110e4565b50565b610706333083610f6f565b8060095f3373ffffffffffffffffffffffffffffffffffffffff1673ffffffffffffffffffffffffffffffffffffffff1681526020019081526020015f205f8282546107529190611b9c565b9250508190555042600a5f3373ffffffffffffffffffffffffffffffffffffffff1673ffffffffffffffffffffffffffffffffffffffff1681526020019081526020015f208190555050565b60085f9054906101000a900460ff1681565b5f805f8373ffffffffffffffffffffffffffffffffffffffff1673ffffffffffffffffffffffffffffffffffffffff1681526020019081526020015f20549050919050565b6107fd610e99565b6108065f611163565b565b61081a82610814610e80565b83611052565b61082482826110e4565b5050565b5f60055f9054906101000a900473ffffffffffffffffffffffffffffffffffffffff16905090565b60606004805461085f90611aa4565b80601f016020809104026020016040519081016040528092919081815260200182805461088b90611aa4565b80156108d65780601f106108ad576101008083540402835291602001916108d6565b820191905f5260205f20905b8154815290600101906020018083116108b957829003601f168201915b5050505050905090565b6108e8610e99565b6001600b5f6101000a81548160ff021916908315150217905550565b5f8061090e610e80565b905061091b818585610f6f565b600191505092915050565b61092e610e99565b8060095f61093a610828565b73ffffffffffffffffffffffffffffffffffffffff1673ffffffffffffffffffffffffffffffffffffffff1681526020019081526020015f205f8282546109819190611b9c565b9250508190555042600a5f610994610828565b73ffffffffffffffffffffffffffffffffffffffff1673ffffffffffffffffffffffffffffffffffffffff1681526020019081526020015f20819055506109db3082611226565b50565b6109e6610f20565b60095f3373ffffffffffffffffffffffffffffffffffffffff1673ffffffffffffffffffffffffffffffffffffffff1681526020019081526020015f2054811115610a66576040517f08c379a0000000000000000000000000000000000000000000000000000000008152600401610a5d90611b1e565b60405180910390fd5b62278d00600a5f3373ffffffffffffffffffffffffffffffffffffffff1673ffffffffffffffffffffffffffffffffffffffff1681526020019081526020015f2054610ab29190611b9c565b421015610af4576040517f08c379a0000000000000000000000000000000000000000000000000000000008152600401610aeb90611c65565b60405180910390fd5b5f610afe33610c9f565b905060075481610b0c6104d5565b610b169190611b9c565b1115610b57576040517f08c379a0000000000000000000000000000000000000000000000000000000008152600401610b4e90611ccd565b60405180910390fd5b610b613382611226565b610b6c303384610f6f565b8160095f3373ffffffffffffffffffffffffffffffffffffffff1673ffffffffffffffffffffffffffffffffffffffff1681526020019081526020015f205f828254610bb89190611b69565b925050819055505f60095f3373ffffffffffffffffffffffffffffffffffffffff1673ffffffffffffffffffffffffffffffffffffffff1681526020019081526020015f205403610c4a575f600a5f3373ffffffffffffffffffffffffffffffffffffffff1673ffffffffffffffffffffffffffffffffffffffff1681526020019081526020015f2081905550610c8d565b42600a5f3373ffffffffffffffffffffffffffffffffffffffff1673ffffffffffffffffffffffffffffffffffffffff1681526020019081526020015f20819055505b50610c96611048565b50565b60075481565b5f62278d00600a5f8473ffffffffffffffffffffffffffffffffffffffff1673ffffffffffffffffffffffffffffffffffffffff1681526020019081526020015f2054610cec9190611b9c565b4210610d71575f6064600560095f8673ffffffffffffffffffffffffffffffffffffffff1673ffffffffffffffffffffffffffffffffffffffff1681526020019081526020015f2054610d3f9190611ceb565b610d499190611d59565b905060075481610d576104d5565b610d619190611b9c565b11610d6f5780915050610d75565b505b5f90505b919050565b5f60015f8473ffffffffffffffffffffffffffffffffffffffff1673ffffffffffffffffffffffffffffffffffffffff1681526020019081526020015f205f8373ffffffffffffffffffffffffffffffffffffffff1673ffffffffffffffffffffffffffffffffffffffff1681526020019081526020015f2054905092915050565b610e04610e99565b5f73ffffffffffffffffffffffffffffffffffffffff168173ffffffffffffffffffffffffffffffffffffffff1603610e74575f6040517f1e4fbdf7000000000000000000000000000000000000000000000000000000008152600401610e6b9190611a20565b60405180910390fd5b610e7d81611163565b50565b5f33905090565b610e9483838360016112a5565b505050565b610ea1610e80565b73ffffffffffffffffffffffffffffffffffffffff16610ebf610828565b73ffffffffffffffffffffffffffffffffffffffff1614610f1e57610ee2610e80565b6040517f118cdaa7000000000000000000000000000000000000000000000000000000008152600401610f159190611a20565b60405180910390fd5b565b600260065403610f65576040517f08c379a0000000000000000000000000000000000000000000000000000000008152600401610f5c90611dd3565b60405180910390fd5b6002600681905550565b600b5f9054906101000a900460ff1615610fbe576040517f08c379a0000000000000000000000000000000000000000000000000000000008152600401610fb590611e3b565b60405180910390fd5b5f620186a082610fce9190611d59565b90505f8183610fdd9190611b69565b90508181610feb9190611b9c565b831461102c576040517f08c379a000000000000000000000000000000000000000000000000000000000815260040161102390611ea3565b60405180910390fd5b611037858583611474565b61104185836110e4565b5050505050565b6001600681905550565b5f61105d8484610d7a565b90507fffffffffffffffffffffffffffffffffffffffffffffffffffffffffffffffff81146110de57818110156110cf578281836040517ffb8f41b20000000000000000000000000000000000000000000000000000000081526004016110c693929190611ec1565b60405180910390fd5b6110dd84848484035f6112a5565b5b50505050565b5f73ffffffffffffffffffffffffffffffffffffffff168273ffffffffffffffffffffffffffffffffffffffff1603611154575f6040517f96c6fd1e00000000000000000000000000000000000000000000000000000000815260040161114b9190611a20565b60405180910390fd5b61115f825f83611564565b5050565b5f60055f9054906101000a900473ffffffffffffffffffffffffffffffffffffffff1690508160055f6101000a81548173ffffffffffffffffffffffffffffffffffffffff021916908373ffffffffffffffffffffffffffffffffffffffff1602179055508173ffffffffffffffffffffffffffffffffffffffff168173ffffffffffffffffffffffffffffffffffffffff167f8be0079c531659141344cd1fd0a4f28419497f9722a3daafe3b4186f6b6457e060405160405180910390a35050565b5f73ffffffffffffffffffffffffffffffffffffffff168273ffffffffffffffffffffffffffffffffffffffff1603611296575f6040517fec442f0500000000000000000000000000000000000000000000000000000000815260040161128d9190611a20565b60405180910390fd5b6112a15f8383611564565b5050565b5f73ffffffffffffffffffffffffffffffffffffffff168473ffffffffffffffffffffffffffffffffffffffff1603611315575f6040517fe602df0500000000000000000000000000000000000000000000000000000000815260040161130c9190611a20565b60405180910390fd5b5f73ffffffffffffffffffffffffffffffffffffffff168373ffffffffffffffffffffffffffffffffffffffff1603611385575f6040517f94280d6200000000000000000000000000000000000000000000000000000000815260040161137c9190611a20565b60405180910390fd5b8160015f8673ffffffffffffffffffffffffffffffffffffffff1673ffffffffffffffffffffffffffffffffffffffff1681526020019081526020015f205f8573ffffffffffffffffffffffffffffffffffffffff1673ffffffffffffffffffffffffffffffffffffffff1681526020019081526020015f2081905550801561146e578273ffffffffffffffffffffffffffffffffffffffff168473ffffffffffffffffffffffffffffffffffffffff167f8c5be1e5ebec7d5bd14f71427d1e84f3dd0314c0f7b2291e5b200ac8c7c3b92584604051611465919061191e565b60405180910390a35b50505050565b5f73ffffffffffffffffffffffffffffffffffffffff168373ffffffffffffffffffffffffffffffffffffffff16036114e4575f6040517f96c6fd1e0000000000000000000000000000000000000000000000000000000081526004016114db9190611a20565b60405180910390fd5b5f73ffffffffffffffffffffffffffffffffffffffff168273ffffffffffffffffffffffffffffffffffffffff1603611554575f6040517fec442f0500000000000000000000000000000000000000000000000000000000815260040161154b9190611a20565b60405180910390fd5b61155f838383611564565b505050565b5f73ffffffffffffffffffffffffffffffffffffffff168373ffffffffffffffffffffffffffffffffffffffff16036115b4578060025f8282546115a89190611b9c565b92505081905550611682565b5f805f8573ffffffffffffffffffffffffffffffffffffffff1673ffffffffffffffffffffffffffffffffffffffff1681526020019081526020015f205490508181101561163d578381836040517fe450d38c00000000000000000000000000000000000000000000000000000000815260040161163493929190611ec1565b60405180910390fd5b8181035f808673ffffffffffffffffffffffffffffffffffffffff1673ffffffffffffffffffffffffffffffffffffffff1681526020019081526020015f2081905550505b5f73ffffffffffffffffffffffffffffffffffffffff168273ffffffffffffffffffffffffffffffffffffffff16036116c9578060025f8282540392505081905550611713565b805f808473ffffffffffffffffffffffffffffffffffffffff1673ffffffffffffffffffffffffffffffffffffffff1681526020019081526020015f205f82825401925050819055505b8173ffffffffffffffffffffffffffffffffffffffff168373ffffffffffffffffffffffffffffffffffffffff167fddf252ad1be2c89b69c2b068fc378daa952ba7f163c4a11628f55a4df523b3ef83604051611770919061191e565b60405180910390a3505050565b5f81519050919050565b5f82825260208201905092915050565b8281835e5f83830152505050565b5f601f19601f8301169050919050565b5f6117bf8261177d565b6117c98185611787565b93506117d9818560208601611797565b6117e2816117a5565b840191505092915050565b5f6020820190508181035f83015261180581846117b5565b905092915050565b5f80fd5b5f73ffffffffffffffffffffffffffffffffffffffff82169050919050565b5f61183a82611811565b9050919050565b61184a81611830565b8114611854575f80fd5b50565b5f8135905061186581611841565b92915050565b5f819050919050565b61187d8161186b565b8114611887575f80fd5b50565b5f8135905061189881611874565b92915050565b5f80604083850312156118b4576118b361180d565b5b5f6118c185828601611857565b92505060206118d28582860161188a565b9150509250929050565b5f8115159050919050565b6118f0816118dc565b82525050565b5f6020820190506119095f8301846118e7565b92915050565b6119188161186b565b82525050565b5f6020820190506119315f83018461190f565b92915050565b5f6020828403121561194c5761194b61180d565b5b5f6119598482850161188a565b91505092915050565b5f805f606084860312156119795761197861180d565b5b5f61198686828701611857565b935050602061199786828701611857565b92505060406119a88682870161188a565b9150509250925092565b5f60ff82169050919050565b6119c7816119b2565b82525050565b5f6020820190506119e05f8301846119be565b92915050565b5f602082840312156119fb576119fa61180d565b5b5f611a0884828501611857565b91505092915050565b611a1a81611830565b82525050565b5f602082019050611a335f830184611a11565b92915050565b5f8060408385031215611a4f57611a4e61180d565b5b5f611a5c85828601611857565b9250506020611a6d85828601611857565b9150509250929050565b7f4e487b71000000000000000000000000000000000000000000000000000000005f52602260045260245ffd5b5f6002820490506001821680611abb57607f821691505b602082108103611ace57611acd611a77565b5b50919050565b7f496e73756666696369656e742062616c616e63650000000000000000000000005f82015250565b5f611b08601483611787565b9150611b1382611ad4565b602082019050919050565b5f6020820190508181035f830152611b3581611afc565b9050919050565b7f4e487b71000000000000000000000000000000000000000000000000000000005f52601160045260245ffd5b5f611b738261186b565b9150611b7e8361186b565b9250828203905081811115611b9657611b95611b3c565b5b92915050565b5f611ba68261186b565b9150611bb18361186b565b9250828201905080821115611bc957611bc8611b3c565b5b92915050565b7f4c6971756964697479206d7573742062652070726f766964656420666f7220615f8201527f74206c65617374203330206461797320746f207175616c69667920666f72207260208201527f6577617264730000000000000000000000000000000000000000000000000000604082015250565b5f611c4f604683611787565b9150611c5a82611bcf565b606082019050919050565b5f6020820190508181035f830152611c7c81611c43565b9050919050565b7f5265776172642065786365656473206d617820737570706c79000000000000005f82015250565b5f611cb7601983611787565b9150611cc282611c83565b602082019050919050565b5f6020820190508181035f830152611ce481611cab565b9050919050565b5f611cf58261186b565b9150611d008361186b565b9250828202611d0e8161186b565b91508282048414831517611d2557611d24611b3c565b5b5092915050565b7f4e487b71000000000000000000000000000000000000000000000000000000005f52601260045260245ffd5b5f611d638261186b565b9150611d6e8361186b565b925082611d7e57611d7d611d2c565b5b828204905092915050565b7f5265656e7472616e637947756172643a207265656e7472616e742063616c6c005f82015250565b5f611dbd601f83611787565b9150611dc882611d89565b602082019050919050565b5f6020820190508181035f830152611dea81611db1565b9050919050565b7f4369726375697420627265616b657220697320616374697665000000000000005f82015250565b5f611e25601983611787565b9150611e3082611df1565b602082019050919050565b5f6020820190508181035f830152611e5281611e19565b9050919050565b7f4275726e2076616c756520696e76616c696400000000000000000000000000005f82015250565b5f611e8d601283611787565b9150611e9882611e59565b602082019050919050565b5f6020820190508181035f830152611eba81611e81565b9050919050565b5f606082019050611ed45f830186611a11565b611ee1602083018561190f565b611eee604083018461190f565b94935050505056fea26469706673582212209c63ad704e6f86fa39459134d6c5ea5abecb7923385f4e9acf1dcf228a3f91fe64736f6c634300081a0033",
					"opcodes": "PUSH1 0x80 PUSH1 0x40 MSTORE PUSH0 PUSH1 0xB PUSH0 PUSH2 0x100 EXP DUP2 SLOAD DUP2 PUSH1 0xFF MUL NOT AND SWAP1 DUP4 ISZERO ISZERO MUL OR SWAP1 SSTORE POP CALLVALUE DUP1 ISZERO PUSH2 0x28 JUMPI PUSH0 DUP1 REVERT JUMPDEST POP PUSH1 0x40 MLOAD PUSH2 0x2B37 CODESIZE SUB DUP1 PUSH2 0x2B37 DUP4 CODECOPY DUP2 DUP2 ADD PUSH1 0x40 MSTORE DUP2 ADD SWAP1 PUSH2 0x4A SWAP2 SWAP1 PUSH2 0x6E7 JUMP JUMPDEST DUP1 DUP7 DUP7 DUP2 PUSH1 0x3 SWAP1 DUP2 PUSH2 0x5C SWAP2 SWAP1 PUSH2 0x9AC JUMP JUMPDEST POP DUP1 PUSH1 0x4 SWAP1 DUP2 PUSH2 0x6C SWAP2 SWAP1 PUSH2 0x9AC JUMP JUMPDEST POP POP POP PUSH0 PUSH20 0xFFFFFFFFFFFFFFFFFFFFFFFFFFFFFFFFFFFFFFFF AND DUP2 PUSH20 0xFFFFFFFFFFFFFFFFFFFFFFFFFFFFFFFFFFFFFFFF AND SUB PUSH2 0xDF JUMPI PUSH0 PUSH1 0x40 MLOAD PUSH32 0x1E4FBDF700000000000000000000000000000000000000000000000000000000 DUP2 MSTORE PUSH1 0x4 ADD PUSH2 0xD6 SWAP2 SWAP1 PUSH2 0xA8A JUMP JUMPDEST PUSH1 0x40 MLOAD DUP1 SWAP2 SUB SWAP1 REVERT JUMPDEST PUSH2 0xEE DUP2 PUSH2 0x176 PUSH1 0x20 SHL PUSH1 0x20 SHR JUMP JUMPDEST POP PUSH1 0x1 PUSH1 0x6 DUP2 SWAP1 SSTORE POP DUP3 DUP5 GT ISZERO PUSH2 0x13A JUMPI PUSH1 0x40 MLOAD PUSH32 0x8C379A000000000000000000000000000000000000000000000000000000000 DUP2 MSTORE PUSH1 0x4 ADD PUSH2 0x131 SWAP1 PUSH2 0xB23 JUMP JUMPDEST PUSH1 0x40 MLOAD DUP1 SWAP2 SUB SWAP1 REVERT JUMPDEST PUSH2 0x14A DUP2 DUP6 PUSH2 0x239 PUSH1 0x20 SHL PUSH1 0x20 SHR JUMP JUMPDEST DUP3 PUSH1 0x7 DUP2 SWAP1 SSTORE POP DUP2 PUSH1 0x8 PUSH0 PUSH2 0x100 EXP DUP2 SLOAD DUP2 PUSH1 0xFF MUL NOT AND SWAP1 DUP4 PUSH1 0xFF AND MUL OR SWAP1 SSTORE POP POP POP POP POP POP POP PUSH2 0xBFE JUMP JUMPDEST PUSH0 PUSH1 0x5 PUSH0 SWAP1 SLOAD SWAP1 PUSH2 0x100 EXP SWAP1 DIV PUSH20 0xFFFFFFFFFFFFFFFFFFFFFFFFFFFFFFFFFFFFFFFF AND SWAP1 POP DUP2 PUSH1 0x5 PUSH0 PUSH2 0x100 EXP DUP2 SLOAD DUP2 PUSH20 0xFFFFFFFFFFFFFFFFFFFFFFFFFFFFFFFFFFFFFFFF MUL NOT AND SWAP1 DUP4 PUSH20 0xFFFFFFFFFFFFFFFFFFFFFFFFFFFFFFFFFFFFFFFF AND MUL OR SWAP1 SSTORE POP DUP2 PUSH20 0xFFFFFFFFFFFFFFFFFFFFFFFFFFFFFFFFFFFFFFFF AND DUP2 PUSH20 0xFFFFFFFFFFFFFFFFFFFFFFFFFFFFFFFFFFFFFFFF AND PUSH32 0x8BE0079C531659141344CD1FD0A4F28419497F9722A3DAAFE3B4186F6B6457E0 PUSH1 0x40 MLOAD PUSH1 0x40 MLOAD DUP1 SWAP2 SUB SWAP1 LOG3 POP POP JUMP JUMPDEST PUSH0 PUSH20 0xFFFFFFFFFFFFFFFFFFFFFFFFFFFFFFFFFFFFFFFF AND DUP3 PUSH20 0xFFFFFFFFFFFFFFFFFFFFFFFFFFFFFFFFFFFFFFFF AND SUB PUSH2 0x2A9 JUMPI PUSH0 PUSH1 0x40 MLOAD PUSH32 0xEC442F0500000000000000000000000000000000000000000000000000000000 DUP2 MSTORE PUSH1 0x4 ADD PUSH2 0x2A0 SWAP2 SWAP1 PUSH2 0xA8A JUMP JUMPDEST PUSH1 0x40 MLOAD DUP1 SWAP2 SUB SWAP1 REVERT JUMPDEST PUSH2 0x2BA PUSH0 DUP4 DUP4 PUSH2 0x2BE PUSH1 0x20 SHL PUSH1 0x20 SHR JUMP JUMPDEST POP POP JUMP JUMPDEST PUSH0 PUSH20 0xFFFFFFFFFFFFFFFFFFFFFFFFFFFFFFFFFFFFFFFF AND DUP4 PUSH20 0xFFFFFFFFFFFFFFFFFFFFFFFFFFFFFFFFFFFFFFFF AND SUB PUSH2 0x30E JUMPI DUP1 PUSH1 0x2 PUSH0 DUP3 DUP3 SLOAD PUSH2 0x302 SWAP2 SWAP1 PUSH2 0xB6E JUMP JUMPDEST SWAP3 POP POP DUP2 SWAP1 SSTORE POP PUSH2 0x3DC JUMP JUMPDEST PUSH0 DUP1 PUSH0 DUP6 PUSH20 0xFFFFFFFFFFFFFFFFFFFFFFFFFFFFFFFFFFFFFFFF AND PUSH20 0xFFFFFFFFFFFFFFFFFFFFFFFFFFFFFFFFFFFFFFFF AND DUP2 MSTORE PUSH1 0x20 ADD SWAP1 DUP2 MSTORE PUSH1 0x20 ADD PUSH0 KECCAK256 SLOAD SWAP1 POP DUP2 DUP2 LT ISZERO PUSH2 0x397 JUMPI DUP4 DUP2 DUP4 PUSH1 0x40 MLOAD PUSH32 0xE450D38C00000000000000000000000000000000000000000000000000000000 DUP2 MSTORE PUSH1 0x4 ADD PUSH2 0x38E SWAP4 SWAP3 SWAP2 SWAP1 PUSH2 0xBB0 JUMP JUMPDEST PUSH1 0x40 MLOAD DUP1 SWAP2 SUB SWAP1 REVERT JUMPDEST DUP2 DUP2 SUB PUSH0 DUP1 DUP7 PUSH20 0xFFFFFFFFFFFFFFFFFFFFFFFFFFFFFFFFFFFFFFFF AND PUSH20 0xFFFFFFFFFFFFFFFFFFFFFFFFFFFFFFFFFFFFFFFF AND DUP2 MSTORE PUSH1 0x20 ADD SWAP1 DUP2 MSTORE PUSH1 0x20 ADD PUSH0 KECCAK256 DUP2 SWAP1 SSTORE POP POP JUMPDEST PUSH0 PUSH20 0xFFFFFFFFFFFFFFFFFFFFFFFFFFFFFFFFFFFFFFFF AND DUP3 PUSH20 0xFFFFFFFFFFFFFFFFFFFFFFFFFFFFFFFFFFFFFFFF AND SUB PUSH2 0x423 JUMPI DUP1 PUSH1 0x2 PUSH0 DUP3 DUP3 SLOAD SUB SWAP3 POP POP DUP2 SWAP1 SSTORE POP PUSH2 0x46D JUMP JUMPDEST DUP1 PUSH0 DUP1 DUP5 PUSH20 0xFFFFFFFFFFFFFFFFFFFFFFFFFFFFFFFFFFFFFFFF AND PUSH20 0xFFFFFFFFFFFFFFFFFFFFFFFFFFFFFFFFFFFFFFFF AND DUP2 MSTORE PUSH1 0x20 ADD SWAP1 DUP2 MSTORE PUSH1 0x20 ADD PUSH0 KECCAK256 PUSH0 DUP3 DUP3 SLOAD ADD SWAP3 POP POP DUP2 SWAP1 SSTORE POP JUMPDEST DUP2 PUSH20 0xFFFFFFFFFFFFFFFFFFFFFFFFFFFFFFFFFFFFFFFF AND DUP4 PUSH20 0xFFFFFFFFFFFFFFFFFFFFFFFFFFFFFFFFFFFFFFFF AND PUSH32 0xDDF252AD1BE2C89B69C2B068FC378DAA952BA7F163C4A11628F55A4DF523B3EF DUP4 PUSH1 0x40 MLOAD PUSH2 0x4CA SWAP2 SWAP1 PUSH2 0xBE5 JUMP JUMPDEST PUSH1 0x40 MLOAD DUP1 SWAP2 SUB SWAP1 LOG3 POP POP POP JUMP JUMPDEST PUSH0 PUSH1 0x40 MLOAD SWAP1 POP SWAP1 JUMP JUMPDEST PUSH0 DUP1 REVERT JUMPDEST PUSH0 DUP1 REVERT JUMPDEST PUSH0 DUP1 REVERT JUMPDEST PUSH0 DUP1 REVERT JUMPDEST PUSH0 PUSH1 0x1F NOT PUSH1 0x1F DUP4 ADD AND SWAP1 POP SWAP2 SWAP1 POP JUMP JUMPDEST PUSH32 0x4E487B7100000000000000000000000000000000000000000000000000000000 PUSH0 MSTORE PUSH1 0x41 PUSH1 0x4 MSTORE PUSH1 0x24 PUSH0 REVERT JUMPDEST PUSH2 0x536 DUP3 PUSH2 0x4F0 JUMP JUMPDEST DUP2 ADD DUP2 DUP2 LT PUSH8 0xFFFFFFFFFFFFFFFF DUP3 GT OR ISZERO PUSH2 0x555 JUMPI PUSH2 0x554 PUSH2 0x500 JUMP JUMPDEST JUMPDEST DUP1 PUSH1 0x40 MSTORE POP POP POP JUMP JUMPDEST PUSH0 PUSH2 0x567 PUSH2 0x4D7 JUMP JUMPDEST SWAP1 POP PUSH2 0x573 DUP3 DUP3 PUSH2 0x52D JUMP JUMPDEST SWAP2 SWAP1 POP JUMP JUMPDEST PUSH0 PUSH8 0xFFFFFFFFFFFFFFFF DUP3 GT ISZERO PUSH2 0x592 JUMPI PUSH2 0x591 PUSH2 0x500 JUMP JUMPDEST JUMPDEST PUSH2 0x59B DUP3 PUSH2 0x4F0 JUMP JUMPDEST SWAP1 POP PUSH1 0x20 DUP2 ADD SWAP1 POP SWAP2 SWAP1 POP JUMP JUMPDEST DUP3 DUP2 DUP4 MCOPY PUSH0 DUP4 DUP4 ADD MSTORE POP POP POP JUMP JUMPDEST PUSH0 PUSH2 0x5C8 PUSH2 0x5C3 DUP5 PUSH2 0x578 JUMP JUMPDEST PUSH2 0x55E JUMP JUMPDEST SWAP1 POP DUP3 DUP2 MSTORE PUSH1 0x20 DUP2 ADD DUP5 DUP5 DUP5 ADD GT ISZERO PUSH2 0x5E4 JUMPI PUSH2 0x5E3 PUSH2 0x4EC JUMP JUMPDEST JUMPDEST PUSH2 0x5EF DUP5 DUP3 DUP6 PUSH2 0x5A8 JUMP JUMPDEST POP SWAP4 SWAP3 POP POP POP JUMP JUMPDEST PUSH0 DUP3 PUSH1 0x1F DUP4 ADD SLT PUSH2 0x60B JUMPI PUSH2 0x60A PUSH2 0x4E8 JUMP JUMPDEST JUMPDEST DUP2 MLOAD PUSH2 0x61B DUP5 DUP3 PUSH1 0x20 DUP7 ADD PUSH2 0x5B6 JUMP JUMPDEST SWAP2 POP POP SWAP3 SWAP2 POP POP JUMP JUMPDEST PUSH0 DUP2 SWAP1 POP SWAP2 SWAP1 POP JUMP JUMPDEST PUSH2 0x636 DUP2 PUSH2 0x624 JUMP JUMPDEST DUP2 EQ PUSH2 0x640 JUMPI PUSH0 DUP1 REVERT JUMPDEST POP JUMP JUMPDEST PUSH0 DUP2 MLOAD SWAP1 POP PUSH2 0x651 DUP2 PUSH2 0x62D JUMP JUMPDEST SWAP3 SWAP2 POP POP JUMP JUMPDEST PUSH0 PUSH1 0xFF DUP3 AND SWAP1 POP SWAP2 SWAP1 POP JUMP JUMPDEST PUSH2 0x66C DUP2 PUSH2 0x657 JUMP JUMPDEST DUP2 EQ PUSH2 0x676 JUMPI PUSH0 DUP1 REVERT JUMPDEST POP JUMP JUMPDEST PUSH0 DUP2 MLOAD SWAP1 POP PUSH2 0x687 DUP2 PUSH2 0x663 JUMP JUMPDEST SWAP3 SWAP2 POP POP JUMP JUMPDEST PUSH0 PUSH20 0xFFFFFFFFFFFFFFFFFFFFFFFFFFFFFFFFFFFFFFFF DUP3 AND SWAP1 POP SWAP2 SWAP1 POP JUMP JUMPDEST PUSH0 PUSH2 0x6B6 DUP3 PUSH2 0x68D JUMP JUMPDEST SWAP1 POP SWAP2 SWAP1 POP JUMP JUMPDEST PUSH2 0x6C6 DUP2 PUSH2 0x6AC JUMP JUMPDEST DUP2 EQ PUSH2 0x6D0 JUMPI PUSH0 DUP1 REVERT JUMPDEST POP JUMP JUMPDEST PUSH0 DUP2 MLOAD SWAP1 POP PUSH2 0x6E1 DUP2 PUSH2 0x6BD JUMP JUMPDEST SWAP3 SWAP2 POP POP JUMP JUMPDEST PUSH0 DUP1 PUSH0 DUP1 PUSH0 DUP1 PUSH1 0xC0 DUP8 DUP10 SUB SLT ISZERO PUSH2 0x701 JUMPI PUSH2 0x700 PUSH2 0x4E0 JUMP JUMPDEST JUMPDEST PUSH0 DUP8 ADD MLOAD PUSH8 0xFFFFFFFFFFFFFFFF DUP2 GT ISZERO PUSH2 0x71E JUMPI PUSH2 0x71D PUSH2 0x4E4 JUMP JUMPDEST JUMPDEST PUSH2 0x72A DUP10 DUP3 DUP11 ADD PUSH2 0x5F7 JUMP JUMPDEST SWAP7 POP POP PUSH1 0x20 DUP8 ADD MLOAD PUSH8 0xFFFFFFFFFFFFFFFF DUP2 GT ISZERO PUSH2 0x74B JUMPI PUSH2 0x74A PUSH2 0x4E4 JUMP JUMPDEST JUMPDEST PUSH2 0x757 DUP10 DUP3 DUP11 ADD PUSH2 0x5F7 JUMP JUMPDEST SWAP6 POP POP PUSH1 0x40 PUSH2 0x768 DUP10 DUP3 DUP11 ADD PUSH2 0x643 JUMP JUMPDEST SWAP5 POP POP PUSH1 0x60 PUSH2 0x779 DUP10 DUP3 DUP11 ADD PUSH2 0x643 JUMP JUMPDEST SWAP4 POP POP PUSH1 0x80 PUSH2 0x78A DUP10 DUP3 DUP11 ADD PUSH2 0x679 JUMP JUMPDEST SWAP3 POP POP PUSH1 0xA0 PUSH2 0x79B DUP10 DUP3 DUP11 ADD PUSH2 0x6D3 JUMP JUMPDEST SWAP2 POP POP SWAP3 SWAP6 POP SWAP3 SWAP6 POP SWAP3 SWAP6 JUMP JUMPDEST PUSH0 DUP2 MLOAD SWAP1 POP SWAP2 SWAP1 POP JUMP JUMPDEST PUSH32 0x4E487B7100000000000000000000000000000000000000000000000000000000 PUSH0 MSTORE PUSH1 0x22 PUSH1 0x4 MSTORE PUSH1 0x24 PUSH0 REVERT JUMPDEST PUSH0 PUSH1 0x2 DUP3 DIV SWAP1 POP PUSH1 0x1 DUP3 AND DUP1 PUSH2 0x7F6 JUMPI PUSH1 0x7F DUP3 AND SWAP2 POP JUMPDEST PUSH1 0x20 DUP3 LT DUP2 SUB PUSH2 0x809 JUMPI PUSH2 0x808 PUSH2 0x7B2 JUMP JUMPDEST JUMPDEST POP SWAP2 SWAP1 POP JUMP JUMPDEST PUSH0 DUP2 SWAP1 POP DUP2 PUSH0 MSTORE PUSH1 0x20 PUSH0 KECCAK256 SWAP1 POP SWAP2 SWAP1 POP JUMP JUMPDEST PUSH0 PUSH1 0x20 PUSH1 0x1F DUP4 ADD DIV SWAP1 POP SWAP2 SWAP1 POP JUMP JUMPDEST PUSH0 DUP3 DUP3 SHL SWAP1 POP SWAP3 SWAP2 POP POP JUMP JUMPDEST PUSH0 PUSH1 0x8 DUP4 MUL PUSH2 0x86B PUSH32 0xFFFFFFFFFFFFFFFFFFFFFFFFFFFFFFFFFFFFFFFFFFFFFFFFFFFFFFFFFFFFFFFF DUP3 PUSH2 0x830 JUMP JUMPDEST PUSH2 0x875 DUP7 DUP4 PUSH2 0x830 JUMP JUMPDEST SWAP6 POP DUP1 NOT DUP5 AND SWAP4 POP DUP1 DUP7 AND DUP5 OR SWAP3 POP POP POP SWAP4 SWAP3 POP POP POP JUMP JUMPDEST PUSH0 DUP2 SWAP1 POP SWAP2 SWAP1 POP JUMP JUMPDEST PUSH0 PUSH2 0x8B0 PUSH2 0x8AB PUSH2 0x8A6 DUP5 PUSH2 0x624 JUMP JUMPDEST PUSH2 0x88D JUMP JUMPDEST PUSH2 0x624 JUMP JUMPDEST SWAP1 POP SWAP2 SWAP1 POP JUMP JUMPDEST PUSH0 DUP2 SWAP1 POP SWAP2 SWAP1 POP JUMP JUMPDEST PUSH2 0x8C9 DUP4 PUSH2 0x896 JUMP JUMPDEST PUSH2 0x8DD PUSH2 0x8D5 DUP3 PUSH2 0x8B7 JUMP JUMPDEST DUP5 DUP5 SLOAD PUSH2 0x83C JUMP JUMPDEST DUP3 SSTORE POP POP POP POP JUMP JUMPDEST PUSH0 SWAP1 JUMP JUMPDEST PUSH2 0x8F1 PUSH2 0x8E5 JUMP JUMPDEST PUSH2 0x8FC DUP2 DUP5 DUP5 PUSH2 0x8C0 JUMP JUMPDEST POP POP POP JUMP JUMPDEST JUMPDEST DUP2 DUP2 LT ISZERO PUSH2 0x91F JUMPI PUSH2 0x914 PUSH0 DUP3 PUSH2 0x8E9 JUMP JUMPDEST PUSH1 0x1 DUP2 ADD SWAP1 POP PUSH2 0x902 JUMP JUMPDEST POP POP JUMP JUMPDEST PUSH1 0x1F DUP3 GT ISZERO PUSH2 0x964 JUMPI PUSH2 0x935 DUP2 PUSH2 0x80F JUMP JUMPDEST PUSH2 0x93E DUP5 PUSH2 0x821 JUMP JUMPDEST DUP2 ADD PUSH1 0x20 DUP6 LT ISZERO PUSH2 0x94D JUMPI DUP2 SWAP1 POP JUMPDEST PUSH2 0x961 PUSH2 0x959 DUP6 PUSH2 0x821 JUMP JUMPDEST DUP4 ADD DUP3 PUSH2 0x901 JUMP JUMPDEST POP POP JUMPDEST POP POP POP JUMP JUMPDEST PUSH0 DUP3 DUP3 SHR SWAP1 POP SWAP3 SWAP2 POP POP JUMP JUMPDEST PUSH0 PUSH2 0x984 PUSH0 NOT DUP5 PUSH1 0x8 MUL PUSH2 0x969 JUMP JUMPDEST NOT DUP1 DUP4 AND SWAP2 POP POP SWAP3 SWAP2 POP POP JUMP JUMPDEST PUSH0 PUSH2 0x99C DUP4 DUP4 PUSH2 0x975 JUMP JUMPDEST SWAP2 POP DUP3 PUSH1 0x2 MUL DUP3 OR SWAP1 POP SWAP3 SWAP2 POP POP JUMP JUMPDEST PUSH2 0x9B5 DUP3 PUSH2 0x7A8 JUMP JUMPDEST PUSH8 0xFFFFFFFFFFFFFFFF DUP2 GT ISZERO PUSH2 0x9CE JUMPI PUSH2 0x9CD PUSH2 0x500 JUMP JUMPDEST JUMPDEST PUSH2 0x9D8 DUP3 SLOAD PUSH2 0x7DF JUMP JUMPDEST PUSH2 0x9E3 DUP3 DUP3 DUP6 PUSH2 0x923 JUMP JUMPDEST PUSH0 PUSH1 0x20 SWAP1 POP PUSH1 0x1F DUP4 GT PUSH1 0x1 DUP2 EQ PUSH2 0xA14 JUMPI PUSH0 DUP5 ISZERO PUSH2 0xA02 JUMPI DUP3 DUP8 ADD MLOAD SWAP1 POP JUMPDEST PUSH2 0xA0C DUP6 DUP3 PUSH2 0x991 JUMP JUMPDEST DUP7 SSTORE POP PUSH2 0xA73 JUMP JUMPDEST PUSH1 0x1F NOT DUP5 AND PUSH2 0xA22 DUP7 PUSH2 0x80F JUMP JUMPDEST PUSH0 JUMPDEST DUP3 DUP2 LT ISZERO PUSH2 0xA49 JUMPI DUP5 DUP10 ADD MLOAD DUP3 SSTORE PUSH1 0x1 DUP3 ADD SWAP2 POP PUSH1 0x20 DUP6 ADD SWAP5 POP PUSH1 0x20 DUP2 ADD SWAP1 POP PUSH2 0xA24 JUMP JUMPDEST DUP7 DUP4 LT ISZERO PUSH2 0xA66 JUMPI DUP5 DUP10 ADD MLOAD PUSH2 0xA62 PUSH1 0x1F DUP10 AND DUP3 PUSH2 0x975 JUMP JUMPDEST DUP4 SSTORE POP JUMPDEST PUSH1 0x1 PUSH1 0x2 DUP9 MUL ADD DUP9 SSTORE POP POP POP JUMPDEST POP POP POP POP POP POP JUMP JUMPDEST PUSH2 0xA84 DUP2 PUSH2 0x6AC JUMP JUMPDEST DUP3 MSTORE POP POP JUMP JUMPDEST PUSH0 PUSH1 0x20 DUP3 ADD SWAP1 POP PUSH2 0xA9D PUSH0 DUP4 ADD DUP5 PUSH2 0xA7B JUMP JUMPDEST SWAP3 SWAP2 POP POP JUMP JUMPDEST PUSH0 DUP3 DUP3 MSTORE PUSH1 0x20 DUP3 ADD SWAP1 POP SWAP3 SWAP2 POP POP JUMP JUMPDEST PUSH32 0x496E697469616C20737570706C792063616E6E6F74206265206D6F7265207468 PUSH0 DUP3 ADD MSTORE PUSH32 0x616E206D617820737570706C792E000000000000000000000000000000000000 PUSH1 0x20 DUP3 ADD MSTORE POP JUMP JUMPDEST PUSH0 PUSH2 0xB0D PUSH1 0x2E DUP4 PUSH2 0xAA3 JUMP JUMPDEST SWAP2 POP PUSH2 0xB18 DUP3 PUSH2 0xAB3 JUMP JUMPDEST PUSH1 0x40 DUP3 ADD SWAP1 POP SWAP2 SWAP1 POP JUMP JUMPDEST PUSH0 PUSH1 0x20 DUP3 ADD SWAP1 POP DUP2 DUP2 SUB PUSH0 DUP4 ADD MSTORE PUSH2 0xB3A DUP2 PUSH2 0xB01 JUMP JUMPDEST SWAP1 POP SWAP2 SWAP1 POP JUMP JUMPDEST PUSH32 0x4E487B7100000000000000000000000000000000000000000000000000000000 PUSH0 MSTORE PUSH1 0x11 PUSH1 0x4 MSTORE PUSH1 0x24 PUSH0 REVERT JUMPDEST PUSH0 PUSH2 0xB78 DUP3 PUSH2 0x624 JUMP JUMPDEST SWAP2 POP PUSH2 0xB83 DUP4 PUSH2 0x624 JUMP JUMPDEST SWAP3 POP DUP3 DUP3 ADD SWAP1 POP DUP1 DUP3 GT ISZERO PUSH2 0xB9B JUMPI PUSH2 0xB9A PUSH2 0xB41 JUMP JUMPDEST JUMPDEST SWAP3 SWAP2 POP POP JUMP JUMPDEST PUSH2 0xBAA DUP2 PUSH2 0x624 JUMP JUMPDEST DUP3 MSTORE POP POP JUMP JUMPDEST PUSH0 PUSH1 0x60 DUP3 ADD SWAP1 POP PUSH2 0xBC3 PUSH0 DUP4 ADD DUP7 PUSH2 0xA7B JUMP JUMPDEST PUSH2 0xBD0 PUSH1 0x20 DUP4 ADD DUP6 PUSH2 0xBA1 JUMP JUMPDEST PUSH2 0xBDD PUSH1 0x40 DUP4 ADD DUP5 PUSH2 0xBA1 JUMP JUMPDEST SWAP5 SWAP4 POP POP POP POP JUMP JUMPDEST PUSH0 PUSH1 0x20 DUP3 ADD SWAP1 POP PUSH2 0xBF8 PUSH0 DUP4 ADD DUP5 PUSH2 0xBA1 JUMP JUMPDEST SWAP3 SWAP2 POP POP JUMP JUMPDEST PUSH2 0x1F2C DUP1 PUSH2 0xC0B PUSH0 CODECOPY PUSH0 RETURN INVALID PUSH1 0x80 PUSH1 0x40 MSTORE CALLVALUE DUP1 ISZERO PUSH2 0xF JUMPI PUSH0 DUP1 REVERT JUMPDEST POP PUSH1 0x4 CALLDATASIZE LT PUSH2 0x14B JUMPI PUSH0 CALLDATALOAD PUSH1 0xE0 SHR DUP1 PUSH4 0x715018A6 GT PUSH2 0xC1 JUMPI DUP1 PUSH4 0xAFE8289A GT PUSH2 0x7A JUMPI DUP1 PUSH4 0xAFE8289A EQ PUSH2 0x351 JUMPI DUP1 PUSH4 0xC8052107 EQ PUSH2 0x36D JUMPI DUP1 PUSH4 0xD5ABEB01 EQ PUSH2 0x389 JUMPI DUP1 PUSH4 0xD82E3962 EQ PUSH2 0x3A7 JUMPI DUP1 PUSH4 0xDD62ED3E EQ PUSH2 0x3D7 JUMPI DUP1 PUSH4 0xF2FDE38B EQ PUSH2 0x407 JUMPI PUSH2 0x14B JUMP JUMPDEST DUP1 PUSH4 0x715018A6 EQ PUSH2 0x2B5 JUMPI DUP1 PUSH4 0x79CC6790 EQ PUSH2 0x2BF JUMPI DUP1 PUSH4 0x8DA5CB5B EQ PUSH2 0x2DB JUMPI DUP1 PUSH4 0x95D89B41 EQ PUSH2 0x2F9 JUMPI DUP1 PUSH4 0xA64254C3 EQ PUSH2 0x317 JUMPI DUP1 PUSH4 0xA9059CBB EQ PUSH2 0x321 JUMPI PUSH2 0x14B JUMP JUMPDEST DUP1 PUSH4 0x23B872DD GT PUSH2 0x113 JUMPI DUP1 PUSH4 0x23B872DD EQ PUSH2 0x1E1 JUMPI DUP1 PUSH4 0x313CE567 EQ PUSH2 0x211 JUMPI DUP1 PUSH4 0x42966C68 EQ PUSH2 0x22F JUMPI DUP1 PUSH4 0x51C6590A EQ PUSH2 0x24B JUMPI DUP1 PUSH4 0x52756986 EQ PUSH2 0x267 JUMPI DUP1 PUSH4 0x70A08231 EQ PUSH2 0x285 JUMPI PUSH2 0x14B JUMP JUMPDEST DUP1 PUSH4 0x6FDDE03 EQ PUSH2 0x14F JUMPI DUP1 PUSH4 0x95EA7B3 EQ PUSH2 0x16D JUMPI DUP1 PUSH4 0x18160DDD EQ PUSH2 0x19D JUMPI DUP1 PUSH4 0x21208FA2 EQ PUSH2 0x1BB JUMPI DUP1 PUSH4 0x2254B79C EQ PUSH2 0x1C5 JUMPI JUMPDEST PUSH0 DUP1 REVERT JUMPDEST PUSH2 0x157 PUSH2 0x423 JUMP JUMPDEST PUSH1 0x40 MLOAD PUSH2 0x164 SWAP2 SWAP1 PUSH2 0x17ED JUMP JUMPDEST PUSH1 0x40 MLOAD DUP1 SWAP2 SUB SWAP1 RETURN JUMPDEST PUSH2 0x187 PUSH1 0x4 DUP1 CALLDATASIZE SUB DUP2 ADD SWAP1 PUSH2 0x182 SWAP2 SWAP1 PUSH2 0x189E JUMP JUMPDEST PUSH2 0x4B3 JUMP JUMPDEST PUSH1 0x40 MLOAD PUSH2 0x194 SWAP2 SWAP1 PUSH2 0x18F6 JUMP JUMPDEST PUSH1 0x40 MLOAD DUP1 SWAP2 SUB SWAP1 RETURN JUMPDEST PUSH2 0x1A5 PUSH2 0x4D5 JUMP JUMPDEST PUSH1 0x40 MLOAD PUSH2 0x1B2 SWAP2 SWAP1 PUSH2 0x191E JUMP JUMPDEST PUSH1 0x40 MLOAD DUP1 SWAP2 SUB SWAP1 RETURN JUMPDEST PUSH2 0x1C3 PUSH2 0x4DE JUMP JUMPDEST STOP JUMPDEST PUSH2 0x1DF PUSH1 0x4 DUP1 CALLDATASIZE SUB DUP2 ADD SWAP1 PUSH2 0x1DA SWAP2 SWAP1 PUSH2 0x1937 JUMP JUMPDEST PUSH2 0x501 JUMP JUMPDEST STOP JUMPDEST PUSH2 0x1FB PUSH1 0x4 DUP1 CALLDATASIZE SUB DUP2 ADD SWAP1 PUSH2 0x1F6 SWAP2 SWAP1 PUSH2 0x1962 JUMP JUMPDEST PUSH2 0x6A4 JUMP JUMPDEST PUSH1 0x40 MLOAD PUSH2 0x208 SWAP2 SWAP1 PUSH2 0x18F6 JUMP JUMPDEST PUSH1 0x40 MLOAD DUP1 SWAP2 SUB SWAP1 RETURN JUMPDEST PUSH2 0x219 PUSH2 0x6D2 JUMP JUMPDEST PUSH1 0x40 MLOAD PUSH2 0x226 SWAP2 SWAP1 PUSH2 0x19CD JUMP JUMPDEST PUSH1 0x40 MLOAD DUP1 SWAP2 SUB SWAP1 RETURN JUMPDEST PUSH2 0x249 PUSH1 0x4 DUP1 CALLDATASIZE SUB DUP2 ADD SWAP1 PUSH2 0x244 SWAP2 SWAP1 PUSH2 0x1937 JUMP JUMPDEST PUSH2 0x6E7 JUMP JUMPDEST STOP JUMPDEST PUSH2 0x265 PUSH1 0x4 DUP1 CALLDATASIZE SUB DUP2 ADD SWAP1 PUSH2 0x260 SWAP2 SWAP1 PUSH2 0x1937 JUMP JUMPDEST PUSH2 0x6FB JUMP JUMPDEST STOP JUMPDEST PUSH2 0x26F PUSH2 0x79E JUMP JUMPDEST PUSH1 0x40 MLOAD PUSH2 0x27C SWAP2 SWAP1 PUSH2 0x19CD JUMP JUMPDEST PUSH1 0x40 MLOAD DUP1 SWAP2 SUB SWAP1 RETURN JUMPDEST PUSH2 0x29F PUSH1 0x4 DUP1 CALLDATASIZE SUB DUP2 ADD SWAP1 PUSH2 0x29A SWAP2 SWAP1 PUSH2 0x19E6 JUMP JUMPDEST PUSH2 0x7B0 JUMP JUMPDEST PUSH1 0x40 MLOAD PUSH2 0x2AC SWAP2 SWAP1 PUSH2 0x191E JUMP JUMPDEST PUSH1 0x40 MLOAD DUP1 SWAP2 SUB SWAP1 RETURN JUMPDEST PUSH2 0x2BD PUSH2 0x7F5 JUMP JUMPDEST STOP JUMPDEST PUSH2 0x2D9 PUSH1 0x4 DUP1 CALLDATASIZE SUB DUP2 ADD SWAP1 PUSH2 0x2D4 SWAP2 SWAP1 PUSH2 0x189E JUMP JUMPDEST PUSH2 0x808 JUMP JUMPDEST STOP JUMPDEST PUSH2 0x2E3 PUSH2 0x828 JUMP JUMPDEST PUSH1 0x40 MLOAD PUSH2 0x2F0 SWAP2 SWAP1 PUSH2 0x1A20 JUMP JUMPDEST PUSH1 0x40 MLOAD DUP1 SWAP2 SUB SWAP1 RETURN JUMPDEST PUSH2 0x301 PUSH2 0x850 JUMP JUMPDEST PUSH1 0x40 MLOAD PUSH2 0x30E SWAP2 SWAP1 PUSH2 0x17ED JUMP JUMPDEST PUSH1 0x40 MLOAD DUP1 SWAP2 SUB SWAP1 RETURN JUMPDEST PUSH2 0x31F PUSH2 0x8E0 JUMP JUMPDEST STOP JUMPDEST PUSH2 0x33B PUSH1 0x4 DUP1 CALLDATASIZE SUB DUP2 ADD SWAP1 PUSH2 0x336 SWAP2 SWAP1 PUSH2 0x189E JUMP JUMPDEST PUSH2 0x904 JUMP JUMPDEST PUSH1 0x40 MLOAD PUSH2 0x348 SWAP2 SWAP1 PUSH2 0x18F6 JUMP JUMPDEST PUSH1 0x40 MLOAD DUP1 SWAP2 SUB SWAP1 RETURN JUMPDEST PUSH2 0x36B PUSH1 0x4 DUP1 CALLDATASIZE SUB DUP2 ADD SWAP1 PUSH2 0x366 SWAP2 SWAP1 PUSH2 0x1937 JUMP JUMPDEST PUSH2 0x926 JUMP JUMPDEST STOP JUMPDEST PUSH2 0x387 PUSH1 0x4 DUP1 CALLDATASIZE SUB DUP2 ADD SWAP1 PUSH2 0x382 SWAP2 SWAP1 PUSH2 0x1937 JUMP JUMPDEST PUSH2 0x9DE JUMP JUMPDEST STOP JUMPDEST PUSH2 0x391 PUSH2 0xC99 JUMP JUMPDEST PUSH1 0x40 MLOAD PUSH2 0x39E SWAP2 SWAP1 PUSH2 0x191E JUMP JUMPDEST PUSH1 0x40 MLOAD DUP1 SWAP2 SUB SWAP1 RETURN JUMPDEST PUSH2 0x3C1 PUSH1 0x4 DUP1 CALLDATASIZE SUB DUP2 ADD SWAP1 PUSH2 0x3BC SWAP2 SWAP1 PUSH2 0x19E6 JUMP JUMPDEST PUSH2 0xC9F JUMP JUMPDEST PUSH1 0x40 MLOAD PUSH2 0x3CE SWAP2 SWAP1 PUSH2 0x191E JUMP JUMPDEST PUSH1 0x40 MLOAD DUP1 SWAP2 SUB SWAP1 RETURN JUMPDEST PUSH2 0x3F1 PUSH1 0x4 DUP1 CALLDATASIZE SUB DUP2 ADD SWAP1 PUSH2 0x3EC SWAP2 SWAP1 PUSH2 0x1A39 JUMP JUMPDEST PUSH2 0xD7A JUMP JUMPDEST PUSH1 0x40 MLOAD PUSH2 0x3FE SWAP2 SWAP1 PUSH2 0x191E JUMP JUMPDEST PUSH1 0x40 MLOAD DUP1 SWAP2 SUB SWAP1 RETURN JUMPDEST PUSH2 0x421 PUSH1 0x4 DUP1 CALLDATASIZE SUB DUP2 ADD SWAP1 PUSH2 0x41C SWAP2 SWAP1 PUSH2 0x19E6 JUMP JUMPDEST PUSH2 0xDFC JUMP JUMPDEST STOP JUMPDEST PUSH1 0x60 PUSH1 0x3 DUP1 SLOAD PUSH2 0x432 SWAP1 PUSH2 0x1AA4 JUMP JUMPDEST DUP1 PUSH1 0x1F ADD PUSH1 0x20 DUP1 SWAP2 DIV MUL PUSH1 0x20 ADD PUSH1 0x40 MLOAD SWAP1 DUP2 ADD PUSH1 0x40 MSTORE DUP1 SWAP3 SWAP2 SWAP1 DUP2 DUP2 MSTORE PUSH1 0x20 ADD DUP3 DUP1 SLOAD PUSH2 0x45E SWAP1 PUSH2 0x1AA4 JUMP JUMPDEST DUP1 ISZERO PUSH2 0x4A9 JUMPI DUP1 PUSH1 0x1F LT PUSH2 0x480 JUMPI PUSH2 0x100 DUP1 DUP4 SLOAD DIV MUL DUP4 MSTORE SWAP2 PUSH1 0x20 ADD SWAP2 PUSH2 0x4A9 JUMP JUMPDEST DUP3 ADD SWAP2 SWAP1 PUSH0 MSTORE PUSH1 0x20 PUSH0 KECCAK256 SWAP1 JUMPDEST DUP2 SLOAD DUP2 MSTORE SWAP1 PUSH1 0x1 ADD SWAP1 PUSH1 0x20 ADD DUP1 DUP4 GT PUSH2 0x48C JUMPI DUP3 SWAP1 SUB PUSH1 0x1F AND DUP3 ADD SWAP2 JUMPDEST POP POP POP POP POP SWAP1 POP SWAP1 JUMP JUMPDEST PUSH0 DUP1 PUSH2 0x4BD PUSH2 0xE80 JUMP JUMPDEST SWAP1 POP PUSH2 0x4CA DUP2 DUP6 DUP6 PUSH2 0xE87 JUMP JUMPDEST PUSH1 0x1 SWAP2 POP POP SWAP3 SWAP2 POP POP JUMP JUMPDEST PUSH0 PUSH1 0x2 SLOAD SWAP1 POP SWAP1 JUMP JUMPDEST PUSH2 0x4E6 PUSH2 0xE99 JUMP JUMPDEST PUSH0 PUSH1 0xB PUSH0 PUSH2 0x100 EXP DUP2 SLOAD DUP2 PUSH1 0xFF MUL NOT AND SWAP1 DUP4 ISZERO ISZERO MUL OR SWAP1 SSTORE POP JUMP JUMPDEST PUSH2 0x509 PUSH2 0xE99 JUMP JUMPDEST PUSH2 0x511 PUSH2 0xF20 JUMP JUMPDEST PUSH1 0x9 PUSH0 PUSH2 0x51C PUSH2 0x828 JUMP JUMPDEST PUSH20 0xFFFFFFFFFFFFFFFFFFFFFFFFFFFFFFFFFFFFFFFF AND PUSH20 0xFFFFFFFFFFFFFFFFFFFFFFFFFFFFFFFFFFFFFFFF AND DUP2 MSTORE PUSH1 0x20 ADD SWAP1 DUP2 MSTORE PUSH1 0x20 ADD PUSH0 KECCAK256 SLOAD DUP2 GT ISZERO PUSH2 0x598 JUMPI PUSH1 0x40 MLOAD PUSH32 0x8C379A000000000000000000000000000000000000000000000000000000000 DUP2 MSTORE PUSH1 0x4 ADD PUSH2 0x58F SWAP1 PUSH2 0x1B1E JUMP JUMPDEST PUSH1 0x40 MLOAD DUP1 SWAP2 SUB SWAP1 REVERT JUMPDEST DUP1 PUSH1 0x9 PUSH0 PUSH2 0x5A4 PUSH2 0x828 JUMP JUMPDEST PUSH20 0xFFFFFFFFFFFFFFFFFFFFFFFFFFFFFFFFFFFFFFFF AND PUSH20 0xFFFFFFFFFFFFFFFFFFFFFFFFFFFFFFFFFFFFFFFF AND DUP2 MSTORE PUSH1 0x20 ADD SWAP1 DUP2 MSTORE PUSH1 0x20 ADD PUSH0 KECCAK256 PUSH0 DUP3 DUP3 SLOAD PUSH2 0x5EB SWAP2 SWAP1 PUSH2 0x1B69 JUMP JUMPDEST SWAP3 POP POP DUP2 SWAP1 SSTORE POP PUSH0 PUSH1 0x9 PUSH0 PUSH2 0x5FE PUSH2 0x828 JUMP JUMPDEST PUSH20 0xFFFFFFFFFFFFFFFFFFFFFFFFFFFFFFFFFFFFFFFF AND PUSH20 0xFFFFFFFFFFFFFFFFFFFFFFFFFFFFFFFFFFFFFFFF AND DUP2 MSTORE PUSH1 0x20 ADD SWAP1 DUP2 MSTORE PUSH1 0x20 ADD PUSH0 KECCAK256 SLOAD SUB PUSH2 0x687 JUMPI PUSH0 PUSH1 0xA PUSH0 PUSH2 0x649 PUSH2 0x828 JUMP JUMPDEST PUSH20 0xFFFFFFFFFFFFFFFFFFFFFFFFFFFFFFFFFFFFFFFF AND PUSH20 0xFFFFFFFFFFFFFFFFFFFFFFFFFFFFFFFFFFFFFFFF AND DUP2 MSTORE PUSH1 0x20 ADD SWAP1 DUP2 MSTORE PUSH1 0x20 ADD PUSH0 KECCAK256 DUP2 SWAP1 SSTORE POP JUMPDEST PUSH2 0x699 ADDRESS PUSH2 0x693 PUSH2 0x828 JUMP JUMPDEST DUP4 PUSH2 0xF6F JUMP JUMPDEST PUSH2 0x6A1 PUSH2 0x1048 JUMP JUMPDEST POP JUMP JUMPDEST PUSH0 DUP1 PUSH2 0x6AE PUSH2 0xE80 JUMP JUMPDEST SWAP1 POP PUSH2 0x6BB DUP6 DUP3 DUP6 PUSH2 0x1052 JUMP JUMPDEST PUSH2 0x6C6 DUP6 DUP6 DUP6 PUSH2 0xF6F JUMP JUMPDEST PUSH1 0x1 SWAP2 POP POP SWAP4 SWAP3 POP POP POP JUMP JUMPDEST PUSH0 PUSH1 0x8 PUSH0 SWAP1 SLOAD SWAP1 PUSH2 0x100 EXP SWAP1 DIV PUSH1 0xFF AND SWAP1 POP SWAP1 JUMP JUMPDEST PUSH2 0x6F8 PUSH2 0x6F2 PUSH2 0xE80 JUMP JUMPDEST DUP3 PUSH2 0x10E4 JUMP JUMPDEST POP JUMP JUMPDEST PUSH2 0x706 CALLER ADDRESS DUP4 PUSH2 0xF6F JUMP JUMPDEST DUP1 PUSH1 0x9 PUSH0 CALLER PUSH20 0xFFFFFFFFFFFFFFFFFFFFFFFFFFFFFFFFFFFFFFFF AND PUSH20 0xFFFFFFFFFFFFFFFFFFFFFFFFFFFFFFFFFFFFFFFF AND DUP2 MSTORE PUSH1 0x20 ADD SWAP1 DUP2 MSTORE PUSH1 0x20 ADD PUSH0 KECCAK256 PUSH0 DUP3 DUP3 SLOAD PUSH2 0x752 SWAP2 SWAP1 PUSH2 0x1B9C JUMP JUMPDEST SWAP3 POP POP DUP2 SWAP1 SSTORE POP TIMESTAMP PUSH1 0xA PUSH0 CALLER PUSH20 0xFFFFFFFFFFFFFFFFFFFFFFFFFFFFFFFFFFFFFFFF AND PUSH20 0xFFFFFFFFFFFFFFFFFFFFFFFFFFFFFFFFFFFFFFFF AND DUP2 MSTORE PUSH1 0x20 ADD SWAP1 DUP2 MSTORE PUSH1 0x20 ADD PUSH0 KECCAK256 DUP2 SWAP1 SSTORE POP POP JUMP JUMPDEST PUSH1 0x8 PUSH0 SWAP1 SLOAD SWAP1 PUSH2 0x100 EXP SWAP1 DIV PUSH1 0xFF AND DUP2 JUMP JUMPDEST PUSH0 DUP1 PUSH0 DUP4 PUSH20 0xFFFFFFFFFFFFFFFFFFFFFFFFFFFFFFFFFFFFFFFF AND PUSH20 0xFFFFFFFFFFFFFFFFFFFFFFFFFFFFFFFFFFFFFFFF AND DUP2 MSTORE PUSH1 0x20 ADD SWAP1 DUP2 MSTORE PUSH1 0x20 ADD PUSH0 KECCAK256 SLOAD SWAP1 POP SWAP2 SWAP1 POP JUMP JUMPDEST PUSH2 0x7FD PUSH2 0xE99 JUMP JUMPDEST PUSH2 0x806 PUSH0 PUSH2 0x1163 JUMP JUMPDEST JUMP JUMPDEST PUSH2 0x81A DUP3 PUSH2 0x814 PUSH2 0xE80 JUMP JUMPDEST DUP4 PUSH2 0x1052 JUMP JUMPDEST PUSH2 0x824 DUP3 DUP3 PUSH2 0x10E4 JUMP JUMPDEST POP POP JUMP JUMPDEST PUSH0 PUSH1 0x5 PUSH0 SWAP1 SLOAD SWAP1 PUSH2 0x100 EXP SWAP1 DIV PUSH20 0xFFFFFFFFFFFFFFFFFFFFFFFFFFFFFFFFFFFFFFFF AND SWAP1 POP SWAP1 JUMP JUMPDEST PUSH1 0x60 PUSH1 0x4 DUP1 SLOAD PUSH2 0x85F SWAP1 PUSH2 0x1AA4 JUMP JUMPDEST DUP1 PUSH1 0x1F ADD PUSH1 0x20 DUP1 SWAP2 DIV MUL PUSH1 0x20 ADD PUSH1 0x40 MLOAD SWAP1 DUP2 ADD PUSH1 0x40 MSTORE DUP1 SWAP3 SWAP2 SWAP1 DUP2 DUP2 MSTORE PUSH1 0x20 ADD DUP3 DUP1 SLOAD PUSH2 0x88B SWAP1 PUSH2 0x1AA4 JUMP JUMPDEST DUP1 ISZERO PUSH2 0x8D6 JUMPI DUP1 PUSH1 0x1F LT PUSH2 0x8AD JUMPI PUSH2 0x100 DUP1 DUP4 SLOAD DIV MUL DUP4 MSTORE SWAP2 PUSH1 0x20 ADD SWAP2 PUSH2 0x8D6 JUMP JUMPDEST DUP3 ADD SWAP2 SWAP1 PUSH0 MSTORE PUSH1 0x20 PUSH0 KECCAK256 SWAP1 JUMPDEST DUP2 SLOAD DUP2 MSTORE SWAP1 PUSH1 0x1 ADD SWAP1 PUSH1 0x20 ADD DUP1 DUP4 GT PUSH2 0x8B9 JUMPI DUP3 SWAP1 SUB PUSH1 0x1F AND DUP3 ADD SWAP2 JUMPDEST POP POP POP POP POP SWAP1 POP SWAP1 JUMP JUMPDEST PUSH2 0x8E8 PUSH2 0xE99 JUMP JUMPDEST PUSH1 0x1 PUSH1 0xB PUSH0 PUSH2 0x100 EXP DUP2 SLOAD DUP2 PUSH1 0xFF MUL NOT AND SWAP1 DUP4 ISZERO ISZERO MUL OR SWAP1 SSTORE POP JUMP JUMPDEST PUSH0 DUP1 PUSH2 0x90E PUSH2 0xE80 JUMP JUMPDEST SWAP1 POP PUSH2 0x91B DUP2 DUP6 DUP6 PUSH2 0xF6F JUMP JUMPDEST PUSH1 0x1 SWAP2 POP POP SWAP3 SWAP2 POP POP JUMP JUMPDEST PUSH2 0x92E PUSH2 0xE99 JUMP JUMPDEST DUP1 PUSH1 0x9 PUSH0 PUSH2 0x93A PUSH2 0x828 JUMP JUMPDEST PUSH20 0xFFFFFFFFFFFFFFFFFFFFFFFFFFFFFFFFFFFFFFFF AND PUSH20 0xFFFFFFFFFFFFFFFFFFFFFFFFFFFFFFFFFFFFFFFF AND DUP2 MSTORE PUSH1 0x20 ADD SWAP1 DUP2 MSTORE PUSH1 0x20 ADD PUSH0 KECCAK256 PUSH0 DUP3 DUP3 SLOAD PUSH2 0x981 SWAP2 SWAP1 PUSH2 0x1B9C JUMP JUMPDEST SWAP3 POP POP DUP2 SWAP1 SSTORE POP TIMESTAMP PUSH1 0xA PUSH0 PUSH2 0x994 PUSH2 0x828 JUMP JUMPDEST PUSH20 0xFFFFFFFFFFFFFFFFFFFFFFFFFFFFFFFFFFFFFFFF AND PUSH20 0xFFFFFFFFFFFFFFFFFFFFFFFFFFFFFFFFFFFFFFFF AND DUP2 MSTORE PUSH1 0x20 ADD SWAP1 DUP2 MSTORE PUSH1 0x20 ADD PUSH0 KECCAK256 DUP2 SWAP1 SSTORE POP PUSH2 0x9DB ADDRESS DUP3 PUSH2 0x1226 JUMP JUMPDEST POP JUMP JUMPDEST PUSH2 0x9E6 PUSH2 0xF20 JUMP JUMPDEST PUSH1 0x9 PUSH0 CALLER PUSH20 0xFFFFFFFFFFFFFFFFFFFFFFFFFFFFFFFFFFFFFFFF AND PUSH20 0xFFFFFFFFFFFFFFFFFFFFFFFFFFFFFFFFFFFFFFFF AND DUP2 MSTORE PUSH1 0x20 ADD SWAP1 DUP2 MSTORE PUSH1 0x20 ADD PUSH0 KECCAK256 SLOAD DUP2 GT ISZERO PUSH2 0xA66 JUMPI PUSH1 0x40 MLOAD PUSH32 0x8C379A000000000000000000000000000000000000000000000000000000000 DUP2 MSTORE PUSH1 0x4 ADD PUSH2 0xA5D SWAP1 PUSH2 0x1B1E JUMP JUMPDEST PUSH1 0x40 MLOAD DUP1 SWAP2 SUB SWAP1 REVERT JUMPDEST PUSH3 0x278D00 PUSH1 0xA PUSH0 CALLER PUSH20 0xFFFFFFFFFFFFFFFFFFFFFFFFFFFFFFFFFFFFFFFF AND PUSH20 0xFFFFFFFFFFFFFFFFFFFFFFFFFFFFFFFFFFFFFFFF AND DUP2 MSTORE PUSH1 0x20 ADD SWAP1 DUP2 MSTORE PUSH1 0x20 ADD PUSH0 KECCAK256 SLOAD PUSH2 0xAB2 SWAP2 SWAP1 PUSH2 0x1B9C JUMP JUMPDEST TIMESTAMP LT ISZERO PUSH2 0xAF4 JUMPI PUSH1 0x40 MLOAD PUSH32 0x8C379A000000000000000000000000000000000000000000000000000000000 DUP2 MSTORE PUSH1 0x4 ADD PUSH2 0xAEB SWAP1 PUSH2 0x1C65 JUMP JUMPDEST PUSH1 0x40 MLOAD DUP1 SWAP2 SUB SWAP1 REVERT JUMPDEST PUSH0 PUSH2 0xAFE CALLER PUSH2 0xC9F JUMP JUMPDEST SWAP1 POP PUSH1 0x7 SLOAD DUP2 PUSH2 0xB0C PUSH2 0x4D5 JUMP JUMPDEST PUSH2 0xB16 SWAP2 SWAP1 PUSH2 0x1B9C JUMP JUMPDEST GT ISZERO PUSH2 0xB57 JUMPI PUSH1 0x40 MLOAD PUSH32 0x8C379A000000000000000000000000000000000000000000000000000000000 DUP2 MSTORE PUSH1 0x4 ADD PUSH2 0xB4E SWAP1 PUSH2 0x1CCD JUMP JUMPDEST PUSH1 0x40 MLOAD DUP1 SWAP2 SUB SWAP1 REVERT JUMPDEST PUSH2 0xB61 CALLER DUP3 PUSH2 0x1226 JUMP JUMPDEST PUSH2 0xB6C ADDRESS CALLER DUP5 PUSH2 0xF6F JUMP JUMPDEST DUP2 PUSH1 0x9 PUSH0 CALLER PUSH20 0xFFFFFFFFFFFFFFFFFFFFFFFFFFFFFFFFFFFFFFFF AND PUSH20 0xFFFFFFFFFFFFFFFFFFFFFFFFFFFFFFFFFFFFFFFF AND DUP2 MSTORE PUSH1 0x20 ADD SWAP1 DUP2 MSTORE PUSH1 0x20 ADD PUSH0 KECCAK256 PUSH0 DUP3 DUP3 SLOAD PUSH2 0xBB8 SWAP2 SWAP1 PUSH2 0x1B69 JUMP JUMPDEST SWAP3 POP POP DUP2 SWAP1 SSTORE POP PUSH0 PUSH1 0x9 PUSH0 CALLER PUSH20 0xFFFFFFFFFFFFFFFFFFFFFFFFFFFFFFFFFFFFFFFF AND PUSH20 0xFFFFFFFFFFFFFFFFFFFFFFFFFFFFFFFFFFFFFFFF AND DUP2 MSTORE PUSH1 0x20 ADD SWAP1 DUP2 MSTORE PUSH1 0x20 ADD PUSH0 KECCAK256 SLOAD SUB PUSH2 0xC4A JUMPI PUSH0 PUSH1 0xA PUSH0 CALLER PUSH20 0xFFFFFFFFFFFFFFFFFFFFFFFFFFFFFFFFFFFFFFFF AND PUSH20 0xFFFFFFFFFFFFFFFFFFFFFFFFFFFFFFFFFFFFFFFF AND DUP2 MSTORE PUSH1 0x20 ADD SWAP1 DUP2 MSTORE PUSH1 0x20 ADD PUSH0 KECCAK256 DUP2 SWAP1 SSTORE POP PUSH2 0xC8D JUMP JUMPDEST TIMESTAMP PUSH1 0xA PUSH0 CALLER PUSH20 0xFFFFFFFFFFFFFFFFFFFFFFFFFFFFFFFFFFFFFFFF AND PUSH20 0xFFFFFFFFFFFFFFFFFFFFFFFFFFFFFFFFFFFFFFFF AND DUP2 MSTORE PUSH1 0x20 ADD SWAP1 DUP2 MSTORE PUSH1 0x20 ADD PUSH0 KECCAK256 DUP2 SWAP1 SSTORE POP JUMPDEST POP PUSH2 0xC96 PUSH2 0x1048 JUMP JUMPDEST POP JUMP JUMPDEST PUSH1 0x7 SLOAD DUP2 JUMP JUMPDEST PUSH0 PUSH3 0x278D00 PUSH1 0xA PUSH0 DUP5 PUSH20 0xFFFFFFFFFFFFFFFFFFFFFFFFFFFFFFFFFFFFFFFF AND PUSH20 0xFFFFFFFFFFFFFFFFFFFFFFFFFFFFFFFFFFFFFFFF AND DUP2 MSTORE PUSH1 0x20 ADD SWAP1 DUP2 MSTORE PUSH1 0x20 ADD PUSH0 KECCAK256 SLOAD PUSH2 0xCEC SWAP2 SWAP1 PUSH2 0x1B9C JUMP JUMPDEST TIMESTAMP LT PUSH2 0xD71 JUMPI PUSH0 PUSH1 0x64 PUSH1 0x5 PUSH1 0x9 PUSH0 DUP7 PUSH20 0xFFFFFFFFFFFFFFFFFFFFFFFFFFFFFFFFFFFFFFFF AND PUSH20 0xFFFFFFFFFFFFFFFFFFFFFFFFFFFFFFFFFFFFFFFF AND DUP2 MSTORE PUSH1 0x20 ADD SWAP1 DUP2 MSTORE PUSH1 0x20 ADD PUSH0 KECCAK256 SLOAD PUSH2 0xD3F SWAP2 SWAP1 PUSH2 0x1CEB JUMP JUMPDEST PUSH2 0xD49 SWAP2 SWAP1 PUSH2 0x1D59 JUMP JUMPDEST SWAP1 POP PUSH1 0x7 SLOAD DUP2 PUSH2 0xD57 PUSH2 0x4D5 JUMP JUMPDEST PUSH2 0xD61 SWAP2 SWAP1 PUSH2 0x1B9C JUMP JUMPDEST GT PUSH2 0xD6F JUMPI DUP1 SWAP2 POP POP PUSH2 0xD75 JUMP JUMPDEST POP JUMPDEST PUSH0 SWAP1 POP JUMPDEST SWAP2 SWAP1 POP JUMP JUMPDEST PUSH0 PUSH1 0x1 PUSH0 DUP5 PUSH20 0xFFFFFFFFFFFFFFFFFFFFFFFFFFFFFFFFFFFFFFFF AND PUSH20 0xFFFFFFFFFFFFFFFFFFFFFFFFFFFFFFFFFFFFFFFF AND DUP2 MSTORE PUSH1 0x20 ADD SWAP1 DUP2 MSTORE PUSH1 0x20 ADD PUSH0 KECCAK256 PUSH0 DUP4 PUSH20 0xFFFFFFFFFFFFFFFFFFFFFFFFFFFFFFFFFFFFFFFF AND PUSH20 0xFFFFFFFFFFFFFFFFFFFFFFFFFFFFFFFFFFFFFFFF AND DUP2 MSTORE PUSH1 0x20 ADD SWAP1 DUP2 MSTORE PUSH1 0x20 ADD PUSH0 KECCAK256 SLOAD SWAP1 POP SWAP3 SWAP2 POP POP JUMP JUMPDEST PUSH2 0xE04 PUSH2 0xE99 JUMP JUMPDEST PUSH0 PUSH20 0xFFFFFFFFFFFFFFFFFFFFFFFFFFFFFFFFFFFFFFFF AND DUP2 PUSH20 0xFFFFFFFFFFFFFFFFFFFFFFFFFFFFFFFFFFFFFFFF AND SUB PUSH2 0xE74 JUMPI PUSH0 PUSH1 0x40 MLOAD PUSH32 0x1E4FBDF700000000000000000000000000000000000000000000000000000000 DUP2 MSTORE PUSH1 0x4 ADD PUSH2 0xE6B SWAP2 SWAP1 PUSH2 0x1A20 JUMP JUMPDEST PUSH1 0x40 MLOAD DUP1 SWAP2 SUB SWAP1 REVERT JUMPDEST PUSH2 0xE7D DUP2 PUSH2 0x1163 JUMP JUMPDEST POP JUMP JUMPDEST PUSH0 CALLER SWAP1 POP SWAP1 JUMP JUMPDEST PUSH2 0xE94 DUP4 DUP4 DUP4 PUSH1 0x1 PUSH2 0x12A5 JUMP JUMPDEST POP POP POP JUMP JUMPDEST PUSH2 0xEA1 PUSH2 0xE80 JUMP JUMPDEST PUSH20 0xFFFFFFFFFFFFFFFFFFFFFFFFFFFFFFFFFFFFFFFF AND PUSH2 0xEBF PUSH2 0x828 JUMP JUMPDEST PUSH20 0xFFFFFFFFFFFFFFFFFFFFFFFFFFFFFFFFFFFFFFFF AND EQ PUSH2 0xF1E JUMPI PUSH2 0xEE2 PUSH2 0xE80 JUMP JUMPDEST PUSH1 0x40 MLOAD PUSH32 0x118CDAA700000000000000000000000000000000000000000000000000000000 DUP2 MSTORE PUSH1 0x4 ADD PUSH2 0xF15 SWAP2 SWAP1 PUSH2 0x1A20 JUMP JUMPDEST PUSH1 0x40 MLOAD DUP1 SWAP2 SUB SWAP1 REVERT JUMPDEST JUMP JUMPDEST PUSH1 0x2 PUSH1 0x6 SLOAD SUB PUSH2 0xF65 JUMPI PUSH1 0x40 MLOAD PUSH32 0x8C379A000000000000000000000000000000000000000000000000000000000 DUP2 MSTORE PUSH1 0x4 ADD PUSH2 0xF5C SWAP1 PUSH2 0x1DD3 JUMP JUMPDEST PUSH1 0x40 MLOAD DUP1 SWAP2 SUB SWAP1 REVERT JUMPDEST PUSH1 0x2 PUSH1 0x6 DUP2 SWAP1 SSTORE POP JUMP JUMPDEST PUSH1 0xB PUSH0 SWAP1 SLOAD SWAP1 PUSH2 0x100 EXP SWAP1 DIV PUSH1 0xFF AND ISZERO PUSH2 0xFBE JUMPI PUSH1 0x40 MLOAD PUSH32 0x8C379A000000000000000000000000000000000000000000000000000000000 DUP2 MSTORE PUSH1 0x4 ADD PUSH2 0xFB5 SWAP1 PUSH2 0x1E3B JUMP JUMPDEST PUSH1 0x40 MLOAD DUP1 SWAP2 SUB SWAP1 REVERT JUMPDEST PUSH0 PUSH3 0x186A0 DUP3 PUSH2 0xFCE SWAP2 SWAP1 PUSH2 0x1D59 JUMP JUMPDEST SWAP1 POP PUSH0 DUP2 DUP4 PUSH2 0xFDD SWAP2 SWAP1 PUSH2 0x1B69 JUMP JUMPDEST SWAP1 POP DUP2 DUP2 PUSH2 0xFEB SWAP2 SWAP1 PUSH2 0x1B9C JUMP JUMPDEST DUP4 EQ PUSH2 0x102C JUMPI PUSH1 0x40 MLOAD PUSH32 0x8C379A000000000000000000000000000000000000000000000000000000000 DUP2 MSTORE PUSH1 0x4 ADD PUSH2 0x1023 SWAP1 PUSH2 0x1EA3 JUMP JUMPDEST PUSH1 0x40 MLOAD DUP1 SWAP2 SUB SWAP1 REVERT JUMPDEST PUSH2 0x1037 DUP6 DUP6 DUP4 PUSH2 0x1474 JUMP JUMPDEST PUSH2 0x1041 DUP6 DUP4 PUSH2 0x10E4 JUMP JUMPDEST POP POP POP POP POP JUMP JUMPDEST PUSH1 0x1 PUSH1 0x6 DUP2 SWAP1 SSTORE POP JUMP JUMPDEST PUSH0 PUSH2 0x105D DUP5 DUP5 PUSH2 0xD7A JUMP JUMPDEST SWAP1 POP PUSH32 0xFFFFFFFFFFFFFFFFFFFFFFFFFFFFFFFFFFFFFFFFFFFFFFFFFFFFFFFFFFFFFFFF DUP2 EQ PUSH2 0x10DE JUMPI DUP2 DUP2 LT ISZERO PUSH2 0x10CF JUMPI DUP3 DUP2 DUP4 PUSH1 0x40 MLOAD PUSH32 0xFB8F41B200000000000000000000000000000000000000000000000000000000 DUP2 MSTORE PUSH1 0x4 ADD PUSH2 0x10C6 SWAP4 SWAP3 SWAP2 SWAP1 PUSH2 0x1EC1 JUMP JUMPDEST PUSH1 0x40 MLOAD DUP1 SWAP2 SUB SWAP1 REVERT JUMPDEST PUSH2 0x10DD DUP5 DUP5 DUP5 DUP5 SUB PUSH0 PUSH2 0x12A5 JUMP JUMPDEST JUMPDEST POP POP POP POP JUMP JUMPDEST PUSH0 PUSH20 0xFFFFFFFFFFFFFFFFFFFFFFFFFFFFFFFFFFFFFFFF AND DUP3 PUSH20 0xFFFFFFFFFFFFFFFFFFFFFFFFFFFFFFFFFFFFFFFF AND SUB PUSH2 0x1154 JUMPI PUSH0 PUSH1 0x40 MLOAD PUSH32 0x96C6FD1E00000000000000000000000000000000000000000000000000000000 DUP2 MSTORE PUSH1 0x4 ADD PUSH2 0x114B SWAP2 SWAP1 PUSH2 0x1A20 JUMP JUMPDEST PUSH1 0x40 MLOAD DUP1 SWAP2 SUB SWAP1 REVERT JUMPDEST PUSH2 0x115F DUP3 PUSH0 DUP4 PUSH2 0x1564 JUMP JUMPDEST POP POP JUMP JUMPDEST PUSH0 PUSH1 0x5 PUSH0 SWAP1 SLOAD SWAP1 PUSH2 0x100 EXP SWAP1 DIV PUSH20 0xFFFFFFFFFFFFFFFFFFFFFFFFFFFFFFFFFFFFFFFF AND SWAP1 POP DUP2 PUSH1 0x5 PUSH0 PUSH2 0x100 EXP DUP2 SLOAD DUP2 PUSH20 0xFFFFFFFFFFFFFFFFFFFFFFFFFFFFFFFFFFFFFFFF MUL NOT AND SWAP1 DUP4 PUSH20 0xFFFFFFFFFFFFFFFFFFFFFFFFFFFFFFFFFFFFFFFF AND MUL OR SWAP1 SSTORE POP DUP2 PUSH20 0xFFFFFFFFFFFFFFFFFFFFFFFFFFFFFFFFFFFFFFFF AND DUP2 PUSH20 0xFFFFFFFFFFFFFFFFFFFFFFFFFFFFFFFFFFFFFFFF AND PUSH32 0x8BE0079C531659141344CD1FD0A4F28419497F9722A3DAAFE3B4186F6B6457E0 PUSH1 0x40 MLOAD PUSH1 0x40 MLOAD DUP1 SWAP2 SUB SWAP1 LOG3 POP POP JUMP JUMPDEST PUSH0 PUSH20 0xFFFFFFFFFFFFFFFFFFFFFFFFFFFFFFFFFFFFFFFF AND DUP3 PUSH20 0xFFFFFFFFFFFFFFFFFFFFFFFFFFFFFFFFFFFFFFFF AND SUB PUSH2 0x1296 JUMPI PUSH0 PUSH1 0x40 MLOAD PUSH32 0xEC442F0500000000000000000000000000000000000000000000000000000000 DUP2 MSTORE PUSH1 0x4 ADD PUSH2 0x128D SWAP2 SWAP1 PUSH2 0x1A20 JUMP JUMPDEST PUSH1 0x40 MLOAD DUP1 SWAP2 SUB SWAP1 REVERT JUMPDEST PUSH2 0x12A1 PUSH0 DUP4 DUP4 PUSH2 0x1564 JUMP JUMPDEST POP POP JUMP JUMPDEST PUSH0 PUSH20 0xFFFFFFFFFFFFFFFFFFFFFFFFFFFFFFFFFFFFFFFF AND DUP5 PUSH20 0xFFFFFFFFFFFFFFFFFFFFFFFFFFFFFFFFFFFFFFFF AND SUB PUSH2 0x1315 JUMPI PUSH0 PUSH1 0x40 MLOAD PUSH32 0xE602DF0500000000000000000000000000000000000000000000000000000000 DUP2 MSTORE PUSH1 0x4 ADD PUSH2 0x130C SWAP2 SWAP1 PUSH2 0x1A20 JUMP JUMPDEST PUSH1 0x40 MLOAD DUP1 SWAP2 SUB SWAP1 REVERT JUMPDEST PUSH0 PUSH20 0xFFFFFFFFFFFFFFFFFFFFFFFFFFFFFFFFFFFFFFFF AND DUP4 PUSH20 0xFFFFFFFFFFFFFFFFFFFFFFFFFFFFFFFFFFFFFFFF AND SUB PUSH2 0x1385 JUMPI PUSH0 PUSH1 0x40 MLOAD PUSH32 0x94280D6200000000000000000000000000000000000000000000000000000000 DUP2 MSTORE PUSH1 0x4 ADD PUSH2 0x137C SWAP2 SWAP1 PUSH2 0x1A20 JUMP JUMPDEST PUSH1 0x40 MLOAD DUP1 SWAP2 SUB SWAP1 REVERT JUMPDEST DUP2 PUSH1 0x1 PUSH0 DUP7 PUSH20 0xFFFFFFFFFFFFFFFFFFFFFFFFFFFFFFFFFFFFFFFF AND PUSH20 0xFFFFFFFFFFFFFFFFFFFFFFFFFFFFFFFFFFFFFFFF AND DUP2 MSTORE PUSH1 0x20 ADD SWAP1 DUP2 MSTORE PUSH1 0x20 ADD PUSH0 KECCAK256 PUSH0 DUP6 PUSH20 0xFFFFFFFFFFFFFFFFFFFFFFFFFFFFFFFFFFFFFFFF AND PUSH20 0xFFFFFFFFFFFFFFFFFFFFFFFFFFFFFFFFFFFFFFFF AND DUP2 MSTORE PUSH1 0x20 ADD SWAP1 DUP2 MSTORE PUSH1 0x20 ADD PUSH0 KECCAK256 DUP2 SWAP1 SSTORE POP DUP1 ISZERO PUSH2 0x146E JUMPI DUP3 PUSH20 0xFFFFFFFFFFFFFFFFFFFFFFFFFFFFFFFFFFFFFFFF AND DUP5 PUSH20 0xFFFFFFFFFFFFFFFFFFFFFFFFFFFFFFFFFFFFFFFF AND PUSH32 0x8C5BE1E5EBEC7D5BD14F71427D1E84F3DD0314C0F7B2291E5B200AC8C7C3B925 DUP5 PUSH1 0x40 MLOAD PUSH2 0x1465 SWAP2 SWAP1 PUSH2 0x191E JUMP JUMPDEST PUSH1 0x40 MLOAD DUP1 SWAP2 SUB SWAP1 LOG3 JUMPDEST POP POP POP POP JUMP JUMPDEST PUSH0 PUSH20 0xFFFFFFFFFFFFFFFFFFFFFFFFFFFFFFFFFFFFFFFF AND DUP4 PUSH20 0xFFFFFFFFFFFFFFFFFFFFFFFFFFFFFFFFFFFFFFFF AND SUB PUSH2 0x14E4 JUMPI PUSH0 PUSH1 0x40 MLOAD PUSH32 0x96C6FD1E00000000000000000000000000000000000000000000000000000000 DUP2 MSTORE PUSH1 0x4 ADD PUSH2 0x14DB SWAP2 SWAP1 PUSH2 0x1A20 JUMP JUMPDEST PUSH1 0x40 MLOAD DUP1 SWAP2 SUB SWAP1 REVERT JUMPDEST PUSH0 PUSH20 0xFFFFFFFFFFFFFFFFFFFFFFFFFFFFFFFFFFFFFFFF AND DUP3 PUSH20 0xFFFFFFFFFFFFFFFFFFFFFFFFFFFFFFFFFFFFFFFF AND SUB PUSH2 0x1554 JUMPI PUSH0 PUSH1 0x40 MLOAD PUSH32 0xEC442F0500000000000000000000000000000000000000000000000000000000 DUP2 MSTORE PUSH1 0x4 ADD PUSH2 0x154B SWAP2 SWAP1 PUSH2 0x1A20 JUMP JUMPDEST PUSH1 0x40 MLOAD DUP1 SWAP2 SUB SWAP1 REVERT JUMPDEST PUSH2 0x155F DUP4 DUP4 DUP4 PUSH2 0x1564 JUMP JUMPDEST POP POP POP JUMP JUMPDEST PUSH0 PUSH20 0xFFFFFFFFFFFFFFFFFFFFFFFFFFFFFFFFFFFFFFFF AND DUP4 PUSH20 0xFFFFFFFFFFFFFFFFFFFFFFFFFFFFFFFFFFFFFFFF AND SUB PUSH2 0x15B4 JUMPI DUP1 PUSH1 0x2 PUSH0 DUP3 DUP3 SLOAD PUSH2 0x15A8 SWAP2 SWAP1 PUSH2 0x1B9C JUMP JUMPDEST SWAP3 POP POP DUP2 SWAP1 SSTORE POP PUSH2 0x1682 JUMP JUMPDEST PUSH0 DUP1 PUSH0 DUP6 PUSH20 0xFFFFFFFFFFFFFFFFFFFFFFFFFFFFFFFFFFFFFFFF AND PUSH20 0xFFFFFFFFFFFFFFFFFFFFFFFFFFFFFFFFFFFFFFFF AND DUP2 MSTORE PUSH1 0x20 ADD SWAP1 DUP2 MSTORE PUSH1 0x20 ADD PUSH0 KECCAK256 SLOAD SWAP1 POP DUP2 DUP2 LT ISZERO PUSH2 0x163D JUMPI DUP4 DUP2 DUP4 PUSH1 0x40 MLOAD PUSH32 0xE450D38C00000000000000000000000000000000000000000000000000000000 DUP2 MSTORE PUSH1 0x4 ADD PUSH2 0x1634 SWAP4 SWAP3 SWAP2 SWAP1 PUSH2 0x1EC1 JUMP JUMPDEST PUSH1 0x40 MLOAD DUP1 SWAP2 SUB SWAP1 REVERT JUMPDEST DUP2 DUP2 SUB PUSH0 DUP1 DUP7 PUSH20 0xFFFFFFFFFFFFFFFFFFFFFFFFFFFFFFFFFFFFFFFF AND PUSH20 0xFFFFFFFFFFFFFFFFFFFFFFFFFFFFFFFFFFFFFFFF AND DUP2 MSTORE PUSH1 0x20 ADD SWAP1 DUP2 MSTORE PUSH1 0x20 ADD PUSH0 KECCAK256 DUP2 SWAP1 SSTORE POP POP JUMPDEST PUSH0 PUSH20 0xFFFFFFFFFFFFFFFFFFFFFFFFFFFFFFFFFFFFFFFF AND DUP3 PUSH20 0xFFFFFFFFFFFFFFFFFFFFFFFFFFFFFFFFFFFFFFFF AND SUB PUSH2 0x16C9 JUMPI DUP1 PUSH1 0x2 PUSH0 DUP3 DUP3 SLOAD SUB SWAP3 POP POP DUP2 SWAP1 SSTORE POP PUSH2 0x1713 JUMP JUMPDEST DUP1 PUSH0 DUP1 DUP5 PUSH20 0xFFFFFFFFFFFFFFFFFFFFFFFFFFFFFFFFFFFFFFFF AND PUSH20 0xFFFFFFFFFFFFFFFFFFFFFFFFFFFFFFFFFFFFFFFF AND DUP2 MSTORE PUSH1 0x20 ADD SWAP1 DUP2 MSTORE PUSH1 0x20 ADD PUSH0 KECCAK256 PUSH0 DUP3 DUP3 SLOAD ADD SWAP3 POP POP DUP2 SWAP1 SSTORE POP JUMPDEST DUP2 PUSH20 0xFFFFFFFFFFFFFFFFFFFFFFFFFFFFFFFFFFFFFFFF AND DUP4 PUSH20 0xFFFFFFFFFFFFFFFFFFFFFFFFFFFFFFFFFFFFFFFF AND PUSH32 0xDDF252AD1BE2C89B69C2B068FC378DAA952BA7F163C4A11628F55A4DF523B3EF DUP4 PUSH1 0x40 MLOAD PUSH2 0x1770 SWAP2 SWAP1 PUSH2 0x191E JUMP JUMPDEST PUSH1 0x40 MLOAD DUP1 SWAP2 SUB SWAP1 LOG3 POP POP POP JUMP JUMPDEST PUSH0 DUP2 MLOAD SWAP1 POP SWAP2 SWAP1 POP JUMP JUMPDEST PUSH0 DUP3 DUP3 MSTORE PUSH1 0x20 DUP3 ADD SWAP1 POP SWAP3 SWAP2 POP POP JUMP JUMPDEST DUP3 DUP2 DUP4 MCOPY PUSH0 DUP4 DUP4 ADD MSTORE POP POP POP JUMP JUMPDEST PUSH0 PUSH1 0x1F NOT PUSH1 0x1F DUP4 ADD AND SWAP1 POP SWAP2 SWAP1 POP JUMP JUMPDEST PUSH0 PUSH2 0x17BF DUP3 PUSH2 0x177D JUMP JUMPDEST PUSH2 0x17C9 DUP2 DUP6 PUSH2 0x1787 JUMP JUMPDEST SWAP4 POP PUSH2 0x17D9 DUP2 DUP6 PUSH1 0x20 DUP7 ADD PUSH2 0x1797 JUMP JUMPDEST PUSH2 0x17E2 DUP2 PUSH2 0x17A5 JUMP JUMPDEST DUP5 ADD SWAP2 POP POP SWAP3 SWAP2 POP POP JUMP JUMPDEST PUSH0 PUSH1 0x20 DUP3 ADD SWAP1 POP DUP2 DUP2 SUB PUSH0 DUP4 ADD MSTORE PUSH2 0x1805 DUP2 DUP5 PUSH2 0x17B5 JUMP JUMPDEST SWAP1 POP SWAP3 SWAP2 POP POP JUMP JUMPDEST PUSH0 DUP1 REVERT JUMPDEST PUSH0 PUSH20 0xFFFFFFFFFFFFFFFFFFFFFFFFFFFFFFFFFFFFFFFF DUP3 AND SWAP1 POP SWAP2 SWAP1 POP JUMP JUMPDEST PUSH0 PUSH2 0x183A DUP3 PUSH2 0x1811 JUMP JUMPDEST SWAP1 POP SWAP2 SWAP1 POP JUMP JUMPDEST PUSH2 0x184A DUP2 PUSH2 0x1830 JUMP JUMPDEST DUP2 EQ PUSH2 0x1854 JUMPI PUSH0 DUP1 REVERT JUMPDEST POP JUMP JUMPDEST PUSH0 DUP2 CALLDATALOAD SWAP1 POP PUSH2 0x1865 DUP2 PUSH2 0x1841 JUMP JUMPDEST SWAP3 SWAP2 POP POP JUMP JUMPDEST PUSH0 DUP2 SWAP1 POP SWAP2 SWAP1 POP JUMP JUMPDEST PUSH2 0x187D DUP2 PUSH2 0x186B JUMP JUMPDEST DUP2 EQ PUSH2 0x1887 JUMPI PUSH0 DUP1 REVERT JUMPDEST POP JUMP JUMPDEST PUSH0 DUP2 CALLDATALOAD SWAP1 POP PUSH2 0x1898 DUP2 PUSH2 0x1874 JUMP JUMPDEST SWAP3 SWAP2 POP POP JUMP JUMPDEST PUSH0 DUP1 PUSH1 0x40 DUP4 DUP6 SUB SLT ISZERO PUSH2 0x18B4 JUMPI PUSH2 0x18B3 PUSH2 0x180D JUMP JUMPDEST JUMPDEST PUSH0 PUSH2 0x18C1 DUP6 DUP3 DUP7 ADD PUSH2 0x1857 JUMP JUMPDEST SWAP3 POP POP PUSH1 0x20 PUSH2 0x18D2 DUP6 DUP3 DUP7 ADD PUSH2 0x188A JUMP JUMPDEST SWAP2 POP POP SWAP3 POP SWAP3 SWAP1 POP JUMP JUMPDEST PUSH0 DUP2 ISZERO ISZERO SWAP1 POP SWAP2 SWAP1 POP JUMP JUMPDEST PUSH2 0x18F0 DUP2 PUSH2 0x18DC JUMP JUMPDEST DUP3 MSTORE POP POP JUMP JUMPDEST PUSH0 PUSH1 0x20 DUP3 ADD SWAP1 POP PUSH2 0x1909 PUSH0 DUP4 ADD DUP5 PUSH2 0x18E7 JUMP JUMPDEST SWAP3 SWAP2 POP POP JUMP JUMPDEST PUSH2 0x1918 DUP2 PUSH2 0x186B JUMP JUMPDEST DUP3 MSTORE POP POP JUMP JUMPDEST PUSH0 PUSH1 0x20 DUP3 ADD SWAP1 POP PUSH2 0x1931 PUSH0 DUP4 ADD DUP5 PUSH2 0x190F JUMP JUMPDEST SWAP3 SWAP2 POP POP JUMP JUMPDEST PUSH0 PUSH1 0x20 DUP3 DUP5 SUB SLT ISZERO PUSH2 0x194C JUMPI PUSH2 0x194B PUSH2 0x180D JUMP JUMPDEST JUMPDEST PUSH0 PUSH2 0x1959 DUP5 DUP3 DUP6 ADD PUSH2 0x188A JUMP JUMPDEST SWAP2 POP POP SWAP3 SWAP2 POP POP JUMP JUMPDEST PUSH0 DUP1 PUSH0 PUSH1 0x60 DUP5 DUP7 SUB SLT ISZERO PUSH2 0x1979 JUMPI PUSH2 0x1978 PUSH2 0x180D JUMP JUMPDEST JUMPDEST PUSH0 PUSH2 0x1986 DUP7 DUP3 DUP8 ADD PUSH2 0x1857 JUMP JUMPDEST SWAP4 POP POP PUSH1 0x20 PUSH2 0x1997 DUP7 DUP3 DUP8 ADD PUSH2 0x1857 JUMP JUMPDEST SWAP3 POP POP PUSH1 0x40 PUSH2 0x19A8 DUP7 DUP3 DUP8 ADD PUSH2 0x188A JUMP JUMPDEST SWAP2 POP POP SWAP3 POP SWAP3 POP SWAP3 JUMP JUMPDEST PUSH0 PUSH1 0xFF DUP3 AND SWAP1 POP SWAP2 SWAP1 POP JUMP JUMPDEST PUSH2 0x19C7 DUP2 PUSH2 0x19B2 JUMP JUMPDEST DUP3 MSTORE POP POP JUMP JUMPDEST PUSH0 PUSH1 0x20 DUP3 ADD SWAP1 POP PUSH2 0x19E0 PUSH0 DUP4 ADD DUP5 PUSH2 0x19BE JUMP JUMPDEST SWAP3 SWAP2 POP POP JUMP JUMPDEST PUSH0 PUSH1 0x20 DUP3 DUP5 SUB SLT ISZERO PUSH2 0x19FB JUMPI PUSH2 0x19FA PUSH2 0x180D JUMP JUMPDEST JUMPDEST PUSH0 PUSH2 0x1A08 DUP5 DUP3 DUP6 ADD PUSH2 0x1857 JUMP JUMPDEST SWAP2 POP POP SWAP3 SWAP2 POP POP JUMP JUMPDEST PUSH2 0x1A1A DUP2 PUSH2 0x1830 JUMP JUMPDEST DUP3 MSTORE POP POP JUMP JUMPDEST PUSH0 PUSH1 0x20 DUP3 ADD SWAP1 POP PUSH2 0x1A33 PUSH0 DUP4 ADD DUP5 PUSH2 0x1A11 JUMP JUMPDEST SWAP3 SWAP2 POP POP JUMP JUMPDEST PUSH0 DUP1 PUSH1 0x40 DUP4 DUP6 SUB SLT ISZERO PUSH2 0x1A4F JUMPI PUSH2 0x1A4E PUSH2 0x180D JUMP JUMPDEST JUMPDEST PUSH0 PUSH2 0x1A5C DUP6 DUP3 DUP7 ADD PUSH2 0x1857 JUMP JUMPDEST SWAP3 POP POP PUSH1 0x20 PUSH2 0x1A6D DUP6 DUP3 DUP7 ADD PUSH2 0x1857 JUMP JUMPDEST SWAP2 POP POP SWAP3 POP SWAP3 SWAP1 POP JUMP JUMPDEST PUSH32 0x4E487B7100000000000000000000000000000000000000000000000000000000 PUSH0 MSTORE PUSH1 0x22 PUSH1 0x4 MSTORE PUSH1 0x24 PUSH0 REVERT JUMPDEST PUSH0 PUSH1 0x2 DUP3 DIV SWAP1 POP PUSH1 0x1 DUP3 AND DUP1 PUSH2 0x1ABB JUMPI PUSH1 0x7F DUP3 AND SWAP2 POP JUMPDEST PUSH1 0x20 DUP3 LT DUP2 SUB PUSH2 0x1ACE JUMPI PUSH2 0x1ACD PUSH2 0x1A77 JUMP JUMPDEST JUMPDEST POP SWAP2 SWAP1 POP JUMP JUMPDEST PUSH32 0x496E73756666696369656E742062616C616E6365000000000000000000000000 PUSH0 DUP3 ADD MSTORE POP JUMP JUMPDEST PUSH0 PUSH2 0x1B08 PUSH1 0x14 DUP4 PUSH2 0x1787 JUMP JUMPDEST SWAP2 POP PUSH2 0x1B13 DUP3 PUSH2 0x1AD4 JUMP JUMPDEST PUSH1 0x20 DUP3 ADD SWAP1 POP SWAP2 SWAP1 POP JUMP JUMPDEST PUSH0 PUSH1 0x20 DUP3 ADD SWAP1 POP DUP2 DUP2 SUB PUSH0 DUP4 ADD MSTORE PUSH2 0x1B35 DUP2 PUSH2 0x1AFC JUMP JUMPDEST SWAP1 POP SWAP2 SWAP1 POP JUMP JUMPDEST PUSH32 0x4E487B7100000000000000000000000000000000000000000000000000000000 PUSH0 MSTORE PUSH1 0x11 PUSH1 0x4 MSTORE PUSH1 0x24 PUSH0 REVERT JUMPDEST PUSH0 PUSH2 0x1B73 DUP3 PUSH2 0x186B JUMP JUMPDEST SWAP2 POP PUSH2 0x1B7E DUP4 PUSH2 0x186B JUMP JUMPDEST SWAP3 POP DUP3 DUP3 SUB SWAP1 POP DUP2 DUP2 GT ISZERO PUSH2 0x1B96 JUMPI PUSH2 0x1B95 PUSH2 0x1B3C JUMP JUMPDEST JUMPDEST SWAP3 SWAP2 POP POP JUMP JUMPDEST PUSH0 PUSH2 0x1BA6 DUP3 PUSH2 0x186B JUMP JUMPDEST SWAP2 POP PUSH2 0x1BB1 DUP4 PUSH2 0x186B JUMP JUMPDEST SWAP3 POP DUP3 DUP3 ADD SWAP1 POP DUP1 DUP3 GT ISZERO PUSH2 0x1BC9 JUMPI PUSH2 0x1BC8 PUSH2 0x1B3C JUMP JUMPDEST JUMPDEST SWAP3 SWAP2 POP POP JUMP JUMPDEST PUSH32 0x4C6971756964697479206D7573742062652070726F766964656420666F722061 PUSH0 DUP3 ADD MSTORE PUSH32 0x74206C65617374203330206461797320746F207175616C69667920666F722072 PUSH1 0x20 DUP3 ADD MSTORE PUSH32 0x6577617264730000000000000000000000000000000000000000000000000000 PUSH1 0x40 DUP3 ADD MSTORE POP JUMP JUMPDEST PUSH0 PUSH2 0x1C4F PUSH1 0x46 DUP4 PUSH2 0x1787 JUMP JUMPDEST SWAP2 POP PUSH2 0x1C5A DUP3 PUSH2 0x1BCF JUMP JUMPDEST PUSH1 0x60 DUP3 ADD SWAP1 POP SWAP2 SWAP1 POP JUMP JUMPDEST PUSH0 PUSH1 0x20 DUP3 ADD SWAP1 POP DUP2 DUP2 SUB PUSH0 DUP4 ADD MSTORE PUSH2 0x1C7C DUP2 PUSH2 0x1C43 JUMP JUMPDEST SWAP1 POP SWAP2 SWAP1 POP JUMP JUMPDEST PUSH32 0x5265776172642065786365656473206D617820737570706C7900000000000000 PUSH0 DUP3 ADD MSTORE POP JUMP JUMPDEST PUSH0 PUSH2 0x1CB7 PUSH1 0x19 DUP4 PUSH2 0x1787 JUMP JUMPDEST SWAP2 POP PUSH2 0x1CC2 DUP3 PUSH2 0x1C83 JUMP JUMPDEST PUSH1 0x20 DUP3 ADD SWAP1 POP SWAP2 SWAP1 POP JUMP JUMPDEST PUSH0 PUSH1 0x20 DUP3 ADD SWAP1 POP DUP2 DUP2 SUB PUSH0 DUP4 ADD MSTORE PUSH2 0x1CE4 DUP2 PUSH2 0x1CAB JUMP JUMPDEST SWAP1 POP SWAP2 SWAP1 POP JUMP JUMPDEST PUSH0 PUSH2 0x1CF5 DUP3 PUSH2 0x186B JUMP JUMPDEST SWAP2 POP PUSH2 0x1D00 DUP4 PUSH2 0x186B JUMP JUMPDEST SWAP3 POP DUP3 DUP3 MUL PUSH2 0x1D0E DUP2 PUSH2 0x186B JUMP JUMPDEST SWAP2 POP DUP3 DUP3 DIV DUP5 EQ DUP4 ISZERO OR PUSH2 0x1D25 JUMPI PUSH2 0x1D24 PUSH2 0x1B3C JUMP JUMPDEST JUMPDEST POP SWAP3 SWAP2 POP POP JUMP JUMPDEST PUSH32 0x4E487B7100000000000000000000000000000000000000000000000000000000 PUSH0 MSTORE PUSH1 0x12 PUSH1 0x4 MSTORE PUSH1 0x24 PUSH0 REVERT JUMPDEST PUSH0 PUSH2 0x1D63 DUP3 PUSH2 0x186B JUMP JUMPDEST SWAP2 POP PUSH2 0x1D6E DUP4 PUSH2 0x186B JUMP JUMPDEST SWAP3 POP DUP3 PUSH2 0x1D7E JUMPI PUSH2 0x1D7D PUSH2 0x1D2C JUMP JUMPDEST JUMPDEST DUP3 DUP3 DIV SWAP1 POP SWAP3 SWAP2 POP POP JUMP JUMPDEST PUSH32 0x5265656E7472616E637947756172643A207265656E7472616E742063616C6C00 PUSH0 DUP3 ADD MSTORE POP JUMP JUMPDEST PUSH0 PUSH2 0x1DBD PUSH1 0x1F DUP4 PUSH2 0x1787 JUMP JUMPDEST SWAP2 POP PUSH2 0x1DC8 DUP3 PUSH2 0x1D89 JUMP JUMPDEST PUSH1 0x20 DUP3 ADD SWAP1 POP SWAP2 SWAP1 POP JUMP JUMPDEST PUSH0 PUSH1 0x20 DUP3 ADD SWAP1 POP DUP2 DUP2 SUB PUSH0 DUP4 ADD MSTORE PUSH2 0x1DEA DUP2 PUSH2 0x1DB1 JUMP JUMPDEST SWAP1 POP SWAP2 SWAP1 POP JUMP JUMPDEST PUSH32 0x4369726375697420627265616B65722069732061637469766500000000000000 PUSH0 DUP3 ADD MSTORE POP JUMP JUMPDEST PUSH0 PUSH2 0x1E25 PUSH1 0x19 DUP4 PUSH2 0x1787 JUMP JUMPDEST SWAP2 POP PUSH2 0x1E30 DUP3 PUSH2 0x1DF1 JUMP JUMPDEST PUSH1 0x20 DUP3 ADD SWAP1 POP SWAP2 SWAP1 POP JUMP JUMPDEST PUSH0 PUSH1 0x20 DUP3 ADD SWAP1 POP DUP2 DUP2 SUB PUSH0 DUP4 ADD MSTORE PUSH2 0x1E52 DUP2 PUSH2 0x1E19 JUMP JUMPDEST SWAP1 POP SWAP2 SWAP1 POP JUMP JUMPDEST PUSH32 0x4275726E2076616C756520696E76616C69640000000000000000000000000000 PUSH0 DUP3 ADD MSTORE POP JUMP JUMPDEST PUSH0 PUSH2 0x1E8D PUSH1 0x12 DUP4 PUSH2 0x1787 JUMP JUMPDEST SWAP2 POP PUSH2 0x1E98 DUP3 PUSH2 0x1E59 JUMP JUMPDEST PUSH1 0x20 DUP3 ADD SWAP1 POP SWAP2 SWAP1 POP JUMP JUMPDEST PUSH0 PUSH1 0x20 DUP3 ADD SWAP1 POP DUP2 DUP2 SUB PUSH0 DUP4 ADD MSTORE PUSH2 0x1EBA DUP2 PUSH2 0x1E81 JUMP JUMPDEST SWAP1 POP SWAP2 SWAP1 POP JUMP JUMPDEST PUSH0 PUSH1 0x60 DUP3 ADD SWAP1 POP PUSH2 0x1ED4 PUSH0 DUP4 ADD DUP7 PUSH2 0x1A11 JUMP JUMPDEST PUSH2 0x1EE1 PUSH1 0x20 DUP4 ADD DUP6 PUSH2 0x190F JUMP JUMPDEST PUSH2 0x1EEE PUSH1 0x40 DUP4 ADD DUP5 PUSH2 0x190F JUMP JUMPDEST SWAP5 SWAP4 POP POP POP POP JUMP INVALID LOG2 PUSH5 0x6970667358 0x22 SLT KECCAK256 SWAP13 PUSH4 0xAD704E6F DUP7 STATICCALL CODECOPY GASLIMIT SWAP2 CALLVALUE 0xD6 0xC5 0xEA GAS 0xBE 0xCB PUSH26 0x23385F4E9ACF1DCF228A3F91FE64736F6C634300081A00330000 "
				},
				"gasEstimates": {
					"creation": {
						"codeDepositCost": "1596000",
						"executionCost": "infinite",
						"totalCost": "infinite"
					},
					"external": {
						"addLiquidity(uint256)": "infinite",
						"allowance(address,address)": "infinite",
						"approve(address,uint256)": "infinite",
						"balanceOf(address)": "2962",
						"burn(uint256)": "infinite",
						"burnFrom(address,uint256)": "infinite",
						"calculateReward(address)": "infinite",
						"decimals()": "2518",
						"decimalsPlaces()": "2577",
						"disableCircuitBreaker()": "infinite",
						"enableCircuitBreaker()": "infinite",
						"maxSupply()": "2491",
						"name()": "infinite",
						"owner()": "2582",
						"ownerAddLiquidity(uint256)": "infinite",
						"ownerRemoveLiquidity(uint256)": "infinite",
						"removeLiquidityAndClaimRewards(uint256)": "infinite",
						"renounceOwnership()": "infinite",
						"symbol()": "infinite",
						"totalSupply()": "2500",
						"transfer(address,uint256)": "infinite",
						"transferFrom(address,address,uint256)": "infinite",
						"transferOwnership(address)": "infinite"
					},
					"internal": {
						"_beforeTokenTransfer(address,address,uint256)": "infinite",
						"_transfer(address,address,uint256)": "infinite"
					}
				},
				"methodIdentifiers": {
					"addLiquidity(uint256)": "51c6590a",
					"allowance(address,address)": "dd62ed3e",
					"approve(address,uint256)": "095ea7b3",
					"balanceOf(address)": "70a08231",
					"burn(uint256)": "42966c68",
					"burnFrom(address,uint256)": "79cc6790",
					"calculateReward(address)": "d82e3962",
					"decimals()": "313ce567",
					"decimalsPlaces()": "52756986",
					"disableCircuitBreaker()": "21208fa2",
					"enableCircuitBreaker()": "a64254c3",
					"maxSupply()": "d5abeb01",
					"name()": "06fdde03",
					"owner()": "8da5cb5b",
					"ownerAddLiquidity(uint256)": "afe8289a",
					"ownerRemoveLiquidity(uint256)": "2254b79c",
					"removeLiquidityAndClaimRewards(uint256)": "c8052107",
					"renounceOwnership()": "715018a6",
					"symbol()": "95d89b41",
					"totalSupply()": "18160ddd",
					"transfer(address,uint256)": "a9059cbb",
					"transferFrom(address,address,uint256)": "23b872dd",
					"transferOwnership(address)": "f2fde38b"
				}
			},
			"storageLayout": {
				"storage": [
					{
						"astId": 801,
						"contract": "GenericLayout.sol:GenericLayout",
						"label": "_balances",
						"offset": 0,
						"slot": "0",
						"type": "t_mapping(t_address,t_uint256)"
					},
					{
						"astId": 807,
						"contract": "GenericLayout.sol:GenericLayout",
						"label": "_allowances",
						"offset": 0,
						"slot": "1",
						"type": "t_mapping(t_address,t_mapping(t_address,t_uint256))"
					},
					{
						"astId": 809,
						"contract": "GenericLayout.sol:GenericLayout",
						"label": "_totalSupply",
						"offset": 0,
						"slot": "2",
						"type": "t_uint256"
					},
					{
						"astId": 811,
						"contract": "GenericLayout.sol:GenericLayout",
						"label": "_name",
						"offset": 0,
						"slot": "3",
						"type": "t_string_storage"
					},
					{
						"astId": 813,
						"contract": "GenericLayout.sol:GenericLayout",
						"label": "_symbol",
						"offset": 0,
						"slot": "4",
						"type": "t_string_storage"
					},
					{
						"astId": 438,
						"contract": "GenericLayout.sol:GenericLayout",
						"label": "_owner",
						"offset": 0,
						"slot": "5",
						"type": "t_address"
					},
					{
						"astId": 725,
						"contract": "GenericLayout.sol:GenericLayout",
						"label": "_status",
						"offset": 0,
						"slot": "6",
						"type": "t_uint256"
					},
					{
						"astId": 15,
						"contract": "GenericLayout.sol:GenericLayout",
						"label": "maxSupply",
						"offset": 0,
						"slot": "7",
						"type": "t_uint256"
					},
					{
						"astId": 17,
						"contract": "GenericLayout.sol:GenericLayout",
						"label": "decimalsPlaces",
						"offset": 0,
						"slot": "8",
						"type": "t_uint8"
					},
					{
						"astId": 21,
						"contract": "GenericLayout.sol:GenericLayout",
						"label": "_liquidityProvided",
						"offset": 0,
						"slot": "9",
						"type": "t_mapping(t_address,t_uint256)"
					},
					{
						"astId": 25,
						"contract": "GenericLayout.sol:GenericLayout",
						"label": "_liquidityProvidedTimestamp",
						"offset": 0,
						"slot": "10",
						"type": "t_mapping(t_address,t_uint256)"
					},
					{
						"astId": 80,
						"contract": "GenericLayout.sol:GenericLayout",
						"label": "_circuitBreakerEnabled",
						"offset": 0,
						"slot": "11",
						"type": "t_bool"
					}
				],
				"types": {
					"t_address": {
						"encoding": "inplace",
						"label": "address",
						"numberOfBytes": "20"
					},
					"t_bool": {
						"encoding": "inplace",
						"label": "bool",
						"numberOfBytes": "1"
					},
					"t_mapping(t_address,t_mapping(t_address,t_uint256))": {
						"encoding": "mapping",
						"key": "t_address",
						"label": "mapping(address => mapping(address => uint256))",
						"numberOfBytes": "32",
						"value": "t_mapping(t_address,t_uint256)"
					},
					"t_mapping(t_address,t_uint256)": {
						"encoding": "mapping",
						"key": "t_address",
						"label": "mapping(address => uint256)",
						"numberOfBytes": "32",
						"value": "t_uint256"
					},
					"t_string_storage": {
						"encoding": "bytes",
						"label": "string",
						"numberOfBytes": "32"
					},
					"t_uint256": {
						"encoding": "inplace",
						"label": "uint256",
						"numberOfBytes": "32"
					},
					"t_uint8": {
						"encoding": "inplace",
						"label": "uint8",
						"numberOfBytes": "1"
					}
				}
			},
			"userdoc": {
				"kind": "user",
				"methods": {},
				"version": 1
			}
		}
	}
}