{
	"tESTtWEET.SOL": {
		"Tweet_On_Base": {
			"abi": [
				{
					"inputs": [],
					"stateMutability": "nonpayable",
					"type": "constructor"
				},
				{
					"inputs": [
						{
							"internalType": "address",
							"name": "spender",
							"type": "address"
						},
						{
							"internalType": "uint256",
							"name": "allowance",
							"type": "uint256"
						},
						{
							"internalType": "uint256",
							"name": "needed",
							"type": "uint256"
						}
					],
					"name": "ERC20InsufficientAllowance",
					"type": "error"
				},
				{
					"inputs": [
						{
							"internalType": "address",
							"name": "sender",
							"type": "address"
						},
						{
							"internalType": "uint256",
							"name": "balance",
							"type": "uint256"
						},
						{
							"internalType": "uint256",
							"name": "needed",
							"type": "uint256"
						}
					],
					"name": "ERC20InsufficientBalance",
					"type": "error"
				},
				{
					"inputs": [
						{
							"internalType": "address",
							"name": "approver",
							"type": "address"
						}
					],
					"name": "ERC20InvalidApprover",
					"type": "error"
				},
				{
					"inputs": [
						{
							"internalType": "address",
							"name": "receiver",
							"type": "address"
						}
					],
					"name": "ERC20InvalidReceiver",
					"type": "error"
				},
				{
					"inputs": [
						{
							"internalType": "address",
							"name": "sender",
							"type": "address"
						}
					],
					"name": "ERC20InvalidSender",
					"type": "error"
				},
				{
					"inputs": [
						{
							"internalType": "address",
							"name": "spender",
							"type": "address"
						}
					],
					"name": "ERC20InvalidSpender",
					"type": "error"
				},
				{
					"inputs": [
						{
							"internalType": "address",
							"name": "owner",
							"type": "address"
						}
					],
					"name": "OwnableInvalidOwner",
					"type": "error"
				},
				{
					"inputs": [
						{
							"internalType": "address",
							"name": "account",
							"type": "address"
						}
					],
					"name": "OwnableUnauthorizedAccount",
					"type": "error"
				},
				{
					"anonymous": false,
					"inputs": [
						{
							"indexed": true,
							"internalType": "address",
							"name": "owner",
							"type": "address"
						},
						{
							"indexed": true,
							"internalType": "address",
							"name": "spender",
							"type": "address"
						},
						{
							"indexed": false,
							"internalType": "uint256",
							"name": "value",
							"type": "uint256"
						}
					],
					"name": "Approval",
					"type": "event"
				},
				{
					"anonymous": false,
					"inputs": [
						{
							"indexed": true,
							"internalType": "address",
							"name": "previousOwner",
							"type": "address"
						},
						{
							"indexed": true,
							"internalType": "address",
							"name": "newOwner",
							"type": "address"
						}
					],
					"name": "OwnershipTransferred",
					"type": "event"
				},
				{
					"anonymous": false,
					"inputs": [
						{
							"indexed": false,
							"internalType": "address",
							"name": "account",
							"type": "address"
						}
					],
					"name": "Paused",
					"type": "event"
				},
				{
					"anonymous": false,
					"inputs": [
						{
							"indexed": true,
							"internalType": "address",
							"name": "from",
							"type": "address"
						},
						{
							"indexed": true,
							"internalType": "address",
							"name": "to",
							"type": "address"
						},
						{
							"indexed": false,
							"internalType": "uint256",
							"name": "value",
							"type": "uint256"
						}
					],
					"name": "Transfer",
					"type": "event"
				},
				{
					"anonymous": false,
					"inputs": [
						{
							"indexed": false,
							"internalType": "address",
							"name": "account",
							"type": "address"
						}
					],
					"name": "Unpaused",
					"type": "event"
				},
				{
					"inputs": [],
					"name": "INITIAL_SUPPLY",
					"outputs": [
						{
							"internalType": "uint256",
							"name": "",
							"type": "uint256"
						}
					],
					"stateMutability": "view",
					"type": "function"
				},
				{
					"inputs": [],
					"name": "MAX_SUPPLY",
					"outputs": [
						{
							"internalType": "uint256",
							"name": "",
							"type": "uint256"
						}
					],
					"stateMutability": "view",
					"type": "function"
				},
				{
					"inputs": [
						{
							"internalType": "uint256",
							"name": "amount",
							"type": "uint256"
						}
					],
					"name": "addLiquidity",
					"outputs": [],
					"stateMutability": "nonpayable",
					"type": "function"
				},
				{
					"inputs": [
						{
							"internalType": "address",
							"name": "owner",
							"type": "address"
						},
						{
							"internalType": "address",
							"name": "spender",
							"type": "address"
						}
					],
					"name": "allowance",
					"outputs": [
						{
							"internalType": "uint256",
							"name": "",
							"type": "uint256"
						}
					],
					"stateMutability": "view",
					"type": "function"
				},
				{
					"inputs": [
						{
							"internalType": "address",
							"name": "spender",
							"type": "address"
						},
						{
							"internalType": "uint256",
							"name": "value",
							"type": "uint256"
						}
					],
					"name": "approve",
					"outputs": [
						{
							"internalType": "bool",
							"name": "",
							"type": "bool"
						}
					],
					"stateMutability": "nonpayable",
					"type": "function"
				},
				{
					"inputs": [
						{
							"internalType": "address",
							"name": "account",
							"type": "address"
						}
					],
					"name": "balanceOf",
					"outputs": [
						{
							"internalType": "uint256",
							"name": "",
							"type": "uint256"
						}
					],
					"stateMutability": "view",
					"type": "function"
				},
				{
					"inputs": [
						{
							"internalType": "uint256",
							"name": "value",
							"type": "uint256"
						}
					],
					"name": "burn",
					"outputs": [],
					"stateMutability": "nonpayable",
					"type": "function"
				},
				{
					"inputs": [
						{
							"internalType": "address",
							"name": "account",
							"type": "address"
						},
						{
							"internalType": "uint256",
							"name": "value",
							"type": "uint256"
						}
					],
					"name": "burnFrom",
					"outputs": [],
					"stateMutability": "nonpayable",
					"type": "function"
				},
				{
					"inputs": [
						{
							"internalType": "address",
							"name": "user",
							"type": "address"
						}
					],
					"name": "calculateReward",
					"outputs": [
						{
							"internalType": "uint256",
							"name": "",
							"type": "uint256"
						}
					],
					"stateMutability": "view",
					"type": "function"
				},
				{
					"inputs": [],
					"name": "decimals",
					"outputs": [
						{
							"internalType": "uint8",
							"name": "",
							"type": "uint8"
						}
					],
					"stateMutability": "view",
					"type": "function"
				},
				{
					"inputs": [],
					"name": "disableCircuitBreaker",
					"outputs": [],
					"stateMutability": "nonpayable",
					"type": "function"
				},
				{
					"inputs": [],
					"name": "enableCircuitBreaker",
					"outputs": [],
					"stateMutability": "nonpayable",
					"type": "function"
				},
				{
					"inputs": [],
					"name": "name",
					"outputs": [
						{
							"internalType": "string",
							"name": "",
							"type": "string"
						}
					],
					"stateMutability": "view",
					"type": "function"
				},
				{
					"inputs": [],
					"name": "owner",
					"outputs": [
						{
							"internalType": "address",
							"name": "",
							"type": "address"
						}
					],
					"stateMutability": "view",
					"type": "function"
				},
				{
					"inputs": [
						{
							"internalType": "uint256",
							"name": "amount",
							"type": "uint256"
						}
					],
					"name": "ownerAddLiquidity",
					"outputs": [],
					"stateMutability": "nonpayable",
					"type": "function"
				},
				{
					"inputs": [
						{
							"internalType": "uint256",
							"name": "amount",
							"type": "uint256"
						}
					],
					"name": "ownerRemoveLiquidity",
					"outputs": [],
					"stateMutability": "nonpayable",
					"type": "function"
				},
				{
					"inputs": [],
					"name": "pause",
					"outputs": [],
					"stateMutability": "nonpayable",
					"type": "function"
				},
				{
					"inputs": [],
					"name": "paused",
					"outputs": [
						{
							"internalType": "bool",
							"name": "",
							"type": "bool"
						}
					],
					"stateMutability": "view",
					"type": "function"
				},
				{
					"inputs": [
						{
							"internalType": "uint256",
							"name": "amount",
							"type": "uint256"
						}
					],
					"name": "removeLiquidityAndClaimRewards",
					"outputs": [],
					"stateMutability": "nonpayable",
					"type": "function"
				},
				{
					"inputs": [],
					"name": "renounceOwnership",
					"outputs": [],
					"stateMutability": "nonpayable",
					"type": "function"
				},
				{
					"inputs": [],
					"name": "symbol",
					"outputs": [
						{
							"internalType": "string",
							"name": "",
							"type": "string"
						}
					],
					"stateMutability": "view",
					"type": "function"
				},
				{
					"inputs": [],
					"name": "totalSupply",
					"outputs": [
						{
							"internalType": "uint256",
							"name": "",
							"type": "uint256"
						}
					],
					"stateMutability": "view",
					"type": "function"
				},
				{
					"inputs": [
						{
							"internalType": "address",
							"name": "to",
							"type": "address"
						},
						{
							"internalType": "uint256",
							"name": "value",
							"type": "uint256"
						}
					],
					"name": "transfer",
					"outputs": [
						{
							"internalType": "bool",
							"name": "",
							"type": "bool"
						}
					],
					"stateMutability": "nonpayable",
					"type": "function"
				},
				{
					"inputs": [
						{
							"internalType": "address",
							"name": "from",
							"type": "address"
						},
						{
							"internalType": "address",
							"name": "to",
							"type": "address"
						},
						{
							"internalType": "uint256",
							"name": "value",
							"type": "uint256"
						}
					],
					"name": "transferFrom",
					"outputs": [
						{
							"internalType": "bool",
							"name": "",
							"type": "bool"
						}
					],
					"stateMutability": "nonpayable",
					"type": "function"
				},
				{
					"inputs": [
						{
							"internalType": "address",
							"name": "newOwner",
							"type": "address"
						}
					],
					"name": "transferOwnership",
					"outputs": [],
					"stateMutability": "nonpayable",
					"type": "function"
				},
				{
					"inputs": [],
					"name": "unpause",
					"outputs": [],
					"stateMutability": "nonpayable",
					"type": "function"
				}
			],
			"devdoc": {
				"errors": {
					"ERC20InsufficientAllowance(address,uint256,uint256)": [
						{
							"details": "Indicates a failure with the `spender`’s `allowance`. Used in transfers.",
							"params": {
								"allowance": "Amount of tokens a `spender` is allowed to operate with.",
								"needed": "Minimum amount required to perform a transfer.",
								"spender": "Address that may be allowed to operate on tokens without being their owner."
							}
						}
					],
					"ERC20InsufficientBalance(address,uint256,uint256)": [
						{
							"details": "Indicates an error related to the current `balance` of a `sender`. Used in transfers.",
							"params": {
								"balance": "Current balance for the interacting account.",
								"needed": "Minimum amount required to perform a transfer.",
								"sender": "Address whose tokens are being transferred."
							}
						}
					],
					"ERC20InvalidApprover(address)": [
						{
							"details": "Indicates a failure with the `approver` of a token to be approved. Used in approvals.",
							"params": {
								"approver": "Address initiating an approval operation."
							}
						}
					],
					"ERC20InvalidReceiver(address)": [
						{
							"details": "Indicates a failure with the token `receiver`. Used in transfers.",
							"params": {
								"receiver": "Address to which tokens are being transferred."
							}
						}
					],
					"ERC20InvalidSender(address)": [
						{
							"details": "Indicates a failure with the token `sender`. Used in transfers.",
							"params": {
								"sender": "Address whose tokens are being transferred."
							}
						}
					],
					"ERC20InvalidSpender(address)": [
						{
							"details": "Indicates a failure with the `spender` to be approved. Used in approvals.",
							"params": {
								"spender": "Address that may be allowed to operate on tokens without being their owner."
							}
						}
					],
					"OwnableInvalidOwner(address)": [
						{
							"details": "The owner is not a valid owner account. (eg. `address(0)`)"
						}
					],
					"OwnableUnauthorizedAccount(address)": [
						{
							"details": "The caller account is not authorized to perform an operation."
						}
					]
				},
				"events": {
					"Approval(address,address,uint256)": {
						"details": "Emitted when the allowance of a `spender` for an `owner` is set by a call to {approve}. `value` is the new allowance."
					},
					"Paused(address)": {
						"details": "Emitted when the pause is triggered by `account`."
					},
					"Transfer(address,address,uint256)": {
						"details": "Emitted when `value` tokens are moved from one account (`from`) to another (`to`). Note that `value` may be zero."
					},
					"Unpaused(address)": {
						"details": "Emitted when the pause is lifted by `account`."
					}
				},
				"kind": "dev",
				"methods": {
					"allowance(address,address)": {
						"details": "See {IERC20-allowance}."
					},
					"approve(address,uint256)": {
						"details": "See {IERC20-approve}. NOTE: If `value` is the maximum `uint256`, the allowance is not updated on `transferFrom`. This is semantically equivalent to an infinite approval. Requirements: - `spender` cannot be the zero address."
					},
					"balanceOf(address)": {
						"details": "See {IERC20-balanceOf}."
					},
					"burn(uint256)": {
						"details": "Destroys a `value` amount of tokens from the caller. See {ERC20-_burn}."
					},
					"burnFrom(address,uint256)": {
						"details": "Destroys a `value` amount of tokens from `account`, deducting from the caller's allowance. See {ERC20-_burn} and {ERC20-allowance}. Requirements: - the caller must have allowance for ``accounts``'s tokens of at least `value`."
					},
					"decimals()": {
						"details": "Returns the number of decimals used to get its user representation. For example, if `decimals` equals `2`, a balance of `505` tokens should be displayed to a user as `5.05` (`505 / 10 ** 2`). Tokens usually opt for a value of 18, imitating the relationship between Ether and Wei. This is the default value returned by this function, unless it's overridden. NOTE: This information is only used for _display_ purposes: it in no way affects any of the arithmetic of the contract, including {IERC20-balanceOf} and {IERC20-transfer}."
					},
					"name()": {
						"details": "Returns the name of the token."
					},
					"owner()": {
						"details": "Returns the address of the current owner."
					},
					"paused()": {
						"details": "Returns true if the contract is paused, and false otherwise."
					},
					"renounceOwnership()": {
						"details": "Leaves the contract without owner. It will not be possible to call `onlyOwner` functions. Can only be called by the current owner. NOTE: Renouncing ownership will leave the contract without an owner, thereby disabling any functionality that is only available to the owner."
					},
					"symbol()": {
						"details": "Returns the symbol of the token, usually a shorter version of the name."
					},
					"totalSupply()": {
						"details": "See {IERC20-totalSupply}."
					},
					"transfer(address,uint256)": {
						"details": "See {IERC20-transfer}. Requirements: - `to` cannot be the zero address. - the caller must have a balance of at least `value`."
					},
					"transferFrom(address,address,uint256)": {
						"details": "See {IERC20-transferFrom}. Emits an {Approval} event indicating the updated allowance. This is not required by the EIP. See the note at the beginning of {ERC20}. NOTE: Does not update the allowance if the current allowance is the maximum `uint256`. Requirements: - `from` and `to` cannot be the zero address. - `from` must have a balance of at least `value`. - the caller must have allowance for ``from``'s tokens of at least `value`."
					},
					"transferOwnership(address)": {
						"details": "Transfers ownership of the contract to a new account (`newOwner`). Can only be called by the current owner."
					}
				},
				"version": 1
			},
			"evm": {
				"assembly": "    /* \"tESTtWEET.SOL\":291:3985  contract Tweet_On_Base is ERC20, ERC20Burnable, Pausable, Ownable, ReentrancyGuard { ... */\n  mstore(0x40, 0x80)\n    /* \"tESTtWEET.SOL\":1045:1050  false */\n  0x00\n    /* \"tESTtWEET.SOL\":1007:1050  bool private _circuitBreakerEnabled = false */\n  0x09\n  exp(0x0100, 0x00)\n  dup2\n  sload\n  dup2\n  0xff\n  mul\n  not\n  and\n  swap1\n  dup4\n  iszero\n  iszero\n  mul\n  or\n  swap1\n  sstore\n  pop\n    /* \"tESTtWEET.SOL\":747:864  constructor() ERC20(\"Tweet On Base\", \"Tweets\") Ownable(msg.sender) {... */\n  callvalue\n  dup1\n  iszero\n  tag_1\n  jumpi\n  0x00\n  dup1\n  revert\ntag_1:\n  pop\n    /* \"tESTtWEET.SOL\":802:812  msg.sender */\n  caller\n    /* \"contracts/token/ERC20/ERC20.sol\":844:957  constructor(string memory name_, string memory symbol_) {... */\n  mload(0x40)\n  dup1\n  0x40\n  add\n  0x40\n  mstore\n  dup1\n  0x0d\n  dup2\n  mstore\n  0x20\n  add\n  0x5477656574204f6e204261736500000000000000000000000000000000000000\n  dup2\n  mstore\n  pop\n  mload(0x40)\n  dup1\n  0x40\n  add\n  0x40\n  mstore\n  dup1\n  0x06\n  dup2\n  mstore\n  0x20\n  add\n  0x5477656574730000000000000000000000000000000000000000000000000000\n  dup2\n  mstore\n  pop\n    /* \"contracts/token/ERC20/ERC20.sol\":918:923  name_ */\n  dup2\n    /* \"contracts/token/ERC20/ERC20.sol\":910:915  _name */\n  0x03\n    /* \"contracts/token/ERC20/ERC20.sol\":910:923  _name = name_ */\n  swap1\n  dup2\n  tag_8\n  swap2\n  swap1\n  tag_9\n  jump\t// in\ntag_8:\n  pop\n    /* \"contracts/token/ERC20/ERC20.sol\":943:950  symbol_ */\n  dup1\n    /* \"contracts/token/ERC20/ERC20.sol\":933:940  _symbol */\n  0x04\n    /* \"contracts/token/ERC20/ERC20.sol\":933:950  _symbol = symbol_ */\n  swap1\n  dup2\n  tag_10\n  swap2\n  swap1\n  tag_9\n  jump\t// in\ntag_10:\n  pop\n    /* \"contracts/token/ERC20/ERC20.sol\":844:957  constructor(string memory name_, string memory symbol_) {... */\n  pop\n  pop\n    /* \"contracts/security/Pausable.sol\":1006:1011  false */\n  0x00\n    /* \"contracts/security/Pausable.sol\":996:1003  _paused */\n  0x05\n  0x00\n    /* \"contracts/security/Pausable.sol\":996:1011  _paused = false */\n  0x0100\n  exp\n  dup2\n  sload\n  dup2\n  0xff\n  mul\n  not\n  and\n  swap1\n  dup4\n  iszero\n  iszero\n  mul\n  or\n  swap1\n  sstore\n  pop\n    /* \"contracts/access/Ownable.sol\":1297:1298  0 */\n  0x00\n    /* \"contracts/access/Ownable.sol\":1273:1299  initialOwner == address(0) */\n  0xffffffffffffffffffffffffffffffffffffffff\n  and\n    /* \"contracts/access/Ownable.sol\":1273:1285  initialOwner */\n  dup2\n    /* \"contracts/access/Ownable.sol\":1273:1299  initialOwner == address(0) */\n  0xffffffffffffffffffffffffffffffffffffffff\n  and\n  sub\n    /* \"contracts/access/Ownable.sol\":1269:1364  if (initialOwner == address(0)) {... */\n  tag_13\n  jumpi\n    /* \"contracts/access/Ownable.sol\":1350:1351  0 */\n  0x00\n    /* \"contracts/access/Ownable.sol\":1322:1353  OwnableInvalidOwner(address(0)) */\n  mload(0x40)\n  0x1e4fbdf700000000000000000000000000000000000000000000000000000000\n  dup2\n  mstore\n  0x04\n  add\n  tag_14\n  swap2\n  swap1\n  tag_15\n  jump\t// in\ntag_14:\n  mload(0x40)\n  dup1\n  swap2\n  sub\n  swap1\n  revert\n    /* \"contracts/access/Ownable.sol\":1269:1364  if (initialOwner == address(0)) {... */\ntag_13:\n    /* \"contracts/access/Ownable.sol\":1373:1405  _transferOwnership(initialOwner) */\n  tag_16\n    /* \"contracts/access/Ownable.sol\":1392:1404  initialOwner */\n  dup2\n    /* \"contracts/access/Ownable.sol\":1373:1391  _transferOwnership */\n  shl(0x20, tag_17)\n    /* \"contracts/access/Ownable.sol\":1373:1405  _transferOwnership(initialOwner) */\n  0x20\n  shr\n  jump\t// in\ntag_16:\n    /* \"contracts/access/Ownable.sol\":1225:1412  constructor(address initialOwner) {... */\n  pop\n    /* \"contracts/security/ReentrancyGuard.sol\":1716:1717  1 */\n  0x01\n    /* \"contracts/security/ReentrancyGuard.sol\":1821:1828  _status */\n  0x06\n    /* \"contracts/security/ReentrancyGuard.sol\":1821:1843  _status = _NOT_ENTERED */\n  dup2\n  swap1\n  sstore\n  pop\n    /* \"tESTtWEET.SOL\":824:857  _mint(msg.sender, INITIAL_SUPPLY) */\n  tag_20\n    /* \"tESTtWEET.SOL\":830:840  msg.sender */\n  caller\n    /* \"tESTtWEET.SOL\":422:445  100_000_000 * (10 ** 0) */\n  0x05f5e100\n    /* \"tESTtWEET.SOL\":824:829  _mint */\n  shl(0x20, tag_21)\n    /* \"tESTtWEET.SOL\":824:857  _mint(msg.sender, INITIAL_SUPPLY) */\n  0x20\n  shr\n  jump\t// in\ntag_20:\n    /* \"tESTtWEET.SOL\":291:3985  contract Tweet_On_Base is ERC20, ERC20Burnable, Pausable, Ownable, ReentrancyGuard { ... */\n  jump(tag_22)\n    /* \"contracts/access/Ownable.sol\":2912:3099  function _transferOwnership(address newOwner) internal virtual {... */\ntag_17:\n    /* \"contracts/access/Ownable.sol\":2985:3001  address oldOwner */\n  0x00\n    /* \"contracts/access/Ownable.sol\":3004:3010  _owner */\n  0x05\n  0x01\n  swap1\n  sload\n  swap1\n  0x0100\n  exp\n  swap1\n  div\n  0xffffffffffffffffffffffffffffffffffffffff\n  and\n    /* \"contracts/access/Ownable.sol\":2985:3010  address oldOwner = _owner */\n  swap1\n  pop\n    /* \"contracts/access/Ownable.sol\":3029:3037  newOwner */\n  dup2\n    /* \"contracts/access/Ownable.sol\":3020:3026  _owner */\n  0x05\n  0x01\n    /* \"contracts/access/Ownable.sol\":3020:3037  _owner = newOwner */\n  0x0100\n  exp\n  dup2\n  sload\n  dup2\n  0xffffffffffffffffffffffffffffffffffffffff\n  mul\n  not\n  and\n  swap1\n  dup4\n  0xffffffffffffffffffffffffffffffffffffffff\n  and\n  mul\n  or\n  swap1\n  sstore\n  pop\n    /* \"contracts/access/Ownable.sol\":3083:3091  newOwner */\n  dup2\n    /* \"contracts/access/Ownable.sol\":3052:3092  OwnershipTransferred(oldOwner, newOwner) */\n  0xffffffffffffffffffffffffffffffffffffffff\n  and\n    /* \"contracts/access/Ownable.sol\":3073:3081  oldOwner */\n  dup2\n    /* \"contracts/access/Ownable.sol\":3052:3092  OwnershipTransferred(oldOwner, newOwner) */\n  0xffffffffffffffffffffffffffffffffffffffff\n  and\n  0x8be0079c531659141344cd1fd0a4f28419497f9722a3daafe3b4186f6b6457e0\n  mload(0x40)\n  mload(0x40)\n  dup1\n  swap2\n  sub\n  swap1\n  log3\n    /* \"contracts/access/Ownable.sol\":2975:3099  {... */\n  pop\n    /* \"contracts/access/Ownable.sol\":2912:3099  function _transferOwnership(address newOwner) internal virtual {... */\n  pop\n  jump\t// out\n    /* \"contracts/token/ERC20/ERC20.sol\":6677:6894  function _mint(address account, uint256 value) internal virtual  {... */\ntag_21:\n    /* \"contracts/token/ERC20/ERC20.sol\":6775:6776  0 */\n  0x00\n    /* \"contracts/token/ERC20/ERC20.sol\":6756:6777  account == address(0) */\n  0xffffffffffffffffffffffffffffffffffffffff\n  and\n    /* \"contracts/token/ERC20/ERC20.sol\":6756:6763  account */\n  dup3\n    /* \"contracts/token/ERC20/ERC20.sol\":6756:6777  account == address(0) */\n  0xffffffffffffffffffffffffffffffffffffffff\n  and\n  sub\n    /* \"contracts/token/ERC20/ERC20.sol\":6752:6843  if (account == address(0)) {... */\n  tag_25\n  jumpi\n    /* \"contracts/token/ERC20/ERC20.sol\":6829:6830  0 */\n  0x00\n    /* \"contracts/token/ERC20/ERC20.sol\":6800:6832  ERC20InvalidReceiver(address(0)) */\n  mload(0x40)\n  0xec442f0500000000000000000000000000000000000000000000000000000000\n  dup2\n  mstore\n  0x04\n  add\n  tag_26\n  swap2\n  swap1\n  tag_15\n  jump\t// in\ntag_26:\n  mload(0x40)\n  dup1\n  swap2\n  sub\n  swap1\n  revert\n    /* \"contracts/token/ERC20/ERC20.sol\":6752:6843  if (account == address(0)) {... */\ntag_25:\n    /* \"contracts/token/ERC20/ERC20.sol\":6852:6887  _update(address(0), account, value) */\n  tag_27\n    /* \"contracts/token/ERC20/ERC20.sol\":6868:6869  0 */\n  0x00\n    /* \"contracts/token/ERC20/ERC20.sol\":6872:6879  account */\n  dup4\n    /* \"contracts/token/ERC20/ERC20.sol\":6881:6886  value */\n  dup4\n    /* \"contracts/token/ERC20/ERC20.sol\":6852:6859  _update */\n  shl(0x20, tag_28)\n    /* \"contracts/token/ERC20/ERC20.sol\":6852:6887  _update(address(0), account, value) */\n  0x20\n  shr\n  jump\t// in\ntag_27:\n    /* \"contracts/token/ERC20/ERC20.sol\":6677:6894  function _mint(address account, uint256 value) internal virtual  {... */\n  pop\n  pop\n  jump\t// out\n    /* \"contracts/token/ERC20/ERC20.sol\":5227:6334  function _update(address from, address to, uint256 value) internal virtual {... */\ntag_28:\n    /* \"contracts/token/ERC20/ERC20.sol\":5332:5333  0 */\n  0x00\n    /* \"contracts/token/ERC20/ERC20.sol\":5316:5334  from == address(0) */\n  0xffffffffffffffffffffffffffffffffffffffff\n  and\n    /* \"contracts/token/ERC20/ERC20.sol\":5316:5320  from */\n  dup4\n    /* \"contracts/token/ERC20/ERC20.sol\":5316:5334  from == address(0) */\n  0xffffffffffffffffffffffffffffffffffffffff\n  and\n  sub\n    /* \"contracts/token/ERC20/ERC20.sol\":5312:5852  if (from == address(0)) {... */\n  tag_30\n  jumpi\n    /* \"contracts/token/ERC20/ERC20.sol\":5468:5473  value */\n  dup1\n    /* \"contracts/token/ERC20/ERC20.sol\":5452:5464  _totalSupply */\n  0x02\n  0x00\n    /* \"contracts/token/ERC20/ERC20.sol\":5452:5473  _totalSupply += value */\n  dup3\n  dup3\n  sload\n  tag_31\n  swap2\n  swap1\n  tag_32\n  jump\t// in\ntag_31:\n  swap3\n  pop\n  pop\n  dup2\n  swap1\n  sstore\n  pop\n    /* \"contracts/token/ERC20/ERC20.sol\":5312:5852  if (from == address(0)) {... */\n  jump(tag_33)\ntag_30:\n    /* \"contracts/token/ERC20/ERC20.sol\":5504:5523  uint256 fromBalance */\n  0x00\n    /* \"contracts/token/ERC20/ERC20.sol\":5526:5535  _balances */\n  dup1\n    /* \"contracts/token/ERC20/ERC20.sol\":5526:5541  _balances[from] */\n  0x00\n    /* \"contracts/token/ERC20/ERC20.sol\":5536:5540  from */\n  dup6\n    /* \"contracts/token/ERC20/ERC20.sol\":5526:5541  _balances[from] */\n  0xffffffffffffffffffffffffffffffffffffffff\n  and\n  0xffffffffffffffffffffffffffffffffffffffff\n  and\n  dup2\n  mstore\n  0x20\n  add\n  swap1\n  dup2\n  mstore\n  0x20\n  add\n  0x00\n  keccak256\n  sload\n    /* \"contracts/token/ERC20/ERC20.sol\":5504:5541  uint256 fromBalance = _balances[from] */\n  swap1\n  pop\n    /* \"contracts/token/ERC20/ERC20.sol\":5573:5578  value */\n  dup2\n    /* \"contracts/token/ERC20/ERC20.sol\":5559:5570  fromBalance */\n  dup2\n    /* \"contracts/token/ERC20/ERC20.sol\":5559:5578  fromBalance < value */\n  lt\n    /* \"contracts/token/ERC20/ERC20.sol\":5555:5670  if (fromBalance < value) {... */\n  iszero\n  tag_34\n  jumpi\n    /* \"contracts/token/ERC20/ERC20.sol\":5630:5634  from */\n  dup4\n    /* \"contracts/token/ERC20/ERC20.sol\":5636:5647  fromBalance */\n  dup2\n    /* \"contracts/token/ERC20/ERC20.sol\":5649:5654  value */\n  dup4\n    /* \"contracts/token/ERC20/ERC20.sol\":5605:5655  ERC20InsufficientBalance(from, fromBalance, value) */\n  mload(0x40)\n  0xe450d38c00000000000000000000000000000000000000000000000000000000\n  dup2\n  mstore\n  0x04\n  add\n  tag_35\n  swap4\n  swap3\n  swap2\n  swap1\n  tag_36\n  jump\t// in\ntag_35:\n  mload(0x40)\n  dup1\n  swap2\n  sub\n  swap1\n  revert\n    /* \"contracts/token/ERC20/ERC20.sol\":5555:5670  if (fromBalance < value) {... */\ntag_34:\n    /* \"contracts/token/ERC20/ERC20.sol\":5822:5827  value */\n  dup2\n    /* \"contracts/token/ERC20/ERC20.sol\":5808:5819  fromBalance */\n  dup2\n    /* \"contracts/token/ERC20/ERC20.sol\":5808:5827  fromBalance - value */\n  sub\n    /* \"contracts/token/ERC20/ERC20.sol\":5790:5799  _balances */\n  0x00\n    /* \"contracts/token/ERC20/ERC20.sol\":5790:5805  _balances[from] */\n  dup1\n    /* \"contracts/token/ERC20/ERC20.sol\":5800:5804  from */\n  dup7\n    /* \"contracts/token/ERC20/ERC20.sol\":5790:5805  _balances[from] */\n  0xffffffffffffffffffffffffffffffffffffffff\n  and\n  0xffffffffffffffffffffffffffffffffffffffff\n  and\n  dup2\n  mstore\n  0x20\n  add\n  swap1\n  dup2\n  mstore\n  0x20\n  add\n  0x00\n  keccak256\n    /* \"contracts/token/ERC20/ERC20.sol\":5790:5827  _balances[from] = fromBalance - value */\n  dup2\n  swap1\n  sstore\n  pop\n    /* \"contracts/token/ERC20/ERC20.sol\":5490:5852  {... */\n  pop\n    /* \"contracts/token/ERC20/ERC20.sol\":5312:5852  if (from == address(0)) {... */\ntag_33:\n    /* \"contracts/token/ERC20/ERC20.sol\":5880:5881  0 */\n  0x00\n    /* \"contracts/token/ERC20/ERC20.sol\":5866:5882  to == address(0) */\n  0xffffffffffffffffffffffffffffffffffffffff\n  and\n    /* \"contracts/token/ERC20/ERC20.sol\":5866:5868  to */\n  dup3\n    /* \"contracts/token/ERC20/ERC20.sol\":5866:5882  to == address(0) */\n  0xffffffffffffffffffffffffffffffffffffffff\n  and\n  sub\n    /* \"contracts/token/ERC20/ERC20.sol\":5862:6287  if (to == address(0)) {... */\n  tag_37\n  jumpi\n    /* \"contracts/token/ERC20/ERC20.sol\":6045:6050  value */\n  dup1\n    /* \"contracts/token/ERC20/ERC20.sol\":6029:6041  _totalSupply */\n  0x02\n  0x00\n    /* \"contracts/token/ERC20/ERC20.sol\":6029:6050  _totalSupply -= value */\n  dup3\n  dup3\n  sload\n  sub\n  swap3\n  pop\n  pop\n  dup2\n  swap1\n  sstore\n  pop\n    /* \"contracts/token/ERC20/ERC20.sol\":5862:6287  if (to == address(0)) {... */\n  jump(tag_38)\ntag_37:\n    /* \"contracts/token/ERC20/ERC20.sol\":6257:6262  value */\n  dup1\n    /* \"contracts/token/ERC20/ERC20.sol\":6240:6249  _balances */\n  0x00\n    /* \"contracts/token/ERC20/ERC20.sol\":6240:6253  _balances[to] */\n  dup1\n    /* \"contracts/token/ERC20/ERC20.sol\":6250:6252  to */\n  dup5\n    /* \"contracts/token/ERC20/ERC20.sol\":6240:6253  _balances[to] */\n  0xffffffffffffffffffffffffffffffffffffffff\n  and\n  0xffffffffffffffffffffffffffffffffffffffff\n  and\n  dup2\n  mstore\n  0x20\n  add\n  swap1\n  dup2\n  mstore\n  0x20\n  add\n  0x00\n  keccak256\n  0x00\n    /* \"contracts/token/ERC20/ERC20.sol\":6240:6262  _balances[to] += value */\n  dup3\n  dup3\n  sload\n  add\n  swap3\n  pop\n  pop\n  dup2\n  swap1\n  sstore\n  pop\n    /* \"contracts/token/ERC20/ERC20.sol\":5862:6287  if (to == address(0)) {... */\ntag_38:\n    /* \"contracts/token/ERC20/ERC20.sol\":6317:6319  to */\n  dup2\n    /* \"contracts/token/ERC20/ERC20.sol\":6302:6327  Transfer(from, to, value) */\n  0xffffffffffffffffffffffffffffffffffffffff\n  and\n    /* \"contracts/token/ERC20/ERC20.sol\":6311:6315  from */\n  dup4\n    /* \"contracts/token/ERC20/ERC20.sol\":6302:6327  Transfer(from, to, value) */\n  0xffffffffffffffffffffffffffffffffffffffff\n  and\n  0xddf252ad1be2c89b69c2b068fc378daa952ba7f163c4a11628f55a4df523b3ef\n    /* \"contracts/token/ERC20/ERC20.sol\":6321:6326  value */\n  dup4\n    /* \"contracts/token/ERC20/ERC20.sol\":6302:6327  Transfer(from, to, value) */\n  mload(0x40)\n  tag_39\n  swap2\n  swap1\n  tag_40\n  jump\t// in\ntag_39:\n  mload(0x40)\n  dup1\n  swap2\n  sub\n  swap1\n  log3\n    /* \"contracts/token/ERC20/ERC20.sol\":5227:6334  function _update(address from, address to, uint256 value) internal virtual {... */\n  pop\n  pop\n  pop\n  jump\t// out\n    /* \"#utility.yul\":7:106   */\ntag_41:\n    /* \"#utility.yul\":59:65   */\n  0x00\n    /* \"#utility.yul\":93:98   */\n  dup2\n    /* \"#utility.yul\":87:99   */\n  mload\n    /* \"#utility.yul\":77:99   */\n  swap1\n  pop\n    /* \"#utility.yul\":7:106   */\n  swap2\n  swap1\n  pop\n  jump\t// out\n    /* \"#utility.yul\":112:292   */\ntag_42:\n    /* \"#utility.yul\":160:237   */\n  0x4e487b7100000000000000000000000000000000000000000000000000000000\n    /* \"#utility.yul\":157:158   */\n  0x00\n    /* \"#utility.yul\":150:238   */\n  mstore\n    /* \"#utility.yul\":257:261   */\n  0x41\n    /* \"#utility.yul\":254:255   */\n  0x04\n    /* \"#utility.yul\":247:262   */\n  mstore\n    /* \"#utility.yul\":281:285   */\n  0x24\n    /* \"#utility.yul\":278:279   */\n  0x00\n    /* \"#utility.yul\":271:286   */\n  revert\n    /* \"#utility.yul\":298:478   */\ntag_43:\n    /* \"#utility.yul\":346:423   */\n  0x4e487b7100000000000000000000000000000000000000000000000000000000\n    /* \"#utility.yul\":343:344   */\n  0x00\n    /* \"#utility.yul\":336:424   */\n  mstore\n    /* \"#utility.yul\":443:447   */\n  0x22\n    /* \"#utility.yul\":440:441   */\n  0x04\n    /* \"#utility.yul\":433:448   */\n  mstore\n    /* \"#utility.yul\":467:471   */\n  0x24\n    /* \"#utility.yul\":464:465   */\n  0x00\n    /* \"#utility.yul\":457:472   */\n  revert\n    /* \"#utility.yul\":484:804   */\ntag_44:\n    /* \"#utility.yul\":528:534   */\n  0x00\n    /* \"#utility.yul\":565:566   */\n  0x02\n    /* \"#utility.yul\":559:563   */\n  dup3\n    /* \"#utility.yul\":555:567   */\n  div\n    /* \"#utility.yul\":545:567   */\n  swap1\n  pop\n    /* \"#utility.yul\":612:613   */\n  0x01\n    /* \"#utility.yul\":606:610   */\n  dup3\n    /* \"#utility.yul\":602:614   */\n  and\n    /* \"#utility.yul\":633:651   */\n  dup1\n    /* \"#utility.yul\":623:704   */\n  tag_71\n  jumpi\n    /* \"#utility.yul\":689:693   */\n  0x7f\n    /* \"#utility.yul\":681:687   */\n  dup3\n    /* \"#utility.yul\":677:694   */\n  and\n    /* \"#utility.yul\":667:694   */\n  swap2\n  pop\n    /* \"#utility.yul\":623:704   */\ntag_71:\n    /* \"#utility.yul\":751:753   */\n  0x20\n    /* \"#utility.yul\":743:749   */\n  dup3\n    /* \"#utility.yul\":740:754   */\n  lt\n    /* \"#utility.yul\":720:738   */\n  dup2\n    /* \"#utility.yul\":717:755   */\n  sub\n    /* \"#utility.yul\":714:798   */\n  tag_72\n  jumpi\n    /* \"#utility.yul\":770:788   */\n  tag_73\n  tag_43\n  jump\t// in\ntag_73:\n    /* \"#utility.yul\":714:798   */\ntag_72:\n    /* \"#utility.yul\":535:804   */\n  pop\n    /* \"#utility.yul\":484:804   */\n  swap2\n  swap1\n  pop\n  jump\t// out\n    /* \"#utility.yul\":810:951   */\ntag_45:\n    /* \"#utility.yul\":859:863   */\n  0x00\n    /* \"#utility.yul\":882:885   */\n  dup2\n    /* \"#utility.yul\":874:885   */\n  swap1\n  pop\n    /* \"#utility.yul\":905:908   */\n  dup2\n    /* \"#utility.yul\":902:903   */\n  0x00\n    /* \"#utility.yul\":895:909   */\n  mstore\n    /* \"#utility.yul\":939:943   */\n  0x20\n    /* \"#utility.yul\":936:937   */\n  0x00\n    /* \"#utility.yul\":926:944   */\n  keccak256\n    /* \"#utility.yul\":918:944   */\n  swap1\n  pop\n    /* \"#utility.yul\":810:951   */\n  swap2\n  swap1\n  pop\n  jump\t// out\n    /* \"#utility.yul\":957:1050   */\ntag_46:\n    /* \"#utility.yul\":994:1000   */\n  0x00\n    /* \"#utility.yul\":1041:1043   */\n  0x20\n    /* \"#utility.yul\":1036:1038   */\n  0x1f\n    /* \"#utility.yul\":1029:1034   */\n  dup4\n    /* \"#utility.yul\":1025:1039   */\n  add\n    /* \"#utility.yul\":1021:1044   */\n  div\n    /* \"#utility.yul\":1011:1044   */\n  swap1\n  pop\n    /* \"#utility.yul\":957:1050   */\n  swap2\n  swap1\n  pop\n  jump\t// out\n    /* \"#utility.yul\":1056:1163   */\ntag_47:\n    /* \"#utility.yul\":1100:1108   */\n  0x00\n    /* \"#utility.yul\":1150:1155   */\n  dup3\n    /* \"#utility.yul\":1144:1148   */\n  dup3\n    /* \"#utility.yul\":1140:1156   */\n  shl\n    /* \"#utility.yul\":1119:1156   */\n  swap1\n  pop\n    /* \"#utility.yul\":1056:1163   */\n  swap3\n  swap2\n  pop\n  pop\n  jump\t// out\n    /* \"#utility.yul\":1169:1562   */\ntag_48:\n    /* \"#utility.yul\":1238:1244   */\n  0x00\n    /* \"#utility.yul\":1288:1289   */\n  0x08\n    /* \"#utility.yul\":1276:1286   */\n  dup4\n    /* \"#utility.yul\":1272:1290   */\n  mul\n    /* \"#utility.yul\":1311:1408   */\n  tag_78\n    /* \"#utility.yul\":1341:1407   */\n  0xffffffffffffffffffffffffffffffffffffffffffffffffffffffffffffffff\n    /* \"#utility.yul\":1330:1339   */\n  dup3\n    /* \"#utility.yul\":1311:1408   */\n  tag_47\n  jump\t// in\ntag_78:\n    /* \"#utility.yul\":1429:1468   */\n  tag_79\n    /* \"#utility.yul\":1459:1467   */\n  dup7\n    /* \"#utility.yul\":1448:1457   */\n  dup4\n    /* \"#utility.yul\":1429:1468   */\n  tag_47\n  jump\t// in\ntag_79:\n    /* \"#utility.yul\":1417:1468   */\n  swap6\n  pop\n    /* \"#utility.yul\":1501:1505   */\n  dup1\n    /* \"#utility.yul\":1497:1506   */\n  not\n    /* \"#utility.yul\":1490:1495   */\n  dup5\n    /* \"#utility.yul\":1486:1507   */\n  and\n    /* \"#utility.yul\":1477:1507   */\n  swap4\n  pop\n    /* \"#utility.yul\":1550:1554   */\n  dup1\n    /* \"#utility.yul\":1540:1548   */\n  dup7\n    /* \"#utility.yul\":1536:1555   */\n  and\n    /* \"#utility.yul\":1529:1534   */\n  dup5\n    /* \"#utility.yul\":1526:1556   */\n  or\n    /* \"#utility.yul\":1516:1556   */\n  swap3\n  pop\n    /* \"#utility.yul\":1245:1562   */\n  pop\n  pop\n    /* \"#utility.yul\":1169:1562   */\n  swap4\n  swap3\n  pop\n  pop\n  pop\n  jump\t// out\n    /* \"#utility.yul\":1568:1645   */\ntag_49:\n    /* \"#utility.yul\":1605:1612   */\n  0x00\n    /* \"#utility.yul\":1634:1639   */\n  dup2\n    /* \"#utility.yul\":1623:1639   */\n  swap1\n  pop\n    /* \"#utility.yul\":1568:1645   */\n  swap2\n  swap1\n  pop\n  jump\t// out\n    /* \"#utility.yul\":1651:1711   */\ntag_50:\n    /* \"#utility.yul\":1679:1682   */\n  0x00\n    /* \"#utility.yul\":1700:1705   */\n  dup2\n    /* \"#utility.yul\":1693:1705   */\n  swap1\n  pop\n    /* \"#utility.yul\":1651:1711   */\n  swap2\n  swap1\n  pop\n  jump\t// out\n    /* \"#utility.yul\":1717:1859   */\ntag_51:\n    /* \"#utility.yul\":1767:1776   */\n  0x00\n    /* \"#utility.yul\":1800:1853   */\n  tag_83\n    /* \"#utility.yul\":1818:1852   */\n  tag_84\n    /* \"#utility.yul\":1827:1851   */\n  tag_85\n    /* \"#utility.yul\":1845:1850   */\n  dup5\n    /* \"#utility.yul\":1827:1851   */\n  tag_49\n  jump\t// in\ntag_85:\n    /* \"#utility.yul\":1818:1852   */\n  tag_50\n  jump\t// in\ntag_84:\n    /* \"#utility.yul\":1800:1853   */\n  tag_49\n  jump\t// in\ntag_83:\n    /* \"#utility.yul\":1787:1853   */\n  swap1\n  pop\n    /* \"#utility.yul\":1717:1859   */\n  swap2\n  swap1\n  pop\n  jump\t// out\n    /* \"#utility.yul\":1865:1940   */\ntag_52:\n    /* \"#utility.yul\":1908:1911   */\n  0x00\n    /* \"#utility.yul\":1929:1934   */\n  dup2\n    /* \"#utility.yul\":1922:1934   */\n  swap1\n  pop\n    /* \"#utility.yul\":1865:1940   */\n  swap2\n  swap1\n  pop\n  jump\t// out\n    /* \"#utility.yul\":1946:2215   */\ntag_53:\n    /* \"#utility.yul\":2056:2095   */\n  tag_88\n    /* \"#utility.yul\":2087:2094   */\n  dup4\n    /* \"#utility.yul\":2056:2095   */\n  tag_51\n  jump\t// in\ntag_88:\n    /* \"#utility.yul\":2117:2208   */\n  tag_89\n    /* \"#utility.yul\":2166:2207   */\n  tag_90\n    /* \"#utility.yul\":2190:2206   */\n  dup3\n    /* \"#utility.yul\":2166:2207   */\n  tag_52\n  jump\t// in\ntag_90:\n    /* \"#utility.yul\":2158:2164   */\n  dup5\n    /* \"#utility.yul\":2151:2155   */\n  dup5\n    /* \"#utility.yul\":2145:2156   */\n  sload\n    /* \"#utility.yul\":2117:2208   */\n  tag_48\n  jump\t// in\ntag_89:\n    /* \"#utility.yul\":2111:2115   */\n  dup3\n    /* \"#utility.yul\":2104:2209   */\n  sstore\n    /* \"#utility.yul\":2022:2215   */\n  pop\n    /* \"#utility.yul\":1946:2215   */\n  pop\n  pop\n  pop\n  jump\t// out\n    /* \"#utility.yul\":2221:2294   */\ntag_54:\n    /* \"#utility.yul\":2266:2269   */\n  0x00\n    /* \"#utility.yul\":2221:2294   */\n  swap1\n  jump\t// out\n    /* \"#utility.yul\":2300:2489   */\ntag_55:\n    /* \"#utility.yul\":2377:2409   */\n  tag_93\n  tag_54\n  jump\t// in\ntag_93:\n    /* \"#utility.yul\":2418:2483   */\n  tag_94\n    /* \"#utility.yul\":2476:2482   */\n  dup2\n    /* \"#utility.yul\":2468:2474   */\n  dup5\n    /* \"#utility.yul\":2462:2466   */\n  dup5\n    /* \"#utility.yul\":2418:2483   */\n  tag_53\n  jump\t// in\ntag_94:\n    /* \"#utility.yul\":2353:2489   */\n  pop\n    /* \"#utility.yul\":2300:2489   */\n  pop\n  pop\n  jump\t// out\n    /* \"#utility.yul\":2495:2681   */\ntag_56:\n    /* \"#utility.yul\":2555:2675   */\ntag_96:\n    /* \"#utility.yul\":2572:2575   */\n  dup2\n    /* \"#utility.yul\":2565:2570   */\n  dup2\n    /* \"#utility.yul\":2562:2576   */\n  lt\n    /* \"#utility.yul\":2555:2675   */\n  iszero\n  tag_98\n  jumpi\n    /* \"#utility.yul\":2626:2665   */\n  tag_99\n    /* \"#utility.yul\":2663:2664   */\n  0x00\n    /* \"#utility.yul\":2656:2661   */\n  dup3\n    /* \"#utility.yul\":2626:2665   */\n  tag_55\n  jump\t// in\ntag_99:\n    /* \"#utility.yul\":2599:2600   */\n  0x01\n    /* \"#utility.yul\":2592:2597   */\n  dup2\n    /* \"#utility.yul\":2588:2601   */\n  add\n    /* \"#utility.yul\":2579:2601   */\n  swap1\n  pop\n    /* \"#utility.yul\":2555:2675   */\n  jump(tag_96)\ntag_98:\n    /* \"#utility.yul\":2495:2681   */\n  pop\n  pop\n  jump\t// out\n    /* \"#utility.yul\":2687:3230   */\ntag_57:\n    /* \"#utility.yul\":2788:2790   */\n  0x1f\n    /* \"#utility.yul\":2783:2786   */\n  dup3\n    /* \"#utility.yul\":2780:2791   */\n  gt\n    /* \"#utility.yul\":2777:3223   */\n  iszero\n  tag_101\n  jumpi\n    /* \"#utility.yul\":2822:2860   */\n  tag_102\n    /* \"#utility.yul\":2854:2859   */\n  dup2\n    /* \"#utility.yul\":2822:2860   */\n  tag_45\n  jump\t// in\ntag_102:\n    /* \"#utility.yul\":2906:2935   */\n  tag_103\n    /* \"#utility.yul\":2924:2934   */\n  dup5\n    /* \"#utility.yul\":2906:2935   */\n  tag_46\n  jump\t// in\ntag_103:\n    /* \"#utility.yul\":2896:2904   */\n  dup2\n    /* \"#utility.yul\":2892:2936   */\n  add\n    /* \"#utility.yul\":3089:3091   */\n  0x20\n    /* \"#utility.yul\":3077:3087   */\n  dup6\n    /* \"#utility.yul\":3074:3092   */\n  lt\n    /* \"#utility.yul\":3071:3120   */\n  iszero\n  tag_104\n  jumpi\n    /* \"#utility.yul\":3110:3118   */\n  dup2\n    /* \"#utility.yul\":3095:3118   */\n  swap1\n  pop\n    /* \"#utility.yul\":3071:3120   */\ntag_104:\n    /* \"#utility.yul\":3133:3213   */\n  tag_105\n    /* \"#utility.yul\":3189:3211   */\n  tag_106\n    /* \"#utility.yul\":3207:3210   */\n  dup6\n    /* \"#utility.yul\":3189:3211   */\n  tag_46\n  jump\t// in\ntag_106:\n    /* \"#utility.yul\":3179:3187   */\n  dup4\n    /* \"#utility.yul\":3175:3212   */\n  add\n    /* \"#utility.yul\":3162:3173   */\n  dup3\n    /* \"#utility.yul\":3133:3213   */\n  tag_56\n  jump\t// in\ntag_105:\n    /* \"#utility.yul\":2792:3223   */\n  pop\n  pop\n    /* \"#utility.yul\":2777:3223   */\ntag_101:\n    /* \"#utility.yul\":2687:3230   */\n  pop\n  pop\n  pop\n  jump\t// out\n    /* \"#utility.yul\":3236:3353   */\ntag_58:\n    /* \"#utility.yul\":3290:3298   */\n  0x00\n    /* \"#utility.yul\":3340:3345   */\n  dup3\n    /* \"#utility.yul\":3334:3338   */\n  dup3\n    /* \"#utility.yul\":3330:3346   */\n  shr\n    /* \"#utility.yul\":3309:3346   */\n  swap1\n  pop\n    /* \"#utility.yul\":3236:3353   */\n  swap3\n  swap2\n  pop\n  pop\n  jump\t// out\n    /* \"#utility.yul\":3359:3528   */\ntag_59:\n    /* \"#utility.yul\":3403:3409   */\n  0x00\n    /* \"#utility.yul\":3436:3487   */\n  tag_109\n    /* \"#utility.yul\":3484:3485   */\n  0x00\n    /* \"#utility.yul\":3480:3486   */\n  not\n    /* \"#utility.yul\":3472:3477   */\n  dup5\n    /* \"#utility.yul\":3469:3470   */\n  0x08\n    /* \"#utility.yul\":3465:3478   */\n  mul\n    /* \"#utility.yul\":3436:3487   */\n  tag_58\n  jump\t// in\ntag_109:\n    /* \"#utility.yul\":3432:3488   */\n  not\n    /* \"#utility.yul\":3517:3521   */\n  dup1\n    /* \"#utility.yul\":3511:3515   */\n  dup4\n    /* \"#utility.yul\":3507:3522   */\n  and\n    /* \"#utility.yul\":3497:3522   */\n  swap2\n  pop\n    /* \"#utility.yul\":3410:3528   */\n  pop\n    /* \"#utility.yul\":3359:3528   */\n  swap3\n  swap2\n  pop\n  pop\n  jump\t// out\n    /* \"#utility.yul\":3533:3828   */\ntag_60:\n    /* \"#utility.yul\":3609:3613   */\n  0x00\n    /* \"#utility.yul\":3755:3784   */\n  tag_111\n    /* \"#utility.yul\":3780:3783   */\n  dup4\n    /* \"#utility.yul\":3774:3778   */\n  dup4\n    /* \"#utility.yul\":3755:3784   */\n  tag_59\n  jump\t// in\ntag_111:\n    /* \"#utility.yul\":3747:3784   */\n  swap2\n  pop\n    /* \"#utility.yul\":3817:3820   */\n  dup3\n    /* \"#utility.yul\":3814:3815   */\n  0x02\n    /* \"#utility.yul\":3810:3821   */\n  mul\n    /* \"#utility.yul\":3804:3808   */\n  dup3\n    /* \"#utility.yul\":3801:3822   */\n  or\n    /* \"#utility.yul\":3793:3822   */\n  swap1\n  pop\n    /* \"#utility.yul\":3533:3828   */\n  swap3\n  swap2\n  pop\n  pop\n  jump\t// out\n    /* \"#utility.yul\":3833:5228   */\ntag_9:\n    /* \"#utility.yul\":3950:3987   */\n  tag_113\n    /* \"#utility.yul\":3983:3986   */\n  dup3\n    /* \"#utility.yul\":3950:3987   */\n  tag_41\n  jump\t// in\ntag_113:\n    /* \"#utility.yul\":4052:4070   */\n  0xffffffffffffffff\n    /* \"#utility.yul\":4044:4050   */\n  dup2\n    /* \"#utility.yul\":4041:4071   */\n  gt\n    /* \"#utility.yul\":4038:4094   */\n  iszero\n  tag_114\n  jumpi\n    /* \"#utility.yul\":4074:4092   */\n  tag_115\n  tag_42\n  jump\t// in\ntag_115:\n    /* \"#utility.yul\":4038:4094   */\ntag_114:\n    /* \"#utility.yul\":4118:4156   */\n  tag_116\n    /* \"#utility.yul\":4150:4154   */\n  dup3\n    /* \"#utility.yul\":4144:4155   */\n  sload\n    /* \"#utility.yul\":4118:4156   */\n  tag_44\n  jump\t// in\ntag_116:\n    /* \"#utility.yul\":4203:4270   */\n  tag_117\n    /* \"#utility.yul\":4263:4269   */\n  dup3\n    /* \"#utility.yul\":4255:4261   */\n  dup3\n    /* \"#utility.yul\":4249:4253   */\n  dup6\n    /* \"#utility.yul\":4203:4270   */\n  tag_57\n  jump\t// in\ntag_117:\n    /* \"#utility.yul\":4297:4298   */\n  0x00\n    /* \"#utility.yul\":4321:4325   */\n  0x20\n    /* \"#utility.yul\":4308:4325   */\n  swap1\n  pop\n    /* \"#utility.yul\":4353:4355   */\n  0x1f\n    /* \"#utility.yul\":4345:4351   */\n  dup4\n    /* \"#utility.yul\":4342:4356   */\n  gt\n    /* \"#utility.yul\":4370:4371   */\n  0x01\n    /* \"#utility.yul\":4365:4983   */\n  dup2\n  eq\n  tag_119\n  jumpi\n    /* \"#utility.yul\":5027:5028   */\n  0x00\n    /* \"#utility.yul\":5044:5050   */\n  dup5\n    /* \"#utility.yul\":5041:5118   */\n  iszero\n  tag_120\n  jumpi\n    /* \"#utility.yul\":5093:5102   */\n  dup3\n    /* \"#utility.yul\":5088:5091   */\n  dup8\n    /* \"#utility.yul\":5084:5103   */\n  add\n    /* \"#utility.yul\":5078:5104   */\n  mload\n    /* \"#utility.yul\":5069:5104   */\n  swap1\n  pop\n    /* \"#utility.yul\":5041:5118   */\ntag_120:\n    /* \"#utility.yul\":5144:5211   */\n  tag_121\n    /* \"#utility.yul\":5204:5210   */\n  dup6\n    /* \"#utility.yul\":5197:5202   */\n  dup3\n    /* \"#utility.yul\":5144:5211   */\n  tag_60\n  jump\t// in\ntag_121:\n    /* \"#utility.yul\":5138:5142   */\n  dup7\n    /* \"#utility.yul\":5131:5212   */\n  sstore\n    /* \"#utility.yul\":5000:5222   */\n  pop\n    /* \"#utility.yul\":4335:5222   */\n  jump(tag_118)\n    /* \"#utility.yul\":4365:4983   */\ntag_119:\n    /* \"#utility.yul\":4417:4421   */\n  0x1f\n    /* \"#utility.yul\":4413:4422   */\n  not\n    /* \"#utility.yul\":4405:4411   */\n  dup5\n    /* \"#utility.yul\":4401:4423   */\n  and\n    /* \"#utility.yul\":4451:4488   */\n  tag_122\n    /* \"#utility.yul\":4483:4487   */\n  dup7\n    /* \"#utility.yul\":4451:4488   */\n  tag_45\n  jump\t// in\ntag_122:\n    /* \"#utility.yul\":4510:4511   */\n  0x00\n    /* \"#utility.yul\":4524:4732   */\ntag_123:\n    /* \"#utility.yul\":4538:4545   */\n  dup3\n    /* \"#utility.yul\":4535:4536   */\n  dup2\n    /* \"#utility.yul\":4532:4546   */\n  lt\n    /* \"#utility.yul\":4524:4732   */\n  iszero\n  tag_125\n  jumpi\n    /* \"#utility.yul\":4617:4626   */\n  dup5\n    /* \"#utility.yul\":4612:4615   */\n  dup10\n    /* \"#utility.yul\":4608:4627   */\n  add\n    /* \"#utility.yul\":4602:4628   */\n  mload\n    /* \"#utility.yul\":4594:4600   */\n  dup3\n    /* \"#utility.yul\":4587:4629   */\n  sstore\n    /* \"#utility.yul\":4668:4669   */\n  0x01\n    /* \"#utility.yul\":4660:4666   */\n  dup3\n    /* \"#utility.yul\":4656:4670   */\n  add\n    /* \"#utility.yul\":4646:4670   */\n  swap2\n  pop\n    /* \"#utility.yul\":4715:4717   */\n  0x20\n    /* \"#utility.yul\":4704:4713   */\n  dup6\n    /* \"#utility.yul\":4700:4718   */\n  add\n    /* \"#utility.yul\":4687:4718   */\n  swap5\n  pop\n    /* \"#utility.yul\":4561:4565   */\n  0x20\n    /* \"#utility.yul\":4558:4559   */\n  dup2\n    /* \"#utility.yul\":4554:4566   */\n  add\n    /* \"#utility.yul\":4549:4566   */\n  swap1\n  pop\n    /* \"#utility.yul\":4524:4732   */\n  jump(tag_123)\ntag_125:\n    /* \"#utility.yul\":4760:4766   */\n  dup7\n    /* \"#utility.yul\":4751:4758   */\n  dup4\n    /* \"#utility.yul\":4748:4767   */\n  lt\n    /* \"#utility.yul\":4745:4924   */\n  iszero\n  tag_126\n  jumpi\n    /* \"#utility.yul\":4818:4827   */\n  dup5\n    /* \"#utility.yul\":4813:4816   */\n  dup10\n    /* \"#utility.yul\":4809:4828   */\n  add\n    /* \"#utility.yul\":4803:4829   */\n  mload\n    /* \"#utility.yul\":4861:4909   */\n  tag_127\n    /* \"#utility.yul\":4903:4907   */\n  0x1f\n    /* \"#utility.yul\":4895:4901   */\n  dup10\n    /* \"#utility.yul\":4891:4908   */\n  and\n    /* \"#utility.yul\":4880:4889   */\n  dup3\n    /* \"#utility.yul\":4861:4909   */\n  tag_59\n  jump\t// in\ntag_127:\n    /* \"#utility.yul\":4853:4859   */\n  dup4\n    /* \"#utility.yul\":4846:4910   */\n  sstore\n    /* \"#utility.yul\":4768:4924   */\n  pop\n    /* \"#utility.yul\":4745:4924   */\ntag_126:\n    /* \"#utility.yul\":4970:4971   */\n  0x01\n    /* \"#utility.yul\":4966:4967   */\n  0x02\n    /* \"#utility.yul\":4958:4964   */\n  dup9\n    /* \"#utility.yul\":4954:4968   */\n  mul\n    /* \"#utility.yul\":4950:4972   */\n  add\n    /* \"#utility.yul\":4944:4948   */\n  dup9\n    /* \"#utility.yul\":4937:4973   */\n  sstore\n    /* \"#utility.yul\":4372:4983   */\n  pop\n  pop\n  pop\n    /* \"#utility.yul\":4335:5222   */\ntag_118:\n  pop\n    /* \"#utility.yul\":3925:5228   */\n  pop\n  pop\n  pop\n    /* \"#utility.yul\":3833:5228   */\n  pop\n  pop\n  jump\t// out\n    /* \"#utility.yul\":5234:5360   */\ntag_61:\n    /* \"#utility.yul\":5271:5278   */\n  0x00\n    /* \"#utility.yul\":5311:5353   */\n  0xffffffffffffffffffffffffffffffffffffffff\n    /* \"#utility.yul\":5304:5309   */\n  dup3\n    /* \"#utility.yul\":5300:5354   */\n  and\n    /* \"#utility.yul\":5289:5354   */\n  swap1\n  pop\n    /* \"#utility.yul\":5234:5360   */\n  swap2\n  swap1\n  pop\n  jump\t// out\n    /* \"#utility.yul\":5366:5462   */\ntag_62:\n    /* \"#utility.yul\":5403:5410   */\n  0x00\n    /* \"#utility.yul\":5432:5456   */\n  tag_130\n    /* \"#utility.yul\":5450:5455   */\n  dup3\n    /* \"#utility.yul\":5432:5456   */\n  tag_61\n  jump\t// in\ntag_130:\n    /* \"#utility.yul\":5421:5456   */\n  swap1\n  pop\n    /* \"#utility.yul\":5366:5462   */\n  swap2\n  swap1\n  pop\n  jump\t// out\n    /* \"#utility.yul\":5468:5586   */\ntag_63:\n    /* \"#utility.yul\":5555:5579   */\n  tag_132\n    /* \"#utility.yul\":5573:5578   */\n  dup2\n    /* \"#utility.yul\":5555:5579   */\n  tag_62\n  jump\t// in\ntag_132:\n    /* \"#utility.yul\":5550:5553   */\n  dup3\n    /* \"#utility.yul\":5543:5580   */\n  mstore\n    /* \"#utility.yul\":5468:5586   */\n  pop\n  pop\n  jump\t// out\n    /* \"#utility.yul\":5592:5814   */\ntag_15:\n    /* \"#utility.yul\":5685:5689   */\n  0x00\n    /* \"#utility.yul\":5723:5725   */\n  0x20\n    /* \"#utility.yul\":5712:5721   */\n  dup3\n    /* \"#utility.yul\":5708:5726   */\n  add\n    /* \"#utility.yul\":5700:5726   */\n  swap1\n  pop\n    /* \"#utility.yul\":5736:5807   */\n  tag_134\n    /* \"#utility.yul\":5804:5805   */\n  0x00\n    /* \"#utility.yul\":5793:5802   */\n  dup4\n    /* \"#utility.yul\":5789:5806   */\n  add\n    /* \"#utility.yul\":5780:5786   */\n  dup5\n    /* \"#utility.yul\":5736:5807   */\n  tag_63\n  jump\t// in\ntag_134:\n    /* \"#utility.yul\":5592:5814   */\n  swap3\n  swap2\n  pop\n  pop\n  jump\t// out\n    /* \"#utility.yul\":5820:6000   */\ntag_64:\n    /* \"#utility.yul\":5868:5945   */\n  0x4e487b7100000000000000000000000000000000000000000000000000000000\n    /* \"#utility.yul\":5865:5866   */\n  0x00\n    /* \"#utility.yul\":5858:5946   */\n  mstore\n    /* \"#utility.yul\":5965:5969   */\n  0x11\n    /* \"#utility.yul\":5962:5963   */\n  0x04\n    /* \"#utility.yul\":5955:5970   */\n  mstore\n    /* \"#utility.yul\":5989:5993   */\n  0x24\n    /* \"#utility.yul\":5986:5987   */\n  0x00\n    /* \"#utility.yul\":5979:5994   */\n  revert\n    /* \"#utility.yul\":6006:6197   */\ntag_32:\n    /* \"#utility.yul\":6046:6049   */\n  0x00\n    /* \"#utility.yul\":6065:6085   */\n  tag_137\n    /* \"#utility.yul\":6083:6084   */\n  dup3\n    /* \"#utility.yul\":6065:6085   */\n  tag_49\n  jump\t// in\ntag_137:\n    /* \"#utility.yul\":6060:6085   */\n  swap2\n  pop\n    /* \"#utility.yul\":6099:6119   */\n  tag_138\n    /* \"#utility.yul\":6117:6118   */\n  dup4\n    /* \"#utility.yul\":6099:6119   */\n  tag_49\n  jump\t// in\ntag_138:\n    /* \"#utility.yul\":6094:6119   */\n  swap3\n  pop\n    /* \"#utility.yul\":6142:6143   */\n  dup3\n    /* \"#utility.yul\":6139:6140   */\n  dup3\n    /* \"#utility.yul\":6135:6144   */\n  add\n    /* \"#utility.yul\":6128:6144   */\n  swap1\n  pop\n    /* \"#utility.yul\":6163:6166   */\n  dup1\n    /* \"#utility.yul\":6160:6161   */\n  dup3\n    /* \"#utility.yul\":6157:6167   */\n  gt\n    /* \"#utility.yul\":6154:6190   */\n  iszero\n  tag_139\n  jumpi\n    /* \"#utility.yul\":6170:6188   */\n  tag_140\n  tag_64\n  jump\t// in\ntag_140:\n    /* \"#utility.yul\":6154:6190   */\ntag_139:\n    /* \"#utility.yul\":6006:6197   */\n  swap3\n  swap2\n  pop\n  pop\n  jump\t// out\n    /* \"#utility.yul\":6203:6321   */\ntag_65:\n    /* \"#utility.yul\":6290:6314   */\n  tag_142\n    /* \"#utility.yul\":6308:6313   */\n  dup2\n    /* \"#utility.yul\":6290:6314   */\n  tag_49\n  jump\t// in\ntag_142:\n    /* \"#utility.yul\":6285:6288   */\n  dup3\n    /* \"#utility.yul\":6278:6315   */\n  mstore\n    /* \"#utility.yul\":6203:6321   */\n  pop\n  pop\n  jump\t// out\n    /* \"#utility.yul\":6327:6769   */\ntag_36:\n    /* \"#utility.yul\":6476:6480   */\n  0x00\n    /* \"#utility.yul\":6514:6516   */\n  0x60\n    /* \"#utility.yul\":6503:6512   */\n  dup3\n    /* \"#utility.yul\":6499:6517   */\n  add\n    /* \"#utility.yul\":6491:6517   */\n  swap1\n  pop\n    /* \"#utility.yul\":6527:6598   */\n  tag_144\n    /* \"#utility.yul\":6595:6596   */\n  0x00\n    /* \"#utility.yul\":6584:6593   */\n  dup4\n    /* \"#utility.yul\":6580:6597   */\n  add\n    /* \"#utility.yul\":6571:6577   */\n  dup7\n    /* \"#utility.yul\":6527:6598   */\n  tag_63\n  jump\t// in\ntag_144:\n    /* \"#utility.yul\":6608:6680   */\n  tag_145\n    /* \"#utility.yul\":6676:6678   */\n  0x20\n    /* \"#utility.yul\":6665:6674   */\n  dup4\n    /* \"#utility.yul\":6661:6679   */\n  add\n    /* \"#utility.yul\":6652:6658   */\n  dup6\n    /* \"#utility.yul\":6608:6680   */\n  tag_65\n  jump\t// in\ntag_145:\n    /* \"#utility.yul\":6690:6762   */\n  tag_146\n    /* \"#utility.yul\":6758:6760   */\n  0x40\n    /* \"#utility.yul\":6747:6756   */\n  dup4\n    /* \"#utility.yul\":6743:6761   */\n  add\n    /* \"#utility.yul\":6734:6740   */\n  dup5\n    /* \"#utility.yul\":6690:6762   */\n  tag_65\n  jump\t// in\ntag_146:\n    /* \"#utility.yul\":6327:6769   */\n  swap5\n  swap4\n  pop\n  pop\n  pop\n  pop\n  jump\t// out\n    /* \"#utility.yul\":6775:6997   */\ntag_40:\n    /* \"#utility.yul\":6868:6872   */\n  0x00\n    /* \"#utility.yul\":6906:6908   */\n  0x20\n    /* \"#utility.yul\":6895:6904   */\n  dup3\n    /* \"#utility.yul\":6891:6909   */\n  add\n    /* \"#utility.yul\":6883:6909   */\n  swap1\n  pop\n    /* \"#utility.yul\":6919:6990   */\n  tag_148\n    /* \"#utility.yul\":6987:6988   */\n  0x00\n    /* \"#utility.yul\":6976:6985   */\n  dup4\n    /* \"#utility.yul\":6972:6989   */\n  add\n    /* \"#utility.yul\":6963:6969   */\n  dup5\n    /* \"#utility.yul\":6919:6990   */\n  tag_65\n  jump\t// in\ntag_148:\n    /* \"#utility.yul\":6775:6997   */\n  swap3\n  swap2\n  pop\n  pop\n  jump\t// out\n    /* \"tESTtWEET.SOL\":291:3985  contract Tweet_On_Base is ERC20, ERC20Burnable, Pausable, Ownable, ReentrancyGuard { ... */\ntag_22:\n  dataSize(sub_0)\n  dup1\n  dataOffset(sub_0)\n  0x00\n  codecopy\n  0x00\n  return\nstop\n\nsub_0: assembly {\n        /* \"tESTtWEET.SOL\":291:3985  contract Tweet_On_Base is ERC20, ERC20Burnable, Pausable, Ownable, ReentrancyGuard { ... */\n      mstore(0x40, 0x80)\n      callvalue\n      dup1\n      iszero\n      tag_1\n      jumpi\n      0x00\n      dup1\n      revert\n    tag_1:\n      pop\n      jumpi(tag_2, lt(calldatasize, 0x04))\n      shr(0xe0, calldataload(0x00))\n      dup1\n      0x70a08231\n      gt\n      tag_29\n      jumpi\n      dup1\n      0xa64254c3\n      gt\n      tag_30\n      jumpi\n      dup1\n      0xc8052107\n      gt\n      tag_31\n      jumpi\n      dup1\n      0xc8052107\n      eq\n      tag_25\n      jumpi\n      dup1\n      0xd82e3962\n      eq\n      tag_26\n      jumpi\n      dup1\n      0xdd62ed3e\n      eq\n      tag_27\n      jumpi\n      dup1\n      0xf2fde38b\n      eq\n      tag_28\n      jumpi\n      jump(tag_2)\n    tag_31:\n      dup1\n      0xa64254c3\n      eq\n      tag_22\n      jumpi\n      dup1\n      0xa9059cbb\n      eq\n      tag_23\n      jumpi\n      dup1\n      0xafe8289a\n      eq\n      tag_24\n      jumpi\n      jump(tag_2)\n    tag_30:\n      dup1\n      0x70a08231\n      eq\n      tag_16\n      jumpi\n      dup1\n      0x715018a6\n      eq\n      tag_17\n      jumpi\n      dup1\n      0x79cc6790\n      eq\n      tag_18\n      jumpi\n      dup1\n      0x8456cb59\n      eq\n      tag_19\n      jumpi\n      dup1\n      0x8da5cb5b\n      eq\n      tag_20\n      jumpi\n      dup1\n      0x95d89b41\n      eq\n      tag_21\n      jumpi\n      jump(tag_2)\n    tag_29:\n      dup1\n      0x2ff2e9dc\n      gt\n      tag_32\n      jumpi\n      dup1\n      0x3f4ba83a\n      gt\n      tag_33\n      jumpi\n      dup1\n      0x3f4ba83a\n      eq\n      tag_12\n      jumpi\n      dup1\n      0x42966c68\n      eq\n      tag_13\n      jumpi\n      dup1\n      0x51c6590a\n      eq\n      tag_14\n      jumpi\n      dup1\n      0x5c975abb\n      eq\n      tag_15\n      jumpi\n      jump(tag_2)\n    tag_33:\n      dup1\n      0x2ff2e9dc\n      eq\n      tag_9\n      jumpi\n      dup1\n      0x313ce567\n      eq\n      tag_10\n      jumpi\n      dup1\n      0x32cb6b0c\n      eq\n      tag_11\n      jumpi\n      jump(tag_2)\n    tag_32:\n      dup1\n      0x06fdde03\n      eq\n      tag_3\n      jumpi\n      dup1\n      0x095ea7b3\n      eq\n      tag_4\n      jumpi\n      dup1\n      0x18160ddd\n      eq\n      tag_5\n      jumpi\n      dup1\n      0x21208fa2\n      eq\n      tag_6\n      jumpi\n      dup1\n      0x2254b79c\n      eq\n      tag_7\n      jumpi\n      dup1\n      0x23b872dd\n      eq\n      tag_8\n      jumpi\n    tag_2:\n      0x00\n      dup1\n      revert\n        /* \"contracts/token/ERC20/ERC20.sol\":1022:1111  function name() public view virtual returns (string memory) {... */\n    tag_3:\n      tag_34\n      tag_35\n      jump\t// in\n    tag_34:\n      mload(0x40)\n      tag_36\n      swap2\n      swap1\n      tag_37\n      jump\t// in\n    tag_36:\n      mload(0x40)\n      dup1\n      swap2\n      sub\n      swap1\n      return\n        /* \"contracts/token/ERC20/ERC20.sol\":3241:3427  function approve(address spender, uint256 value) public virtual returns (bool) {... */\n    tag_4:\n      tag_38\n      0x04\n      dup1\n      calldatasize\n      sub\n      dup2\n      add\n      swap1\n      tag_39\n      swap2\n      swap1\n      tag_40\n      jump\t// in\n    tag_39:\n      tag_41\n      jump\t// in\n    tag_38:\n      mload(0x40)\n      tag_42\n      swap2\n      swap1\n      tag_43\n      jump\t// in\n    tag_42:\n      mload(0x40)\n      dup1\n      swap2\n      sub\n      swap1\n      return\n        /* \"contracts/token/ERC20/ERC20.sol\":2092:2189  function totalSupply() public view virtual returns (uint256) {... */\n    tag_5:\n      tag_44\n      tag_45\n      jump\t// in\n    tag_44:\n      mload(0x40)\n      tag_46\n      swap2\n      swap1\n      tag_47\n      jump\t// in\n    tag_46:\n      mload(0x40)\n      dup1\n      swap2\n      sub\n      swap1\n      return\n        /* \"tESTtWEET.SOL\":1289:1386  function disableCircuitBreaker() public onlyOwner {... */\n    tag_6:\n      tag_48\n      tag_49\n      jump\t// in\n    tag_48:\n      stop\n        /* \"tESTtWEET.SOL\":3608:3982  function ownerRemoveLiquidity(uint256 amount) public onlyOwner nonReentrant {... */\n    tag_7:\n      tag_50\n      0x04\n      dup1\n      calldatasize\n      sub\n      dup2\n      add\n      swap1\n      tag_51\n      swap2\n      swap1\n      tag_52\n      jump\t// in\n    tag_51:\n      tag_53\n      jump\t// in\n    tag_50:\n      stop\n        /* \"contracts/token/ERC20/ERC20.sol\":3987:4231  function transferFrom(address from, address to, uint256 value) public virtual returns (bool) {... */\n    tag_8:\n      tag_54\n      0x04\n      dup1\n      calldatasize\n      sub\n      dup2\n      add\n      swap1\n      tag_55\n      swap2\n      swap1\n      tag_56\n      jump\t// in\n    tag_55:\n      tag_57\n      jump\t// in\n    tag_54:\n      mload(0x40)\n      tag_58\n      swap2\n      swap1\n      tag_43\n      jump\t// in\n    tag_58:\n      mload(0x40)\n      dup1\n      swap2\n      sub\n      swap1\n      return\n        /* \"tESTtWEET.SOL\":381:445  uint256 public constant INITIAL_SUPPLY = 100_000_000 * (10 ** 0) */\n    tag_9:\n      tag_59\n      tag_60\n      jump\t// in\n    tag_59:\n      mload(0x40)\n      tag_61\n      swap2\n      swap1\n      tag_47\n      jump\t// in\n    tag_61:\n      mload(0x40)\n      dup1\n      swap2\n      sub\n      swap1\n      return\n        /* \"tESTtWEET.SOL\":521:611  function decimals() public view virtual override returns (uint8) {... */\n    tag_10:\n      tag_62\n      tag_63\n      jump\t// in\n    tag_62:\n      mload(0x40)\n      tag_64\n      swap2\n      swap1\n      tag_65\n      jump\t// in\n    tag_64:\n      mload(0x40)\n      dup1\n      swap2\n      sub\n      swap1\n      return\n        /* \"tESTtWEET.SOL\":451:513  uint256 public constant MAX_SUPPLY = 5_000_000_000 * (10 ** 0) */\n    tag_11:\n      tag_66\n      tag_67\n      jump\t// in\n    tag_66:\n      mload(0x40)\n      tag_68\n      swap2\n      swap1\n      tag_47\n      jump\t// in\n    tag_68:\n      mload(0x40)\n      dup1\n      swap2\n      sub\n      swap1\n      return\n        /* \"tESTtWEET.SOL\":934:997  function unpause() public onlyOwner {... */\n    tag_12:\n      tag_69\n      tag_70\n      jump\t// in\n    tag_69:\n      stop\n        /* \"contracts/token/ERC20/extensions/ERC20Burnable.sol\":618:705  function burn(uint256 value) public virtual {... */\n    tag_13:\n      tag_71\n      0x04\n      dup1\n      calldatasize\n      sub\n      dup2\n      add\n      swap1\n      tag_72\n      swap2\n      swap1\n      tag_52\n      jump\t// in\n    tag_72:\n      tag_73\n      jump\t// in\n    tag_71:\n      stop\n        /* \"tESTtWEET.SOL\":2011:2234  function addLiquidity(uint256 amount) public {... */\n    tag_14:\n      tag_74\n      0x04\n      dup1\n      calldatasize\n      sub\n      dup2\n      add\n      swap1\n      tag_75\n      swap2\n      swap1\n      tag_52\n      jump\t// in\n    tag_75:\n      tag_76\n      jump\t// in\n    tag_74:\n      stop\n        /* \"contracts/security/Pausable.sol\":1615:1699  function paused() public view virtual returns (bool) {... */\n    tag_15:\n      tag_77\n      tag_78\n      jump\t// in\n    tag_77:\n      mload(0x40)\n      tag_79\n      swap2\n      swap1\n      tag_43\n      jump\t// in\n    tag_79:\n      mload(0x40)\n      dup1\n      swap2\n      sub\n      swap1\n      return\n        /* \"contracts/token/ERC20/ERC20.sol\":2247:2363  function balanceOf(address account) public view virtual returns (uint256) {... */\n    tag_16:\n      tag_80\n      0x04\n      dup1\n      calldatasize\n      sub\n      dup2\n      add\n      swap1\n      tag_81\n      swap2\n      swap1\n      tag_82\n      jump\t// in\n    tag_81:\n      tag_83\n      jump\t// in\n    tag_80:\n      mload(0x40)\n      tag_84\n      swap2\n      swap1\n      tag_47\n      jump\t// in\n    tag_84:\n      mload(0x40)\n      dup1\n      swap2\n      sub\n      swap1\n      return\n        /* \"contracts/access/Ownable.sol\":2293:2394  function renounceOwnership() public virtual onlyOwner {... */\n    tag_17:\n      tag_85\n      tag_86\n      jump\t// in\n    tag_85:\n      stop\n        /* \"contracts/token/ERC20/extensions/ERC20Burnable.sol\":1021:1179  function burnFrom(address account, uint256 value) public virtual {... */\n    tag_18:\n      tag_87\n      0x04\n      dup1\n      calldatasize\n      sub\n      dup2\n      add\n      swap1\n      tag_88\n      swap2\n      swap1\n      tag_40\n      jump\t// in\n    tag_88:\n      tag_89\n      jump\t// in\n    tag_87:\n      stop\n        /* \"tESTtWEET.SOL\":870:929  function pause() public onlyOwner {... */\n    tag_19:\n      tag_90\n      tag_91\n      jump\t// in\n    tag_90:\n      stop\n        /* \"contracts/access/Ownable.sol\":1638:1723  function owner() public view virtual returns (address) {... */\n    tag_20:\n      tag_92\n      tag_93\n      jump\t// in\n    tag_92:\n      mload(0x40)\n      tag_94\n      swap2\n      swap1\n      tag_95\n      jump\t// in\n    tag_94:\n      mload(0x40)\n      dup1\n      swap2\n      sub\n      swap1\n      return\n        /* \"contracts/token/ERC20/ERC20.sol\":1224:1317  function symbol() public view virtual returns (string memory) {... */\n    tag_21:\n      tag_96\n      tag_97\n      jump\t// in\n    tag_96:\n      mload(0x40)\n      tag_98\n      swap2\n      swap1\n      tag_37\n      jump\t// in\n    tag_98:\n      mload(0x40)\n      dup1\n      swap2\n      sub\n      swap1\n      return\n        /* \"tESTtWEET.SOL\":1189:1284  function enableCircuitBreaker() public onlyOwner {... */\n    tag_22:\n      tag_99\n      tag_100\n      jump\t// in\n    tag_99:\n      stop\n        /* \"contracts/token/ERC20/ERC20.sol\":2558:2736  function transfer(address to, uint256 value) public virtual returns (bool) {... */\n    tag_23:\n      tag_101\n      0x04\n      dup1\n      calldatasize\n      sub\n      dup2\n      add\n      swap1\n      tag_102\n      swap2\n      swap1\n      tag_40\n      jump\t// in\n    tag_102:\n      tag_103\n      jump\t// in\n    tag_101:\n      mload(0x40)\n      tag_104\n      swap2\n      swap1\n      tag_43\n      jump\t// in\n    tag_104:\n      mload(0x40)\n      dup1\n      swap2\n      sub\n      swap1\n      return\n        /* \"tESTtWEET.SOL\":3386:3602  function ownerAddLiquidity(uint256 amount) public onlyOwner {... */\n    tag_24:\n      tag_105\n      0x04\n      dup1\n      calldatasize\n      sub\n      dup2\n      add\n      swap1\n      tag_106\n      swap2\n      swap1\n      tag_52\n      jump\t// in\n    tag_106:\n      tag_107\n      jump\t// in\n    tag_105:\n      stop\n        /* \"tESTtWEET.SOL\":2240:3044  function removeLiquidityAndClaimRewards(uint256 amount) public nonReentrant {... */\n    tag_25:\n      tag_108\n      0x04\n      dup1\n      calldatasize\n      sub\n      dup2\n      add\n      swap1\n      tag_109\n      swap2\n      swap1\n      tag_52\n      jump\t// in\n    tag_109:\n      tag_110\n      jump\t// in\n    tag_108:\n      stop\n        /* \"tESTtWEET.SOL\":3050:3380  function calculateReward(address user) public view returns (uint256) {... */\n    tag_26:\n      tag_111\n      0x04\n      dup1\n      calldatasize\n      sub\n      dup2\n      add\n      swap1\n      tag_112\n      swap2\n      swap1\n      tag_82\n      jump\t// in\n    tag_112:\n      tag_113\n      jump\t// in\n    tag_111:\n      mload(0x40)\n      tag_114\n      swap2\n      swap1\n      tag_47\n      jump\t// in\n    tag_114:\n      mload(0x40)\n      dup1\n      swap2\n      sub\n      swap1\n      return\n        /* \"contracts/token/ERC20/ERC20.sol\":2794:2934  function allowance(address owner, address spender) public view virtual returns (uint256) {... */\n    tag_27:\n      tag_115\n      0x04\n      dup1\n      calldatasize\n      sub\n      dup2\n      add\n      swap1\n      tag_116\n      swap2\n      swap1\n      tag_117\n      jump\t// in\n    tag_116:\n      tag_118\n      jump\t// in\n    tag_115:\n      mload(0x40)\n      tag_119\n      swap2\n      swap1\n      tag_47\n      jump\t// in\n    tag_119:\n      mload(0x40)\n      dup1\n      swap2\n      sub\n      swap1\n      return\n        /* \"contracts/access/Ownable.sol\":2543:2758  function transferOwnership(address newOwner) public virtual onlyOwner {... */\n    tag_28:\n      tag_120\n      0x04\n      dup1\n      calldatasize\n      sub\n      dup2\n      add\n      swap1\n      tag_121\n      swap2\n      swap1\n      tag_82\n      jump\t// in\n    tag_121:\n      tag_122\n      jump\t// in\n    tag_120:\n      stop\n        /* \"contracts/token/ERC20/ERC20.sol\":1022:1111  function name() public view virtual returns (string memory) {... */\n    tag_35:\n        /* \"contracts/token/ERC20/ERC20.sol\":1067:1080  string memory */\n      0x60\n        /* \"contracts/token/ERC20/ERC20.sol\":1099:1104  _name */\n      0x03\n        /* \"contracts/token/ERC20/ERC20.sol\":1092:1104  return _name */\n      dup1\n      sload\n      tag_124\n      swap1\n      tag_125\n      jump\t// in\n    tag_124:\n      dup1\n      0x1f\n      add\n      0x20\n      dup1\n      swap2\n      div\n      mul\n      0x20\n      add\n      mload(0x40)\n      swap1\n      dup2\n      add\n      0x40\n      mstore\n      dup1\n      swap3\n      swap2\n      swap1\n      dup2\n      dup2\n      mstore\n      0x20\n      add\n      dup3\n      dup1\n      sload\n      tag_126\n      swap1\n      tag_125\n      jump\t// in\n    tag_126:\n      dup1\n      iszero\n      tag_127\n      jumpi\n      dup1\n      0x1f\n      lt\n      tag_128\n      jumpi\n      0x0100\n      dup1\n      dup4\n      sload\n      div\n      mul\n      dup4\n      mstore\n      swap2\n      0x20\n      add\n      swap2\n      jump(tag_127)\n    tag_128:\n      dup3\n      add\n      swap2\n      swap1\n      0x00\n      mstore\n      keccak256(0x00, 0x20)\n      swap1\n    tag_129:\n      dup2\n      sload\n      dup2\n      mstore\n      swap1\n      0x01\n      add\n      swap1\n      0x20\n      add\n      dup1\n      dup4\n      gt\n      tag_129\n      jumpi\n      dup3\n      swap1\n      sub\n      0x1f\n      and\n      dup3\n      add\n      swap2\n    tag_127:\n      pop\n      pop\n      pop\n      pop\n      pop\n      swap1\n      pop\n        /* \"contracts/token/ERC20/ERC20.sol\":1022:1111  function name() public view virtual returns (string memory) {... */\n      swap1\n      jump\t// out\n        /* \"contracts/token/ERC20/ERC20.sol\":3241:3427  function approve(address spender, uint256 value) public virtual returns (bool) {... */\n    tag_41:\n        /* \"contracts/token/ERC20/ERC20.sol\":3314:3318  bool */\n      0x00\n        /* \"contracts/token/ERC20/ERC20.sol\":3330:3343  address owner */\n      dup1\n        /* \"contracts/token/ERC20/ERC20.sol\":3346:3358  _msgSender() */\n      tag_131\n        /* \"contracts/token/ERC20/ERC20.sol\":3346:3356  _msgSender */\n      tag_132\n        /* \"contracts/token/ERC20/ERC20.sol\":3346:3358  _msgSender() */\n      jump\t// in\n    tag_131:\n        /* \"contracts/token/ERC20/ERC20.sol\":3330:3358  address owner = _msgSender() */\n      swap1\n      pop\n        /* \"contracts/token/ERC20/ERC20.sol\":3368:3399  _approve(owner, spender, value) */\n      tag_133\n        /* \"contracts/token/ERC20/ERC20.sol\":3377:3382  owner */\n      dup2\n        /* \"contracts/token/ERC20/ERC20.sol\":3384:3391  spender */\n      dup6\n        /* \"contracts/token/ERC20/ERC20.sol\":3393:3398  value */\n      dup6\n        /* \"contracts/token/ERC20/ERC20.sol\":3368:3376  _approve */\n      tag_134\n        /* \"contracts/token/ERC20/ERC20.sol\":3368:3399  _approve(owner, spender, value) */\n      jump\t// in\n    tag_133:\n        /* \"contracts/token/ERC20/ERC20.sol\":3416:3420  true */\n      0x01\n        /* \"contracts/token/ERC20/ERC20.sol\":3409:3420  return true */\n      swap2\n      pop\n      pop\n        /* \"contracts/token/ERC20/ERC20.sol\":3241:3427  function approve(address spender, uint256 value) public virtual returns (bool) {... */\n      swap3\n      swap2\n      pop\n      pop\n      jump\t// out\n        /* \"contracts/token/ERC20/ERC20.sol\":2092:2189  function totalSupply() public view virtual returns (uint256) {... */\n    tag_45:\n        /* \"contracts/token/ERC20/ERC20.sol\":2144:2151  uint256 */\n      0x00\n        /* \"contracts/token/ERC20/ERC20.sol\":2170:2182  _totalSupply */\n      sload(0x02)\n        /* \"contracts/token/ERC20/ERC20.sol\":2163:2182  return _totalSupply */\n      swap1\n      pop\n        /* \"contracts/token/ERC20/ERC20.sol\":2092:2189  function totalSupply() public view virtual returns (uint256) {... */\n      swap1\n      jump\t// out\n        /* \"tESTtWEET.SOL\":1289:1386  function disableCircuitBreaker() public onlyOwner {... */\n    tag_49:\n        /* \"contracts/access/Ownable.sol\":1531:1544  _checkOwner() */\n      tag_137\n        /* \"contracts/access/Ownable.sol\":1531:1542  _checkOwner */\n      tag_138\n        /* \"contracts/access/Ownable.sol\":1531:1544  _checkOwner() */\n      jump\t// in\n    tag_137:\n        /* \"tESTtWEET.SOL\":1374:1379  false */\n      0x00\n        /* \"tESTtWEET.SOL\":1349:1371  _circuitBreakerEnabled */\n      0x09\n      0x00\n        /* \"tESTtWEET.SOL\":1349:1379  _circuitBreakerEnabled = false */\n      0x0100\n      exp\n      dup2\n      sload\n      dup2\n      0xff\n      mul\n      not\n      and\n      swap1\n      dup4\n      iszero\n      iszero\n      mul\n      or\n      swap1\n      sstore\n      pop\n        /* \"tESTtWEET.SOL\":1289:1386  function disableCircuitBreaker() public onlyOwner {... */\n      jump\t// out\n        /* \"tESTtWEET.SOL\":3608:3982  function ownerRemoveLiquidity(uint256 amount) public onlyOwner nonReentrant {... */\n    tag_53:\n        /* \"contracts/access/Ownable.sol\":1531:1544  _checkOwner() */\n      tag_141\n        /* \"contracts/access/Ownable.sol\":1531:1542  _checkOwner */\n      tag_138\n        /* \"contracts/access/Ownable.sol\":1531:1544  _checkOwner() */\n      jump\t// in\n    tag_141:\n        /* \"contracts/security/ReentrancyGuard.sol\":2261:2282  _nonReentrantBefore() */\n      tag_143\n        /* \"contracts/security/ReentrancyGuard.sol\":2261:2280  _nonReentrantBefore */\n      tag_144\n        /* \"contracts/security/ReentrancyGuard.sol\":2261:2282  _nonReentrantBefore() */\n      jump\t// in\n    tag_143:\n        /* \"tESTtWEET.SOL\":3712:3730  _liquidityProvided */\n      0x07\n        /* \"tESTtWEET.SOL\":3712:3739  _liquidityProvided[owner()] */\n      0x00\n        /* \"tESTtWEET.SOL\":3731:3738  owner() */\n      tag_146\n        /* \"tESTtWEET.SOL\":3731:3736  owner */\n      tag_93\n        /* \"tESTtWEET.SOL\":3731:3738  owner() */\n      jump\t// in\n    tag_146:\n        /* \"tESTtWEET.SOL\":3712:3739  _liquidityProvided[owner()] */\n      0xffffffffffffffffffffffffffffffffffffffff\n      and\n      0xffffffffffffffffffffffffffffffffffffffff\n      and\n      dup2\n      mstore\n      0x20\n      add\n      swap1\n      dup2\n      mstore\n      0x20\n      add\n      0x00\n      keccak256\n      sload\n        /* \"tESTtWEET.SOL\":3702:3708  amount */\n      dup2\n        /* \"tESTtWEET.SOL\":3702:3739  amount <= _liquidityProvided[owner()] */\n      gt\n      iszero\n        /* \"tESTtWEET.SOL\":3694:3764  require(amount <= _liquidityProvided[owner()], \"Insufficient balance\") */\n      tag_147\n      jumpi\n      mload(0x40)\n      0x08c379a000000000000000000000000000000000000000000000000000000000\n      dup2\n      mstore\n      0x04\n      add\n      tag_148\n      swap1\n      tag_149\n      jump\t// in\n    tag_148:\n      mload(0x40)\n      dup1\n      swap2\n      sub\n      swap1\n      revert\n    tag_147:\n        /* \"tESTtWEET.SOL\":3805:3811  amount */\n      dup1\n        /* \"tESTtWEET.SOL\":3774:3792  _liquidityProvided */\n      0x07\n        /* \"tESTtWEET.SOL\":3774:3801  _liquidityProvided[owner()] */\n      0x00\n        /* \"tESTtWEET.SOL\":3793:3800  owner() */\n      tag_150\n        /* \"tESTtWEET.SOL\":3793:3798  owner */\n      tag_93\n        /* \"tESTtWEET.SOL\":3793:3800  owner() */\n      jump\t// in\n    tag_150:\n        /* \"tESTtWEET.SOL\":3774:3801  _liquidityProvided[owner()] */\n      0xffffffffffffffffffffffffffffffffffffffff\n      and\n      0xffffffffffffffffffffffffffffffffffffffff\n      and\n      dup2\n      mstore\n      0x20\n      add\n      swap1\n      dup2\n      mstore\n      0x20\n      add\n      0x00\n      keccak256\n      0x00\n        /* \"tESTtWEET.SOL\":3774:3811  _liquidityProvided[owner()] -= amount */\n      dup3\n      dup3\n      sload\n      tag_151\n      swap2\n      swap1\n      tag_152\n      jump\t// in\n    tag_151:\n      swap3\n      pop\n      pop\n      dup2\n      swap1\n      sstore\n      pop\n        /* \"tESTtWEET.SOL\":3856:3857  0 */\n      0x00\n        /* \"tESTtWEET.SOL\":3825:3843  _liquidityProvided */\n      0x07\n        /* \"tESTtWEET.SOL\":3825:3852  _liquidityProvided[owner()] */\n      0x00\n        /* \"tESTtWEET.SOL\":3844:3851  owner() */\n      tag_153\n        /* \"tESTtWEET.SOL\":3844:3849  owner */\n      tag_93\n        /* \"tESTtWEET.SOL\":3844:3851  owner() */\n      jump\t// in\n    tag_153:\n        /* \"tESTtWEET.SOL\":3825:3852  _liquidityProvided[owner()] */\n      0xffffffffffffffffffffffffffffffffffffffff\n      and\n      0xffffffffffffffffffffffffffffffffffffffff\n      and\n      dup2\n      mstore\n      0x20\n      add\n      swap1\n      dup2\n      mstore\n      0x20\n      add\n      0x00\n      keccak256\n      sload\n        /* \"tESTtWEET.SOL\":3825:3857  _liquidityProvided[owner()] == 0 */\n      sub\n        /* \"tESTtWEET.SOL\":3821:3924  if (_liquidityProvided[owner()] == 0) {... */\n      tag_154\n      jumpi\n        /* \"tESTtWEET.SOL\":3912:3913  0 */\n      0x00\n        /* \"tESTtWEET.SOL\":3873:3900  _liquidityProvidedTimestamp */\n      0x08\n        /* \"tESTtWEET.SOL\":3873:3909  _liquidityProvidedTimestamp[owner()] */\n      0x00\n        /* \"tESTtWEET.SOL\":3901:3908  owner() */\n      tag_155\n        /* \"tESTtWEET.SOL\":3901:3906  owner */\n      tag_93\n        /* \"tESTtWEET.SOL\":3901:3908  owner() */\n      jump\t// in\n    tag_155:\n        /* \"tESTtWEET.SOL\":3873:3909  _liquidityProvidedTimestamp[owner()] */\n      0xffffffffffffffffffffffffffffffffffffffff\n      and\n      0xffffffffffffffffffffffffffffffffffffffff\n      and\n      dup2\n      mstore\n      0x20\n      add\n      swap1\n      dup2\n      mstore\n      0x20\n      add\n      0x00\n      keccak256\n        /* \"tESTtWEET.SOL\":3873:3913  _liquidityProvidedTimestamp[owner()] = 0 */\n      dup2\n      swap1\n      sstore\n      pop\n        /* \"tESTtWEET.SOL\":3821:3924  if (_liquidityProvided[owner()] == 0) {... */\n    tag_154:\n        /* \"tESTtWEET.SOL\":3933:3974  _transfer(address(this), owner(), amount) */\n      tag_156\n        /* \"tESTtWEET.SOL\":3951:3955  this */\n      address\n        /* \"tESTtWEET.SOL\":3958:3965  owner() */\n      tag_157\n        /* \"tESTtWEET.SOL\":3958:3963  owner */\n      tag_93\n        /* \"tESTtWEET.SOL\":3958:3965  owner() */\n      jump\t// in\n    tag_157:\n        /* \"tESTtWEET.SOL\":3967:3973  amount */\n      dup4\n        /* \"tESTtWEET.SOL\":3933:3942  _transfer */\n      tag_158\n        /* \"tESTtWEET.SOL\":3933:3974  _transfer(address(this), owner(), amount) */\n      jump\t// in\n    tag_156:\n        /* \"contracts/security/ReentrancyGuard.sol\":2303:2323  _nonReentrantAfter() */\n      tag_159\n        /* \"contracts/security/ReentrancyGuard.sol\":2303:2321  _nonReentrantAfter */\n      tag_160\n        /* \"contracts/security/ReentrancyGuard.sol\":2303:2323  _nonReentrantAfter() */\n      jump\t// in\n    tag_159:\n        /* \"tESTtWEET.SOL\":3608:3982  function ownerRemoveLiquidity(uint256 amount) public onlyOwner nonReentrant {... */\n      pop\n      jump\t// out\n        /* \"contracts/token/ERC20/ERC20.sol\":3987:4231  function transferFrom(address from, address to, uint256 value) public virtual returns (bool) {... */\n    tag_57:\n        /* \"contracts/token/ERC20/ERC20.sol\":4074:4078  bool */\n      0x00\n        /* \"contracts/token/ERC20/ERC20.sol\":4090:4105  address spender */\n      dup1\n        /* \"contracts/token/ERC20/ERC20.sol\":4108:4120  _msgSender() */\n      tag_162\n        /* \"contracts/token/ERC20/ERC20.sol\":4108:4118  _msgSender */\n      tag_132\n        /* \"contracts/token/ERC20/ERC20.sol\":4108:4120  _msgSender() */\n      jump\t// in\n    tag_162:\n        /* \"contracts/token/ERC20/ERC20.sol\":4090:4120  address spender = _msgSender() */\n      swap1\n      pop\n        /* \"contracts/token/ERC20/ERC20.sol\":4130:4167  _spendAllowance(from, spender, value) */\n      tag_163\n        /* \"contracts/token/ERC20/ERC20.sol\":4146:4150  from */\n      dup6\n        /* \"contracts/token/ERC20/ERC20.sol\":4152:4159  spender */\n      dup3\n        /* \"contracts/token/ERC20/ERC20.sol\":4161:4166  value */\n      dup6\n        /* \"contracts/token/ERC20/ERC20.sol\":4130:4145  _spendAllowance */\n      tag_164\n        /* \"contracts/token/ERC20/ERC20.sol\":4130:4167  _spendAllowance(from, spender, value) */\n      jump\t// in\n    tag_163:\n        /* \"contracts/token/ERC20/ERC20.sol\":4177:4203  _transfer(from, to, value) */\n      tag_165\n        /* \"contracts/token/ERC20/ERC20.sol\":4187:4191  from */\n      dup6\n        /* \"contracts/token/ERC20/ERC20.sol\":4193:4195  to */\n      dup6\n        /* \"contracts/token/ERC20/ERC20.sol\":4197:4202  value */\n      dup6\n        /* \"contracts/token/ERC20/ERC20.sol\":4177:4186  _transfer */\n      tag_158\n        /* \"contracts/token/ERC20/ERC20.sol\":4177:4203  _transfer(from, to, value) */\n      jump\t// in\n    tag_165:\n        /* \"contracts/token/ERC20/ERC20.sol\":4220:4224  true */\n      0x01\n        /* \"contracts/token/ERC20/ERC20.sol\":4213:4224  return true */\n      swap2\n      pop\n      pop\n        /* \"contracts/token/ERC20/ERC20.sol\":3987:4231  function transferFrom(address from, address to, uint256 value) public virtual returns (bool) {... */\n      swap4\n      swap3\n      pop\n      pop\n      pop\n      jump\t// out\n        /* \"tESTtWEET.SOL\":381:445  uint256 public constant INITIAL_SUPPLY = 100_000_000 * (10 ** 0) */\n    tag_60:\n        /* \"tESTtWEET.SOL\":422:445  100_000_000 * (10 ** 0) */\n      0x05f5e100\n        /* \"tESTtWEET.SOL\":381:445  uint256 public constant INITIAL_SUPPLY = 100_000_000 * (10 ** 0) */\n      dup2\n      jump\t// out\n        /* \"tESTtWEET.SOL\":521:611  function decimals() public view virtual override returns (uint8) {... */\n    tag_63:\n        /* \"tESTtWEET.SOL\":579:584  uint8 */\n      0x00\n        /* \"tESTtWEET.SOL\":521:611  function decimals() public view virtual override returns (uint8) {... */\n      swap1\n      jump\t// out\n        /* \"tESTtWEET.SOL\":451:513  uint256 public constant MAX_SUPPLY = 5_000_000_000 * (10 ** 0) */\n    tag_67:\n        /* \"tESTtWEET.SOL\":488:513  5_000_000_000 * (10 ** 0) */\n      0x012a05f200\n        /* \"tESTtWEET.SOL\":451:513  uint256 public constant MAX_SUPPLY = 5_000_000_000 * (10 ** 0) */\n      dup2\n      jump\t// out\n        /* \"tESTtWEET.SOL\":934:997  function unpause() public onlyOwner {... */\n    tag_70:\n        /* \"contracts/access/Ownable.sol\":1531:1544  _checkOwner() */\n      tag_168\n        /* \"contracts/access/Ownable.sol\":1531:1542  _checkOwner */\n      tag_138\n        /* \"contracts/access/Ownable.sol\":1531:1544  _checkOwner() */\n      jump\t// in\n    tag_168:\n        /* \"tESTtWEET.SOL\":980:990  _unpause() */\n      tag_170\n        /* \"tESTtWEET.SOL\":980:988  _unpause */\n      tag_171\n        /* \"tESTtWEET.SOL\":980:990  _unpause() */\n      jump\t// in\n    tag_170:\n        /* \"tESTtWEET.SOL\":934:997  function unpause() public onlyOwner {... */\n      jump\t// out\n        /* \"contracts/token/ERC20/extensions/ERC20Burnable.sol\":618:705  function burn(uint256 value) public virtual {... */\n    tag_73:\n        /* \"contracts/token/ERC20/extensions/ERC20Burnable.sol\":672:698  _burn(_msgSender(), value) */\n      tag_173\n        /* \"contracts/token/ERC20/extensions/ERC20Burnable.sol\":678:690  _msgSender() */\n      tag_174\n        /* \"contracts/token/ERC20/extensions/ERC20Burnable.sol\":678:688  _msgSender */\n      tag_132\n        /* \"contracts/token/ERC20/extensions/ERC20Burnable.sol\":678:690  _msgSender() */\n      jump\t// in\n    tag_174:\n        /* \"contracts/token/ERC20/extensions/ERC20Burnable.sol\":692:697  value */\n      dup3\n        /* \"contracts/token/ERC20/extensions/ERC20Burnable.sol\":672:677  _burn */\n      tag_175\n        /* \"contracts/token/ERC20/extensions/ERC20Burnable.sol\":672:698  _burn(_msgSender(), value) */\n      jump\t// in\n    tag_173:\n        /* \"contracts/token/ERC20/extensions/ERC20Burnable.sol\":618:705  function burn(uint256 value) public virtual {... */\n      pop\n      jump\t// out\n        /* \"tESTtWEET.SOL\":2011:2234  function addLiquidity(uint256 amount) public {... */\n    tag_76:\n        /* \"tESTtWEET.SOL\":2066:2110  _transfer(msg.sender, address(this), amount) */\n      tag_177\n        /* \"tESTtWEET.SOL\":2076:2086  msg.sender */\n      caller\n        /* \"tESTtWEET.SOL\":2096:2100  this */\n      address\n        /* \"tESTtWEET.SOL\":2103:2109  amount */\n      dup4\n        /* \"tESTtWEET.SOL\":2066:2075  _transfer */\n      tag_158\n        /* \"tESTtWEET.SOL\":2066:2110  _transfer(msg.sender, address(this), amount) */\n      jump\t// in\n    tag_177:\n        /* \"tESTtWEET.SOL\":2154:2160  amount */\n      dup1\n        /* \"tESTtWEET.SOL\":2120:2138  _liquidityProvided */\n      0x07\n        /* \"tESTtWEET.SOL\":2120:2150  _liquidityProvided[msg.sender] */\n      0x00\n        /* \"tESTtWEET.SOL\":2139:2149  msg.sender */\n      caller\n        /* \"tESTtWEET.SOL\":2120:2150  _liquidityProvided[msg.sender] */\n      0xffffffffffffffffffffffffffffffffffffffff\n      and\n      0xffffffffffffffffffffffffffffffffffffffff\n      and\n      dup2\n      mstore\n      0x20\n      add\n      swap1\n      dup2\n      mstore\n      0x20\n      add\n      0x00\n      keccak256\n      0x00\n        /* \"tESTtWEET.SOL\":2120:2160  _liquidityProvided[msg.sender] += amount */\n      dup3\n      dup3\n      sload\n      tag_178\n      swap2\n      swap1\n      tag_179\n      jump\t// in\n    tag_178:\n      swap3\n      pop\n      pop\n      dup2\n      swap1\n      sstore\n      pop\n        /* \"tESTtWEET.SOL\":2212:2227  block.timestamp */\n      timestamp\n        /* \"tESTtWEET.SOL\":2170:2197  _liquidityProvidedTimestamp */\n      0x08\n        /* \"tESTtWEET.SOL\":2170:2209  _liquidityProvidedTimestamp[msg.sender] */\n      0x00\n        /* \"tESTtWEET.SOL\":2198:2208  msg.sender */\n      caller\n        /* \"tESTtWEET.SOL\":2170:2209  _liquidityProvidedTimestamp[msg.sender] */\n      0xffffffffffffffffffffffffffffffffffffffff\n      and\n      0xffffffffffffffffffffffffffffffffffffffff\n      and\n      dup2\n      mstore\n      0x20\n      add\n      swap1\n      dup2\n      mstore\n      0x20\n      add\n      0x00\n      keccak256\n        /* \"tESTtWEET.SOL\":2170:2227  _liquidityProvidedTimestamp[msg.sender] = block.timestamp */\n      dup2\n      swap1\n      sstore\n      pop\n        /* \"tESTtWEET.SOL\":2011:2234  function addLiquidity(uint256 amount) public {... */\n      pop\n      jump\t// out\n        /* \"contracts/security/Pausable.sol\":1615:1699  function paused() public view virtual returns (bool) {... */\n    tag_78:\n        /* \"contracts/security/Pausable.sol\":1662:1666  bool */\n      0x00\n        /* \"contracts/security/Pausable.sol\":1685:1692  _paused */\n      0x05\n      0x00\n      swap1\n      sload\n      swap1\n      0x0100\n      exp\n      swap1\n      div\n      0xff\n      and\n        /* \"contracts/security/Pausable.sol\":1678:1692  return _paused */\n      swap1\n      pop\n        /* \"contracts/security/Pausable.sol\":1615:1699  function paused() public view virtual returns (bool) {... */\n      swap1\n      jump\t// out\n        /* \"contracts/token/ERC20/ERC20.sol\":2247:2363  function balanceOf(address account) public view virtual returns (uint256) {... */\n    tag_83:\n        /* \"contracts/token/ERC20/ERC20.sol\":2312:2319  uint256 */\n      0x00\n        /* \"contracts/token/ERC20/ERC20.sol\":2338:2347  _balances */\n      dup1\n        /* \"contracts/token/ERC20/ERC20.sol\":2338:2356  _balances[account] */\n      0x00\n        /* \"contracts/token/ERC20/ERC20.sol\":2348:2355  account */\n      dup4\n        /* \"contracts/token/ERC20/ERC20.sol\":2338:2356  _balances[account] */\n      0xffffffffffffffffffffffffffffffffffffffff\n      and\n      0xffffffffffffffffffffffffffffffffffffffff\n      and\n      dup2\n      mstore\n      0x20\n      add\n      swap1\n      dup2\n      mstore\n      0x20\n      add\n      0x00\n      keccak256\n      sload\n        /* \"contracts/token/ERC20/ERC20.sol\":2331:2356  return _balances[account] */\n      swap1\n      pop\n        /* \"contracts/token/ERC20/ERC20.sol\":2247:2363  function balanceOf(address account) public view virtual returns (uint256) {... */\n      swap2\n      swap1\n      pop\n      jump\t// out\n        /* \"contracts/access/Ownable.sol\":2293:2394  function renounceOwnership() public virtual onlyOwner {... */\n    tag_86:\n        /* \"contracts/access/Ownable.sol\":1531:1544  _checkOwner() */\n      tag_183\n        /* \"contracts/access/Ownable.sol\":1531:1542  _checkOwner */\n      tag_138\n        /* \"contracts/access/Ownable.sol\":1531:1544  _checkOwner() */\n      jump\t// in\n    tag_183:\n        /* \"contracts/access/Ownable.sol\":2357:2387  _transferOwnership(address(0)) */\n      tag_185\n        /* \"contracts/access/Ownable.sol\":2384:2385  0 */\n      0x00\n        /* \"contracts/access/Ownable.sol\":2357:2375  _transferOwnership */\n      tag_186\n        /* \"contracts/access/Ownable.sol\":2357:2387  _transferOwnership(address(0)) */\n      jump\t// in\n    tag_185:\n        /* \"contracts/access/Ownable.sol\":2293:2394  function renounceOwnership() public virtual onlyOwner {... */\n      jump\t// out\n        /* \"contracts/token/ERC20/extensions/ERC20Burnable.sol\":1021:1179  function burnFrom(address account, uint256 value) public virtual {... */\n    tag_89:\n        /* \"contracts/token/ERC20/extensions/ERC20Burnable.sol\":1096:1141  _spendAllowance(account, _msgSender(), value) */\n      tag_188\n        /* \"contracts/token/ERC20/extensions/ERC20Burnable.sol\":1112:1119  account */\n      dup3\n        /* \"contracts/token/ERC20/extensions/ERC20Burnable.sol\":1121:1133  _msgSender() */\n      tag_189\n        /* \"contracts/token/ERC20/extensions/ERC20Burnable.sol\":1121:1131  _msgSender */\n      tag_132\n        /* \"contracts/token/ERC20/extensions/ERC20Burnable.sol\":1121:1133  _msgSender() */\n      jump\t// in\n    tag_189:\n        /* \"contracts/token/ERC20/extensions/ERC20Burnable.sol\":1135:1140  value */\n      dup4\n        /* \"contracts/token/ERC20/extensions/ERC20Burnable.sol\":1096:1111  _spendAllowance */\n      tag_164\n        /* \"contracts/token/ERC20/extensions/ERC20Burnable.sol\":1096:1141  _spendAllowance(account, _msgSender(), value) */\n      jump\t// in\n    tag_188:\n        /* \"contracts/token/ERC20/extensions/ERC20Burnable.sol\":1151:1172  _burn(account, value) */\n      tag_190\n        /* \"contracts/token/ERC20/extensions/ERC20Burnable.sol\":1157:1164  account */\n      dup3\n        /* \"contracts/token/ERC20/extensions/ERC20Burnable.sol\":1166:1171  value */\n      dup3\n        /* \"contracts/token/ERC20/extensions/ERC20Burnable.sol\":1151:1156  _burn */\n      tag_175\n        /* \"contracts/token/ERC20/extensions/ERC20Burnable.sol\":1151:1172  _burn(account, value) */\n      jump\t// in\n    tag_190:\n        /* \"contracts/token/ERC20/extensions/ERC20Burnable.sol\":1021:1179  function burnFrom(address account, uint256 value) public virtual {... */\n      pop\n      pop\n      jump\t// out\n        /* \"tESTtWEET.SOL\":870:929  function pause() public onlyOwner {... */\n    tag_91:\n        /* \"contracts/access/Ownable.sol\":1531:1544  _checkOwner() */\n      tag_192\n        /* \"contracts/access/Ownable.sol\":1531:1542  _checkOwner */\n      tag_138\n        /* \"contracts/access/Ownable.sol\":1531:1544  _checkOwner() */\n      jump\t// in\n    tag_192:\n        /* \"tESTtWEET.SOL\":914:922  _pause() */\n      tag_194\n        /* \"tESTtWEET.SOL\":914:920  _pause */\n      tag_195\n        /* \"tESTtWEET.SOL\":914:922  _pause() */\n      jump\t// in\n    tag_194:\n        /* \"tESTtWEET.SOL\":870:929  function pause() public onlyOwner {... */\n      jump\t// out\n        /* \"contracts/access/Ownable.sol\":1638:1723  function owner() public view virtual returns (address) {... */\n    tag_93:\n        /* \"contracts/access/Ownable.sol\":1684:1691  address */\n      0x00\n        /* \"contracts/access/Ownable.sol\":1710:1716  _owner */\n      0x05\n      0x01\n      swap1\n      sload\n      swap1\n      0x0100\n      exp\n      swap1\n      div\n      0xffffffffffffffffffffffffffffffffffffffff\n      and\n        /* \"contracts/access/Ownable.sol\":1703:1716  return _owner */\n      swap1\n      pop\n        /* \"contracts/access/Ownable.sol\":1638:1723  function owner() public view virtual returns (address) {... */\n      swap1\n      jump\t// out\n        /* \"contracts/token/ERC20/ERC20.sol\":1224:1317  function symbol() public view virtual returns (string memory) {... */\n    tag_97:\n        /* \"contracts/token/ERC20/ERC20.sol\":1271:1284  string memory */\n      0x60\n        /* \"contracts/token/ERC20/ERC20.sol\":1303:1310  _symbol */\n      0x04\n        /* \"contracts/token/ERC20/ERC20.sol\":1296:1310  return _symbol */\n      dup1\n      sload\n      tag_198\n      swap1\n      tag_125\n      jump\t// in\n    tag_198:\n      dup1\n      0x1f\n      add\n      0x20\n      dup1\n      swap2\n      div\n      mul\n      0x20\n      add\n      mload(0x40)\n      swap1\n      dup2\n      add\n      0x40\n      mstore\n      dup1\n      swap3\n      swap2\n      swap1\n      dup2\n      dup2\n      mstore\n      0x20\n      add\n      dup3\n      dup1\n      sload\n      tag_199\n      swap1\n      tag_125\n      jump\t// in\n    tag_199:\n      dup1\n      iszero\n      tag_200\n      jumpi\n      dup1\n      0x1f\n      lt\n      tag_201\n      jumpi\n      0x0100\n      dup1\n      dup4\n      sload\n      div\n      mul\n      dup4\n      mstore\n      swap2\n      0x20\n      add\n      swap2\n      jump(tag_200)\n    tag_201:\n      dup3\n      add\n      swap2\n      swap1\n      0x00\n      mstore\n      keccak256(0x00, 0x20)\n      swap1\n    tag_202:\n      dup2\n      sload\n      dup2\n      mstore\n      swap1\n      0x01\n      add\n      swap1\n      0x20\n      add\n      dup1\n      dup4\n      gt\n      tag_202\n      jumpi\n      dup3\n      swap1\n      sub\n      0x1f\n      and\n      dup3\n      add\n      swap2\n    tag_200:\n      pop\n      pop\n      pop\n      pop\n      pop\n      swap1\n      pop\n        /* \"contracts/token/ERC20/ERC20.sol\":1224:1317  function symbol() public view virtual returns (string memory) {... */\n      swap1\n      jump\t// out\n        /* \"tESTtWEET.SOL\":1189:1284  function enableCircuitBreaker() public onlyOwner {... */\n    tag_100:\n        /* \"contracts/access/Ownable.sol\":1531:1544  _checkOwner() */\n      tag_204\n        /* \"contracts/access/Ownable.sol\":1531:1542  _checkOwner */\n      tag_138\n        /* \"contracts/access/Ownable.sol\":1531:1544  _checkOwner() */\n      jump\t// in\n    tag_204:\n        /* \"tESTtWEET.SOL\":1273:1277  true */\n      0x01\n        /* \"tESTtWEET.SOL\":1248:1270  _circuitBreakerEnabled */\n      0x09\n      0x00\n        /* \"tESTtWEET.SOL\":1248:1277  _circuitBreakerEnabled = true */\n      0x0100\n      exp\n      dup2\n      sload\n      dup2\n      0xff\n      mul\n      not\n      and\n      swap1\n      dup4\n      iszero\n      iszero\n      mul\n      or\n      swap1\n      sstore\n      pop\n        /* \"tESTtWEET.SOL\":1189:1284  function enableCircuitBreaker() public onlyOwner {... */\n      jump\t// out\n        /* \"contracts/token/ERC20/ERC20.sol\":2558:2736  function transfer(address to, uint256 value) public virtual returns (bool) {... */\n    tag_103:\n        /* \"contracts/token/ERC20/ERC20.sol\":2627:2631  bool */\n      0x00\n        /* \"contracts/token/ERC20/ERC20.sol\":2643:2656  address owner */\n      dup1\n        /* \"contracts/token/ERC20/ERC20.sol\":2659:2671  _msgSender() */\n      tag_207\n        /* \"contracts/token/ERC20/ERC20.sol\":2659:2669  _msgSender */\n      tag_132\n        /* \"contracts/token/ERC20/ERC20.sol\":2659:2671  _msgSender() */\n      jump\t// in\n    tag_207:\n        /* \"contracts/token/ERC20/ERC20.sol\":2643:2671  address owner = _msgSender() */\n      swap1\n      pop\n        /* \"contracts/token/ERC20/ERC20.sol\":2681:2708  _transfer(owner, to, value) */\n      tag_208\n        /* \"contracts/token/ERC20/ERC20.sol\":2691:2696  owner */\n      dup2\n        /* \"contracts/token/ERC20/ERC20.sol\":2698:2700  to */\n      dup6\n        /* \"contracts/token/ERC20/ERC20.sol\":2702:2707  value */\n      dup6\n        /* \"contracts/token/ERC20/ERC20.sol\":2681:2690  _transfer */\n      tag_158\n        /* \"contracts/token/ERC20/ERC20.sol\":2681:2708  _transfer(owner, to, value) */\n      jump\t// in\n    tag_208:\n        /* \"contracts/token/ERC20/ERC20.sol\":2725:2729  true */\n      0x01\n        /* \"contracts/token/ERC20/ERC20.sol\":2718:2729  return true */\n      swap2\n      pop\n      pop\n        /* \"contracts/token/ERC20/ERC20.sol\":2558:2736  function transfer(address to, uint256 value) public virtual returns (bool) {... */\n      swap3\n      swap2\n      pop\n      pop\n      jump\t// out\n        /* \"tESTtWEET.SOL\":3386:3602  function ownerAddLiquidity(uint256 amount) public onlyOwner {... */\n    tag_107:\n        /* \"contracts/access/Ownable.sol\":1531:1544  _checkOwner() */\n      tag_210\n        /* \"contracts/access/Ownable.sol\":1531:1542  _checkOwner */\n      tag_138\n        /* \"contracts/access/Ownable.sol\":1531:1544  _checkOwner() */\n      jump\t// in\n    tag_210:\n        /* \"tESTtWEET.SOL\":3487:3493  amount */\n      dup1\n        /* \"tESTtWEET.SOL\":3456:3474  _liquidityProvided */\n      0x07\n        /* \"tESTtWEET.SOL\":3456:3483  _liquidityProvided[owner()] */\n      0x00\n        /* \"tESTtWEET.SOL\":3475:3482  owner() */\n      tag_212\n        /* \"tESTtWEET.SOL\":3475:3480  owner */\n      tag_93\n        /* \"tESTtWEET.SOL\":3475:3482  owner() */\n      jump\t// in\n    tag_212:\n        /* \"tESTtWEET.SOL\":3456:3483  _liquidityProvided[owner()] */\n      0xffffffffffffffffffffffffffffffffffffffff\n      and\n      0xffffffffffffffffffffffffffffffffffffffff\n      and\n      dup2\n      mstore\n      0x20\n      add\n      swap1\n      dup2\n      mstore\n      0x20\n      add\n      0x00\n      keccak256\n      0x00\n        /* \"tESTtWEET.SOL\":3456:3493  _liquidityProvided[owner()] += amount */\n      dup3\n      dup3\n      sload\n      tag_213\n      swap2\n      swap1\n      tag_179\n      jump\t// in\n    tag_213:\n      swap3\n      pop\n      pop\n      dup2\n      swap1\n      sstore\n      pop\n        /* \"tESTtWEET.SOL\":3542:3557  block.timestamp */\n      timestamp\n        /* \"tESTtWEET.SOL\":3503:3530  _liquidityProvidedTimestamp */\n      0x08\n        /* \"tESTtWEET.SOL\":3503:3539  _liquidityProvidedTimestamp[owner()] */\n      0x00\n        /* \"tESTtWEET.SOL\":3531:3538  owner() */\n      tag_214\n        /* \"tESTtWEET.SOL\":3531:3536  owner */\n      tag_93\n        /* \"tESTtWEET.SOL\":3531:3538  owner() */\n      jump\t// in\n    tag_214:\n        /* \"tESTtWEET.SOL\":3503:3539  _liquidityProvidedTimestamp[owner()] */\n      0xffffffffffffffffffffffffffffffffffffffff\n      and\n      0xffffffffffffffffffffffffffffffffffffffff\n      and\n      dup2\n      mstore\n      0x20\n      add\n      swap1\n      dup2\n      mstore\n      0x20\n      add\n      0x00\n      keccak256\n        /* \"tESTtWEET.SOL\":3503:3557  _liquidityProvidedTimestamp[owner()] = block.timestamp */\n      dup2\n      swap1\n      sstore\n      pop\n        /* \"tESTtWEET.SOL\":3567:3595  _mint(address(this), amount) */\n      tag_215\n        /* \"tESTtWEET.SOL\":3581:3585  this */\n      address\n        /* \"tESTtWEET.SOL\":3588:3594  amount */\n      dup3\n        /* \"tESTtWEET.SOL\":3567:3572  _mint */\n      tag_216\n        /* \"tESTtWEET.SOL\":3567:3595  _mint(address(this), amount) */\n      jump\t// in\n    tag_215:\n        /* \"tESTtWEET.SOL\":3386:3602  function ownerAddLiquidity(uint256 amount) public onlyOwner {... */\n      pop\n      jump\t// out\n        /* \"tESTtWEET.SOL\":2240:3044  function removeLiquidityAndClaimRewards(uint256 amount) public nonReentrant {... */\n    tag_110:\n        /* \"contracts/security/ReentrancyGuard.sol\":2261:2282  _nonReentrantBefore() */\n      tag_218\n        /* \"contracts/security/ReentrancyGuard.sol\":2261:2280  _nonReentrantBefore */\n      tag_144\n        /* \"contracts/security/ReentrancyGuard.sol\":2261:2282  _nonReentrantBefore() */\n      jump\t// in\n    tag_218:\n        /* \"tESTtWEET.SOL\":2344:2362  _liquidityProvided */\n      0x07\n        /* \"tESTtWEET.SOL\":2344:2374  _liquidityProvided[msg.sender] */\n      0x00\n        /* \"tESTtWEET.SOL\":2363:2373  msg.sender */\n      caller\n        /* \"tESTtWEET.SOL\":2344:2374  _liquidityProvided[msg.sender] */\n      0xffffffffffffffffffffffffffffffffffffffff\n      and\n      0xffffffffffffffffffffffffffffffffffffffff\n      and\n      dup2\n      mstore\n      0x20\n      add\n      swap1\n      dup2\n      mstore\n      0x20\n      add\n      0x00\n      keccak256\n      sload\n        /* \"tESTtWEET.SOL\":2334:2340  amount */\n      dup2\n        /* \"tESTtWEET.SOL\":2334:2374  amount <= _liquidityProvided[msg.sender] */\n      gt\n      iszero\n        /* \"tESTtWEET.SOL\":2326:2399  require(amount <= _liquidityProvided[msg.sender], \"Insufficient balance\") */\n      tag_220\n      jumpi\n      mload(0x40)\n      0x08c379a000000000000000000000000000000000000000000000000000000000\n      dup2\n      mstore\n      0x04\n      add\n      tag_221\n      swap1\n      tag_149\n      jump\t// in\n    tag_221:\n      mload(0x40)\n      dup1\n      swap2\n      sub\n      swap1\n      revert\n    tag_220:\n        /* \"tESTtWEET.SOL\":2478:2485  30 days */\n      0x278d00\n        /* \"tESTtWEET.SOL\":2436:2463  _liquidityProvidedTimestamp */\n      0x08\n        /* \"tESTtWEET.SOL\":2436:2475  _liquidityProvidedTimestamp[msg.sender] */\n      0x00\n        /* \"tESTtWEET.SOL\":2464:2474  msg.sender */\n      caller\n        /* \"tESTtWEET.SOL\":2436:2475  _liquidityProvidedTimestamp[msg.sender] */\n      0xffffffffffffffffffffffffffffffffffffffff\n      and\n      0xffffffffffffffffffffffffffffffffffffffff\n      and\n      dup2\n      mstore\n      0x20\n      add\n      swap1\n      dup2\n      mstore\n      0x20\n      add\n      0x00\n      keccak256\n      sload\n        /* \"tESTtWEET.SOL\":2436:2485  _liquidityProvidedTimestamp[msg.sender] + 30 days */\n      tag_222\n      swap2\n      swap1\n      tag_179\n      jump\t// in\n    tag_222:\n        /* \"tESTtWEET.SOL\":2417:2432  block.timestamp */\n      timestamp\n        /* \"tESTtWEET.SOL\":2417:2485  block.timestamp >= _liquidityProvidedTimestamp[msg.sender] + 30 days */\n      lt\n      iszero\n        /* \"tESTtWEET.SOL\":2409:2560  require(block.timestamp >= _liquidityProvidedTimestamp[msg.sender] + 30 days, \"Liquidity must be provided for at least 30 days to qualify for rewards\") */\n      tag_223\n      jumpi\n      mload(0x40)\n      0x08c379a000000000000000000000000000000000000000000000000000000000\n      dup2\n      mstore\n      0x04\n      add\n      tag_224\n      swap1\n      tag_225\n      jump\t// in\n    tag_224:\n      mload(0x40)\n      dup1\n      swap2\n      sub\n      swap1\n      revert\n    tag_223:\n        /* \"tESTtWEET.SOL\":2571:2585  uint256 reward */\n      0x00\n        /* \"tESTtWEET.SOL\":2588:2615  calculateReward(msg.sender) */\n      tag_226\n        /* \"tESTtWEET.SOL\":2604:2614  msg.sender */\n      caller\n        /* \"tESTtWEET.SOL\":2588:2603  calculateReward */\n      tag_113\n        /* \"tESTtWEET.SOL\":2588:2615  calculateReward(msg.sender) */\n      jump\t// in\n    tag_226:\n        /* \"tESTtWEET.SOL\":2571:2615  uint256 reward = calculateReward(msg.sender) */\n      swap1\n      pop\n        /* \"tESTtWEET.SOL\":488:513  5_000_000_000 * (10 ** 0) */\n      0x012a05f200\n        /* \"tESTtWEET.SOL\":2649:2655  reward */\n      dup2\n        /* \"tESTtWEET.SOL\":2633:2646  totalSupply() */\n      tag_227\n        /* \"tESTtWEET.SOL\":2633:2644  totalSupply */\n      tag_45\n        /* \"tESTtWEET.SOL\":2633:2646  totalSupply() */\n      jump\t// in\n    tag_227:\n        /* \"tESTtWEET.SOL\":2633:2655  totalSupply() + reward */\n      tag_228\n      swap2\n      swap1\n      tag_179\n      jump\t// in\n    tag_228:\n        /* \"tESTtWEET.SOL\":2633:2669  totalSupply() + reward <= MAX_SUPPLY */\n      gt\n      iszero\n        /* \"tESTtWEET.SOL\":2625:2699  require(totalSupply() + reward <= MAX_SUPPLY, \"Reward exceeds max supply\") */\n      tag_229\n      jumpi\n      mload(0x40)\n      0x08c379a000000000000000000000000000000000000000000000000000000000\n      dup2\n      mstore\n      0x04\n      add\n      tag_230\n      swap1\n      tag_231\n      jump\t// in\n    tag_230:\n      mload(0x40)\n      dup1\n      swap2\n      sub\n      swap1\n      revert\n    tag_229:\n        /* \"tESTtWEET.SOL\":2706:2731  _mint(msg.sender, reward) */\n      tag_232\n        /* \"tESTtWEET.SOL\":2712:2722  msg.sender */\n      caller\n        /* \"tESTtWEET.SOL\":2724:2730  reward */\n      dup3\n        /* \"tESTtWEET.SOL\":2706:2711  _mint */\n      tag_216\n        /* \"tESTtWEET.SOL\":2706:2731  _mint(msg.sender, reward) */\n      jump\t// in\n    tag_232:\n        /* \"tESTtWEET.SOL\":2738:2782  _transfer(address(this), msg.sender, amount) */\n      tag_233\n        /* \"tESTtWEET.SOL\":2756:2760  this */\n      address\n        /* \"tESTtWEET.SOL\":2763:2773  msg.sender */\n      caller\n        /* \"tESTtWEET.SOL\":2775:2781  amount */\n      dup5\n        /* \"tESTtWEET.SOL\":2738:2747  _transfer */\n      tag_158\n        /* \"tESTtWEET.SOL\":2738:2782  _transfer(address(this), msg.sender, amount) */\n      jump\t// in\n    tag_233:\n        /* \"tESTtWEET.SOL\":2823:2829  amount */\n      dup2\n        /* \"tESTtWEET.SOL\":2789:2807  _liquidityProvided */\n      0x07\n        /* \"tESTtWEET.SOL\":2789:2819  _liquidityProvided[msg.sender] */\n      0x00\n        /* \"tESTtWEET.SOL\":2808:2818  msg.sender */\n      caller\n        /* \"tESTtWEET.SOL\":2789:2819  _liquidityProvided[msg.sender] */\n      0xffffffffffffffffffffffffffffffffffffffff\n      and\n      0xffffffffffffffffffffffffffffffffffffffff\n      and\n      dup2\n      mstore\n      0x20\n      add\n      swap1\n      dup2\n      mstore\n      0x20\n      add\n      0x00\n      keccak256\n      0x00\n        /* \"tESTtWEET.SOL\":2789:2829  _liquidityProvided[msg.sender] -= amount */\n      dup3\n      dup3\n      sload\n      tag_234\n      swap2\n      swap1\n      tag_152\n      jump\t// in\n    tag_234:\n      swap3\n      pop\n      pop\n      dup2\n      swap1\n      sstore\n      pop\n        /* \"tESTtWEET.SOL\":2877:2878  0 */\n      0x00\n        /* \"tESTtWEET.SOL\":2843:2861  _liquidityProvided */\n      0x07\n        /* \"tESTtWEET.SOL\":2843:2873  _liquidityProvided[msg.sender] */\n      0x00\n        /* \"tESTtWEET.SOL\":2862:2872  msg.sender */\n      caller\n        /* \"tESTtWEET.SOL\":2843:2873  _liquidityProvided[msg.sender] */\n      0xffffffffffffffffffffffffffffffffffffffff\n      and\n      0xffffffffffffffffffffffffffffffffffffffff\n      and\n      dup2\n      mstore\n      0x20\n      add\n      swap1\n      dup2\n      mstore\n      0x20\n      add\n      0x00\n      keccak256\n      sload\n        /* \"tESTtWEET.SOL\":2843:2878  _liquidityProvided[msg.sender] == 0 */\n      sub\n        /* \"tESTtWEET.SOL\":2839:3038  if (_liquidityProvided[msg.sender] == 0) {... */\n      tag_235\n      jumpi\n        /* \"tESTtWEET.SOL\":2936:2937  0 */\n      0x00\n        /* \"tESTtWEET.SOL\":2894:2921  _liquidityProvidedTimestamp */\n      0x08\n        /* \"tESTtWEET.SOL\":2894:2933  _liquidityProvidedTimestamp[msg.sender] */\n      0x00\n        /* \"tESTtWEET.SOL\":2922:2932  msg.sender */\n      caller\n        /* \"tESTtWEET.SOL\":2894:2933  _liquidityProvidedTimestamp[msg.sender] */\n      0xffffffffffffffffffffffffffffffffffffffff\n      and\n      0xffffffffffffffffffffffffffffffffffffffff\n      and\n      dup2\n      mstore\n      0x20\n      add\n      swap1\n      dup2\n      mstore\n      0x20\n      add\n      0x00\n      keccak256\n        /* \"tESTtWEET.SOL\":2894:2937  _liquidityProvidedTimestamp[msg.sender] = 0 */\n      dup2\n      swap1\n      sstore\n      pop\n        /* \"tESTtWEET.SOL\":2839:3038  if (_liquidityProvided[msg.sender] == 0) {... */\n      jump(tag_236)\n    tag_235:\n        /* \"tESTtWEET.SOL\":3011:3026  block.timestamp */\n      timestamp\n        /* \"tESTtWEET.SOL\":2969:2996  _liquidityProvidedTimestamp */\n      0x08\n        /* \"tESTtWEET.SOL\":2969:3008  _liquidityProvidedTimestamp[msg.sender] */\n      0x00\n        /* \"tESTtWEET.SOL\":2997:3007  msg.sender */\n      caller\n        /* \"tESTtWEET.SOL\":2969:3008  _liquidityProvidedTimestamp[msg.sender] */\n      0xffffffffffffffffffffffffffffffffffffffff\n      and\n      0xffffffffffffffffffffffffffffffffffffffff\n      and\n      dup2\n      mstore\n      0x20\n      add\n      swap1\n      dup2\n      mstore\n      0x20\n      add\n      0x00\n      keccak256\n        /* \"tESTtWEET.SOL\":2969:3026  _liquidityProvidedTimestamp[msg.sender] = block.timestamp */\n      dup2\n      swap1\n      sstore\n      pop\n        /* \"tESTtWEET.SOL\":2839:3038  if (_liquidityProvided[msg.sender] == 0) {... */\n    tag_236:\n        /* \"tESTtWEET.SOL\":2316:3044  {... */\n      pop\n        /* \"contracts/security/ReentrancyGuard.sol\":2303:2323  _nonReentrantAfter() */\n      tag_237\n        /* \"contracts/security/ReentrancyGuard.sol\":2303:2321  _nonReentrantAfter */\n      tag_160\n        /* \"contracts/security/ReentrancyGuard.sol\":2303:2323  _nonReentrantAfter() */\n      jump\t// in\n    tag_237:\n        /* \"tESTtWEET.SOL\":2240:3044  function removeLiquidityAndClaimRewards(uint256 amount) public nonReentrant {... */\n      pop\n      jump\t// out\n        /* \"tESTtWEET.SOL\":3050:3380  function calculateReward(address user) public view returns (uint256) {... */\n    tag_113:\n        /* \"tESTtWEET.SOL\":3110:3117  uint256 */\n      0x00\n        /* \"tESTtWEET.SOL\":3184:3191  30 days */\n      0x278d00\n        /* \"tESTtWEET.SOL\":3148:3175  _liquidityProvidedTimestamp */\n      0x08\n        /* \"tESTtWEET.SOL\":3148:3181  _liquidityProvidedTimestamp[user] */\n      0x00\n        /* \"tESTtWEET.SOL\":3176:3180  user */\n      dup5\n        /* \"tESTtWEET.SOL\":3148:3181  _liquidityProvidedTimestamp[user] */\n      0xffffffffffffffffffffffffffffffffffffffff\n      and\n      0xffffffffffffffffffffffffffffffffffffffff\n      and\n      dup2\n      mstore\n      0x20\n      add\n      swap1\n      dup2\n      mstore\n      0x20\n      add\n      0x00\n      keccak256\n      sload\n        /* \"tESTtWEET.SOL\":3148:3191  _liquidityProvidedTimestamp[user] + 30 days */\n      tag_239\n      swap2\n      swap1\n      tag_179\n      jump\t// in\n    tag_239:\n        /* \"tESTtWEET.SOL\":3129:3144  block.timestamp */\n      timestamp\n        /* \"tESTtWEET.SOL\":3129:3191  block.timestamp >= _liquidityProvidedTimestamp[user] + 30 days */\n      lt\n        /* \"tESTtWEET.SOL\":3125:3360  if (block.timestamp >= _liquidityProvidedTimestamp[user] + 30 days) {... */\n      tag_240\n      jumpi\n        /* \"tESTtWEET.SOL\":3203:3217  uint256 reward */\n      0x00\n        /* \"tESTtWEET.SOL\":3253:3256  100 */\n      0x64\n        /* \"tESTtWEET.SOL\":3248:3249  5 */\n      0x05\n        /* \"tESTtWEET.SOL\":3221:3239  _liquidityProvided */\n      0x07\n        /* \"tESTtWEET.SOL\":3221:3245  _liquidityProvided[user] */\n      0x00\n        /* \"tESTtWEET.SOL\":3240:3244  user */\n      dup7\n        /* \"tESTtWEET.SOL\":3221:3245  _liquidityProvided[user] */\n      0xffffffffffffffffffffffffffffffffffffffff\n      and\n      0xffffffffffffffffffffffffffffffffffffffff\n      and\n      dup2\n      mstore\n      0x20\n      add\n      swap1\n      dup2\n      mstore\n      0x20\n      add\n      0x00\n      keccak256\n      sload\n        /* \"tESTtWEET.SOL\":3221:3249  _liquidityProvided[user] * 5 */\n      tag_241\n      swap2\n      swap1\n      tag_242\n      jump\t// in\n    tag_241:\n        /* \"tESTtWEET.SOL\":3220:3256  (_liquidityProvided[user] * 5) / 100 */\n      tag_243\n      swap2\n      swap1\n      tag_244\n      jump\t// in\n    tag_243:\n        /* \"tESTtWEET.SOL\":3203:3256  uint256 reward = (_liquidityProvided[user] * 5) / 100 */\n      swap1\n      pop\n        /* \"tESTtWEET.SOL\":488:513  5_000_000_000 * (10 ** 0) */\n      0x012a05f200\n        /* \"tESTtWEET.SOL\":3294:3300  reward */\n      dup2\n        /* \"tESTtWEET.SOL\":3278:3291  totalSupply() */\n      tag_245\n        /* \"tESTtWEET.SOL\":3278:3289  totalSupply */\n      tag_45\n        /* \"tESTtWEET.SOL\":3278:3291  totalSupply() */\n      jump\t// in\n    tag_245:\n        /* \"tESTtWEET.SOL\":3278:3300  totalSupply() + reward */\n      tag_246\n      swap2\n      swap1\n      tag_179\n      jump\t// in\n    tag_246:\n        /* \"tESTtWEET.SOL\":3278:3314  totalSupply() + reward <= MAX_SUPPLY */\n      gt\n        /* \"tESTtWEET.SOL\":3274:3354  if (totalSupply() + reward <= MAX_SUPPLY) {... */\n      tag_247\n      jumpi\n        /* \"tESTtWEET.SOL\":3337:3343  reward */\n      dup1\n        /* \"tESTtWEET.SOL\":3330:3343  return reward */\n      swap2\n      pop\n      pop\n      jump(tag_238)\n        /* \"tESTtWEET.SOL\":3274:3354  if (totalSupply() + reward <= MAX_SUPPLY) {... */\n    tag_247:\n        /* \"tESTtWEET.SOL\":3193:3360  {... */\n      pop\n        /* \"tESTtWEET.SOL\":3125:3360  if (block.timestamp >= _liquidityProvidedTimestamp[user] + 30 days) {... */\n    tag_240:\n        /* \"tESTtWEET.SOL\":3372:3373  0 */\n      0x00\n        /* \"tESTtWEET.SOL\":3365:3373  return 0 */\n      swap1\n      pop\n        /* \"tESTtWEET.SOL\":3050:3380  function calculateReward(address user) public view returns (uint256) {... */\n    tag_238:\n      swap2\n      swap1\n      pop\n      jump\t// out\n        /* \"contracts/token/ERC20/ERC20.sol\":2794:2934  function allowance(address owner, address spender) public view virtual returns (uint256) {... */\n    tag_118:\n        /* \"contracts/token/ERC20/ERC20.sol\":2874:2881  uint256 */\n      0x00\n        /* \"contracts/token/ERC20/ERC20.sol\":2900:2911  _allowances */\n      0x01\n        /* \"contracts/token/ERC20/ERC20.sol\":2900:2918  _allowances[owner] */\n      0x00\n        /* \"contracts/token/ERC20/ERC20.sol\":2912:2917  owner */\n      dup5\n        /* \"contracts/token/ERC20/ERC20.sol\":2900:2918  _allowances[owner] */\n      0xffffffffffffffffffffffffffffffffffffffff\n      and\n      0xffffffffffffffffffffffffffffffffffffffff\n      and\n      dup2\n      mstore\n      0x20\n      add\n      swap1\n      dup2\n      mstore\n      0x20\n      add\n      0x00\n      keccak256\n        /* \"contracts/token/ERC20/ERC20.sol\":2900:2927  _allowances[owner][spender] */\n      0x00\n        /* \"contracts/token/ERC20/ERC20.sol\":2919:2926  spender */\n      dup4\n        /* \"contracts/token/ERC20/ERC20.sol\":2900:2927  _allowances[owner][spender] */\n      0xffffffffffffffffffffffffffffffffffffffff\n      and\n      0xffffffffffffffffffffffffffffffffffffffff\n      and\n      dup2\n      mstore\n      0x20\n      add\n      swap1\n      dup2\n      mstore\n      0x20\n      add\n      0x00\n      keccak256\n      sload\n        /* \"contracts/token/ERC20/ERC20.sol\":2893:2927  return _allowances[owner][spender] */\n      swap1\n      pop\n        /* \"contracts/token/ERC20/ERC20.sol\":2794:2934  function allowance(address owner, address spender) public view virtual returns (uint256) {... */\n      swap3\n      swap2\n      pop\n      pop\n      jump\t// out\n        /* \"contracts/access/Ownable.sol\":2543:2758  function transferOwnership(address newOwner) public virtual onlyOwner {... */\n    tag_122:\n        /* \"contracts/access/Ownable.sol\":1531:1544  _checkOwner() */\n      tag_250\n        /* \"contracts/access/Ownable.sol\":1531:1542  _checkOwner */\n      tag_138\n        /* \"contracts/access/Ownable.sol\":1531:1544  _checkOwner() */\n      jump\t// in\n    tag_250:\n        /* \"contracts/access/Ownable.sol\":2647:2648  0 */\n      0x00\n        /* \"contracts/access/Ownable.sol\":2627:2649  newOwner == address(0) */\n      0xffffffffffffffffffffffffffffffffffffffff\n      and\n        /* \"contracts/access/Ownable.sol\":2627:2635  newOwner */\n      dup2\n        /* \"contracts/access/Ownable.sol\":2627:2649  newOwner == address(0) */\n      0xffffffffffffffffffffffffffffffffffffffff\n      and\n      sub\n        /* \"contracts/access/Ownable.sol\":2623:2714  if (newOwner == address(0)) {... */\n      tag_252\n      jumpi\n        /* \"contracts/access/Ownable.sol\":2700:2701  0 */\n      0x00\n        /* \"contracts/access/Ownable.sol\":2672:2703  OwnableInvalidOwner(address(0)) */\n      mload(0x40)\n      0x1e4fbdf700000000000000000000000000000000000000000000000000000000\n      dup2\n      mstore\n      0x04\n      add\n      tag_253\n      swap2\n      swap1\n      tag_95\n      jump\t// in\n    tag_253:\n      mload(0x40)\n      dup1\n      swap2\n      sub\n      swap1\n      revert\n        /* \"contracts/access/Ownable.sol\":2623:2714  if (newOwner == address(0)) {... */\n    tag_252:\n        /* \"contracts/access/Ownable.sol\":2723:2751  _transferOwnership(newOwner) */\n      tag_254\n        /* \"contracts/access/Ownable.sol\":2742:2750  newOwner */\n      dup2\n        /* \"contracts/access/Ownable.sol\":2723:2741  _transferOwnership */\n      tag_186\n        /* \"contracts/access/Ownable.sol\":2723:2751  _transferOwnership(newOwner) */\n      jump\t// in\n    tag_254:\n        /* \"contracts/access/Ownable.sol\":2543:2758  function transferOwnership(address newOwner) public virtual onlyOwner {... */\n      pop\n      jump\t// out\n        /* \"contracts/utils/Context.sol\":656:752  function _msgSender() internal view virtual returns (address) {... */\n    tag_132:\n        /* \"contracts/utils/Context.sol\":709:716  address */\n      0x00\n        /* \"contracts/utils/Context.sol\":735:745  msg.sender */\n      caller\n        /* \"contracts/utils/Context.sol\":728:745  return msg.sender */\n      swap1\n      pop\n        /* \"contracts/utils/Context.sol\":656:752  function _msgSender() internal view virtual returns (address) {... */\n      swap1\n      jump\t// out\n        /* \"contracts/token/ERC20/ERC20.sol\":8090:8218  function _approve(address owner, address spender, uint256 value) internal {... */\n    tag_134:\n        /* \"contracts/token/ERC20/ERC20.sol\":8174:8211  _approve(owner, spender, value, true) */\n      tag_257\n        /* \"contracts/token/ERC20/ERC20.sol\":8183:8188  owner */\n      dup4\n        /* \"contracts/token/ERC20/ERC20.sol\":8190:8197  spender */\n      dup4\n        /* \"contracts/token/ERC20/ERC20.sol\":8199:8204  value */\n      dup4\n        /* \"contracts/token/ERC20/ERC20.sol\":8206:8210  true */\n      0x01\n        /* \"contracts/token/ERC20/ERC20.sol\":8174:8182  _approve */\n      tag_258\n        /* \"contracts/token/ERC20/ERC20.sol\":8174:8211  _approve(owner, spender, value, true) */\n      jump\t// in\n    tag_257:\n        /* \"contracts/token/ERC20/ERC20.sol\":8090:8218  function _approve(address owner, address spender, uint256 value) internal {... */\n      pop\n      pop\n      pop\n      jump\t// out\n        /* \"contracts/access/Ownable.sol\":1796:1958  function _checkOwner() internal view virtual {... */\n    tag_138:\n        /* \"contracts/access/Ownable.sol\":1866:1878  _msgSender() */\n      tag_260\n        /* \"contracts/access/Ownable.sol\":1866:1876  _msgSender */\n      tag_132\n        /* \"contracts/access/Ownable.sol\":1866:1878  _msgSender() */\n      jump\t// in\n    tag_260:\n        /* \"contracts/access/Ownable.sol\":1855:1878  owner() != _msgSender() */\n      0xffffffffffffffffffffffffffffffffffffffff\n      and\n        /* \"contracts/access/Ownable.sol\":1855:1862  owner() */\n      tag_261\n        /* \"contracts/access/Ownable.sol\":1855:1860  owner */\n      tag_93\n        /* \"contracts/access/Ownable.sol\":1855:1862  owner() */\n      jump\t// in\n    tag_261:\n        /* \"contracts/access/Ownable.sol\":1855:1878  owner() != _msgSender() */\n      0xffffffffffffffffffffffffffffffffffffffff\n      and\n      eq\n        /* \"contracts/access/Ownable.sol\":1851:1952  if (owner() != _msgSender()) {... */\n      tag_262\n      jumpi\n        /* \"contracts/access/Ownable.sol\":1928:1940  _msgSender() */\n      tag_263\n        /* \"contracts/access/Ownable.sol\":1928:1938  _msgSender */\n      tag_132\n        /* \"contracts/access/Ownable.sol\":1928:1940  _msgSender() */\n      jump\t// in\n    tag_263:\n        /* \"contracts/access/Ownable.sol\":1901:1941  OwnableUnauthorizedAccount(_msgSender()) */\n      mload(0x40)\n      0x118cdaa700000000000000000000000000000000000000000000000000000000\n      dup2\n      mstore\n      0x04\n      add\n      tag_264\n      swap2\n      swap1\n      tag_95\n      jump\t// in\n    tag_264:\n      mload(0x40)\n      dup1\n      swap2\n      sub\n      swap1\n      revert\n        /* \"contracts/access/Ownable.sol\":1851:1952  if (owner() != _msgSender()) {... */\n    tag_262:\n        /* \"contracts/access/Ownable.sol\":1796:1958  function _checkOwner() internal view virtual {... */\n      jump\t// out\n        /* \"contracts/security/ReentrancyGuard.sol\":2336:2623  function _nonReentrantBefore() private {... */\n    tag_144:\n        /* \"contracts/security/ReentrancyGuard.sol\":1759:1760  2 */\n      0x02\n        /* \"contracts/security/ReentrancyGuard.sol\":2468:2475  _status */\n      sload(0x06)\n        /* \"contracts/security/ReentrancyGuard.sol\":2468:2487  _status != _ENTERED */\n      sub\n        /* \"contracts/security/ReentrancyGuard.sol\":2460:2523  require(_status != _ENTERED, \"ReentrancyGuard: reentrant call\") */\n      tag_266\n      jumpi\n      mload(0x40)\n      0x08c379a000000000000000000000000000000000000000000000000000000000\n      dup2\n      mstore\n      0x04\n      add\n      tag_267\n      swap1\n      tag_268\n      jump\t// in\n    tag_267:\n      mload(0x40)\n      dup1\n      swap2\n      sub\n      swap1\n      revert\n    tag_266:\n        /* \"contracts/security/ReentrancyGuard.sol\":1759:1760  2 */\n      0x02\n        /* \"contracts/security/ReentrancyGuard.sol\":2598:2605  _status */\n      0x06\n        /* \"contracts/security/ReentrancyGuard.sol\":2598:2616  _status = _ENTERED */\n      dup2\n      swap1\n      sstore\n      pop\n        /* \"contracts/security/ReentrancyGuard.sol\":2336:2623  function _nonReentrantBefore() private {... */\n      jump\t// out\n        /* \"tESTtWEET.SOL\":1392:1773  function _transfer(address sender, address recipient, uint256 amount) internal override circuitBreakerNotActive {... */\n    tag_158:\n        /* \"tESTtWEET.SOL\":1114:1136  _circuitBreakerEnabled */\n      0x09\n      0x00\n      swap1\n      sload\n      swap1\n      0x0100\n      exp\n      swap1\n      div\n      0xff\n      and\n        /* \"tESTtWEET.SOL\":1113:1136  !_circuitBreakerEnabled */\n      iszero\n        /* \"tESTtWEET.SOL\":1105:1166  require(!_circuitBreakerEnabled, \"Circuit breaker is active\") */\n      tag_270\n      jumpi\n      mload(0x40)\n      0x08c379a000000000000000000000000000000000000000000000000000000000\n      dup2\n      mstore\n      0x04\n      add\n      tag_271\n      swap1\n      tag_272\n      jump\t// in\n    tag_271:\n      mload(0x40)\n      dup1\n      swap2\n      sub\n      swap1\n      revert\n    tag_270:\n        /* \"tESTtWEET.SOL\":1514:1532  uint256 burnAmount */\n      0x00\n        /* \"tESTtWEET.SOL\":1544:1550  100000 */\n      0x0186a0\n        /* \"tESTtWEET.SOL\":1535:1541  amount */\n      dup3\n        /* \"tESTtWEET.SOL\":1535:1550  amount / 100000 */\n      tag_274\n      swap2\n      swap1\n      tag_244\n      jump\t// in\n    tag_274:\n        /* \"tESTtWEET.SOL\":1514:1550  uint256 burnAmount = amount / 100000 */\n      swap1\n      pop\n        /* \"tESTtWEET.SOL\":1560:1578  uint256 sendAmount */\n      0x00\n        /* \"tESTtWEET.SOL\":1590:1600  burnAmount */\n      dup2\n        /* \"tESTtWEET.SOL\":1581:1587  amount */\n      dup4\n        /* \"tESTtWEET.SOL\":1581:1600  amount - burnAmount */\n      tag_275\n      swap2\n      swap1\n      tag_152\n      jump\t// in\n    tag_275:\n        /* \"tESTtWEET.SOL\":1560:1600  uint256 sendAmount = amount - burnAmount */\n      swap1\n      pop\n        /* \"tESTtWEET.SOL\":1641:1651  burnAmount */\n      dup2\n        /* \"tESTtWEET.SOL\":1628:1638  sendAmount */\n      dup2\n        /* \"tESTtWEET.SOL\":1628:1651  sendAmount + burnAmount */\n      tag_276\n      swap2\n      swap1\n      tag_179\n      jump\t// in\n    tag_276:\n        /* \"tESTtWEET.SOL\":1618:1624  amount */\n      dup4\n        /* \"tESTtWEET.SOL\":1618:1651  amount == sendAmount + burnAmount */\n      eq\n        /* \"tESTtWEET.SOL\":1610:1674  require(amount == sendAmount + burnAmount, \"Burn value invalid\") */\n      tag_277\n      jumpi\n      mload(0x40)\n      0x08c379a000000000000000000000000000000000000000000000000000000000\n      dup2\n      mstore\n      0x04\n      add\n      tag_278\n      swap1\n      tag_279\n      jump\t// in\n    tag_278:\n      mload(0x40)\n      dup1\n      swap2\n      sub\n      swap1\n      revert\n    tag_277:\n        /* \"tESTtWEET.SOL\":1685:1731  super._transfer(sender, recipient, sendAmount) */\n      tag_280\n        /* \"tESTtWEET.SOL\":1701:1707  sender */\n      dup6\n        /* \"tESTtWEET.SOL\":1709:1718  recipient */\n      dup6\n        /* \"tESTtWEET.SOL\":1720:1730  sendAmount */\n      dup4\n        /* \"tESTtWEET.SOL\":1685:1700  super._transfer */\n      tag_281\n        /* \"tESTtWEET.SOL\":1685:1731  super._transfer(sender, recipient, sendAmount) */\n      jump\t// in\n    tag_280:\n        /* \"tESTtWEET.SOL\":1741:1766  _burn(sender, burnAmount) */\n      tag_282\n        /* \"tESTtWEET.SOL\":1747:1753  sender */\n      dup6\n        /* \"tESTtWEET.SOL\":1755:1765  burnAmount */\n      dup4\n        /* \"tESTtWEET.SOL\":1741:1746  _burn */\n      tag_175\n        /* \"tESTtWEET.SOL\":1741:1766  _burn(sender, burnAmount) */\n      jump\t// in\n    tag_282:\n        /* \"tESTtWEET.SOL\":1504:1773  {... */\n      pop\n      pop\n        /* \"tESTtWEET.SOL\":1392:1773  function _transfer(address sender, address recipient, uint256 amount) internal override circuitBreakerNotActive {... */\n      pop\n      pop\n      pop\n      jump\t// out\n        /* \"contracts/security/ReentrancyGuard.sol\":2629:2838  function _nonReentrantAfter() private {... */\n    tag_160:\n        /* \"contracts/security/ReentrancyGuard.sol\":1716:1717  1 */\n      0x01\n        /* \"contracts/security/ReentrancyGuard.sol\":2809:2816  _status */\n      0x06\n        /* \"contracts/security/ReentrancyGuard.sol\":2809:2831  _status = _NOT_ENTERED */\n      dup2\n      swap1\n      sstore\n      pop\n        /* \"contracts/security/ReentrancyGuard.sol\":2629:2838  function _nonReentrantAfter() private {... */\n      jump\t// out\n        /* \"contracts/token/ERC20/ERC20.sol\":9764:10241  function _spendAllowance(address owner, address spender, uint256 value) internal virtual {... */\n    tag_164:\n        /* \"contracts/token/ERC20/ERC20.sol\":9863:9887  uint256 currentAllowance */\n      0x00\n        /* \"contracts/token/ERC20/ERC20.sol\":9890:9915  allowance(owner, spender) */\n      tag_285\n        /* \"contracts/token/ERC20/ERC20.sol\":9900:9905  owner */\n      dup5\n        /* \"contracts/token/ERC20/ERC20.sol\":9907:9914  spender */\n      dup5\n        /* \"contracts/token/ERC20/ERC20.sol\":9890:9899  allowance */\n      tag_118\n        /* \"contracts/token/ERC20/ERC20.sol\":9890:9915  allowance(owner, spender) */\n      jump\t// in\n    tag_285:\n        /* \"contracts/token/ERC20/ERC20.sol\":9863:9915  uint256 currentAllowance = allowance(owner, spender) */\n      swap1\n      pop\n        /* \"contracts/token/ERC20/ERC20.sol\":9949:9966  type(uint256).max */\n      0xffffffffffffffffffffffffffffffffffffffffffffffffffffffffffffffff\n        /* \"contracts/token/ERC20/ERC20.sol\":9929:9945  currentAllowance */\n      dup2\n        /* \"contracts/token/ERC20/ERC20.sol\":9929:9966  currentAllowance != type(uint256).max */\n      eq\n        /* \"contracts/token/ERC20/ERC20.sol\":9925:10235  if (currentAllowance != type(uint256).max) {... */\n      tag_286\n      jumpi\n        /* \"contracts/token/ERC20/ERC20.sol\":10005:10010  value */\n      dup2\n        /* \"contracts/token/ERC20/ERC20.sol\":9986:10002  currentAllowance */\n      dup2\n        /* \"contracts/token/ERC20/ERC20.sol\":9986:10010  currentAllowance < value */\n      lt\n        /* \"contracts/token/ERC20/ERC20.sol\":9982:10112  if (currentAllowance < value) {... */\n      iszero\n      tag_287\n      jumpi\n        /* \"contracts/token/ERC20/ERC20.sol\":10064:10071  spender */\n      dup3\n        /* \"contracts/token/ERC20/ERC20.sol\":10073:10089  currentAllowance */\n      dup2\n        /* \"contracts/token/ERC20/ERC20.sol\":10091:10096  value */\n      dup4\n        /* \"contracts/token/ERC20/ERC20.sol\":10037:10097  ERC20InsufficientAllowance(spender, currentAllowance, value) */\n      mload(0x40)\n      0xfb8f41b200000000000000000000000000000000000000000000000000000000\n      dup2\n      mstore\n      0x04\n      add\n      tag_288\n      swap4\n      swap3\n      swap2\n      swap1\n      tag_289\n      jump\t// in\n    tag_288:\n      mload(0x40)\n      dup1\n      swap2\n      sub\n      swap1\n      revert\n        /* \"contracts/token/ERC20/ERC20.sol\":9982:10112  if (currentAllowance < value) {... */\n    tag_287:\n        /* \"contracts/token/ERC20/ERC20.sol\":10153:10210  _approve(owner, spender, currentAllowance - value, false) */\n      tag_290\n        /* \"contracts/token/ERC20/ERC20.sol\":10162:10167  owner */\n      dup5\n        /* \"contracts/token/ERC20/ERC20.sol\":10169:10176  spender */\n      dup5\n        /* \"contracts/token/ERC20/ERC20.sol\":10197:10202  value */\n      dup5\n        /* \"contracts/token/ERC20/ERC20.sol\":10178:10194  currentAllowance */\n      dup5\n        /* \"contracts/token/ERC20/ERC20.sol\":10178:10202  currentAllowance - value */\n      sub\n        /* \"contracts/token/ERC20/ERC20.sol\":10204:10209  false */\n      0x00\n        /* \"contracts/token/ERC20/ERC20.sol\":10153:10161  _approve */\n      tag_258\n        /* \"contracts/token/ERC20/ERC20.sol\":10153:10210  _approve(owner, spender, currentAllowance - value, false) */\n      jump\t// in\n    tag_290:\n        /* \"contracts/token/ERC20/ERC20.sol\":9925:10235  if (currentAllowance != type(uint256).max) {... */\n    tag_286:\n        /* \"contracts/token/ERC20/ERC20.sol\":9853:10241  {... */\n      pop\n        /* \"contracts/token/ERC20/ERC20.sol\":9764:10241  function _spendAllowance(address owner, address spender, uint256 value) internal virtual {... */\n      pop\n      pop\n      pop\n      jump\t// out\n        /* \"contracts/security/Pausable.sol\":2433:2550  function _unpause() internal virtual whenPaused {... */\n    tag_171:\n        /* \"contracts/security/Pausable.sol\":1486:1502  _requirePaused() */\n      tag_292\n        /* \"contracts/security/Pausable.sol\":1486:1500  _requirePaused */\n      tag_293\n        /* \"contracts/security/Pausable.sol\":1486:1502  _requirePaused() */\n      jump\t// in\n    tag_292:\n        /* \"contracts/security/Pausable.sol\":2501:2506  false */\n      0x00\n        /* \"contracts/security/Pausable.sol\":2491:2498  _paused */\n      0x05\n      0x00\n        /* \"contracts/security/Pausable.sol\":2491:2506  _paused = false */\n      0x0100\n      exp\n      dup2\n      sload\n      dup2\n      0xff\n      mul\n      not\n      and\n      swap1\n      dup4\n      iszero\n      iszero\n      mul\n      or\n      swap1\n      sstore\n      pop\n        /* \"contracts/security/Pausable.sol\":2521:2543  Unpaused(_msgSender()) */\n      0x5db9ee0a495bf2e6ff9c91a7834c1ba4fdd244a5e8aa4e537bd38aeae4b073aa\n        /* \"contracts/security/Pausable.sol\":2530:2542  _msgSender() */\n      tag_295\n        /* \"contracts/security/Pausable.sol\":2530:2540  _msgSender */\n      tag_132\n        /* \"contracts/security/Pausable.sol\":2530:2542  _msgSender() */\n      jump\t// in\n    tag_295:\n        /* \"contracts/security/Pausable.sol\":2521:2543  Unpaused(_msgSender()) */\n      mload(0x40)\n      tag_296\n      swap2\n      swap1\n      tag_95\n      jump\t// in\n    tag_296:\n      mload(0x40)\n      dup1\n      swap2\n      sub\n      swap1\n      log1\n        /* \"contracts/security/Pausable.sol\":2433:2550  function _unpause() internal virtual whenPaused {... */\n      jump\t// out\n        /* \"contracts/token/ERC20/ERC20.sol\":7212:7418  function _burn(address account, uint256 value) internal {... */\n    tag_175:\n        /* \"contracts/token/ERC20/ERC20.sol\":7301:7302  0 */\n      0x00\n        /* \"contracts/token/ERC20/ERC20.sol\":7282:7303  account == address(0) */\n      0xffffffffffffffffffffffffffffffffffffffff\n      and\n        /* \"contracts/token/ERC20/ERC20.sol\":7282:7289  account */\n      dup3\n        /* \"contracts/token/ERC20/ERC20.sol\":7282:7303  account == address(0) */\n      0xffffffffffffffffffffffffffffffffffffffff\n      and\n      sub\n        /* \"contracts/token/ERC20/ERC20.sol\":7278:7367  if (account == address(0)) {... */\n      tag_298\n      jumpi\n        /* \"contracts/token/ERC20/ERC20.sol\":7353:7354  0 */\n      0x00\n        /* \"contracts/token/ERC20/ERC20.sol\":7326:7356  ERC20InvalidSender(address(0)) */\n      mload(0x40)\n      0x96c6fd1e00000000000000000000000000000000000000000000000000000000\n      dup2\n      mstore\n      0x04\n      add\n      tag_299\n      swap2\n      swap1\n      tag_95\n      jump\t// in\n    tag_299:\n      mload(0x40)\n      dup1\n      swap2\n      sub\n      swap1\n      revert\n        /* \"contracts/token/ERC20/ERC20.sol\":7278:7367  if (account == address(0)) {... */\n    tag_298:\n        /* \"contracts/token/ERC20/ERC20.sol\":7376:7411  _update(account, address(0), value) */\n      tag_300\n        /* \"contracts/token/ERC20/ERC20.sol\":7384:7391  account */\n      dup3\n        /* \"contracts/token/ERC20/ERC20.sol\":7401:7402  0 */\n      0x00\n        /* \"contracts/token/ERC20/ERC20.sol\":7405:7410  value */\n      dup4\n        /* \"contracts/token/ERC20/ERC20.sol\":7376:7383  _update */\n      tag_301\n        /* \"contracts/token/ERC20/ERC20.sol\":7376:7411  _update(account, address(0), value) */\n      jump\t// in\n    tag_300:\n        /* \"contracts/token/ERC20/ERC20.sol\":7212:7418  function _burn(address account, uint256 value) internal {... */\n      pop\n      pop\n      jump\t// out\n        /* \"contracts/access/Ownable.sol\":2912:3099  function _transferOwnership(address newOwner) internal virtual {... */\n    tag_186:\n        /* \"contracts/access/Ownable.sol\":2985:3001  address oldOwner */\n      0x00\n        /* \"contracts/access/Ownable.sol\":3004:3010  _owner */\n      0x05\n      0x01\n      swap1\n      sload\n      swap1\n      0x0100\n      exp\n      swap1\n      div\n      0xffffffffffffffffffffffffffffffffffffffff\n      and\n        /* \"contracts/access/Ownable.sol\":2985:3010  address oldOwner = _owner */\n      swap1\n      pop\n        /* \"contracts/access/Ownable.sol\":3029:3037  newOwner */\n      dup2\n        /* \"contracts/access/Ownable.sol\":3020:3026  _owner */\n      0x05\n      0x01\n        /* \"contracts/access/Ownable.sol\":3020:3037  _owner = newOwner */\n      0x0100\n      exp\n      dup2\n      sload\n      dup2\n      0xffffffffffffffffffffffffffffffffffffffff\n      mul\n      not\n      and\n      swap1\n      dup4\n      0xffffffffffffffffffffffffffffffffffffffff\n      and\n      mul\n      or\n      swap1\n      sstore\n      pop\n        /* \"contracts/access/Ownable.sol\":3083:3091  newOwner */\n      dup2\n        /* \"contracts/access/Ownable.sol\":3052:3092  OwnershipTransferred(oldOwner, newOwner) */\n      0xffffffffffffffffffffffffffffffffffffffff\n      and\n        /* \"contracts/access/Ownable.sol\":3073:3081  oldOwner */\n      dup2\n        /* \"contracts/access/Ownable.sol\":3052:3092  OwnershipTransferred(oldOwner, newOwner) */\n      0xffffffffffffffffffffffffffffffffffffffff\n      and\n      0x8be0079c531659141344cd1fd0a4f28419497f9722a3daafe3b4186f6b6457e0\n      mload(0x40)\n      mload(0x40)\n      dup1\n      swap2\n      sub\n      swap1\n      log3\n        /* \"contracts/access/Ownable.sol\":2975:3099  {... */\n      pop\n        /* \"contracts/access/Ownable.sol\":2912:3099  function _transferOwnership(address newOwner) internal virtual {... */\n      pop\n      jump\t// out\n        /* \"contracts/security/Pausable.sol\":2186:2301  function _pause() internal virtual whenNotPaused {... */\n    tag_195:\n        /* \"contracts/security/Pausable.sol\":1239:1258  _requireNotPaused() */\n      tag_304\n        /* \"contracts/security/Pausable.sol\":1239:1256  _requireNotPaused */\n      tag_305\n        /* \"contracts/security/Pausable.sol\":1239:1258  _requireNotPaused() */\n      jump\t// in\n    tag_304:\n        /* \"contracts/security/Pausable.sol\":2255:2259  true */\n      0x01\n        /* \"contracts/security/Pausable.sol\":2245:2252  _paused */\n      0x05\n      0x00\n        /* \"contracts/security/Pausable.sol\":2245:2259  _paused = true */\n      0x0100\n      exp\n      dup2\n      sload\n      dup2\n      0xff\n      mul\n      not\n      and\n      swap1\n      dup4\n      iszero\n      iszero\n      mul\n      or\n      swap1\n      sstore\n      pop\n        /* \"contracts/security/Pausable.sol\":2274:2294  Paused(_msgSender()) */\n      0x62e78cea01bee320cd4e420270b5ea74000d11b0c9f74754ebdbfc544b05a258\n        /* \"contracts/security/Pausable.sol\":2281:2293  _msgSender() */\n      tag_307\n        /* \"contracts/security/Pausable.sol\":2281:2291  _msgSender */\n      tag_132\n        /* \"contracts/security/Pausable.sol\":2281:2293  _msgSender() */\n      jump\t// in\n    tag_307:\n        /* \"contracts/security/Pausable.sol\":2274:2294  Paused(_msgSender()) */\n      mload(0x40)\n      tag_308\n      swap2\n      swap1\n      tag_95\n      jump\t// in\n    tag_308:\n      mload(0x40)\n      dup1\n      swap2\n      sub\n      swap1\n      log1\n        /* \"contracts/security/Pausable.sol\":2186:2301  function _pause() internal virtual whenNotPaused {... */\n      jump\t// out\n        /* \"contracts/token/ERC20/ERC20.sol\":6677:6894  function _mint(address account, uint256 value) internal virtual  {... */\n    tag_216:\n        /* \"contracts/token/ERC20/ERC20.sol\":6775:6776  0 */\n      0x00\n        /* \"contracts/token/ERC20/ERC20.sol\":6756:6777  account == address(0) */\n      0xffffffffffffffffffffffffffffffffffffffff\n      and\n        /* \"contracts/token/ERC20/ERC20.sol\":6756:6763  account */\n      dup3\n        /* \"contracts/token/ERC20/ERC20.sol\":6756:6777  account == address(0) */\n      0xffffffffffffffffffffffffffffffffffffffff\n      and\n      sub\n        /* \"contracts/token/ERC20/ERC20.sol\":6752:6843  if (account == address(0)) {... */\n      tag_310\n      jumpi\n        /* \"contracts/token/ERC20/ERC20.sol\":6829:6830  0 */\n      0x00\n        /* \"contracts/token/ERC20/ERC20.sol\":6800:6832  ERC20InvalidReceiver(address(0)) */\n      mload(0x40)\n      0xec442f0500000000000000000000000000000000000000000000000000000000\n      dup2\n      mstore\n      0x04\n      add\n      tag_311\n      swap2\n      swap1\n      tag_95\n      jump\t// in\n    tag_311:\n      mload(0x40)\n      dup1\n      swap2\n      sub\n      swap1\n      revert\n        /* \"contracts/token/ERC20/ERC20.sol\":6752:6843  if (account == address(0)) {... */\n    tag_310:\n        /* \"contracts/token/ERC20/ERC20.sol\":6852:6887  _update(address(0), account, value) */\n      tag_312\n        /* \"contracts/token/ERC20/ERC20.sol\":6868:6869  0 */\n      0x00\n        /* \"contracts/token/ERC20/ERC20.sol\":6872:6879  account */\n      dup4\n        /* \"contracts/token/ERC20/ERC20.sol\":6881:6886  value */\n      dup4\n        /* \"contracts/token/ERC20/ERC20.sol\":6852:6859  _update */\n      tag_301\n        /* \"contracts/token/ERC20/ERC20.sol\":6852:6887  _update(address(0), account, value) */\n      jump\t// in\n    tag_312:\n        /* \"contracts/token/ERC20/ERC20.sol\":6677:6894  function _mint(address account, uint256 value) internal virtual  {... */\n      pop\n      pop\n      jump\t// out\n        /* \"contracts/token/ERC20/ERC20.sol\":9050:9482  function _approve(address owner, address spender, uint256 value, bool emitEvent) internal virtual {... */\n    tag_258:\n        /* \"contracts/token/ERC20/ERC20.sol\":9179:9180  0 */\n      0x00\n        /* \"contracts/token/ERC20/ERC20.sol\":9162:9181  owner == address(0) */\n      0xffffffffffffffffffffffffffffffffffffffff\n      and\n        /* \"contracts/token/ERC20/ERC20.sol\":9162:9167  owner */\n      dup5\n        /* \"contracts/token/ERC20/ERC20.sol\":9162:9181  owner == address(0) */\n      0xffffffffffffffffffffffffffffffffffffffff\n      and\n      sub\n        /* \"contracts/token/ERC20/ERC20.sol\":9158:9247  if (owner == address(0)) {... */\n      tag_314\n      jumpi\n        /* \"contracts/token/ERC20/ERC20.sol\":9233:9234  0 */\n      0x00\n        /* \"contracts/token/ERC20/ERC20.sol\":9204:9236  ERC20InvalidApprover(address(0)) */\n      mload(0x40)\n      0xe602df0500000000000000000000000000000000000000000000000000000000\n      dup2\n      mstore\n      0x04\n      add\n      tag_315\n      swap2\n      swap1\n      tag_95\n      jump\t// in\n    tag_315:\n      mload(0x40)\n      dup1\n      swap2\n      sub\n      swap1\n      revert\n        /* \"contracts/token/ERC20/ERC20.sol\":9158:9247  if (owner == address(0)) {... */\n    tag_314:\n        /* \"contracts/token/ERC20/ERC20.sol\":9279:9280  0 */\n      0x00\n        /* \"contracts/token/ERC20/ERC20.sol\":9260:9281  spender == address(0) */\n      0xffffffffffffffffffffffffffffffffffffffff\n      and\n        /* \"contracts/token/ERC20/ERC20.sol\":9260:9267  spender */\n      dup4\n        /* \"contracts/token/ERC20/ERC20.sol\":9260:9281  spender == address(0) */\n      0xffffffffffffffffffffffffffffffffffffffff\n      and\n      sub\n        /* \"contracts/token/ERC20/ERC20.sol\":9256:9346  if (spender == address(0)) {... */\n      tag_316\n      jumpi\n        /* \"contracts/token/ERC20/ERC20.sol\":9332:9333  0 */\n      0x00\n        /* \"contracts/token/ERC20/ERC20.sol\":9304:9335  ERC20InvalidSpender(address(0)) */\n      mload(0x40)\n      0x94280d6200000000000000000000000000000000000000000000000000000000\n      dup2\n      mstore\n      0x04\n      add\n      tag_317\n      swap2\n      swap1\n      tag_95\n      jump\t// in\n    tag_317:\n      mload(0x40)\n      dup1\n      swap2\n      sub\n      swap1\n      revert\n        /* \"contracts/token/ERC20/ERC20.sol\":9256:9346  if (spender == address(0)) {... */\n    tag_316:\n        /* \"contracts/token/ERC20/ERC20.sol\":9385:9390  value */\n      dup2\n        /* \"contracts/token/ERC20/ERC20.sol\":9355:9366  _allowances */\n      0x01\n        /* \"contracts/token/ERC20/ERC20.sol\":9355:9373  _allowances[owner] */\n      0x00\n        /* \"contracts/token/ERC20/ERC20.sol\":9367:9372  owner */\n      dup7\n        /* \"contracts/token/ERC20/ERC20.sol\":9355:9373  _allowances[owner] */\n      0xffffffffffffffffffffffffffffffffffffffff\n      and\n      0xffffffffffffffffffffffffffffffffffffffff\n      and\n      dup2\n      mstore\n      0x20\n      add\n      swap1\n      dup2\n      mstore\n      0x20\n      add\n      0x00\n      keccak256\n        /* \"contracts/token/ERC20/ERC20.sol\":9355:9382  _allowances[owner][spender] */\n      0x00\n        /* \"contracts/token/ERC20/ERC20.sol\":9374:9381  spender */\n      dup6\n        /* \"contracts/token/ERC20/ERC20.sol\":9355:9382  _allowances[owner][spender] */\n      0xffffffffffffffffffffffffffffffffffffffff\n      and\n      0xffffffffffffffffffffffffffffffffffffffff\n      and\n      dup2\n      mstore\n      0x20\n      add\n      swap1\n      dup2\n      mstore\n      0x20\n      add\n      0x00\n      keccak256\n        /* \"contracts/token/ERC20/ERC20.sol\":9355:9390  _allowances[owner][spender] = value */\n      dup2\n      swap1\n      sstore\n      pop\n        /* \"contracts/token/ERC20/ERC20.sol\":9404:9413  emitEvent */\n      dup1\n        /* \"contracts/token/ERC20/ERC20.sol\":9400:9476  if (emitEvent) {... */\n      iszero\n      tag_318\n      jumpi\n        /* \"contracts/token/ERC20/ERC20.sol\":9450:9457  spender */\n      dup3\n        /* \"contracts/token/ERC20/ERC20.sol\":9434:9465  Approval(owner, spender, value) */\n      0xffffffffffffffffffffffffffffffffffffffff\n      and\n        /* \"contracts/token/ERC20/ERC20.sol\":9443:9448  owner */\n      dup5\n        /* \"contracts/token/ERC20/ERC20.sol\":9434:9465  Approval(owner, spender, value) */\n      0xffffffffffffffffffffffffffffffffffffffff\n      and\n      0x8c5be1e5ebec7d5bd14f71427d1e84f3dd0314c0f7b2291e5b200ac8c7c3b925\n        /* \"contracts/token/ERC20/ERC20.sol\":9459:9464  value */\n      dup5\n        /* \"contracts/token/ERC20/ERC20.sol\":9434:9465  Approval(owner, spender, value) */\n      mload(0x40)\n      tag_319\n      swap2\n      swap1\n      tag_47\n      jump\t// in\n    tag_319:\n      mload(0x40)\n      dup1\n      swap2\n      sub\n      swap1\n      log3\n        /* \"contracts/token/ERC20/ERC20.sol\":9400:9476  if (emitEvent) {... */\n    tag_318:\n        /* \"contracts/token/ERC20/ERC20.sol\":9050:9482  function _approve(address owner, address spender, uint256 value, bool emitEvent) internal virtual {... */\n      pop\n      pop\n      pop\n      pop\n      jump\t// out\n        /* \"contracts/token/ERC20/ERC20.sol\":4604:4912  function _transfer(address from, address to, uint256 value) internal virtual {... */\n    tag_281:\n        /* \"contracts/token/ERC20/ERC20.sol\":4711:4712  0 */\n      0x00\n        /* \"contracts/token/ERC20/ERC20.sol\":4695:4713  from == address(0) */\n      0xffffffffffffffffffffffffffffffffffffffff\n      and\n        /* \"contracts/token/ERC20/ERC20.sol\":4695:4699  from */\n      dup4\n        /* \"contracts/token/ERC20/ERC20.sol\":4695:4713  from == address(0) */\n      0xffffffffffffffffffffffffffffffffffffffff\n      and\n      sub\n        /* \"contracts/token/ERC20/ERC20.sol\":4691:4777  if (from == address(0)) {... */\n      tag_321\n      jumpi\n        /* \"contracts/token/ERC20/ERC20.sol\":4763:4764  0 */\n      0x00\n        /* \"contracts/token/ERC20/ERC20.sol\":4736:4766  ERC20InvalidSender(address(0)) */\n      mload(0x40)\n      0x96c6fd1e00000000000000000000000000000000000000000000000000000000\n      dup2\n      mstore\n      0x04\n      add\n      tag_322\n      swap2\n      swap1\n      tag_95\n      jump\t// in\n    tag_322:\n      mload(0x40)\n      dup1\n      swap2\n      sub\n      swap1\n      revert\n        /* \"contracts/token/ERC20/ERC20.sol\":4691:4777  if (from == address(0)) {... */\n    tag_321:\n        /* \"contracts/token/ERC20/ERC20.sol\":4804:4805  0 */\n      0x00\n        /* \"contracts/token/ERC20/ERC20.sol\":4790:4806  to == address(0) */\n      0xffffffffffffffffffffffffffffffffffffffff\n      and\n        /* \"contracts/token/ERC20/ERC20.sol\":4790:4792  to */\n      dup3\n        /* \"contracts/token/ERC20/ERC20.sol\":4790:4806  to == address(0) */\n      0xffffffffffffffffffffffffffffffffffffffff\n      and\n      sub\n        /* \"contracts/token/ERC20/ERC20.sol\":4786:4872  if (to == address(0)) {... */\n      tag_323\n      jumpi\n        /* \"contracts/token/ERC20/ERC20.sol\":4858:4859  0 */\n      0x00\n        /* \"contracts/token/ERC20/ERC20.sol\":4829:4861  ERC20InvalidReceiver(address(0)) */\n      mload(0x40)\n      0xec442f0500000000000000000000000000000000000000000000000000000000\n      dup2\n      mstore\n      0x04\n      add\n      tag_324\n      swap2\n      swap1\n      tag_95\n      jump\t// in\n    tag_324:\n      mload(0x40)\n      dup1\n      swap2\n      sub\n      swap1\n      revert\n        /* \"contracts/token/ERC20/ERC20.sol\":4786:4872  if (to == address(0)) {... */\n    tag_323:\n        /* \"contracts/token/ERC20/ERC20.sol\":4881:4905  _update(from, to, value) */\n      tag_325\n        /* \"contracts/token/ERC20/ERC20.sol\":4889:4893  from */\n      dup4\n        /* \"contracts/token/ERC20/ERC20.sol\":4895:4897  to */\n      dup4\n        /* \"contracts/token/ERC20/ERC20.sol\":4899:4904  value */\n      dup4\n        /* \"contracts/token/ERC20/ERC20.sol\":4881:4888  _update */\n      tag_301\n        /* \"contracts/token/ERC20/ERC20.sol\":4881:4905  _update(from, to, value) */\n      jump\t// in\n    tag_325:\n        /* \"contracts/token/ERC20/ERC20.sol\":4604:4912  function _transfer(address from, address to, uint256 value) internal virtual {... */\n      pop\n      pop\n      pop\n      jump\t// out\n        /* \"contracts/security/Pausable.sol\":1945:2051  function _requirePaused() internal view virtual {... */\n    tag_293:\n        /* \"contracts/security/Pausable.sol\":2011:2019  paused() */\n      tag_327\n        /* \"contracts/security/Pausable.sol\":2011:2017  paused */\n      tag_78\n        /* \"contracts/security/Pausable.sol\":2011:2019  paused() */\n      jump\t// in\n    tag_327:\n        /* \"contracts/security/Pausable.sol\":2003:2044  require(paused(), \"Pausable: not paused\") */\n      tag_328\n      jumpi\n      mload(0x40)\n      0x08c379a000000000000000000000000000000000000000000000000000000000\n      dup2\n      mstore\n      0x04\n      add\n      tag_329\n      swap1\n      tag_330\n      jump\t// in\n    tag_329:\n      mload(0x40)\n      dup1\n      swap2\n      sub\n      swap1\n      revert\n    tag_328:\n        /* \"contracts/security/Pausable.sol\":1945:2051  function _requirePaused() internal view virtual {... */\n      jump\t// out\n        /* \"contracts/token/ERC20/ERC20.sol\":5227:6334  function _update(address from, address to, uint256 value) internal virtual {... */\n    tag_301:\n        /* \"contracts/token/ERC20/ERC20.sol\":5332:5333  0 */\n      0x00\n        /* \"contracts/token/ERC20/ERC20.sol\":5316:5334  from == address(0) */\n      0xffffffffffffffffffffffffffffffffffffffff\n      and\n        /* \"contracts/token/ERC20/ERC20.sol\":5316:5320  from */\n      dup4\n        /* \"contracts/token/ERC20/ERC20.sol\":5316:5334  from == address(0) */\n      0xffffffffffffffffffffffffffffffffffffffff\n      and\n      sub\n        /* \"contracts/token/ERC20/ERC20.sol\":5312:5852  if (from == address(0)) {... */\n      tag_332\n      jumpi\n        /* \"contracts/token/ERC20/ERC20.sol\":5468:5473  value */\n      dup1\n        /* \"contracts/token/ERC20/ERC20.sol\":5452:5464  _totalSupply */\n      0x02\n      0x00\n        /* \"contracts/token/ERC20/ERC20.sol\":5452:5473  _totalSupply += value */\n      dup3\n      dup3\n      sload\n      tag_333\n      swap2\n      swap1\n      tag_179\n      jump\t// in\n    tag_333:\n      swap3\n      pop\n      pop\n      dup2\n      swap1\n      sstore\n      pop\n        /* \"contracts/token/ERC20/ERC20.sol\":5312:5852  if (from == address(0)) {... */\n      jump(tag_334)\n    tag_332:\n        /* \"contracts/token/ERC20/ERC20.sol\":5504:5523  uint256 fromBalance */\n      0x00\n        /* \"contracts/token/ERC20/ERC20.sol\":5526:5535  _balances */\n      dup1\n        /* \"contracts/token/ERC20/ERC20.sol\":5526:5541  _balances[from] */\n      0x00\n        /* \"contracts/token/ERC20/ERC20.sol\":5536:5540  from */\n      dup6\n        /* \"contracts/token/ERC20/ERC20.sol\":5526:5541  _balances[from] */\n      0xffffffffffffffffffffffffffffffffffffffff\n      and\n      0xffffffffffffffffffffffffffffffffffffffff\n      and\n      dup2\n      mstore\n      0x20\n      add\n      swap1\n      dup2\n      mstore\n      0x20\n      add\n      0x00\n      keccak256\n      sload\n        /* \"contracts/token/ERC20/ERC20.sol\":5504:5541  uint256 fromBalance = _balances[from] */\n      swap1\n      pop\n        /* \"contracts/token/ERC20/ERC20.sol\":5573:5578  value */\n      dup2\n        /* \"contracts/token/ERC20/ERC20.sol\":5559:5570  fromBalance */\n      dup2\n        /* \"contracts/token/ERC20/ERC20.sol\":5559:5578  fromBalance < value */\n      lt\n        /* \"contracts/token/ERC20/ERC20.sol\":5555:5670  if (fromBalance < value) {... */\n      iszero\n      tag_335\n      jumpi\n        /* \"contracts/token/ERC20/ERC20.sol\":5630:5634  from */\n      dup4\n        /* \"contracts/token/ERC20/ERC20.sol\":5636:5647  fromBalance */\n      dup2\n        /* \"contracts/token/ERC20/ERC20.sol\":5649:5654  value */\n      dup4\n        /* \"contracts/token/ERC20/ERC20.sol\":5605:5655  ERC20InsufficientBalance(from, fromBalance, value) */\n      mload(0x40)\n      0xe450d38c00000000000000000000000000000000000000000000000000000000\n      dup2\n      mstore\n      0x04\n      add\n      tag_336\n      swap4\n      swap3\n      swap2\n      swap1\n      tag_289\n      jump\t// in\n    tag_336:\n      mload(0x40)\n      dup1\n      swap2\n      sub\n      swap1\n      revert\n        /* \"contracts/token/ERC20/ERC20.sol\":5555:5670  if (fromBalance < value) {... */\n    tag_335:\n        /* \"contracts/token/ERC20/ERC20.sol\":5822:5827  value */\n      dup2\n        /* \"contracts/token/ERC20/ERC20.sol\":5808:5819  fromBalance */\n      dup2\n        /* \"contracts/token/ERC20/ERC20.sol\":5808:5827  fromBalance - value */\n      sub\n        /* \"contracts/token/ERC20/ERC20.sol\":5790:5799  _balances */\n      0x00\n        /* \"contracts/token/ERC20/ERC20.sol\":5790:5805  _balances[from] */\n      dup1\n        /* \"contracts/token/ERC20/ERC20.sol\":5800:5804  from */\n      dup7\n        /* \"contracts/token/ERC20/ERC20.sol\":5790:5805  _balances[from] */\n      0xffffffffffffffffffffffffffffffffffffffff\n      and\n      0xffffffffffffffffffffffffffffffffffffffff\n      and\n      dup2\n      mstore\n      0x20\n      add\n      swap1\n      dup2\n      mstore\n      0x20\n      add\n      0x00\n      keccak256\n        /* \"contracts/token/ERC20/ERC20.sol\":5790:5827  _balances[from] = fromBalance - value */\n      dup2\n      swap1\n      sstore\n      pop\n        /* \"contracts/token/ERC20/ERC20.sol\":5490:5852  {... */\n      pop\n        /* \"contracts/token/ERC20/ERC20.sol\":5312:5852  if (from == address(0)) {... */\n    tag_334:\n        /* \"contracts/token/ERC20/ERC20.sol\":5880:5881  0 */\n      0x00\n        /* \"contracts/token/ERC20/ERC20.sol\":5866:5882  to == address(0) */\n      0xffffffffffffffffffffffffffffffffffffffff\n      and\n        /* \"contracts/token/ERC20/ERC20.sol\":5866:5868  to */\n      dup3\n        /* \"contracts/token/ERC20/ERC20.sol\":5866:5882  to == address(0) */\n      0xffffffffffffffffffffffffffffffffffffffff\n      and\n      sub\n        /* \"contracts/token/ERC20/ERC20.sol\":5862:6287  if (to == address(0)) {... */\n      tag_337\n      jumpi\n        /* \"contracts/token/ERC20/ERC20.sol\":6045:6050  value */\n      dup1\n        /* \"contracts/token/ERC20/ERC20.sol\":6029:6041  _totalSupply */\n      0x02\n      0x00\n        /* \"contracts/token/ERC20/ERC20.sol\":6029:6050  _totalSupply -= value */\n      dup3\n      dup3\n      sload\n      sub\n      swap3\n      pop\n      pop\n      dup2\n      swap1\n      sstore\n      pop\n        /* \"contracts/token/ERC20/ERC20.sol\":5862:6287  if (to == address(0)) {... */\n      jump(tag_338)\n    tag_337:\n        /* \"contracts/token/ERC20/ERC20.sol\":6257:6262  value */\n      dup1\n        /* \"contracts/token/ERC20/ERC20.sol\":6240:6249  _balances */\n      0x00\n        /* \"contracts/token/ERC20/ERC20.sol\":6240:6253  _balances[to] */\n      dup1\n        /* \"contracts/token/ERC20/ERC20.sol\":6250:6252  to */\n      dup5\n        /* \"contracts/token/ERC20/ERC20.sol\":6240:6253  _balances[to] */\n      0xffffffffffffffffffffffffffffffffffffffff\n      and\n      0xffffffffffffffffffffffffffffffffffffffff\n      and\n      dup2\n      mstore\n      0x20\n      add\n      swap1\n      dup2\n      mstore\n      0x20\n      add\n      0x00\n      keccak256\n      0x00\n        /* \"contracts/token/ERC20/ERC20.sol\":6240:6262  _balances[to] += value */\n      dup3\n      dup3\n      sload\n      add\n      swap3\n      pop\n      pop\n      dup2\n      swap1\n      sstore\n      pop\n        /* \"contracts/token/ERC20/ERC20.sol\":5862:6287  if (to == address(0)) {... */\n    tag_338:\n        /* \"contracts/token/ERC20/ERC20.sol\":6317:6319  to */\n      dup2\n        /* \"contracts/token/ERC20/ERC20.sol\":6302:6327  Transfer(from, to, value) */\n      0xffffffffffffffffffffffffffffffffffffffff\n      and\n        /* \"contracts/token/ERC20/ERC20.sol\":6311:6315  from */\n      dup4\n        /* \"contracts/token/ERC20/ERC20.sol\":6302:6327  Transfer(from, to, value) */\n      0xffffffffffffffffffffffffffffffffffffffff\n      and\n      0xddf252ad1be2c89b69c2b068fc378daa952ba7f163c4a11628f55a4df523b3ef\n        /* \"contracts/token/ERC20/ERC20.sol\":6321:6326  value */\n      dup4\n        /* \"contracts/token/ERC20/ERC20.sol\":6302:6327  Transfer(from, to, value) */\n      mload(0x40)\n      tag_339\n      swap2\n      swap1\n      tag_47\n      jump\t// in\n    tag_339:\n      mload(0x40)\n      dup1\n      swap2\n      sub\n      swap1\n      log3\n        /* \"contracts/token/ERC20/ERC20.sol\":5227:6334  function _update(address from, address to, uint256 value) internal virtual {... */\n      pop\n      pop\n      pop\n      jump\t// out\n        /* \"contracts/security/Pausable.sol\":1767:1873  function _requireNotPaused() internal view virtual {... */\n    tag_305:\n        /* \"contracts/security/Pausable.sol\":1837:1845  paused() */\n      tag_341\n        /* \"contracts/security/Pausable.sol\":1837:1843  paused */\n      tag_78\n        /* \"contracts/security/Pausable.sol\":1837:1845  paused() */\n      jump\t// in\n    tag_341:\n        /* \"contracts/security/Pausable.sol\":1836:1845  !paused() */\n      iszero\n        /* \"contracts/security/Pausable.sol\":1828:1866  require(!paused(), \"Pausable: paused\") */\n      tag_342\n      jumpi\n      mload(0x40)\n      0x08c379a000000000000000000000000000000000000000000000000000000000\n      dup2\n      mstore\n      0x04\n      add\n      tag_343\n      swap1\n      tag_344\n      jump\t// in\n    tag_343:\n      mload(0x40)\n      dup1\n      swap2\n      sub\n      swap1\n      revert\n    tag_342:\n        /* \"contracts/security/Pausable.sol\":1767:1873  function _requireNotPaused() internal view virtual {... */\n      jump\t// out\n        /* \"#utility.yul\":7:106   */\n    tag_345:\n        /* \"#utility.yul\":59:65   */\n      0x00\n        /* \"#utility.yul\":93:98   */\n      dup2\n        /* \"#utility.yul\":87:99   */\n      mload\n        /* \"#utility.yul\":77:99   */\n      swap1\n      pop\n        /* \"#utility.yul\":7:106   */\n      swap2\n      swap1\n      pop\n      jump\t// out\n        /* \"#utility.yul\":112:281   */\n    tag_346:\n        /* \"#utility.yul\":196:207   */\n      0x00\n        /* \"#utility.yul\":230:236   */\n      dup3\n        /* \"#utility.yul\":225:228   */\n      dup3\n        /* \"#utility.yul\":218:237   */\n      mstore\n        /* \"#utility.yul\":270:274   */\n      0x20\n        /* \"#utility.yul\":265:268   */\n      dup3\n        /* \"#utility.yul\":261:275   */\n      add\n        /* \"#utility.yul\":246:275   */\n      swap1\n      pop\n        /* \"#utility.yul\":112:281   */\n      swap3\n      swap2\n      pop\n      pop\n      jump\t// out\n        /* \"#utility.yul\":287:426   */\n    tag_347:\n        /* \"#utility.yul\":376:382   */\n      dup3\n        /* \"#utility.yul\":371:374   */\n      dup2\n        /* \"#utility.yul\":366:369   */\n      dup4\n        /* \"#utility.yul\":360:383   */\n      mcopy\n        /* \"#utility.yul\":417:418   */\n      0x00\n        /* \"#utility.yul\":408:414   */\n      dup4\n        /* \"#utility.yul\":403:406   */\n      dup4\n        /* \"#utility.yul\":399:415   */\n      add\n        /* \"#utility.yul\":392:419   */\n      mstore\n        /* \"#utility.yul\":287:426   */\n      pop\n      pop\n      pop\n      jump\t// out\n        /* \"#utility.yul\":432:534   */\n    tag_348:\n        /* \"#utility.yul\":473:479   */\n      0x00\n        /* \"#utility.yul\":524:526   */\n      0x1f\n        /* \"#utility.yul\":520:527   */\n      not\n        /* \"#utility.yul\":515:517   */\n      0x1f\n        /* \"#utility.yul\":508:513   */\n      dup4\n        /* \"#utility.yul\":504:518   */\n      add\n        /* \"#utility.yul\":500:528   */\n      and\n        /* \"#utility.yul\":490:528   */\n      swap1\n      pop\n        /* \"#utility.yul\":432:534   */\n      swap2\n      swap1\n      pop\n      jump\t// out\n        /* \"#utility.yul\":540:917   */\n    tag_349:\n        /* \"#utility.yul\":628:631   */\n      0x00\n        /* \"#utility.yul\":656:695   */\n      tag_391\n        /* \"#utility.yul\":689:694   */\n      dup3\n        /* \"#utility.yul\":656:695   */\n      tag_345\n      jump\t// in\n    tag_391:\n        /* \"#utility.yul\":711:782   */\n      tag_392\n        /* \"#utility.yul\":775:781   */\n      dup2\n        /* \"#utility.yul\":770:773   */\n      dup6\n        /* \"#utility.yul\":711:782   */\n      tag_346\n      jump\t// in\n    tag_392:\n        /* \"#utility.yul\":704:782   */\n      swap4\n      pop\n        /* \"#utility.yul\":791:856   */\n      tag_393\n        /* \"#utility.yul\":849:855   */\n      dup2\n        /* \"#utility.yul\":844:847   */\n      dup6\n        /* \"#utility.yul\":837:841   */\n      0x20\n        /* \"#utility.yul\":830:835   */\n      dup7\n        /* \"#utility.yul\":826:842   */\n      add\n        /* \"#utility.yul\":791:856   */\n      tag_347\n      jump\t// in\n    tag_393:\n        /* \"#utility.yul\":881:910   */\n      tag_394\n        /* \"#utility.yul\":903:909   */\n      dup2\n        /* \"#utility.yul\":881:910   */\n      tag_348\n      jump\t// in\n    tag_394:\n        /* \"#utility.yul\":876:879   */\n      dup5\n        /* \"#utility.yul\":872:911   */\n      add\n        /* \"#utility.yul\":865:911   */\n      swap2\n      pop\n        /* \"#utility.yul\":632:917   */\n      pop\n        /* \"#utility.yul\":540:917   */\n      swap3\n      swap2\n      pop\n      pop\n      jump\t// out\n        /* \"#utility.yul\":923:1236   */\n    tag_37:\n        /* \"#utility.yul\":1036:1040   */\n      0x00\n        /* \"#utility.yul\":1074:1076   */\n      0x20\n        /* \"#utility.yul\":1063:1072   */\n      dup3\n        /* \"#utility.yul\":1059:1077   */\n      add\n        /* \"#utility.yul\":1051:1077   */\n      swap1\n      pop\n        /* \"#utility.yul\":1123:1132   */\n      dup2\n        /* \"#utility.yul\":1117:1121   */\n      dup2\n        /* \"#utility.yul\":1113:1133   */\n      sub\n        /* \"#utility.yul\":1109:1110   */\n      0x00\n        /* \"#utility.yul\":1098:1107   */\n      dup4\n        /* \"#utility.yul\":1094:1111   */\n      add\n        /* \"#utility.yul\":1087:1134   */\n      mstore\n        /* \"#utility.yul\":1151:1229   */\n      tag_396\n        /* \"#utility.yul\":1224:1228   */\n      dup2\n        /* \"#utility.yul\":1215:1221   */\n      dup5\n        /* \"#utility.yul\":1151:1229   */\n      tag_349\n      jump\t// in\n    tag_396:\n        /* \"#utility.yul\":1143:1229   */\n      swap1\n      pop\n        /* \"#utility.yul\":923:1236   */\n      swap3\n      swap2\n      pop\n      pop\n      jump\t// out\n        /* \"#utility.yul\":1323:1440   */\n    tag_351:\n        /* \"#utility.yul\":1432:1433   */\n      0x00\n        /* \"#utility.yul\":1429:1430   */\n      dup1\n        /* \"#utility.yul\":1422:1434   */\n      revert\n        /* \"#utility.yul\":1569:1695   */\n    tag_353:\n        /* \"#utility.yul\":1606:1613   */\n      0x00\n        /* \"#utility.yul\":1646:1688   */\n      0xffffffffffffffffffffffffffffffffffffffff\n        /* \"#utility.yul\":1639:1644   */\n      dup3\n        /* \"#utility.yul\":1635:1689   */\n      and\n        /* \"#utility.yul\":1624:1689   */\n      swap1\n      pop\n        /* \"#utility.yul\":1569:1695   */\n      swap2\n      swap1\n      pop\n      jump\t// out\n        /* \"#utility.yul\":1701:1797   */\n    tag_354:\n        /* \"#utility.yul\":1738:1745   */\n      0x00\n        /* \"#utility.yul\":1767:1791   */\n      tag_402\n        /* \"#utility.yul\":1785:1790   */\n      dup3\n        /* \"#utility.yul\":1767:1791   */\n      tag_353\n      jump\t// in\n    tag_402:\n        /* \"#utility.yul\":1756:1791   */\n      swap1\n      pop\n        /* \"#utility.yul\":1701:1797   */\n      swap2\n      swap1\n      pop\n      jump\t// out\n        /* \"#utility.yul\":1803:1925   */\n    tag_355:\n        /* \"#utility.yul\":1876:1900   */\n      tag_404\n        /* \"#utility.yul\":1894:1899   */\n      dup2\n        /* \"#utility.yul\":1876:1900   */\n      tag_354\n      jump\t// in\n    tag_404:\n        /* \"#utility.yul\":1869:1874   */\n      dup2\n        /* \"#utility.yul\":1866:1901   */\n      eq\n        /* \"#utility.yul\":1856:1919   */\n      tag_405\n      jumpi\n        /* \"#utility.yul\":1915:1916   */\n      0x00\n        /* \"#utility.yul\":1912:1913   */\n      dup1\n        /* \"#utility.yul\":1905:1917   */\n      revert\n        /* \"#utility.yul\":1856:1919   */\n    tag_405:\n        /* \"#utility.yul\":1803:1925   */\n      pop\n      jump\t// out\n        /* \"#utility.yul\":1931:2070   */\n    tag_356:\n        /* \"#utility.yul\":1977:1982   */\n      0x00\n        /* \"#utility.yul\":2015:2021   */\n      dup2\n        /* \"#utility.yul\":2002:2022   */\n      calldataload\n        /* \"#utility.yul\":1993:2022   */\n      swap1\n      pop\n        /* \"#utility.yul\":2031:2064   */\n      tag_407\n        /* \"#utility.yul\":2058:2063   */\n      dup2\n        /* \"#utility.yul\":2031:2064   */\n      tag_355\n      jump\t// in\n    tag_407:\n        /* \"#utility.yul\":1931:2070   */\n      swap3\n      swap2\n      pop\n      pop\n      jump\t// out\n        /* \"#utility.yul\":2076:2153   */\n    tag_357:\n        /* \"#utility.yul\":2113:2120   */\n      0x00\n        /* \"#utility.yul\":2142:2147   */\n      dup2\n        /* \"#utility.yul\":2131:2147   */\n      swap1\n      pop\n        /* \"#utility.yul\":2076:2153   */\n      swap2\n      swap1\n      pop\n      jump\t// out\n        /* \"#utility.yul\":2159:2281   */\n    tag_358:\n        /* \"#utility.yul\":2232:2256   */\n      tag_410\n        /* \"#utility.yul\":2250:2255   */\n      dup2\n        /* \"#utility.yul\":2232:2256   */\n      tag_357\n      jump\t// in\n    tag_410:\n        /* \"#utility.yul\":2225:2230   */\n      dup2\n        /* \"#utility.yul\":2222:2257   */\n      eq\n        /* \"#utility.yul\":2212:2275   */\n      tag_411\n      jumpi\n        /* \"#utility.yul\":2271:2272   */\n      0x00\n        /* \"#utility.yul\":2268:2269   */\n      dup1\n        /* \"#utility.yul\":2261:2273   */\n      revert\n        /* \"#utility.yul\":2212:2275   */\n    tag_411:\n        /* \"#utility.yul\":2159:2281   */\n      pop\n      jump\t// out\n        /* \"#utility.yul\":2287:2426   */\n    tag_359:\n        /* \"#utility.yul\":2333:2338   */\n      0x00\n        /* \"#utility.yul\":2371:2377   */\n      dup2\n        /* \"#utility.yul\":2358:2378   */\n      calldataload\n        /* \"#utility.yul\":2349:2378   */\n      swap1\n      pop\n        /* \"#utility.yul\":2387:2420   */\n      tag_413\n        /* \"#utility.yul\":2414:2419   */\n      dup2\n        /* \"#utility.yul\":2387:2420   */\n      tag_358\n      jump\t// in\n    tag_413:\n        /* \"#utility.yul\":2287:2426   */\n      swap3\n      swap2\n      pop\n      pop\n      jump\t// out\n        /* \"#utility.yul\":2432:2906   */\n    tag_40:\n        /* \"#utility.yul\":2500:2506   */\n      0x00\n        /* \"#utility.yul\":2508:2514   */\n      dup1\n        /* \"#utility.yul\":2557:2559   */\n      0x40\n        /* \"#utility.yul\":2545:2554   */\n      dup4\n        /* \"#utility.yul\":2536:2543   */\n      dup6\n        /* \"#utility.yul\":2532:2555   */\n      sub\n        /* \"#utility.yul\":2528:2560   */\n      slt\n        /* \"#utility.yul\":2525:2644   */\n      iszero\n      tag_415\n      jumpi\n        /* \"#utility.yul\":2563:2642   */\n      tag_416\n      tag_351\n      jump\t// in\n    tag_416:\n        /* \"#utility.yul\":2525:2644   */\n    tag_415:\n        /* \"#utility.yul\":2683:2684   */\n      0x00\n        /* \"#utility.yul\":2708:2761   */\n      tag_417\n        /* \"#utility.yul\":2753:2760   */\n      dup6\n        /* \"#utility.yul\":2744:2750   */\n      dup3\n        /* \"#utility.yul\":2733:2742   */\n      dup7\n        /* \"#utility.yul\":2729:2751   */\n      add\n        /* \"#utility.yul\":2708:2761   */\n      tag_356\n      jump\t// in\n    tag_417:\n        /* \"#utility.yul\":2698:2761   */\n      swap3\n      pop\n        /* \"#utility.yul\":2654:2771   */\n      pop\n        /* \"#utility.yul\":2810:2812   */\n      0x20\n        /* \"#utility.yul\":2836:2889   */\n      tag_418\n        /* \"#utility.yul\":2881:2888   */\n      dup6\n        /* \"#utility.yul\":2872:2878   */\n      dup3\n        /* \"#utility.yul\":2861:2870   */\n      dup7\n        /* \"#utility.yul\":2857:2879   */\n      add\n        /* \"#utility.yul\":2836:2889   */\n      tag_359\n      jump\t// in\n    tag_418:\n        /* \"#utility.yul\":2826:2889   */\n      swap2\n      pop\n        /* \"#utility.yul\":2781:2899   */\n      pop\n        /* \"#utility.yul\":2432:2906   */\n      swap3\n      pop\n      swap3\n      swap1\n      pop\n      jump\t// out\n        /* \"#utility.yul\":2912:3002   */\n    tag_360:\n        /* \"#utility.yul\":2946:2953   */\n      0x00\n        /* \"#utility.yul\":2989:2994   */\n      dup2\n        /* \"#utility.yul\":2982:2995   */\n      iszero\n        /* \"#utility.yul\":2975:2996   */\n      iszero\n        /* \"#utility.yul\":2964:2996   */\n      swap1\n      pop\n        /* \"#utility.yul\":2912:3002   */\n      swap2\n      swap1\n      pop\n      jump\t// out\n        /* \"#utility.yul\":3008:3117   */\n    tag_361:\n        /* \"#utility.yul\":3089:3110   */\n      tag_421\n        /* \"#utility.yul\":3104:3109   */\n      dup2\n        /* \"#utility.yul\":3089:3110   */\n      tag_360\n      jump\t// in\n    tag_421:\n        /* \"#utility.yul\":3084:3087   */\n      dup3\n        /* \"#utility.yul\":3077:3111   */\n      mstore\n        /* \"#utility.yul\":3008:3117   */\n      pop\n      pop\n      jump\t// out\n        /* \"#utility.yul\":3123:3333   */\n    tag_43:\n        /* \"#utility.yul\":3210:3214   */\n      0x00\n        /* \"#utility.yul\":3248:3250   */\n      0x20\n        /* \"#utility.yul\":3237:3246   */\n      dup3\n        /* \"#utility.yul\":3233:3251   */\n      add\n        /* \"#utility.yul\":3225:3251   */\n      swap1\n      pop\n        /* \"#utility.yul\":3261:3326   */\n      tag_423\n        /* \"#utility.yul\":3323:3324   */\n      0x00\n        /* \"#utility.yul\":3312:3321   */\n      dup4\n        /* \"#utility.yul\":3308:3325   */\n      add\n        /* \"#utility.yul\":3299:3305   */\n      dup5\n        /* \"#utility.yul\":3261:3326   */\n      tag_361\n      jump\t// in\n    tag_423:\n        /* \"#utility.yul\":3123:3333   */\n      swap3\n      swap2\n      pop\n      pop\n      jump\t// out\n        /* \"#utility.yul\":3339:3457   */\n    tag_362:\n        /* \"#utility.yul\":3426:3450   */\n      tag_425\n        /* \"#utility.yul\":3444:3449   */\n      dup2\n        /* \"#utility.yul\":3426:3450   */\n      tag_357\n      jump\t// in\n    tag_425:\n        /* \"#utility.yul\":3421:3424   */\n      dup3\n        /* \"#utility.yul\":3414:3451   */\n      mstore\n        /* \"#utility.yul\":3339:3457   */\n      pop\n      pop\n      jump\t// out\n        /* \"#utility.yul\":3463:3685   */\n    tag_47:\n        /* \"#utility.yul\":3556:3560   */\n      0x00\n        /* \"#utility.yul\":3594:3596   */\n      0x20\n        /* \"#utility.yul\":3583:3592   */\n      dup3\n        /* \"#utility.yul\":3579:3597   */\n      add\n        /* \"#utility.yul\":3571:3597   */\n      swap1\n      pop\n        /* \"#utility.yul\":3607:3678   */\n      tag_427\n        /* \"#utility.yul\":3675:3676   */\n      0x00\n        /* \"#utility.yul\":3664:3673   */\n      dup4\n        /* \"#utility.yul\":3660:3677   */\n      add\n        /* \"#utility.yul\":3651:3657   */\n      dup5\n        /* \"#utility.yul\":3607:3678   */\n      tag_362\n      jump\t// in\n    tag_427:\n        /* \"#utility.yul\":3463:3685   */\n      swap3\n      swap2\n      pop\n      pop\n      jump\t// out\n        /* \"#utility.yul\":3691:4020   */\n    tag_52:\n        /* \"#utility.yul\":3750:3756   */\n      0x00\n        /* \"#utility.yul\":3799:3801   */\n      0x20\n        /* \"#utility.yul\":3787:3796   */\n      dup3\n        /* \"#utility.yul\":3778:3785   */\n      dup5\n        /* \"#utility.yul\":3774:3797   */\n      sub\n        /* \"#utility.yul\":3770:3802   */\n      slt\n        /* \"#utility.yul\":3767:3886   */\n      iszero\n      tag_429\n      jumpi\n        /* \"#utility.yul\":3805:3884   */\n      tag_430\n      tag_351\n      jump\t// in\n    tag_430:\n        /* \"#utility.yul\":3767:3886   */\n    tag_429:\n        /* \"#utility.yul\":3925:3926   */\n      0x00\n        /* \"#utility.yul\":3950:4003   */\n      tag_431\n        /* \"#utility.yul\":3995:4002   */\n      dup5\n        /* \"#utility.yul\":3986:3992   */\n      dup3\n        /* \"#utility.yul\":3975:3984   */\n      dup6\n        /* \"#utility.yul\":3971:3993   */\n      add\n        /* \"#utility.yul\":3950:4003   */\n      tag_359\n      jump\t// in\n    tag_431:\n        /* \"#utility.yul\":3940:4003   */\n      swap2\n      pop\n        /* \"#utility.yul\":3896:4013   */\n      pop\n        /* \"#utility.yul\":3691:4020   */\n      swap3\n      swap2\n      pop\n      pop\n      jump\t// out\n        /* \"#utility.yul\":4026:4645   */\n    tag_56:\n        /* \"#utility.yul\":4103:4109   */\n      0x00\n        /* \"#utility.yul\":4111:4117   */\n      dup1\n        /* \"#utility.yul\":4119:4125   */\n      0x00\n        /* \"#utility.yul\":4168:4170   */\n      0x60\n        /* \"#utility.yul\":4156:4165   */\n      dup5\n        /* \"#utility.yul\":4147:4154   */\n      dup7\n        /* \"#utility.yul\":4143:4166   */\n      sub\n        /* \"#utility.yul\":4139:4171   */\n      slt\n        /* \"#utility.yul\":4136:4255   */\n      iszero\n      tag_433\n      jumpi\n        /* \"#utility.yul\":4174:4253   */\n      tag_434\n      tag_351\n      jump\t// in\n    tag_434:\n        /* \"#utility.yul\":4136:4255   */\n    tag_433:\n        /* \"#utility.yul\":4294:4295   */\n      0x00\n        /* \"#utility.yul\":4319:4372   */\n      tag_435\n        /* \"#utility.yul\":4364:4371   */\n      dup7\n        /* \"#utility.yul\":4355:4361   */\n      dup3\n        /* \"#utility.yul\":4344:4353   */\n      dup8\n        /* \"#utility.yul\":4340:4362   */\n      add\n        /* \"#utility.yul\":4319:4372   */\n      tag_356\n      jump\t// in\n    tag_435:\n        /* \"#utility.yul\":4309:4372   */\n      swap4\n      pop\n        /* \"#utility.yul\":4265:4382   */\n      pop\n        /* \"#utility.yul\":4421:4423   */\n      0x20\n        /* \"#utility.yul\":4447:4500   */\n      tag_436\n        /* \"#utility.yul\":4492:4499   */\n      dup7\n        /* \"#utility.yul\":4483:4489   */\n      dup3\n        /* \"#utility.yul\":4472:4481   */\n      dup8\n        /* \"#utility.yul\":4468:4490   */\n      add\n        /* \"#utility.yul\":4447:4500   */\n      tag_356\n      jump\t// in\n    tag_436:\n        /* \"#utility.yul\":4437:4500   */\n      swap3\n      pop\n        /* \"#utility.yul\":4392:4510   */\n      pop\n        /* \"#utility.yul\":4549:4551   */\n      0x40\n        /* \"#utility.yul\":4575:4628   */\n      tag_437\n        /* \"#utility.yul\":4620:4627   */\n      dup7\n        /* \"#utility.yul\":4611:4617   */\n      dup3\n        /* \"#utility.yul\":4600:4609   */\n      dup8\n        /* \"#utility.yul\":4596:4618   */\n      add\n        /* \"#utility.yul\":4575:4628   */\n      tag_359\n      jump\t// in\n    tag_437:\n        /* \"#utility.yul\":4565:4628   */\n      swap2\n      pop\n        /* \"#utility.yul\":4520:4638   */\n      pop\n        /* \"#utility.yul\":4026:4645   */\n      swap3\n      pop\n      swap3\n      pop\n      swap3\n      jump\t// out\n        /* \"#utility.yul\":4651:4737   */\n    tag_363:\n        /* \"#utility.yul\":4686:4693   */\n      0x00\n        /* \"#utility.yul\":4726:4730   */\n      0xff\n        /* \"#utility.yul\":4719:4724   */\n      dup3\n        /* \"#utility.yul\":4715:4731   */\n      and\n        /* \"#utility.yul\":4704:4731   */\n      swap1\n      pop\n        /* \"#utility.yul\":4651:4737   */\n      swap2\n      swap1\n      pop\n      jump\t// out\n        /* \"#utility.yul\":4743:4855   */\n    tag_364:\n        /* \"#utility.yul\":4826:4848   */\n      tag_440\n        /* \"#utility.yul\":4842:4847   */\n      dup2\n        /* \"#utility.yul\":4826:4848   */\n      tag_363\n      jump\t// in\n    tag_440:\n        /* \"#utility.yul\":4821:4824   */\n      dup3\n        /* \"#utility.yul\":4814:4849   */\n      mstore\n        /* \"#utility.yul\":4743:4855   */\n      pop\n      pop\n      jump\t// out\n        /* \"#utility.yul\":4861:5075   */\n    tag_65:\n        /* \"#utility.yul\":4950:4954   */\n      0x00\n        /* \"#utility.yul\":4988:4990   */\n      0x20\n        /* \"#utility.yul\":4977:4986   */\n      dup3\n        /* \"#utility.yul\":4973:4991   */\n      add\n        /* \"#utility.yul\":4965:4991   */\n      swap1\n      pop\n        /* \"#utility.yul\":5001:5068   */\n      tag_442\n        /* \"#utility.yul\":5065:5066   */\n      0x00\n        /* \"#utility.yul\":5054:5063   */\n      dup4\n        /* \"#utility.yul\":5050:5067   */\n      add\n        /* \"#utility.yul\":5041:5047   */\n      dup5\n        /* \"#utility.yul\":5001:5068   */\n      tag_364\n      jump\t// in\n    tag_442:\n        /* \"#utility.yul\":4861:5075   */\n      swap3\n      swap2\n      pop\n      pop\n      jump\t// out\n        /* \"#utility.yul\":5081:5410   */\n    tag_82:\n        /* \"#utility.yul\":5140:5146   */\n      0x00\n        /* \"#utility.yul\":5189:5191   */\n      0x20\n        /* \"#utility.yul\":5177:5186   */\n      dup3\n        /* \"#utility.yul\":5168:5175   */\n      dup5\n        /* \"#utility.yul\":5164:5187   */\n      sub\n        /* \"#utility.yul\":5160:5192   */\n      slt\n        /* \"#utility.yul\":5157:5276   */\n      iszero\n      tag_444\n      jumpi\n        /* \"#utility.yul\":5195:5274   */\n      tag_445\n      tag_351\n      jump\t// in\n    tag_445:\n        /* \"#utility.yul\":5157:5276   */\n    tag_444:\n        /* \"#utility.yul\":5315:5316   */\n      0x00\n        /* \"#utility.yul\":5340:5393   */\n      tag_446\n        /* \"#utility.yul\":5385:5392   */\n      dup5\n        /* \"#utility.yul\":5376:5382   */\n      dup3\n        /* \"#utility.yul\":5365:5374   */\n      dup6\n        /* \"#utility.yul\":5361:5383   */\n      add\n        /* \"#utility.yul\":5340:5393   */\n      tag_356\n      jump\t// in\n    tag_446:\n        /* \"#utility.yul\":5330:5393   */\n      swap2\n      pop\n        /* \"#utility.yul\":5286:5403   */\n      pop\n        /* \"#utility.yul\":5081:5410   */\n      swap3\n      swap2\n      pop\n      pop\n      jump\t// out\n        /* \"#utility.yul\":5416:5534   */\n    tag_365:\n        /* \"#utility.yul\":5503:5527   */\n      tag_448\n        /* \"#utility.yul\":5521:5526   */\n      dup2\n        /* \"#utility.yul\":5503:5527   */\n      tag_354\n      jump\t// in\n    tag_448:\n        /* \"#utility.yul\":5498:5501   */\n      dup3\n        /* \"#utility.yul\":5491:5528   */\n      mstore\n        /* \"#utility.yul\":5416:5534   */\n      pop\n      pop\n      jump\t// out\n        /* \"#utility.yul\":5540:5762   */\n    tag_95:\n        /* \"#utility.yul\":5633:5637   */\n      0x00\n        /* \"#utility.yul\":5671:5673   */\n      0x20\n        /* \"#utility.yul\":5660:5669   */\n      dup3\n        /* \"#utility.yul\":5656:5674   */\n      add\n        /* \"#utility.yul\":5648:5674   */\n      swap1\n      pop\n        /* \"#utility.yul\":5684:5755   */\n      tag_450\n        /* \"#utility.yul\":5752:5753   */\n      0x00\n        /* \"#utility.yul\":5741:5750   */\n      dup4\n        /* \"#utility.yul\":5737:5754   */\n      add\n        /* \"#utility.yul\":5728:5734   */\n      dup5\n        /* \"#utility.yul\":5684:5755   */\n      tag_365\n      jump\t// in\n    tag_450:\n        /* \"#utility.yul\":5540:5762   */\n      swap3\n      swap2\n      pop\n      pop\n      jump\t// out\n        /* \"#utility.yul\":5768:6242   */\n    tag_117:\n        /* \"#utility.yul\":5836:5842   */\n      0x00\n        /* \"#utility.yul\":5844:5850   */\n      dup1\n        /* \"#utility.yul\":5893:5895   */\n      0x40\n        /* \"#utility.yul\":5881:5890   */\n      dup4\n        /* \"#utility.yul\":5872:5879   */\n      dup6\n        /* \"#utility.yul\":5868:5891   */\n      sub\n        /* \"#utility.yul\":5864:5896   */\n      slt\n        /* \"#utility.yul\":5861:5980   */\n      iszero\n      tag_452\n      jumpi\n        /* \"#utility.yul\":5899:5978   */\n      tag_453\n      tag_351\n      jump\t// in\n    tag_453:\n        /* \"#utility.yul\":5861:5980   */\n    tag_452:\n        /* \"#utility.yul\":6019:6020   */\n      0x00\n        /* \"#utility.yul\":6044:6097   */\n      tag_454\n        /* \"#utility.yul\":6089:6096   */\n      dup6\n        /* \"#utility.yul\":6080:6086   */\n      dup3\n        /* \"#utility.yul\":6069:6078   */\n      dup7\n        /* \"#utility.yul\":6065:6087   */\n      add\n        /* \"#utility.yul\":6044:6097   */\n      tag_356\n      jump\t// in\n    tag_454:\n        /* \"#utility.yul\":6034:6097   */\n      swap3\n      pop\n        /* \"#utility.yul\":5990:6107   */\n      pop\n        /* \"#utility.yul\":6146:6148   */\n      0x20\n        /* \"#utility.yul\":6172:6225   */\n      tag_455\n        /* \"#utility.yul\":6217:6224   */\n      dup6\n        /* \"#utility.yul\":6208:6214   */\n      dup3\n        /* \"#utility.yul\":6197:6206   */\n      dup7\n        /* \"#utility.yul\":6193:6215   */\n      add\n        /* \"#utility.yul\":6172:6225   */\n      tag_356\n      jump\t// in\n    tag_455:\n        /* \"#utility.yul\":6162:6225   */\n      swap2\n      pop\n        /* \"#utility.yul\":6117:6235   */\n      pop\n        /* \"#utility.yul\":5768:6242   */\n      swap3\n      pop\n      swap3\n      swap1\n      pop\n      jump\t// out\n        /* \"#utility.yul\":6248:6428   */\n    tag_366:\n        /* \"#utility.yul\":6296:6373   */\n      0x4e487b7100000000000000000000000000000000000000000000000000000000\n        /* \"#utility.yul\":6293:6294   */\n      0x00\n        /* \"#utility.yul\":6286:6374   */\n      mstore\n        /* \"#utility.yul\":6393:6397   */\n      0x22\n        /* \"#utility.yul\":6390:6391   */\n      0x04\n        /* \"#utility.yul\":6383:6398   */\n      mstore\n        /* \"#utility.yul\":6417:6421   */\n      0x24\n        /* \"#utility.yul\":6414:6415   */\n      0x00\n        /* \"#utility.yul\":6407:6422   */\n      revert\n        /* \"#utility.yul\":6434:6754   */\n    tag_125:\n        /* \"#utility.yul\":6478:6484   */\n      0x00\n        /* \"#utility.yul\":6515:6516   */\n      0x02\n        /* \"#utility.yul\":6509:6513   */\n      dup3\n        /* \"#utility.yul\":6505:6517   */\n      div\n        /* \"#utility.yul\":6495:6517   */\n      swap1\n      pop\n        /* \"#utility.yul\":6562:6563   */\n      0x01\n        /* \"#utility.yul\":6556:6560   */\n      dup3\n        /* \"#utility.yul\":6552:6564   */\n      and\n        /* \"#utility.yul\":6583:6601   */\n      dup1\n        /* \"#utility.yul\":6573:6654   */\n      tag_458\n      jumpi\n        /* \"#utility.yul\":6639:6643   */\n      0x7f\n        /* \"#utility.yul\":6631:6637   */\n      dup3\n        /* \"#utility.yul\":6627:6644   */\n      and\n        /* \"#utility.yul\":6617:6644   */\n      swap2\n      pop\n        /* \"#utility.yul\":6573:6654   */\n    tag_458:\n        /* \"#utility.yul\":6701:6703   */\n      0x20\n        /* \"#utility.yul\":6693:6699   */\n      dup3\n        /* \"#utility.yul\":6690:6704   */\n      lt\n        /* \"#utility.yul\":6670:6688   */\n      dup2\n        /* \"#utility.yul\":6667:6705   */\n      sub\n        /* \"#utility.yul\":6664:6748   */\n      tag_459\n      jumpi\n        /* \"#utility.yul\":6720:6738   */\n      tag_460\n      tag_366\n      jump\t// in\n    tag_460:\n        /* \"#utility.yul\":6664:6748   */\n    tag_459:\n        /* \"#utility.yul\":6485:6754   */\n      pop\n        /* \"#utility.yul\":6434:6754   */\n      swap2\n      swap1\n      pop\n      jump\t// out\n        /* \"#utility.yul\":6760:6930   */\n    tag_367:\n        /* \"#utility.yul\":6900:6922   */\n      0x496e73756666696369656e742062616c616e6365000000000000000000000000\n        /* \"#utility.yul\":6896:6897   */\n      0x00\n        /* \"#utility.yul\":6888:6894   */\n      dup3\n        /* \"#utility.yul\":6884:6898   */\n      add\n        /* \"#utility.yul\":6877:6923   */\n      mstore\n        /* \"#utility.yul\":6760:6930   */\n      pop\n      jump\t// out\n        /* \"#utility.yul\":6936:7302   */\n    tag_368:\n        /* \"#utility.yul\":7078:7081   */\n      0x00\n        /* \"#utility.yul\":7099:7166   */\n      tag_463\n        /* \"#utility.yul\":7163:7165   */\n      0x14\n        /* \"#utility.yul\":7158:7161   */\n      dup4\n        /* \"#utility.yul\":7099:7166   */\n      tag_346\n      jump\t// in\n    tag_463:\n        /* \"#utility.yul\":7092:7166   */\n      swap2\n      pop\n        /* \"#utility.yul\":7175:7268   */\n      tag_464\n        /* \"#utility.yul\":7264:7267   */\n      dup3\n        /* \"#utility.yul\":7175:7268   */\n      tag_367\n      jump\t// in\n    tag_464:\n        /* \"#utility.yul\":7293:7295   */\n      0x20\n        /* \"#utility.yul\":7288:7291   */\n      dup3\n        /* \"#utility.yul\":7284:7296   */\n      add\n        /* \"#utility.yul\":7277:7296   */\n      swap1\n      pop\n        /* \"#utility.yul\":6936:7302   */\n      swap2\n      swap1\n      pop\n      jump\t// out\n        /* \"#utility.yul\":7308:7727   */\n    tag_149:\n        /* \"#utility.yul\":7474:7478   */\n      0x00\n        /* \"#utility.yul\":7512:7514   */\n      0x20\n        /* \"#utility.yul\":7501:7510   */\n      dup3\n        /* \"#utility.yul\":7497:7515   */\n      add\n        /* \"#utility.yul\":7489:7515   */\n      swap1\n      pop\n        /* \"#utility.yul\":7561:7570   */\n      dup2\n        /* \"#utility.yul\":7555:7559   */\n      dup2\n        /* \"#utility.yul\":7551:7571   */\n      sub\n        /* \"#utility.yul\":7547:7548   */\n      0x00\n        /* \"#utility.yul\":7536:7545   */\n      dup4\n        /* \"#utility.yul\":7532:7549   */\n      add\n        /* \"#utility.yul\":7525:7572   */\n      mstore\n        /* \"#utility.yul\":7589:7720   */\n      tag_466\n        /* \"#utility.yul\":7715:7719   */\n      dup2\n        /* \"#utility.yul\":7589:7720   */\n      tag_368\n      jump\t// in\n    tag_466:\n        /* \"#utility.yul\":7581:7720   */\n      swap1\n      pop\n        /* \"#utility.yul\":7308:7727   */\n      swap2\n      swap1\n      pop\n      jump\t// out\n        /* \"#utility.yul\":7733:7913   */\n    tag_369:\n        /* \"#utility.yul\":7781:7858   */\n      0x4e487b7100000000000000000000000000000000000000000000000000000000\n        /* \"#utility.yul\":7778:7779   */\n      0x00\n        /* \"#utility.yul\":7771:7859   */\n      mstore\n        /* \"#utility.yul\":7878:7882   */\n      0x11\n        /* \"#utility.yul\":7875:7876   */\n      0x04\n        /* \"#utility.yul\":7868:7883   */\n      mstore\n        /* \"#utility.yul\":7902:7906   */\n      0x24\n        /* \"#utility.yul\":7899:7900   */\n      0x00\n        /* \"#utility.yul\":7892:7907   */\n      revert\n        /* \"#utility.yul\":7919:8113   */\n    tag_152:\n        /* \"#utility.yul\":7959:7963   */\n      0x00\n        /* \"#utility.yul\":7979:7999   */\n      tag_469\n        /* \"#utility.yul\":7997:7998   */\n      dup3\n        /* \"#utility.yul\":7979:7999   */\n      tag_357\n      jump\t// in\n    tag_469:\n        /* \"#utility.yul\":7974:7999   */\n      swap2\n      pop\n        /* \"#utility.yul\":8013:8033   */\n      tag_470\n        /* \"#utility.yul\":8031:8032   */\n      dup4\n        /* \"#utility.yul\":8013:8033   */\n      tag_357\n      jump\t// in\n    tag_470:\n        /* \"#utility.yul\":8008:8033   */\n      swap3\n      pop\n        /* \"#utility.yul\":8057:8058   */\n      dup3\n        /* \"#utility.yul\":8054:8055   */\n      dup3\n        /* \"#utility.yul\":8050:8059   */\n      sub\n        /* \"#utility.yul\":8042:8059   */\n      swap1\n      pop\n        /* \"#utility.yul\":8081:8082   */\n      dup2\n        /* \"#utility.yul\":8075:8079   */\n      dup2\n        /* \"#utility.yul\":8072:8083   */\n      gt\n        /* \"#utility.yul\":8069:8106   */\n      iszero\n      tag_471\n      jumpi\n        /* \"#utility.yul\":8086:8104   */\n      tag_472\n      tag_369\n      jump\t// in\n    tag_472:\n        /* \"#utility.yul\":8069:8106   */\n    tag_471:\n        /* \"#utility.yul\":7919:8113   */\n      swap3\n      swap2\n      pop\n      pop\n      jump\t// out\n        /* \"#utility.yul\":8119:8310   */\n    tag_179:\n        /* \"#utility.yul\":8159:8162   */\n      0x00\n        /* \"#utility.yul\":8178:8198   */\n      tag_474\n        /* \"#utility.yul\":8196:8197   */\n      dup3\n        /* \"#utility.yul\":8178:8198   */\n      tag_357\n      jump\t// in\n    tag_474:\n        /* \"#utility.yul\":8173:8198   */\n      swap2\n      pop\n        /* \"#utility.yul\":8212:8232   */\n      tag_475\n        /* \"#utility.yul\":8230:8231   */\n      dup4\n        /* \"#utility.yul\":8212:8232   */\n      tag_357\n      jump\t// in\n    tag_475:\n        /* \"#utility.yul\":8207:8232   */\n      swap3\n      pop\n        /* \"#utility.yul\":8255:8256   */\n      dup3\n        /* \"#utility.yul\":8252:8253   */\n      dup3\n        /* \"#utility.yul\":8248:8257   */\n      add\n        /* \"#utility.yul\":8241:8257   */\n      swap1\n      pop\n        /* \"#utility.yul\":8276:8279   */\n      dup1\n        /* \"#utility.yul\":8273:8274   */\n      dup3\n        /* \"#utility.yul\":8270:8280   */\n      gt\n        /* \"#utility.yul\":8267:8303   */\n      iszero\n      tag_476\n      jumpi\n        /* \"#utility.yul\":8283:8301   */\n      tag_477\n      tag_369\n      jump\t// in\n    tag_477:\n        /* \"#utility.yul\":8267:8303   */\n    tag_476:\n        /* \"#utility.yul\":8119:8310   */\n      swap3\n      swap2\n      pop\n      pop\n      jump\t// out\n        /* \"#utility.yul\":8316:8610   */\n    tag_370:\n        /* \"#utility.yul\":8456:8490   */\n      0x4c6971756964697479206d7573742062652070726f766964656420666f722061\n        /* \"#utility.yul\":8452:8453   */\n      0x00\n        /* \"#utility.yul\":8444:8450   */\n      dup3\n        /* \"#utility.yul\":8440:8454   */\n      add\n        /* \"#utility.yul\":8433:8491   */\n      mstore\n        /* \"#utility.yul\":8525:8559   */\n      0x74206c65617374203330206461797320746f207175616c69667920666f722072\n        /* \"#utility.yul\":8520:8522   */\n      0x20\n        /* \"#utility.yul\":8512:8518   */\n      dup3\n        /* \"#utility.yul\":8508:8523   */\n      add\n        /* \"#utility.yul\":8501:8560   */\n      mstore\n        /* \"#utility.yul\":8594:8602   */\n      0x6577617264730000000000000000000000000000000000000000000000000000\n        /* \"#utility.yul\":8589:8591   */\n      0x40\n        /* \"#utility.yul\":8581:8587   */\n      dup3\n        /* \"#utility.yul\":8577:8592   */\n      add\n        /* \"#utility.yul\":8570:8603   */\n      mstore\n        /* \"#utility.yul\":8316:8610   */\n      pop\n      jump\t// out\n        /* \"#utility.yul\":8616:8982   */\n    tag_371:\n        /* \"#utility.yul\":8758:8761   */\n      0x00\n        /* \"#utility.yul\":8779:8846   */\n      tag_480\n        /* \"#utility.yul\":8843:8845   */\n      0x46\n        /* \"#utility.yul\":8838:8841   */\n      dup4\n        /* \"#utility.yul\":8779:8846   */\n      tag_346\n      jump\t// in\n    tag_480:\n        /* \"#utility.yul\":8772:8846   */\n      swap2\n      pop\n        /* \"#utility.yul\":8855:8948   */\n      tag_481\n        /* \"#utility.yul\":8944:8947   */\n      dup3\n        /* \"#utility.yul\":8855:8948   */\n      tag_370\n      jump\t// in\n    tag_481:\n        /* \"#utility.yul\":8973:8975   */\n      0x60\n        /* \"#utility.yul\":8968:8971   */\n      dup3\n        /* \"#utility.yul\":8964:8976   */\n      add\n        /* \"#utility.yul\":8957:8976   */\n      swap1\n      pop\n        /* \"#utility.yul\":8616:8982   */\n      swap2\n      swap1\n      pop\n      jump\t// out\n        /* \"#utility.yul\":8988:9407   */\n    tag_225:\n        /* \"#utility.yul\":9154:9158   */\n      0x00\n        /* \"#utility.yul\":9192:9194   */\n      0x20\n        /* \"#utility.yul\":9181:9190   */\n      dup3\n        /* \"#utility.yul\":9177:9195   */\n      add\n        /* \"#utility.yul\":9169:9195   */\n      swap1\n      pop\n        /* \"#utility.yul\":9241:9250   */\n      dup2\n        /* \"#utility.yul\":9235:9239   */\n      dup2\n        /* \"#utility.yul\":9231:9251   */\n      sub\n        /* \"#utility.yul\":9227:9228   */\n      0x00\n        /* \"#utility.yul\":9216:9225   */\n      dup4\n        /* \"#utility.yul\":9212:9229   */\n      add\n        /* \"#utility.yul\":9205:9252   */\n      mstore\n        /* \"#utility.yul\":9269:9400   */\n      tag_483\n        /* \"#utility.yul\":9395:9399   */\n      dup2\n        /* \"#utility.yul\":9269:9400   */\n      tag_371\n      jump\t// in\n    tag_483:\n        /* \"#utility.yul\":9261:9400   */\n      swap1\n      pop\n        /* \"#utility.yul\":8988:9407   */\n      swap2\n      swap1\n      pop\n      jump\t// out\n        /* \"#utility.yul\":9413:9588   */\n    tag_372:\n        /* \"#utility.yul\":9553:9580   */\n      0x5265776172642065786365656473206d617820737570706c7900000000000000\n        /* \"#utility.yul\":9549:9550   */\n      0x00\n        /* \"#utility.yul\":9541:9547   */\n      dup3\n        /* \"#utility.yul\":9537:9551   */\n      add\n        /* \"#utility.yul\":9530:9581   */\n      mstore\n        /* \"#utility.yul\":9413:9588   */\n      pop\n      jump\t// out\n        /* \"#utility.yul\":9594:9960   */\n    tag_373:\n        /* \"#utility.yul\":9736:9739   */\n      0x00\n        /* \"#utility.yul\":9757:9824   */\n      tag_486\n        /* \"#utility.yul\":9821:9823   */\n      0x19\n        /* \"#utility.yul\":9816:9819   */\n      dup4\n        /* \"#utility.yul\":9757:9824   */\n      tag_346\n      jump\t// in\n    tag_486:\n        /* \"#utility.yul\":9750:9824   */\n      swap2\n      pop\n        /* \"#utility.yul\":9833:9926   */\n      tag_487\n        /* \"#utility.yul\":9922:9925   */\n      dup3\n        /* \"#utility.yul\":9833:9926   */\n      tag_372\n      jump\t// in\n    tag_487:\n        /* \"#utility.yul\":9951:9953   */\n      0x20\n        /* \"#utility.yul\":9946:9949   */\n      dup3\n        /* \"#utility.yul\":9942:9954   */\n      add\n        /* \"#utility.yul\":9935:9954   */\n      swap1\n      pop\n        /* \"#utility.yul\":9594:9960   */\n      swap2\n      swap1\n      pop\n      jump\t// out\n        /* \"#utility.yul\":9966:10385   */\n    tag_231:\n        /* \"#utility.yul\":10132:10136   */\n      0x00\n        /* \"#utility.yul\":10170:10172   */\n      0x20\n        /* \"#utility.yul\":10159:10168   */\n      dup3\n        /* \"#utility.yul\":10155:10173   */\n      add\n        /* \"#utility.yul\":10147:10173   */\n      swap1\n      pop\n        /* \"#utility.yul\":10219:10228   */\n      dup2\n        /* \"#utility.yul\":10213:10217   */\n      dup2\n        /* \"#utility.yul\":10209:10229   */\n      sub\n        /* \"#utility.yul\":10205:10206   */\n      0x00\n        /* \"#utility.yul\":10194:10203   */\n      dup4\n        /* \"#utility.yul\":10190:10207   */\n      add\n        /* \"#utility.yul\":10183:10230   */\n      mstore\n        /* \"#utility.yul\":10247:10378   */\n      tag_489\n        /* \"#utility.yul\":10373:10377   */\n      dup2\n        /* \"#utility.yul\":10247:10378   */\n      tag_373\n      jump\t// in\n    tag_489:\n        /* \"#utility.yul\":10239:10378   */\n      swap1\n      pop\n        /* \"#utility.yul\":9966:10385   */\n      swap2\n      swap1\n      pop\n      jump\t// out\n        /* \"#utility.yul\":10391:10801   */\n    tag_242:\n        /* \"#utility.yul\":10431:10438   */\n      0x00\n        /* \"#utility.yul\":10454:10474   */\n      tag_491\n        /* \"#utility.yul\":10472:10473   */\n      dup3\n        /* \"#utility.yul\":10454:10474   */\n      tag_357\n      jump\t// in\n    tag_491:\n        /* \"#utility.yul\":10449:10474   */\n      swap2\n      pop\n        /* \"#utility.yul\":10488:10508   */\n      tag_492\n        /* \"#utility.yul\":10506:10507   */\n      dup4\n        /* \"#utility.yul\":10488:10508   */\n      tag_357\n      jump\t// in\n    tag_492:\n        /* \"#utility.yul\":10483:10508   */\n      swap3\n      pop\n        /* \"#utility.yul\":10543:10544   */\n      dup3\n        /* \"#utility.yul\":10540:10541   */\n      dup3\n        /* \"#utility.yul\":10536:10545   */\n      mul\n        /* \"#utility.yul\":10565:10595   */\n      tag_493\n        /* \"#utility.yul\":10583:10594   */\n      dup2\n        /* \"#utility.yul\":10565:10595   */\n      tag_357\n      jump\t// in\n    tag_493:\n        /* \"#utility.yul\":10554:10595   */\n      swap2\n      pop\n        /* \"#utility.yul\":10744:10745   */\n      dup3\n        /* \"#utility.yul\":10735:10742   */\n      dup3\n        /* \"#utility.yul\":10731:10746   */\n      div\n        /* \"#utility.yul\":10728:10729   */\n      dup5\n        /* \"#utility.yul\":10725:10747   */\n      eq\n        /* \"#utility.yul\":10705:10706   */\n      dup4\n        /* \"#utility.yul\":10698:10707   */\n      iszero\n        /* \"#utility.yul\":10678:10761   */\n      or\n        /* \"#utility.yul\":10655:10794   */\n      tag_494\n      jumpi\n        /* \"#utility.yul\":10774:10792   */\n      tag_495\n      tag_369\n      jump\t// in\n    tag_495:\n        /* \"#utility.yul\":10655:10794   */\n    tag_494:\n        /* \"#utility.yul\":10439:10801   */\n      pop\n        /* \"#utility.yul\":10391:10801   */\n      swap3\n      swap2\n      pop\n      pop\n      jump\t// out\n        /* \"#utility.yul\":10807:10987   */\n    tag_374:\n        /* \"#utility.yul\":10855:10932   */\n      0x4e487b7100000000000000000000000000000000000000000000000000000000\n        /* \"#utility.yul\":10852:10853   */\n      0x00\n        /* \"#utility.yul\":10845:10933   */\n      mstore\n        /* \"#utility.yul\":10952:10956   */\n      0x12\n        /* \"#utility.yul\":10949:10950   */\n      0x04\n        /* \"#utility.yul\":10942:10957   */\n      mstore\n        /* \"#utility.yul\":10976:10980   */\n      0x24\n        /* \"#utility.yul\":10973:10974   */\n      0x00\n        /* \"#utility.yul\":10966:10981   */\n      revert\n        /* \"#utility.yul\":10993:11178   */\n    tag_244:\n        /* \"#utility.yul\":11033:11034   */\n      0x00\n        /* \"#utility.yul\":11050:11070   */\n      tag_498\n        /* \"#utility.yul\":11068:11069   */\n      dup3\n        /* \"#utility.yul\":11050:11070   */\n      tag_357\n      jump\t// in\n    tag_498:\n        /* \"#utility.yul\":11045:11070   */\n      swap2\n      pop\n        /* \"#utility.yul\":11084:11104   */\n      tag_499\n        /* \"#utility.yul\":11102:11103   */\n      dup4\n        /* \"#utility.yul\":11084:11104   */\n      tag_357\n      jump\t// in\n    tag_499:\n        /* \"#utility.yul\":11079:11104   */\n      swap3\n      pop\n        /* \"#utility.yul\":11123:11124   */\n      dup3\n        /* \"#utility.yul\":11113:11148   */\n      tag_500\n      jumpi\n        /* \"#utility.yul\":11128:11146   */\n      tag_501\n      tag_374\n      jump\t// in\n    tag_501:\n        /* \"#utility.yul\":11113:11148   */\n    tag_500:\n        /* \"#utility.yul\":11170:11171   */\n      dup3\n        /* \"#utility.yul\":11167:11168   */\n      dup3\n        /* \"#utility.yul\":11163:11172   */\n      div\n        /* \"#utility.yul\":11158:11172   */\n      swap1\n      pop\n        /* \"#utility.yul\":10993:11178   */\n      swap3\n      swap2\n      pop\n      pop\n      jump\t// out\n        /* \"#utility.yul\":11184:11365   */\n    tag_375:\n        /* \"#utility.yul\":11324:11357   */\n      0x5265656e7472616e637947756172643a207265656e7472616e742063616c6c00\n        /* \"#utility.yul\":11320:11321   */\n      0x00\n        /* \"#utility.yul\":11312:11318   */\n      dup3\n        /* \"#utility.yul\":11308:11322   */\n      add\n        /* \"#utility.yul\":11301:11358   */\n      mstore\n        /* \"#utility.yul\":11184:11365   */\n      pop\n      jump\t// out\n        /* \"#utility.yul\":11371:11737   */\n    tag_376:\n        /* \"#utility.yul\":11513:11516   */\n      0x00\n        /* \"#utility.yul\":11534:11601   */\n      tag_504\n        /* \"#utility.yul\":11598:11600   */\n      0x1f\n        /* \"#utility.yul\":11593:11596   */\n      dup4\n        /* \"#utility.yul\":11534:11601   */\n      tag_346\n      jump\t// in\n    tag_504:\n        /* \"#utility.yul\":11527:11601   */\n      swap2\n      pop\n        /* \"#utility.yul\":11610:11703   */\n      tag_505\n        /* \"#utility.yul\":11699:11702   */\n      dup3\n        /* \"#utility.yul\":11610:11703   */\n      tag_375\n      jump\t// in\n    tag_505:\n        /* \"#utility.yul\":11728:11730   */\n      0x20\n        /* \"#utility.yul\":11723:11726   */\n      dup3\n        /* \"#utility.yul\":11719:11731   */\n      add\n        /* \"#utility.yul\":11712:11731   */\n      swap1\n      pop\n        /* \"#utility.yul\":11371:11737   */\n      swap2\n      swap1\n      pop\n      jump\t// out\n        /* \"#utility.yul\":11743:12162   */\n    tag_268:\n        /* \"#utility.yul\":11909:11913   */\n      0x00\n        /* \"#utility.yul\":11947:11949   */\n      0x20\n        /* \"#utility.yul\":11936:11945   */\n      dup3\n        /* \"#utility.yul\":11932:11950   */\n      add\n        /* \"#utility.yul\":11924:11950   */\n      swap1\n      pop\n        /* \"#utility.yul\":11996:12005   */\n      dup2\n        /* \"#utility.yul\":11990:11994   */\n      dup2\n        /* \"#utility.yul\":11986:12006   */\n      sub\n        /* \"#utility.yul\":11982:11983   */\n      0x00\n        /* \"#utility.yul\":11971:11980   */\n      dup4\n        /* \"#utility.yul\":11967:11984   */\n      add\n        /* \"#utility.yul\":11960:12007   */\n      mstore\n        /* \"#utility.yul\":12024:12155   */\n      tag_507\n        /* \"#utility.yul\":12150:12154   */\n      dup2\n        /* \"#utility.yul\":12024:12155   */\n      tag_376\n      jump\t// in\n    tag_507:\n        /* \"#utility.yul\":12016:12155   */\n      swap1\n      pop\n        /* \"#utility.yul\":11743:12162   */\n      swap2\n      swap1\n      pop\n      jump\t// out\n        /* \"#utility.yul\":12168:12343   */\n    tag_377:\n        /* \"#utility.yul\":12308:12335   */\n      0x4369726375697420627265616b65722069732061637469766500000000000000\n        /* \"#utility.yul\":12304:12305   */\n      0x00\n        /* \"#utility.yul\":12296:12302   */\n      dup3\n        /* \"#utility.yul\":12292:12306   */\n      add\n        /* \"#utility.yul\":12285:12336   */\n      mstore\n        /* \"#utility.yul\":12168:12343   */\n      pop\n      jump\t// out\n        /* \"#utility.yul\":12349:12715   */\n    tag_378:\n        /* \"#utility.yul\":12491:12494   */\n      0x00\n        /* \"#utility.yul\":12512:12579   */\n      tag_510\n        /* \"#utility.yul\":12576:12578   */\n      0x19\n        /* \"#utility.yul\":12571:12574   */\n      dup4\n        /* \"#utility.yul\":12512:12579   */\n      tag_346\n      jump\t// in\n    tag_510:\n        /* \"#utility.yul\":12505:12579   */\n      swap2\n      pop\n        /* \"#utility.yul\":12588:12681   */\n      tag_511\n        /* \"#utility.yul\":12677:12680   */\n      dup3\n        /* \"#utility.yul\":12588:12681   */\n      tag_377\n      jump\t// in\n    tag_511:\n        /* \"#utility.yul\":12706:12708   */\n      0x20\n        /* \"#utility.yul\":12701:12704   */\n      dup3\n        /* \"#utility.yul\":12697:12709   */\n      add\n        /* \"#utility.yul\":12690:12709   */\n      swap1\n      pop\n        /* \"#utility.yul\":12349:12715   */\n      swap2\n      swap1\n      pop\n      jump\t// out\n        /* \"#utility.yul\":12721:13140   */\n    tag_272:\n        /* \"#utility.yul\":12887:12891   */\n      0x00\n        /* \"#utility.yul\":12925:12927   */\n      0x20\n        /* \"#utility.yul\":12914:12923   */\n      dup3\n        /* \"#utility.yul\":12910:12928   */\n      add\n        /* \"#utility.yul\":12902:12928   */\n      swap1\n      pop\n        /* \"#utility.yul\":12974:12983   */\n      dup2\n        /* \"#utility.yul\":12968:12972   */\n      dup2\n        /* \"#utility.yul\":12964:12984   */\n      sub\n        /* \"#utility.yul\":12960:12961   */\n      0x00\n        /* \"#utility.yul\":12949:12958   */\n      dup4\n        /* \"#utility.yul\":12945:12962   */\n      add\n        /* \"#utility.yul\":12938:12985   */\n      mstore\n        /* \"#utility.yul\":13002:13133   */\n      tag_513\n        /* \"#utility.yul\":13128:13132   */\n      dup2\n        /* \"#utility.yul\":13002:13133   */\n      tag_378\n      jump\t// in\n    tag_513:\n        /* \"#utility.yul\":12994:13133   */\n      swap1\n      pop\n        /* \"#utility.yul\":12721:13140   */\n      swap2\n      swap1\n      pop\n      jump\t// out\n        /* \"#utility.yul\":13146:13314   */\n    tag_379:\n        /* \"#utility.yul\":13286:13306   */\n      0x4275726e2076616c756520696e76616c69640000000000000000000000000000\n        /* \"#utility.yul\":13282:13283   */\n      0x00\n        /* \"#utility.yul\":13274:13280   */\n      dup3\n        /* \"#utility.yul\":13270:13284   */\n      add\n        /* \"#utility.yul\":13263:13307   */\n      mstore\n        /* \"#utility.yul\":13146:13314   */\n      pop\n      jump\t// out\n        /* \"#utility.yul\":13320:13686   */\n    tag_380:\n        /* \"#utility.yul\":13462:13465   */\n      0x00\n        /* \"#utility.yul\":13483:13550   */\n      tag_516\n        /* \"#utility.yul\":13547:13549   */\n      0x12\n        /* \"#utility.yul\":13542:13545   */\n      dup4\n        /* \"#utility.yul\":13483:13550   */\n      tag_346\n      jump\t// in\n    tag_516:\n        /* \"#utility.yul\":13476:13550   */\n      swap2\n      pop\n        /* \"#utility.yul\":13559:13652   */\n      tag_517\n        /* \"#utility.yul\":13648:13651   */\n      dup3\n        /* \"#utility.yul\":13559:13652   */\n      tag_379\n      jump\t// in\n    tag_517:\n        /* \"#utility.yul\":13677:13679   */\n      0x20\n        /* \"#utility.yul\":13672:13675   */\n      dup3\n        /* \"#utility.yul\":13668:13680   */\n      add\n        /* \"#utility.yul\":13661:13680   */\n      swap1\n      pop\n        /* \"#utility.yul\":13320:13686   */\n      swap2\n      swap1\n      pop\n      jump\t// out\n        /* \"#utility.yul\":13692:14111   */\n    tag_279:\n        /* \"#utility.yul\":13858:13862   */\n      0x00\n        /* \"#utility.yul\":13896:13898   */\n      0x20\n        /* \"#utility.yul\":13885:13894   */\n      dup3\n        /* \"#utility.yul\":13881:13899   */\n      add\n        /* \"#utility.yul\":13873:13899   */\n      swap1\n      pop\n        /* \"#utility.yul\":13945:13954   */\n      dup2\n        /* \"#utility.yul\":13939:13943   */\n      dup2\n        /* \"#utility.yul\":13935:13955   */\n      sub\n        /* \"#utility.yul\":13931:13932   */\n      0x00\n        /* \"#utility.yul\":13920:13929   */\n      dup4\n        /* \"#utility.yul\":13916:13933   */\n      add\n        /* \"#utility.yul\":13909:13956   */\n      mstore\n        /* \"#utility.yul\":13973:14104   */\n      tag_519\n        /* \"#utility.yul\":14099:14103   */\n      dup2\n        /* \"#utility.yul\":13973:14104   */\n      tag_380\n      jump\t// in\n    tag_519:\n        /* \"#utility.yul\":13965:14104   */\n      swap1\n      pop\n        /* \"#utility.yul\":13692:14111   */\n      swap2\n      swap1\n      pop\n      jump\t// out\n        /* \"#utility.yul\":14117:14559   */\n    tag_289:\n        /* \"#utility.yul\":14266:14270   */\n      0x00\n        /* \"#utility.yul\":14304:14306   */\n      0x60\n        /* \"#utility.yul\":14293:14302   */\n      dup3\n        /* \"#utility.yul\":14289:14307   */\n      add\n        /* \"#utility.yul\":14281:14307   */\n      swap1\n      pop\n        /* \"#utility.yul\":14317:14388   */\n      tag_521\n        /* \"#utility.yul\":14385:14386   */\n      0x00\n        /* \"#utility.yul\":14374:14383   */\n      dup4\n        /* \"#utility.yul\":14370:14387   */\n      add\n        /* \"#utility.yul\":14361:14367   */\n      dup7\n        /* \"#utility.yul\":14317:14388   */\n      tag_365\n      jump\t// in\n    tag_521:\n        /* \"#utility.yul\":14398:14470   */\n      tag_522\n        /* \"#utility.yul\":14466:14468   */\n      0x20\n        /* \"#utility.yul\":14455:14464   */\n      dup4\n        /* \"#utility.yul\":14451:14469   */\n      add\n        /* \"#utility.yul\":14442:14448   */\n      dup6\n        /* \"#utility.yul\":14398:14470   */\n      tag_362\n      jump\t// in\n    tag_522:\n        /* \"#utility.yul\":14480:14552   */\n      tag_523\n        /* \"#utility.yul\":14548:14550   */\n      0x40\n        /* \"#utility.yul\":14537:14546   */\n      dup4\n        /* \"#utility.yul\":14533:14551   */\n      add\n        /* \"#utility.yul\":14524:14530   */\n      dup5\n        /* \"#utility.yul\":14480:14552   */\n      tag_362\n      jump\t// in\n    tag_523:\n        /* \"#utility.yul\":14117:14559   */\n      swap5\n      swap4\n      pop\n      pop\n      pop\n      pop\n      jump\t// out\n        /* \"#utility.yul\":14565:14735   */\n    tag_381:\n        /* \"#utility.yul\":14705:14727   */\n      0x5061757361626c653a206e6f7420706175736564000000000000000000000000\n        /* \"#utility.yul\":14701:14702   */\n      0x00\n        /* \"#utility.yul\":14693:14699   */\n      dup3\n        /* \"#utility.yul\":14689:14703   */\n      add\n        /* \"#utility.yul\":14682:14728   */\n      mstore\n        /* \"#utility.yul\":14565:14735   */\n      pop\n      jump\t// out\n        /* \"#utility.yul\":14741:15107   */\n    tag_382:\n        /* \"#utility.yul\":14883:14886   */\n      0x00\n        /* \"#utility.yul\":14904:14971   */\n      tag_526\n        /* \"#utility.yul\":14968:14970   */\n      0x14\n        /* \"#utility.yul\":14963:14966   */\n      dup4\n        /* \"#utility.yul\":14904:14971   */\n      tag_346\n      jump\t// in\n    tag_526:\n        /* \"#utility.yul\":14897:14971   */\n      swap2\n      pop\n        /* \"#utility.yul\":14980:15073   */\n      tag_527\n        /* \"#utility.yul\":15069:15072   */\n      dup3\n        /* \"#utility.yul\":14980:15073   */\n      tag_381\n      jump\t// in\n    tag_527:\n        /* \"#utility.yul\":15098:15100   */\n      0x20\n        /* \"#utility.yul\":15093:15096   */\n      dup3\n        /* \"#utility.yul\":15089:15101   */\n      add\n        /* \"#utility.yul\":15082:15101   */\n      swap1\n      pop\n        /* \"#utility.yul\":14741:15107   */\n      swap2\n      swap1\n      pop\n      jump\t// out\n        /* \"#utility.yul\":15113:15532   */\n    tag_330:\n        /* \"#utility.yul\":15279:15283   */\n      0x00\n        /* \"#utility.yul\":15317:15319   */\n      0x20\n        /* \"#utility.yul\":15306:15315   */\n      dup3\n        /* \"#utility.yul\":15302:15320   */\n      add\n        /* \"#utility.yul\":15294:15320   */\n      swap1\n      pop\n        /* \"#utility.yul\":15366:15375   */\n      dup2\n        /* \"#utility.yul\":15360:15364   */\n      dup2\n        /* \"#utility.yul\":15356:15376   */\n      sub\n        /* \"#utility.yul\":15352:15353   */\n      0x00\n        /* \"#utility.yul\":15341:15350   */\n      dup4\n        /* \"#utility.yul\":15337:15354   */\n      add\n        /* \"#utility.yul\":15330:15377   */\n      mstore\n        /* \"#utility.yul\":15394:15525   */\n      tag_529\n        /* \"#utility.yul\":15520:15524   */\n      dup2\n        /* \"#utility.yul\":15394:15525   */\n      tag_382\n      jump\t// in\n    tag_529:\n        /* \"#utility.yul\":15386:15525   */\n      swap1\n      pop\n        /* \"#utility.yul\":15113:15532   */\n      swap2\n      swap1\n      pop\n      jump\t// out\n        /* \"#utility.yul\":15538:15704   */\n    tag_383:\n        /* \"#utility.yul\":15678:15696   */\n      0x5061757361626c653a2070617573656400000000000000000000000000000000\n        /* \"#utility.yul\":15674:15675   */\n      0x00\n        /* \"#utility.yul\":15666:15672   */\n      dup3\n        /* \"#utility.yul\":15662:15676   */\n      add\n        /* \"#utility.yul\":15655:15697   */\n      mstore\n        /* \"#utility.yul\":15538:15704   */\n      pop\n      jump\t// out\n        /* \"#utility.yul\":15710:16076   */\n    tag_384:\n        /* \"#utility.yul\":15852:15855   */\n      0x00\n        /* \"#utility.yul\":15873:15940   */\n      tag_532\n        /* \"#utility.yul\":15937:15939   */\n      0x10\n        /* \"#utility.yul\":15932:15935   */\n      dup4\n        /* \"#utility.yul\":15873:15940   */\n      tag_346\n      jump\t// in\n    tag_532:\n        /* \"#utility.yul\":15866:15940   */\n      swap2\n      pop\n        /* \"#utility.yul\":15949:16042   */\n      tag_533\n        /* \"#utility.yul\":16038:16041   */\n      dup3\n        /* \"#utility.yul\":15949:16042   */\n      tag_383\n      jump\t// in\n    tag_533:\n        /* \"#utility.yul\":16067:16069   */\n      0x20\n        /* \"#utility.yul\":16062:16065   */\n      dup3\n        /* \"#utility.yul\":16058:16070   */\n      add\n        /* \"#utility.yul\":16051:16070   */\n      swap1\n      pop\n        /* \"#utility.yul\":15710:16076   */\n      swap2\n      swap1\n      pop\n      jump\t// out\n        /* \"#utility.yul\":16082:16501   */\n    tag_344:\n        /* \"#utility.yul\":16248:16252   */\n      0x00\n        /* \"#utility.yul\":16286:16288   */\n      0x20\n        /* \"#utility.yul\":16275:16284   */\n      dup3\n        /* \"#utility.yul\":16271:16289   */\n      add\n        /* \"#utility.yul\":16263:16289   */\n      swap1\n      pop\n        /* \"#utility.yul\":16335:16344   */\n      dup2\n        /* \"#utility.yul\":16329:16333   */\n      dup2\n        /* \"#utility.yul\":16325:16345   */\n      sub\n        /* \"#utility.yul\":16321:16322   */\n      0x00\n        /* \"#utility.yul\":16310:16319   */\n      dup4\n        /* \"#utility.yul\":16306:16323   */\n      add\n        /* \"#utility.yul\":16299:16346   */\n      mstore\n        /* \"#utility.yul\":16363:16494   */\n      tag_535\n        /* \"#utility.yul\":16489:16493   */\n      dup2\n        /* \"#utility.yul\":16363:16494   */\n      tag_384\n      jump\t// in\n    tag_535:\n        /* \"#utility.yul\":16355:16494   */\n      swap1\n      pop\n        /* \"#utility.yul\":16082:16501   */\n      swap2\n      swap1\n      pop\n      jump\t// out\n\n    auxdata: 0xa264697066735822122074d481f8ba00466a150a12a206b3da41c1d34397d588c3d8efd94fd96953cd1b64736f6c634300081a0033\n}\n",
				"bytecode": {
					"linkReferences": {},
					"object": "60806040525f60095f6101000a81548160ff021916908315150217905550348015610028575f80fd5b50336040518060400160405280600d81526020017f5477656574204f6e2042617365000000000000000000000000000000000000008152506040518060400160405280600681526020017f547765657473000000000000000000000000000000000000000000000000000081525081600390816100a5919061070f565b5080600490816100b5919061070f565b5050505f60055f6101000a81548160ff0219169083151502179055505f73ffffffffffffffffffffffffffffffffffffffff168173ffffffffffffffffffffffffffffffffffffffff1603610141575f6040517f1e4fbdf7000000000000000000000000000000000000000000000000000000008152600401610138919061081d565b60405180910390fd5b6101508161017260201b60201c565b50600160068190555061016d336305f5e10061023760201b60201c565b6108f3565b5f600560019054906101000a900473ffffffffffffffffffffffffffffffffffffffff16905081600560016101000a81548173ffffffffffffffffffffffffffffffffffffffff021916908373ffffffffffffffffffffffffffffffffffffffff1602179055508173ffffffffffffffffffffffffffffffffffffffff168173ffffffffffffffffffffffffffffffffffffffff167f8be0079c531659141344cd1fd0a4f28419497f9722a3daafe3b4186f6b6457e060405160405180910390a35050565b5f73ffffffffffffffffffffffffffffffffffffffff168273ffffffffffffffffffffffffffffffffffffffff16036102a7575f6040517fec442f0500000000000000000000000000000000000000000000000000000000815260040161029e919061081d565b60405180910390fd5b6102b85f83836102bc60201b60201c565b5050565b5f73ffffffffffffffffffffffffffffffffffffffff168373ffffffffffffffffffffffffffffffffffffffff160361030c578060025f8282546103009190610863565b925050819055506103da565b5f805f8573ffffffffffffffffffffffffffffffffffffffff1673ffffffffffffffffffffffffffffffffffffffff1681526020019081526020015f2054905081811015610395578381836040517fe450d38c00000000000000000000000000000000000000000000000000000000815260040161038c939291906108a5565b60405180910390fd5b8181035f808673ffffffffffffffffffffffffffffffffffffffff1673ffffffffffffffffffffffffffffffffffffffff1681526020019081526020015f2081905550505b5f73ffffffffffffffffffffffffffffffffffffffff168273ffffffffffffffffffffffffffffffffffffffff1603610421578060025f828254039250508190555061046b565b805f808473ffffffffffffffffffffffffffffffffffffffff1673ffffffffffffffffffffffffffffffffffffffff1681526020019081526020015f205f82825401925050819055505b8173ffffffffffffffffffffffffffffffffffffffff168373ffffffffffffffffffffffffffffffffffffffff167fddf252ad1be2c89b69c2b068fc378daa952ba7f163c4a11628f55a4df523b3ef836040516104c891906108da565b60405180910390a3505050565b5f81519050919050565b7f4e487b71000000000000000000000000000000000000000000000000000000005f52604160045260245ffd5b7f4e487b71000000000000000000000000000000000000000000000000000000005f52602260045260245ffd5b5f600282049050600182168061055057607f821691505b6020821081036105635761056261050c565b5b50919050565b5f819050815f5260205f209050919050565b5f6020601f8301049050919050565b5f82821b905092915050565b5f600883026105c57fffffffffffffffffffffffffffffffffffffffffffffffffffffffffffffffff8261058a565b6105cf868361058a565b95508019841693508086168417925050509392505050565b5f819050919050565b5f819050919050565b5f61061361060e610609846105e7565b6105f0565b6105e7565b9050919050565b5f819050919050565b61062c836105f9565b6106406106388261061a565b848454610596565b825550505050565b5f90565b610654610648565b61065f818484610623565b505050565b5b81811015610682576106775f8261064c565b600181019050610665565b5050565b601f8211156106c75761069881610569565b6106a18461057b565b810160208510156106b0578190505b6106c46106bc8561057b565b830182610664565b50505b505050565b5f82821c905092915050565b5f6106e75f19846008026106cc565b1980831691505092915050565b5f6106ff83836106d8565b9150826002028217905092915050565b610718826104d5565b67ffffffffffffffff811115610731576107306104df565b5b61073b8254610539565b610746828285610686565b5f60209050601f831160018114610777575f8415610765578287015190505b61076f85826106f4565b8655506107d6565b601f19841661078586610569565b5f5b828110156107ac57848901518255600182019150602085019450602081019050610787565b868310156107c957848901516107c5601f8916826106d8565b8355505b6001600288020188555050505b505050505050565b5f73ffffffffffffffffffffffffffffffffffffffff82169050919050565b5f610807826107de565b9050919050565b610817816107fd565b82525050565b5f6020820190506108305f83018461080e565b92915050565b7f4e487b71000000000000000000000000000000000000000000000000000000005f52601160045260245ffd5b5f61086d826105e7565b9150610878836105e7565b92508282019050808211156108905761088f610836565b5b92915050565b61089f816105e7565b82525050565b5f6060820190506108b85f83018661080e565b6108c56020830185610896565b6108d26040830184610896565b949350505050565b5f6020820190506108ed5f830184610896565b92915050565b6121ef806109005f395ff3fe608060405234801561000f575f80fd5b506004361061018c575f3560e01c806370a08231116100dc578063a64254c311610095578063c80521071161006f578063c8052107146103fe578063d82e39621461041a578063dd62ed3e1461044a578063f2fde38b1461047a5761018c565b8063a64254c3146103a8578063a9059cbb146103b2578063afe8289a146103e25761018c565b806370a082311461030c578063715018a61461033c57806379cc6790146103465780638456cb59146103625780638da5cb5b1461036c57806395d89b411461038a5761018c565b80632ff2e9dc116101495780633f4ba83a116101235780633f4ba83a146102ac57806342966c68146102b657806351c6590a146102d25780635c975abb146102ee5761018c565b80632ff2e9dc14610252578063313ce5671461027057806332cb6b0c1461028e5761018c565b806306fdde0314610190578063095ea7b3146101ae57806318160ddd146101de57806321208fa2146101fc5780632254b79c1461020657806323b872dd14610222575b5f80fd5b610198610496565b6040516101a591906119e0565b60405180910390f35b6101c860048036038101906101c39190611a91565b610526565b6040516101d59190611ae9565b60405180910390f35b6101e6610548565b6040516101f39190611b11565b60405180910390f35b610204610551565b005b610220600480360381019061021b9190611b2a565b610574565b005b61023c60048036038101906102379190611b55565b610717565b6040516102499190611ae9565b60405180910390f35b61025a610745565b6040516102679190611b11565b60405180910390f35b61027861074d565b6040516102859190611bc0565b60405180910390f35b610296610751565b6040516102a39190611b11565b60405180910390f35b6102b461075a565b005b6102d060048036038101906102cb9190611b2a565b61076c565b005b6102ec60048036038101906102e79190611b2a565b610780565b005b6102f6610823565b6040516103039190611ae9565b60405180910390f35b61032660048036038101906103219190611bd9565b610838565b6040516103339190611b11565b60405180910390f35b61034461087d565b005b610360600480360381019061035b9190611a91565b610890565b005b61036a6108b0565b005b6103746108c2565b6040516103819190611c13565b60405180910390f35b6103926108eb565b60405161039f91906119e0565b60405180910390f35b6103b061097b565b005b6103cc60048036038101906103c79190611a91565b61099f565b6040516103d99190611ae9565b60405180910390f35b6103fc60048036038101906103f79190611b2a565b6109c1565b005b61041860048036038101906104139190611b2a565b610a79565b005b610434600480360381019061042f9190611bd9565b610d37565b6040516104419190611b11565b60405180910390f35b610464600480360381019061045f9190611c2c565b610e15565b6040516104719190611b11565b60405180910390f35b610494600480360381019061048f9190611bd9565b610e97565b005b6060600380546104a590611c97565b80601f01602080910402602001604051908101604052809291908181526020018280546104d190611c97565b801561051c5780601f106104f35761010080835404028352916020019161051c565b820191905f5260205f20905b8154815290600101906020018083116104ff57829003601f168201915b5050505050905090565b5f80610530610f1b565b905061053d818585610f22565b600191505092915050565b5f600254905090565b610559610f34565b5f60095f6101000a81548160ff021916908315150217905550565b61057c610f34565b610584610fbb565b60075f61058f6108c2565b73ffffffffffffffffffffffffffffffffffffffff1673ffffffffffffffffffffffffffffffffffffffff1681526020019081526020015f205481111561060b576040517f08c379a000000000000000000000000000000000000000000000000000000000815260040161060290611d11565b60405180910390fd5b8060075f6106176108c2565b73ffffffffffffffffffffffffffffffffffffffff1673ffffffffffffffffffffffffffffffffffffffff1681526020019081526020015f205f82825461065e9190611d5c565b925050819055505f60075f6106716108c2565b73ffffffffffffffffffffffffffffffffffffffff1673ffffffffffffffffffffffffffffffffffffffff1681526020019081526020015f2054036106fa575f60085f6106bc6108c2565b73ffffffffffffffffffffffffffffffffffffffff1673ffffffffffffffffffffffffffffffffffffffff1681526020019081526020015f20819055505b61070c306107066108c2565b8361100a565b6107146110e3565b50565b5f80610721610f1b565b905061072e8582856110ed565b61073985858561100a565b60019150509392505050565b6305f5e10081565b5f90565b64012a05f20081565b610762610f34565b61076a61117f565b565b61077d610777610f1b565b826111e0565b50565b61078b33308361100a565b8060075f3373ffffffffffffffffffffffffffffffffffffffff1673ffffffffffffffffffffffffffffffffffffffff1681526020019081526020015f205f8282546107d79190611d8f565b925050819055504260085f3373ffffffffffffffffffffffffffffffffffffffff1673ffffffffffffffffffffffffffffffffffffffff1681526020019081526020015f208190555050565b5f60055f9054906101000a900460ff16905090565b5f805f8373ffffffffffffffffffffffffffffffffffffffff1673ffffffffffffffffffffffffffffffffffffffff1681526020019081526020015f20549050919050565b610885610f34565b61088e5f61125f565b565b6108a28261089c610f1b565b836110ed565b6108ac82826111e0565b5050565b6108b8610f34565b6108c0611324565b565b5f600560019054906101000a900473ffffffffffffffffffffffffffffffffffffffff16905090565b6060600480546108fa90611c97565b80601f016020809104026020016040519081016040528092919081815260200182805461092690611c97565b80156109715780601f1061094857610100808354040283529160200191610971565b820191905f5260205f20905b81548152906001019060200180831161095457829003601f168201915b5050505050905090565b610983610f34565b600160095f6101000a81548160ff021916908315150217905550565b5f806109a9610f1b565b90506109b681858561100a565b600191505092915050565b6109c9610f34565b8060075f6109d56108c2565b73ffffffffffffffffffffffffffffffffffffffff1673ffffffffffffffffffffffffffffffffffffffff1681526020019081526020015f205f828254610a1c9190611d8f565b925050819055504260085f610a2f6108c2565b73ffffffffffffffffffffffffffffffffffffffff1673ffffffffffffffffffffffffffffffffffffffff1681526020019081526020015f2081905550610a763082611386565b50565b610a81610fbb565b60075f3373ffffffffffffffffffffffffffffffffffffffff1673ffffffffffffffffffffffffffffffffffffffff1681526020019081526020015f2054811115610b01576040517f08c379a0000000000000000000000000000000000000000000000000000000008152600401610af890611d11565b60405180910390fd5b62278d0060085f3373ffffffffffffffffffffffffffffffffffffffff1673ffffffffffffffffffffffffffffffffffffffff1681526020019081526020015f2054610b4d9190611d8f565b421015610b8f576040517f08c379a0000000000000000000000000000000000000000000000000000000008152600401610b8690611e58565b60405180910390fd5b5f610b9933610d37565b905064012a05f20081610baa610548565b610bb49190611d8f565b1115610bf5576040517f08c379a0000000000000000000000000000000000000000000000000000000008152600401610bec90611ec0565b60405180910390fd5b610bff3382611386565b610c0a30338461100a565b8160075f3373ffffffffffffffffffffffffffffffffffffffff1673ffffffffffffffffffffffffffffffffffffffff1681526020019081526020015f205f828254610c569190611d5c565b925050819055505f60075f3373ffffffffffffffffffffffffffffffffffffffff1673ffffffffffffffffffffffffffffffffffffffff1681526020019081526020015f205403610ce8575f60085f3373ffffffffffffffffffffffffffffffffffffffff1673ffffffffffffffffffffffffffffffffffffffff1681526020019081526020015f2081905550610d2b565b4260085f3373ffffffffffffffffffffffffffffffffffffffff1673ffffffffffffffffffffffffffffffffffffffff1681526020019081526020015f20819055505b50610d346110e3565b50565b5f62278d0060085f8473ffffffffffffffffffffffffffffffffffffffff1673ffffffffffffffffffffffffffffffffffffffff1681526020019081526020015f2054610d849190611d8f565b4210610e0c575f6064600560075f8673ffffffffffffffffffffffffffffffffffffffff1673ffffffffffffffffffffffffffffffffffffffff1681526020019081526020015f2054610dd79190611ede565b610de19190611f4c565b905064012a05f20081610df2610548565b610dfc9190611d8f565b11610e0a5780915050610e10565b505b5f90505b919050565b5f60015f8473ffffffffffffffffffffffffffffffffffffffff1673ffffffffffffffffffffffffffffffffffffffff1681526020019081526020015f205f8373ffffffffffffffffffffffffffffffffffffffff1673ffffffffffffffffffffffffffffffffffffffff1681526020019081526020015f2054905092915050565b610e9f610f34565b5f73ffffffffffffffffffffffffffffffffffffffff168173ffffffffffffffffffffffffffffffffffffffff1603610f0f575f6040517f1e4fbdf7000000000000000000000000000000000000000000000000000000008152600401610f069190611c13565b60405180910390fd5b610f188161125f565b50565b5f33905090565b610f2f8383836001611405565b505050565b610f3c610f1b565b73ffffffffffffffffffffffffffffffffffffffff16610f5a6108c2565b73ffffffffffffffffffffffffffffffffffffffff1614610fb957610f7d610f1b565b6040517f118cdaa7000000000000000000000000000000000000000000000000000000008152600401610fb09190611c13565b60405180910390fd5b565b600260065403611000576040517f08c379a0000000000000000000000000000000000000000000000000000000008152600401610ff790611fc6565b60405180910390fd5b6002600681905550565b60095f9054906101000a900460ff1615611059576040517f08c379a00000000000000000000000000000000000000000000000000000000081526004016110509061202e565b60405180910390fd5b5f620186a0826110699190611f4c565b90505f81836110789190611d5c565b905081816110869190611d8f565b83146110c7576040517f08c379a00000000000000000000000000000000000000000000000000000000081526004016110be90612096565b60405180910390fd5b6110d28585836115d4565b6110dc85836111e0565b5050505050565b6001600681905550565b5f6110f88484610e15565b90507fffffffffffffffffffffffffffffffffffffffffffffffffffffffffffffffff8114611179578181101561116a578281836040517ffb8f41b2000000000000000000000000000000000000000000000000000000008152600401611161939291906120b4565b60405180910390fd5b61117884848484035f611405565b5b50505050565b6111876116c4565b5f60055f6101000a81548160ff0219169083151502179055507f5db9ee0a495bf2e6ff9c91a7834c1ba4fdd244a5e8aa4e537bd38aeae4b073aa6111c9610f1b565b6040516111d69190611c13565b60405180910390a1565b5f73ffffffffffffffffffffffffffffffffffffffff168273ffffffffffffffffffffffffffffffffffffffff1603611250575f6040517f96c6fd1e0000000000000000000000000000000000000000000000000000000081526004016112479190611c13565b60405180910390fd5b61125b825f8361170d565b5050565b5f600560019054906101000a900473ffffffffffffffffffffffffffffffffffffffff16905081600560016101000a81548173ffffffffffffffffffffffffffffffffffffffff021916908373ffffffffffffffffffffffffffffffffffffffff1602179055508173ffffffffffffffffffffffffffffffffffffffff168173ffffffffffffffffffffffffffffffffffffffff167f8be0079c531659141344cd1fd0a4f28419497f9722a3daafe3b4186f6b6457e060405160405180910390a35050565b61132c611926565b600160055f6101000a81548160ff0219169083151502179055507f62e78cea01bee320cd4e420270b5ea74000d11b0c9f74754ebdbfc544b05a25861136f610f1b565b60405161137c9190611c13565b60405180910390a1565b5f73ffffffffffffffffffffffffffffffffffffffff168273ffffffffffffffffffffffffffffffffffffffff16036113f6575f6040517fec442f050000000000000000000000000000000000000000000000000000000081526004016113ed9190611c13565b60405180910390fd5b6114015f838361170d565b5050565b5f73ffffffffffffffffffffffffffffffffffffffff168473ffffffffffffffffffffffffffffffffffffffff1603611475575f6040517fe602df0500000000000000000000000000000000000000000000000000000000815260040161146c9190611c13565b60405180910390fd5b5f73ffffffffffffffffffffffffffffffffffffffff168373ffffffffffffffffffffffffffffffffffffffff16036114e5575f6040517f94280d620000000000000000000000000000000000000000000000000000000081526004016114dc9190611c13565b60405180910390fd5b8160015f8673ffffffffffffffffffffffffffffffffffffffff1673ffffffffffffffffffffffffffffffffffffffff1681526020019081526020015f205f8573ffffffffffffffffffffffffffffffffffffffff1673ffffffffffffffffffffffffffffffffffffffff1681526020019081526020015f208190555080156115ce578273ffffffffffffffffffffffffffffffffffffffff168473ffffffffffffffffffffffffffffffffffffffff167f8c5be1e5ebec7d5bd14f71427d1e84f3dd0314c0f7b2291e5b200ac8c7c3b925846040516115c59190611b11565b60405180910390a35b50505050565b5f73ffffffffffffffffffffffffffffffffffffffff168373ffffffffffffffffffffffffffffffffffffffff1603611644575f6040517f96c6fd1e00000000000000000000000000000000000000000000000000000000815260040161163b9190611c13565b60405180910390fd5b5f73ffffffffffffffffffffffffffffffffffffffff168273ffffffffffffffffffffffffffffffffffffffff16036116b4575f6040517fec442f050000000000000000000000000000000000000000000000000000000081526004016116ab9190611c13565b60405180910390fd5b6116bf83838361170d565b505050565b6116cc610823565b61170b576040517f08c379a000000000000000000000000000000000000000000000000000000000815260040161170290612133565b60405180910390fd5b565b5f73ffffffffffffffffffffffffffffffffffffffff168373ffffffffffffffffffffffffffffffffffffffff160361175d578060025f8282546117519190611d8f565b9250508190555061182b565b5f805f8573ffffffffffffffffffffffffffffffffffffffff1673ffffffffffffffffffffffffffffffffffffffff1681526020019081526020015f20549050818110156117e6578381836040517fe450d38c0000000000000000000000000000000000000000000000000000000081526004016117dd939291906120b4565b60405180910390fd5b8181035f808673ffffffffffffffffffffffffffffffffffffffff1673ffffffffffffffffffffffffffffffffffffffff1681526020019081526020015f2081905550505b5f73ffffffffffffffffffffffffffffffffffffffff168273ffffffffffffffffffffffffffffffffffffffff1603611872578060025f82825403925050819055506118bc565b805f808473ffffffffffffffffffffffffffffffffffffffff1673ffffffffffffffffffffffffffffffffffffffff1681526020019081526020015f205f82825401925050819055505b8173ffffffffffffffffffffffffffffffffffffffff168373ffffffffffffffffffffffffffffffffffffffff167fddf252ad1be2c89b69c2b068fc378daa952ba7f163c4a11628f55a4df523b3ef836040516119199190611b11565b60405180910390a3505050565b61192e610823565b1561196e576040517f08c379a00000000000000000000000000000000000000000000000000000000081526004016119659061219b565b60405180910390fd5b565b5f81519050919050565b5f82825260208201905092915050565b8281835e5f83830152505050565b5f601f19601f8301169050919050565b5f6119b282611970565b6119bc818561197a565b93506119cc81856020860161198a565b6119d581611998565b840191505092915050565b5f6020820190508181035f8301526119f881846119a8565b905092915050565b5f80fd5b5f73ffffffffffffffffffffffffffffffffffffffff82169050919050565b5f611a2d82611a04565b9050919050565b611a3d81611a23565b8114611a47575f80fd5b50565b5f81359050611a5881611a34565b92915050565b5f819050919050565b611a7081611a5e565b8114611a7a575f80fd5b50565b5f81359050611a8b81611a67565b92915050565b5f8060408385031215611aa757611aa6611a00565b5b5f611ab485828601611a4a565b9250506020611ac585828601611a7d565b9150509250929050565b5f8115159050919050565b611ae381611acf565b82525050565b5f602082019050611afc5f830184611ada565b92915050565b611b0b81611a5e565b82525050565b5f602082019050611b245f830184611b02565b92915050565b5f60208284031215611b3f57611b3e611a00565b5b5f611b4c84828501611a7d565b91505092915050565b5f805f60608486031215611b6c57611b6b611a00565b5b5f611b7986828701611a4a565b9350506020611b8a86828701611a4a565b9250506040611b9b86828701611a7d565b9150509250925092565b5f60ff82169050919050565b611bba81611ba5565b82525050565b5f602082019050611bd35f830184611bb1565b92915050565b5f60208284031215611bee57611bed611a00565b5b5f611bfb84828501611a4a565b91505092915050565b611c0d81611a23565b82525050565b5f602082019050611c265f830184611c04565b92915050565b5f8060408385031215611c4257611c41611a00565b5b5f611c4f85828601611a4a565b9250506020611c6085828601611a4a565b9150509250929050565b7f4e487b71000000000000000000000000000000000000000000000000000000005f52602260045260245ffd5b5f6002820490506001821680611cae57607f821691505b602082108103611cc157611cc0611c6a565b5b50919050565b7f496e73756666696369656e742062616c616e63650000000000000000000000005f82015250565b5f611cfb60148361197a565b9150611d0682611cc7565b602082019050919050565b5f6020820190508181035f830152611d2881611cef565b9050919050565b7f4e487b71000000000000000000000000000000000000000000000000000000005f52601160045260245ffd5b5f611d6682611a5e565b9150611d7183611a5e565b9250828203905081811115611d8957611d88611d2f565b5b92915050565b5f611d9982611a5e565b9150611da483611a5e565b9250828201905080821115611dbc57611dbb611d2f565b5b92915050565b7f4c6971756964697479206d7573742062652070726f766964656420666f7220615f8201527f74206c65617374203330206461797320746f207175616c69667920666f72207260208201527f6577617264730000000000000000000000000000000000000000000000000000604082015250565b5f611e4260468361197a565b9150611e4d82611dc2565b606082019050919050565b5f6020820190508181035f830152611e6f81611e36565b9050919050565b7f5265776172642065786365656473206d617820737570706c79000000000000005f82015250565b5f611eaa60198361197a565b9150611eb582611e76565b602082019050919050565b5f6020820190508181035f830152611ed781611e9e565b9050919050565b5f611ee882611a5e565b9150611ef383611a5e565b9250828202611f0181611a5e565b91508282048414831517611f1857611f17611d2f565b5b5092915050565b7f4e487b71000000000000000000000000000000000000000000000000000000005f52601260045260245ffd5b5f611f5682611a5e565b9150611f6183611a5e565b925082611f7157611f70611f1f565b5b828204905092915050565b7f5265656e7472616e637947756172643a207265656e7472616e742063616c6c005f82015250565b5f611fb0601f8361197a565b9150611fbb82611f7c565b602082019050919050565b5f6020820190508181035f830152611fdd81611fa4565b9050919050565b7f4369726375697420627265616b657220697320616374697665000000000000005f82015250565b5f61201860198361197a565b915061202382611fe4565b602082019050919050565b5f6020820190508181035f8301526120458161200c565b9050919050565b7f4275726e2076616c756520696e76616c696400000000000000000000000000005f82015250565b5f61208060128361197a565b915061208b8261204c565b602082019050919050565b5f6020820190508181035f8301526120ad81612074565b9050919050565b5f6060820190506120c75f830186611c04565b6120d46020830185611b02565b6120e16040830184611b02565b949350505050565b7f5061757361626c653a206e6f74207061757365640000000000000000000000005f82015250565b5f61211d60148361197a565b9150612128826120e9565b602082019050919050565b5f6020820190508181035f83015261214a81612111565b9050919050565b7f5061757361626c653a20706175736564000000000000000000000000000000005f82015250565b5f61218560108361197a565b915061219082612151565b602082019050919050565b5f6020820190508181035f8301526121b281612179565b905091905056fea264697066735822122074d481f8ba00466a150a12a206b3da41c1d34397d588c3d8efd94fd96953cd1b64736f6c634300081a0033",
					"opcodes": "PUSH1 0x80 PUSH1 0x40 MSTORE PUSH0 PUSH1 0x9 PUSH0 PUSH2 0x100 EXP DUP2 SLOAD DUP2 PUSH1 0xFF MUL NOT AND SWAP1 DUP4 ISZERO ISZERO MUL OR SWAP1 SSTORE POP CALLVALUE DUP1 ISZERO PUSH2 0x28 JUMPI PUSH0 DUP1 REVERT JUMPDEST POP CALLER PUSH1 0x40 MLOAD DUP1 PUSH1 0x40 ADD PUSH1 0x40 MSTORE DUP1 PUSH1 0xD DUP2 MSTORE PUSH1 0x20 ADD PUSH32 0x5477656574204F6E204261736500000000000000000000000000000000000000 DUP2 MSTORE POP PUSH1 0x40 MLOAD DUP1 PUSH1 0x40 ADD PUSH1 0x40 MSTORE DUP1 PUSH1 0x6 DUP2 MSTORE PUSH1 0x20 ADD PUSH32 0x5477656574730000000000000000000000000000000000000000000000000000 DUP2 MSTORE POP DUP2 PUSH1 0x3 SWAP1 DUP2 PUSH2 0xA5 SWAP2 SWAP1 PUSH2 0x70F JUMP JUMPDEST POP DUP1 PUSH1 0x4 SWAP1 DUP2 PUSH2 0xB5 SWAP2 SWAP1 PUSH2 0x70F JUMP JUMPDEST POP POP POP PUSH0 PUSH1 0x5 PUSH0 PUSH2 0x100 EXP DUP2 SLOAD DUP2 PUSH1 0xFF MUL NOT AND SWAP1 DUP4 ISZERO ISZERO MUL OR SWAP1 SSTORE POP PUSH0 PUSH20 0xFFFFFFFFFFFFFFFFFFFFFFFFFFFFFFFFFFFFFFFF AND DUP2 PUSH20 0xFFFFFFFFFFFFFFFFFFFFFFFFFFFFFFFFFFFFFFFF AND SUB PUSH2 0x141 JUMPI PUSH0 PUSH1 0x40 MLOAD PUSH32 0x1E4FBDF700000000000000000000000000000000000000000000000000000000 DUP2 MSTORE PUSH1 0x4 ADD PUSH2 0x138 SWAP2 SWAP1 PUSH2 0x81D JUMP JUMPDEST PUSH1 0x40 MLOAD DUP1 SWAP2 SUB SWAP1 REVERT JUMPDEST PUSH2 0x150 DUP2 PUSH2 0x172 PUSH1 0x20 SHL PUSH1 0x20 SHR JUMP JUMPDEST POP PUSH1 0x1 PUSH1 0x6 DUP2 SWAP1 SSTORE POP PUSH2 0x16D CALLER PUSH4 0x5F5E100 PUSH2 0x237 PUSH1 0x20 SHL PUSH1 0x20 SHR JUMP JUMPDEST PUSH2 0x8F3 JUMP JUMPDEST PUSH0 PUSH1 0x5 PUSH1 0x1 SWAP1 SLOAD SWAP1 PUSH2 0x100 EXP SWAP1 DIV PUSH20 0xFFFFFFFFFFFFFFFFFFFFFFFFFFFFFFFFFFFFFFFF AND SWAP1 POP DUP2 PUSH1 0x5 PUSH1 0x1 PUSH2 0x100 EXP DUP2 SLOAD DUP2 PUSH20 0xFFFFFFFFFFFFFFFFFFFFFFFFFFFFFFFFFFFFFFFF MUL NOT AND SWAP1 DUP4 PUSH20 0xFFFFFFFFFFFFFFFFFFFFFFFFFFFFFFFFFFFFFFFF AND MUL OR SWAP1 SSTORE POP DUP2 PUSH20 0xFFFFFFFFFFFFFFFFFFFFFFFFFFFFFFFFFFFFFFFF AND DUP2 PUSH20 0xFFFFFFFFFFFFFFFFFFFFFFFFFFFFFFFFFFFFFFFF AND PUSH32 0x8BE0079C531659141344CD1FD0A4F28419497F9722A3DAAFE3B4186F6B6457E0 PUSH1 0x40 MLOAD PUSH1 0x40 MLOAD DUP1 SWAP2 SUB SWAP1 LOG3 POP POP JUMP JUMPDEST PUSH0 PUSH20 0xFFFFFFFFFFFFFFFFFFFFFFFFFFFFFFFFFFFFFFFF AND DUP3 PUSH20 0xFFFFFFFFFFFFFFFFFFFFFFFFFFFFFFFFFFFFFFFF AND SUB PUSH2 0x2A7 JUMPI PUSH0 PUSH1 0x40 MLOAD PUSH32 0xEC442F0500000000000000000000000000000000000000000000000000000000 DUP2 MSTORE PUSH1 0x4 ADD PUSH2 0x29E SWAP2 SWAP1 PUSH2 0x81D JUMP JUMPDEST PUSH1 0x40 MLOAD DUP1 SWAP2 SUB SWAP1 REVERT JUMPDEST PUSH2 0x2B8 PUSH0 DUP4 DUP4 PUSH2 0x2BC PUSH1 0x20 SHL PUSH1 0x20 SHR JUMP JUMPDEST POP POP JUMP JUMPDEST PUSH0 PUSH20 0xFFFFFFFFFFFFFFFFFFFFFFFFFFFFFFFFFFFFFFFF AND DUP4 PUSH20 0xFFFFFFFFFFFFFFFFFFFFFFFFFFFFFFFFFFFFFFFF AND SUB PUSH2 0x30C JUMPI DUP1 PUSH1 0x2 PUSH0 DUP3 DUP3 SLOAD PUSH2 0x300 SWAP2 SWAP1 PUSH2 0x863 JUMP JUMPDEST SWAP3 POP POP DUP2 SWAP1 SSTORE POP PUSH2 0x3DA JUMP JUMPDEST PUSH0 DUP1 PUSH0 DUP6 PUSH20 0xFFFFFFFFFFFFFFFFFFFFFFFFFFFFFFFFFFFFFFFF AND PUSH20 0xFFFFFFFFFFFFFFFFFFFFFFFFFFFFFFFFFFFFFFFF AND DUP2 MSTORE PUSH1 0x20 ADD SWAP1 DUP2 MSTORE PUSH1 0x20 ADD PUSH0 KECCAK256 SLOAD SWAP1 POP DUP2 DUP2 LT ISZERO PUSH2 0x395 JUMPI DUP4 DUP2 DUP4 PUSH1 0x40 MLOAD PUSH32 0xE450D38C00000000000000000000000000000000000000000000000000000000 DUP2 MSTORE PUSH1 0x4 ADD PUSH2 0x38C SWAP4 SWAP3 SWAP2 SWAP1 PUSH2 0x8A5 JUMP JUMPDEST PUSH1 0x40 MLOAD DUP1 SWAP2 SUB SWAP1 REVERT JUMPDEST DUP2 DUP2 SUB PUSH0 DUP1 DUP7 PUSH20 0xFFFFFFFFFFFFFFFFFFFFFFFFFFFFFFFFFFFFFFFF AND PUSH20 0xFFFFFFFFFFFFFFFFFFFFFFFFFFFFFFFFFFFFFFFF AND DUP2 MSTORE PUSH1 0x20 ADD SWAP1 DUP2 MSTORE PUSH1 0x20 ADD PUSH0 KECCAK256 DUP2 SWAP1 SSTORE POP POP JUMPDEST PUSH0 PUSH20 0xFFFFFFFFFFFFFFFFFFFFFFFFFFFFFFFFFFFFFFFF AND DUP3 PUSH20 0xFFFFFFFFFFFFFFFFFFFFFFFFFFFFFFFFFFFFFFFF AND SUB PUSH2 0x421 JUMPI DUP1 PUSH1 0x2 PUSH0 DUP3 DUP3 SLOAD SUB SWAP3 POP POP DUP2 SWAP1 SSTORE POP PUSH2 0x46B JUMP JUMPDEST DUP1 PUSH0 DUP1 DUP5 PUSH20 0xFFFFFFFFFFFFFFFFFFFFFFFFFFFFFFFFFFFFFFFF AND PUSH20 0xFFFFFFFFFFFFFFFFFFFFFFFFFFFFFFFFFFFFFFFF AND DUP2 MSTORE PUSH1 0x20 ADD SWAP1 DUP2 MSTORE PUSH1 0x20 ADD PUSH0 KECCAK256 PUSH0 DUP3 DUP3 SLOAD ADD SWAP3 POP POP DUP2 SWAP1 SSTORE POP JUMPDEST DUP2 PUSH20 0xFFFFFFFFFFFFFFFFFFFFFFFFFFFFFFFFFFFFFFFF AND DUP4 PUSH20 0xFFFFFFFFFFFFFFFFFFFFFFFFFFFFFFFFFFFFFFFF AND PUSH32 0xDDF252AD1BE2C89B69C2B068FC378DAA952BA7F163C4A11628F55A4DF523B3EF DUP4 PUSH1 0x40 MLOAD PUSH2 0x4C8 SWAP2 SWAP1 PUSH2 0x8DA JUMP JUMPDEST PUSH1 0x40 MLOAD DUP1 SWAP2 SUB SWAP1 LOG3 POP POP POP JUMP JUMPDEST PUSH0 DUP2 MLOAD SWAP1 POP SWAP2 SWAP1 POP JUMP JUMPDEST PUSH32 0x4E487B7100000000000000000000000000000000000000000000000000000000 PUSH0 MSTORE PUSH1 0x41 PUSH1 0x4 MSTORE PUSH1 0x24 PUSH0 REVERT JUMPDEST PUSH32 0x4E487B7100000000000000000000000000000000000000000000000000000000 PUSH0 MSTORE PUSH1 0x22 PUSH1 0x4 MSTORE PUSH1 0x24 PUSH0 REVERT JUMPDEST PUSH0 PUSH1 0x2 DUP3 DIV SWAP1 POP PUSH1 0x1 DUP3 AND DUP1 PUSH2 0x550 JUMPI PUSH1 0x7F DUP3 AND SWAP2 POP JUMPDEST PUSH1 0x20 DUP3 LT DUP2 SUB PUSH2 0x563 JUMPI PUSH2 0x562 PUSH2 0x50C JUMP JUMPDEST JUMPDEST POP SWAP2 SWAP1 POP JUMP JUMPDEST PUSH0 DUP2 SWAP1 POP DUP2 PUSH0 MSTORE PUSH1 0x20 PUSH0 KECCAK256 SWAP1 POP SWAP2 SWAP1 POP JUMP JUMPDEST PUSH0 PUSH1 0x20 PUSH1 0x1F DUP4 ADD DIV SWAP1 POP SWAP2 SWAP1 POP JUMP JUMPDEST PUSH0 DUP3 DUP3 SHL SWAP1 POP SWAP3 SWAP2 POP POP JUMP JUMPDEST PUSH0 PUSH1 0x8 DUP4 MUL PUSH2 0x5C5 PUSH32 0xFFFFFFFFFFFFFFFFFFFFFFFFFFFFFFFFFFFFFFFFFFFFFFFFFFFFFFFFFFFFFFFF DUP3 PUSH2 0x58A JUMP JUMPDEST PUSH2 0x5CF DUP7 DUP4 PUSH2 0x58A JUMP JUMPDEST SWAP6 POP DUP1 NOT DUP5 AND SWAP4 POP DUP1 DUP7 AND DUP5 OR SWAP3 POP POP POP SWAP4 SWAP3 POP POP POP JUMP JUMPDEST PUSH0 DUP2 SWAP1 POP SWAP2 SWAP1 POP JUMP JUMPDEST PUSH0 DUP2 SWAP1 POP SWAP2 SWAP1 POP JUMP JUMPDEST PUSH0 PUSH2 0x613 PUSH2 0x60E PUSH2 0x609 DUP5 PUSH2 0x5E7 JUMP JUMPDEST PUSH2 0x5F0 JUMP JUMPDEST PUSH2 0x5E7 JUMP JUMPDEST SWAP1 POP SWAP2 SWAP1 POP JUMP JUMPDEST PUSH0 DUP2 SWAP1 POP SWAP2 SWAP1 POP JUMP JUMPDEST PUSH2 0x62C DUP4 PUSH2 0x5F9 JUMP JUMPDEST PUSH2 0x640 PUSH2 0x638 DUP3 PUSH2 0x61A JUMP JUMPDEST DUP5 DUP5 SLOAD PUSH2 0x596 JUMP JUMPDEST DUP3 SSTORE POP POP POP POP JUMP JUMPDEST PUSH0 SWAP1 JUMP JUMPDEST PUSH2 0x654 PUSH2 0x648 JUMP JUMPDEST PUSH2 0x65F DUP2 DUP5 DUP5 PUSH2 0x623 JUMP JUMPDEST POP POP POP JUMP JUMPDEST JUMPDEST DUP2 DUP2 LT ISZERO PUSH2 0x682 JUMPI PUSH2 0x677 PUSH0 DUP3 PUSH2 0x64C JUMP JUMPDEST PUSH1 0x1 DUP2 ADD SWAP1 POP PUSH2 0x665 JUMP JUMPDEST POP POP JUMP JUMPDEST PUSH1 0x1F DUP3 GT ISZERO PUSH2 0x6C7 JUMPI PUSH2 0x698 DUP2 PUSH2 0x569 JUMP JUMPDEST PUSH2 0x6A1 DUP5 PUSH2 0x57B JUMP JUMPDEST DUP2 ADD PUSH1 0x20 DUP6 LT ISZERO PUSH2 0x6B0 JUMPI DUP2 SWAP1 POP JUMPDEST PUSH2 0x6C4 PUSH2 0x6BC DUP6 PUSH2 0x57B JUMP JUMPDEST DUP4 ADD DUP3 PUSH2 0x664 JUMP JUMPDEST POP POP JUMPDEST POP POP POP JUMP JUMPDEST PUSH0 DUP3 DUP3 SHR SWAP1 POP SWAP3 SWAP2 POP POP JUMP JUMPDEST PUSH0 PUSH2 0x6E7 PUSH0 NOT DUP5 PUSH1 0x8 MUL PUSH2 0x6CC JUMP JUMPDEST NOT DUP1 DUP4 AND SWAP2 POP POP SWAP3 SWAP2 POP POP JUMP JUMPDEST PUSH0 PUSH2 0x6FF DUP4 DUP4 PUSH2 0x6D8 JUMP JUMPDEST SWAP2 POP DUP3 PUSH1 0x2 MUL DUP3 OR SWAP1 POP SWAP3 SWAP2 POP POP JUMP JUMPDEST PUSH2 0x718 DUP3 PUSH2 0x4D5 JUMP JUMPDEST PUSH8 0xFFFFFFFFFFFFFFFF DUP2 GT ISZERO PUSH2 0x731 JUMPI PUSH2 0x730 PUSH2 0x4DF JUMP JUMPDEST JUMPDEST PUSH2 0x73B DUP3 SLOAD PUSH2 0x539 JUMP JUMPDEST PUSH2 0x746 DUP3 DUP3 DUP6 PUSH2 0x686 JUMP JUMPDEST PUSH0 PUSH1 0x20 SWAP1 POP PUSH1 0x1F DUP4 GT PUSH1 0x1 DUP2 EQ PUSH2 0x777 JUMPI PUSH0 DUP5 ISZERO PUSH2 0x765 JUMPI DUP3 DUP8 ADD MLOAD SWAP1 POP JUMPDEST PUSH2 0x76F DUP6 DUP3 PUSH2 0x6F4 JUMP JUMPDEST DUP7 SSTORE POP PUSH2 0x7D6 JUMP JUMPDEST PUSH1 0x1F NOT DUP5 AND PUSH2 0x785 DUP7 PUSH2 0x569 JUMP JUMPDEST PUSH0 JUMPDEST DUP3 DUP2 LT ISZERO PUSH2 0x7AC JUMPI DUP5 DUP10 ADD MLOAD DUP3 SSTORE PUSH1 0x1 DUP3 ADD SWAP2 POP PUSH1 0x20 DUP6 ADD SWAP5 POP PUSH1 0x20 DUP2 ADD SWAP1 POP PUSH2 0x787 JUMP JUMPDEST DUP7 DUP4 LT ISZERO PUSH2 0x7C9 JUMPI DUP5 DUP10 ADD MLOAD PUSH2 0x7C5 PUSH1 0x1F DUP10 AND DUP3 PUSH2 0x6D8 JUMP JUMPDEST DUP4 SSTORE POP JUMPDEST PUSH1 0x1 PUSH1 0x2 DUP9 MUL ADD DUP9 SSTORE POP POP POP JUMPDEST POP POP POP POP POP POP JUMP JUMPDEST PUSH0 PUSH20 0xFFFFFFFFFFFFFFFFFFFFFFFFFFFFFFFFFFFFFFFF DUP3 AND SWAP1 POP SWAP2 SWAP1 POP JUMP JUMPDEST PUSH0 PUSH2 0x807 DUP3 PUSH2 0x7DE JUMP JUMPDEST SWAP1 POP SWAP2 SWAP1 POP JUMP JUMPDEST PUSH2 0x817 DUP2 PUSH2 0x7FD JUMP JUMPDEST DUP3 MSTORE POP POP JUMP JUMPDEST PUSH0 PUSH1 0x20 DUP3 ADD SWAP1 POP PUSH2 0x830 PUSH0 DUP4 ADD DUP5 PUSH2 0x80E JUMP JUMPDEST SWAP3 SWAP2 POP POP JUMP JUMPDEST PUSH32 0x4E487B7100000000000000000000000000000000000000000000000000000000 PUSH0 MSTORE PUSH1 0x11 PUSH1 0x4 MSTORE PUSH1 0x24 PUSH0 REVERT JUMPDEST PUSH0 PUSH2 0x86D DUP3 PUSH2 0x5E7 JUMP JUMPDEST SWAP2 POP PUSH2 0x878 DUP4 PUSH2 0x5E7 JUMP JUMPDEST SWAP3 POP DUP3 DUP3 ADD SWAP1 POP DUP1 DUP3 GT ISZERO PUSH2 0x890 JUMPI PUSH2 0x88F PUSH2 0x836 JUMP JUMPDEST JUMPDEST SWAP3 SWAP2 POP POP JUMP JUMPDEST PUSH2 0x89F DUP2 PUSH2 0x5E7 JUMP JUMPDEST DUP3 MSTORE POP POP JUMP JUMPDEST PUSH0 PUSH1 0x60 DUP3 ADD SWAP1 POP PUSH2 0x8B8 PUSH0 DUP4 ADD DUP7 PUSH2 0x80E JUMP JUMPDEST PUSH2 0x8C5 PUSH1 0x20 DUP4 ADD DUP6 PUSH2 0x896 JUMP JUMPDEST PUSH2 0x8D2 PUSH1 0x40 DUP4 ADD DUP5 PUSH2 0x896 JUMP JUMPDEST SWAP5 SWAP4 POP POP POP POP JUMP JUMPDEST PUSH0 PUSH1 0x20 DUP3 ADD SWAP1 POP PUSH2 0x8ED PUSH0 DUP4 ADD DUP5 PUSH2 0x896 JUMP JUMPDEST SWAP3 SWAP2 POP POP JUMP JUMPDEST PUSH2 0x21EF DUP1 PUSH2 0x900 PUSH0 CODECOPY PUSH0 RETURN INVALID PUSH1 0x80 PUSH1 0x40 MSTORE CALLVALUE DUP1 ISZERO PUSH2 0xF JUMPI PUSH0 DUP1 REVERT JUMPDEST POP PUSH1 0x4 CALLDATASIZE LT PUSH2 0x18C JUMPI PUSH0 CALLDATALOAD PUSH1 0xE0 SHR DUP1 PUSH4 0x70A08231 GT PUSH2 0xDC JUMPI DUP1 PUSH4 0xA64254C3 GT PUSH2 0x95 JUMPI DUP1 PUSH4 0xC8052107 GT PUSH2 0x6F JUMPI DUP1 PUSH4 0xC8052107 EQ PUSH2 0x3FE JUMPI DUP1 PUSH4 0xD82E3962 EQ PUSH2 0x41A JUMPI DUP1 PUSH4 0xDD62ED3E EQ PUSH2 0x44A JUMPI DUP1 PUSH4 0xF2FDE38B EQ PUSH2 0x47A JUMPI PUSH2 0x18C JUMP JUMPDEST DUP1 PUSH4 0xA64254C3 EQ PUSH2 0x3A8 JUMPI DUP1 PUSH4 0xA9059CBB EQ PUSH2 0x3B2 JUMPI DUP1 PUSH4 0xAFE8289A EQ PUSH2 0x3E2 JUMPI PUSH2 0x18C JUMP JUMPDEST DUP1 PUSH4 0x70A08231 EQ PUSH2 0x30C JUMPI DUP1 PUSH4 0x715018A6 EQ PUSH2 0x33C JUMPI DUP1 PUSH4 0x79CC6790 EQ PUSH2 0x346 JUMPI DUP1 PUSH4 0x8456CB59 EQ PUSH2 0x362 JUMPI DUP1 PUSH4 0x8DA5CB5B EQ PUSH2 0x36C JUMPI DUP1 PUSH4 0x95D89B41 EQ PUSH2 0x38A JUMPI PUSH2 0x18C JUMP JUMPDEST DUP1 PUSH4 0x2FF2E9DC GT PUSH2 0x149 JUMPI DUP1 PUSH4 0x3F4BA83A GT PUSH2 0x123 JUMPI DUP1 PUSH4 0x3F4BA83A EQ PUSH2 0x2AC JUMPI DUP1 PUSH4 0x42966C68 EQ PUSH2 0x2B6 JUMPI DUP1 PUSH4 0x51C6590A EQ PUSH2 0x2D2 JUMPI DUP1 PUSH4 0x5C975ABB EQ PUSH2 0x2EE JUMPI PUSH2 0x18C JUMP JUMPDEST DUP1 PUSH4 0x2FF2E9DC EQ PUSH2 0x252 JUMPI DUP1 PUSH4 0x313CE567 EQ PUSH2 0x270 JUMPI DUP1 PUSH4 0x32CB6B0C EQ PUSH2 0x28E JUMPI PUSH2 0x18C JUMP JUMPDEST DUP1 PUSH4 0x6FDDE03 EQ PUSH2 0x190 JUMPI DUP1 PUSH4 0x95EA7B3 EQ PUSH2 0x1AE JUMPI DUP1 PUSH4 0x18160DDD EQ PUSH2 0x1DE JUMPI DUP1 PUSH4 0x21208FA2 EQ PUSH2 0x1FC JUMPI DUP1 PUSH4 0x2254B79C EQ PUSH2 0x206 JUMPI DUP1 PUSH4 0x23B872DD EQ PUSH2 0x222 JUMPI JUMPDEST PUSH0 DUP1 REVERT JUMPDEST PUSH2 0x198 PUSH2 0x496 JUMP JUMPDEST PUSH1 0x40 MLOAD PUSH2 0x1A5 SWAP2 SWAP1 PUSH2 0x19E0 JUMP JUMPDEST PUSH1 0x40 MLOAD DUP1 SWAP2 SUB SWAP1 RETURN JUMPDEST PUSH2 0x1C8 PUSH1 0x4 DUP1 CALLDATASIZE SUB DUP2 ADD SWAP1 PUSH2 0x1C3 SWAP2 SWAP1 PUSH2 0x1A91 JUMP JUMPDEST PUSH2 0x526 JUMP JUMPDEST PUSH1 0x40 MLOAD PUSH2 0x1D5 SWAP2 SWAP1 PUSH2 0x1AE9 JUMP JUMPDEST PUSH1 0x40 MLOAD DUP1 SWAP2 SUB SWAP1 RETURN JUMPDEST PUSH2 0x1E6 PUSH2 0x548 JUMP JUMPDEST PUSH1 0x40 MLOAD PUSH2 0x1F3 SWAP2 SWAP1 PUSH2 0x1B11 JUMP JUMPDEST PUSH1 0x40 MLOAD DUP1 SWAP2 SUB SWAP1 RETURN JUMPDEST PUSH2 0x204 PUSH2 0x551 JUMP JUMPDEST STOP JUMPDEST PUSH2 0x220 PUSH1 0x4 DUP1 CALLDATASIZE SUB DUP2 ADD SWAP1 PUSH2 0x21B SWAP2 SWAP1 PUSH2 0x1B2A JUMP JUMPDEST PUSH2 0x574 JUMP JUMPDEST STOP JUMPDEST PUSH2 0x23C PUSH1 0x4 DUP1 CALLDATASIZE SUB DUP2 ADD SWAP1 PUSH2 0x237 SWAP2 SWAP1 PUSH2 0x1B55 JUMP JUMPDEST PUSH2 0x717 JUMP JUMPDEST PUSH1 0x40 MLOAD PUSH2 0x249 SWAP2 SWAP1 PUSH2 0x1AE9 JUMP JUMPDEST PUSH1 0x40 MLOAD DUP1 SWAP2 SUB SWAP1 RETURN JUMPDEST PUSH2 0x25A PUSH2 0x745 JUMP JUMPDEST PUSH1 0x40 MLOAD PUSH2 0x267 SWAP2 SWAP1 PUSH2 0x1B11 JUMP JUMPDEST PUSH1 0x40 MLOAD DUP1 SWAP2 SUB SWAP1 RETURN JUMPDEST PUSH2 0x278 PUSH2 0x74D JUMP JUMPDEST PUSH1 0x40 MLOAD PUSH2 0x285 SWAP2 SWAP1 PUSH2 0x1BC0 JUMP JUMPDEST PUSH1 0x40 MLOAD DUP1 SWAP2 SUB SWAP1 RETURN JUMPDEST PUSH2 0x296 PUSH2 0x751 JUMP JUMPDEST PUSH1 0x40 MLOAD PUSH2 0x2A3 SWAP2 SWAP1 PUSH2 0x1B11 JUMP JUMPDEST PUSH1 0x40 MLOAD DUP1 SWAP2 SUB SWAP1 RETURN JUMPDEST PUSH2 0x2B4 PUSH2 0x75A JUMP JUMPDEST STOP JUMPDEST PUSH2 0x2D0 PUSH1 0x4 DUP1 CALLDATASIZE SUB DUP2 ADD SWAP1 PUSH2 0x2CB SWAP2 SWAP1 PUSH2 0x1B2A JUMP JUMPDEST PUSH2 0x76C JUMP JUMPDEST STOP JUMPDEST PUSH2 0x2EC PUSH1 0x4 DUP1 CALLDATASIZE SUB DUP2 ADD SWAP1 PUSH2 0x2E7 SWAP2 SWAP1 PUSH2 0x1B2A JUMP JUMPDEST PUSH2 0x780 JUMP JUMPDEST STOP JUMPDEST PUSH2 0x2F6 PUSH2 0x823 JUMP JUMPDEST PUSH1 0x40 MLOAD PUSH2 0x303 SWAP2 SWAP1 PUSH2 0x1AE9 JUMP JUMPDEST PUSH1 0x40 MLOAD DUP1 SWAP2 SUB SWAP1 RETURN JUMPDEST PUSH2 0x326 PUSH1 0x4 DUP1 CALLDATASIZE SUB DUP2 ADD SWAP1 PUSH2 0x321 SWAP2 SWAP1 PUSH2 0x1BD9 JUMP JUMPDEST PUSH2 0x838 JUMP JUMPDEST PUSH1 0x40 MLOAD PUSH2 0x333 SWAP2 SWAP1 PUSH2 0x1B11 JUMP JUMPDEST PUSH1 0x40 MLOAD DUP1 SWAP2 SUB SWAP1 RETURN JUMPDEST PUSH2 0x344 PUSH2 0x87D JUMP JUMPDEST STOP JUMPDEST PUSH2 0x360 PUSH1 0x4 DUP1 CALLDATASIZE SUB DUP2 ADD SWAP1 PUSH2 0x35B SWAP2 SWAP1 PUSH2 0x1A91 JUMP JUMPDEST PUSH2 0x890 JUMP JUMPDEST STOP JUMPDEST PUSH2 0x36A PUSH2 0x8B0 JUMP JUMPDEST STOP JUMPDEST PUSH2 0x374 PUSH2 0x8C2 JUMP JUMPDEST PUSH1 0x40 MLOAD PUSH2 0x381 SWAP2 SWAP1 PUSH2 0x1C13 JUMP JUMPDEST PUSH1 0x40 MLOAD DUP1 SWAP2 SUB SWAP1 RETURN JUMPDEST PUSH2 0x392 PUSH2 0x8EB JUMP JUMPDEST PUSH1 0x40 MLOAD PUSH2 0x39F SWAP2 SWAP1 PUSH2 0x19E0 JUMP JUMPDEST PUSH1 0x40 MLOAD DUP1 SWAP2 SUB SWAP1 RETURN JUMPDEST PUSH2 0x3B0 PUSH2 0x97B JUMP JUMPDEST STOP JUMPDEST PUSH2 0x3CC PUSH1 0x4 DUP1 CALLDATASIZE SUB DUP2 ADD SWAP1 PUSH2 0x3C7 SWAP2 SWAP1 PUSH2 0x1A91 JUMP JUMPDEST PUSH2 0x99F JUMP JUMPDEST PUSH1 0x40 MLOAD PUSH2 0x3D9 SWAP2 SWAP1 PUSH2 0x1AE9 JUMP JUMPDEST PUSH1 0x40 MLOAD DUP1 SWAP2 SUB SWAP1 RETURN JUMPDEST PUSH2 0x3FC PUSH1 0x4 DUP1 CALLDATASIZE SUB DUP2 ADD SWAP1 PUSH2 0x3F7 SWAP2 SWAP1 PUSH2 0x1B2A JUMP JUMPDEST PUSH2 0x9C1 JUMP JUMPDEST STOP JUMPDEST PUSH2 0x418 PUSH1 0x4 DUP1 CALLDATASIZE SUB DUP2 ADD SWAP1 PUSH2 0x413 SWAP2 SWAP1 PUSH2 0x1B2A JUMP JUMPDEST PUSH2 0xA79 JUMP JUMPDEST STOP JUMPDEST PUSH2 0x434 PUSH1 0x4 DUP1 CALLDATASIZE SUB DUP2 ADD SWAP1 PUSH2 0x42F SWAP2 SWAP1 PUSH2 0x1BD9 JUMP JUMPDEST PUSH2 0xD37 JUMP JUMPDEST PUSH1 0x40 MLOAD PUSH2 0x441 SWAP2 SWAP1 PUSH2 0x1B11 JUMP JUMPDEST PUSH1 0x40 MLOAD DUP1 SWAP2 SUB SWAP1 RETURN JUMPDEST PUSH2 0x464 PUSH1 0x4 DUP1 CALLDATASIZE SUB DUP2 ADD SWAP1 PUSH2 0x45F SWAP2 SWAP1 PUSH2 0x1C2C JUMP JUMPDEST PUSH2 0xE15 JUMP JUMPDEST PUSH1 0x40 MLOAD PUSH2 0x471 SWAP2 SWAP1 PUSH2 0x1B11 JUMP JUMPDEST PUSH1 0x40 MLOAD DUP1 SWAP2 SUB SWAP1 RETURN JUMPDEST PUSH2 0x494 PUSH1 0x4 DUP1 CALLDATASIZE SUB DUP2 ADD SWAP1 PUSH2 0x48F SWAP2 SWAP1 PUSH2 0x1BD9 JUMP JUMPDEST PUSH2 0xE97 JUMP JUMPDEST STOP JUMPDEST PUSH1 0x60 PUSH1 0x3 DUP1 SLOAD PUSH2 0x4A5 SWAP1 PUSH2 0x1C97 JUMP JUMPDEST DUP1 PUSH1 0x1F ADD PUSH1 0x20 DUP1 SWAP2 DIV MUL PUSH1 0x20 ADD PUSH1 0x40 MLOAD SWAP1 DUP2 ADD PUSH1 0x40 MSTORE DUP1 SWAP3 SWAP2 SWAP1 DUP2 DUP2 MSTORE PUSH1 0x20 ADD DUP3 DUP1 SLOAD PUSH2 0x4D1 SWAP1 PUSH2 0x1C97 JUMP JUMPDEST DUP1 ISZERO PUSH2 0x51C JUMPI DUP1 PUSH1 0x1F LT PUSH2 0x4F3 JUMPI PUSH2 0x100 DUP1 DUP4 SLOAD DIV MUL DUP4 MSTORE SWAP2 PUSH1 0x20 ADD SWAP2 PUSH2 0x51C JUMP JUMPDEST DUP3 ADD SWAP2 SWAP1 PUSH0 MSTORE PUSH1 0x20 PUSH0 KECCAK256 SWAP1 JUMPDEST DUP2 SLOAD DUP2 MSTORE SWAP1 PUSH1 0x1 ADD SWAP1 PUSH1 0x20 ADD DUP1 DUP4 GT PUSH2 0x4FF JUMPI DUP3 SWAP1 SUB PUSH1 0x1F AND DUP3 ADD SWAP2 JUMPDEST POP POP POP POP POP SWAP1 POP SWAP1 JUMP JUMPDEST PUSH0 DUP1 PUSH2 0x530 PUSH2 0xF1B JUMP JUMPDEST SWAP1 POP PUSH2 0x53D DUP2 DUP6 DUP6 PUSH2 0xF22 JUMP JUMPDEST PUSH1 0x1 SWAP2 POP POP SWAP3 SWAP2 POP POP JUMP JUMPDEST PUSH0 PUSH1 0x2 SLOAD SWAP1 POP SWAP1 JUMP JUMPDEST PUSH2 0x559 PUSH2 0xF34 JUMP JUMPDEST PUSH0 PUSH1 0x9 PUSH0 PUSH2 0x100 EXP DUP2 SLOAD DUP2 PUSH1 0xFF MUL NOT AND SWAP1 DUP4 ISZERO ISZERO MUL OR SWAP1 SSTORE POP JUMP JUMPDEST PUSH2 0x57C PUSH2 0xF34 JUMP JUMPDEST PUSH2 0x584 PUSH2 0xFBB JUMP JUMPDEST PUSH1 0x7 PUSH0 PUSH2 0x58F PUSH2 0x8C2 JUMP JUMPDEST PUSH20 0xFFFFFFFFFFFFFFFFFFFFFFFFFFFFFFFFFFFFFFFF AND PUSH20 0xFFFFFFFFFFFFFFFFFFFFFFFFFFFFFFFFFFFFFFFF AND DUP2 MSTORE PUSH1 0x20 ADD SWAP1 DUP2 MSTORE PUSH1 0x20 ADD PUSH0 KECCAK256 SLOAD DUP2 GT ISZERO PUSH2 0x60B JUMPI PUSH1 0x40 MLOAD PUSH32 0x8C379A000000000000000000000000000000000000000000000000000000000 DUP2 MSTORE PUSH1 0x4 ADD PUSH2 0x602 SWAP1 PUSH2 0x1D11 JUMP JUMPDEST PUSH1 0x40 MLOAD DUP1 SWAP2 SUB SWAP1 REVERT JUMPDEST DUP1 PUSH1 0x7 PUSH0 PUSH2 0x617 PUSH2 0x8C2 JUMP JUMPDEST PUSH20 0xFFFFFFFFFFFFFFFFFFFFFFFFFFFFFFFFFFFFFFFF AND PUSH20 0xFFFFFFFFFFFFFFFFFFFFFFFFFFFFFFFFFFFFFFFF AND DUP2 MSTORE PUSH1 0x20 ADD SWAP1 DUP2 MSTORE PUSH1 0x20 ADD PUSH0 KECCAK256 PUSH0 DUP3 DUP3 SLOAD PUSH2 0x65E SWAP2 SWAP1 PUSH2 0x1D5C JUMP JUMPDEST SWAP3 POP POP DUP2 SWAP1 SSTORE POP PUSH0 PUSH1 0x7 PUSH0 PUSH2 0x671 PUSH2 0x8C2 JUMP JUMPDEST PUSH20 0xFFFFFFFFFFFFFFFFFFFFFFFFFFFFFFFFFFFFFFFF AND PUSH20 0xFFFFFFFFFFFFFFFFFFFFFFFFFFFFFFFFFFFFFFFF AND DUP2 MSTORE PUSH1 0x20 ADD SWAP1 DUP2 MSTORE PUSH1 0x20 ADD PUSH0 KECCAK256 SLOAD SUB PUSH2 0x6FA JUMPI PUSH0 PUSH1 0x8 PUSH0 PUSH2 0x6BC PUSH2 0x8C2 JUMP JUMPDEST PUSH20 0xFFFFFFFFFFFFFFFFFFFFFFFFFFFFFFFFFFFFFFFF AND PUSH20 0xFFFFFFFFFFFFFFFFFFFFFFFFFFFFFFFFFFFFFFFF AND DUP2 MSTORE PUSH1 0x20 ADD SWAP1 DUP2 MSTORE PUSH1 0x20 ADD PUSH0 KECCAK256 DUP2 SWAP1 SSTORE POP JUMPDEST PUSH2 0x70C ADDRESS PUSH2 0x706 PUSH2 0x8C2 JUMP JUMPDEST DUP4 PUSH2 0x100A JUMP JUMPDEST PUSH2 0x714 PUSH2 0x10E3 JUMP JUMPDEST POP JUMP JUMPDEST PUSH0 DUP1 PUSH2 0x721 PUSH2 0xF1B JUMP JUMPDEST SWAP1 POP PUSH2 0x72E DUP6 DUP3 DUP6 PUSH2 0x10ED JUMP JUMPDEST PUSH2 0x739 DUP6 DUP6 DUP6 PUSH2 0x100A JUMP JUMPDEST PUSH1 0x1 SWAP2 POP POP SWAP4 SWAP3 POP POP POP JUMP JUMPDEST PUSH4 0x5F5E100 DUP2 JUMP JUMPDEST PUSH0 SWAP1 JUMP JUMPDEST PUSH5 0x12A05F200 DUP2 JUMP JUMPDEST PUSH2 0x762 PUSH2 0xF34 JUMP JUMPDEST PUSH2 0x76A PUSH2 0x117F JUMP JUMPDEST JUMP JUMPDEST PUSH2 0x77D PUSH2 0x777 PUSH2 0xF1B JUMP JUMPDEST DUP3 PUSH2 0x11E0 JUMP JUMPDEST POP JUMP JUMPDEST PUSH2 0x78B CALLER ADDRESS DUP4 PUSH2 0x100A JUMP JUMPDEST DUP1 PUSH1 0x7 PUSH0 CALLER PUSH20 0xFFFFFFFFFFFFFFFFFFFFFFFFFFFFFFFFFFFFFFFF AND PUSH20 0xFFFFFFFFFFFFFFFFFFFFFFFFFFFFFFFFFFFFFFFF AND DUP2 MSTORE PUSH1 0x20 ADD SWAP1 DUP2 MSTORE PUSH1 0x20 ADD PUSH0 KECCAK256 PUSH0 DUP3 DUP3 SLOAD PUSH2 0x7D7 SWAP2 SWAP1 PUSH2 0x1D8F JUMP JUMPDEST SWAP3 POP POP DUP2 SWAP1 SSTORE POP TIMESTAMP PUSH1 0x8 PUSH0 CALLER PUSH20 0xFFFFFFFFFFFFFFFFFFFFFFFFFFFFFFFFFFFFFFFF AND PUSH20 0xFFFFFFFFFFFFFFFFFFFFFFFFFFFFFFFFFFFFFFFF AND DUP2 MSTORE PUSH1 0x20 ADD SWAP1 DUP2 MSTORE PUSH1 0x20 ADD PUSH0 KECCAK256 DUP2 SWAP1 SSTORE POP POP JUMP JUMPDEST PUSH0 PUSH1 0x5 PUSH0 SWAP1 SLOAD SWAP1 PUSH2 0x100 EXP SWAP1 DIV PUSH1 0xFF AND SWAP1 POP SWAP1 JUMP JUMPDEST PUSH0 DUP1 PUSH0 DUP4 PUSH20 0xFFFFFFFFFFFFFFFFFFFFFFFFFFFFFFFFFFFFFFFF AND PUSH20 0xFFFFFFFFFFFFFFFFFFFFFFFFFFFFFFFFFFFFFFFF AND DUP2 MSTORE PUSH1 0x20 ADD SWAP1 DUP2 MSTORE PUSH1 0x20 ADD PUSH0 KECCAK256 SLOAD SWAP1 POP SWAP2 SWAP1 POP JUMP JUMPDEST PUSH2 0x885 PUSH2 0xF34 JUMP JUMPDEST PUSH2 0x88E PUSH0 PUSH2 0x125F JUMP JUMPDEST JUMP JUMPDEST PUSH2 0x8A2 DUP3 PUSH2 0x89C PUSH2 0xF1B JUMP JUMPDEST DUP4 PUSH2 0x10ED JUMP JUMPDEST PUSH2 0x8AC DUP3 DUP3 PUSH2 0x11E0 JUMP JUMPDEST POP POP JUMP JUMPDEST PUSH2 0x8B8 PUSH2 0xF34 JUMP JUMPDEST PUSH2 0x8C0 PUSH2 0x1324 JUMP JUMPDEST JUMP JUMPDEST PUSH0 PUSH1 0x5 PUSH1 0x1 SWAP1 SLOAD SWAP1 PUSH2 0x100 EXP SWAP1 DIV PUSH20 0xFFFFFFFFFFFFFFFFFFFFFFFFFFFFFFFFFFFFFFFF AND SWAP1 POP SWAP1 JUMP JUMPDEST PUSH1 0x60 PUSH1 0x4 DUP1 SLOAD PUSH2 0x8FA SWAP1 PUSH2 0x1C97 JUMP JUMPDEST DUP1 PUSH1 0x1F ADD PUSH1 0x20 DUP1 SWAP2 DIV MUL PUSH1 0x20 ADD PUSH1 0x40 MLOAD SWAP1 DUP2 ADD PUSH1 0x40 MSTORE DUP1 SWAP3 SWAP2 SWAP1 DUP2 DUP2 MSTORE PUSH1 0x20 ADD DUP3 DUP1 SLOAD PUSH2 0x926 SWAP1 PUSH2 0x1C97 JUMP JUMPDEST DUP1 ISZERO PUSH2 0x971 JUMPI DUP1 PUSH1 0x1F LT PUSH2 0x948 JUMPI PUSH2 0x100 DUP1 DUP4 SLOAD DIV MUL DUP4 MSTORE SWAP2 PUSH1 0x20 ADD SWAP2 PUSH2 0x971 JUMP JUMPDEST DUP3 ADD SWAP2 SWAP1 PUSH0 MSTORE PUSH1 0x20 PUSH0 KECCAK256 SWAP1 JUMPDEST DUP2 SLOAD DUP2 MSTORE SWAP1 PUSH1 0x1 ADD SWAP1 PUSH1 0x20 ADD DUP1 DUP4 GT PUSH2 0x954 JUMPI DUP3 SWAP1 SUB PUSH1 0x1F AND DUP3 ADD SWAP2 JUMPDEST POP POP POP POP POP SWAP1 POP SWAP1 JUMP JUMPDEST PUSH2 0x983 PUSH2 0xF34 JUMP JUMPDEST PUSH1 0x1 PUSH1 0x9 PUSH0 PUSH2 0x100 EXP DUP2 SLOAD DUP2 PUSH1 0xFF MUL NOT AND SWAP1 DUP4 ISZERO ISZERO MUL OR SWAP1 SSTORE POP JUMP JUMPDEST PUSH0 DUP1 PUSH2 0x9A9 PUSH2 0xF1B JUMP JUMPDEST SWAP1 POP PUSH2 0x9B6 DUP2 DUP6 DUP6 PUSH2 0x100A JUMP JUMPDEST PUSH1 0x1 SWAP2 POP POP SWAP3 SWAP2 POP POP JUMP JUMPDEST PUSH2 0x9C9 PUSH2 0xF34 JUMP JUMPDEST DUP1 PUSH1 0x7 PUSH0 PUSH2 0x9D5 PUSH2 0x8C2 JUMP JUMPDEST PUSH20 0xFFFFFFFFFFFFFFFFFFFFFFFFFFFFFFFFFFFFFFFF AND PUSH20 0xFFFFFFFFFFFFFFFFFFFFFFFFFFFFFFFFFFFFFFFF AND DUP2 MSTORE PUSH1 0x20 ADD SWAP1 DUP2 MSTORE PUSH1 0x20 ADD PUSH0 KECCAK256 PUSH0 DUP3 DUP3 SLOAD PUSH2 0xA1C SWAP2 SWAP1 PUSH2 0x1D8F JUMP JUMPDEST SWAP3 POP POP DUP2 SWAP1 SSTORE POP TIMESTAMP PUSH1 0x8 PUSH0 PUSH2 0xA2F PUSH2 0x8C2 JUMP JUMPDEST PUSH20 0xFFFFFFFFFFFFFFFFFFFFFFFFFFFFFFFFFFFFFFFF AND PUSH20 0xFFFFFFFFFFFFFFFFFFFFFFFFFFFFFFFFFFFFFFFF AND DUP2 MSTORE PUSH1 0x20 ADD SWAP1 DUP2 MSTORE PUSH1 0x20 ADD PUSH0 KECCAK256 DUP2 SWAP1 SSTORE POP PUSH2 0xA76 ADDRESS DUP3 PUSH2 0x1386 JUMP JUMPDEST POP JUMP JUMPDEST PUSH2 0xA81 PUSH2 0xFBB JUMP JUMPDEST PUSH1 0x7 PUSH0 CALLER PUSH20 0xFFFFFFFFFFFFFFFFFFFFFFFFFFFFFFFFFFFFFFFF AND PUSH20 0xFFFFFFFFFFFFFFFFFFFFFFFFFFFFFFFFFFFFFFFF AND DUP2 MSTORE PUSH1 0x20 ADD SWAP1 DUP2 MSTORE PUSH1 0x20 ADD PUSH0 KECCAK256 SLOAD DUP2 GT ISZERO PUSH2 0xB01 JUMPI PUSH1 0x40 MLOAD PUSH32 0x8C379A000000000000000000000000000000000000000000000000000000000 DUP2 MSTORE PUSH1 0x4 ADD PUSH2 0xAF8 SWAP1 PUSH2 0x1D11 JUMP JUMPDEST PUSH1 0x40 MLOAD DUP1 SWAP2 SUB SWAP1 REVERT JUMPDEST PUSH3 0x278D00 PUSH1 0x8 PUSH0 CALLER PUSH20 0xFFFFFFFFFFFFFFFFFFFFFFFFFFFFFFFFFFFFFFFF AND PUSH20 0xFFFFFFFFFFFFFFFFFFFFFFFFFFFFFFFFFFFFFFFF AND DUP2 MSTORE PUSH1 0x20 ADD SWAP1 DUP2 MSTORE PUSH1 0x20 ADD PUSH0 KECCAK256 SLOAD PUSH2 0xB4D SWAP2 SWAP1 PUSH2 0x1D8F JUMP JUMPDEST TIMESTAMP LT ISZERO PUSH2 0xB8F JUMPI PUSH1 0x40 MLOAD PUSH32 0x8C379A000000000000000000000000000000000000000000000000000000000 DUP2 MSTORE PUSH1 0x4 ADD PUSH2 0xB86 SWAP1 PUSH2 0x1E58 JUMP JUMPDEST PUSH1 0x40 MLOAD DUP1 SWAP2 SUB SWAP1 REVERT JUMPDEST PUSH0 PUSH2 0xB99 CALLER PUSH2 0xD37 JUMP JUMPDEST SWAP1 POP PUSH5 0x12A05F200 DUP2 PUSH2 0xBAA PUSH2 0x548 JUMP JUMPDEST PUSH2 0xBB4 SWAP2 SWAP1 PUSH2 0x1D8F JUMP JUMPDEST GT ISZERO PUSH2 0xBF5 JUMPI PUSH1 0x40 MLOAD PUSH32 0x8C379A000000000000000000000000000000000000000000000000000000000 DUP2 MSTORE PUSH1 0x4 ADD PUSH2 0xBEC SWAP1 PUSH2 0x1EC0 JUMP JUMPDEST PUSH1 0x40 MLOAD DUP1 SWAP2 SUB SWAP1 REVERT JUMPDEST PUSH2 0xBFF CALLER DUP3 PUSH2 0x1386 JUMP JUMPDEST PUSH2 0xC0A ADDRESS CALLER DUP5 PUSH2 0x100A JUMP JUMPDEST DUP2 PUSH1 0x7 PUSH0 CALLER PUSH20 0xFFFFFFFFFFFFFFFFFFFFFFFFFFFFFFFFFFFFFFFF AND PUSH20 0xFFFFFFFFFFFFFFFFFFFFFFFFFFFFFFFFFFFFFFFF AND DUP2 MSTORE PUSH1 0x20 ADD SWAP1 DUP2 MSTORE PUSH1 0x20 ADD PUSH0 KECCAK256 PUSH0 DUP3 DUP3 SLOAD PUSH2 0xC56 SWAP2 SWAP1 PUSH2 0x1D5C JUMP JUMPDEST SWAP3 POP POP DUP2 SWAP1 SSTORE POP PUSH0 PUSH1 0x7 PUSH0 CALLER PUSH20 0xFFFFFFFFFFFFFFFFFFFFFFFFFFFFFFFFFFFFFFFF AND PUSH20 0xFFFFFFFFFFFFFFFFFFFFFFFFFFFFFFFFFFFFFFFF AND DUP2 MSTORE PUSH1 0x20 ADD SWAP1 DUP2 MSTORE PUSH1 0x20 ADD PUSH0 KECCAK256 SLOAD SUB PUSH2 0xCE8 JUMPI PUSH0 PUSH1 0x8 PUSH0 CALLER PUSH20 0xFFFFFFFFFFFFFFFFFFFFFFFFFFFFFFFFFFFFFFFF AND PUSH20 0xFFFFFFFFFFFFFFFFFFFFFFFFFFFFFFFFFFFFFFFF AND DUP2 MSTORE PUSH1 0x20 ADD SWAP1 DUP2 MSTORE PUSH1 0x20 ADD PUSH0 KECCAK256 DUP2 SWAP1 SSTORE POP PUSH2 0xD2B JUMP JUMPDEST TIMESTAMP PUSH1 0x8 PUSH0 CALLER PUSH20 0xFFFFFFFFFFFFFFFFFFFFFFFFFFFFFFFFFFFFFFFF AND PUSH20 0xFFFFFFFFFFFFFFFFFFFFFFFFFFFFFFFFFFFFFFFF AND DUP2 MSTORE PUSH1 0x20 ADD SWAP1 DUP2 MSTORE PUSH1 0x20 ADD PUSH0 KECCAK256 DUP2 SWAP1 SSTORE POP JUMPDEST POP PUSH2 0xD34 PUSH2 0x10E3 JUMP JUMPDEST POP JUMP JUMPDEST PUSH0 PUSH3 0x278D00 PUSH1 0x8 PUSH0 DUP5 PUSH20 0xFFFFFFFFFFFFFFFFFFFFFFFFFFFFFFFFFFFFFFFF AND PUSH20 0xFFFFFFFFFFFFFFFFFFFFFFFFFFFFFFFFFFFFFFFF AND DUP2 MSTORE PUSH1 0x20 ADD SWAP1 DUP2 MSTORE PUSH1 0x20 ADD PUSH0 KECCAK256 SLOAD PUSH2 0xD84 SWAP2 SWAP1 PUSH2 0x1D8F JUMP JUMPDEST TIMESTAMP LT PUSH2 0xE0C JUMPI PUSH0 PUSH1 0x64 PUSH1 0x5 PUSH1 0x7 PUSH0 DUP7 PUSH20 0xFFFFFFFFFFFFFFFFFFFFFFFFFFFFFFFFFFFFFFFF AND PUSH20 0xFFFFFFFFFFFFFFFFFFFFFFFFFFFFFFFFFFFFFFFF AND DUP2 MSTORE PUSH1 0x20 ADD SWAP1 DUP2 MSTORE PUSH1 0x20 ADD PUSH0 KECCAK256 SLOAD PUSH2 0xDD7 SWAP2 SWAP1 PUSH2 0x1EDE JUMP JUMPDEST PUSH2 0xDE1 SWAP2 SWAP1 PUSH2 0x1F4C JUMP JUMPDEST SWAP1 POP PUSH5 0x12A05F200 DUP2 PUSH2 0xDF2 PUSH2 0x548 JUMP JUMPDEST PUSH2 0xDFC SWAP2 SWAP1 PUSH2 0x1D8F JUMP JUMPDEST GT PUSH2 0xE0A JUMPI DUP1 SWAP2 POP POP PUSH2 0xE10 JUMP JUMPDEST POP JUMPDEST PUSH0 SWAP1 POP JUMPDEST SWAP2 SWAP1 POP JUMP JUMPDEST PUSH0 PUSH1 0x1 PUSH0 DUP5 PUSH20 0xFFFFFFFFFFFFFFFFFFFFFFFFFFFFFFFFFFFFFFFF AND PUSH20 0xFFFFFFFFFFFFFFFFFFFFFFFFFFFFFFFFFFFFFFFF AND DUP2 MSTORE PUSH1 0x20 ADD SWAP1 DUP2 MSTORE PUSH1 0x20 ADD PUSH0 KECCAK256 PUSH0 DUP4 PUSH20 0xFFFFFFFFFFFFFFFFFFFFFFFFFFFFFFFFFFFFFFFF AND PUSH20 0xFFFFFFFFFFFFFFFFFFFFFFFFFFFFFFFFFFFFFFFF AND DUP2 MSTORE PUSH1 0x20 ADD SWAP1 DUP2 MSTORE PUSH1 0x20 ADD PUSH0 KECCAK256 SLOAD SWAP1 POP SWAP3 SWAP2 POP POP JUMP JUMPDEST PUSH2 0xE9F PUSH2 0xF34 JUMP JUMPDEST PUSH0 PUSH20 0xFFFFFFFFFFFFFFFFFFFFFFFFFFFFFFFFFFFFFFFF AND DUP2 PUSH20 0xFFFFFFFFFFFFFFFFFFFFFFFFFFFFFFFFFFFFFFFF AND SUB PUSH2 0xF0F JUMPI PUSH0 PUSH1 0x40 MLOAD PUSH32 0x1E4FBDF700000000000000000000000000000000000000000000000000000000 DUP2 MSTORE PUSH1 0x4 ADD PUSH2 0xF06 SWAP2 SWAP1 PUSH2 0x1C13 JUMP JUMPDEST PUSH1 0x40 MLOAD DUP1 SWAP2 SUB SWAP1 REVERT JUMPDEST PUSH2 0xF18 DUP2 PUSH2 0x125F JUMP JUMPDEST POP JUMP JUMPDEST PUSH0 CALLER SWAP1 POP SWAP1 JUMP JUMPDEST PUSH2 0xF2F DUP4 DUP4 DUP4 PUSH1 0x1 PUSH2 0x1405 JUMP JUMPDEST POP POP POP JUMP JUMPDEST PUSH2 0xF3C PUSH2 0xF1B JUMP JUMPDEST PUSH20 0xFFFFFFFFFFFFFFFFFFFFFFFFFFFFFFFFFFFFFFFF AND PUSH2 0xF5A PUSH2 0x8C2 JUMP JUMPDEST PUSH20 0xFFFFFFFFFFFFFFFFFFFFFFFFFFFFFFFFFFFFFFFF AND EQ PUSH2 0xFB9 JUMPI PUSH2 0xF7D PUSH2 0xF1B JUMP JUMPDEST PUSH1 0x40 MLOAD PUSH32 0x118CDAA700000000000000000000000000000000000000000000000000000000 DUP2 MSTORE PUSH1 0x4 ADD PUSH2 0xFB0 SWAP2 SWAP1 PUSH2 0x1C13 JUMP JUMPDEST PUSH1 0x40 MLOAD DUP1 SWAP2 SUB SWAP1 REVERT JUMPDEST JUMP JUMPDEST PUSH1 0x2 PUSH1 0x6 SLOAD SUB PUSH2 0x1000 JUMPI PUSH1 0x40 MLOAD PUSH32 0x8C379A000000000000000000000000000000000000000000000000000000000 DUP2 MSTORE PUSH1 0x4 ADD PUSH2 0xFF7 SWAP1 PUSH2 0x1FC6 JUMP JUMPDEST PUSH1 0x40 MLOAD DUP1 SWAP2 SUB SWAP1 REVERT JUMPDEST PUSH1 0x2 PUSH1 0x6 DUP2 SWAP1 SSTORE POP JUMP JUMPDEST PUSH1 0x9 PUSH0 SWAP1 SLOAD SWAP1 PUSH2 0x100 EXP SWAP1 DIV PUSH1 0xFF AND ISZERO PUSH2 0x1059 JUMPI PUSH1 0x40 MLOAD PUSH32 0x8C379A000000000000000000000000000000000000000000000000000000000 DUP2 MSTORE PUSH1 0x4 ADD PUSH2 0x1050 SWAP1 PUSH2 0x202E JUMP JUMPDEST PUSH1 0x40 MLOAD DUP1 SWAP2 SUB SWAP1 REVERT JUMPDEST PUSH0 PUSH3 0x186A0 DUP3 PUSH2 0x1069 SWAP2 SWAP1 PUSH2 0x1F4C JUMP JUMPDEST SWAP1 POP PUSH0 DUP2 DUP4 PUSH2 0x1078 SWAP2 SWAP1 PUSH2 0x1D5C JUMP JUMPDEST SWAP1 POP DUP2 DUP2 PUSH2 0x1086 SWAP2 SWAP1 PUSH2 0x1D8F JUMP JUMPDEST DUP4 EQ PUSH2 0x10C7 JUMPI PUSH1 0x40 MLOAD PUSH32 0x8C379A000000000000000000000000000000000000000000000000000000000 DUP2 MSTORE PUSH1 0x4 ADD PUSH2 0x10BE SWAP1 PUSH2 0x2096 JUMP JUMPDEST PUSH1 0x40 MLOAD DUP1 SWAP2 SUB SWAP1 REVERT JUMPDEST PUSH2 0x10D2 DUP6 DUP6 DUP4 PUSH2 0x15D4 JUMP JUMPDEST PUSH2 0x10DC DUP6 DUP4 PUSH2 0x11E0 JUMP JUMPDEST POP POP POP POP POP JUMP JUMPDEST PUSH1 0x1 PUSH1 0x6 DUP2 SWAP1 SSTORE POP JUMP JUMPDEST PUSH0 PUSH2 0x10F8 DUP5 DUP5 PUSH2 0xE15 JUMP JUMPDEST SWAP1 POP PUSH32 0xFFFFFFFFFFFFFFFFFFFFFFFFFFFFFFFFFFFFFFFFFFFFFFFFFFFFFFFFFFFFFFFF DUP2 EQ PUSH2 0x1179 JUMPI DUP2 DUP2 LT ISZERO PUSH2 0x116A JUMPI DUP3 DUP2 DUP4 PUSH1 0x40 MLOAD PUSH32 0xFB8F41B200000000000000000000000000000000000000000000000000000000 DUP2 MSTORE PUSH1 0x4 ADD PUSH2 0x1161 SWAP4 SWAP3 SWAP2 SWAP1 PUSH2 0x20B4 JUMP JUMPDEST PUSH1 0x40 MLOAD DUP1 SWAP2 SUB SWAP1 REVERT JUMPDEST PUSH2 0x1178 DUP5 DUP5 DUP5 DUP5 SUB PUSH0 PUSH2 0x1405 JUMP JUMPDEST JUMPDEST POP POP POP POP JUMP JUMPDEST PUSH2 0x1187 PUSH2 0x16C4 JUMP JUMPDEST PUSH0 PUSH1 0x5 PUSH0 PUSH2 0x100 EXP DUP2 SLOAD DUP2 PUSH1 0xFF MUL NOT AND SWAP1 DUP4 ISZERO ISZERO MUL OR SWAP1 SSTORE POP PUSH32 0x5DB9EE0A495BF2E6FF9C91A7834C1BA4FDD244A5E8AA4E537BD38AEAE4B073AA PUSH2 0x11C9 PUSH2 0xF1B JUMP JUMPDEST PUSH1 0x40 MLOAD PUSH2 0x11D6 SWAP2 SWAP1 PUSH2 0x1C13 JUMP JUMPDEST PUSH1 0x40 MLOAD DUP1 SWAP2 SUB SWAP1 LOG1 JUMP JUMPDEST PUSH0 PUSH20 0xFFFFFFFFFFFFFFFFFFFFFFFFFFFFFFFFFFFFFFFF AND DUP3 PUSH20 0xFFFFFFFFFFFFFFFFFFFFFFFFFFFFFFFFFFFFFFFF AND SUB PUSH2 0x1250 JUMPI PUSH0 PUSH1 0x40 MLOAD PUSH32 0x96C6FD1E00000000000000000000000000000000000000000000000000000000 DUP2 MSTORE PUSH1 0x4 ADD PUSH2 0x1247 SWAP2 SWAP1 PUSH2 0x1C13 JUMP JUMPDEST PUSH1 0x40 MLOAD DUP1 SWAP2 SUB SWAP1 REVERT JUMPDEST PUSH2 0x125B DUP3 PUSH0 DUP4 PUSH2 0x170D JUMP JUMPDEST POP POP JUMP JUMPDEST PUSH0 PUSH1 0x5 PUSH1 0x1 SWAP1 SLOAD SWAP1 PUSH2 0x100 EXP SWAP1 DIV PUSH20 0xFFFFFFFFFFFFFFFFFFFFFFFFFFFFFFFFFFFFFFFF AND SWAP1 POP DUP2 PUSH1 0x5 PUSH1 0x1 PUSH2 0x100 EXP DUP2 SLOAD DUP2 PUSH20 0xFFFFFFFFFFFFFFFFFFFFFFFFFFFFFFFFFFFFFFFF MUL NOT AND SWAP1 DUP4 PUSH20 0xFFFFFFFFFFFFFFFFFFFFFFFFFFFFFFFFFFFFFFFF AND MUL OR SWAP1 SSTORE POP DUP2 PUSH20 0xFFFFFFFFFFFFFFFFFFFFFFFFFFFFFFFFFFFFFFFF AND DUP2 PUSH20 0xFFFFFFFFFFFFFFFFFFFFFFFFFFFFFFFFFFFFFFFF AND PUSH32 0x8BE0079C531659141344CD1FD0A4F28419497F9722A3DAAFE3B4186F6B6457E0 PUSH1 0x40 MLOAD PUSH1 0x40 MLOAD DUP1 SWAP2 SUB SWAP1 LOG3 POP POP JUMP JUMPDEST PUSH2 0x132C PUSH2 0x1926 JUMP JUMPDEST PUSH1 0x1 PUSH1 0x5 PUSH0 PUSH2 0x100 EXP DUP2 SLOAD DUP2 PUSH1 0xFF MUL NOT AND SWAP1 DUP4 ISZERO ISZERO MUL OR SWAP1 SSTORE POP PUSH32 0x62E78CEA01BEE320CD4E420270B5EA74000D11B0C9F74754EBDBFC544B05A258 PUSH2 0x136F PUSH2 0xF1B JUMP JUMPDEST PUSH1 0x40 MLOAD PUSH2 0x137C SWAP2 SWAP1 PUSH2 0x1C13 JUMP JUMPDEST PUSH1 0x40 MLOAD DUP1 SWAP2 SUB SWAP1 LOG1 JUMP JUMPDEST PUSH0 PUSH20 0xFFFFFFFFFFFFFFFFFFFFFFFFFFFFFFFFFFFFFFFF AND DUP3 PUSH20 0xFFFFFFFFFFFFFFFFFFFFFFFFFFFFFFFFFFFFFFFF AND SUB PUSH2 0x13F6 JUMPI PUSH0 PUSH1 0x40 MLOAD PUSH32 0xEC442F0500000000000000000000000000000000000000000000000000000000 DUP2 MSTORE PUSH1 0x4 ADD PUSH2 0x13ED SWAP2 SWAP1 PUSH2 0x1C13 JUMP JUMPDEST PUSH1 0x40 MLOAD DUP1 SWAP2 SUB SWAP1 REVERT JUMPDEST PUSH2 0x1401 PUSH0 DUP4 DUP4 PUSH2 0x170D JUMP JUMPDEST POP POP JUMP JUMPDEST PUSH0 PUSH20 0xFFFFFFFFFFFFFFFFFFFFFFFFFFFFFFFFFFFFFFFF AND DUP5 PUSH20 0xFFFFFFFFFFFFFFFFFFFFFFFFFFFFFFFFFFFFFFFF AND SUB PUSH2 0x1475 JUMPI PUSH0 PUSH1 0x40 MLOAD PUSH32 0xE602DF0500000000000000000000000000000000000000000000000000000000 DUP2 MSTORE PUSH1 0x4 ADD PUSH2 0x146C SWAP2 SWAP1 PUSH2 0x1C13 JUMP JUMPDEST PUSH1 0x40 MLOAD DUP1 SWAP2 SUB SWAP1 REVERT JUMPDEST PUSH0 PUSH20 0xFFFFFFFFFFFFFFFFFFFFFFFFFFFFFFFFFFFFFFFF AND DUP4 PUSH20 0xFFFFFFFFFFFFFFFFFFFFFFFFFFFFFFFFFFFFFFFF AND SUB PUSH2 0x14E5 JUMPI PUSH0 PUSH1 0x40 MLOAD PUSH32 0x94280D6200000000000000000000000000000000000000000000000000000000 DUP2 MSTORE PUSH1 0x4 ADD PUSH2 0x14DC SWAP2 SWAP1 PUSH2 0x1C13 JUMP JUMPDEST PUSH1 0x40 MLOAD DUP1 SWAP2 SUB SWAP1 REVERT JUMPDEST DUP2 PUSH1 0x1 PUSH0 DUP7 PUSH20 0xFFFFFFFFFFFFFFFFFFFFFFFFFFFFFFFFFFFFFFFF AND PUSH20 0xFFFFFFFFFFFFFFFFFFFFFFFFFFFFFFFFFFFFFFFF AND DUP2 MSTORE PUSH1 0x20 ADD SWAP1 DUP2 MSTORE PUSH1 0x20 ADD PUSH0 KECCAK256 PUSH0 DUP6 PUSH20 0xFFFFFFFFFFFFFFFFFFFFFFFFFFFFFFFFFFFFFFFF AND PUSH20 0xFFFFFFFFFFFFFFFFFFFFFFFFFFFFFFFFFFFFFFFF AND DUP2 MSTORE PUSH1 0x20 ADD SWAP1 DUP2 MSTORE PUSH1 0x20 ADD PUSH0 KECCAK256 DUP2 SWAP1 SSTORE POP DUP1 ISZERO PUSH2 0x15CE JUMPI DUP3 PUSH20 0xFFFFFFFFFFFFFFFFFFFFFFFFFFFFFFFFFFFFFFFF AND DUP5 PUSH20 0xFFFFFFFFFFFFFFFFFFFFFFFFFFFFFFFFFFFFFFFF AND PUSH32 0x8C5BE1E5EBEC7D5BD14F71427D1E84F3DD0314C0F7B2291E5B200AC8C7C3B925 DUP5 PUSH1 0x40 MLOAD PUSH2 0x15C5 SWAP2 SWAP1 PUSH2 0x1B11 JUMP JUMPDEST PUSH1 0x40 MLOAD DUP1 SWAP2 SUB SWAP1 LOG3 JUMPDEST POP POP POP POP JUMP JUMPDEST PUSH0 PUSH20 0xFFFFFFFFFFFFFFFFFFFFFFFFFFFFFFFFFFFFFFFF AND DUP4 PUSH20 0xFFFFFFFFFFFFFFFFFFFFFFFFFFFFFFFFFFFFFFFF AND SUB PUSH2 0x1644 JUMPI PUSH0 PUSH1 0x40 MLOAD PUSH32 0x96C6FD1E00000000000000000000000000000000000000000000000000000000 DUP2 MSTORE PUSH1 0x4 ADD PUSH2 0x163B SWAP2 SWAP1 PUSH2 0x1C13 JUMP JUMPDEST PUSH1 0x40 MLOAD DUP1 SWAP2 SUB SWAP1 REVERT JUMPDEST PUSH0 PUSH20 0xFFFFFFFFFFFFFFFFFFFFFFFFFFFFFFFFFFFFFFFF AND DUP3 PUSH20 0xFFFFFFFFFFFFFFFFFFFFFFFFFFFFFFFFFFFFFFFF AND SUB PUSH2 0x16B4 JUMPI PUSH0 PUSH1 0x40 MLOAD PUSH32 0xEC442F0500000000000000000000000000000000000000000000000000000000 DUP2 MSTORE PUSH1 0x4 ADD PUSH2 0x16AB SWAP2 SWAP1 PUSH2 0x1C13 JUMP JUMPDEST PUSH1 0x40 MLOAD DUP1 SWAP2 SUB SWAP1 REVERT JUMPDEST PUSH2 0x16BF DUP4 DUP4 DUP4 PUSH2 0x170D JUMP JUMPDEST POP POP POP JUMP JUMPDEST PUSH2 0x16CC PUSH2 0x823 JUMP JUMPDEST PUSH2 0x170B JUMPI PUSH1 0x40 MLOAD PUSH32 0x8C379A000000000000000000000000000000000000000000000000000000000 DUP2 MSTORE PUSH1 0x4 ADD PUSH2 0x1702 SWAP1 PUSH2 0x2133 JUMP JUMPDEST PUSH1 0x40 MLOAD DUP1 SWAP2 SUB SWAP1 REVERT JUMPDEST JUMP JUMPDEST PUSH0 PUSH20 0xFFFFFFFFFFFFFFFFFFFFFFFFFFFFFFFFFFFFFFFF AND DUP4 PUSH20 0xFFFFFFFFFFFFFFFFFFFFFFFFFFFFFFFFFFFFFFFF AND SUB PUSH2 0x175D JUMPI DUP1 PUSH1 0x2 PUSH0 DUP3 DUP3 SLOAD PUSH2 0x1751 SWAP2 SWAP1 PUSH2 0x1D8F JUMP JUMPDEST SWAP3 POP POP DUP2 SWAP1 SSTORE POP PUSH2 0x182B JUMP JUMPDEST PUSH0 DUP1 PUSH0 DUP6 PUSH20 0xFFFFFFFFFFFFFFFFFFFFFFFFFFFFFFFFFFFFFFFF AND PUSH20 0xFFFFFFFFFFFFFFFFFFFFFFFFFFFFFFFFFFFFFFFF AND DUP2 MSTORE PUSH1 0x20 ADD SWAP1 DUP2 MSTORE PUSH1 0x20 ADD PUSH0 KECCAK256 SLOAD SWAP1 POP DUP2 DUP2 LT ISZERO PUSH2 0x17E6 JUMPI DUP4 DUP2 DUP4 PUSH1 0x40 MLOAD PUSH32 0xE450D38C00000000000000000000000000000000000000000000000000000000 DUP2 MSTORE PUSH1 0x4 ADD PUSH2 0x17DD SWAP4 SWAP3 SWAP2 SWAP1 PUSH2 0x20B4 JUMP JUMPDEST PUSH1 0x40 MLOAD DUP1 SWAP2 SUB SWAP1 REVERT JUMPDEST DUP2 DUP2 SUB PUSH0 DUP1 DUP7 PUSH20 0xFFFFFFFFFFFFFFFFFFFFFFFFFFFFFFFFFFFFFFFF AND PUSH20 0xFFFFFFFFFFFFFFFFFFFFFFFFFFFFFFFFFFFFFFFF AND DUP2 MSTORE PUSH1 0x20 ADD SWAP1 DUP2 MSTORE PUSH1 0x20 ADD PUSH0 KECCAK256 DUP2 SWAP1 SSTORE POP POP JUMPDEST PUSH0 PUSH20 0xFFFFFFFFFFFFFFFFFFFFFFFFFFFFFFFFFFFFFFFF AND DUP3 PUSH20 0xFFFFFFFFFFFFFFFFFFFFFFFFFFFFFFFFFFFFFFFF AND SUB PUSH2 0x1872 JUMPI DUP1 PUSH1 0x2 PUSH0 DUP3 DUP3 SLOAD SUB SWAP3 POP POP DUP2 SWAP1 SSTORE POP PUSH2 0x18BC JUMP JUMPDEST DUP1 PUSH0 DUP1 DUP5 PUSH20 0xFFFFFFFFFFFFFFFFFFFFFFFFFFFFFFFFFFFFFFFF AND PUSH20 0xFFFFFFFFFFFFFFFFFFFFFFFFFFFFFFFFFFFFFFFF AND DUP2 MSTORE PUSH1 0x20 ADD SWAP1 DUP2 MSTORE PUSH1 0x20 ADD PUSH0 KECCAK256 PUSH0 DUP3 DUP3 SLOAD ADD SWAP3 POP POP DUP2 SWAP1 SSTORE POP JUMPDEST DUP2 PUSH20 0xFFFFFFFFFFFFFFFFFFFFFFFFFFFFFFFFFFFFFFFF AND DUP4 PUSH20 0xFFFFFFFFFFFFFFFFFFFFFFFFFFFFFFFFFFFFFFFF AND PUSH32 0xDDF252AD1BE2C89B69C2B068FC378DAA952BA7F163C4A11628F55A4DF523B3EF DUP4 PUSH1 0x40 MLOAD PUSH2 0x1919 SWAP2 SWAP1 PUSH2 0x1B11 JUMP JUMPDEST PUSH1 0x40 MLOAD DUP1 SWAP2 SUB SWAP1 LOG3 POP POP POP JUMP JUMPDEST PUSH2 0x192E PUSH2 0x823 JUMP JUMPDEST ISZERO PUSH2 0x196E JUMPI PUSH1 0x40 MLOAD PUSH32 0x8C379A000000000000000000000000000000000000000000000000000000000 DUP2 MSTORE PUSH1 0x4 ADD PUSH2 0x1965 SWAP1 PUSH2 0x219B JUMP JUMPDEST PUSH1 0x40 MLOAD DUP1 SWAP2 SUB SWAP1 REVERT JUMPDEST JUMP JUMPDEST PUSH0 DUP2 MLOAD SWAP1 POP SWAP2 SWAP1 POP JUMP JUMPDEST PUSH0 DUP3 DUP3 MSTORE PUSH1 0x20 DUP3 ADD SWAP1 POP SWAP3 SWAP2 POP POP JUMP JUMPDEST DUP3 DUP2 DUP4 MCOPY PUSH0 DUP4 DUP4 ADD MSTORE POP POP POP JUMP JUMPDEST PUSH0 PUSH1 0x1F NOT PUSH1 0x1F DUP4 ADD AND SWAP1 POP SWAP2 SWAP1 POP JUMP JUMPDEST PUSH0 PUSH2 0x19B2 DUP3 PUSH2 0x1970 JUMP JUMPDEST PUSH2 0x19BC DUP2 DUP6 PUSH2 0x197A JUMP JUMPDEST SWAP4 POP PUSH2 0x19CC DUP2 DUP6 PUSH1 0x20 DUP7 ADD PUSH2 0x198A JUMP JUMPDEST PUSH2 0x19D5 DUP2 PUSH2 0x1998 JUMP JUMPDEST DUP5 ADD SWAP2 POP POP SWAP3 SWAP2 POP POP JUMP JUMPDEST PUSH0 PUSH1 0x20 DUP3 ADD SWAP1 POP DUP2 DUP2 SUB PUSH0 DUP4 ADD MSTORE PUSH2 0x19F8 DUP2 DUP5 PUSH2 0x19A8 JUMP JUMPDEST SWAP1 POP SWAP3 SWAP2 POP POP JUMP JUMPDEST PUSH0 DUP1 REVERT JUMPDEST PUSH0 PUSH20 0xFFFFFFFFFFFFFFFFFFFFFFFFFFFFFFFFFFFFFFFF DUP3 AND SWAP1 POP SWAP2 SWAP1 POP JUMP JUMPDEST PUSH0 PUSH2 0x1A2D DUP3 PUSH2 0x1A04 JUMP JUMPDEST SWAP1 POP SWAP2 SWAP1 POP JUMP JUMPDEST PUSH2 0x1A3D DUP2 PUSH2 0x1A23 JUMP JUMPDEST DUP2 EQ PUSH2 0x1A47 JUMPI PUSH0 DUP1 REVERT JUMPDEST POP JUMP JUMPDEST PUSH0 DUP2 CALLDATALOAD SWAP1 POP PUSH2 0x1A58 DUP2 PUSH2 0x1A34 JUMP JUMPDEST SWAP3 SWAP2 POP POP JUMP JUMPDEST PUSH0 DUP2 SWAP1 POP SWAP2 SWAP1 POP JUMP JUMPDEST PUSH2 0x1A70 DUP2 PUSH2 0x1A5E JUMP JUMPDEST DUP2 EQ PUSH2 0x1A7A JUMPI PUSH0 DUP1 REVERT JUMPDEST POP JUMP JUMPDEST PUSH0 DUP2 CALLDATALOAD SWAP1 POP PUSH2 0x1A8B DUP2 PUSH2 0x1A67 JUMP JUMPDEST SWAP3 SWAP2 POP POP JUMP JUMPDEST PUSH0 DUP1 PUSH1 0x40 DUP4 DUP6 SUB SLT ISZERO PUSH2 0x1AA7 JUMPI PUSH2 0x1AA6 PUSH2 0x1A00 JUMP JUMPDEST JUMPDEST PUSH0 PUSH2 0x1AB4 DUP6 DUP3 DUP7 ADD PUSH2 0x1A4A JUMP JUMPDEST SWAP3 POP POP PUSH1 0x20 PUSH2 0x1AC5 DUP6 DUP3 DUP7 ADD PUSH2 0x1A7D JUMP JUMPDEST SWAP2 POP POP SWAP3 POP SWAP3 SWAP1 POP JUMP JUMPDEST PUSH0 DUP2 ISZERO ISZERO SWAP1 POP SWAP2 SWAP1 POP JUMP JUMPDEST PUSH2 0x1AE3 DUP2 PUSH2 0x1ACF JUMP JUMPDEST DUP3 MSTORE POP POP JUMP JUMPDEST PUSH0 PUSH1 0x20 DUP3 ADD SWAP1 POP PUSH2 0x1AFC PUSH0 DUP4 ADD DUP5 PUSH2 0x1ADA JUMP JUMPDEST SWAP3 SWAP2 POP POP JUMP JUMPDEST PUSH2 0x1B0B DUP2 PUSH2 0x1A5E JUMP JUMPDEST DUP3 MSTORE POP POP JUMP JUMPDEST PUSH0 PUSH1 0x20 DUP3 ADD SWAP1 POP PUSH2 0x1B24 PUSH0 DUP4 ADD DUP5 PUSH2 0x1B02 JUMP JUMPDEST SWAP3 SWAP2 POP POP JUMP JUMPDEST PUSH0 PUSH1 0x20 DUP3 DUP5 SUB SLT ISZERO PUSH2 0x1B3F JUMPI PUSH2 0x1B3E PUSH2 0x1A00 JUMP JUMPDEST JUMPDEST PUSH0 PUSH2 0x1B4C DUP5 DUP3 DUP6 ADD PUSH2 0x1A7D JUMP JUMPDEST SWAP2 POP POP SWAP3 SWAP2 POP POP JUMP JUMPDEST PUSH0 DUP1 PUSH0 PUSH1 0x60 DUP5 DUP7 SUB SLT ISZERO PUSH2 0x1B6C JUMPI PUSH2 0x1B6B PUSH2 0x1A00 JUMP JUMPDEST JUMPDEST PUSH0 PUSH2 0x1B79 DUP7 DUP3 DUP8 ADD PUSH2 0x1A4A JUMP JUMPDEST SWAP4 POP POP PUSH1 0x20 PUSH2 0x1B8A DUP7 DUP3 DUP8 ADD PUSH2 0x1A4A JUMP JUMPDEST SWAP3 POP POP PUSH1 0x40 PUSH2 0x1B9B DUP7 DUP3 DUP8 ADD PUSH2 0x1A7D JUMP JUMPDEST SWAP2 POP POP SWAP3 POP SWAP3 POP SWAP3 JUMP JUMPDEST PUSH0 PUSH1 0xFF DUP3 AND SWAP1 POP SWAP2 SWAP1 POP JUMP JUMPDEST PUSH2 0x1BBA DUP2 PUSH2 0x1BA5 JUMP JUMPDEST DUP3 MSTORE POP POP JUMP JUMPDEST PUSH0 PUSH1 0x20 DUP3 ADD SWAP1 POP PUSH2 0x1BD3 PUSH0 DUP4 ADD DUP5 PUSH2 0x1BB1 JUMP JUMPDEST SWAP3 SWAP2 POP POP JUMP JUMPDEST PUSH0 PUSH1 0x20 DUP3 DUP5 SUB SLT ISZERO PUSH2 0x1BEE JUMPI PUSH2 0x1BED PUSH2 0x1A00 JUMP JUMPDEST JUMPDEST PUSH0 PUSH2 0x1BFB DUP5 DUP3 DUP6 ADD PUSH2 0x1A4A JUMP JUMPDEST SWAP2 POP POP SWAP3 SWAP2 POP POP JUMP JUMPDEST PUSH2 0x1C0D DUP2 PUSH2 0x1A23 JUMP JUMPDEST DUP3 MSTORE POP POP JUMP JUMPDEST PUSH0 PUSH1 0x20 DUP3 ADD SWAP1 POP PUSH2 0x1C26 PUSH0 DUP4 ADD DUP5 PUSH2 0x1C04 JUMP JUMPDEST SWAP3 SWAP2 POP POP JUMP JUMPDEST PUSH0 DUP1 PUSH1 0x40 DUP4 DUP6 SUB SLT ISZERO PUSH2 0x1C42 JUMPI PUSH2 0x1C41 PUSH2 0x1A00 JUMP JUMPDEST JUMPDEST PUSH0 PUSH2 0x1C4F DUP6 DUP3 DUP7 ADD PUSH2 0x1A4A JUMP JUMPDEST SWAP3 POP POP PUSH1 0x20 PUSH2 0x1C60 DUP6 DUP3 DUP7 ADD PUSH2 0x1A4A JUMP JUMPDEST SWAP2 POP POP SWAP3 POP SWAP3 SWAP1 POP JUMP JUMPDEST PUSH32 0x4E487B7100000000000000000000000000000000000000000000000000000000 PUSH0 MSTORE PUSH1 0x22 PUSH1 0x4 MSTORE PUSH1 0x24 PUSH0 REVERT JUMPDEST PUSH0 PUSH1 0x2 DUP3 DIV SWAP1 POP PUSH1 0x1 DUP3 AND DUP1 PUSH2 0x1CAE JUMPI PUSH1 0x7F DUP3 AND SWAP2 POP JUMPDEST PUSH1 0x20 DUP3 LT DUP2 SUB PUSH2 0x1CC1 JUMPI PUSH2 0x1CC0 PUSH2 0x1C6A JUMP JUMPDEST JUMPDEST POP SWAP2 SWAP1 POP JUMP JUMPDEST PUSH32 0x496E73756666696369656E742062616C616E6365000000000000000000000000 PUSH0 DUP3 ADD MSTORE POP JUMP JUMPDEST PUSH0 PUSH2 0x1CFB PUSH1 0x14 DUP4 PUSH2 0x197A JUMP JUMPDEST SWAP2 POP PUSH2 0x1D06 DUP3 PUSH2 0x1CC7 JUMP JUMPDEST PUSH1 0x20 DUP3 ADD SWAP1 POP SWAP2 SWAP1 POP JUMP JUMPDEST PUSH0 PUSH1 0x20 DUP3 ADD SWAP1 POP DUP2 DUP2 SUB PUSH0 DUP4 ADD MSTORE PUSH2 0x1D28 DUP2 PUSH2 0x1CEF JUMP JUMPDEST SWAP1 POP SWAP2 SWAP1 POP JUMP JUMPDEST PUSH32 0x4E487B7100000000000000000000000000000000000000000000000000000000 PUSH0 MSTORE PUSH1 0x11 PUSH1 0x4 MSTORE PUSH1 0x24 PUSH0 REVERT JUMPDEST PUSH0 PUSH2 0x1D66 DUP3 PUSH2 0x1A5E JUMP JUMPDEST SWAP2 POP PUSH2 0x1D71 DUP4 PUSH2 0x1A5E JUMP JUMPDEST SWAP3 POP DUP3 DUP3 SUB SWAP1 POP DUP2 DUP2 GT ISZERO PUSH2 0x1D89 JUMPI PUSH2 0x1D88 PUSH2 0x1D2F JUMP JUMPDEST JUMPDEST SWAP3 SWAP2 POP POP JUMP JUMPDEST PUSH0 PUSH2 0x1D99 DUP3 PUSH2 0x1A5E JUMP JUMPDEST SWAP2 POP PUSH2 0x1DA4 DUP4 PUSH2 0x1A5E JUMP JUMPDEST SWAP3 POP DUP3 DUP3 ADD SWAP1 POP DUP1 DUP3 GT ISZERO PUSH2 0x1DBC JUMPI PUSH2 0x1DBB PUSH2 0x1D2F JUMP JUMPDEST JUMPDEST SWAP3 SWAP2 POP POP JUMP JUMPDEST PUSH32 0x4C6971756964697479206D7573742062652070726F766964656420666F722061 PUSH0 DUP3 ADD MSTORE PUSH32 0x74206C65617374203330206461797320746F207175616C69667920666F722072 PUSH1 0x20 DUP3 ADD MSTORE PUSH32 0x6577617264730000000000000000000000000000000000000000000000000000 PUSH1 0x40 DUP3 ADD MSTORE POP JUMP JUMPDEST PUSH0 PUSH2 0x1E42 PUSH1 0x46 DUP4 PUSH2 0x197A JUMP JUMPDEST SWAP2 POP PUSH2 0x1E4D DUP3 PUSH2 0x1DC2 JUMP JUMPDEST PUSH1 0x60 DUP3 ADD SWAP1 POP SWAP2 SWAP1 POP JUMP JUMPDEST PUSH0 PUSH1 0x20 DUP3 ADD SWAP1 POP DUP2 DUP2 SUB PUSH0 DUP4 ADD MSTORE PUSH2 0x1E6F DUP2 PUSH2 0x1E36 JUMP JUMPDEST SWAP1 POP SWAP2 SWAP1 POP JUMP JUMPDEST PUSH32 0x5265776172642065786365656473206D617820737570706C7900000000000000 PUSH0 DUP3 ADD MSTORE POP JUMP JUMPDEST PUSH0 PUSH2 0x1EAA PUSH1 0x19 DUP4 PUSH2 0x197A JUMP JUMPDEST SWAP2 POP PUSH2 0x1EB5 DUP3 PUSH2 0x1E76 JUMP JUMPDEST PUSH1 0x20 DUP3 ADD SWAP1 POP SWAP2 SWAP1 POP JUMP JUMPDEST PUSH0 PUSH1 0x20 DUP3 ADD SWAP1 POP DUP2 DUP2 SUB PUSH0 DUP4 ADD MSTORE PUSH2 0x1ED7 DUP2 PUSH2 0x1E9E JUMP JUMPDEST SWAP1 POP SWAP2 SWAP1 POP JUMP JUMPDEST PUSH0 PUSH2 0x1EE8 DUP3 PUSH2 0x1A5E JUMP JUMPDEST SWAP2 POP PUSH2 0x1EF3 DUP4 PUSH2 0x1A5E JUMP JUMPDEST SWAP3 POP DUP3 DUP3 MUL PUSH2 0x1F01 DUP2 PUSH2 0x1A5E JUMP JUMPDEST SWAP2 POP DUP3 DUP3 DIV DUP5 EQ DUP4 ISZERO OR PUSH2 0x1F18 JUMPI PUSH2 0x1F17 PUSH2 0x1D2F JUMP JUMPDEST JUMPDEST POP SWAP3 SWAP2 POP POP JUMP JUMPDEST PUSH32 0x4E487B7100000000000000000000000000000000000000000000000000000000 PUSH0 MSTORE PUSH1 0x12 PUSH1 0x4 MSTORE PUSH1 0x24 PUSH0 REVERT JUMPDEST PUSH0 PUSH2 0x1F56 DUP3 PUSH2 0x1A5E JUMP JUMPDEST SWAP2 POP PUSH2 0x1F61 DUP4 PUSH2 0x1A5E JUMP JUMPDEST SWAP3 POP DUP3 PUSH2 0x1F71 JUMPI PUSH2 0x1F70 PUSH2 0x1F1F JUMP JUMPDEST JUMPDEST DUP3 DUP3 DIV SWAP1 POP SWAP3 SWAP2 POP POP JUMP JUMPDEST PUSH32 0x5265656E7472616E637947756172643A207265656E7472616E742063616C6C00 PUSH0 DUP3 ADD MSTORE POP JUMP JUMPDEST PUSH0 PUSH2 0x1FB0 PUSH1 0x1F DUP4 PUSH2 0x197A JUMP JUMPDEST SWAP2 POP PUSH2 0x1FBB DUP3 PUSH2 0x1F7C JUMP JUMPDEST PUSH1 0x20 DUP3 ADD SWAP1 POP SWAP2 SWAP1 POP JUMP JUMPDEST PUSH0 PUSH1 0x20 DUP3 ADD SWAP1 POP DUP2 DUP2 SUB PUSH0 DUP4 ADD MSTORE PUSH2 0x1FDD DUP2 PUSH2 0x1FA4 JUMP JUMPDEST SWAP1 POP SWAP2 SWAP1 POP JUMP JUMPDEST PUSH32 0x4369726375697420627265616B65722069732061637469766500000000000000 PUSH0 DUP3 ADD MSTORE POP JUMP JUMPDEST PUSH0 PUSH2 0x2018 PUSH1 0x19 DUP4 PUSH2 0x197A JUMP JUMPDEST SWAP2 POP PUSH2 0x2023 DUP3 PUSH2 0x1FE4 JUMP JUMPDEST PUSH1 0x20 DUP3 ADD SWAP1 POP SWAP2 SWAP1 POP JUMP JUMPDEST PUSH0 PUSH1 0x20 DUP3 ADD SWAP1 POP DUP2 DUP2 SUB PUSH0 DUP4 ADD MSTORE PUSH2 0x2045 DUP2 PUSH2 0x200C JUMP JUMPDEST SWAP1 POP SWAP2 SWAP1 POP JUMP JUMPDEST PUSH32 0x4275726E2076616C756520696E76616C69640000000000000000000000000000 PUSH0 DUP3 ADD MSTORE POP JUMP JUMPDEST PUSH0 PUSH2 0x2080 PUSH1 0x12 DUP4 PUSH2 0x197A JUMP JUMPDEST SWAP2 POP PUSH2 0x208B DUP3 PUSH2 0x204C JUMP JUMPDEST PUSH1 0x20 DUP3 ADD SWAP1 POP SWAP2 SWAP1 POP JUMP JUMPDEST PUSH0 PUSH1 0x20 DUP3 ADD SWAP1 POP DUP2 DUP2 SUB PUSH0 DUP4 ADD MSTORE PUSH2 0x20AD DUP2 PUSH2 0x2074 JUMP JUMPDEST SWAP1 POP SWAP2 SWAP1 POP JUMP JUMPDEST PUSH0 PUSH1 0x60 DUP3 ADD SWAP1 POP PUSH2 0x20C7 PUSH0 DUP4 ADD DUP7 PUSH2 0x1C04 JUMP JUMPDEST PUSH2 0x20D4 PUSH1 0x20 DUP4 ADD DUP6 PUSH2 0x1B02 JUMP JUMPDEST PUSH2 0x20E1 PUSH1 0x40 DUP4 ADD DUP5 PUSH2 0x1B02 JUMP JUMPDEST SWAP5 SWAP4 POP POP POP POP JUMP JUMPDEST PUSH32 0x5061757361626C653A206E6F7420706175736564000000000000000000000000 PUSH0 DUP3 ADD MSTORE POP JUMP JUMPDEST PUSH0 PUSH2 0x211D PUSH1 0x14 DUP4 PUSH2 0x197A JUMP JUMPDEST SWAP2 POP PUSH2 0x2128 DUP3 PUSH2 0x20E9 JUMP JUMPDEST PUSH1 0x20 DUP3 ADD SWAP1 POP SWAP2 SWAP1 POP JUMP JUMPDEST PUSH0 PUSH1 0x20 DUP3 ADD SWAP1 POP DUP2 DUP2 SUB PUSH0 DUP4 ADD MSTORE PUSH2 0x214A DUP2 PUSH2 0x2111 JUMP JUMPDEST SWAP1 POP SWAP2 SWAP1 POP JUMP JUMPDEST PUSH32 0x5061757361626C653A2070617573656400000000000000000000000000000000 PUSH0 DUP3 ADD MSTORE POP JUMP JUMPDEST PUSH0 PUSH2 0x2185 PUSH1 0x10 DUP4 PUSH2 0x197A JUMP JUMPDEST SWAP2 POP PUSH2 0x2190 DUP3 PUSH2 0x2151 JUMP JUMPDEST PUSH1 0x20 DUP3 ADD SWAP1 POP SWAP2 SWAP1 POP JUMP JUMPDEST PUSH0 PUSH1 0x20 DUP3 ADD SWAP1 POP DUP2 DUP2 SUB PUSH0 DUP4 ADD MSTORE PUSH2 0x21B2 DUP2 PUSH2 0x2179 JUMP JUMPDEST SWAP1 POP SWAP2 SWAP1 POP JUMP INVALID LOG2 PUSH5 0x6970667358 0x22 SLT KECCAK256 PUSH21 0xD481F8BA00466A150A12A206B3DA41C1D34397D588 0xC3 0xD8 0xEF 0xD9 0x4F 0xD9 PUSH10 0x53CD1B64736F6C634300 ADDMOD BYTE STOP CALLER "
				},
				"gasEstimates": {
					"creation": {
						"codeDepositCost": "1737400",
						"executionCost": "infinite",
						"totalCost": "infinite"
					},
					"external": {
						"INITIAL_SUPPLY()": "371",
						"MAX_SUPPLY()": "415",
						"addLiquidity(uint256)": "infinite",
						"allowance(address,address)": "infinite",
						"approve(address,uint256)": "infinite",
						"balanceOf(address)": "2852",
						"burn(uint256)": "infinite",
						"burnFrom(address,uint256)": "infinite",
						"calculateReward(address)": "infinite",
						"decimals()": "398",
						"disableCircuitBreaker()": "infinite",
						"enableCircuitBreaker()": "infinite",
						"name()": "infinite",
						"owner()": "2677",
						"ownerAddLiquidity(uint256)": "infinite",
						"ownerRemoveLiquidity(uint256)": "infinite",
						"pause()": "infinite",
						"paused()": "2584",
						"removeLiquidityAndClaimRewards(uint256)": "infinite",
						"renounceOwnership()": "infinite",
						"symbol()": "infinite",
						"totalSupply()": "2500",
						"transfer(address,uint256)": "infinite",
						"transferFrom(address,address,uint256)": "infinite",
						"transferOwnership(address)": "infinite",
						"unpause()": "infinite"
					},
					"internal": {
						"_beforeTokenTransfer(address,address,uint256)": "infinite",
						"_transfer(address,address,uint256)": "infinite"
					}
				},
				"methodIdentifiers": {
					"INITIAL_SUPPLY()": "2ff2e9dc",
					"MAX_SUPPLY()": "32cb6b0c",
					"addLiquidity(uint256)": "51c6590a",
					"allowance(address,address)": "dd62ed3e",
					"approve(address,uint256)": "095ea7b3",
					"balanceOf(address)": "70a08231",
					"burn(uint256)": "42966c68",
					"burnFrom(address,uint256)": "79cc6790",
					"calculateReward(address)": "d82e3962",
					"decimals()": "313ce567",
					"disableCircuitBreaker()": "21208fa2",
					"enableCircuitBreaker()": "a64254c3",
					"name()": "06fdde03",
					"owner()": "8da5cb5b",
					"ownerAddLiquidity(uint256)": "afe8289a",
					"ownerRemoveLiquidity(uint256)": "2254b79c",
					"pause()": "8456cb59",
					"paused()": "5c975abb",
					"removeLiquidityAndClaimRewards(uint256)": "c8052107",
					"renounceOwnership()": "715018a6",
					"symbol()": "95d89b41",
					"totalSupply()": "18160ddd",
					"transfer(address,uint256)": "a9059cbb",
					"transferFrom(address,address,uint256)": "23b872dd",
					"transferOwnership(address)": "f2fde38b",
					"unpause()": "3f4ba83a"
				}
			},
			"storageLayout": {
				"storage": [
					{
						"astId": 479,
						"contract": "tESTtWEET.SOL:Tweet_On_Base",
						"label": "_balances",
						"offset": 0,
						"slot": "0",
						"type": "t_mapping(t_address,t_uint256)"
					},
					{
						"astId": 485,
						"contract": "tESTtWEET.SOL:Tweet_On_Base",
						"label": "_allowances",
						"offset": 0,
						"slot": "1",
						"type": "t_mapping(t_address,t_mapping(t_address,t_uint256))"
					},
					{
						"astId": 487,
						"contract": "tESTtWEET.SOL:Tweet_On_Base",
						"label": "_totalSupply",
						"offset": 0,
						"slot": "2",
						"type": "t_uint256"
					},
					{
						"astId": 489,
						"contract": "tESTtWEET.SOL:Tweet_On_Base",
						"label": "_name",
						"offset": 0,
						"slot": "3",
						"type": "t_string_storage"
					},
					{
						"astId": 491,
						"contract": "tESTtWEET.SOL:Tweet_On_Base",
						"label": "_symbol",
						"offset": 0,
						"slot": "4",
						"type": "t_string_storage"
					},
					{
						"astId": 302,
						"contract": "tESTtWEET.SOL:Tweet_On_Base",
						"label": "_paused",
						"offset": 0,
						"slot": "5",
						"type": "t_bool"
					},
					{
						"astId": 8,
						"contract": "tESTtWEET.SOL:Tweet_On_Base",
						"label": "_owner",
						"offset": 1,
						"slot": "5",
						"type": "t_address"
					},
					{
						"astId": 403,
						"contract": "tESTtWEET.SOL:Tweet_On_Base",
						"label": "_status",
						"offset": 0,
						"slot": "6",
						"type": "t_uint256"
					},
					{
						"astId": 1207,
						"contract": "tESTtWEET.SOL:Tweet_On_Base",
						"label": "_liquidityProvided",
						"offset": 0,
						"slot": "7",
						"type": "t_mapping(t_address,t_uint256)"
					},
					{
						"astId": 1211,
						"contract": "tESTtWEET.SOL:Tweet_On_Base",
						"label": "_liquidityProvidedTimestamp",
						"offset": 0,
						"slot": "8",
						"type": "t_mapping(t_address,t_uint256)"
					},
					{
						"astId": 1250,
						"contract": "tESTtWEET.SOL:Tweet_On_Base",
						"label": "_circuitBreakerEnabled",
						"offset": 0,
						"slot": "9",
						"type": "t_bool"
					}
				],
				"types": {
					"t_address": {
						"encoding": "inplace",
						"label": "address",
						"numberOfBytes": "20"
					},
					"t_bool": {
						"encoding": "inplace",
						"label": "bool",
						"numberOfBytes": "1"
					},
					"t_mapping(t_address,t_mapping(t_address,t_uint256))": {
						"encoding": "mapping",
						"key": "t_address",
						"label": "mapping(address => mapping(address => uint256))",
						"numberOfBytes": "32",
						"value": "t_mapping(t_address,t_uint256)"
					},
					"t_mapping(t_address,t_uint256)": {
						"encoding": "mapping",
						"key": "t_address",
						"label": "mapping(address => uint256)",
						"numberOfBytes": "32",
						"value": "t_uint256"
					},
					"t_string_storage": {
						"encoding": "bytes",
						"label": "string",
						"numberOfBytes": "32"
					},
					"t_uint256": {
						"encoding": "inplace",
						"label": "uint256",
						"numberOfBytes": "32"
					}
				}
			},
			"userdoc": {
				"kind": "user",
				"methods": {},
				"version": 1
			}
		}
	}
}